{
	"data": {
		"bytecode": {
			"linkReferences": {},
			"object": "6080604052348015600e575f5ffd5b506107508061001c5f395ff3fe608060405234801561000f575f5ffd5b5060043610610034575f3560e01c8063b776fc1514610038578063bfb231d214610054575b5f5ffd5b610052600480360381019061004d919061030c565b610086565b005b61006e60048036038101906100699190610378565b6100e1565b60405161007d93929190610412565b60405180910390f35b6040518060600160405280848152602001838152602001828152505f5f8581526020019081526020015f205f820151815f015560208201518160010190816100ce919061064b565b5060408201518160020155905050505050565b5f602052805f5260405f205f91509050805f0154908060010180546101059061047b565b80601f01602080910402602001604051908101604052809291908181526020018280546101319061047b565b801561017c5780601f106101535761010080835404028352916020019161017c565b820191905f5260205f20905b81548152906001019060200180831161015f57829003601f168201915b5050505050908060020154905083565b5f604051905090565b5f5ffd5b5f5ffd5b5f819050919050565b6101af8161019d565b81146101b9575f5ffd5b50565b5f813590506101ca816101a6565b92915050565b5f5ffd5b5f5ffd5b5f601f19601f8301169050919050565b7f4e487b71000000000000000000000000000000000000000000000000000000005f52604160045260245ffd5b61021e826101d8565b810181811067ffffffffffffffff8211171561023d5761023c6101e8565b5b80604052505050565b5f61024f61018c565b905061025b8282610215565b919050565b5f67ffffffffffffffff82111561027a576102796101e8565b5b610283826101d8565b9050602081019050919050565b828183375f83830152505050565b5f6102b06102ab84610260565b610246565b9050828152602081018484840111156102cc576102cb6101d4565b5b6102d7848285610290565b509392505050565b5f82601f8301126102f3576102f26101d0565b5b813561030384826020860161029e565b91505092915050565b5f5f5f6060848603121561032357610322610195565b5b5f610330868287016101bc565b935050602084013567ffffffffffffffff81111561035157610350610199565b5b61035d868287016102df565b925050604061036e868287016101bc565b9150509250925092565b5f6020828403121561038d5761038c610195565b5b5f61039a848285016101bc565b91505092915050565b6103ac8161019d565b82525050565b5f81519050919050565b5f82825260208201905092915050565b8281835e5f83830152505050565b5f6103e4826103b2565b6103ee81856103bc565b93506103fe8185602086016103cc565b610407816101d8565b840191505092915050565b5f6060820190506104255f8301866103a3565b818103602083015261043781856103da565b905061044660408301846103a3565b949350505050565b7f4e487b71000000000000000000000000000000000000000000000000000000005f52602260045260245ffd5b5f600282049050600182168061049257607f821691505b6020821081036104a5576104a461044e565b5b50919050565b5f819050815f5260205f209050919050565b5f6020601f8301049050919050565b5f82821b905092915050565b5f600883026105077fffffffffffffffffffffffffffffffffffffffffffffffffffffffffffffffff826104cc565b61051186836104cc565b95508019841693508086168417925050509392505050565b5f819050919050565b5f61054c6105476105428461019d565b610529565b61019d565b9050919050565b5f819050919050565b61056583610532565b61057961057182610553565b8484546104d8565b825550505050565b5f5f905090565b610590610581565b61059b81848461055c565b505050565b5b818110156105be576105b35f82610588565b6001810190506105a1565b5050565b601f821115610603576105d4816104ab565b6105dd846104bd565b810160208510156105ec578190505b6106006105f8856104bd565b8301826105a0565b50505b505050565b5f82821c905092915050565b5f6106235f1984600802610608565b1980831691505092915050565b5f61063b8383610614565b9150826002028217905092915050565b610654826103b2565b67ffffffffffffffff81111561066d5761066c6101e8565b5b610677825461047b565b6106828282856105c2565b5f60209050601f8311600181146106b3575f84156106a1578287015190505b6106ab8582610630565b865550610712565b601f1984166106c1866104ab565b5f5b828110156106e8578489015182556001820191506020850194506020810190506106c3565b868310156107055784890151610701601f891682610614565b8355505b6001600288020188555050505b50505050505056fea264697066735822122036822800d3d18e5c9ea4f1cf3a1f25d240a41903d86e9fe450ca84360f83145664736f6c634300081e0033",
			"opcodes": "PUSH1 0x80 PUSH1 0x40 MSTORE CALLVALUE DUP1 ISZERO PUSH1 0xE JUMPI PUSH0 PUSH0 REVERT JUMPDEST POP PUSH2 0x750 DUP1 PUSH2 0x1C PUSH0 CODECOPY PUSH0 RETURN INVALID PUSH1 0x80 PUSH1 0x40 MSTORE CALLVALUE DUP1 ISZERO PUSH2 0xF JUMPI PUSH0 PUSH0 REVERT JUMPDEST POP PUSH1 0x4 CALLDATASIZE LT PUSH2 0x34 JUMPI PUSH0 CALLDATALOAD PUSH1 0xE0 SHR DUP1 PUSH4 0xB776FC15 EQ PUSH2 0x38 JUMPI DUP1 PUSH4 0xBFB231D2 EQ PUSH2 0x54 JUMPI JUMPDEST PUSH0 PUSH0 REVERT JUMPDEST PUSH2 0x52 PUSH1 0x4 DUP1 CALLDATASIZE SUB DUP2 ADD SWAP1 PUSH2 0x4D SWAP2 SWAP1 PUSH2 0x30C JUMP JUMPDEST PUSH2 0x86 JUMP JUMPDEST STOP JUMPDEST PUSH2 0x6E PUSH1 0x4 DUP1 CALLDATASIZE SUB DUP2 ADD SWAP1 PUSH2 0x69 SWAP2 SWAP1 PUSH2 0x378 JUMP JUMPDEST PUSH2 0xE1 JUMP JUMPDEST PUSH1 0x40 MLOAD PUSH2 0x7D SWAP4 SWAP3 SWAP2 SWAP1 PUSH2 0x412 JUMP JUMPDEST PUSH1 0x40 MLOAD DUP1 SWAP2 SUB SWAP1 RETURN JUMPDEST PUSH1 0x40 MLOAD DUP1 PUSH1 0x60 ADD PUSH1 0x40 MSTORE DUP1 DUP5 DUP2 MSTORE PUSH1 0x20 ADD DUP4 DUP2 MSTORE PUSH1 0x20 ADD DUP3 DUP2 MSTORE POP PUSH0 PUSH0 DUP6 DUP2 MSTORE PUSH1 0x20 ADD SWAP1 DUP2 MSTORE PUSH1 0x20 ADD PUSH0 KECCAK256 PUSH0 DUP3 ADD MLOAD DUP2 PUSH0 ADD SSTORE PUSH1 0x20 DUP3 ADD MLOAD DUP2 PUSH1 0x1 ADD SWAP1 DUP2 PUSH2 0xCE SWAP2 SWAP1 PUSH2 0x64B JUMP JUMPDEST POP PUSH1 0x40 DUP3 ADD MLOAD DUP2 PUSH1 0x2 ADD SSTORE SWAP1 POP POP POP POP POP JUMP JUMPDEST PUSH0 PUSH1 0x20 MSTORE DUP1 PUSH0 MSTORE PUSH1 0x40 PUSH0 KECCAK256 PUSH0 SWAP2 POP SWAP1 POP DUP1 PUSH0 ADD SLOAD SWAP1 DUP1 PUSH1 0x1 ADD DUP1 SLOAD PUSH2 0x105 SWAP1 PUSH2 0x47B JUMP JUMPDEST DUP1 PUSH1 0x1F ADD PUSH1 0x20 DUP1 SWAP2 DIV MUL PUSH1 0x20 ADD PUSH1 0x40 MLOAD SWAP1 DUP2 ADD PUSH1 0x40 MSTORE DUP1 SWAP3 SWAP2 SWAP1 DUP2 DUP2 MSTORE PUSH1 0x20 ADD DUP3 DUP1 SLOAD PUSH2 0x131 SWAP1 PUSH2 0x47B JUMP JUMPDEST DUP1 ISZERO PUSH2 0x17C JUMPI DUP1 PUSH1 0x1F LT PUSH2 0x153 JUMPI PUSH2 0x100 DUP1 DUP4 SLOAD DIV MUL DUP4 MSTORE SWAP2 PUSH1 0x20 ADD SWAP2 PUSH2 0x17C JUMP JUMPDEST DUP3 ADD SWAP2 SWAP1 PUSH0 MSTORE PUSH1 0x20 PUSH0 KECCAK256 SWAP1 JUMPDEST DUP2 SLOAD DUP2 MSTORE SWAP1 PUSH1 0x1 ADD SWAP1 PUSH1 0x20 ADD DUP1 DUP4 GT PUSH2 0x15F JUMPI DUP3 SWAP1 SUB PUSH1 0x1F AND DUP3 ADD SWAP2 JUMPDEST POP POP POP POP POP SWAP1 DUP1 PUSH1 0x2 ADD SLOAD SWAP1 POP DUP4 JUMP JUMPDEST PUSH0 PUSH1 0x40 MLOAD SWAP1 POP SWAP1 JUMP JUMPDEST PUSH0 PUSH0 REVERT JUMPDEST PUSH0 PUSH0 REVERT JUMPDEST PUSH0 DUP2 SWAP1 POP SWAP2 SWAP1 POP JUMP JUMPDEST PUSH2 0x1AF DUP2 PUSH2 0x19D JUMP JUMPDEST DUP2 EQ PUSH2 0x1B9 JUMPI PUSH0 PUSH0 REVERT JUMPDEST POP JUMP JUMPDEST PUSH0 DUP2 CALLDATALOAD SWAP1 POP PUSH2 0x1CA DUP2 PUSH2 0x1A6 JUMP JUMPDEST SWAP3 SWAP2 POP POP JUMP JUMPDEST PUSH0 PUSH0 REVERT JUMPDEST PUSH0 PUSH0 REVERT JUMPDEST PUSH0 PUSH1 0x1F NOT PUSH1 0x1F DUP4 ADD AND SWAP1 POP SWAP2 SWAP1 POP JUMP JUMPDEST PUSH32 0x4E487B7100000000000000000000000000000000000000000000000000000000 PUSH0 MSTORE PUSH1 0x41 PUSH1 0x4 MSTORE PUSH1 0x24 PUSH0 REVERT JUMPDEST PUSH2 0x21E DUP3 PUSH2 0x1D8 JUMP JUMPDEST DUP2 ADD DUP2 DUP2 LT PUSH8 0xFFFFFFFFFFFFFFFF DUP3 GT OR ISZERO PUSH2 0x23D JUMPI PUSH2 0x23C PUSH2 0x1E8 JUMP JUMPDEST JUMPDEST DUP1 PUSH1 0x40 MSTORE POP POP POP JUMP JUMPDEST PUSH0 PUSH2 0x24F PUSH2 0x18C JUMP JUMPDEST SWAP1 POP PUSH2 0x25B DUP3 DUP3 PUSH2 0x215 JUMP JUMPDEST SWAP2 SWAP1 POP JUMP JUMPDEST PUSH0 PUSH8 0xFFFFFFFFFFFFFFFF DUP3 GT ISZERO PUSH2 0x27A JUMPI PUSH2 0x279 PUSH2 0x1E8 JUMP JUMPDEST JUMPDEST PUSH2 0x283 DUP3 PUSH2 0x1D8 JUMP JUMPDEST SWAP1 POP PUSH1 0x20 DUP2 ADD SWAP1 POP SWAP2 SWAP1 POP JUMP JUMPDEST DUP3 DUP2 DUP4 CALLDATACOPY PUSH0 DUP4 DUP4 ADD MSTORE POP POP POP JUMP JUMPDEST PUSH0 PUSH2 0x2B0 PUSH2 0x2AB DUP5 PUSH2 0x260 JUMP JUMPDEST PUSH2 0x246 JUMP JUMPDEST SWAP1 POP DUP3 DUP2 MSTORE PUSH1 0x20 DUP2 ADD DUP5 DUP5 DUP5 ADD GT ISZERO PUSH2 0x2CC JUMPI PUSH2 0x2CB PUSH2 0x1D4 JUMP JUMPDEST JUMPDEST PUSH2 0x2D7 DUP5 DUP3 DUP6 PUSH2 0x290 JUMP JUMPDEST POP SWAP4 SWAP3 POP POP POP JUMP JUMPDEST PUSH0 DUP3 PUSH1 0x1F DUP4 ADD SLT PUSH2 0x2F3 JUMPI PUSH2 0x2F2 PUSH2 0x1D0 JUMP JUMPDEST JUMPDEST DUP2 CALLDATALOAD PUSH2 0x303 DUP5 DUP3 PUSH1 0x20 DUP7 ADD PUSH2 0x29E JUMP JUMPDEST SWAP2 POP POP SWAP3 SWAP2 POP POP JUMP JUMPDEST PUSH0 PUSH0 PUSH0 PUSH1 0x60 DUP5 DUP7 SUB SLT ISZERO PUSH2 0x323 JUMPI PUSH2 0x322 PUSH2 0x195 JUMP JUMPDEST JUMPDEST PUSH0 PUSH2 0x330 DUP7 DUP3 DUP8 ADD PUSH2 0x1BC JUMP JUMPDEST SWAP4 POP POP PUSH1 0x20 DUP5 ADD CALLDATALOAD PUSH8 0xFFFFFFFFFFFFFFFF DUP2 GT ISZERO PUSH2 0x351 JUMPI PUSH2 0x350 PUSH2 0x199 JUMP JUMPDEST JUMPDEST PUSH2 0x35D DUP7 DUP3 DUP8 ADD PUSH2 0x2DF JUMP JUMPDEST SWAP3 POP POP PUSH1 0x40 PUSH2 0x36E DUP7 DUP3 DUP8 ADD PUSH2 0x1BC JUMP JUMPDEST SWAP2 POP POP SWAP3 POP SWAP3 POP SWAP3 JUMP JUMPDEST PUSH0 PUSH1 0x20 DUP3 DUP5 SUB SLT ISZERO PUSH2 0x38D JUMPI PUSH2 0x38C PUSH2 0x195 JUMP JUMPDEST JUMPDEST PUSH0 PUSH2 0x39A DUP5 DUP3 DUP6 ADD PUSH2 0x1BC JUMP JUMPDEST SWAP2 POP POP SWAP3 SWAP2 POP POP JUMP JUMPDEST PUSH2 0x3AC DUP2 PUSH2 0x19D JUMP JUMPDEST DUP3 MSTORE POP POP JUMP JUMPDEST PUSH0 DUP2 MLOAD SWAP1 POP SWAP2 SWAP1 POP JUMP JUMPDEST PUSH0 DUP3 DUP3 MSTORE PUSH1 0x20 DUP3 ADD SWAP1 POP SWAP3 SWAP2 POP POP JUMP JUMPDEST DUP3 DUP2 DUP4 MCOPY PUSH0 DUP4 DUP4 ADD MSTORE POP POP POP JUMP JUMPDEST PUSH0 PUSH2 0x3E4 DUP3 PUSH2 0x3B2 JUMP JUMPDEST PUSH2 0x3EE DUP2 DUP6 PUSH2 0x3BC JUMP JUMPDEST SWAP4 POP PUSH2 0x3FE DUP2 DUP6 PUSH1 0x20 DUP7 ADD PUSH2 0x3CC JUMP JUMPDEST PUSH2 0x407 DUP2 PUSH2 0x1D8 JUMP JUMPDEST DUP5 ADD SWAP2 POP POP SWAP3 SWAP2 POP POP JUMP JUMPDEST PUSH0 PUSH1 0x60 DUP3 ADD SWAP1 POP PUSH2 0x425 PUSH0 DUP4 ADD DUP7 PUSH2 0x3A3 JUMP JUMPDEST DUP2 DUP2 SUB PUSH1 0x20 DUP4 ADD MSTORE PUSH2 0x437 DUP2 DUP6 PUSH2 0x3DA JUMP JUMPDEST SWAP1 POP PUSH2 0x446 PUSH1 0x40 DUP4 ADD DUP5 PUSH2 0x3A3 JUMP JUMPDEST SWAP5 SWAP4 POP POP POP POP JUMP JUMPDEST PUSH32 0x4E487B7100000000000000000000000000000000000000000000000000000000 PUSH0 MSTORE PUSH1 0x22 PUSH1 0x4 MSTORE PUSH1 0x24 PUSH0 REVERT JUMPDEST PUSH0 PUSH1 0x2 DUP3 DIV SWAP1 POP PUSH1 0x1 DUP3 AND DUP1 PUSH2 0x492 JUMPI PUSH1 0x7F DUP3 AND SWAP2 POP JUMPDEST PUSH1 0x20 DUP3 LT DUP2 SUB PUSH2 0x4A5 JUMPI PUSH2 0x4A4 PUSH2 0x44E JUMP JUMPDEST JUMPDEST POP SWAP2 SWAP1 POP JUMP JUMPDEST PUSH0 DUP2 SWAP1 POP DUP2 PUSH0 MSTORE PUSH1 0x20 PUSH0 KECCAK256 SWAP1 POP SWAP2 SWAP1 POP JUMP JUMPDEST PUSH0 PUSH1 0x20 PUSH1 0x1F DUP4 ADD DIV SWAP1 POP SWAP2 SWAP1 POP JUMP JUMPDEST PUSH0 DUP3 DUP3 SHL SWAP1 POP SWAP3 SWAP2 POP POP JUMP JUMPDEST PUSH0 PUSH1 0x8 DUP4 MUL PUSH2 0x507 PUSH32 0xFFFFFFFFFFFFFFFFFFFFFFFFFFFFFFFFFFFFFFFFFFFFFFFFFFFFFFFFFFFFFFFF DUP3 PUSH2 0x4CC JUMP JUMPDEST PUSH2 0x511 DUP7 DUP4 PUSH2 0x4CC JUMP JUMPDEST SWAP6 POP DUP1 NOT DUP5 AND SWAP4 POP DUP1 DUP7 AND DUP5 OR SWAP3 POP POP POP SWAP4 SWAP3 POP POP POP JUMP JUMPDEST PUSH0 DUP2 SWAP1 POP SWAP2 SWAP1 POP JUMP JUMPDEST PUSH0 PUSH2 0x54C PUSH2 0x547 PUSH2 0x542 DUP5 PUSH2 0x19D JUMP JUMPDEST PUSH2 0x529 JUMP JUMPDEST PUSH2 0x19D JUMP JUMPDEST SWAP1 POP SWAP2 SWAP1 POP JUMP JUMPDEST PUSH0 DUP2 SWAP1 POP SWAP2 SWAP1 POP JUMP JUMPDEST PUSH2 0x565 DUP4 PUSH2 0x532 JUMP JUMPDEST PUSH2 0x579 PUSH2 0x571 DUP3 PUSH2 0x553 JUMP JUMPDEST DUP5 DUP5 SLOAD PUSH2 0x4D8 JUMP JUMPDEST DUP3 SSTORE POP POP POP POP JUMP JUMPDEST PUSH0 PUSH0 SWAP1 POP SWAP1 JUMP JUMPDEST PUSH2 0x590 PUSH2 0x581 JUMP JUMPDEST PUSH2 0x59B DUP2 DUP5 DUP5 PUSH2 0x55C JUMP JUMPDEST POP POP POP JUMP JUMPDEST JUMPDEST DUP2 DUP2 LT ISZERO PUSH2 0x5BE JUMPI PUSH2 0x5B3 PUSH0 DUP3 PUSH2 0x588 JUMP JUMPDEST PUSH1 0x1 DUP2 ADD SWAP1 POP PUSH2 0x5A1 JUMP JUMPDEST POP POP JUMP JUMPDEST PUSH1 0x1F DUP3 GT ISZERO PUSH2 0x603 JUMPI PUSH2 0x5D4 DUP2 PUSH2 0x4AB JUMP JUMPDEST PUSH2 0x5DD DUP5 PUSH2 0x4BD JUMP JUMPDEST DUP2 ADD PUSH1 0x20 DUP6 LT ISZERO PUSH2 0x5EC JUMPI DUP2 SWAP1 POP JUMPDEST PUSH2 0x600 PUSH2 0x5F8 DUP6 PUSH2 0x4BD JUMP JUMPDEST DUP4 ADD DUP3 PUSH2 0x5A0 JUMP JUMPDEST POP POP JUMPDEST POP POP POP JUMP JUMPDEST PUSH0 DUP3 DUP3 SHR SWAP1 POP SWAP3 SWAP2 POP POP JUMP JUMPDEST PUSH0 PUSH2 0x623 PUSH0 NOT DUP5 PUSH1 0x8 MUL PUSH2 0x608 JUMP JUMPDEST NOT DUP1 DUP4 AND SWAP2 POP POP SWAP3 SWAP2 POP POP JUMP JUMPDEST PUSH0 PUSH2 0x63B DUP4 DUP4 PUSH2 0x614 JUMP JUMPDEST SWAP2 POP DUP3 PUSH1 0x2 MUL DUP3 OR SWAP1 POP SWAP3 SWAP2 POP POP JUMP JUMPDEST PUSH2 0x654 DUP3 PUSH2 0x3B2 JUMP JUMPDEST PUSH8 0xFFFFFFFFFFFFFFFF DUP2 GT ISZERO PUSH2 0x66D JUMPI PUSH2 0x66C PUSH2 0x1E8 JUMP JUMPDEST JUMPDEST PUSH2 0x677 DUP3 SLOAD PUSH2 0x47B JUMP JUMPDEST PUSH2 0x682 DUP3 DUP3 DUP6 PUSH2 0x5C2 JUMP JUMPDEST PUSH0 PUSH1 0x20 SWAP1 POP PUSH1 0x1F DUP4 GT PUSH1 0x1 DUP2 EQ PUSH2 0x6B3 JUMPI PUSH0 DUP5 ISZERO PUSH2 0x6A1 JUMPI DUP3 DUP8 ADD MLOAD SWAP1 POP JUMPDEST PUSH2 0x6AB DUP6 DUP3 PUSH2 0x630 JUMP JUMPDEST DUP7 SSTORE POP PUSH2 0x712 JUMP JUMPDEST PUSH1 0x1F NOT DUP5 AND PUSH2 0x6C1 DUP7 PUSH2 0x4AB JUMP JUMPDEST PUSH0 JUMPDEST DUP3 DUP2 LT ISZERO PUSH2 0x6E8 JUMPI DUP5 DUP10 ADD MLOAD DUP3 SSTORE PUSH1 0x1 DUP3 ADD SWAP2 POP PUSH1 0x20 DUP6 ADD SWAP5 POP PUSH1 0x20 DUP2 ADD SWAP1 POP PUSH2 0x6C3 JUMP JUMPDEST DUP7 DUP4 LT ISZERO PUSH2 0x705 JUMPI DUP5 DUP10 ADD MLOAD PUSH2 0x701 PUSH1 0x1F DUP10 AND DUP3 PUSH2 0x614 JUMP JUMPDEST DUP4 SSTORE POP JUMPDEST PUSH1 0x1 PUSH1 0x2 DUP9 MUL ADD DUP9 SSTORE POP POP POP JUMPDEST POP POP POP POP POP POP JUMP INVALID LOG2 PUSH5 0x6970667358 0x22 SLT KECCAK256 CALLDATASIZE DUP3 0x28 STOP 0xD3 DATALOADN 0x8E5C SWAP15 LOG4 CALL 0xCF GASPRICE 0x1F 0x25 0xD2 BLOCKHASH LOG4 NOT SUB 0xD8 PUSH15 0x9FE450CA84360F83145664736F6C63 NUMBER STOP ADDMOD 0x1E STOP CALLER "
		},
		"gasEstimates": {
			"creation": {
				"codeDepositCost": "374400",
				"executionCost": "409",
				"totalCost": "374809"
			},
			"external": {
				"addItem(uint256,string,uint256)": "infinite",
				"items(uint256)": "infinite"
			}
		},
		"methodIdentifiers": {
			"addItem(uint256,string,uint256)": "b776fc15",
			"items(uint256)": "bfb231d2"
		}
	},
	"abi": [
		{
			"inputs": [
				{
					"internalType": "uint256",
					"name": "_id",
					"type": "uint256"
				},
				{
					"internalType": "string",
					"name": "_name",
					"type": "string"
				},
				{
					"internalType": "uint256",
					"name": "_value",
					"type": "uint256"
				}
			],
			"name": "addItem",
			"outputs": [],
			"stateMutability": "nonpayable",
			"type": "function"
		},
		{
			"inputs": [
				{
					"internalType": "uint256",
					"name": "",
					"type": "uint256"
				}
			],
			"name": "items",
			"outputs": [
				{
					"internalType": "uint256",
					"name": "id",
					"type": "uint256"
				},
				{
					"internalType": "string",
					"name": "name",
					"type": "string"
				},
				{
					"internalType": "uint256",
					"name": "value",
					"type": "uint256"
				}
			],
			"stateMutability": "view",
			"type": "function"
		}
	]
}