{
	"data": {
		"bytecode": {
			"linkReferences": {},
			"object": "6080604052348015600e575f5ffd5b506108fa8061001c5f395ff3fe608060405234801561000f575f5ffd5b5060043610610054575f3560e01c806271ad5f1461005857806310889aac14610088578063a123c33e146100a4578063b776fc15146100d4578063bfb231d2146100f0575b5f5ffd5b610072600480360381019061006d91906102cb565b610122565b60405161007f9190610305565b60405180910390f35b6100a2600480360381019061009d919061031e565b610137565b005b6100be60048036038101906100b991906102cb565b610151565b6040516100cb919061039b565b60405180910390f35b6100ee60048036038101906100e991906104f0565b610181565b005b61010a600480360381019061010591906102cb565b6101dc565b604051610119939291906105bc565b60405180910390f35b6001602052805f5260405f205f915090505481565b8060015f8481526020019081526020015f20819055505050565b6002602052805f5260405f205f915054906101000a900473ffffffffffffffffffffffffffffffffffffffff1681565b6040518060600160405280848152602001838152602001828152505f5f8581526020019081526020015f205f820151815f015560208201518160010190816101c991906107f5565b5060408201518160020155905050505050565b5f602052805f5260405f205f91509050805f01549080600101805461020090610625565b80601f016020809104026020016040519081016040528092919081815260200182805461022c90610625565b80156102775780601f1061024e57610100808354040283529160200191610277565b820191905f5260205f20905b81548152906001019060200180831161025a57829003601f168201915b5050505050908060020154905083565b5f604051905090565b5f5ffd5b5f5ffd5b5f819050919050565b6102aa81610298565b81146102b4575f5ffd5b50565b5f813590506102c5816102a1565b92915050565b5f602082840312156102e0576102df610290565b5b5f6102ed848285016102b7565b91505092915050565b6102ff81610298565b82525050565b5f6020820190506103185f8301846102f6565b92915050565b5f5f6040838503121561033457610333610290565b5b5f610341858286016102b7565b9250506020610352858286016102b7565b9150509250929050565b5f73ffffffffffffffffffffffffffffffffffffffff82169050919050565b5f6103858261035c565b9050919050565b6103958161037b565b82525050565b5f6020820190506103ae5f83018461038c565b92915050565b5f5ffd5b5f5ffd5b5f601f19601f8301169050919050565b7f4e487b71000000000000000000000000000000000000000000000000000000005f52604160045260245ffd5b610402826103bc565b810181811067ffffffffffffffff82111715610421576104206103cc565b5b80604052505050565b5f610433610287565b905061043f82826103f9565b919050565b5f67ffffffffffffffff82111561045e5761045d6103cc565b5b610467826103bc565b9050602081019050919050565b828183375f83830152505050565b5f61049461048f84610444565b61042a565b9050828152602081018484840111156104b0576104af6103b8565b5b6104bb848285610474565b509392505050565b5f82601f8301126104d7576104d66103b4565b5b81356104e7848260208601610482565b91505092915050565b5f5f5f6060848603121561050757610506610290565b5b5f610514868287016102b7565b935050602084013567ffffffffffffffff81111561053557610534610294565b5b610541868287016104c3565b9250506040610552868287016102b7565b9150509250925092565b5f81519050919050565b5f82825260208201905092915050565b8281835e5f83830152505050565b5f61058e8261055c565b6105988185610566565b93506105a8818560208601610576565b6105b1816103bc565b840191505092915050565b5f6060820190506105cf5f8301866102f6565b81810360208301526105e18185610584565b90506105f060408301846102f6565b949350505050565b7f4e487b71000000000000000000000000000000000000000000000000000000005f52602260045260245ffd5b5f600282049050600182168061063c57607f821691505b60208210810361064f5761064e6105f8565b5b50919050565b5f819050815f5260205f209050919050565b5f6020601f8301049050919050565b5f82821b905092915050565b5f600883026106b17fffffffffffffffffffffffffffffffffffffffffffffffffffffffffffffffff82610676565b6106bb8683610676565b95508019841693508086168417925050509392505050565b5f819050919050565b5f6106f66106f16106ec84610298565b6106d3565b610298565b9050919050565b5f819050919050565b61070f836106dc565b61072361071b826106fd565b848454610682565b825550505050565b5f5f905090565b61073a61072b565b610745818484610706565b505050565b5b818110156107685761075d5f82610732565b60018101905061074b565b5050565b601f8211156107ad5761077e81610655565b61078784610667565b81016020851015610796578190505b6107aa6107a285610667565b83018261074a565b50505b505050565b5f82821c905092915050565b5f6107cd5f19846008026107b2565b1980831691505092915050565b5f6107e583836107be565b9150826002028217905092915050565b6107fe8261055c565b67ffffffffffffffff811115610817576108166103cc565b5b6108218254610625565b61082c82828561076c565b5f60209050601f83116001811461085d575f841561084b578287015190505b61085585826107da565b8655506108bc565b601f19841661086b86610655565b5f5b828110156108925784890151825560018201915060208501945060208101905061086d565b868310156108af57848901516108ab601f8916826107be565b8355505b6001600288020188555050505b50505050505056fea2646970667358221220ac980475622cddccf4fd8b478fcb5f5b7be5ca12a81bf9bb2b42e4bc43448fc964736f6c634300081e0033",
			"opcodes": "PUSH1 0x80 PUSH1 0x40 MSTORE CALLVALUE DUP1 ISZERO PUSH1 0xE JUMPI PUSH0 PUSH0 REVERT JUMPDEST POP PUSH2 0x8FA DUP1 PUSH2 0x1C PUSH0 CODECOPY PUSH0 RETURN INVALID PUSH1 0x80 PUSH1 0x40 MSTORE CALLVALUE DUP1 ISZERO PUSH2 0xF JUMPI PUSH0 PUSH0 REVERT JUMPDEST POP PUSH1 0x4 CALLDATASIZE LT PUSH2 0x54 JUMPI PUSH0 CALLDATALOAD PUSH1 0xE0 SHR DUP1 PUSH3 0x71AD5F EQ PUSH2 0x58 JUMPI DUP1 PUSH4 0x10889AAC EQ PUSH2 0x88 JUMPI DUP1 PUSH4 0xA123C33E EQ PUSH2 0xA4 JUMPI DUP1 PUSH4 0xB776FC15 EQ PUSH2 0xD4 JUMPI DUP1 PUSH4 0xBFB231D2 EQ PUSH2 0xF0 JUMPI JUMPDEST PUSH0 PUSH0 REVERT JUMPDEST PUSH2 0x72 PUSH1 0x4 DUP1 CALLDATASIZE SUB DUP2 ADD SWAP1 PUSH2 0x6D SWAP2 SWAP1 PUSH2 0x2CB JUMP JUMPDEST PUSH2 0x122 JUMP JUMPDEST PUSH1 0x40 MLOAD PUSH2 0x7F SWAP2 SWAP1 PUSH2 0x305 JUMP JUMPDEST PUSH1 0x40 MLOAD DUP1 SWAP2 SUB SWAP1 RETURN JUMPDEST PUSH2 0xA2 PUSH1 0x4 DUP1 CALLDATASIZE SUB DUP2 ADD SWAP1 PUSH2 0x9D SWAP2 SWAP1 PUSH2 0x31E JUMP JUMPDEST PUSH2 0x137 JUMP JUMPDEST STOP JUMPDEST PUSH2 0xBE PUSH1 0x4 DUP1 CALLDATASIZE SUB DUP2 ADD SWAP1 PUSH2 0xB9 SWAP2 SWAP1 PUSH2 0x2CB JUMP JUMPDEST PUSH2 0x151 JUMP JUMPDEST PUSH1 0x40 MLOAD PUSH2 0xCB SWAP2 SWAP1 PUSH2 0x39B JUMP JUMPDEST PUSH1 0x40 MLOAD DUP1 SWAP2 SUB SWAP1 RETURN JUMPDEST PUSH2 0xEE PUSH1 0x4 DUP1 CALLDATASIZE SUB DUP2 ADD SWAP1 PUSH2 0xE9 SWAP2 SWAP1 PUSH2 0x4F0 JUMP JUMPDEST PUSH2 0x181 JUMP JUMPDEST STOP JUMPDEST PUSH2 0x10A PUSH1 0x4 DUP1 CALLDATASIZE SUB DUP2 ADD SWAP1 PUSH2 0x105 SWAP2 SWAP1 PUSH2 0x2CB JUMP JUMPDEST PUSH2 0x1DC JUMP JUMPDEST PUSH1 0x40 MLOAD PUSH2 0x119 SWAP4 SWAP3 SWAP2 SWAP1 PUSH2 0x5BC JUMP JUMPDEST PUSH1 0x40 MLOAD DUP1 SWAP2 SUB SWAP1 RETURN JUMPDEST PUSH1 0x1 PUSH1 0x20 MSTORE DUP1 PUSH0 MSTORE PUSH1 0x40 PUSH0 KECCAK256 PUSH0 SWAP2 POP SWAP1 POP SLOAD DUP2 JUMP JUMPDEST DUP1 PUSH1 0x1 PUSH0 DUP5 DUP2 MSTORE PUSH1 0x20 ADD SWAP1 DUP2 MSTORE PUSH1 0x20 ADD PUSH0 KECCAK256 DUP2 SWAP1 SSTORE POP POP POP JUMP JUMPDEST PUSH1 0x2 PUSH1 0x20 MSTORE DUP1 PUSH0 MSTORE PUSH1 0x40 PUSH0 KECCAK256 PUSH0 SWAP2 POP SLOAD SWAP1 PUSH2 0x100 EXP SWAP1 DIV PUSH20 0xFFFFFFFFFFFFFFFFFFFFFFFFFFFFFFFFFFFFFFFF AND DUP2 JUMP JUMPDEST PUSH1 0x40 MLOAD DUP1 PUSH1 0x60 ADD PUSH1 0x40 MSTORE DUP1 DUP5 DUP2 MSTORE PUSH1 0x20 ADD DUP4 DUP2 MSTORE PUSH1 0x20 ADD DUP3 DUP2 MSTORE POP PUSH0 PUSH0 DUP6 DUP2 MSTORE PUSH1 0x20 ADD SWAP1 DUP2 MSTORE PUSH1 0x20 ADD PUSH0 KECCAK256 PUSH0 DUP3 ADD MLOAD DUP2 PUSH0 ADD SSTORE PUSH1 0x20 DUP3 ADD MLOAD DUP2 PUSH1 0x1 ADD SWAP1 DUP2 PUSH2 0x1C9 SWAP2 SWAP1 PUSH2 0x7F5 JUMP JUMPDEST POP PUSH1 0x40 DUP3 ADD MLOAD DUP2 PUSH1 0x2 ADD SSTORE SWAP1 POP POP POP POP POP JUMP JUMPDEST PUSH0 PUSH1 0x20 MSTORE DUP1 PUSH0 MSTORE PUSH1 0x40 PUSH0 KECCAK256 PUSH0 SWAP2 POP SWAP1 POP DUP1 PUSH0 ADD SLOAD SWAP1 DUP1 PUSH1 0x1 ADD DUP1 SLOAD PUSH2 0x200 SWAP1 PUSH2 0x625 JUMP JUMPDEST DUP1 PUSH1 0x1F ADD PUSH1 0x20 DUP1 SWAP2 DIV MUL PUSH1 0x20 ADD PUSH1 0x40 MLOAD SWAP1 DUP2 ADD PUSH1 0x40 MSTORE DUP1 SWAP3 SWAP2 SWAP1 DUP2 DUP2 MSTORE PUSH1 0x20 ADD DUP3 DUP1 SLOAD PUSH2 0x22C SWAP1 PUSH2 0x625 JUMP JUMPDEST DUP1 ISZERO PUSH2 0x277 JUMPI DUP1 PUSH1 0x1F LT PUSH2 0x24E JUMPI PUSH2 0x100 DUP1 DUP4 SLOAD DIV MUL DUP4 MSTORE SWAP2 PUSH1 0x20 ADD SWAP2 PUSH2 0x277 JUMP JUMPDEST DUP3 ADD SWAP2 SWAP1 PUSH0 MSTORE PUSH1 0x20 PUSH0 KECCAK256 SWAP1 JUMPDEST DUP2 SLOAD DUP2 MSTORE SWAP1 PUSH1 0x1 ADD SWAP1 PUSH1 0x20 ADD DUP1 DUP4 GT PUSH2 0x25A JUMPI DUP3 SWAP1 SUB PUSH1 0x1F AND DUP3 ADD SWAP2 JUMPDEST POP POP POP POP POP SWAP1 DUP1 PUSH1 0x2 ADD SLOAD SWAP1 POP DUP4 JUMP JUMPDEST PUSH0 PUSH1 0x40 MLOAD SWAP1 POP SWAP1 JUMP JUMPDEST PUSH0 PUSH0 REVERT JUMPDEST PUSH0 PUSH0 REVERT JUMPDEST PUSH0 DUP2 SWAP1 POP SWAP2 SWAP1 POP JUMP JUMPDEST PUSH2 0x2AA DUP2 PUSH2 0x298 JUMP JUMPDEST DUP2 EQ PUSH2 0x2B4 JUMPI PUSH0 PUSH0 REVERT JUMPDEST POP JUMP JUMPDEST PUSH0 DUP2 CALLDATALOAD SWAP1 POP PUSH2 0x2C5 DUP2 PUSH2 0x2A1 JUMP JUMPDEST SWAP3 SWAP2 POP POP JUMP JUMPDEST PUSH0 PUSH1 0x20 DUP3 DUP5 SUB SLT ISZERO PUSH2 0x2E0 JUMPI PUSH2 0x2DF PUSH2 0x290 JUMP JUMPDEST JUMPDEST PUSH0 PUSH2 0x2ED DUP5 DUP3 DUP6 ADD PUSH2 0x2B7 JUMP JUMPDEST SWAP2 POP POP SWAP3 SWAP2 POP POP JUMP JUMPDEST PUSH2 0x2FF DUP2 PUSH2 0x298 JUMP JUMPDEST DUP3 MSTORE POP POP JUMP JUMPDEST PUSH0 PUSH1 0x20 DUP3 ADD SWAP1 POP PUSH2 0x318 PUSH0 DUP4 ADD DUP5 PUSH2 0x2F6 JUMP JUMPDEST SWAP3 SWAP2 POP POP JUMP JUMPDEST PUSH0 PUSH0 PUSH1 0x40 DUP4 DUP6 SUB SLT ISZERO PUSH2 0x334 JUMPI PUSH2 0x333 PUSH2 0x290 JUMP JUMPDEST JUMPDEST PUSH0 PUSH2 0x341 DUP6 DUP3 DUP7 ADD PUSH2 0x2B7 JUMP JUMPDEST SWAP3 POP POP PUSH1 0x20 PUSH2 0x352 DUP6 DUP3 DUP7 ADD PUSH2 0x2B7 JUMP JUMPDEST SWAP2 POP POP SWAP3 POP SWAP3 SWAP1 POP JUMP JUMPDEST PUSH0 PUSH20 0xFFFFFFFFFFFFFFFFFFFFFFFFFFFFFFFFFFFFFFFF DUP3 AND SWAP1 POP SWAP2 SWAP1 POP JUMP JUMPDEST PUSH0 PUSH2 0x385 DUP3 PUSH2 0x35C JUMP JUMPDEST SWAP1 POP SWAP2 SWAP1 POP JUMP JUMPDEST PUSH2 0x395 DUP2 PUSH2 0x37B JUMP JUMPDEST DUP3 MSTORE POP POP JUMP JUMPDEST PUSH0 PUSH1 0x20 DUP3 ADD SWAP1 POP PUSH2 0x3AE PUSH0 DUP4 ADD DUP5 PUSH2 0x38C JUMP JUMPDEST SWAP3 SWAP2 POP POP JUMP JUMPDEST PUSH0 PUSH0 REVERT JUMPDEST PUSH0 PUSH0 REVERT JUMPDEST PUSH0 PUSH1 0x1F NOT PUSH1 0x1F DUP4 ADD AND SWAP1 POP SWAP2 SWAP1 POP JUMP JUMPDEST PUSH32 0x4E487B7100000000000000000000000000000000000000000000000000000000 PUSH0 MSTORE PUSH1 0x41 PUSH1 0x4 MSTORE PUSH1 0x24 PUSH0 REVERT JUMPDEST PUSH2 0x402 DUP3 PUSH2 0x3BC JUMP JUMPDEST DUP2 ADD DUP2 DUP2 LT PUSH8 0xFFFFFFFFFFFFFFFF DUP3 GT OR ISZERO PUSH2 0x421 JUMPI PUSH2 0x420 PUSH2 0x3CC JUMP JUMPDEST JUMPDEST DUP1 PUSH1 0x40 MSTORE POP POP POP JUMP JUMPDEST PUSH0 PUSH2 0x433 PUSH2 0x287 JUMP JUMPDEST SWAP1 POP PUSH2 0x43F DUP3 DUP3 PUSH2 0x3F9 JUMP JUMPDEST SWAP2 SWAP1 POP JUMP JUMPDEST PUSH0 PUSH8 0xFFFFFFFFFFFFFFFF DUP3 GT ISZERO PUSH2 0x45E JUMPI PUSH2 0x45D PUSH2 0x3CC JUMP JUMPDEST JUMPDEST PUSH2 0x467 DUP3 PUSH2 0x3BC JUMP JUMPDEST SWAP1 POP PUSH1 0x20 DUP2 ADD SWAP1 POP SWAP2 SWAP1 POP JUMP JUMPDEST DUP3 DUP2 DUP4 CALLDATACOPY PUSH0 DUP4 DUP4 ADD MSTORE POP POP POP JUMP JUMPDEST PUSH0 PUSH2 0x494 PUSH2 0x48F DUP5 PUSH2 0x444 JUMP JUMPDEST PUSH2 0x42A JUMP JUMPDEST SWAP1 POP DUP3 DUP2 MSTORE PUSH1 0x20 DUP2 ADD DUP5 DUP5 DUP5 ADD GT ISZERO PUSH2 0x4B0 JUMPI PUSH2 0x4AF PUSH2 0x3B8 JUMP JUMPDEST JUMPDEST PUSH2 0x4BB DUP5 DUP3 DUP6 PUSH2 0x474 JUMP JUMPDEST POP SWAP4 SWAP3 POP POP POP JUMP JUMPDEST PUSH0 DUP3 PUSH1 0x1F DUP4 ADD SLT PUSH2 0x4D7 JUMPI PUSH2 0x4D6 PUSH2 0x3B4 JUMP JUMPDEST JUMPDEST DUP2 CALLDATALOAD PUSH2 0x4E7 DUP5 DUP3 PUSH1 0x20 DUP7 ADD PUSH2 0x482 JUMP JUMPDEST SWAP2 POP POP SWAP3 SWAP2 POP POP JUMP JUMPDEST PUSH0 PUSH0 PUSH0 PUSH1 0x60 DUP5 DUP7 SUB SLT ISZERO PUSH2 0x507 JUMPI PUSH2 0x506 PUSH2 0x290 JUMP JUMPDEST JUMPDEST PUSH0 PUSH2 0x514 DUP7 DUP3 DUP8 ADD PUSH2 0x2B7 JUMP JUMPDEST SWAP4 POP POP PUSH1 0x20 DUP5 ADD CALLDATALOAD PUSH8 0xFFFFFFFFFFFFFFFF DUP2 GT ISZERO PUSH2 0x535 JUMPI PUSH2 0x534 PUSH2 0x294 JUMP JUMPDEST JUMPDEST PUSH2 0x541 DUP7 DUP3 DUP8 ADD PUSH2 0x4C3 JUMP JUMPDEST SWAP3 POP POP PUSH1 0x40 PUSH2 0x552 DUP7 DUP3 DUP8 ADD PUSH2 0x2B7 JUMP JUMPDEST SWAP2 POP POP SWAP3 POP SWAP3 POP SWAP3 JUMP JUMPDEST PUSH0 DUP2 MLOAD SWAP1 POP SWAP2 SWAP1 POP JUMP JUMPDEST PUSH0 DUP3 DUP3 MSTORE PUSH1 0x20 DUP3 ADD SWAP1 POP SWAP3 SWAP2 POP POP JUMP JUMPDEST DUP3 DUP2 DUP4 MCOPY PUSH0 DUP4 DUP4 ADD MSTORE POP POP POP JUMP JUMPDEST PUSH0 PUSH2 0x58E DUP3 PUSH2 0x55C JUMP JUMPDEST PUSH2 0x598 DUP2 DUP6 PUSH2 0x566 JUMP JUMPDEST SWAP4 POP PUSH2 0x5A8 DUP2 DUP6 PUSH1 0x20 DUP7 ADD PUSH2 0x576 JUMP JUMPDEST PUSH2 0x5B1 DUP2 PUSH2 0x3BC JUMP JUMPDEST DUP5 ADD SWAP2 POP POP SWAP3 SWAP2 POP POP JUMP JUMPDEST PUSH0 PUSH1 0x60 DUP3 ADD SWAP1 POP PUSH2 0x5CF PUSH0 DUP4 ADD DUP7 PUSH2 0x2F6 JUMP JUMPDEST DUP2 DUP2 SUB PUSH1 0x20 DUP4 ADD MSTORE PUSH2 0x5E1 DUP2 DUP6 PUSH2 0x584 JUMP JUMPDEST SWAP1 POP PUSH2 0x5F0 PUSH1 0x40 DUP4 ADD DUP5 PUSH2 0x2F6 JUMP JUMPDEST SWAP5 SWAP4 POP POP POP POP JUMP JUMPDEST PUSH32 0x4E487B7100000000000000000000000000000000000000000000000000000000 PUSH0 MSTORE PUSH1 0x22 PUSH1 0x4 MSTORE PUSH1 0x24 PUSH0 REVERT JUMPDEST PUSH0 PUSH1 0x2 DUP3 DIV SWAP1 POP PUSH1 0x1 DUP3 AND DUP1 PUSH2 0x63C JUMPI PUSH1 0x7F DUP3 AND SWAP2 POP JUMPDEST PUSH1 0x20 DUP3 LT DUP2 SUB PUSH2 0x64F JUMPI PUSH2 0x64E PUSH2 0x5F8 JUMP JUMPDEST JUMPDEST POP SWAP2 SWAP1 POP JUMP JUMPDEST PUSH0 DUP2 SWAP1 POP DUP2 PUSH0 MSTORE PUSH1 0x20 PUSH0 KECCAK256 SWAP1 POP SWAP2 SWAP1 POP JUMP JUMPDEST PUSH0 PUSH1 0x20 PUSH1 0x1F DUP4 ADD DIV SWAP1 POP SWAP2 SWAP1 POP JUMP JUMPDEST PUSH0 DUP3 DUP3 SHL SWAP1 POP SWAP3 SWAP2 POP POP JUMP JUMPDEST PUSH0 PUSH1 0x8 DUP4 MUL PUSH2 0x6B1 PUSH32 0xFFFFFFFFFFFFFFFFFFFFFFFFFFFFFFFFFFFFFFFFFFFFFFFFFFFFFFFFFFFFFFFF DUP3 PUSH2 0x676 JUMP JUMPDEST PUSH2 0x6BB DUP7 DUP4 PUSH2 0x676 JUMP JUMPDEST SWAP6 POP DUP1 NOT DUP5 AND SWAP4 POP DUP1 DUP7 AND DUP5 OR SWAP3 POP POP POP SWAP4 SWAP3 POP POP POP JUMP JUMPDEST PUSH0 DUP2 SWAP1 POP SWAP2 SWAP1 POP JUMP JUMPDEST PUSH0 PUSH2 0x6F6 PUSH2 0x6F1 PUSH2 0x6EC DUP5 PUSH2 0x298 JUMP JUMPDEST PUSH2 0x6D3 JUMP JUMPDEST PUSH2 0x298 JUMP JUMPDEST SWAP1 POP SWAP2 SWAP1 POP JUMP JUMPDEST PUSH0 DUP2 SWAP1 POP SWAP2 SWAP1 POP JUMP JUMPDEST PUSH2 0x70F DUP4 PUSH2 0x6DC JUMP JUMPDEST PUSH2 0x723 PUSH2 0x71B DUP3 PUSH2 0x6FD JUMP JUMPDEST DUP5 DUP5 SLOAD PUSH2 0x682 JUMP JUMPDEST DUP3 SSTORE POP POP POP POP JUMP JUMPDEST PUSH0 PUSH0 SWAP1 POP SWAP1 JUMP JUMPDEST PUSH2 0x73A PUSH2 0x72B JUMP JUMPDEST PUSH2 0x745 DUP2 DUP5 DUP5 PUSH2 0x706 JUMP JUMPDEST POP POP POP JUMP JUMPDEST JUMPDEST DUP2 DUP2 LT ISZERO PUSH2 0x768 JUMPI PUSH2 0x75D PUSH0 DUP3 PUSH2 0x732 JUMP JUMPDEST PUSH1 0x1 DUP2 ADD SWAP1 POP PUSH2 0x74B JUMP JUMPDEST POP POP JUMP JUMPDEST PUSH1 0x1F DUP3 GT ISZERO PUSH2 0x7AD JUMPI PUSH2 0x77E DUP2 PUSH2 0x655 JUMP JUMPDEST PUSH2 0x787 DUP5 PUSH2 0x667 JUMP JUMPDEST DUP2 ADD PUSH1 0x20 DUP6 LT ISZERO PUSH2 0x796 JUMPI DUP2 SWAP1 POP JUMPDEST PUSH2 0x7AA PUSH2 0x7A2 DUP6 PUSH2 0x667 JUMP JUMPDEST DUP4 ADD DUP3 PUSH2 0x74A JUMP JUMPDEST POP POP JUMPDEST POP POP POP JUMP JUMPDEST PUSH0 DUP3 DUP3 SHR SWAP1 POP SWAP3 SWAP2 POP POP JUMP JUMPDEST PUSH0 PUSH2 0x7CD PUSH0 NOT DUP5 PUSH1 0x8 MUL PUSH2 0x7B2 JUMP JUMPDEST NOT DUP1 DUP4 AND SWAP2 POP POP SWAP3 SWAP2 POP POP JUMP JUMPDEST PUSH0 PUSH2 0x7E5 DUP4 DUP4 PUSH2 0x7BE JUMP JUMPDEST SWAP2 POP DUP3 PUSH1 0x2 MUL DUP3 OR SWAP1 POP SWAP3 SWAP2 POP POP JUMP JUMPDEST PUSH2 0x7FE DUP3 PUSH2 0x55C JUMP JUMPDEST PUSH8 0xFFFFFFFFFFFFFFFF DUP2 GT ISZERO PUSH2 0x817 JUMPI PUSH2 0x816 PUSH2 0x3CC JUMP JUMPDEST JUMPDEST PUSH2 0x821 DUP3 SLOAD PUSH2 0x625 JUMP JUMPDEST PUSH2 0x82C DUP3 DUP3 DUP6 PUSH2 0x76C JUMP JUMPDEST PUSH0 PUSH1 0x20 SWAP1 POP PUSH1 0x1F DUP4 GT PUSH1 0x1 DUP2 EQ PUSH2 0x85D JUMPI PUSH0 DUP5 ISZERO PUSH2 0x84B JUMPI DUP3 DUP8 ADD MLOAD SWAP1 POP JUMPDEST PUSH2 0x855 DUP6 DUP3 PUSH2 0x7DA JUMP JUMPDEST DUP7 SSTORE POP PUSH2 0x8BC JUMP JUMPDEST PUSH1 0x1F NOT DUP5 AND PUSH2 0x86B DUP7 PUSH2 0x655 JUMP JUMPDEST PUSH0 JUMPDEST DUP3 DUP2 LT ISZERO PUSH2 0x892 JUMPI DUP5 DUP10 ADD MLOAD DUP3 SSTORE PUSH1 0x1 DUP3 ADD SWAP2 POP PUSH1 0x20 DUP6 ADD SWAP5 POP PUSH1 0x20 DUP2 ADD SWAP1 POP PUSH2 0x86D JUMP JUMPDEST DUP7 DUP4 LT ISZERO PUSH2 0x8AF JUMPI DUP5 DUP10 ADD MLOAD PUSH2 0x8AB PUSH1 0x1F DUP10 AND DUP3 PUSH2 0x7BE JUMP JUMPDEST DUP4 SSTORE POP JUMPDEST PUSH1 0x1 PUSH1 0x2 DUP9 MUL ADD DUP9 SSTORE POP POP POP JUMPDEST POP POP POP POP POP POP JUMP INVALID LOG2 PUSH5 0x6970667358 0x22 SLT KECCAK256 0xAC SWAP9 DIV PUSH22 0x622CDDCCF4FD8B478FCB5F5B7BE5CA12A81BF9BB2B42 RETF 0xBC NUMBER PREVRANDAO DUP16 0xC9 PUSH5 0x736F6C6343 STOP ADDMOD 0x1E STOP CALLER "
		},
		"gasEstimates": {
			"creation": {
				"codeDepositCost": "459600",
				"executionCost": "491",
				"totalCost": "460091"
			},
			"external": {
				"addItem(uint256,string,uint256)": "infinite",
				"extraValue(uint256)": "infinite",
				"items(uint256)": "infinite",
				"owner(uint256)": "2849",
				"setExtra(uint256,uint256)": "infinite"
			}
		},
		"methodIdentifiers": {
			"addItem(uint256,string,uint256)": "b776fc15",
			"extraValue(uint256)": "0071ad5f",
			"items(uint256)": "bfb231d2",
			"owner(uint256)": "a123c33e",
			"setExtra(uint256,uint256)": "10889aac"
		}
	},
	"abi": [
		{
			"inputs": [
				{
					"internalType": "uint256",
					"name": "_id",
					"type": "uint256"
				},
				{
					"internalType": "string",
					"name": "_name",
					"type": "string"
				},
				{
					"internalType": "uint256",
					"name": "_value",
					"type": "uint256"
				}
			],
			"name": "addItem",
			"outputs": [],
			"stateMutability": "nonpayable",
			"type": "function"
		},
		{
			"inputs": [
				{
					"internalType": "uint256",
					"name": "",
					"type": "uint256"
				}
			],
			"name": "extraValue",
			"outputs": [
				{
					"internalType": "uint256",
					"name": "",
					"type": "uint256"
				}
			],
			"stateMutability": "view",
			"type": "function"
		},
		{
			"inputs": [
				{
					"internalType": "uint256",
					"name": "",
					"type": "uint256"
				}
			],
			"name": "items",
			"outputs": [
				{
					"internalType": "uint256",
					"name": "id",
					"type": "uint256"
				},
				{
					"internalType": "string",
					"name": "name",
					"type": "string"
				},
				{
					"internalType": "uint256",
					"name": "value",
					"type": "uint256"
				}
			],
			"stateMutability": "view",
			"type": "function"
		},
		{
			"inputs": [
				{
					"internalType": "uint256",
					"name": "",
					"type": "uint256"
				}
			],
			"name": "owner",
			"outputs": [
				{
					"internalType": "address",
					"name": "",
					"type": "address"
				}
			],
			"stateMutability": "view",
			"type": "function"
		},
		{
			"inputs": [
				{
					"internalType": "uint256",
					"name": "_itemId",
					"type": "uint256"
				},
				{
					"internalType": "uint256",
					"name": "_extra",
					"type": "uint256"
				}
			],
			"name": "setExtra",
			"outputs": [],
			"stateMutability": "nonpayable",
			"type": "function"
		}
	]
}