{
	"data": {
		"bytecode": {
			"linkReferences": {},
			"object": "60806040526040518060400160405280600581526020017f4d697368610000000000000000000000000000000000000000000000000000008152506001908161004891906102e7565b50348015610054575f5ffd5b50335f5f6101000a81548173ffffffffffffffffffffffffffffffffffffffff021916908373ffffffffffffffffffffffffffffffffffffffff1602179055506004600a90816100a491906103dd565b506104c2565b5f81519050919050565b7f4e487b71000000000000000000000000000000000000000000000000000000005f52604160045260245ffd5b7f4e487b71000000000000000000000000000000000000000000000000000000005f52602260045260245ffd5b5f600282049050600182168061012557607f821691505b602082108103610138576101376100e1565b5b50919050565b5f819050815f5260205f209050919050565b5f6020601f8301049050919050565b5f82821b905092915050565b5f6008830261019a7fffffffffffffffffffffffffffffffffffffffffffffffffffffffffffffffff8261015f565b6101a4868361015f565b95508019841693508086168417925050509392505050565b5f819050919050565b5f819050919050565b5f6101e86101e36101de846101bc565b6101c5565b6101bc565b9050919050565b5f819050919050565b610201836101ce565b61021561020d826101ef565b84845461016b565b825550505050565b5f5f905090565b61022c61021d565b6102378184846101f8565b505050565b5b8181101561025a5761024f5f82610224565b60018101905061023d565b5050565b601f82111561029f576102708161013e565b61027984610150565b81016020851015610288578190505b61029c61029485610150565b83018261023c565b50505b505050565b5f82821c905092915050565b5f6102bf5f19846008026102a4565b1980831691505092915050565b5f6102d783836102b0565b9150826002028217905092915050565b6102f0826100aa565b67ffffffffffffffff811115610309576103086100b4565b5b610313825461010e565b61031e82828561025e565b5f60209050601f83116001811461034f575f841561033d578287015190505b61034785826102cc565b8655506103ae565b601f19841661035d8661013e565b5f5b828110156103845784890151825560018201915060208501945060208101905061035f565b868310156103a1578489015161039d601f8916826102b0565b8355505b6001600288020188555050505b505050505050565b5f815490506103c48161010e565b9050919050565b5f819050815f5260205f209050919050565b8181036103eb5750506104c0565b6103f4826103b6565b67ffffffffffffffff81111561040d5761040c6100b4565b5b610417825461010e565b61042282828561025e565b5f601f83116001811461044f575f841561043d578287015490505b61044785826102cc565b8655506104b9565b601f19841661045d876103cb565b96506104688661013e565b5f5b8281101561048f5784890154825560018201915060018501945060208101905061046a565b868310156104ac57848901546104a8601f8916826102b0565b8355505b6001600288020188555050505b5050505050505b565b6115b4806104cf5f395ff3fe608060405234801561000f575f5ffd5b506004361061012a575f3560e01c80638381f58a116100ab578063b182b0831161006f578063b182b08314610348578063b774884a14610352578063c5b0cb3b1461035c578063d46c2dc41461037a578063fa1ebe4f146103aa5761012a565b80638381f58a146102a057806388e7cc08146102be5780638eace8f7146102ee578063a830e15f1461030c578063a93b016a1461032a5761012a565b8063699450e8116100f2578063699450e8146101d45780636c5f5966146101f25780636d76b9261461022257806376c3ac1d1461025257806380e8d626146102825761012a565b806306c5a5f51461012e5780630f91d8421461014c5780634d5e01fb1461016a578063592120641461019a5780635d36d095146101a4575b5f5ffd5b6101366103c8565b6040516101439190610c8f565b60405180910390f35b610154610454565b6040516101619190610cc7565b60405180910390f35b610184600480360381019061017f9190610e50565b61045a565b6040516101919190610c8f565b60405180910390f35b6101a2610595565b005b6101be60048036038101906101b99190610eaa565b6105b0565b6040516101cb9190610c8f565b60405180910390f35b6101dc6106a6565b6040516101e99190610f30565b60405180910390f35b61020c60048036038101906102079190610eaa565b6106ca565b6040516102199190610cc7565b60405180910390f35b61023c60048036038101906102379190610f73565b6106f7565b6040516102499190610fad565b60405180910390f35b61026c60048036038101906102679190610eaa565b61070c565b6040516102799190610c8f565b60405180910390f35b61028a610802565b6040516102979190610fe0565b60405180910390f35b6102a8610814565b6040516102b59190610cc7565b60405180910390f35b6102d860048036038101906102d39190611023565b61081a565b6040516102e59190610cc7565b60405180910390f35b6102f6610838565b6040516103039190610c8f565b60405180910390f35b6103146108c4565b6040516103219190610c8f565b60405180910390f35b610332610950565b60405161033f9190610c8f565b60405180910390f35b6103506109dc565b005b61035a6109f5565b005b610364610a11565b6040516103719190610c8f565b60405180910390f35b610394600480360381019061038f9190610eaa565b610a9d565b6040516103a19190610c8f565b60405180910390f35b6103b2610b93565b6040516103bf9190610c8f565b60405180910390f35b600480546103d59061107b565b80601f01602080910402602001604051908101604052809291908181526020018280546104019061107b565b801561044c5780601f106104235761010080835404028352916020019161044c565b820191905f5260205f20905b81548152906001019060200180831161042f57829003601f168201915b505050505081565b60085481565b606060058311156104a0576040517f08c379a0000000000000000000000000000000000000000000000000000000008152600401610497906110f5565b60405180910390fd5b6004826040516020016104b4929190611205565b604051602081830303815290604052600490816104d191906113c5565b506002826040516020016104e6929190611205565b6040516020818303038152906040526002908161050391906113c5565b50600280546105119061107b565b80601f016020809104026020016040519081016040528092919081815260200182805461053d9061107b565b80156105885780601f1061055f57610100808354040283529160200191610588565b820191905f5260205f20905b81548152906001019060200180831161056b57829003601f168201915b5050505050905092915050565b5f60095f6101000a81548160ff021916908315150217905550565b60606005826040516020016105c6929190611205565b604051602081830303815290604052600590816105e391906113c5565b506002826040516020016105f8929190611205565b6040516020818303038152906040526002908161061591906113c5565b50600280546106239061107b565b80601f016020809104026020016040519081016040528092919081815260200182805461064f9061107b565b801561069a5780601f106106715761010080835404028352916020019161069a565b820191905f5260205f20905b81548152906001019060200180831161067d57829003601f168201915b50505050509050919050565b5f5f9054906101000a900473ffffffffffffffffffffffffffffffffffffffff1681565b600b818051602081018201805184825260208301602085012081835280955050505050505f915090505481565b6003602052805f5260405f205f915090505481565b6060600482604051602001610722929190611205565b6040516020818303038152906040526004908161073f91906113c5565b50600282604051602001610754929190611205565b6040516020818303038152906040526002908161077191906113c5565b506002805461077f9061107b565b80601f01602080910402602001604051908101604052809291908181526020018280546107ab9061107b565b80156107f65780601f106107cd576101008083540402835291602001916107f6565b820191905f5260205f20905b8154815290600101906020018083116107d957829003601f168201915b50505050509050919050565b60095f9054906101000a900460ff1681565b60075481565b5f60028261082891906114c1565b6007819055506007549050919050565b600680546108459061107b565b80601f01602080910402602001604051908101604052809291908181526020018280546108719061107b565b80156108bc5780601f10610893576101008083540402835291602001916108bc565b820191905f5260205f20905b81548152906001019060200180831161089f57829003601f168201915b505050505081565b600180546108d19061107b565b80601f01602080910402602001604051908101604052809291908181526020018280546108fd9061107b565b80156109485780601f1061091f57610100808354040283529160200191610948565b820191905f5260205f20905b81548152906001019060200180831161092b57829003601f168201915b505050505081565b6002805461095d9061107b565b80601f01602080910402602001604051908101604052809291908181526020018280546109899061107b565b80156109d45780601f106109ab576101008083540402835291602001916109d4565b820191905f5260205f20905b8154815290600101906020018083116109b757829003601f168201915b505050505081565b60085f8154809291906109ee90611537565b9190505550565b600160095f6101000a81548160ff021916908315150217905550565b600a8054610a1e9061107b565b80601f0160208091040260200160405190810160405280929190818152602001828054610a4a9061107b565b8015610a955780601f10610a6c57610100808354040283529160200191610a95565b820191905f5260205f20905b815481529060010190602001808311610a7857829003601f168201915b505050505081565b6060600682604051602001610ab3929190611205565b60405160208183030381529060405260069081610ad091906113c5565b50600282604051602001610ae5929190611205565b60405160208183030381529060405260029081610b0291906113c5565b5060028054610b109061107b565b80601f0160208091040260200160405190810160405280929190818152602001828054610b3c9061107b565b8015610b875780601f10610b5e57610100808354040283529160200191610b87565b820191905f5260205f20905b815481529060010190602001808311610b6a57829003601f168201915b50505050509050919050565b60058054610ba09061107b565b80601f0160208091040260200160405190810160405280929190818152602001828054610bcc9061107b565b8015610c175780601f10610bee57610100808354040283529160200191610c17565b820191905f5260205f20905b815481529060010190602001808311610bfa57829003601f168201915b505050505081565b5f81519050919050565b5f82825260208201905092915050565b8281835e5f83830152505050565b5f601f19601f8301169050919050565b5f610c6182610c1f565b610c6b8185610c29565b9350610c7b818560208601610c39565b610c8481610c47565b840191505092915050565b5f6020820190508181035f830152610ca78184610c57565b905092915050565b5f819050919050565b610cc181610caf565b82525050565b5f602082019050610cda5f830184610cb8565b92915050565b5f604051905090565b5f5ffd5b5f5ffd5b5f819050919050565b610d0381610cf1565b8114610d0d575f5ffd5b50565b5f81359050610d1e81610cfa565b92915050565b5f5ffd5b5f5ffd5b7f4e487b71000000000000000000000000000000000000000000000000000000005f52604160045260245ffd5b610d6282610c47565b810181811067ffffffffffffffff82111715610d8157610d80610d2c565b5b80604052505050565b5f610d93610ce0565b9050610d9f8282610d59565b919050565b5f67ffffffffffffffff821115610dbe57610dbd610d2c565b5b610dc782610c47565b9050602081019050919050565b828183375f83830152505050565b5f610df4610def84610da4565b610d8a565b905082815260208101848484011115610e1057610e0f610d28565b5b610e1b848285610dd4565b509392505050565b5f82601f830112610e3757610e36610d24565b5b8135610e47848260208601610de2565b91505092915050565b5f5f60408385031215610e6657610e65610ce9565b5b5f610e7385828601610d10565b925050602083013567ffffffffffffffff811115610e9457610e93610ced565b5b610ea085828601610e23565b9150509250929050565b5f60208284031215610ebf57610ebe610ce9565b5b5f82013567ffffffffffffffff811115610edc57610edb610ced565b5b610ee884828501610e23565b91505092915050565b5f73ffffffffffffffffffffffffffffffffffffffff82169050919050565b5f610f1a82610ef1565b9050919050565b610f2a81610f10565b82525050565b5f602082019050610f435f830184610f21565b92915050565b610f5281610f10565b8114610f5c575f5ffd5b50565b5f81359050610f6d81610f49565b92915050565b5f60208284031215610f8857610f87610ce9565b5b5f610f9584828501610f5f565b91505092915050565b610fa781610cf1565b82525050565b5f602082019050610fc05f830184610f9e565b92915050565b5f8115159050919050565b610fda81610fc6565b82525050565b5f602082019050610ff35f830184610fd1565b92915050565b61100281610caf565b811461100c575f5ffd5b50565b5f8135905061101d81610ff9565b92915050565b5f6020828403121561103857611037610ce9565b5b5f6110458482850161100f565b91505092915050565b7f4e487b71000000000000000000000000000000000000000000000000000000005f52602260045260245ffd5b5f600282049050600182168061109257607f821691505b6020821081036110a5576110a461104e565b5b50919050565b7f696e76616c6964206e756d6200000000000000000000000000000000000000005f82015250565b5f6110df600c83610c29565b91506110ea826110ab565b602082019050919050565b5f6020820190508181035f83015261110c816110d3565b9050919050565b5f81905092915050565b5f819050815f5260205f209050919050565b5f815461113b8161107b565b6111458186611113565b9450600182165f811461115f5760018114611174576111a6565b60ff19831686528115158202860193506111a6565b61117d8561111d565b5f5b8381101561119e5781548189015260018201915060208101905061117f565b838801955050505b50505092915050565b5f6111b982610c1f565b6111c38185611113565b93506111d3818560208601610c39565b80840191505092915050565b7f2000000000000000000000000000000000000000000000000000000000000000815250565b5f611210828561112f565b915061121c82846111af565b9150611227826111df565b6001820191508190509392505050565b5f6020601f8301049050919050565b5f82821b905092915050565b5f600883026112817fffffffffffffffffffffffffffffffffffffffffffffffffffffffffffffffff82611246565b61128b8683611246565b95508019841693508086168417925050509392505050565b5f819050919050565b5f6112c66112c16112bc84610cf1565b6112a3565b610cf1565b9050919050565b5f819050919050565b6112df836112ac565b6112f36112eb826112cd565b848454611252565b825550505050565b5f5f905090565b61130a6112fb565b6113158184846112d6565b505050565b5b818110156113385761132d5f82611302565b60018101905061131b565b5050565b601f82111561137d5761134e8161111d565b61135784611237565b81016020851015611366578190505b61137a61137285611237565b83018261131a565b50505b505050565b5f82821c905092915050565b5f61139d5f1984600802611382565b1980831691505092915050565b5f6113b5838361138e565b9150826002028217905092915050565b6113ce82610c1f565b67ffffffffffffffff8111156113e7576113e6610d2c565b5b6113f1825461107b565b6113fc82828561133c565b5f60209050601f83116001811461142d575f841561141b578287015190505b61142585826113aa565b86555061148c565b601f19841661143b8661111d565b5f5b828110156114625784890151825560018201915060208501945060208101905061143d565b8683101561147f578489015161147b601f89168261138e565b8355505b6001600288020188555050505b505050505050565b7f4e487b71000000000000000000000000000000000000000000000000000000005f52601160045260245ffd5b5f6114cb82610caf565b91506114d683610caf565b92508282026114e481610caf565b91507f800000000000000000000000000000000000000000000000000000000000000084145f8412161561151b5761151a611494565b5b82820584148315176115305761152f611494565b5b5092915050565b5f61154182610caf565b91507f7fffffffffffffffffffffffffffffffffffffffffffffffffffffffffffffff820361157357611572611494565b5b60018201905091905056fea2646970667358221220b0867ed86b1563ae7df565c289e69b020b824dc76f8cb6ff4c766edc290de6d664736f6c634300081e0033",
			"opcodes": "PUSH1 0x80 PUSH1 0x40 MSTORE PUSH1 0x40 MLOAD DUP1 PUSH1 0x40 ADD PUSH1 0x40 MSTORE DUP1 PUSH1 0x5 DUP2 MSTORE PUSH1 0x20 ADD PUSH32 0x4D69736861000000000000000000000000000000000000000000000000000000 DUP2 MSTORE POP PUSH1 0x1 SWAP1 DUP2 PUSH2 0x48 SWAP2 SWAP1 PUSH2 0x2E7 JUMP JUMPDEST POP CALLVALUE DUP1 ISZERO PUSH2 0x54 JUMPI PUSH0 PUSH0 REVERT JUMPDEST POP CALLER PUSH0 PUSH0 PUSH2 0x100 EXP DUP2 SLOAD DUP2 PUSH20 0xFFFFFFFFFFFFFFFFFFFFFFFFFFFFFFFFFFFFFFFF MUL NOT AND SWAP1 DUP4 PUSH20 0xFFFFFFFFFFFFFFFFFFFFFFFFFFFFFFFFFFFFFFFF AND MUL OR SWAP1 SSTORE POP PUSH1 0x4 PUSH1 0xA SWAP1 DUP2 PUSH2 0xA4 SWAP2 SWAP1 PUSH2 0x3DD JUMP JUMPDEST POP PUSH2 0x4C2 JUMP JUMPDEST PUSH0 DUP2 MLOAD SWAP1 POP SWAP2 SWAP1 POP JUMP JUMPDEST PUSH32 0x4E487B7100000000000000000000000000000000000000000000000000000000 PUSH0 MSTORE PUSH1 0x41 PUSH1 0x4 MSTORE PUSH1 0x24 PUSH0 REVERT JUMPDEST PUSH32 0x4E487B7100000000000000000000000000000000000000000000000000000000 PUSH0 MSTORE PUSH1 0x22 PUSH1 0x4 MSTORE PUSH1 0x24 PUSH0 REVERT JUMPDEST PUSH0 PUSH1 0x2 DUP3 DIV SWAP1 POP PUSH1 0x1 DUP3 AND DUP1 PUSH2 0x125 JUMPI PUSH1 0x7F DUP3 AND SWAP2 POP JUMPDEST PUSH1 0x20 DUP3 LT DUP2 SUB PUSH2 0x138 JUMPI PUSH2 0x137 PUSH2 0xE1 JUMP JUMPDEST JUMPDEST POP SWAP2 SWAP1 POP JUMP JUMPDEST PUSH0 DUP2 SWAP1 POP DUP2 PUSH0 MSTORE PUSH1 0x20 PUSH0 KECCAK256 SWAP1 POP SWAP2 SWAP1 POP JUMP JUMPDEST PUSH0 PUSH1 0x20 PUSH1 0x1F DUP4 ADD DIV SWAP1 POP SWAP2 SWAP1 POP JUMP JUMPDEST PUSH0 DUP3 DUP3 SHL SWAP1 POP SWAP3 SWAP2 POP POP JUMP JUMPDEST PUSH0 PUSH1 0x8 DUP4 MUL PUSH2 0x19A PUSH32 0xFFFFFFFFFFFFFFFFFFFFFFFFFFFFFFFFFFFFFFFFFFFFFFFFFFFFFFFFFFFFFFFF DUP3 PUSH2 0x15F JUMP JUMPDEST PUSH2 0x1A4 DUP7 DUP4 PUSH2 0x15F JUMP JUMPDEST SWAP6 POP DUP1 NOT DUP5 AND SWAP4 POP DUP1 DUP7 AND DUP5 OR SWAP3 POP POP POP SWAP4 SWAP3 POP POP POP JUMP JUMPDEST PUSH0 DUP2 SWAP1 POP SWAP2 SWAP1 POP JUMP JUMPDEST PUSH0 DUP2 SWAP1 POP SWAP2 SWAP1 POP JUMP JUMPDEST PUSH0 PUSH2 0x1E8 PUSH2 0x1E3 PUSH2 0x1DE DUP5 PUSH2 0x1BC JUMP JUMPDEST PUSH2 0x1C5 JUMP JUMPDEST PUSH2 0x1BC JUMP JUMPDEST SWAP1 POP SWAP2 SWAP1 POP JUMP JUMPDEST PUSH0 DUP2 SWAP1 POP SWAP2 SWAP1 POP JUMP JUMPDEST PUSH2 0x201 DUP4 PUSH2 0x1CE JUMP JUMPDEST PUSH2 0x215 PUSH2 0x20D DUP3 PUSH2 0x1EF JUMP JUMPDEST DUP5 DUP5 SLOAD PUSH2 0x16B JUMP JUMPDEST DUP3 SSTORE POP POP POP POP JUMP JUMPDEST PUSH0 PUSH0 SWAP1 POP SWAP1 JUMP JUMPDEST PUSH2 0x22C PUSH2 0x21D JUMP JUMPDEST PUSH2 0x237 DUP2 DUP5 DUP5 PUSH2 0x1F8 JUMP JUMPDEST POP POP POP JUMP JUMPDEST JUMPDEST DUP2 DUP2 LT ISZERO PUSH2 0x25A JUMPI PUSH2 0x24F PUSH0 DUP3 PUSH2 0x224 JUMP JUMPDEST PUSH1 0x1 DUP2 ADD SWAP1 POP PUSH2 0x23D JUMP JUMPDEST POP POP JUMP JUMPDEST PUSH1 0x1F DUP3 GT ISZERO PUSH2 0x29F JUMPI PUSH2 0x270 DUP2 PUSH2 0x13E JUMP JUMPDEST PUSH2 0x279 DUP5 PUSH2 0x150 JUMP JUMPDEST DUP2 ADD PUSH1 0x20 DUP6 LT ISZERO PUSH2 0x288 JUMPI DUP2 SWAP1 POP JUMPDEST PUSH2 0x29C PUSH2 0x294 DUP6 PUSH2 0x150 JUMP JUMPDEST DUP4 ADD DUP3 PUSH2 0x23C JUMP JUMPDEST POP POP JUMPDEST POP POP POP JUMP JUMPDEST PUSH0 DUP3 DUP3 SHR SWAP1 POP SWAP3 SWAP2 POP POP JUMP JUMPDEST PUSH0 PUSH2 0x2BF PUSH0 NOT DUP5 PUSH1 0x8 MUL PUSH2 0x2A4 JUMP JUMPDEST NOT DUP1 DUP4 AND SWAP2 POP POP SWAP3 SWAP2 POP POP JUMP JUMPDEST PUSH0 PUSH2 0x2D7 DUP4 DUP4 PUSH2 0x2B0 JUMP JUMPDEST SWAP2 POP DUP3 PUSH1 0x2 MUL DUP3 OR SWAP1 POP SWAP3 SWAP2 POP POP JUMP JUMPDEST PUSH2 0x2F0 DUP3 PUSH2 0xAA JUMP JUMPDEST PUSH8 0xFFFFFFFFFFFFFFFF DUP2 GT ISZERO PUSH2 0x309 JUMPI PUSH2 0x308 PUSH2 0xB4 JUMP JUMPDEST JUMPDEST PUSH2 0x313 DUP3 SLOAD PUSH2 0x10E JUMP JUMPDEST PUSH2 0x31E DUP3 DUP3 DUP6 PUSH2 0x25E JUMP JUMPDEST PUSH0 PUSH1 0x20 SWAP1 POP PUSH1 0x1F DUP4 GT PUSH1 0x1 DUP2 EQ PUSH2 0x34F JUMPI PUSH0 DUP5 ISZERO PUSH2 0x33D JUMPI DUP3 DUP8 ADD MLOAD SWAP1 POP JUMPDEST PUSH2 0x347 DUP6 DUP3 PUSH2 0x2CC JUMP JUMPDEST DUP7 SSTORE POP PUSH2 0x3AE JUMP JUMPDEST PUSH1 0x1F NOT DUP5 AND PUSH2 0x35D DUP7 PUSH2 0x13E JUMP JUMPDEST PUSH0 JUMPDEST DUP3 DUP2 LT ISZERO PUSH2 0x384 JUMPI DUP5 DUP10 ADD MLOAD DUP3 SSTORE PUSH1 0x1 DUP3 ADD SWAP2 POP PUSH1 0x20 DUP6 ADD SWAP5 POP PUSH1 0x20 DUP2 ADD SWAP1 POP PUSH2 0x35F JUMP JUMPDEST DUP7 DUP4 LT ISZERO PUSH2 0x3A1 JUMPI DUP5 DUP10 ADD MLOAD PUSH2 0x39D PUSH1 0x1F DUP10 AND DUP3 PUSH2 0x2B0 JUMP JUMPDEST DUP4 SSTORE POP JUMPDEST PUSH1 0x1 PUSH1 0x2 DUP9 MUL ADD DUP9 SSTORE POP POP POP JUMPDEST POP POP POP POP POP POP JUMP JUMPDEST PUSH0 DUP2 SLOAD SWAP1 POP PUSH2 0x3C4 DUP2 PUSH2 0x10E JUMP JUMPDEST SWAP1 POP SWAP2 SWAP1 POP JUMP JUMPDEST PUSH0 DUP2 SWAP1 POP DUP2 PUSH0 MSTORE PUSH1 0x20 PUSH0 KECCAK256 SWAP1 POP SWAP2 SWAP1 POP JUMP JUMPDEST DUP2 DUP2 SUB PUSH2 0x3EB JUMPI POP POP PUSH2 0x4C0 JUMP JUMPDEST PUSH2 0x3F4 DUP3 PUSH2 0x3B6 JUMP JUMPDEST PUSH8 0xFFFFFFFFFFFFFFFF DUP2 GT ISZERO PUSH2 0x40D JUMPI PUSH2 0x40C PUSH2 0xB4 JUMP JUMPDEST JUMPDEST PUSH2 0x417 DUP3 SLOAD PUSH2 0x10E JUMP JUMPDEST PUSH2 0x422 DUP3 DUP3 DUP6 PUSH2 0x25E JUMP JUMPDEST PUSH0 PUSH1 0x1F DUP4 GT PUSH1 0x1 DUP2 EQ PUSH2 0x44F JUMPI PUSH0 DUP5 ISZERO PUSH2 0x43D JUMPI DUP3 DUP8 ADD SLOAD SWAP1 POP JUMPDEST PUSH2 0x447 DUP6 DUP3 PUSH2 0x2CC JUMP JUMPDEST DUP7 SSTORE POP PUSH2 0x4B9 JUMP JUMPDEST PUSH1 0x1F NOT DUP5 AND PUSH2 0x45D DUP8 PUSH2 0x3CB JUMP JUMPDEST SWAP7 POP PUSH2 0x468 DUP7 PUSH2 0x13E JUMP JUMPDEST PUSH0 JUMPDEST DUP3 DUP2 LT ISZERO PUSH2 0x48F JUMPI DUP5 DUP10 ADD SLOAD DUP3 SSTORE PUSH1 0x1 DUP3 ADD SWAP2 POP PUSH1 0x1 DUP6 ADD SWAP5 POP PUSH1 0x20 DUP2 ADD SWAP1 POP PUSH2 0x46A JUMP JUMPDEST DUP7 DUP4 LT ISZERO PUSH2 0x4AC JUMPI DUP5 DUP10 ADD SLOAD PUSH2 0x4A8 PUSH1 0x1F DUP10 AND DUP3 PUSH2 0x2B0 JUMP JUMPDEST DUP4 SSTORE POP JUMPDEST PUSH1 0x1 PUSH1 0x2 DUP9 MUL ADD DUP9 SSTORE POP POP POP JUMPDEST POP POP POP POP POP POP JUMPDEST JUMP JUMPDEST PUSH2 0x15B4 DUP1 PUSH2 0x4CF PUSH0 CODECOPY PUSH0 RETURN INVALID PUSH1 0x80 PUSH1 0x40 MSTORE CALLVALUE DUP1 ISZERO PUSH2 0xF JUMPI PUSH0 PUSH0 REVERT JUMPDEST POP PUSH1 0x4 CALLDATASIZE LT PUSH2 0x12A JUMPI PUSH0 CALLDATALOAD PUSH1 0xE0 SHR DUP1 PUSH4 0x8381F58A GT PUSH2 0xAB JUMPI DUP1 PUSH4 0xB182B083 GT PUSH2 0x6F JUMPI DUP1 PUSH4 0xB182B083 EQ PUSH2 0x348 JUMPI DUP1 PUSH4 0xB774884A EQ PUSH2 0x352 JUMPI DUP1 PUSH4 0xC5B0CB3B EQ PUSH2 0x35C JUMPI DUP1 PUSH4 0xD46C2DC4 EQ PUSH2 0x37A JUMPI DUP1 PUSH4 0xFA1EBE4F EQ PUSH2 0x3AA JUMPI PUSH2 0x12A JUMP JUMPDEST DUP1 PUSH4 0x8381F58A EQ PUSH2 0x2A0 JUMPI DUP1 PUSH4 0x88E7CC08 EQ PUSH2 0x2BE JUMPI DUP1 PUSH4 0x8EACE8F7 EQ PUSH2 0x2EE JUMPI DUP1 PUSH4 0xA830E15F EQ PUSH2 0x30C JUMPI DUP1 PUSH4 0xA93B016A EQ PUSH2 0x32A JUMPI PUSH2 0x12A JUMP JUMPDEST DUP1 PUSH4 0x699450E8 GT PUSH2 0xF2 JUMPI DUP1 PUSH4 0x699450E8 EQ PUSH2 0x1D4 JUMPI DUP1 PUSH4 0x6C5F5966 EQ PUSH2 0x1F2 JUMPI DUP1 PUSH4 0x6D76B926 EQ PUSH2 0x222 JUMPI DUP1 PUSH4 0x76C3AC1D EQ PUSH2 0x252 JUMPI DUP1 PUSH4 0x80E8D626 EQ PUSH2 0x282 JUMPI PUSH2 0x12A JUMP JUMPDEST DUP1 PUSH4 0x6C5A5F5 EQ PUSH2 0x12E JUMPI DUP1 PUSH4 0xF91D842 EQ PUSH2 0x14C JUMPI DUP1 PUSH4 0x4D5E01FB EQ PUSH2 0x16A JUMPI DUP1 PUSH4 0x59212064 EQ PUSH2 0x19A JUMPI DUP1 PUSH4 0x5D36D095 EQ PUSH2 0x1A4 JUMPI JUMPDEST PUSH0 PUSH0 REVERT JUMPDEST PUSH2 0x136 PUSH2 0x3C8 JUMP JUMPDEST PUSH1 0x40 MLOAD PUSH2 0x143 SWAP2 SWAP1 PUSH2 0xC8F JUMP JUMPDEST PUSH1 0x40 MLOAD DUP1 SWAP2 SUB SWAP1 RETURN JUMPDEST PUSH2 0x154 PUSH2 0x454 JUMP JUMPDEST PUSH1 0x40 MLOAD PUSH2 0x161 SWAP2 SWAP1 PUSH2 0xCC7 JUMP JUMPDEST PUSH1 0x40 MLOAD DUP1 SWAP2 SUB SWAP1 RETURN JUMPDEST PUSH2 0x184 PUSH1 0x4 DUP1 CALLDATASIZE SUB DUP2 ADD SWAP1 PUSH2 0x17F SWAP2 SWAP1 PUSH2 0xE50 JUMP JUMPDEST PUSH2 0x45A JUMP JUMPDEST PUSH1 0x40 MLOAD PUSH2 0x191 SWAP2 SWAP1 PUSH2 0xC8F JUMP JUMPDEST PUSH1 0x40 MLOAD DUP1 SWAP2 SUB SWAP1 RETURN JUMPDEST PUSH2 0x1A2 PUSH2 0x595 JUMP JUMPDEST STOP JUMPDEST PUSH2 0x1BE PUSH1 0x4 DUP1 CALLDATASIZE SUB DUP2 ADD SWAP1 PUSH2 0x1B9 SWAP2 SWAP1 PUSH2 0xEAA JUMP JUMPDEST PUSH2 0x5B0 JUMP JUMPDEST PUSH1 0x40 MLOAD PUSH2 0x1CB SWAP2 SWAP1 PUSH2 0xC8F JUMP JUMPDEST PUSH1 0x40 MLOAD DUP1 SWAP2 SUB SWAP1 RETURN JUMPDEST PUSH2 0x1DC PUSH2 0x6A6 JUMP JUMPDEST PUSH1 0x40 MLOAD PUSH2 0x1E9 SWAP2 SWAP1 PUSH2 0xF30 JUMP JUMPDEST PUSH1 0x40 MLOAD DUP1 SWAP2 SUB SWAP1 RETURN JUMPDEST PUSH2 0x20C PUSH1 0x4 DUP1 CALLDATASIZE SUB DUP2 ADD SWAP1 PUSH2 0x207 SWAP2 SWAP1 PUSH2 0xEAA JUMP JUMPDEST PUSH2 0x6CA JUMP JUMPDEST PUSH1 0x40 MLOAD PUSH2 0x219 SWAP2 SWAP1 PUSH2 0xCC7 JUMP JUMPDEST PUSH1 0x40 MLOAD DUP1 SWAP2 SUB SWAP1 RETURN JUMPDEST PUSH2 0x23C PUSH1 0x4 DUP1 CALLDATASIZE SUB DUP2 ADD SWAP1 PUSH2 0x237 SWAP2 SWAP1 PUSH2 0xF73 JUMP JUMPDEST PUSH2 0x6F7 JUMP JUMPDEST PUSH1 0x40 MLOAD PUSH2 0x249 SWAP2 SWAP1 PUSH2 0xFAD JUMP JUMPDEST PUSH1 0x40 MLOAD DUP1 SWAP2 SUB SWAP1 RETURN JUMPDEST PUSH2 0x26C PUSH1 0x4 DUP1 CALLDATASIZE SUB DUP2 ADD SWAP1 PUSH2 0x267 SWAP2 SWAP1 PUSH2 0xEAA JUMP JUMPDEST PUSH2 0x70C JUMP JUMPDEST PUSH1 0x40 MLOAD PUSH2 0x279 SWAP2 SWAP1 PUSH2 0xC8F JUMP JUMPDEST PUSH1 0x40 MLOAD DUP1 SWAP2 SUB SWAP1 RETURN JUMPDEST PUSH2 0x28A PUSH2 0x802 JUMP JUMPDEST PUSH1 0x40 MLOAD PUSH2 0x297 SWAP2 SWAP1 PUSH2 0xFE0 JUMP JUMPDEST PUSH1 0x40 MLOAD DUP1 SWAP2 SUB SWAP1 RETURN JUMPDEST PUSH2 0x2A8 PUSH2 0x814 JUMP JUMPDEST PUSH1 0x40 MLOAD PUSH2 0x2B5 SWAP2 SWAP1 PUSH2 0xCC7 JUMP JUMPDEST PUSH1 0x40 MLOAD DUP1 SWAP2 SUB SWAP1 RETURN JUMPDEST PUSH2 0x2D8 PUSH1 0x4 DUP1 CALLDATASIZE SUB DUP2 ADD SWAP1 PUSH2 0x2D3 SWAP2 SWAP1 PUSH2 0x1023 JUMP JUMPDEST PUSH2 0x81A JUMP JUMPDEST PUSH1 0x40 MLOAD PUSH2 0x2E5 SWAP2 SWAP1 PUSH2 0xCC7 JUMP JUMPDEST PUSH1 0x40 MLOAD DUP1 SWAP2 SUB SWAP1 RETURN JUMPDEST PUSH2 0x2F6 PUSH2 0x838 JUMP JUMPDEST PUSH1 0x40 MLOAD PUSH2 0x303 SWAP2 SWAP1 PUSH2 0xC8F JUMP JUMPDEST PUSH1 0x40 MLOAD DUP1 SWAP2 SUB SWAP1 RETURN JUMPDEST PUSH2 0x314 PUSH2 0x8C4 JUMP JUMPDEST PUSH1 0x40 MLOAD PUSH2 0x321 SWAP2 SWAP1 PUSH2 0xC8F JUMP JUMPDEST PUSH1 0x40 MLOAD DUP1 SWAP2 SUB SWAP1 RETURN JUMPDEST PUSH2 0x332 PUSH2 0x950 JUMP JUMPDEST PUSH1 0x40 MLOAD PUSH2 0x33F SWAP2 SWAP1 PUSH2 0xC8F JUMP JUMPDEST PUSH1 0x40 MLOAD DUP1 SWAP2 SUB SWAP1 RETURN JUMPDEST PUSH2 0x350 PUSH2 0x9DC JUMP JUMPDEST STOP JUMPDEST PUSH2 0x35A PUSH2 0x9F5 JUMP JUMPDEST STOP JUMPDEST PUSH2 0x364 PUSH2 0xA11 JUMP JUMPDEST PUSH1 0x40 MLOAD PUSH2 0x371 SWAP2 SWAP1 PUSH2 0xC8F JUMP JUMPDEST PUSH1 0x40 MLOAD DUP1 SWAP2 SUB SWAP1 RETURN JUMPDEST PUSH2 0x394 PUSH1 0x4 DUP1 CALLDATASIZE SUB DUP2 ADD SWAP1 PUSH2 0x38F SWAP2 SWAP1 PUSH2 0xEAA JUMP JUMPDEST PUSH2 0xA9D JUMP JUMPDEST PUSH1 0x40 MLOAD PUSH2 0x3A1 SWAP2 SWAP1 PUSH2 0xC8F JUMP JUMPDEST PUSH1 0x40 MLOAD DUP1 SWAP2 SUB SWAP1 RETURN JUMPDEST PUSH2 0x3B2 PUSH2 0xB93 JUMP JUMPDEST PUSH1 0x40 MLOAD PUSH2 0x3BF SWAP2 SWAP1 PUSH2 0xC8F JUMP JUMPDEST PUSH1 0x40 MLOAD DUP1 SWAP2 SUB SWAP1 RETURN JUMPDEST PUSH1 0x4 DUP1 SLOAD PUSH2 0x3D5 SWAP1 PUSH2 0x107B JUMP JUMPDEST DUP1 PUSH1 0x1F ADD PUSH1 0x20 DUP1 SWAP2 DIV MUL PUSH1 0x20 ADD PUSH1 0x40 MLOAD SWAP1 DUP2 ADD PUSH1 0x40 MSTORE DUP1 SWAP3 SWAP2 SWAP1 DUP2 DUP2 MSTORE PUSH1 0x20 ADD DUP3 DUP1 SLOAD PUSH2 0x401 SWAP1 PUSH2 0x107B JUMP JUMPDEST DUP1 ISZERO PUSH2 0x44C JUMPI DUP1 PUSH1 0x1F LT PUSH2 0x423 JUMPI PUSH2 0x100 DUP1 DUP4 SLOAD DIV MUL DUP4 MSTORE SWAP2 PUSH1 0x20 ADD SWAP2 PUSH2 0x44C JUMP JUMPDEST DUP3 ADD SWAP2 SWAP1 PUSH0 MSTORE PUSH1 0x20 PUSH0 KECCAK256 SWAP1 JUMPDEST DUP2 SLOAD DUP2 MSTORE SWAP1 PUSH1 0x1 ADD SWAP1 PUSH1 0x20 ADD DUP1 DUP4 GT PUSH2 0x42F JUMPI DUP3 SWAP1 SUB PUSH1 0x1F AND DUP3 ADD SWAP2 JUMPDEST POP POP POP POP POP DUP2 JUMP JUMPDEST PUSH1 0x8 SLOAD DUP2 JUMP JUMPDEST PUSH1 0x60 PUSH1 0x5 DUP4 GT ISZERO PUSH2 0x4A0 JUMPI PUSH1 0x40 MLOAD PUSH32 0x8C379A000000000000000000000000000000000000000000000000000000000 DUP2 MSTORE PUSH1 0x4 ADD PUSH2 0x497 SWAP1 PUSH2 0x10F5 JUMP JUMPDEST PUSH1 0x40 MLOAD DUP1 SWAP2 SUB SWAP1 REVERT JUMPDEST PUSH1 0x4 DUP3 PUSH1 0x40 MLOAD PUSH1 0x20 ADD PUSH2 0x4B4 SWAP3 SWAP2 SWAP1 PUSH2 0x1205 JUMP JUMPDEST PUSH1 0x40 MLOAD PUSH1 0x20 DUP2 DUP4 SUB SUB DUP2 MSTORE SWAP1 PUSH1 0x40 MSTORE PUSH1 0x4 SWAP1 DUP2 PUSH2 0x4D1 SWAP2 SWAP1 PUSH2 0x13C5 JUMP JUMPDEST POP PUSH1 0x2 DUP3 PUSH1 0x40 MLOAD PUSH1 0x20 ADD PUSH2 0x4E6 SWAP3 SWAP2 SWAP1 PUSH2 0x1205 JUMP JUMPDEST PUSH1 0x40 MLOAD PUSH1 0x20 DUP2 DUP4 SUB SUB DUP2 MSTORE SWAP1 PUSH1 0x40 MSTORE PUSH1 0x2 SWAP1 DUP2 PUSH2 0x503 SWAP2 SWAP1 PUSH2 0x13C5 JUMP JUMPDEST POP PUSH1 0x2 DUP1 SLOAD PUSH2 0x511 SWAP1 PUSH2 0x107B JUMP JUMPDEST DUP1 PUSH1 0x1F ADD PUSH1 0x20 DUP1 SWAP2 DIV MUL PUSH1 0x20 ADD PUSH1 0x40 MLOAD SWAP1 DUP2 ADD PUSH1 0x40 MSTORE DUP1 SWAP3 SWAP2 SWAP1 DUP2 DUP2 MSTORE PUSH1 0x20 ADD DUP3 DUP1 SLOAD PUSH2 0x53D SWAP1 PUSH2 0x107B JUMP JUMPDEST DUP1 ISZERO PUSH2 0x588 JUMPI DUP1 PUSH1 0x1F LT PUSH2 0x55F JUMPI PUSH2 0x100 DUP1 DUP4 SLOAD DIV MUL DUP4 MSTORE SWAP2 PUSH1 0x20 ADD SWAP2 PUSH2 0x588 JUMP JUMPDEST DUP3 ADD SWAP2 SWAP1 PUSH0 MSTORE PUSH1 0x20 PUSH0 KECCAK256 SWAP1 JUMPDEST DUP2 SLOAD DUP2 MSTORE SWAP1 PUSH1 0x1 ADD SWAP1 PUSH1 0x20 ADD DUP1 DUP4 GT PUSH2 0x56B JUMPI DUP3 SWAP1 SUB PUSH1 0x1F AND DUP3 ADD SWAP2 JUMPDEST POP POP POP POP POP SWAP1 POP SWAP3 SWAP2 POP POP JUMP JUMPDEST PUSH0 PUSH1 0x9 PUSH0 PUSH2 0x100 EXP DUP2 SLOAD DUP2 PUSH1 0xFF MUL NOT AND SWAP1 DUP4 ISZERO ISZERO MUL OR SWAP1 SSTORE POP JUMP JUMPDEST PUSH1 0x60 PUSH1 0x5 DUP3 PUSH1 0x40 MLOAD PUSH1 0x20 ADD PUSH2 0x5C6 SWAP3 SWAP2 SWAP1 PUSH2 0x1205 JUMP JUMPDEST PUSH1 0x40 MLOAD PUSH1 0x20 DUP2 DUP4 SUB SUB DUP2 MSTORE SWAP1 PUSH1 0x40 MSTORE PUSH1 0x5 SWAP1 DUP2 PUSH2 0x5E3 SWAP2 SWAP1 PUSH2 0x13C5 JUMP JUMPDEST POP PUSH1 0x2 DUP3 PUSH1 0x40 MLOAD PUSH1 0x20 ADD PUSH2 0x5F8 SWAP3 SWAP2 SWAP1 PUSH2 0x1205 JUMP JUMPDEST PUSH1 0x40 MLOAD PUSH1 0x20 DUP2 DUP4 SUB SUB DUP2 MSTORE SWAP1 PUSH1 0x40 MSTORE PUSH1 0x2 SWAP1 DUP2 PUSH2 0x615 SWAP2 SWAP1 PUSH2 0x13C5 JUMP JUMPDEST POP PUSH1 0x2 DUP1 SLOAD PUSH2 0x623 SWAP1 PUSH2 0x107B JUMP JUMPDEST DUP1 PUSH1 0x1F ADD PUSH1 0x20 DUP1 SWAP2 DIV MUL PUSH1 0x20 ADD PUSH1 0x40 MLOAD SWAP1 DUP2 ADD PUSH1 0x40 MSTORE DUP1 SWAP3 SWAP2 SWAP1 DUP2 DUP2 MSTORE PUSH1 0x20 ADD DUP3 DUP1 SLOAD PUSH2 0x64F SWAP1 PUSH2 0x107B JUMP JUMPDEST DUP1 ISZERO PUSH2 0x69A JUMPI DUP1 PUSH1 0x1F LT PUSH2 0x671 JUMPI PUSH2 0x100 DUP1 DUP4 SLOAD DIV MUL DUP4 MSTORE SWAP2 PUSH1 0x20 ADD SWAP2 PUSH2 0x69A JUMP JUMPDEST DUP3 ADD SWAP2 SWAP1 PUSH0 MSTORE PUSH1 0x20 PUSH0 KECCAK256 SWAP1 JUMPDEST DUP2 SLOAD DUP2 MSTORE SWAP1 PUSH1 0x1 ADD SWAP1 PUSH1 0x20 ADD DUP1 DUP4 GT PUSH2 0x67D JUMPI DUP3 SWAP1 SUB PUSH1 0x1F AND DUP3 ADD SWAP2 JUMPDEST POP POP POP POP POP SWAP1 POP SWAP2 SWAP1 POP JUMP JUMPDEST PUSH0 PUSH0 SWAP1 SLOAD SWAP1 PUSH2 0x100 EXP SWAP1 DIV PUSH20 0xFFFFFFFFFFFFFFFFFFFFFFFFFFFFFFFFFFFFFFFF AND DUP2 JUMP JUMPDEST PUSH1 0xB DUP2 DUP1 MLOAD PUSH1 0x20 DUP2 ADD DUP3 ADD DUP1 MLOAD DUP5 DUP3 MSTORE PUSH1 0x20 DUP4 ADD PUSH1 0x20 DUP6 ADD KECCAK256 DUP2 DUP4 MSTORE DUP1 SWAP6 POP POP POP POP POP POP PUSH0 SWAP2 POP SWAP1 POP SLOAD DUP2 JUMP JUMPDEST PUSH1 0x3 PUSH1 0x20 MSTORE DUP1 PUSH0 MSTORE PUSH1 0x40 PUSH0 KECCAK256 PUSH0 SWAP2 POP SWAP1 POP SLOAD DUP2 JUMP JUMPDEST PUSH1 0x60 PUSH1 0x4 DUP3 PUSH1 0x40 MLOAD PUSH1 0x20 ADD PUSH2 0x722 SWAP3 SWAP2 SWAP1 PUSH2 0x1205 JUMP JUMPDEST PUSH1 0x40 MLOAD PUSH1 0x20 DUP2 DUP4 SUB SUB DUP2 MSTORE SWAP1 PUSH1 0x40 MSTORE PUSH1 0x4 SWAP1 DUP2 PUSH2 0x73F SWAP2 SWAP1 PUSH2 0x13C5 JUMP JUMPDEST POP PUSH1 0x2 DUP3 PUSH1 0x40 MLOAD PUSH1 0x20 ADD PUSH2 0x754 SWAP3 SWAP2 SWAP1 PUSH2 0x1205 JUMP JUMPDEST PUSH1 0x40 MLOAD PUSH1 0x20 DUP2 DUP4 SUB SUB DUP2 MSTORE SWAP1 PUSH1 0x40 MSTORE PUSH1 0x2 SWAP1 DUP2 PUSH2 0x771 SWAP2 SWAP1 PUSH2 0x13C5 JUMP JUMPDEST POP PUSH1 0x2 DUP1 SLOAD PUSH2 0x77F SWAP1 PUSH2 0x107B JUMP JUMPDEST DUP1 PUSH1 0x1F ADD PUSH1 0x20 DUP1 SWAP2 DIV MUL PUSH1 0x20 ADD PUSH1 0x40 MLOAD SWAP1 DUP2 ADD PUSH1 0x40 MSTORE DUP1 SWAP3 SWAP2 SWAP1 DUP2 DUP2 MSTORE PUSH1 0x20 ADD DUP3 DUP1 SLOAD PUSH2 0x7AB SWAP1 PUSH2 0x107B JUMP JUMPDEST DUP1 ISZERO PUSH2 0x7F6 JUMPI DUP1 PUSH1 0x1F LT PUSH2 0x7CD JUMPI PUSH2 0x100 DUP1 DUP4 SLOAD DIV MUL DUP4 MSTORE SWAP2 PUSH1 0x20 ADD SWAP2 PUSH2 0x7F6 JUMP JUMPDEST DUP3 ADD SWAP2 SWAP1 PUSH0 MSTORE PUSH1 0x20 PUSH0 KECCAK256 SWAP1 JUMPDEST DUP2 SLOAD DUP2 MSTORE SWAP1 PUSH1 0x1 ADD SWAP1 PUSH1 0x20 ADD DUP1 DUP4 GT PUSH2 0x7D9 JUMPI DUP3 SWAP1 SUB PUSH1 0x1F AND DUP3 ADD SWAP2 JUMPDEST POP POP POP POP POP SWAP1 POP SWAP2 SWAP1 POP JUMP JUMPDEST PUSH1 0x9 PUSH0 SWAP1 SLOAD SWAP1 PUSH2 0x100 EXP SWAP1 DIV PUSH1 0xFF AND DUP2 JUMP JUMPDEST PUSH1 0x7 SLOAD DUP2 JUMP JUMPDEST PUSH0 PUSH1 0x2 DUP3 PUSH2 0x828 SWAP2 SWAP1 PUSH2 0x14C1 JUMP JUMPDEST PUSH1 0x7 DUP2 SWAP1 SSTORE POP PUSH1 0x7 SLOAD SWAP1 POP SWAP2 SWAP1 POP JUMP JUMPDEST PUSH1 0x6 DUP1 SLOAD PUSH2 0x845 SWAP1 PUSH2 0x107B JUMP JUMPDEST DUP1 PUSH1 0x1F ADD PUSH1 0x20 DUP1 SWAP2 DIV MUL PUSH1 0x20 ADD PUSH1 0x40 MLOAD SWAP1 DUP2 ADD PUSH1 0x40 MSTORE DUP1 SWAP3 SWAP2 SWAP1 DUP2 DUP2 MSTORE PUSH1 0x20 ADD DUP3 DUP1 SLOAD PUSH2 0x871 SWAP1 PUSH2 0x107B JUMP JUMPDEST DUP1 ISZERO PUSH2 0x8BC JUMPI DUP1 PUSH1 0x1F LT PUSH2 0x893 JUMPI PUSH2 0x100 DUP1 DUP4 SLOAD DIV MUL DUP4 MSTORE SWAP2 PUSH1 0x20 ADD SWAP2 PUSH2 0x8BC JUMP JUMPDEST DUP3 ADD SWAP2 SWAP1 PUSH0 MSTORE PUSH1 0x20 PUSH0 KECCAK256 SWAP1 JUMPDEST DUP2 SLOAD DUP2 MSTORE SWAP1 PUSH1 0x1 ADD SWAP1 PUSH1 0x20 ADD DUP1 DUP4 GT PUSH2 0x89F JUMPI DUP3 SWAP1 SUB PUSH1 0x1F AND DUP3 ADD SWAP2 JUMPDEST POP POP POP POP POP DUP2 JUMP JUMPDEST PUSH1 0x1 DUP1 SLOAD PUSH2 0x8D1 SWAP1 PUSH2 0x107B JUMP JUMPDEST DUP1 PUSH1 0x1F ADD PUSH1 0x20 DUP1 SWAP2 DIV MUL PUSH1 0x20 ADD PUSH1 0x40 MLOAD SWAP1 DUP2 ADD PUSH1 0x40 MSTORE DUP1 SWAP3 SWAP2 SWAP1 DUP2 DUP2 MSTORE PUSH1 0x20 ADD DUP3 DUP1 SLOAD PUSH2 0x8FD SWAP1 PUSH2 0x107B JUMP JUMPDEST DUP1 ISZERO PUSH2 0x948 JUMPI DUP1 PUSH1 0x1F LT PUSH2 0x91F JUMPI PUSH2 0x100 DUP1 DUP4 SLOAD DIV MUL DUP4 MSTORE SWAP2 PUSH1 0x20 ADD SWAP2 PUSH2 0x948 JUMP JUMPDEST DUP3 ADD SWAP2 SWAP1 PUSH0 MSTORE PUSH1 0x20 PUSH0 KECCAK256 SWAP1 JUMPDEST DUP2 SLOAD DUP2 MSTORE SWAP1 PUSH1 0x1 ADD SWAP1 PUSH1 0x20 ADD DUP1 DUP4 GT PUSH2 0x92B JUMPI DUP3 SWAP1 SUB PUSH1 0x1F AND DUP3 ADD SWAP2 JUMPDEST POP POP POP POP POP DUP2 JUMP JUMPDEST PUSH1 0x2 DUP1 SLOAD PUSH2 0x95D SWAP1 PUSH2 0x107B JUMP JUMPDEST DUP1 PUSH1 0x1F ADD PUSH1 0x20 DUP1 SWAP2 DIV MUL PUSH1 0x20 ADD PUSH1 0x40 MLOAD SWAP1 DUP2 ADD PUSH1 0x40 MSTORE DUP1 SWAP3 SWAP2 SWAP1 DUP2 DUP2 MSTORE PUSH1 0x20 ADD DUP3 DUP1 SLOAD PUSH2 0x989 SWAP1 PUSH2 0x107B JUMP JUMPDEST DUP1 ISZERO PUSH2 0x9D4 JUMPI DUP1 PUSH1 0x1F LT PUSH2 0x9AB JUMPI PUSH2 0x100 DUP1 DUP4 SLOAD DIV MUL DUP4 MSTORE SWAP2 PUSH1 0x20 ADD SWAP2 PUSH2 0x9D4 JUMP JUMPDEST DUP3 ADD SWAP2 SWAP1 PUSH0 MSTORE PUSH1 0x20 PUSH0 KECCAK256 SWAP1 JUMPDEST DUP2 SLOAD DUP2 MSTORE SWAP1 PUSH1 0x1 ADD SWAP1 PUSH1 0x20 ADD DUP1 DUP4 GT PUSH2 0x9B7 JUMPI DUP3 SWAP1 SUB PUSH1 0x1F AND DUP3 ADD SWAP2 JUMPDEST POP POP POP POP POP DUP2 JUMP JUMPDEST PUSH1 0x8 PUSH0 DUP2 SLOAD DUP1 SWAP3 SWAP2 SWAP1 PUSH2 0x9EE SWAP1 PUSH2 0x1537 JUMP JUMPDEST SWAP2 SWAP1 POP SSTORE POP JUMP JUMPDEST PUSH1 0x1 PUSH1 0x9 PUSH0 PUSH2 0x100 EXP DUP2 SLOAD DUP2 PUSH1 0xFF MUL NOT AND SWAP1 DUP4 ISZERO ISZERO MUL OR SWAP1 SSTORE POP JUMP JUMPDEST PUSH1 0xA DUP1 SLOAD PUSH2 0xA1E SWAP1 PUSH2 0x107B JUMP JUMPDEST DUP1 PUSH1 0x1F ADD PUSH1 0x20 DUP1 SWAP2 DIV MUL PUSH1 0x20 ADD PUSH1 0x40 MLOAD SWAP1 DUP2 ADD PUSH1 0x40 MSTORE DUP1 SWAP3 SWAP2 SWAP1 DUP2 DUP2 MSTORE PUSH1 0x20 ADD DUP3 DUP1 SLOAD PUSH2 0xA4A SWAP1 PUSH2 0x107B JUMP JUMPDEST DUP1 ISZERO PUSH2 0xA95 JUMPI DUP1 PUSH1 0x1F LT PUSH2 0xA6C JUMPI PUSH2 0x100 DUP1 DUP4 SLOAD DIV MUL DUP4 MSTORE SWAP2 PUSH1 0x20 ADD SWAP2 PUSH2 0xA95 JUMP JUMPDEST DUP3 ADD SWAP2 SWAP1 PUSH0 MSTORE PUSH1 0x20 PUSH0 KECCAK256 SWAP1 JUMPDEST DUP2 SLOAD DUP2 MSTORE SWAP1 PUSH1 0x1 ADD SWAP1 PUSH1 0x20 ADD DUP1 DUP4 GT PUSH2 0xA78 JUMPI DUP3 SWAP1 SUB PUSH1 0x1F AND DUP3 ADD SWAP2 JUMPDEST POP POP POP POP POP DUP2 JUMP JUMPDEST PUSH1 0x60 PUSH1 0x6 DUP3 PUSH1 0x40 MLOAD PUSH1 0x20 ADD PUSH2 0xAB3 SWAP3 SWAP2 SWAP1 PUSH2 0x1205 JUMP JUMPDEST PUSH1 0x40 MLOAD PUSH1 0x20 DUP2 DUP4 SUB SUB DUP2 MSTORE SWAP1 PUSH1 0x40 MSTORE PUSH1 0x6 SWAP1 DUP2 PUSH2 0xAD0 SWAP2 SWAP1 PUSH2 0x13C5 JUMP JUMPDEST POP PUSH1 0x2 DUP3 PUSH1 0x40 MLOAD PUSH1 0x20 ADD PUSH2 0xAE5 SWAP3 SWAP2 SWAP1 PUSH2 0x1205 JUMP JUMPDEST PUSH1 0x40 MLOAD PUSH1 0x20 DUP2 DUP4 SUB SUB DUP2 MSTORE SWAP1 PUSH1 0x40 MSTORE PUSH1 0x2 SWAP1 DUP2 PUSH2 0xB02 SWAP2 SWAP1 PUSH2 0x13C5 JUMP JUMPDEST POP PUSH1 0x2 DUP1 SLOAD PUSH2 0xB10 SWAP1 PUSH2 0x107B JUMP JUMPDEST DUP1 PUSH1 0x1F ADD PUSH1 0x20 DUP1 SWAP2 DIV MUL PUSH1 0x20 ADD PUSH1 0x40 MLOAD SWAP1 DUP2 ADD PUSH1 0x40 MSTORE DUP1 SWAP3 SWAP2 SWAP1 DUP2 DUP2 MSTORE PUSH1 0x20 ADD DUP3 DUP1 SLOAD PUSH2 0xB3C SWAP1 PUSH2 0x107B JUMP JUMPDEST DUP1 ISZERO PUSH2 0xB87 JUMPI DUP1 PUSH1 0x1F LT PUSH2 0xB5E JUMPI PUSH2 0x100 DUP1 DUP4 SLOAD DIV MUL DUP4 MSTORE SWAP2 PUSH1 0x20 ADD SWAP2 PUSH2 0xB87 JUMP JUMPDEST DUP3 ADD SWAP2 SWAP1 PUSH0 MSTORE PUSH1 0x20 PUSH0 KECCAK256 SWAP1 JUMPDEST DUP2 SLOAD DUP2 MSTORE SWAP1 PUSH1 0x1 ADD SWAP1 PUSH1 0x20 ADD DUP1 DUP4 GT PUSH2 0xB6A JUMPI DUP3 SWAP1 SUB PUSH1 0x1F AND DUP3 ADD SWAP2 JUMPDEST POP POP POP POP POP SWAP1 POP SWAP2 SWAP1 POP JUMP JUMPDEST PUSH1 0x5 DUP1 SLOAD PUSH2 0xBA0 SWAP1 PUSH2 0x107B JUMP JUMPDEST DUP1 PUSH1 0x1F ADD PUSH1 0x20 DUP1 SWAP2 DIV MUL PUSH1 0x20 ADD PUSH1 0x40 MLOAD SWAP1 DUP2 ADD PUSH1 0x40 MSTORE DUP1 SWAP3 SWAP2 SWAP1 DUP2 DUP2 MSTORE PUSH1 0x20 ADD DUP3 DUP1 SLOAD PUSH2 0xBCC SWAP1 PUSH2 0x107B JUMP JUMPDEST DUP1 ISZERO PUSH2 0xC17 JUMPI DUP1 PUSH1 0x1F LT PUSH2 0xBEE JUMPI PUSH2 0x100 DUP1 DUP4 SLOAD DIV MUL DUP4 MSTORE SWAP2 PUSH1 0x20 ADD SWAP2 PUSH2 0xC17 JUMP JUMPDEST DUP3 ADD SWAP2 SWAP1 PUSH0 MSTORE PUSH1 0x20 PUSH0 KECCAK256 SWAP1 JUMPDEST DUP2 SLOAD DUP2 MSTORE SWAP1 PUSH1 0x1 ADD SWAP1 PUSH1 0x20 ADD DUP1 DUP4 GT PUSH2 0xBFA JUMPI DUP3 SWAP1 SUB PUSH1 0x1F AND DUP3 ADD SWAP2 JUMPDEST POP POP POP POP POP DUP2 JUMP JUMPDEST PUSH0 DUP2 MLOAD SWAP1 POP SWAP2 SWAP1 POP JUMP JUMPDEST PUSH0 DUP3 DUP3 MSTORE PUSH1 0x20 DUP3 ADD SWAP1 POP SWAP3 SWAP2 POP POP JUMP JUMPDEST DUP3 DUP2 DUP4 MCOPY PUSH0 DUP4 DUP4 ADD MSTORE POP POP POP JUMP JUMPDEST PUSH0 PUSH1 0x1F NOT PUSH1 0x1F DUP4 ADD AND SWAP1 POP SWAP2 SWAP1 POP JUMP JUMPDEST PUSH0 PUSH2 0xC61 DUP3 PUSH2 0xC1F JUMP JUMPDEST PUSH2 0xC6B DUP2 DUP6 PUSH2 0xC29 JUMP JUMPDEST SWAP4 POP PUSH2 0xC7B DUP2 DUP6 PUSH1 0x20 DUP7 ADD PUSH2 0xC39 JUMP JUMPDEST PUSH2 0xC84 DUP2 PUSH2 0xC47 JUMP JUMPDEST DUP5 ADD SWAP2 POP POP SWAP3 SWAP2 POP POP JUMP JUMPDEST PUSH0 PUSH1 0x20 DUP3 ADD SWAP1 POP DUP2 DUP2 SUB PUSH0 DUP4 ADD MSTORE PUSH2 0xCA7 DUP2 DUP5 PUSH2 0xC57 JUMP JUMPDEST SWAP1 POP SWAP3 SWAP2 POP POP JUMP JUMPDEST PUSH0 DUP2 SWAP1 POP SWAP2 SWAP1 POP JUMP JUMPDEST PUSH2 0xCC1 DUP2 PUSH2 0xCAF JUMP JUMPDEST DUP3 MSTORE POP POP JUMP JUMPDEST PUSH0 PUSH1 0x20 DUP3 ADD SWAP1 POP PUSH2 0xCDA PUSH0 DUP4 ADD DUP5 PUSH2 0xCB8 JUMP JUMPDEST SWAP3 SWAP2 POP POP JUMP JUMPDEST PUSH0 PUSH1 0x40 MLOAD SWAP1 POP SWAP1 JUMP JUMPDEST PUSH0 PUSH0 REVERT JUMPDEST PUSH0 PUSH0 REVERT JUMPDEST PUSH0 DUP2 SWAP1 POP SWAP2 SWAP1 POP JUMP JUMPDEST PUSH2 0xD03 DUP2 PUSH2 0xCF1 JUMP JUMPDEST DUP2 EQ PUSH2 0xD0D JUMPI PUSH0 PUSH0 REVERT JUMPDEST POP JUMP JUMPDEST PUSH0 DUP2 CALLDATALOAD SWAP1 POP PUSH2 0xD1E DUP2 PUSH2 0xCFA JUMP JUMPDEST SWAP3 SWAP2 POP POP JUMP JUMPDEST PUSH0 PUSH0 REVERT JUMPDEST PUSH0 PUSH0 REVERT JUMPDEST PUSH32 0x4E487B7100000000000000000000000000000000000000000000000000000000 PUSH0 MSTORE PUSH1 0x41 PUSH1 0x4 MSTORE PUSH1 0x24 PUSH0 REVERT JUMPDEST PUSH2 0xD62 DUP3 PUSH2 0xC47 JUMP JUMPDEST DUP2 ADD DUP2 DUP2 LT PUSH8 0xFFFFFFFFFFFFFFFF DUP3 GT OR ISZERO PUSH2 0xD81 JUMPI PUSH2 0xD80 PUSH2 0xD2C JUMP JUMPDEST JUMPDEST DUP1 PUSH1 0x40 MSTORE POP POP POP JUMP JUMPDEST PUSH0 PUSH2 0xD93 PUSH2 0xCE0 JUMP JUMPDEST SWAP1 POP PUSH2 0xD9F DUP3 DUP3 PUSH2 0xD59 JUMP JUMPDEST SWAP2 SWAP1 POP JUMP JUMPDEST PUSH0 PUSH8 0xFFFFFFFFFFFFFFFF DUP3 GT ISZERO PUSH2 0xDBE JUMPI PUSH2 0xDBD PUSH2 0xD2C JUMP JUMPDEST JUMPDEST PUSH2 0xDC7 DUP3 PUSH2 0xC47 JUMP JUMPDEST SWAP1 POP PUSH1 0x20 DUP2 ADD SWAP1 POP SWAP2 SWAP1 POP JUMP JUMPDEST DUP3 DUP2 DUP4 CALLDATACOPY PUSH0 DUP4 DUP4 ADD MSTORE POP POP POP JUMP JUMPDEST PUSH0 PUSH2 0xDF4 PUSH2 0xDEF DUP5 PUSH2 0xDA4 JUMP JUMPDEST PUSH2 0xD8A JUMP JUMPDEST SWAP1 POP DUP3 DUP2 MSTORE PUSH1 0x20 DUP2 ADD DUP5 DUP5 DUP5 ADD GT ISZERO PUSH2 0xE10 JUMPI PUSH2 0xE0F PUSH2 0xD28 JUMP JUMPDEST JUMPDEST PUSH2 0xE1B DUP5 DUP3 DUP6 PUSH2 0xDD4 JUMP JUMPDEST POP SWAP4 SWAP3 POP POP POP JUMP JUMPDEST PUSH0 DUP3 PUSH1 0x1F DUP4 ADD SLT PUSH2 0xE37 JUMPI PUSH2 0xE36 PUSH2 0xD24 JUMP JUMPDEST JUMPDEST DUP2 CALLDATALOAD PUSH2 0xE47 DUP5 DUP3 PUSH1 0x20 DUP7 ADD PUSH2 0xDE2 JUMP JUMPDEST SWAP2 POP POP SWAP3 SWAP2 POP POP JUMP JUMPDEST PUSH0 PUSH0 PUSH1 0x40 DUP4 DUP6 SUB SLT ISZERO PUSH2 0xE66 JUMPI PUSH2 0xE65 PUSH2 0xCE9 JUMP JUMPDEST JUMPDEST PUSH0 PUSH2 0xE73 DUP6 DUP3 DUP7 ADD PUSH2 0xD10 JUMP JUMPDEST SWAP3 POP POP PUSH1 0x20 DUP4 ADD CALLDATALOAD PUSH8 0xFFFFFFFFFFFFFFFF DUP2 GT ISZERO PUSH2 0xE94 JUMPI PUSH2 0xE93 PUSH2 0xCED JUMP JUMPDEST JUMPDEST PUSH2 0xEA0 DUP6 DUP3 DUP7 ADD PUSH2 0xE23 JUMP JUMPDEST SWAP2 POP POP SWAP3 POP SWAP3 SWAP1 POP JUMP JUMPDEST PUSH0 PUSH1 0x20 DUP3 DUP5 SUB SLT ISZERO PUSH2 0xEBF JUMPI PUSH2 0xEBE PUSH2 0xCE9 JUMP JUMPDEST JUMPDEST PUSH0 DUP3 ADD CALLDATALOAD PUSH8 0xFFFFFFFFFFFFFFFF DUP2 GT ISZERO PUSH2 0xEDC JUMPI PUSH2 0xEDB PUSH2 0xCED JUMP JUMPDEST JUMPDEST PUSH2 0xEE8 DUP5 DUP3 DUP6 ADD PUSH2 0xE23 JUMP JUMPDEST SWAP2 POP POP SWAP3 SWAP2 POP POP JUMP JUMPDEST PUSH0 PUSH20 0xFFFFFFFFFFFFFFFFFFFFFFFFFFFFFFFFFFFFFFFF DUP3 AND SWAP1 POP SWAP2 SWAP1 POP JUMP JUMPDEST PUSH0 PUSH2 0xF1A DUP3 PUSH2 0xEF1 JUMP JUMPDEST SWAP1 POP SWAP2 SWAP1 POP JUMP JUMPDEST PUSH2 0xF2A DUP2 PUSH2 0xF10 JUMP JUMPDEST DUP3 MSTORE POP POP JUMP JUMPDEST PUSH0 PUSH1 0x20 DUP3 ADD SWAP1 POP PUSH2 0xF43 PUSH0 DUP4 ADD DUP5 PUSH2 0xF21 JUMP JUMPDEST SWAP3 SWAP2 POP POP JUMP JUMPDEST PUSH2 0xF52 DUP2 PUSH2 0xF10 JUMP JUMPDEST DUP2 EQ PUSH2 0xF5C JUMPI PUSH0 PUSH0 REVERT JUMPDEST POP JUMP JUMPDEST PUSH0 DUP2 CALLDATALOAD SWAP1 POP PUSH2 0xF6D DUP2 PUSH2 0xF49 JUMP JUMPDEST SWAP3 SWAP2 POP POP JUMP JUMPDEST PUSH0 PUSH1 0x20 DUP3 DUP5 SUB SLT ISZERO PUSH2 0xF88 JUMPI PUSH2 0xF87 PUSH2 0xCE9 JUMP JUMPDEST JUMPDEST PUSH0 PUSH2 0xF95 DUP5 DUP3 DUP6 ADD PUSH2 0xF5F JUMP JUMPDEST SWAP2 POP POP SWAP3 SWAP2 POP POP JUMP JUMPDEST PUSH2 0xFA7 DUP2 PUSH2 0xCF1 JUMP JUMPDEST DUP3 MSTORE POP POP JUMP JUMPDEST PUSH0 PUSH1 0x20 DUP3 ADD SWAP1 POP PUSH2 0xFC0 PUSH0 DUP4 ADD DUP5 PUSH2 0xF9E JUMP JUMPDEST SWAP3 SWAP2 POP POP JUMP JUMPDEST PUSH0 DUP2 ISZERO ISZERO SWAP1 POP SWAP2 SWAP1 POP JUMP JUMPDEST PUSH2 0xFDA DUP2 PUSH2 0xFC6 JUMP JUMPDEST DUP3 MSTORE POP POP JUMP JUMPDEST PUSH0 PUSH1 0x20 DUP3 ADD SWAP1 POP PUSH2 0xFF3 PUSH0 DUP4 ADD DUP5 PUSH2 0xFD1 JUMP JUMPDEST SWAP3 SWAP2 POP POP JUMP JUMPDEST PUSH2 0x1002 DUP2 PUSH2 0xCAF JUMP JUMPDEST DUP2 EQ PUSH2 0x100C JUMPI PUSH0 PUSH0 REVERT JUMPDEST POP JUMP JUMPDEST PUSH0 DUP2 CALLDATALOAD SWAP1 POP PUSH2 0x101D DUP2 PUSH2 0xFF9 JUMP JUMPDEST SWAP3 SWAP2 POP POP JUMP JUMPDEST PUSH0 PUSH1 0x20 DUP3 DUP5 SUB SLT ISZERO PUSH2 0x1038 JUMPI PUSH2 0x1037 PUSH2 0xCE9 JUMP JUMPDEST JUMPDEST PUSH0 PUSH2 0x1045 DUP5 DUP3 DUP6 ADD PUSH2 0x100F JUMP JUMPDEST SWAP2 POP POP SWAP3 SWAP2 POP POP JUMP JUMPDEST PUSH32 0x4E487B7100000000000000000000000000000000000000000000000000000000 PUSH0 MSTORE PUSH1 0x22 PUSH1 0x4 MSTORE PUSH1 0x24 PUSH0 REVERT JUMPDEST PUSH0 PUSH1 0x2 DUP3 DIV SWAP1 POP PUSH1 0x1 DUP3 AND DUP1 PUSH2 0x1092 JUMPI PUSH1 0x7F DUP3 AND SWAP2 POP JUMPDEST PUSH1 0x20 DUP3 LT DUP2 SUB PUSH2 0x10A5 JUMPI PUSH2 0x10A4 PUSH2 0x104E JUMP JUMPDEST JUMPDEST POP SWAP2 SWAP1 POP JUMP JUMPDEST PUSH32 0x696E76616C6964206E756D620000000000000000000000000000000000000000 PUSH0 DUP3 ADD MSTORE POP JUMP JUMPDEST PUSH0 PUSH2 0x10DF PUSH1 0xC DUP4 PUSH2 0xC29 JUMP JUMPDEST SWAP2 POP PUSH2 0x10EA DUP3 PUSH2 0x10AB JUMP JUMPDEST PUSH1 0x20 DUP3 ADD SWAP1 POP SWAP2 SWAP1 POP JUMP JUMPDEST PUSH0 PUSH1 0x20 DUP3 ADD SWAP1 POP DUP2 DUP2 SUB PUSH0 DUP4 ADD MSTORE PUSH2 0x110C DUP2 PUSH2 0x10D3 JUMP JUMPDEST SWAP1 POP SWAP2 SWAP1 POP JUMP JUMPDEST PUSH0 DUP2 SWAP1 POP SWAP3 SWAP2 POP POP JUMP JUMPDEST PUSH0 DUP2 SWAP1 POP DUP2 PUSH0 MSTORE PUSH1 0x20 PUSH0 KECCAK256 SWAP1 POP SWAP2 SWAP1 POP JUMP JUMPDEST PUSH0 DUP2 SLOAD PUSH2 0x113B DUP2 PUSH2 0x107B JUMP JUMPDEST PUSH2 0x1145 DUP2 DUP7 PUSH2 0x1113 JUMP JUMPDEST SWAP5 POP PUSH1 0x1 DUP3 AND PUSH0 DUP2 EQ PUSH2 0x115F JUMPI PUSH1 0x1 DUP2 EQ PUSH2 0x1174 JUMPI PUSH2 0x11A6 JUMP JUMPDEST PUSH1 0xFF NOT DUP4 AND DUP7 MSTORE DUP2 ISZERO ISZERO DUP3 MUL DUP7 ADD SWAP4 POP PUSH2 0x11A6 JUMP JUMPDEST PUSH2 0x117D DUP6 PUSH2 0x111D JUMP JUMPDEST PUSH0 JUMPDEST DUP4 DUP2 LT ISZERO PUSH2 0x119E JUMPI DUP2 SLOAD DUP2 DUP10 ADD MSTORE PUSH1 0x1 DUP3 ADD SWAP2 POP PUSH1 0x20 DUP2 ADD SWAP1 POP PUSH2 0x117F JUMP JUMPDEST DUP4 DUP9 ADD SWAP6 POP POP POP JUMPDEST POP POP POP SWAP3 SWAP2 POP POP JUMP JUMPDEST PUSH0 PUSH2 0x11B9 DUP3 PUSH2 0xC1F JUMP JUMPDEST PUSH2 0x11C3 DUP2 DUP6 PUSH2 0x1113 JUMP JUMPDEST SWAP4 POP PUSH2 0x11D3 DUP2 DUP6 PUSH1 0x20 DUP7 ADD PUSH2 0xC39 JUMP JUMPDEST DUP1 DUP5 ADD SWAP2 POP POP SWAP3 SWAP2 POP POP JUMP JUMPDEST PUSH32 0x2000000000000000000000000000000000000000000000000000000000000000 DUP2 MSTORE POP JUMP JUMPDEST PUSH0 PUSH2 0x1210 DUP3 DUP6 PUSH2 0x112F JUMP JUMPDEST SWAP2 POP PUSH2 0x121C DUP3 DUP5 PUSH2 0x11AF JUMP JUMPDEST SWAP2 POP PUSH2 0x1227 DUP3 PUSH2 0x11DF JUMP JUMPDEST PUSH1 0x1 DUP3 ADD SWAP2 POP DUP2 SWAP1 POP SWAP4 SWAP3 POP POP POP JUMP JUMPDEST PUSH0 PUSH1 0x20 PUSH1 0x1F DUP4 ADD DIV SWAP1 POP SWAP2 SWAP1 POP JUMP JUMPDEST PUSH0 DUP3 DUP3 SHL SWAP1 POP SWAP3 SWAP2 POP POP JUMP JUMPDEST PUSH0 PUSH1 0x8 DUP4 MUL PUSH2 0x1281 PUSH32 0xFFFFFFFFFFFFFFFFFFFFFFFFFFFFFFFFFFFFFFFFFFFFFFFFFFFFFFFFFFFFFFFF DUP3 PUSH2 0x1246 JUMP JUMPDEST PUSH2 0x128B DUP7 DUP4 PUSH2 0x1246 JUMP JUMPDEST SWAP6 POP DUP1 NOT DUP5 AND SWAP4 POP DUP1 DUP7 AND DUP5 OR SWAP3 POP POP POP SWAP4 SWAP3 POP POP POP JUMP JUMPDEST PUSH0 DUP2 SWAP1 POP SWAP2 SWAP1 POP JUMP JUMPDEST PUSH0 PUSH2 0x12C6 PUSH2 0x12C1 PUSH2 0x12BC DUP5 PUSH2 0xCF1 JUMP JUMPDEST PUSH2 0x12A3 JUMP JUMPDEST PUSH2 0xCF1 JUMP JUMPDEST SWAP1 POP SWAP2 SWAP1 POP JUMP JUMPDEST PUSH0 DUP2 SWAP1 POP SWAP2 SWAP1 POP JUMP JUMPDEST PUSH2 0x12DF DUP4 PUSH2 0x12AC JUMP JUMPDEST PUSH2 0x12F3 PUSH2 0x12EB DUP3 PUSH2 0x12CD JUMP JUMPDEST DUP5 DUP5 SLOAD PUSH2 0x1252 JUMP JUMPDEST DUP3 SSTORE POP POP POP POP JUMP JUMPDEST PUSH0 PUSH0 SWAP1 POP SWAP1 JUMP JUMPDEST PUSH2 0x130A PUSH2 0x12FB JUMP JUMPDEST PUSH2 0x1315 DUP2 DUP5 DUP5 PUSH2 0x12D6 JUMP JUMPDEST POP POP POP JUMP JUMPDEST JUMPDEST DUP2 DUP2 LT ISZERO PUSH2 0x1338 JUMPI PUSH2 0x132D PUSH0 DUP3 PUSH2 0x1302 JUMP JUMPDEST PUSH1 0x1 DUP2 ADD SWAP1 POP PUSH2 0x131B JUMP JUMPDEST POP POP JUMP JUMPDEST PUSH1 0x1F DUP3 GT ISZERO PUSH2 0x137D JUMPI PUSH2 0x134E DUP2 PUSH2 0x111D JUMP JUMPDEST PUSH2 0x1357 DUP5 PUSH2 0x1237 JUMP JUMPDEST DUP2 ADD PUSH1 0x20 DUP6 LT ISZERO PUSH2 0x1366 JUMPI DUP2 SWAP1 POP JUMPDEST PUSH2 0x137A PUSH2 0x1372 DUP6 PUSH2 0x1237 JUMP JUMPDEST DUP4 ADD DUP3 PUSH2 0x131A JUMP JUMPDEST POP POP JUMPDEST POP POP POP JUMP JUMPDEST PUSH0 DUP3 DUP3 SHR SWAP1 POP SWAP3 SWAP2 POP POP JUMP JUMPDEST PUSH0 PUSH2 0x139D PUSH0 NOT DUP5 PUSH1 0x8 MUL PUSH2 0x1382 JUMP JUMPDEST NOT DUP1 DUP4 AND SWAP2 POP POP SWAP3 SWAP2 POP POP JUMP JUMPDEST PUSH0 PUSH2 0x13B5 DUP4 DUP4 PUSH2 0x138E JUMP JUMPDEST SWAP2 POP DUP3 PUSH1 0x2 MUL DUP3 OR SWAP1 POP SWAP3 SWAP2 POP POP JUMP JUMPDEST PUSH2 0x13CE DUP3 PUSH2 0xC1F JUMP JUMPDEST PUSH8 0xFFFFFFFFFFFFFFFF DUP2 GT ISZERO PUSH2 0x13E7 JUMPI PUSH2 0x13E6 PUSH2 0xD2C JUMP JUMPDEST JUMPDEST PUSH2 0x13F1 DUP3 SLOAD PUSH2 0x107B JUMP JUMPDEST PUSH2 0x13FC DUP3 DUP3 DUP6 PUSH2 0x133C JUMP JUMPDEST PUSH0 PUSH1 0x20 SWAP1 POP PUSH1 0x1F DUP4 GT PUSH1 0x1 DUP2 EQ PUSH2 0x142D JUMPI PUSH0 DUP5 ISZERO PUSH2 0x141B JUMPI DUP3 DUP8 ADD MLOAD SWAP1 POP JUMPDEST PUSH2 0x1425 DUP6 DUP3 PUSH2 0x13AA JUMP JUMPDEST DUP7 SSTORE POP PUSH2 0x148C JUMP JUMPDEST PUSH1 0x1F NOT DUP5 AND PUSH2 0x143B DUP7 PUSH2 0x111D JUMP JUMPDEST PUSH0 JUMPDEST DUP3 DUP2 LT ISZERO PUSH2 0x1462 JUMPI DUP5 DUP10 ADD MLOAD DUP3 SSTORE PUSH1 0x1 DUP3 ADD SWAP2 POP PUSH1 0x20 DUP6 ADD SWAP5 POP PUSH1 0x20 DUP2 ADD SWAP1 POP PUSH2 0x143D JUMP JUMPDEST DUP7 DUP4 LT ISZERO PUSH2 0x147F JUMPI DUP5 DUP10 ADD MLOAD PUSH2 0x147B PUSH1 0x1F DUP10 AND DUP3 PUSH2 0x138E JUMP JUMPDEST DUP4 SSTORE POP JUMPDEST PUSH1 0x1 PUSH1 0x2 DUP9 MUL ADD DUP9 SSTORE POP POP POP JUMPDEST POP POP POP POP POP POP JUMP JUMPDEST PUSH32 0x4E487B7100000000000000000000000000000000000000000000000000000000 PUSH0 MSTORE PUSH1 0x11 PUSH1 0x4 MSTORE PUSH1 0x24 PUSH0 REVERT JUMPDEST PUSH0 PUSH2 0x14CB DUP3 PUSH2 0xCAF JUMP JUMPDEST SWAP2 POP PUSH2 0x14D6 DUP4 PUSH2 0xCAF JUMP JUMPDEST SWAP3 POP DUP3 DUP3 MUL PUSH2 0x14E4 DUP2 PUSH2 0xCAF JUMP JUMPDEST SWAP2 POP PUSH32 0x8000000000000000000000000000000000000000000000000000000000000000 DUP5 EQ PUSH0 DUP5 SLT AND ISZERO PUSH2 0x151B JUMPI PUSH2 0x151A PUSH2 0x1494 JUMP JUMPDEST JUMPDEST DUP3 DUP3 SDIV DUP5 EQ DUP4 ISZERO OR PUSH2 0x1530 JUMPI PUSH2 0x152F PUSH2 0x1494 JUMP JUMPDEST JUMPDEST POP SWAP3 SWAP2 POP POP JUMP JUMPDEST PUSH0 PUSH2 0x1541 DUP3 PUSH2 0xCAF JUMP JUMPDEST SWAP2 POP PUSH32 0x7FFFFFFFFFFFFFFFFFFFFFFFFFFFFFFFFFFFFFFFFFFFFFFFFFFFFFFFFFFFFFFF DUP3 SUB PUSH2 0x1573 JUMPI PUSH2 0x1572 PUSH2 0x1494 JUMP JUMPDEST JUMPDEST PUSH1 0x1 DUP3 ADD SWAP1 POP SWAP2 SWAP1 POP JUMP INVALID LOG2 PUSH5 0x6970667358 0x22 SLT KECCAK256 0xB0 DUP7 PUSH31 0xD86B1563AE7DF565C289E69B020B824DC76F8CB6FF4C766EDC290DE6D66473 PUSH16 0x6C634300081E00330000000000000000 "
		},
		"gasEstimates": {
			"creation": {
				"codeDepositCost": "1111200",
				"executionCost": "infinite",
				"totalCost": "infinite"
			},
			"external": {
				"English()": "infinite",
				"Math()": "infinite",
				"Russian()": "infinite",
				"addressStudent(address)": "2869",
				"completeUrok()": "24519",
				"egoLesson(string)": "infinite",
				"i(uint256,string)": "infinite",
				"lesson()": "infinite",
				"nameStudent()": "infinite",
				"number()": "2448",
				"ocenkaStudent()": "infinite",
				"setOcenkaEng(string)": "infinite",
				"setOcenkaMath(string)": "infinite",
				"setOcenkaRus(string)": "infinite",
				"statusStudent()": "2577",
				"student()": "2530",
				"swapStatusActive()": "24453",
				"swapStatusInactive()": "24498",
				"umnozhenie(int256)": "infinite",
				"urok()": "2471"
			}
		},
		"methodIdentifiers": {
			"English()": "8eace8f7",
			"Math()": "06c5a5f5",
			"Russian()": "fa1ebe4f",
			"addressStudent(address)": "6d76b926",
			"completeUrok()": "b182b083",
			"egoLesson(string)": "6c5f5966",
			"i(uint256,string)": "4d5e01fb",
			"lesson()": "c5b0cb3b",
			"nameStudent()": "a830e15f",
			"number()": "8381f58a",
			"ocenkaStudent()": "a93b016a",
			"setOcenkaEng(string)": "d46c2dc4",
			"setOcenkaMath(string)": "76c3ac1d",
			"setOcenkaRus(string)": "5d36d095",
			"statusStudent()": "80e8d626",
			"student()": "699450e8",
			"swapStatusActive()": "b774884a",
			"swapStatusInactive()": "59212064",
			"umnozhenie(int256)": "88e7cc08",
			"urok()": "0f91d842"
		}
	},
	"abi": [
		{
			"inputs": [],
			"stateMutability": "nonpayable",
			"type": "constructor"
		},
		{
			"inputs": [],
			"name": "English",
			"outputs": [
				{
					"internalType": "string",
					"name": "",
					"type": "string"
				}
			],
			"stateMutability": "view",
			"type": "function"
		},
		{
			"inputs": [],
			"name": "Math",
			"outputs": [
				{
					"internalType": "string",
					"name": "",
					"type": "string"
				}
			],
			"stateMutability": "view",
			"type": "function"
		},
		{
			"inputs": [],
			"name": "Russian",
			"outputs": [
				{
					"internalType": "string",
					"name": "",
					"type": "string"
				}
			],
			"stateMutability": "view",
			"type": "function"
		},
		{
			"inputs": [
				{
					"internalType": "address",
					"name": "",
					"type": "address"
				}
			],
			"name": "addressStudent",
			"outputs": [
				{
					"internalType": "uint256",
					"name": "",
					"type": "uint256"
				}
			],
			"stateMutability": "view",
			"type": "function"
		},
		{
			"inputs": [],
			"name": "completeUrok",
			"outputs": [],
			"stateMutability": "nonpayable",
			"type": "function"
		},
		{
			"inputs": [
				{
					"internalType": "string",
					"name": "",
					"type": "string"
				}
			],
			"name": "egoLesson",
			"outputs": [
				{
					"internalType": "int256",
					"name": "",
					"type": "int256"
				}
			],
			"stateMutability": "view",
			"type": "function"
		},
		{
			"inputs": [
				{
					"internalType": "uint256",
					"name": "amount",
					"type": "uint256"
				},
				{
					"internalType": "string",
					"name": "newOcenka",
					"type": "string"
				}
			],
			"name": "i",
			"outputs": [
				{
					"internalType": "string",
					"name": "",
					"type": "string"
				}
			],
			"stateMutability": "nonpayable",
			"type": "function"
		},
		{
			"inputs": [],
			"name": "lesson",
			"outputs": [
				{
					"internalType": "string",
					"name": "",
					"type": "string"
				}
			],
			"stateMutability": "view",
			"type": "function"
		},
		{
			"inputs": [],
			"name": "nameStudent",
			"outputs": [
				{
					"internalType": "string",
					"name": "",
					"type": "string"
				}
			],
			"stateMutability": "view",
			"type": "function"
		},
		{
			"inputs": [],
			"name": "number",
			"outputs": [
				{
					"internalType": "int256",
					"name": "",
					"type": "int256"
				}
			],
			"stateMutability": "view",
			"type": "function"
		},
		{
			"inputs": [],
			"name": "ocenkaStudent",
			"outputs": [
				{
					"internalType": "string",
					"name": "",
					"type": "string"
				}
			],
			"stateMutability": "view",
			"type": "function"
		},
		{
			"inputs": [
				{
					"internalType": "string",
					"name": "newOcenka",
					"type": "string"
				}
			],
			"name": "setOcenkaEng",
			"outputs": [
				{
					"internalType": "string",
					"name": "",
					"type": "string"
				}
			],
			"stateMutability": "nonpayable",
			"type": "function"
		},
		{
			"inputs": [
				{
					"internalType": "string",
					"name": "newOcenka",
					"type": "string"
				}
			],
			"name": "setOcenkaMath",
			"outputs": [
				{
					"internalType": "string",
					"name": "",
					"type": "string"
				}
			],
			"stateMutability": "nonpayable",
			"type": "function"
		},
		{
			"inputs": [
				{
					"internalType": "string",
					"name": "newOcenka",
					"type": "string"
				}
			],
			"name": "setOcenkaRus",
			"outputs": [
				{
					"internalType": "string",
					"name": "",
					"type": "string"
				}
			],
			"stateMutability": "nonpayable",
			"type": "function"
		},
		{
			"inputs": [],
			"name": "statusStudent",
			"outputs": [
				{
					"internalType": "bool",
					"name": "",
					"type": "bool"
				}
			],
			"stateMutability": "view",
			"type": "function"
		},
		{
			"inputs": [],
			"name": "student",
			"outputs": [
				{
					"internalType": "address",
					"name": "",
					"type": "address"
				}
			],
			"stateMutability": "view",
			"type": "function"
		},
		{
			"inputs": [],
			"name": "swapStatusActive",
			"outputs": [],
			"stateMutability": "nonpayable",
			"type": "function"
		},
		{
			"inputs": [],
			"name": "swapStatusInactive",
			"outputs": [],
			"stateMutability": "nonpayable",
			"type": "function"
		},
		{
			"inputs": [
				{
					"internalType": "int256",
					"name": "newNumber",
					"type": "int256"
				}
			],
			"name": "umnozhenie",
			"outputs": [
				{
					"internalType": "int256",
					"name": "",
					"type": "int256"
				}
			],
			"stateMutability": "nonpayable",
			"type": "function"
		},
		{
			"inputs": [],
			"name": "urok",
			"outputs": [
				{
					"internalType": "int256",
					"name": "",
					"type": "int256"
				}
			],
			"stateMutability": "view",
			"type": "function"
		}
	]
}