{
	"BaseTaskManager.sol": {
		"BaseTaskManager": {
			"abi": [
				{
					"inputs": [
						{
							"internalType": "string",
							"name": "text",
							"type": "string"
						}
					],
					"name": "addTask",
					"outputs": [],
					"stateMutability": "nonpayable",
					"type": "function"
				},
				{
					"inputs": [
						{
							"internalType": "uint256",
							"name": "index",
							"type": "uint256"
						}
					],
					"name": "getTask",
					"outputs": [
						{
							"internalType": "string",
							"name": "",
							"type": "string"
						},
						{
							"internalType": "bool",
							"name": "",
							"type": "bool"
						}
					],
					"stateMutability": "view",
					"type": "function"
				},
				{
					"inputs": [
						{
							"internalType": "uint256",
							"name": "index",
							"type": "uint256"
						}
					],
					"name": "markDone",
					"outputs": [],
					"stateMutability": "nonpayable",
					"type": "function"
				},
				{
					"inputs": [],
					"name": "taskCount",
					"outputs": [
						{
							"internalType": "uint256",
							"name": "",
							"type": "uint256"
						}
					],
					"stateMutability": "view",
					"type": "function"
				},
				{
					"inputs": [
						{
							"internalType": "uint256",
							"name": "",
							"type": "uint256"
						}
					],
					"name": "taski",
					"outputs": [
						{
							"internalType": "string",
							"name": "text",
							"type": "string"
						},
						{
							"internalType": "bool",
							"name": "done",
							"type": "bool"
						}
					],
					"stateMutability": "view",
					"type": "function"
				},
				{
					"inputs": [
						{
							"internalType": "uint256",
							"name": "",
							"type": "uint256"
						}
					],
					"name": "tasks",
					"outputs": [
						{
							"internalType": "string",
							"name": "text",
							"type": "string"
						},
						{
							"internalType": "bool",
							"name": "done",
							"type": "bool"
						}
					],
					"stateMutability": "view",
					"type": "function"
				}
			],
			"devdoc": {
				"kind": "dev",
				"methods": {},
				"version": 1
			},
			"evm": {
				"assembly": "    /* \"BaseTaskManager.sol\":61:666  contract BaseTaskManager {... */\n  mstore(0x40, 0x80)\n  callvalue\n  dup1\n  iszero\n  tag_1\n  jumpi\n  revert(0x00, 0x00)\ntag_1:\n  pop\n  dataSize(sub_0)\n  dup1\n  dataOffset(sub_0)\n  0x00\n  codecopy\n  0x00\n  return\nstop\n\nsub_0: assembly {\n        /* \"BaseTaskManager.sol\":61:666  contract BaseTaskManager {... */\n      mstore(0x40, 0x80)\n      callvalue\n      dup1\n      iszero\n      tag_1\n      jumpi\n      revert(0x00, 0x00)\n    tag_1:\n      pop\n      jumpi(tag_2, lt(calldatasize, 0x04))\n      shr(0xe0, calldataload(0x00))\n      dup1\n      0x0eddaecf\n      eq\n      tag_3\n      jumpi\n      dup1\n      0x1d65e77e\n      eq\n      tag_4\n      jumpi\n      dup1\n      0x4ad0e590\n      eq\n      tag_5\n      jumpi\n      dup1\n      0x67238562\n      eq\n      tag_6\n      jumpi\n      dup1\n      0x8d977672\n      eq\n      tag_7\n      jumpi\n      dup1\n      0xb6cb58a5\n      eq\n      tag_8\n      jumpi\n    tag_2:\n      revert(0x00, 0x00)\n        /* \"BaseTaskManager.sol\":163:182  Task[] public taski */\n    tag_3:\n      tag_9\n      0x04\n      dup1\n      calldatasize\n      sub\n      dup2\n      add\n      swap1\n      tag_10\n      swap2\n      swap1\n      tag_11\n      jump\t// in\n    tag_10:\n      tag_12\n      jump\t// in\n    tag_9:\n      mload(0x40)\n      tag_13\n      swap3\n      swap2\n      swap1\n      tag_14\n      jump\t// in\n    tag_13:\n      mload(0x40)\n      dup1\n      swap2\n      sub\n      swap1\n      return\n        /* \"BaseTaskManager.sol\":394:563  function getTask(uint index) public view virtual returns (string memory, bool) {... */\n    tag_4:\n      tag_15\n      0x04\n      dup1\n      calldatasize\n      sub\n      dup2\n      add\n      swap1\n      tag_16\n      swap2\n      swap1\n      tag_11\n      jump\t// in\n    tag_16:\n      tag_17\n      jump\t// in\n    tag_15:\n      mload(0x40)\n      tag_18\n      swap3\n      swap2\n      swap1\n      tag_14\n      jump\t// in\n    tag_18:\n      mload(0x40)\n      dup1\n      swap2\n      sub\n      swap1\n      return\n        /* \"BaseTaskManager.sol\":571:659  function markDone(uint index) public virtual {... */\n    tag_5:\n      tag_19\n      0x04\n      dup1\n      calldatasize\n      sub\n      dup2\n      add\n      swap1\n      tag_20\n      swap2\n      swap1\n      tag_11\n      jump\t// in\n    tag_20:\n      tag_21\n      jump\t// in\n    tag_19:\n      stop\n        /* \"BaseTaskManager.sol\":264:386  function addTask(string memory text) public virtual {... */\n    tag_6:\n      tag_22\n      0x04\n      dup1\n      calldatasize\n      sub\n      dup2\n      add\n      swap1\n      tag_23\n      swap2\n      swap1\n      tag_24\n      jump\t// in\n    tag_23:\n      tag_25\n      jump\t// in\n    tag_22:\n      stop\n        /* \"BaseTaskManager.sol\":220:255  mapping (uint => Task) public tasks */\n    tag_7:\n      tag_26\n      0x04\n      dup1\n      calldatasize\n      sub\n      dup2\n      add\n      swap1\n      tag_27\n      swap2\n      swap1\n      tag_11\n      jump\t// in\n    tag_27:\n      tag_28\n      jump\t// in\n    tag_26:\n      mload(0x40)\n      tag_29\n      swap3\n      swap2\n      swap1\n      tag_14\n      jump\t// in\n    tag_29:\n      mload(0x40)\n      dup1\n      swap2\n      sub\n      swap1\n      return\n        /* \"BaseTaskManager.sol\":192:213  uint public taskCount */\n    tag_8:\n      tag_30\n      tag_31\n      jump\t// in\n    tag_30:\n      mload(0x40)\n      tag_32\n      swap2\n      swap1\n      tag_33\n      jump\t// in\n    tag_32:\n      mload(0x40)\n      dup1\n      swap2\n      sub\n      swap1\n      return\n        /* \"BaseTaskManager.sol\":163:182  Task[] public taski */\n    tag_12:\n      0x00\n      dup2\n      dup2\n      sload\n      dup2\n      lt\n      tag_34\n      jumpi\n      0x00\n      dup1\n      revert\n    tag_34:\n      swap1\n      0x00\n      mstore\n      keccak256(0x00, 0x20)\n      swap1\n      0x02\n      mul\n      add\n      0x00\n      swap2\n      pop\n      swap1\n      pop\n      dup1\n      0x00\n      add\n      dup1\n      sload\n      tag_36\n      swap1\n      tag_37\n      jump\t// in\n    tag_36:\n      dup1\n      0x1f\n      add\n      0x20\n      dup1\n      swap2\n      div\n      mul\n      0x20\n      add\n      mload(0x40)\n      swap1\n      dup2\n      add\n      0x40\n      mstore\n      dup1\n      swap3\n      swap2\n      swap1\n      dup2\n      dup2\n      mstore\n      0x20\n      add\n      dup3\n      dup1\n      sload\n      tag_38\n      swap1\n      tag_37\n      jump\t// in\n    tag_38:\n      dup1\n      iszero\n      tag_39\n      jumpi\n      dup1\n      0x1f\n      lt\n      tag_40\n      jumpi\n      0x0100\n      dup1\n      dup4\n      sload\n      div\n      mul\n      dup4\n      mstore\n      swap2\n      0x20\n      add\n      swap2\n      jump(tag_39)\n    tag_40:\n      dup3\n      add\n      swap2\n      swap1\n      0x00\n      mstore\n      keccak256(0x00, 0x20)\n      swap1\n    tag_41:\n      dup2\n      sload\n      dup2\n      mstore\n      swap1\n      0x01\n      add\n      swap1\n      0x20\n      add\n      dup1\n      dup4\n      gt\n      tag_41\n      jumpi\n      dup3\n      swap1\n      sub\n      0x1f\n      and\n      dup3\n      add\n      swap2\n    tag_39:\n      pop\n      pop\n      pop\n      pop\n      pop\n      swap1\n      dup1\n      0x01\n      add\n      0x00\n      swap1\n      sload\n      swap1\n      0x0100\n      exp\n      swap1\n      div\n      0xff\n      and\n      swap1\n      pop\n      dup3\n      jump\t// out\n        /* \"BaseTaskManager.sol\":394:563  function getTask(uint index) public view virtual returns (string memory, bool) {... */\n    tag_17:\n        /* \"BaseTaskManager.sol\":452:465  string memory */\n      0x60\n        /* \"BaseTaskManager.sol\":467:471  bool */\n      0x00\n        /* \"BaseTaskManager.sol\":484:500  Task memory task */\n      0x00\n        /* \"BaseTaskManager.sol\":503:508  taski */\n      0x00\n        /* \"BaseTaskManager.sol\":509:514  index */\n      dup5\n        /* \"BaseTaskManager.sol\":503:515  taski[index] */\n      dup2\n      sload\n      dup2\n      lt\n      tag_43\n      jumpi\n      tag_44\n      tag_45\n      jump\t// in\n    tag_44:\n    tag_43:\n      swap1\n      0x00\n      mstore\n      keccak256(0x00, 0x20)\n      swap1\n      0x02\n      mul\n      add\n        /* \"BaseTaskManager.sol\":484:515  Task memory task = taski[index] */\n      mload(0x40)\n      dup1\n      0x40\n      add\n      0x40\n      mstore\n      swap1\n      dup2\n      0x00\n      dup3\n      add\n      dup1\n      sload\n      tag_47\n      swap1\n      tag_37\n      jump\t// in\n    tag_47:\n      dup1\n      0x1f\n      add\n      0x20\n      dup1\n      swap2\n      div\n      mul\n      0x20\n      add\n      mload(0x40)\n      swap1\n      dup2\n      add\n      0x40\n      mstore\n      dup1\n      swap3\n      swap2\n      swap1\n      dup2\n      dup2\n      mstore\n      0x20\n      add\n      dup3\n      dup1\n      sload\n      tag_48\n      swap1\n      tag_37\n      jump\t// in\n    tag_48:\n      dup1\n      iszero\n      tag_49\n      jumpi\n      dup1\n      0x1f\n      lt\n      tag_50\n      jumpi\n      0x0100\n      dup1\n      dup4\n      sload\n      div\n      mul\n      dup4\n      mstore\n      swap2\n      0x20\n      add\n      swap2\n      jump(tag_49)\n    tag_50:\n      dup3\n      add\n      swap2\n      swap1\n      0x00\n      mstore\n      keccak256(0x00, 0x20)\n      swap1\n    tag_51:\n      dup2\n      sload\n      dup2\n      mstore\n      swap1\n      0x01\n      add\n      swap1\n      0x20\n      add\n      dup1\n      dup4\n      gt\n      tag_51\n      jumpi\n      dup3\n      swap1\n      sub\n      0x1f\n      and\n      dup3\n      add\n      swap2\n    tag_49:\n      pop\n      pop\n      pop\n      pop\n      pop\n      dup2\n      mstore\n      0x20\n      add\n      0x01\n      dup3\n      add\n      0x00\n      swap1\n      sload\n      swap1\n      0x0100\n      exp\n      swap1\n      div\n      0xff\n      and\n      iszero\n      iszero\n      iszero\n      iszero\n      dup2\n      mstore\n      pop\n      pop\n      swap1\n      pop\n        /* \"BaseTaskManager.sol\":534:538  task */\n      dup1\n        /* \"BaseTaskManager.sol\":534:543  task.text */\n      0x00\n      add\n      mload\n        /* \"BaseTaskManager.sol\":545:549  task */\n      dup2\n        /* \"BaseTaskManager.sol\":545:554  task.done */\n      0x20\n      add\n      mload\n        /* \"BaseTaskManager.sol\":526:555  return (task.text, task.done) */\n      swap3\n      pop\n      swap3\n      pop\n      pop\n        /* \"BaseTaskManager.sol\":394:563  function getTask(uint index) public view virtual returns (string memory, bool) {... */\n      swap2\n      pop\n      swap2\n      jump\t// out\n        /* \"BaseTaskManager.sol\":571:659  function markDone(uint index) public virtual {... */\n    tag_21:\n        /* \"BaseTaskManager.sol\":647:651  true */\n      0x01\n        /* \"BaseTaskManager.sol\":627:632  taski */\n      0x00\n        /* \"BaseTaskManager.sol\":633:638  index */\n      dup3\n        /* \"BaseTaskManager.sol\":627:639  taski[index] */\n      dup2\n      sload\n      dup2\n      lt\n      tag_53\n      jumpi\n      tag_54\n      tag_45\n      jump\t// in\n    tag_54:\n    tag_53:\n      swap1\n      0x00\n      mstore\n      keccak256(0x00, 0x20)\n      swap1\n      0x02\n      mul\n      add\n        /* \"BaseTaskManager.sol\":627:644  taski[index].done */\n      0x01\n      add\n      0x00\n        /* \"BaseTaskManager.sol\":627:651  taski[index].done = true */\n      0x0100\n      exp\n      dup2\n      sload\n      dup2\n      0xff\n      mul\n      not\n      and\n      swap1\n      dup4\n      iszero\n      iszero\n      mul\n      or\n      swap1\n      sstore\n      pop\n        /* \"BaseTaskManager.sol\":571:659  function markDone(uint index) public virtual {... */\n      pop\n      jump\t// out\n        /* \"BaseTaskManager.sol\":264:386  function addTask(string memory text) public virtual {... */\n    tag_25:\n        /* \"BaseTaskManager.sol\":327:336  taskCount */\n      0x01\n      0x00\n        /* \"BaseTaskManager.sol\":327:338  taskCount++ */\n      dup2\n      sload\n      dup1\n      swap3\n      swap2\n      swap1\n      tag_57\n      swap1\n      tag_58\n      jump\t// in\n    tag_57:\n      swap2\n      swap1\n      pop\n      sstore\n      pop\n        /* \"BaseTaskManager.sol\":349:354  taski */\n      0x00\n        /* \"BaseTaskManager.sol\":360:377  Task(text, false) */\n      mload(0x40)\n      dup1\n      0x40\n      add\n      0x40\n      mstore\n      dup1\n        /* \"BaseTaskManager.sol\":365:369  text */\n      dup4\n        /* \"BaseTaskManager.sol\":360:377  Task(text, false) */\n      dup2\n      mstore\n      0x20\n      add\n        /* \"BaseTaskManager.sol\":371:376  false */\n      0x00\n        /* \"BaseTaskManager.sol\":360:377  Task(text, false) */\n      iszero\n      iszero\n      dup2\n      mstore\n      pop\n        /* \"BaseTaskManager.sol\":349:378  taski.push(Task(text, false)) */\n      swap1\n      dup1\n      0x01\n      dup2\n      sload\n      add\n      dup1\n      dup3\n      sstore\n      dup1\n      swap2\n      pop\n      pop\n      0x01\n      swap1\n      sub\n      swap1\n      0x00\n      mstore\n      keccak256(0x00, 0x20)\n      swap1\n      0x02\n      mul\n      add\n      0x00\n      swap1\n      swap2\n      swap1\n      swap2\n      swap1\n      swap2\n      pop\n      0x00\n      dup3\n      add\n      mload\n      dup2\n      0x00\n      add\n      swap1\n      dup2\n      tag_60\n      swap2\n      swap1\n      tag_61\n      jump\t// in\n    tag_60:\n      pop\n      0x20\n      dup3\n      add\n      mload\n      dup2\n      0x01\n      add\n      exp(0x0100, 0x00)\n      dup2\n      sload\n      dup2\n      0xff\n      mul\n      not\n      and\n      swap1\n      dup4\n      iszero\n      iszero\n      mul\n      or\n      swap1\n      sstore\n      pop\n      pop\n      pop\n        /* \"BaseTaskManager.sol\":264:386  function addTask(string memory text) public virtual {... */\n      pop\n      jump\t// out\n        /* \"BaseTaskManager.sol\":220:255  mapping (uint => Task) public tasks */\n    tag_28:\n      mstore(0x20, 0x02)\n      dup1\n      0x00\n      mstore\n      keccak256(0x00, 0x40)\n      0x00\n      swap2\n      pop\n      swap1\n      pop\n      dup1\n      0x00\n      add\n      dup1\n      sload\n      tag_62\n      swap1\n      tag_37\n      jump\t// in\n    tag_62:\n      dup1\n      0x1f\n      add\n      0x20\n      dup1\n      swap2\n      div\n      mul\n      0x20\n      add\n      mload(0x40)\n      swap1\n      dup2\n      add\n      0x40\n      mstore\n      dup1\n      swap3\n      swap2\n      swap1\n      dup2\n      dup2\n      mstore\n      0x20\n      add\n      dup3\n      dup1\n      sload\n      tag_63\n      swap1\n      tag_37\n      jump\t// in\n    tag_63:\n      dup1\n      iszero\n      tag_64\n      jumpi\n      dup1\n      0x1f\n      lt\n      tag_65\n      jumpi\n      0x0100\n      dup1\n      dup4\n      sload\n      div\n      mul\n      dup4\n      mstore\n      swap2\n      0x20\n      add\n      swap2\n      jump(tag_64)\n    tag_65:\n      dup3\n      add\n      swap2\n      swap1\n      0x00\n      mstore\n      keccak256(0x00, 0x20)\n      swap1\n    tag_66:\n      dup2\n      sload\n      dup2\n      mstore\n      swap1\n      0x01\n      add\n      swap1\n      0x20\n      add\n      dup1\n      dup4\n      gt\n      tag_66\n      jumpi\n      dup3\n      swap1\n      sub\n      0x1f\n      and\n      dup3\n      add\n      swap2\n    tag_64:\n      pop\n      pop\n      pop\n      pop\n      pop\n      swap1\n      dup1\n      0x01\n      add\n      0x00\n      swap1\n      sload\n      swap1\n      0x0100\n      exp\n      swap1\n      div\n      0xff\n      and\n      swap1\n      pop\n      dup3\n      jump\t// out\n        /* \"BaseTaskManager.sol\":192:213  uint public taskCount */\n    tag_31:\n      sload(0x01)\n      dup2\n      jump\t// out\n        /* \"#utility.yul\":7:82   */\n    tag_67:\n        /* \"#utility.yul\":40:46   */\n      0x00\n        /* \"#utility.yul\":73:75   */\n      0x40\n        /* \"#utility.yul\":67:76   */\n      mload\n        /* \"#utility.yul\":57:76   */\n      swap1\n      pop\n        /* \"#utility.yul\":7:82   */\n      swap1\n      jump\t// out\n        /* \"#utility.yul\":88:205   */\n    tag_68:\n        /* \"#utility.yul\":197:198   */\n      0x00\n        /* \"#utility.yul\":194:195   */\n      0x00\n        /* \"#utility.yul\":187:199   */\n      revert\n        /* \"#utility.yul\":211:328   */\n    tag_69:\n        /* \"#utility.yul\":320:321   */\n      0x00\n        /* \"#utility.yul\":317:318   */\n      0x00\n        /* \"#utility.yul\":310:322   */\n      revert\n        /* \"#utility.yul\":334:411   */\n    tag_70:\n        /* \"#utility.yul\":371:378   */\n      0x00\n        /* \"#utility.yul\":400:405   */\n      dup2\n        /* \"#utility.yul\":389:405   */\n      swap1\n      pop\n        /* \"#utility.yul\":334:411   */\n      swap2\n      swap1\n      pop\n      jump\t// out\n        /* \"#utility.yul\":417:539   */\n    tag_71:\n        /* \"#utility.yul\":490:514   */\n      tag_113\n        /* \"#utility.yul\":508:513   */\n      dup2\n        /* \"#utility.yul\":490:514   */\n      tag_70\n      jump\t// in\n    tag_113:\n        /* \"#utility.yul\":483:488   */\n      dup2\n        /* \"#utility.yul\":480:515   */\n      eq\n        /* \"#utility.yul\":470:533   */\n      tag_114\n      jumpi\n        /* \"#utility.yul\":529:530   */\n      0x00\n        /* \"#utility.yul\":526:527   */\n      0x00\n        /* \"#utility.yul\":519:531   */\n      revert\n        /* \"#utility.yul\":470:533   */\n    tag_114:\n        /* \"#utility.yul\":417:539   */\n      pop\n      jump\t// out\n        /* \"#utility.yul\":545:684   */\n    tag_72:\n        /* \"#utility.yul\":591:596   */\n      0x00\n        /* \"#utility.yul\":629:635   */\n      dup2\n        /* \"#utility.yul\":616:636   */\n      calldataload\n        /* \"#utility.yul\":607:636   */\n      swap1\n      pop\n        /* \"#utility.yul\":645:678   */\n      tag_116\n        /* \"#utility.yul\":672:677   */\n      dup2\n        /* \"#utility.yul\":645:678   */\n      tag_71\n      jump\t// in\n    tag_116:\n        /* \"#utility.yul\":545:684   */\n      swap3\n      swap2\n      pop\n      pop\n      jump\t// out\n        /* \"#utility.yul\":690:1019   */\n    tag_11:\n        /* \"#utility.yul\":749:755   */\n      0x00\n        /* \"#utility.yul\":798:800   */\n      0x20\n        /* \"#utility.yul\":786:795   */\n      dup3\n        /* \"#utility.yul\":777:784   */\n      dup5\n        /* \"#utility.yul\":773:796   */\n      sub\n        /* \"#utility.yul\":769:801   */\n      slt\n        /* \"#utility.yul\":766:885   */\n      iszero\n      tag_118\n      jumpi\n        /* \"#utility.yul\":804:883   */\n      tag_119\n      tag_68\n      jump\t// in\n    tag_119:\n        /* \"#utility.yul\":766:885   */\n    tag_118:\n        /* \"#utility.yul\":924:925   */\n      0x00\n        /* \"#utility.yul\":949:1002   */\n      tag_120\n        /* \"#utility.yul\":994:1001   */\n      dup5\n        /* \"#utility.yul\":985:991   */\n      dup3\n        /* \"#utility.yul\":974:983   */\n      dup6\n        /* \"#utility.yul\":970:992   */\n      add\n        /* \"#utility.yul\":949:1002   */\n      tag_72\n      jump\t// in\n    tag_120:\n        /* \"#utility.yul\":939:1002   */\n      swap2\n      pop\n        /* \"#utility.yul\":895:1012   */\n      pop\n        /* \"#utility.yul\":690:1019   */\n      swap3\n      swap2\n      pop\n      pop\n      jump\t// out\n        /* \"#utility.yul\":1025:1124   */\n    tag_73:\n        /* \"#utility.yul\":1077:1083   */\n      0x00\n        /* \"#utility.yul\":1111:1116   */\n      dup2\n        /* \"#utility.yul\":1105:1117   */\n      mload\n        /* \"#utility.yul\":1095:1117   */\n      swap1\n      pop\n        /* \"#utility.yul\":1025:1124   */\n      swap2\n      swap1\n      pop\n      jump\t// out\n        /* \"#utility.yul\":1130:1299   */\n    tag_74:\n        /* \"#utility.yul\":1214:1225   */\n      0x00\n        /* \"#utility.yul\":1248:1254   */\n      dup3\n        /* \"#utility.yul\":1243:1246   */\n      dup3\n        /* \"#utility.yul\":1236:1255   */\n      mstore\n        /* \"#utility.yul\":1288:1292   */\n      0x20\n        /* \"#utility.yul\":1283:1286   */\n      dup3\n        /* \"#utility.yul\":1279:1293   */\n      add\n        /* \"#utility.yul\":1264:1293   */\n      swap1\n      pop\n        /* \"#utility.yul\":1130:1299   */\n      swap3\n      swap2\n      pop\n      pop\n      jump\t// out\n        /* \"#utility.yul\":1305:1444   */\n    tag_75:\n        /* \"#utility.yul\":1394:1400   */\n      dup3\n        /* \"#utility.yul\":1389:1392   */\n      dup2\n        /* \"#utility.yul\":1384:1387   */\n      dup4\n        /* \"#utility.yul\":1378:1401   */\n      mcopy\n        /* \"#utility.yul\":1435:1436   */\n      0x00\n        /* \"#utility.yul\":1426:1432   */\n      dup4\n        /* \"#utility.yul\":1421:1424   */\n      dup4\n        /* \"#utility.yul\":1417:1433   */\n      add\n        /* \"#utility.yul\":1410:1437   */\n      mstore\n        /* \"#utility.yul\":1305:1444   */\n      pop\n      pop\n      pop\n      jump\t// out\n        /* \"#utility.yul\":1450:1552   */\n    tag_76:\n        /* \"#utility.yul\":1491:1497   */\n      0x00\n        /* \"#utility.yul\":1542:1544   */\n      0x1f\n        /* \"#utility.yul\":1538:1545   */\n      not\n        /* \"#utility.yul\":1533:1535   */\n      0x1f\n        /* \"#utility.yul\":1526:1531   */\n      dup4\n        /* \"#utility.yul\":1522:1536   */\n      add\n        /* \"#utility.yul\":1518:1546   */\n      and\n        /* \"#utility.yul\":1508:1546   */\n      swap1\n      pop\n        /* \"#utility.yul\":1450:1552   */\n      swap2\n      swap1\n      pop\n      jump\t// out\n        /* \"#utility.yul\":1558:1935   */\n    tag_77:\n        /* \"#utility.yul\":1646:1649   */\n      0x00\n        /* \"#utility.yul\":1674:1713   */\n      tag_126\n        /* \"#utility.yul\":1707:1712   */\n      dup3\n        /* \"#utility.yul\":1674:1713   */\n      tag_73\n      jump\t// in\n    tag_126:\n        /* \"#utility.yul\":1729:1800   */\n      tag_127\n        /* \"#utility.yul\":1793:1799   */\n      dup2\n        /* \"#utility.yul\":1788:1791   */\n      dup6\n        /* \"#utility.yul\":1729:1800   */\n      tag_74\n      jump\t// in\n    tag_127:\n        /* \"#utility.yul\":1722:1800   */\n      swap4\n      pop\n        /* \"#utility.yul\":1809:1874   */\n      tag_128\n        /* \"#utility.yul\":1867:1873   */\n      dup2\n        /* \"#utility.yul\":1862:1865   */\n      dup6\n        /* \"#utility.yul\":1855:1859   */\n      0x20\n        /* \"#utility.yul\":1848:1853   */\n      dup7\n        /* \"#utility.yul\":1844:1860   */\n      add\n        /* \"#utility.yul\":1809:1874   */\n      tag_75\n      jump\t// in\n    tag_128:\n        /* \"#utility.yul\":1899:1928   */\n      tag_129\n        /* \"#utility.yul\":1921:1927   */\n      dup2\n        /* \"#utility.yul\":1899:1928   */\n      tag_76\n      jump\t// in\n    tag_129:\n        /* \"#utility.yul\":1894:1897   */\n      dup5\n        /* \"#utility.yul\":1890:1929   */\n      add\n        /* \"#utility.yul\":1883:1929   */\n      swap2\n      pop\n        /* \"#utility.yul\":1650:1935   */\n      pop\n        /* \"#utility.yul\":1558:1935   */\n      swap3\n      swap2\n      pop\n      pop\n      jump\t// out\n        /* \"#utility.yul\":1941:2031   */\n    tag_78:\n        /* \"#utility.yul\":1975:1982   */\n      0x00\n        /* \"#utility.yul\":2018:2023   */\n      dup2\n        /* \"#utility.yul\":2011:2024   */\n      iszero\n        /* \"#utility.yul\":2004:2025   */\n      iszero\n        /* \"#utility.yul\":1993:2025   */\n      swap1\n      pop\n        /* \"#utility.yul\":1941:2031   */\n      swap2\n      swap1\n      pop\n      jump\t// out\n        /* \"#utility.yul\":2037:2146   */\n    tag_79:\n        /* \"#utility.yul\":2118:2139   */\n      tag_132\n        /* \"#utility.yul\":2133:2138   */\n      dup2\n        /* \"#utility.yul\":2118:2139   */\n      tag_78\n      jump\t// in\n    tag_132:\n        /* \"#utility.yul\":2113:2116   */\n      dup3\n        /* \"#utility.yul\":2106:2140   */\n      mstore\n        /* \"#utility.yul\":2037:2146   */\n      pop\n      pop\n      jump\t// out\n        /* \"#utility.yul\":2152:2563   */\n    tag_14:\n        /* \"#utility.yul\":2287:2291   */\n      0x00\n        /* \"#utility.yul\":2325:2327   */\n      0x40\n        /* \"#utility.yul\":2314:2323   */\n      dup3\n        /* \"#utility.yul\":2310:2328   */\n      add\n        /* \"#utility.yul\":2302:2328   */\n      swap1\n      pop\n        /* \"#utility.yul\":2374:2383   */\n      dup2\n        /* \"#utility.yul\":2368:2372   */\n      dup2\n        /* \"#utility.yul\":2364:2384   */\n      sub\n        /* \"#utility.yul\":2360:2361   */\n      0x00\n        /* \"#utility.yul\":2349:2358   */\n      dup4\n        /* \"#utility.yul\":2345:2362   */\n      add\n        /* \"#utility.yul\":2338:2385   */\n      mstore\n        /* \"#utility.yul\":2402:2480   */\n      tag_134\n        /* \"#utility.yul\":2475:2479   */\n      dup2\n        /* \"#utility.yul\":2466:2472   */\n      dup6\n        /* \"#utility.yul\":2402:2480   */\n      tag_77\n      jump\t// in\n    tag_134:\n        /* \"#utility.yul\":2394:2480   */\n      swap1\n      pop\n        /* \"#utility.yul\":2490:2556   */\n      tag_135\n        /* \"#utility.yul\":2552:2554   */\n      0x20\n        /* \"#utility.yul\":2541:2550   */\n      dup4\n        /* \"#utility.yul\":2537:2555   */\n      add\n        /* \"#utility.yul\":2528:2534   */\n      dup5\n        /* \"#utility.yul\":2490:2556   */\n      tag_79\n      jump\t// in\n    tag_135:\n        /* \"#utility.yul\":2152:2563   */\n      swap4\n      swap3\n      pop\n      pop\n      pop\n      jump\t// out\n        /* \"#utility.yul\":2569:2686   */\n    tag_80:\n        /* \"#utility.yul\":2678:2679   */\n      0x00\n        /* \"#utility.yul\":2675:2676   */\n      0x00\n        /* \"#utility.yul\":2668:2680   */\n      revert\n        /* \"#utility.yul\":2692:2809   */\n    tag_81:\n        /* \"#utility.yul\":2801:2802   */\n      0x00\n        /* \"#utility.yul\":2798:2799   */\n      0x00\n        /* \"#utility.yul\":2791:2803   */\n      revert\n        /* \"#utility.yul\":2815:2995   */\n    tag_82:\n        /* \"#utility.yul\":2863:2940   */\n      0x4e487b7100000000000000000000000000000000000000000000000000000000\n        /* \"#utility.yul\":2860:2861   */\n      0x00\n        /* \"#utility.yul\":2853:2941   */\n      mstore\n        /* \"#utility.yul\":2960:2964   */\n      0x41\n        /* \"#utility.yul\":2957:2958   */\n      0x04\n        /* \"#utility.yul\":2950:2965   */\n      mstore\n        /* \"#utility.yul\":2984:2988   */\n      0x24\n        /* \"#utility.yul\":2981:2982   */\n      0x00\n        /* \"#utility.yul\":2974:2989   */\n      revert\n        /* \"#utility.yul\":3001:3282   */\n    tag_83:\n        /* \"#utility.yul\":3084:3111   */\n      tag_140\n        /* \"#utility.yul\":3106:3110   */\n      dup3\n        /* \"#utility.yul\":3084:3111   */\n      tag_76\n      jump\t// in\n    tag_140:\n        /* \"#utility.yul\":3076:3082   */\n      dup2\n        /* \"#utility.yul\":3072:3112   */\n      add\n        /* \"#utility.yul\":3214:3220   */\n      dup2\n        /* \"#utility.yul\":3202:3212   */\n      dup2\n        /* \"#utility.yul\":3199:3221   */\n      lt\n        /* \"#utility.yul\":3178:3196   */\n      0xffffffffffffffff\n        /* \"#utility.yul\":3166:3176   */\n      dup3\n        /* \"#utility.yul\":3163:3197   */\n      gt\n        /* \"#utility.yul\":3160:3222   */\n      or\n        /* \"#utility.yul\":3157:3245   */\n      iszero\n      tag_141\n      jumpi\n        /* \"#utility.yul\":3225:3243   */\n      tag_142\n      tag_82\n      jump\t// in\n    tag_142:\n        /* \"#utility.yul\":3157:3245   */\n    tag_141:\n        /* \"#utility.yul\":3265:3275   */\n      dup1\n        /* \"#utility.yul\":3261:3263   */\n      0x40\n        /* \"#utility.yul\":3254:3276   */\n      mstore\n        /* \"#utility.yul\":3044:3282   */\n      pop\n        /* \"#utility.yul\":3001:3282   */\n      pop\n      pop\n      jump\t// out\n        /* \"#utility.yul\":3288:3417   */\n    tag_84:\n        /* \"#utility.yul\":3322:3328   */\n      0x00\n        /* \"#utility.yul\":3349:3369   */\n      tag_144\n      tag_67\n      jump\t// in\n    tag_144:\n        /* \"#utility.yul\":3339:3369   */\n      swap1\n      pop\n        /* \"#utility.yul\":3378:3411   */\n      tag_145\n        /* \"#utility.yul\":3406:3410   */\n      dup3\n        /* \"#utility.yul\":3398:3404   */\n      dup3\n        /* \"#utility.yul\":3378:3411   */\n      tag_83\n      jump\t// in\n    tag_145:\n        /* \"#utility.yul\":3288:3417   */\n      swap2\n      swap1\n      pop\n      jump\t// out\n        /* \"#utility.yul\":3423:3731   */\n    tag_85:\n        /* \"#utility.yul\":3485:3489   */\n      0x00\n        /* \"#utility.yul\":3575:3593   */\n      0xffffffffffffffff\n        /* \"#utility.yul\":3567:3573   */\n      dup3\n        /* \"#utility.yul\":3564:3594   */\n      gt\n        /* \"#utility.yul\":3561:3617   */\n      iszero\n      tag_147\n      jumpi\n        /* \"#utility.yul\":3597:3615   */\n      tag_148\n      tag_82\n      jump\t// in\n    tag_148:\n        /* \"#utility.yul\":3561:3617   */\n    tag_147:\n        /* \"#utility.yul\":3635:3664   */\n      tag_149\n        /* \"#utility.yul\":3657:3663   */\n      dup3\n        /* \"#utility.yul\":3635:3664   */\n      tag_76\n      jump\t// in\n    tag_149:\n        /* \"#utility.yul\":3627:3664   */\n      swap1\n      pop\n        /* \"#utility.yul\":3719:3723   */\n      0x20\n        /* \"#utility.yul\":3713:3717   */\n      dup2\n        /* \"#utility.yul\":3709:3724   */\n      add\n        /* \"#utility.yul\":3701:3724   */\n      swap1\n      pop\n        /* \"#utility.yul\":3423:3731   */\n      swap2\n      swap1\n      pop\n      jump\t// out\n        /* \"#utility.yul\":3737:3885   */\n    tag_86:\n        /* \"#utility.yul\":3835:3841   */\n      dup3\n        /* \"#utility.yul\":3830:3833   */\n      dup2\n        /* \"#utility.yul\":3825:3828   */\n      dup4\n        /* \"#utility.yul\":3812:3842   */\n      calldatacopy\n        /* \"#utility.yul\":3876:3877   */\n      0x00\n        /* \"#utility.yul\":3867:3873   */\n      dup4\n        /* \"#utility.yul\":3862:3865   */\n      dup4\n        /* \"#utility.yul\":3858:3874   */\n      add\n        /* \"#utility.yul\":3851:3878   */\n      mstore\n        /* \"#utility.yul\":3737:3885   */\n      pop\n      pop\n      pop\n      jump\t// out\n        /* \"#utility.yul\":3891:4316   */\n    tag_87:\n        /* \"#utility.yul\":3969:3974   */\n      0x00\n        /* \"#utility.yul\":3994:4060   */\n      tag_152\n        /* \"#utility.yul\":4010:4059   */\n      tag_153\n        /* \"#utility.yul\":4052:4058   */\n      dup5\n        /* \"#utility.yul\":4010:4059   */\n      tag_85\n      jump\t// in\n    tag_153:\n        /* \"#utility.yul\":3994:4060   */\n      tag_84\n      jump\t// in\n    tag_152:\n        /* \"#utility.yul\":3985:4060   */\n      swap1\n      pop\n        /* \"#utility.yul\":4083:4089   */\n      dup3\n        /* \"#utility.yul\":4076:4081   */\n      dup2\n        /* \"#utility.yul\":4069:4090   */\n      mstore\n        /* \"#utility.yul\":4121:4125   */\n      0x20\n        /* \"#utility.yul\":4114:4119   */\n      dup2\n        /* \"#utility.yul\":4110:4126   */\n      add\n        /* \"#utility.yul\":4159:4162   */\n      dup5\n        /* \"#utility.yul\":4150:4156   */\n      dup5\n        /* \"#utility.yul\":4145:4148   */\n      dup5\n        /* \"#utility.yul\":4141:4157   */\n      add\n        /* \"#utility.yul\":4138:4163   */\n      gt\n        /* \"#utility.yul\":4135:4247   */\n      iszero\n      tag_154\n      jumpi\n        /* \"#utility.yul\":4166:4245   */\n      tag_155\n      tag_81\n      jump\t// in\n    tag_155:\n        /* \"#utility.yul\":4135:4247   */\n    tag_154:\n        /* \"#utility.yul\":4256:4310   */\n      tag_156\n        /* \"#utility.yul\":4303:4309   */\n      dup5\n        /* \"#utility.yul\":4298:4301   */\n      dup3\n        /* \"#utility.yul\":4293:4296   */\n      dup6\n        /* \"#utility.yul\":4256:4310   */\n      tag_86\n      jump\t// in\n    tag_156:\n        /* \"#utility.yul\":3975:4316   */\n      pop\n        /* \"#utility.yul\":3891:4316   */\n      swap4\n      swap3\n      pop\n      pop\n      pop\n      jump\t// out\n        /* \"#utility.yul\":4336:4676   */\n    tag_88:\n        /* \"#utility.yul\":4392:4397   */\n      0x00\n        /* \"#utility.yul\":4441:4444   */\n      dup3\n        /* \"#utility.yul\":4434:4438   */\n      0x1f\n        /* \"#utility.yul\":4426:4432   */\n      dup4\n        /* \"#utility.yul\":4422:4439   */\n      add\n        /* \"#utility.yul\":4418:4445   */\n      slt\n        /* \"#utility.yul\":4408:4530   */\n      tag_158\n      jumpi\n        /* \"#utility.yul\":4449:4528   */\n      tag_159\n      tag_80\n      jump\t// in\n    tag_159:\n        /* \"#utility.yul\":4408:4530   */\n    tag_158:\n        /* \"#utility.yul\":4566:4572   */\n      dup2\n        /* \"#utility.yul\":4553:4573   */\n      calldataload\n        /* \"#utility.yul\":4591:4670   */\n      tag_160\n        /* \"#utility.yul\":4666:4669   */\n      dup5\n        /* \"#utility.yul\":4658:4664   */\n      dup3\n        /* \"#utility.yul\":4651:4655   */\n      0x20\n        /* \"#utility.yul\":4643:4649   */\n      dup7\n        /* \"#utility.yul\":4639:4656   */\n      add\n        /* \"#utility.yul\":4591:4670   */\n      tag_87\n      jump\t// in\n    tag_160:\n        /* \"#utility.yul\":4582:4670   */\n      swap2\n      pop\n        /* \"#utility.yul\":4398:4676   */\n      pop\n        /* \"#utility.yul\":4336:4676   */\n      swap3\n      swap2\n      pop\n      pop\n      jump\t// out\n        /* \"#utility.yul\":4682:5191   */\n    tag_24:\n        /* \"#utility.yul\":4751:4757   */\n      0x00\n        /* \"#utility.yul\":4800:4802   */\n      0x20\n        /* \"#utility.yul\":4788:4797   */\n      dup3\n        /* \"#utility.yul\":4779:4786   */\n      dup5\n        /* \"#utility.yul\":4775:4798   */\n      sub\n        /* \"#utility.yul\":4771:4803   */\n      slt\n        /* \"#utility.yul\":4768:4887   */\n      iszero\n      tag_162\n      jumpi\n        /* \"#utility.yul\":4806:4885   */\n      tag_163\n      tag_68\n      jump\t// in\n    tag_163:\n        /* \"#utility.yul\":4768:4887   */\n    tag_162:\n        /* \"#utility.yul\":4954:4955   */\n      0x00\n        /* \"#utility.yul\":4943:4952   */\n      dup3\n        /* \"#utility.yul\":4939:4956   */\n      add\n        /* \"#utility.yul\":4926:4957   */\n      calldataload\n        /* \"#utility.yul\":4984:5002   */\n      0xffffffffffffffff\n        /* \"#utility.yul\":4976:4982   */\n      dup2\n        /* \"#utility.yul\":4973:5003   */\n      gt\n        /* \"#utility.yul\":4970:5087   */\n      iszero\n      tag_164\n      jumpi\n        /* \"#utility.yul\":5006:5085   */\n      tag_165\n      tag_69\n      jump\t// in\n    tag_165:\n        /* \"#utility.yul\":4970:5087   */\n    tag_164:\n        /* \"#utility.yul\":5111:5174   */\n      tag_166\n        /* \"#utility.yul\":5166:5173   */\n      dup5\n        /* \"#utility.yul\":5157:5163   */\n      dup3\n        /* \"#utility.yul\":5146:5155   */\n      dup6\n        /* \"#utility.yul\":5142:5164   */\n      add\n        /* \"#utility.yul\":5111:5174   */\n      tag_88\n      jump\t// in\n    tag_166:\n        /* \"#utility.yul\":5101:5174   */\n      swap2\n      pop\n        /* \"#utility.yul\":4897:5184   */\n      pop\n        /* \"#utility.yul\":4682:5191   */\n      swap3\n      swap2\n      pop\n      pop\n      jump\t// out\n        /* \"#utility.yul\":5197:5315   */\n    tag_89:\n        /* \"#utility.yul\":5284:5308   */\n      tag_168\n        /* \"#utility.yul\":5302:5307   */\n      dup2\n        /* \"#utility.yul\":5284:5308   */\n      tag_70\n      jump\t// in\n    tag_168:\n        /* \"#utility.yul\":5279:5282   */\n      dup3\n        /* \"#utility.yul\":5272:5309   */\n      mstore\n        /* \"#utility.yul\":5197:5315   */\n      pop\n      pop\n      jump\t// out\n        /* \"#utility.yul\":5321:5543   */\n    tag_33:\n        /* \"#utility.yul\":5414:5418   */\n      0x00\n        /* \"#utility.yul\":5452:5454   */\n      0x20\n        /* \"#utility.yul\":5441:5450   */\n      dup3\n        /* \"#utility.yul\":5437:5455   */\n      add\n        /* \"#utility.yul\":5429:5455   */\n      swap1\n      pop\n        /* \"#utility.yul\":5465:5536   */\n      tag_170\n        /* \"#utility.yul\":5533:5534   */\n      0x00\n        /* \"#utility.yul\":5522:5531   */\n      dup4\n        /* \"#utility.yul\":5518:5535   */\n      add\n        /* \"#utility.yul\":5509:5515   */\n      dup5\n        /* \"#utility.yul\":5465:5536   */\n      tag_89\n      jump\t// in\n    tag_170:\n        /* \"#utility.yul\":5321:5543   */\n      swap3\n      swap2\n      pop\n      pop\n      jump\t// out\n        /* \"#utility.yul\":5549:5729   */\n    tag_90:\n        /* \"#utility.yul\":5597:5674   */\n      0x4e487b7100000000000000000000000000000000000000000000000000000000\n        /* \"#utility.yul\":5594:5595   */\n      0x00\n        /* \"#utility.yul\":5587:5675   */\n      mstore\n        /* \"#utility.yul\":5694:5698   */\n      0x22\n        /* \"#utility.yul\":5691:5692   */\n      0x04\n        /* \"#utility.yul\":5684:5699   */\n      mstore\n        /* \"#utility.yul\":5718:5722   */\n      0x24\n        /* \"#utility.yul\":5715:5716   */\n      0x00\n        /* \"#utility.yul\":5708:5723   */\n      revert\n        /* \"#utility.yul\":5735:6055   */\n    tag_37:\n        /* \"#utility.yul\":5779:5785   */\n      0x00\n        /* \"#utility.yul\":5816:5817   */\n      0x02\n        /* \"#utility.yul\":5810:5814   */\n      dup3\n        /* \"#utility.yul\":5806:5818   */\n      div\n        /* \"#utility.yul\":5796:5818   */\n      swap1\n      pop\n        /* \"#utility.yul\":5863:5864   */\n      0x01\n        /* \"#utility.yul\":5857:5861   */\n      dup3\n        /* \"#utility.yul\":5853:5865   */\n      and\n        /* \"#utility.yul\":5884:5902   */\n      dup1\n        /* \"#utility.yul\":5874:5955   */\n      tag_173\n      jumpi\n        /* \"#utility.yul\":5940:5944   */\n      0x7f\n        /* \"#utility.yul\":5932:5938   */\n      dup3\n        /* \"#utility.yul\":5928:5945   */\n      and\n        /* \"#utility.yul\":5918:5945   */\n      swap2\n      pop\n        /* \"#utility.yul\":5874:5955   */\n    tag_173:\n        /* \"#utility.yul\":6002:6004   */\n      0x20\n        /* \"#utility.yul\":5994:6000   */\n      dup3\n        /* \"#utility.yul\":5991:6005   */\n      lt\n        /* \"#utility.yul\":5971:5989   */\n      dup2\n        /* \"#utility.yul\":5968:6006   */\n      sub\n        /* \"#utility.yul\":5965:6049   */\n      tag_174\n      jumpi\n        /* \"#utility.yul\":6021:6039   */\n      tag_175\n      tag_90\n      jump\t// in\n    tag_175:\n        /* \"#utility.yul\":5965:6049   */\n    tag_174:\n        /* \"#utility.yul\":5786:6055   */\n      pop\n        /* \"#utility.yul\":5735:6055   */\n      swap2\n      swap1\n      pop\n      jump\t// out\n        /* \"#utility.yul\":6061:6241   */\n    tag_45:\n        /* \"#utility.yul\":6109:6186   */\n      0x4e487b7100000000000000000000000000000000000000000000000000000000\n        /* \"#utility.yul\":6106:6107   */\n      0x00\n        /* \"#utility.yul\":6099:6187   */\n      mstore\n        /* \"#utility.yul\":6206:6210   */\n      0x32\n        /* \"#utility.yul\":6203:6204   */\n      0x04\n        /* \"#utility.yul\":6196:6211   */\n      mstore\n        /* \"#utility.yul\":6230:6234   */\n      0x24\n        /* \"#utility.yul\":6227:6228   */\n      0x00\n        /* \"#utility.yul\":6220:6235   */\n      revert\n        /* \"#utility.yul\":6247:6427   */\n    tag_91:\n        /* \"#utility.yul\":6295:6372   */\n      0x4e487b7100000000000000000000000000000000000000000000000000000000\n        /* \"#utility.yul\":6292:6293   */\n      0x00\n        /* \"#utility.yul\":6285:6373   */\n      mstore\n        /* \"#utility.yul\":6392:6396   */\n      0x11\n        /* \"#utility.yul\":6389:6390   */\n      0x04\n        /* \"#utility.yul\":6382:6397   */\n      mstore\n        /* \"#utility.yul\":6416:6420   */\n      0x24\n        /* \"#utility.yul\":6413:6414   */\n      0x00\n        /* \"#utility.yul\":6406:6421   */\n      revert\n        /* \"#utility.yul\":6433:6666   */\n    tag_58:\n        /* \"#utility.yul\":6472:6475   */\n      0x00\n        /* \"#utility.yul\":6495:6519   */\n      tag_179\n        /* \"#utility.yul\":6513:6518   */\n      dup3\n        /* \"#utility.yul\":6495:6519   */\n      tag_70\n      jump\t// in\n    tag_179:\n        /* \"#utility.yul\":6486:6519   */\n      swap2\n      pop\n        /* \"#utility.yul\":6541:6607   */\n      0xffffffffffffffffffffffffffffffffffffffffffffffffffffffffffffffff\n        /* \"#utility.yul\":6534:6539   */\n      dup3\n        /* \"#utility.yul\":6531:6608   */\n      sub\n        /* \"#utility.yul\":6528:6631   */\n      tag_180\n      jumpi\n        /* \"#utility.yul\":6611:6629   */\n      tag_181\n      tag_91\n      jump\t// in\n    tag_181:\n        /* \"#utility.yul\":6528:6631   */\n    tag_180:\n        /* \"#utility.yul\":6658:6659   */\n      0x01\n        /* \"#utility.yul\":6651:6656   */\n      dup3\n        /* \"#utility.yul\":6647:6660   */\n      add\n        /* \"#utility.yul\":6640:6660   */\n      swap1\n      pop\n        /* \"#utility.yul\":6433:6666   */\n      swap2\n      swap1\n      pop\n      jump\t// out\n        /* \"#utility.yul\":6672:6813   */\n    tag_92:\n        /* \"#utility.yul\":6721:6725   */\n      0x00\n        /* \"#utility.yul\":6744:6747   */\n      dup2\n        /* \"#utility.yul\":6736:6747   */\n      swap1\n      pop\n        /* \"#utility.yul\":6767:6770   */\n      dup2\n        /* \"#utility.yul\":6764:6765   */\n      0x00\n        /* \"#utility.yul\":6757:6771   */\n      mstore\n        /* \"#utility.yul\":6801:6805   */\n      0x20\n        /* \"#utility.yul\":6798:6799   */\n      0x00\n        /* \"#utility.yul\":6788:6806   */\n      keccak256\n        /* \"#utility.yul\":6780:6806   */\n      swap1\n      pop\n        /* \"#utility.yul\":6672:6813   */\n      swap2\n      swap1\n      pop\n      jump\t// out\n        /* \"#utility.yul\":6819:6912   */\n    tag_93:\n        /* \"#utility.yul\":6856:6862   */\n      0x00\n        /* \"#utility.yul\":6903:6905   */\n      0x20\n        /* \"#utility.yul\":6898:6900   */\n      0x1f\n        /* \"#utility.yul\":6891:6896   */\n      dup4\n        /* \"#utility.yul\":6887:6901   */\n      add\n        /* \"#utility.yul\":6883:6906   */\n      div\n        /* \"#utility.yul\":6873:6906   */\n      swap1\n      pop\n        /* \"#utility.yul\":6819:6912   */\n      swap2\n      swap1\n      pop\n      jump\t// out\n        /* \"#utility.yul\":6918:7025   */\n    tag_94:\n        /* \"#utility.yul\":6962:6970   */\n      0x00\n        /* \"#utility.yul\":7012:7017   */\n      dup3\n        /* \"#utility.yul\":7006:7010   */\n      dup3\n        /* \"#utility.yul\":7002:7018   */\n      shl\n        /* \"#utility.yul\":6981:7018   */\n      swap1\n      pop\n        /* \"#utility.yul\":6918:7025   */\n      swap3\n      swap2\n      pop\n      pop\n      jump\t// out\n        /* \"#utility.yul\":7031:7424   */\n    tag_95:\n        /* \"#utility.yul\":7100:7106   */\n      0x00\n        /* \"#utility.yul\":7150:7151   */\n      0x08\n        /* \"#utility.yul\":7138:7148   */\n      dup4\n        /* \"#utility.yul\":7134:7152   */\n      mul\n        /* \"#utility.yul\":7173:7270   */\n      tag_186\n        /* \"#utility.yul\":7203:7269   */\n      0xffffffffffffffffffffffffffffffffffffffffffffffffffffffffffffffff\n        /* \"#utility.yul\":7192:7201   */\n      dup3\n        /* \"#utility.yul\":7173:7270   */\n      tag_94\n      jump\t// in\n    tag_186:\n        /* \"#utility.yul\":7291:7330   */\n      tag_187\n        /* \"#utility.yul\":7321:7329   */\n      dup7\n        /* \"#utility.yul\":7310:7319   */\n      dup4\n        /* \"#utility.yul\":7291:7330   */\n      tag_94\n      jump\t// in\n    tag_187:\n        /* \"#utility.yul\":7279:7330   */\n      swap6\n      pop\n        /* \"#utility.yul\":7363:7367   */\n      dup1\n        /* \"#utility.yul\":7359:7368   */\n      not\n        /* \"#utility.yul\":7352:7357   */\n      dup5\n        /* \"#utility.yul\":7348:7369   */\n      and\n        /* \"#utility.yul\":7339:7369   */\n      swap4\n      pop\n        /* \"#utility.yul\":7412:7416   */\n      dup1\n        /* \"#utility.yul\":7402:7410   */\n      dup7\n        /* \"#utility.yul\":7398:7417   */\n      and\n        /* \"#utility.yul\":7391:7396   */\n      dup5\n        /* \"#utility.yul\":7388:7418   */\n      or\n        /* \"#utility.yul\":7378:7418   */\n      swap3\n      pop\n        /* \"#utility.yul\":7107:7424   */\n      pop\n      pop\n        /* \"#utility.yul\":7031:7424   */\n      swap4\n      swap3\n      pop\n      pop\n      pop\n      jump\t// out\n        /* \"#utility.yul\":7430:7490   */\n    tag_96:\n        /* \"#utility.yul\":7458:7461   */\n      0x00\n        /* \"#utility.yul\":7479:7484   */\n      dup2\n        /* \"#utility.yul\":7472:7484   */\n      swap1\n      pop\n        /* \"#utility.yul\":7430:7490   */\n      swap2\n      swap1\n      pop\n      jump\t// out\n        /* \"#utility.yul\":7496:7638   */\n    tag_97:\n        /* \"#utility.yul\":7546:7555   */\n      0x00\n        /* \"#utility.yul\":7579:7632   */\n      tag_190\n        /* \"#utility.yul\":7597:7631   */\n      tag_191\n        /* \"#utility.yul\":7606:7630   */\n      tag_192\n        /* \"#utility.yul\":7624:7629   */\n      dup5\n        /* \"#utility.yul\":7606:7630   */\n      tag_70\n      jump\t// in\n    tag_192:\n        /* \"#utility.yul\":7597:7631   */\n      tag_96\n      jump\t// in\n    tag_191:\n        /* \"#utility.yul\":7579:7632   */\n      tag_70\n      jump\t// in\n    tag_190:\n        /* \"#utility.yul\":7566:7632   */\n      swap1\n      pop\n        /* \"#utility.yul\":7496:7638   */\n      swap2\n      swap1\n      pop\n      jump\t// out\n        /* \"#utility.yul\":7644:7719   */\n    tag_98:\n        /* \"#utility.yul\":7687:7690   */\n      0x00\n        /* \"#utility.yul\":7708:7713   */\n      dup2\n        /* \"#utility.yul\":7701:7713   */\n      swap1\n      pop\n        /* \"#utility.yul\":7644:7719   */\n      swap2\n      swap1\n      pop\n      jump\t// out\n        /* \"#utility.yul\":7725:7994   */\n    tag_99:\n        /* \"#utility.yul\":7835:7874   */\n      tag_195\n        /* \"#utility.yul\":7866:7873   */\n      dup4\n        /* \"#utility.yul\":7835:7874   */\n      tag_97\n      jump\t// in\n    tag_195:\n        /* \"#utility.yul\":7896:7987   */\n      tag_196\n        /* \"#utility.yul\":7945:7986   */\n      tag_197\n        /* \"#utility.yul\":7969:7985   */\n      dup3\n        /* \"#utility.yul\":7945:7986   */\n      tag_98\n      jump\t// in\n    tag_197:\n        /* \"#utility.yul\":7937:7943   */\n      dup5\n        /* \"#utility.yul\":7930:7934   */\n      dup5\n        /* \"#utility.yul\":7924:7935   */\n      sload\n        /* \"#utility.yul\":7896:7987   */\n      tag_95\n      jump\t// in\n    tag_196:\n        /* \"#utility.yul\":7890:7894   */\n      dup3\n        /* \"#utility.yul\":7883:7988   */\n      sstore\n        /* \"#utility.yul\":7801:7994   */\n      pop\n        /* \"#utility.yul\":7725:7994   */\n      pop\n      pop\n      pop\n      jump\t// out\n        /* \"#utility.yul\":8000:8073   */\n    tag_100:\n        /* \"#utility.yul\":8045:8048   */\n      0x00\n        /* \"#utility.yul\":8066:8067   */\n      0x00\n        /* \"#utility.yul\":8059:8067   */\n      swap1\n      pop\n        /* \"#utility.yul\":8000:8073   */\n      swap1\n      jump\t// out\n        /* \"#utility.yul\":8079:8268   */\n    tag_101:\n        /* \"#utility.yul\":8156:8188   */\n      tag_200\n      tag_100\n      jump\t// in\n    tag_200:\n        /* \"#utility.yul\":8197:8262   */\n      tag_201\n        /* \"#utility.yul\":8255:8261   */\n      dup2\n        /* \"#utility.yul\":8247:8253   */\n      dup5\n        /* \"#utility.yul\":8241:8245   */\n      dup5\n        /* \"#utility.yul\":8197:8262   */\n      tag_99\n      jump\t// in\n    tag_201:\n        /* \"#utility.yul\":8132:8268   */\n      pop\n        /* \"#utility.yul\":8079:8268   */\n      pop\n      pop\n      jump\t// out\n        /* \"#utility.yul\":8274:8460   */\n    tag_102:\n        /* \"#utility.yul\":8334:8454   */\n    tag_203:\n        /* \"#utility.yul\":8351:8354   */\n      dup2\n        /* \"#utility.yul\":8344:8349   */\n      dup2\n        /* \"#utility.yul\":8341:8355   */\n      lt\n        /* \"#utility.yul\":8334:8454   */\n      iszero\n      tag_205\n      jumpi\n        /* \"#utility.yul\":8405:8444   */\n      tag_206\n        /* \"#utility.yul\":8442:8443   */\n      0x00\n        /* \"#utility.yul\":8435:8440   */\n      dup3\n        /* \"#utility.yul\":8405:8444   */\n      tag_101\n      jump\t// in\n    tag_206:\n        /* \"#utility.yul\":8378:8379   */\n      0x01\n        /* \"#utility.yul\":8371:8376   */\n      dup2\n        /* \"#utility.yul\":8367:8380   */\n      add\n        /* \"#utility.yul\":8358:8380   */\n      swap1\n      pop\n        /* \"#utility.yul\":8334:8454   */\n      jump(tag_203)\n    tag_205:\n        /* \"#utility.yul\":8274:8460   */\n      pop\n      pop\n      jump\t// out\n        /* \"#utility.yul\":8466:9009   */\n    tag_103:\n        /* \"#utility.yul\":8567:8569   */\n      0x1f\n        /* \"#utility.yul\":8562:8565   */\n      dup3\n        /* \"#utility.yul\":8559:8570   */\n      gt\n        /* \"#utility.yul\":8556:9002   */\n      iszero\n      tag_208\n      jumpi\n        /* \"#utility.yul\":8601:8639   */\n      tag_209\n        /* \"#utility.yul\":8633:8638   */\n      dup2\n        /* \"#utility.yul\":8601:8639   */\n      tag_92\n      jump\t// in\n    tag_209:\n        /* \"#utility.yul\":8685:8714   */\n      tag_210\n        /* \"#utility.yul\":8703:8713   */\n      dup5\n        /* \"#utility.yul\":8685:8714   */\n      tag_93\n      jump\t// in\n    tag_210:\n        /* \"#utility.yul\":8675:8683   */\n      dup2\n        /* \"#utility.yul\":8671:8715   */\n      add\n        /* \"#utility.yul\":8868:8870   */\n      0x20\n        /* \"#utility.yul\":8856:8866   */\n      dup6\n        /* \"#utility.yul\":8853:8871   */\n      lt\n        /* \"#utility.yul\":8850:8899   */\n      iszero\n      tag_211\n      jumpi\n        /* \"#utility.yul\":8889:8897   */\n      dup2\n        /* \"#utility.yul\":8874:8897   */\n      swap1\n      pop\n        /* \"#utility.yul\":8850:8899   */\n    tag_211:\n        /* \"#utility.yul\":8912:8992   */\n      tag_212\n        /* \"#utility.yul\":8968:8990   */\n      tag_213\n        /* \"#utility.yul\":8986:8989   */\n      dup6\n        /* \"#utility.yul\":8968:8990   */\n      tag_93\n      jump\t// in\n    tag_213:\n        /* \"#utility.yul\":8958:8966   */\n      dup4\n        /* \"#utility.yul\":8954:8991   */\n      add\n        /* \"#utility.yul\":8941:8952   */\n      dup3\n        /* \"#utility.yul\":8912:8992   */\n      tag_102\n      jump\t// in\n    tag_212:\n        /* \"#utility.yul\":8571:9002   */\n      pop\n      pop\n        /* \"#utility.yul\":8556:9002   */\n    tag_208:\n        /* \"#utility.yul\":8466:9009   */\n      pop\n      pop\n      pop\n      jump\t// out\n        /* \"#utility.yul\":9015:9132   */\n    tag_104:\n        /* \"#utility.yul\":9069:9077   */\n      0x00\n        /* \"#utility.yul\":9119:9124   */\n      dup3\n        /* \"#utility.yul\":9113:9117   */\n      dup3\n        /* \"#utility.yul\":9109:9125   */\n      shr\n        /* \"#utility.yul\":9088:9125   */\n      swap1\n      pop\n        /* \"#utility.yul\":9015:9132   */\n      swap3\n      swap2\n      pop\n      pop\n      jump\t// out\n        /* \"#utility.yul\":9138:9307   */\n    tag_105:\n        /* \"#utility.yul\":9182:9188   */\n      0x00\n        /* \"#utility.yul\":9215:9266   */\n      tag_216\n        /* \"#utility.yul\":9263:9264   */\n      0x00\n        /* \"#utility.yul\":9259:9265   */\n      not\n        /* \"#utility.yul\":9251:9256   */\n      dup5\n        /* \"#utility.yul\":9248:9249   */\n      0x08\n        /* \"#utility.yul\":9244:9257   */\n      mul\n        /* \"#utility.yul\":9215:9266   */\n      tag_104\n      jump\t// in\n    tag_216:\n        /* \"#utility.yul\":9211:9267   */\n      not\n        /* \"#utility.yul\":9296:9300   */\n      dup1\n        /* \"#utility.yul\":9290:9294   */\n      dup4\n        /* \"#utility.yul\":9286:9301   */\n      and\n        /* \"#utility.yul\":9276:9301   */\n      swap2\n      pop\n        /* \"#utility.yul\":9189:9307   */\n      pop\n        /* \"#utility.yul\":9138:9307   */\n      swap3\n      swap2\n      pop\n      pop\n      jump\t// out\n        /* \"#utility.yul\":9312:9607   */\n    tag_106:\n        /* \"#utility.yul\":9388:9392   */\n      0x00\n        /* \"#utility.yul\":9534:9563   */\n      tag_218\n        /* \"#utility.yul\":9559:9562   */\n      dup4\n        /* \"#utility.yul\":9553:9557   */\n      dup4\n        /* \"#utility.yul\":9534:9563   */\n      tag_105\n      jump\t// in\n    tag_218:\n        /* \"#utility.yul\":9526:9563   */\n      swap2\n      pop\n        /* \"#utility.yul\":9596:9599   */\n      dup3\n        /* \"#utility.yul\":9593:9594   */\n      0x02\n        /* \"#utility.yul\":9589:9600   */\n      mul\n        /* \"#utility.yul\":9583:9587   */\n      dup3\n        /* \"#utility.yul\":9580:9601   */\n      or\n        /* \"#utility.yul\":9572:9601   */\n      swap1\n      pop\n        /* \"#utility.yul\":9312:9607   */\n      swap3\n      swap2\n      pop\n      pop\n      jump\t// out\n        /* \"#utility.yul\":9612:11007   */\n    tag_61:\n        /* \"#utility.yul\":9729:9766   */\n      tag_220\n        /* \"#utility.yul\":9762:9765   */\n      dup3\n        /* \"#utility.yul\":9729:9766   */\n      tag_73\n      jump\t// in\n    tag_220:\n        /* \"#utility.yul\":9831:9849   */\n      0xffffffffffffffff\n        /* \"#utility.yul\":9823:9829   */\n      dup2\n        /* \"#utility.yul\":9820:9850   */\n      gt\n        /* \"#utility.yul\":9817:9873   */\n      iszero\n      tag_221\n      jumpi\n        /* \"#utility.yul\":9853:9871   */\n      tag_222\n      tag_82\n      jump\t// in\n    tag_222:\n        /* \"#utility.yul\":9817:9873   */\n    tag_221:\n        /* \"#utility.yul\":9897:9935   */\n      tag_223\n        /* \"#utility.yul\":9929:9933   */\n      dup3\n        /* \"#utility.yul\":9923:9934   */\n      sload\n        /* \"#utility.yul\":9897:9935   */\n      tag_37\n      jump\t// in\n    tag_223:\n        /* \"#utility.yul\":9982:10049   */\n      tag_224\n        /* \"#utility.yul\":10042:10048   */\n      dup3\n        /* \"#utility.yul\":10034:10040   */\n      dup3\n        /* \"#utility.yul\":10028:10032   */\n      dup6\n        /* \"#utility.yul\":9982:10049   */\n      tag_103\n      jump\t// in\n    tag_224:\n        /* \"#utility.yul\":10076:10077   */\n      0x00\n        /* \"#utility.yul\":10100:10104   */\n      0x20\n        /* \"#utility.yul\":10087:10104   */\n      swap1\n      pop\n        /* \"#utility.yul\":10132:10134   */\n      0x1f\n        /* \"#utility.yul\":10124:10130   */\n      dup4\n        /* \"#utility.yul\":10121:10135   */\n      gt\n        /* \"#utility.yul\":10149:10150   */\n      0x01\n        /* \"#utility.yul\":10144:10762   */\n      dup2\n      eq\n      tag_226\n      jumpi\n        /* \"#utility.yul\":10806:10807   */\n      0x00\n        /* \"#utility.yul\":10823:10829   */\n      dup5\n        /* \"#utility.yul\":10820:10897   */\n      iszero\n      tag_227\n      jumpi\n        /* \"#utility.yul\":10872:10881   */\n      dup3\n        /* \"#utility.yul\":10867:10870   */\n      dup8\n        /* \"#utility.yul\":10863:10882   */\n      add\n        /* \"#utility.yul\":10857:10883   */\n      mload\n        /* \"#utility.yul\":10848:10883   */\n      swap1\n      pop\n        /* \"#utility.yul\":10820:10897   */\n    tag_227:\n        /* \"#utility.yul\":10923:10990   */\n      tag_228\n        /* \"#utility.yul\":10983:10989   */\n      dup6\n        /* \"#utility.yul\":10976:10981   */\n      dup3\n        /* \"#utility.yul\":10923:10990   */\n      tag_106\n      jump\t// in\n    tag_228:\n        /* \"#utility.yul\":10917:10921   */\n      dup7\n        /* \"#utility.yul\":10910:10991   */\n      sstore\n        /* \"#utility.yul\":10779:11001   */\n      pop\n        /* \"#utility.yul\":10114:11001   */\n      jump(tag_225)\n        /* \"#utility.yul\":10144:10762   */\n    tag_226:\n        /* \"#utility.yul\":10196:10200   */\n      0x1f\n        /* \"#utility.yul\":10192:10201   */\n      not\n        /* \"#utility.yul\":10184:10190   */\n      dup5\n        /* \"#utility.yul\":10180:10202   */\n      and\n        /* \"#utility.yul\":10230:10267   */\n      tag_229\n        /* \"#utility.yul\":10262:10266   */\n      dup7\n        /* \"#utility.yul\":10230:10267   */\n      tag_92\n      jump\t// in\n    tag_229:\n        /* \"#utility.yul\":10289:10290   */\n      0x00\n        /* \"#utility.yul\":10303:10511   */\n    tag_230:\n        /* \"#utility.yul\":10317:10324   */\n      dup3\n        /* \"#utility.yul\":10314:10315   */\n      dup2\n        /* \"#utility.yul\":10311:10325   */\n      lt\n        /* \"#utility.yul\":10303:10511   */\n      iszero\n      tag_232\n      jumpi\n        /* \"#utility.yul\":10396:10405   */\n      dup5\n        /* \"#utility.yul\":10391:10394   */\n      dup10\n        /* \"#utility.yul\":10387:10406   */\n      add\n        /* \"#utility.yul\":10381:10407   */\n      mload\n        /* \"#utility.yul\":10373:10379   */\n      dup3\n        /* \"#utility.yul\":10366:10408   */\n      sstore\n        /* \"#utility.yul\":10447:10448   */\n      0x01\n        /* \"#utility.yul\":10439:10445   */\n      dup3\n        /* \"#utility.yul\":10435:10449   */\n      add\n        /* \"#utility.yul\":10425:10449   */\n      swap2\n      pop\n        /* \"#utility.yul\":10494:10496   */\n      0x20\n        /* \"#utility.yul\":10483:10492   */\n      dup6\n        /* \"#utility.yul\":10479:10497   */\n      add\n        /* \"#utility.yul\":10466:10497   */\n      swap5\n      pop\n        /* \"#utility.yul\":10340:10344   */\n      0x20\n        /* \"#utility.yul\":10337:10338   */\n      dup2\n        /* \"#utility.yul\":10333:10345   */\n      add\n        /* \"#utility.yul\":10328:10345   */\n      swap1\n      pop\n        /* \"#utility.yul\":10303:10511   */\n      jump(tag_230)\n    tag_232:\n        /* \"#utility.yul\":10539:10545   */\n      dup7\n        /* \"#utility.yul\":10530:10537   */\n      dup4\n        /* \"#utility.yul\":10527:10546   */\n      lt\n        /* \"#utility.yul\":10524:10703   */\n      iszero\n      tag_233\n      jumpi\n        /* \"#utility.yul\":10597:10606   */\n      dup5\n        /* \"#utility.yul\":10592:10595   */\n      dup10\n        /* \"#utility.yul\":10588:10607   */\n      add\n        /* \"#utility.yul\":10582:10608   */\n      mload\n        /* \"#utility.yul\":10640:10688   */\n      tag_234\n        /* \"#utility.yul\":10682:10686   */\n      0x1f\n        /* \"#utility.yul\":10674:10680   */\n      dup10\n        /* \"#utility.yul\":10670:10687   */\n      and\n        /* \"#utility.yul\":10659:10668   */\n      dup3\n        /* \"#utility.yul\":10640:10688   */\n      tag_105\n      jump\t// in\n    tag_234:\n        /* \"#utility.yul\":10632:10638   */\n      dup4\n        /* \"#utility.yul\":10625:10689   */\n      sstore\n        /* \"#utility.yul\":10547:10703   */\n      pop\n        /* \"#utility.yul\":10524:10703   */\n    tag_233:\n        /* \"#utility.yul\":10749:10750   */\n      0x01\n        /* \"#utility.yul\":10745:10746   */\n      0x02\n        /* \"#utility.yul\":10737:10743   */\n      dup9\n        /* \"#utility.yul\":10733:10747   */\n      mul\n        /* \"#utility.yul\":10729:10751   */\n      add\n        /* \"#utility.yul\":10723:10727   */\n      dup9\n        /* \"#utility.yul\":10716:10752   */\n      sstore\n        /* \"#utility.yul\":10151:10762   */\n      pop\n      pop\n      pop\n        /* \"#utility.yul\":10114:11001   */\n    tag_225:\n      pop\n        /* \"#utility.yul\":9704:11007   */\n      pop\n      pop\n      pop\n        /* \"#utility.yul\":9612:11007   */\n      pop\n      pop\n      jump\t// out\n\n    auxdata: 0xa2646970667358221220284182f8b18db88a519b4ec056a76c183ec5ab2209129c0947d9ec96da193d5b64736f6c634300081e0033\n}\n",
				"bytecode": {
					"linkReferences": {},
					"object": "6080604052348015600e575f5ffd5b50610ae08061001c5f395ff3fe608060405234801561000f575f5ffd5b5060043610610060575f3560e01c80630eddaecf146100645780631d65e77e146100955780634ad0e590146100c657806367238562146100e25780638d977672146100fe578063b6cb58a51461012f575b5f5ffd5b61007e600480360381019061007991906104bf565b61014d565b60405161008c929190610574565b60405180910390f35b6100af60048036038101906100aa91906104bf565b61020d565b6040516100bd929190610574565b60405180910390f35b6100e060048036038101906100db91906104bf565b6102f9565b005b6100fc60048036038101906100f791906106ce565b610336565b005b610118600480360381019061011391906104bf565b6103c3565b604051610126929190610574565b60405180910390f35b610137610475565b6040516101449190610724565b60405180910390f35b5f818154811061015b575f80fd5b905f5260205f2090600202015f91509050805f01805461017a9061076a565b80601f01602080910402602001604051908101604052809291908181526020018280546101a69061076a565b80156101f15780601f106101c8576101008083540402835291602001916101f1565b820191905f5260205f20905b8154815290600101906020018083116101d457829003601f168201915b505050505090806001015f9054906101000a900460ff16905082565b60605f5f5f84815481106102245761022361079a565b5b905f5260205f2090600202016040518060400160405290815f8201805461024a9061076a565b80601f01602080910402602001604051908101604052809291908181526020018280546102769061076a565b80156102c15780601f10610298576101008083540402835291602001916102c1565b820191905f5260205f20905b8154815290600101906020018083116102a457829003601f168201915b50505050508152602001600182015f9054906101000a900460ff1615151515815250509050805f015181602001519250925050915091565b60015f828154811061030e5761030d61079a565b5b905f5260205f2090600202016001015f6101000a81548160ff02191690831515021790555050565b60015f815480929190610348906107f4565b91905055505f60405180604001604052808381526020015f1515815250908060018154018082558091505060019003905f5260205f2090600202015f909190919091505f820151815f01908161039e91906109db565b506020820151816001015f6101000a81548160ff021916908315150217905550505050565b6002602052805f5260405f205f91509050805f0180546103e29061076a565b80601f016020809104026020016040519081016040528092919081815260200182805461040e9061076a565b80156104595780601f1061043057610100808354040283529160200191610459565b820191905f5260205f20905b81548152906001019060200180831161043c57829003601f168201915b505050505090806001015f9054906101000a900460ff16905082565b60015481565b5f604051905090565b5f5ffd5b5f5ffd5b5f819050919050565b61049e8161048c565b81146104a8575f5ffd5b50565b5f813590506104b981610495565b92915050565b5f602082840312156104d4576104d3610484565b5b5f6104e1848285016104ab565b91505092915050565b5f81519050919050565b5f82825260208201905092915050565b8281835e5f83830152505050565b5f601f19601f8301169050919050565b5f61052c826104ea565b61053681856104f4565b9350610546818560208601610504565b61054f81610512565b840191505092915050565b5f8115159050919050565b61056e8161055a565b82525050565b5f6040820190508181035f83015261058c8185610522565b905061059b6020830184610565565b9392505050565b5f5ffd5b5f5ffd5b7f4e487b71000000000000000000000000000000000000000000000000000000005f52604160045260245ffd5b6105e082610512565b810181811067ffffffffffffffff821117156105ff576105fe6105aa565b5b80604052505050565b5f61061161047b565b905061061d82826105d7565b919050565b5f67ffffffffffffffff82111561063c5761063b6105aa565b5b61064582610512565b9050602081019050919050565b828183375f83830152505050565b5f61067261066d84610622565b610608565b90508281526020810184848401111561068e5761068d6105a6565b5b610699848285610652565b509392505050565b5f82601f8301126106b5576106b46105a2565b5b81356106c5848260208601610660565b91505092915050565b5f602082840312156106e3576106e2610484565b5b5f82013567ffffffffffffffff811115610700576106ff610488565b5b61070c848285016106a1565b91505092915050565b61071e8161048c565b82525050565b5f6020820190506107375f830184610715565b92915050565b7f4e487b71000000000000000000000000000000000000000000000000000000005f52602260045260245ffd5b5f600282049050600182168061078157607f821691505b6020821081036107945761079361073d565b5b50919050565b7f4e487b71000000000000000000000000000000000000000000000000000000005f52603260045260245ffd5b7f4e487b71000000000000000000000000000000000000000000000000000000005f52601160045260245ffd5b5f6107fe8261048c565b91507fffffffffffffffffffffffffffffffffffffffffffffffffffffffffffffffff82036108305761082f6107c7565b5b600182019050919050565b5f819050815f5260205f209050919050565b5f6020601f8301049050919050565b5f82821b905092915050565b5f600883026108977fffffffffffffffffffffffffffffffffffffffffffffffffffffffffffffffff8261085c565b6108a1868361085c565b95508019841693508086168417925050509392505050565b5f819050919050565b5f6108dc6108d76108d28461048c565b6108b9565b61048c565b9050919050565b5f819050919050565b6108f5836108c2565b610909610901826108e3565b848454610868565b825550505050565b5f5f905090565b610920610911565b61092b8184846108ec565b505050565b5b8181101561094e576109435f82610918565b600181019050610931565b5050565b601f821115610993576109648161083b565b61096d8461084d565b8101602085101561097c578190505b6109906109888561084d565b830182610930565b50505b505050565b5f82821c905092915050565b5f6109b35f1984600802610998565b1980831691505092915050565b5f6109cb83836109a4565b9150826002028217905092915050565b6109e4826104ea565b67ffffffffffffffff8111156109fd576109fc6105aa565b5b610a07825461076a565b610a12828285610952565b5f60209050601f831160018114610a43575f8415610a31578287015190505b610a3b85826109c0565b865550610aa2565b601f198416610a518661083b565b5f5b82811015610a7857848901518255600182019150602085019450602081019050610a53565b86831015610a955784890151610a91601f8916826109a4565b8355505b6001600288020188555050505b50505050505056fea2646970667358221220284182f8b18db88a519b4ec056a76c183ec5ab2209129c0947d9ec96da193d5b64736f6c634300081e0033",
					"opcodes": "PUSH1 0x80 PUSH1 0x40 MSTORE CALLVALUE DUP1 ISZERO PUSH1 0xE JUMPI PUSH0 PUSH0 REVERT JUMPDEST POP PUSH2 0xAE0 DUP1 PUSH2 0x1C PUSH0 CODECOPY PUSH0 RETURN INVALID PUSH1 0x80 PUSH1 0x40 MSTORE CALLVALUE DUP1 ISZERO PUSH2 0xF JUMPI PUSH0 PUSH0 REVERT JUMPDEST POP PUSH1 0x4 CALLDATASIZE LT PUSH2 0x60 JUMPI PUSH0 CALLDATALOAD PUSH1 0xE0 SHR DUP1 PUSH4 0xEDDAECF EQ PUSH2 0x64 JUMPI DUP1 PUSH4 0x1D65E77E EQ PUSH2 0x95 JUMPI DUP1 PUSH4 0x4AD0E590 EQ PUSH2 0xC6 JUMPI DUP1 PUSH4 0x67238562 EQ PUSH2 0xE2 JUMPI DUP1 PUSH4 0x8D977672 EQ PUSH2 0xFE JUMPI DUP1 PUSH4 0xB6CB58A5 EQ PUSH2 0x12F JUMPI JUMPDEST PUSH0 PUSH0 REVERT JUMPDEST PUSH2 0x7E PUSH1 0x4 DUP1 CALLDATASIZE SUB DUP2 ADD SWAP1 PUSH2 0x79 SWAP2 SWAP1 PUSH2 0x4BF JUMP JUMPDEST PUSH2 0x14D JUMP JUMPDEST PUSH1 0x40 MLOAD PUSH2 0x8C SWAP3 SWAP2 SWAP1 PUSH2 0x574 JUMP JUMPDEST PUSH1 0x40 MLOAD DUP1 SWAP2 SUB SWAP1 RETURN JUMPDEST PUSH2 0xAF PUSH1 0x4 DUP1 CALLDATASIZE SUB DUP2 ADD SWAP1 PUSH2 0xAA SWAP2 SWAP1 PUSH2 0x4BF JUMP JUMPDEST PUSH2 0x20D JUMP JUMPDEST PUSH1 0x40 MLOAD PUSH2 0xBD SWAP3 SWAP2 SWAP1 PUSH2 0x574 JUMP JUMPDEST PUSH1 0x40 MLOAD DUP1 SWAP2 SUB SWAP1 RETURN JUMPDEST PUSH2 0xE0 PUSH1 0x4 DUP1 CALLDATASIZE SUB DUP2 ADD SWAP1 PUSH2 0xDB SWAP2 SWAP1 PUSH2 0x4BF JUMP JUMPDEST PUSH2 0x2F9 JUMP JUMPDEST STOP JUMPDEST PUSH2 0xFC PUSH1 0x4 DUP1 CALLDATASIZE SUB DUP2 ADD SWAP1 PUSH2 0xF7 SWAP2 SWAP1 PUSH2 0x6CE JUMP JUMPDEST PUSH2 0x336 JUMP JUMPDEST STOP JUMPDEST PUSH2 0x118 PUSH1 0x4 DUP1 CALLDATASIZE SUB DUP2 ADD SWAP1 PUSH2 0x113 SWAP2 SWAP1 PUSH2 0x4BF JUMP JUMPDEST PUSH2 0x3C3 JUMP JUMPDEST PUSH1 0x40 MLOAD PUSH2 0x126 SWAP3 SWAP2 SWAP1 PUSH2 0x574 JUMP JUMPDEST PUSH1 0x40 MLOAD DUP1 SWAP2 SUB SWAP1 RETURN JUMPDEST PUSH2 0x137 PUSH2 0x475 JUMP JUMPDEST PUSH1 0x40 MLOAD PUSH2 0x144 SWAP2 SWAP1 PUSH2 0x724 JUMP JUMPDEST PUSH1 0x40 MLOAD DUP1 SWAP2 SUB SWAP1 RETURN JUMPDEST PUSH0 DUP2 DUP2 SLOAD DUP2 LT PUSH2 0x15B JUMPI PUSH0 DUP1 REVERT JUMPDEST SWAP1 PUSH0 MSTORE PUSH1 0x20 PUSH0 KECCAK256 SWAP1 PUSH1 0x2 MUL ADD PUSH0 SWAP2 POP SWAP1 POP DUP1 PUSH0 ADD DUP1 SLOAD PUSH2 0x17A SWAP1 PUSH2 0x76A JUMP JUMPDEST DUP1 PUSH1 0x1F ADD PUSH1 0x20 DUP1 SWAP2 DIV MUL PUSH1 0x20 ADD PUSH1 0x40 MLOAD SWAP1 DUP2 ADD PUSH1 0x40 MSTORE DUP1 SWAP3 SWAP2 SWAP1 DUP2 DUP2 MSTORE PUSH1 0x20 ADD DUP3 DUP1 SLOAD PUSH2 0x1A6 SWAP1 PUSH2 0x76A JUMP JUMPDEST DUP1 ISZERO PUSH2 0x1F1 JUMPI DUP1 PUSH1 0x1F LT PUSH2 0x1C8 JUMPI PUSH2 0x100 DUP1 DUP4 SLOAD DIV MUL DUP4 MSTORE SWAP2 PUSH1 0x20 ADD SWAP2 PUSH2 0x1F1 JUMP JUMPDEST DUP3 ADD SWAP2 SWAP1 PUSH0 MSTORE PUSH1 0x20 PUSH0 KECCAK256 SWAP1 JUMPDEST DUP2 SLOAD DUP2 MSTORE SWAP1 PUSH1 0x1 ADD SWAP1 PUSH1 0x20 ADD DUP1 DUP4 GT PUSH2 0x1D4 JUMPI DUP3 SWAP1 SUB PUSH1 0x1F AND DUP3 ADD SWAP2 JUMPDEST POP POP POP POP POP SWAP1 DUP1 PUSH1 0x1 ADD PUSH0 SWAP1 SLOAD SWAP1 PUSH2 0x100 EXP SWAP1 DIV PUSH1 0xFF AND SWAP1 POP DUP3 JUMP JUMPDEST PUSH1 0x60 PUSH0 PUSH0 PUSH0 DUP5 DUP2 SLOAD DUP2 LT PUSH2 0x224 JUMPI PUSH2 0x223 PUSH2 0x79A JUMP JUMPDEST JUMPDEST SWAP1 PUSH0 MSTORE PUSH1 0x20 PUSH0 KECCAK256 SWAP1 PUSH1 0x2 MUL ADD PUSH1 0x40 MLOAD DUP1 PUSH1 0x40 ADD PUSH1 0x40 MSTORE SWAP1 DUP2 PUSH0 DUP3 ADD DUP1 SLOAD PUSH2 0x24A SWAP1 PUSH2 0x76A JUMP JUMPDEST DUP1 PUSH1 0x1F ADD PUSH1 0x20 DUP1 SWAP2 DIV MUL PUSH1 0x20 ADD PUSH1 0x40 MLOAD SWAP1 DUP2 ADD PUSH1 0x40 MSTORE DUP1 SWAP3 SWAP2 SWAP1 DUP2 DUP2 MSTORE PUSH1 0x20 ADD DUP3 DUP1 SLOAD PUSH2 0x276 SWAP1 PUSH2 0x76A JUMP JUMPDEST DUP1 ISZERO PUSH2 0x2C1 JUMPI DUP1 PUSH1 0x1F LT PUSH2 0x298 JUMPI PUSH2 0x100 DUP1 DUP4 SLOAD DIV MUL DUP4 MSTORE SWAP2 PUSH1 0x20 ADD SWAP2 PUSH2 0x2C1 JUMP JUMPDEST DUP3 ADD SWAP2 SWAP1 PUSH0 MSTORE PUSH1 0x20 PUSH0 KECCAK256 SWAP1 JUMPDEST DUP2 SLOAD DUP2 MSTORE SWAP1 PUSH1 0x1 ADD SWAP1 PUSH1 0x20 ADD DUP1 DUP4 GT PUSH2 0x2A4 JUMPI DUP3 SWAP1 SUB PUSH1 0x1F AND DUP3 ADD SWAP2 JUMPDEST POP POP POP POP POP DUP2 MSTORE PUSH1 0x20 ADD PUSH1 0x1 DUP3 ADD PUSH0 SWAP1 SLOAD SWAP1 PUSH2 0x100 EXP SWAP1 DIV PUSH1 0xFF AND ISZERO ISZERO ISZERO ISZERO DUP2 MSTORE POP POP SWAP1 POP DUP1 PUSH0 ADD MLOAD DUP2 PUSH1 0x20 ADD MLOAD SWAP3 POP SWAP3 POP POP SWAP2 POP SWAP2 JUMP JUMPDEST PUSH1 0x1 PUSH0 DUP3 DUP2 SLOAD DUP2 LT PUSH2 0x30E JUMPI PUSH2 0x30D PUSH2 0x79A JUMP JUMPDEST JUMPDEST SWAP1 PUSH0 MSTORE PUSH1 0x20 PUSH0 KECCAK256 SWAP1 PUSH1 0x2 MUL ADD PUSH1 0x1 ADD PUSH0 PUSH2 0x100 EXP DUP2 SLOAD DUP2 PUSH1 0xFF MUL NOT AND SWAP1 DUP4 ISZERO ISZERO MUL OR SWAP1 SSTORE POP POP JUMP JUMPDEST PUSH1 0x1 PUSH0 DUP2 SLOAD DUP1 SWAP3 SWAP2 SWAP1 PUSH2 0x348 SWAP1 PUSH2 0x7F4 JUMP JUMPDEST SWAP2 SWAP1 POP SSTORE POP PUSH0 PUSH1 0x40 MLOAD DUP1 PUSH1 0x40 ADD PUSH1 0x40 MSTORE DUP1 DUP4 DUP2 MSTORE PUSH1 0x20 ADD PUSH0 ISZERO ISZERO DUP2 MSTORE POP SWAP1 DUP1 PUSH1 0x1 DUP2 SLOAD ADD DUP1 DUP3 SSTORE DUP1 SWAP2 POP POP PUSH1 0x1 SWAP1 SUB SWAP1 PUSH0 MSTORE PUSH1 0x20 PUSH0 KECCAK256 SWAP1 PUSH1 0x2 MUL ADD PUSH0 SWAP1 SWAP2 SWAP1 SWAP2 SWAP1 SWAP2 POP PUSH0 DUP3 ADD MLOAD DUP2 PUSH0 ADD SWAP1 DUP2 PUSH2 0x39E SWAP2 SWAP1 PUSH2 0x9DB JUMP JUMPDEST POP PUSH1 0x20 DUP3 ADD MLOAD DUP2 PUSH1 0x1 ADD PUSH0 PUSH2 0x100 EXP DUP2 SLOAD DUP2 PUSH1 0xFF MUL NOT AND SWAP1 DUP4 ISZERO ISZERO MUL OR SWAP1 SSTORE POP POP POP POP JUMP JUMPDEST PUSH1 0x2 PUSH1 0x20 MSTORE DUP1 PUSH0 MSTORE PUSH1 0x40 PUSH0 KECCAK256 PUSH0 SWAP2 POP SWAP1 POP DUP1 PUSH0 ADD DUP1 SLOAD PUSH2 0x3E2 SWAP1 PUSH2 0x76A JUMP JUMPDEST DUP1 PUSH1 0x1F ADD PUSH1 0x20 DUP1 SWAP2 DIV MUL PUSH1 0x20 ADD PUSH1 0x40 MLOAD SWAP1 DUP2 ADD PUSH1 0x40 MSTORE DUP1 SWAP3 SWAP2 SWAP1 DUP2 DUP2 MSTORE PUSH1 0x20 ADD DUP3 DUP1 SLOAD PUSH2 0x40E SWAP1 PUSH2 0x76A JUMP JUMPDEST DUP1 ISZERO PUSH2 0x459 JUMPI DUP1 PUSH1 0x1F LT PUSH2 0x430 JUMPI PUSH2 0x100 DUP1 DUP4 SLOAD DIV MUL DUP4 MSTORE SWAP2 PUSH1 0x20 ADD SWAP2 PUSH2 0x459 JUMP JUMPDEST DUP3 ADD SWAP2 SWAP1 PUSH0 MSTORE PUSH1 0x20 PUSH0 KECCAK256 SWAP1 JUMPDEST DUP2 SLOAD DUP2 MSTORE SWAP1 PUSH1 0x1 ADD SWAP1 PUSH1 0x20 ADD DUP1 DUP4 GT PUSH2 0x43C JUMPI DUP3 SWAP1 SUB PUSH1 0x1F AND DUP3 ADD SWAP2 JUMPDEST POP POP POP POP POP SWAP1 DUP1 PUSH1 0x1 ADD PUSH0 SWAP1 SLOAD SWAP1 PUSH2 0x100 EXP SWAP1 DIV PUSH1 0xFF AND SWAP1 POP DUP3 JUMP JUMPDEST PUSH1 0x1 SLOAD DUP2 JUMP JUMPDEST PUSH0 PUSH1 0x40 MLOAD SWAP1 POP SWAP1 JUMP JUMPDEST PUSH0 PUSH0 REVERT JUMPDEST PUSH0 PUSH0 REVERT JUMPDEST PUSH0 DUP2 SWAP1 POP SWAP2 SWAP1 POP JUMP JUMPDEST PUSH2 0x49E DUP2 PUSH2 0x48C JUMP JUMPDEST DUP2 EQ PUSH2 0x4A8 JUMPI PUSH0 PUSH0 REVERT JUMPDEST POP JUMP JUMPDEST PUSH0 DUP2 CALLDATALOAD SWAP1 POP PUSH2 0x4B9 DUP2 PUSH2 0x495 JUMP JUMPDEST SWAP3 SWAP2 POP POP JUMP JUMPDEST PUSH0 PUSH1 0x20 DUP3 DUP5 SUB SLT ISZERO PUSH2 0x4D4 JUMPI PUSH2 0x4D3 PUSH2 0x484 JUMP JUMPDEST JUMPDEST PUSH0 PUSH2 0x4E1 DUP5 DUP3 DUP6 ADD PUSH2 0x4AB JUMP JUMPDEST SWAP2 POP POP SWAP3 SWAP2 POP POP JUMP JUMPDEST PUSH0 DUP2 MLOAD SWAP1 POP SWAP2 SWAP1 POP JUMP JUMPDEST PUSH0 DUP3 DUP3 MSTORE PUSH1 0x20 DUP3 ADD SWAP1 POP SWAP3 SWAP2 POP POP JUMP JUMPDEST DUP3 DUP2 DUP4 MCOPY PUSH0 DUP4 DUP4 ADD MSTORE POP POP POP JUMP JUMPDEST PUSH0 PUSH1 0x1F NOT PUSH1 0x1F DUP4 ADD AND SWAP1 POP SWAP2 SWAP1 POP JUMP JUMPDEST PUSH0 PUSH2 0x52C DUP3 PUSH2 0x4EA JUMP JUMPDEST PUSH2 0x536 DUP2 DUP6 PUSH2 0x4F4 JUMP JUMPDEST SWAP4 POP PUSH2 0x546 DUP2 DUP6 PUSH1 0x20 DUP7 ADD PUSH2 0x504 JUMP JUMPDEST PUSH2 0x54F DUP2 PUSH2 0x512 JUMP JUMPDEST DUP5 ADD SWAP2 POP POP SWAP3 SWAP2 POP POP JUMP JUMPDEST PUSH0 DUP2 ISZERO ISZERO SWAP1 POP SWAP2 SWAP1 POP JUMP JUMPDEST PUSH2 0x56E DUP2 PUSH2 0x55A JUMP JUMPDEST DUP3 MSTORE POP POP JUMP JUMPDEST PUSH0 PUSH1 0x40 DUP3 ADD SWAP1 POP DUP2 DUP2 SUB PUSH0 DUP4 ADD MSTORE PUSH2 0x58C DUP2 DUP6 PUSH2 0x522 JUMP JUMPDEST SWAP1 POP PUSH2 0x59B PUSH1 0x20 DUP4 ADD DUP5 PUSH2 0x565 JUMP JUMPDEST SWAP4 SWAP3 POP POP POP JUMP JUMPDEST PUSH0 PUSH0 REVERT JUMPDEST PUSH0 PUSH0 REVERT JUMPDEST PUSH32 0x4E487B7100000000000000000000000000000000000000000000000000000000 PUSH0 MSTORE PUSH1 0x41 PUSH1 0x4 MSTORE PUSH1 0x24 PUSH0 REVERT JUMPDEST PUSH2 0x5E0 DUP3 PUSH2 0x512 JUMP JUMPDEST DUP2 ADD DUP2 DUP2 LT PUSH8 0xFFFFFFFFFFFFFFFF DUP3 GT OR ISZERO PUSH2 0x5FF JUMPI PUSH2 0x5FE PUSH2 0x5AA JUMP JUMPDEST JUMPDEST DUP1 PUSH1 0x40 MSTORE POP POP POP JUMP JUMPDEST PUSH0 PUSH2 0x611 PUSH2 0x47B JUMP JUMPDEST SWAP1 POP PUSH2 0x61D DUP3 DUP3 PUSH2 0x5D7 JUMP JUMPDEST SWAP2 SWAP1 POP JUMP JUMPDEST PUSH0 PUSH8 0xFFFFFFFFFFFFFFFF DUP3 GT ISZERO PUSH2 0x63C JUMPI PUSH2 0x63B PUSH2 0x5AA JUMP JUMPDEST JUMPDEST PUSH2 0x645 DUP3 PUSH2 0x512 JUMP JUMPDEST SWAP1 POP PUSH1 0x20 DUP2 ADD SWAP1 POP SWAP2 SWAP1 POP JUMP JUMPDEST DUP3 DUP2 DUP4 CALLDATACOPY PUSH0 DUP4 DUP4 ADD MSTORE POP POP POP JUMP JUMPDEST PUSH0 PUSH2 0x672 PUSH2 0x66D DUP5 PUSH2 0x622 JUMP JUMPDEST PUSH2 0x608 JUMP JUMPDEST SWAP1 POP DUP3 DUP2 MSTORE PUSH1 0x20 DUP2 ADD DUP5 DUP5 DUP5 ADD GT ISZERO PUSH2 0x68E JUMPI PUSH2 0x68D PUSH2 0x5A6 JUMP JUMPDEST JUMPDEST PUSH2 0x699 DUP5 DUP3 DUP6 PUSH2 0x652 JUMP JUMPDEST POP SWAP4 SWAP3 POP POP POP JUMP JUMPDEST PUSH0 DUP3 PUSH1 0x1F DUP4 ADD SLT PUSH2 0x6B5 JUMPI PUSH2 0x6B4 PUSH2 0x5A2 JUMP JUMPDEST JUMPDEST DUP2 CALLDATALOAD PUSH2 0x6C5 DUP5 DUP3 PUSH1 0x20 DUP7 ADD PUSH2 0x660 JUMP JUMPDEST SWAP2 POP POP SWAP3 SWAP2 POP POP JUMP JUMPDEST PUSH0 PUSH1 0x20 DUP3 DUP5 SUB SLT ISZERO PUSH2 0x6E3 JUMPI PUSH2 0x6E2 PUSH2 0x484 JUMP JUMPDEST JUMPDEST PUSH0 DUP3 ADD CALLDATALOAD PUSH8 0xFFFFFFFFFFFFFFFF DUP2 GT ISZERO PUSH2 0x700 JUMPI PUSH2 0x6FF PUSH2 0x488 JUMP JUMPDEST JUMPDEST PUSH2 0x70C DUP5 DUP3 DUP6 ADD PUSH2 0x6A1 JUMP JUMPDEST SWAP2 POP POP SWAP3 SWAP2 POP POP JUMP JUMPDEST PUSH2 0x71E DUP2 PUSH2 0x48C JUMP JUMPDEST DUP3 MSTORE POP POP JUMP JUMPDEST PUSH0 PUSH1 0x20 DUP3 ADD SWAP1 POP PUSH2 0x737 PUSH0 DUP4 ADD DUP5 PUSH2 0x715 JUMP JUMPDEST SWAP3 SWAP2 POP POP JUMP JUMPDEST PUSH32 0x4E487B7100000000000000000000000000000000000000000000000000000000 PUSH0 MSTORE PUSH1 0x22 PUSH1 0x4 MSTORE PUSH1 0x24 PUSH0 REVERT JUMPDEST PUSH0 PUSH1 0x2 DUP3 DIV SWAP1 POP PUSH1 0x1 DUP3 AND DUP1 PUSH2 0x781 JUMPI PUSH1 0x7F DUP3 AND SWAP2 POP JUMPDEST PUSH1 0x20 DUP3 LT DUP2 SUB PUSH2 0x794 JUMPI PUSH2 0x793 PUSH2 0x73D JUMP JUMPDEST JUMPDEST POP SWAP2 SWAP1 POP JUMP JUMPDEST PUSH32 0x4E487B7100000000000000000000000000000000000000000000000000000000 PUSH0 MSTORE PUSH1 0x32 PUSH1 0x4 MSTORE PUSH1 0x24 PUSH0 REVERT JUMPDEST PUSH32 0x4E487B7100000000000000000000000000000000000000000000000000000000 PUSH0 MSTORE PUSH1 0x11 PUSH1 0x4 MSTORE PUSH1 0x24 PUSH0 REVERT JUMPDEST PUSH0 PUSH2 0x7FE DUP3 PUSH2 0x48C JUMP JUMPDEST SWAP2 POP PUSH32 0xFFFFFFFFFFFFFFFFFFFFFFFFFFFFFFFFFFFFFFFFFFFFFFFFFFFFFFFFFFFFFFFF DUP3 SUB PUSH2 0x830 JUMPI PUSH2 0x82F PUSH2 0x7C7 JUMP JUMPDEST JUMPDEST PUSH1 0x1 DUP3 ADD SWAP1 POP SWAP2 SWAP1 POP JUMP JUMPDEST PUSH0 DUP2 SWAP1 POP DUP2 PUSH0 MSTORE PUSH1 0x20 PUSH0 KECCAK256 SWAP1 POP SWAP2 SWAP1 POP JUMP JUMPDEST PUSH0 PUSH1 0x20 PUSH1 0x1F DUP4 ADD DIV SWAP1 POP SWAP2 SWAP1 POP JUMP JUMPDEST PUSH0 DUP3 DUP3 SHL SWAP1 POP SWAP3 SWAP2 POP POP JUMP JUMPDEST PUSH0 PUSH1 0x8 DUP4 MUL PUSH2 0x897 PUSH32 0xFFFFFFFFFFFFFFFFFFFFFFFFFFFFFFFFFFFFFFFFFFFFFFFFFFFFFFFFFFFFFFFF DUP3 PUSH2 0x85C JUMP JUMPDEST PUSH2 0x8A1 DUP7 DUP4 PUSH2 0x85C JUMP JUMPDEST SWAP6 POP DUP1 NOT DUP5 AND SWAP4 POP DUP1 DUP7 AND DUP5 OR SWAP3 POP POP POP SWAP4 SWAP3 POP POP POP JUMP JUMPDEST PUSH0 DUP2 SWAP1 POP SWAP2 SWAP1 POP JUMP JUMPDEST PUSH0 PUSH2 0x8DC PUSH2 0x8D7 PUSH2 0x8D2 DUP5 PUSH2 0x48C JUMP JUMPDEST PUSH2 0x8B9 JUMP JUMPDEST PUSH2 0x48C JUMP JUMPDEST SWAP1 POP SWAP2 SWAP1 POP JUMP JUMPDEST PUSH0 DUP2 SWAP1 POP SWAP2 SWAP1 POP JUMP JUMPDEST PUSH2 0x8F5 DUP4 PUSH2 0x8C2 JUMP JUMPDEST PUSH2 0x909 PUSH2 0x901 DUP3 PUSH2 0x8E3 JUMP JUMPDEST DUP5 DUP5 SLOAD PUSH2 0x868 JUMP JUMPDEST DUP3 SSTORE POP POP POP POP JUMP JUMPDEST PUSH0 PUSH0 SWAP1 POP SWAP1 JUMP JUMPDEST PUSH2 0x920 PUSH2 0x911 JUMP JUMPDEST PUSH2 0x92B DUP2 DUP5 DUP5 PUSH2 0x8EC JUMP JUMPDEST POP POP POP JUMP JUMPDEST JUMPDEST DUP2 DUP2 LT ISZERO PUSH2 0x94E JUMPI PUSH2 0x943 PUSH0 DUP3 PUSH2 0x918 JUMP JUMPDEST PUSH1 0x1 DUP2 ADD SWAP1 POP PUSH2 0x931 JUMP JUMPDEST POP POP JUMP JUMPDEST PUSH1 0x1F DUP3 GT ISZERO PUSH2 0x993 JUMPI PUSH2 0x964 DUP2 PUSH2 0x83B JUMP JUMPDEST PUSH2 0x96D DUP5 PUSH2 0x84D JUMP JUMPDEST DUP2 ADD PUSH1 0x20 DUP6 LT ISZERO PUSH2 0x97C JUMPI DUP2 SWAP1 POP JUMPDEST PUSH2 0x990 PUSH2 0x988 DUP6 PUSH2 0x84D JUMP JUMPDEST DUP4 ADD DUP3 PUSH2 0x930 JUMP JUMPDEST POP POP JUMPDEST POP POP POP JUMP JUMPDEST PUSH0 DUP3 DUP3 SHR SWAP1 POP SWAP3 SWAP2 POP POP JUMP JUMPDEST PUSH0 PUSH2 0x9B3 PUSH0 NOT DUP5 PUSH1 0x8 MUL PUSH2 0x998 JUMP JUMPDEST NOT DUP1 DUP4 AND SWAP2 POP POP SWAP3 SWAP2 POP POP JUMP JUMPDEST PUSH0 PUSH2 0x9CB DUP4 DUP4 PUSH2 0x9A4 JUMP JUMPDEST SWAP2 POP DUP3 PUSH1 0x2 MUL DUP3 OR SWAP1 POP SWAP3 SWAP2 POP POP JUMP JUMPDEST PUSH2 0x9E4 DUP3 PUSH2 0x4EA JUMP JUMPDEST PUSH8 0xFFFFFFFFFFFFFFFF DUP2 GT ISZERO PUSH2 0x9FD JUMPI PUSH2 0x9FC PUSH2 0x5AA JUMP JUMPDEST JUMPDEST PUSH2 0xA07 DUP3 SLOAD PUSH2 0x76A JUMP JUMPDEST PUSH2 0xA12 DUP3 DUP3 DUP6 PUSH2 0x952 JUMP JUMPDEST PUSH0 PUSH1 0x20 SWAP1 POP PUSH1 0x1F DUP4 GT PUSH1 0x1 DUP2 EQ PUSH2 0xA43 JUMPI PUSH0 DUP5 ISZERO PUSH2 0xA31 JUMPI DUP3 DUP8 ADD MLOAD SWAP1 POP JUMPDEST PUSH2 0xA3B DUP6 DUP3 PUSH2 0x9C0 JUMP JUMPDEST DUP7 SSTORE POP PUSH2 0xAA2 JUMP JUMPDEST PUSH1 0x1F NOT DUP5 AND PUSH2 0xA51 DUP7 PUSH2 0x83B JUMP JUMPDEST PUSH0 JUMPDEST DUP3 DUP2 LT ISZERO PUSH2 0xA78 JUMPI DUP5 DUP10 ADD MLOAD DUP3 SSTORE PUSH1 0x1 DUP3 ADD SWAP2 POP PUSH1 0x20 DUP6 ADD SWAP5 POP PUSH1 0x20 DUP2 ADD SWAP1 POP PUSH2 0xA53 JUMP JUMPDEST DUP7 DUP4 LT ISZERO PUSH2 0xA95 JUMPI DUP5 DUP10 ADD MLOAD PUSH2 0xA91 PUSH1 0x1F DUP10 AND DUP3 PUSH2 0x9A4 JUMP JUMPDEST DUP4 SSTORE POP JUMPDEST PUSH1 0x1 PUSH1 0x2 DUP9 MUL ADD DUP9 SSTORE POP POP POP JUMPDEST POP POP POP POP POP POP JUMP INVALID LOG2 PUSH5 0x6970667358 0x22 SLT KECCAK256 0x28 COINBASE DUP3 EXTCALL 0xB1 DUP14 0xB8 DUP11 MLOAD SWAP12 0x4E 0xC0 JUMP 0xA7 PUSH13 0x183EC5AB2209129C0947D9EC96 0xDA NOT RETURNDATASIZE JUMPDEST PUSH5 0x736F6C6343 STOP ADDMOD 0x1E STOP CALLER "
				},
				"gasEstimates": {
					"creation": {
						"codeDepositCost": "556800",
						"executionCost": "585",
						"totalCost": "557385"
					},
					"external": {
						"addTask(string)": "infinite",
						"getTask(uint256)": "infinite",
						"markDone(uint256)": "26883",
						"taskCount()": "2513",
						"taski(uint256)": "infinite",
						"tasks(uint256)": "infinite"
					}
				},
				"methodIdentifiers": {
					"addTask(string)": "67238562",
					"getTask(uint256)": "1d65e77e",
					"markDone(uint256)": "4ad0e590",
					"taskCount()": "b6cb58a5",
					"taski(uint256)": "0eddaecf",
					"tasks(uint256)": "8d977672"
				}
			},
			"storageLayout": {
				"storage": [
					{
						"astId": 10,
						"contract": "BaseTaskManager.sol:BaseTaskManager",
						"label": "taski",
						"offset": 0,
						"slot": "0",
						"type": "t_array(t_struct(Task)6_storage)dyn_storage"
					},
					{
						"astId": 12,
						"contract": "BaseTaskManager.sol:BaseTaskManager",
						"label": "taskCount",
						"offset": 0,
						"slot": "1",
						"type": "t_uint256"
					},
					{
						"astId": 17,
						"contract": "BaseTaskManager.sol:BaseTaskManager",
						"label": "tasks",
						"offset": 0,
						"slot": "2",
						"type": "t_mapping(t_uint256,t_struct(Task)6_storage)"
					}
				],
				"types": {
					"t_array(t_struct(Task)6_storage)dyn_storage": {
						"base": "t_struct(Task)6_storage",
						"encoding": "dynamic_array",
						"label": "struct BaseTaskManager.Task[]",
						"numberOfBytes": "32"
					},
					"t_bool": {
						"encoding": "inplace",
						"label": "bool",
						"numberOfBytes": "1"
					},
					"t_mapping(t_uint256,t_struct(Task)6_storage)": {
						"encoding": "mapping",
						"key": "t_uint256",
						"label": "mapping(uint256 => struct BaseTaskManager.Task)",
						"numberOfBytes": "32",
						"value": "t_struct(Task)6_storage"
					},
					"t_string_storage": {
						"encoding": "bytes",
						"label": "string",
						"numberOfBytes": "32"
					},
					"t_struct(Task)6_storage": {
						"encoding": "inplace",
						"label": "struct BaseTaskManager.Task",
						"members": [
							{
								"astId": 3,
								"contract": "BaseTaskManager.sol:BaseTaskManager",
								"label": "text",
								"offset": 0,
								"slot": "0",
								"type": "t_string_storage"
							},
							{
								"astId": 5,
								"contract": "BaseTaskManager.sol:BaseTaskManager",
								"label": "done",
								"offset": 0,
								"slot": "1",
								"type": "t_bool"
							}
						],
						"numberOfBytes": "64"
					},
					"t_uint256": {
						"encoding": "inplace",
						"label": "uint256",
						"numberOfBytes": "32"
					}
				}
			},
			"userdoc": {
				"kind": "user",
				"methods": {},
				"version": 1
			}
		}
	}
}