{
	"BaseTaskManager.sol": {
		"BaseTaskManager": {
			"abi": [
				{
					"inputs": [
						{
							"internalType": "string",
							"name": "text",
							"type": "string"
						}
					],
					"name": "addTask",
					"outputs": [],
					"stateMutability": "nonpayable",
					"type": "function"
				},
				{
					"inputs": [
						{
							"internalType": "uint256",
							"name": "index",
							"type": "uint256"
						}
					],
					"name": "getTask",
					"outputs": [
						{
							"internalType": "string",
							"name": "",
							"type": "string"
						},
						{
							"internalType": "bool",
							"name": "",
							"type": "bool"
						}
					],
					"stateMutability": "view",
					"type": "function"
				},
				{
					"inputs": [
						{
							"internalType": "uint256",
							"name": "index",
							"type": "uint256"
						}
					],
					"name": "markDone",
					"outputs": [],
					"stateMutability": "nonpayable",
					"type": "function"
				},
				{
					"inputs": [],
					"name": "taskCount",
					"outputs": [
						{
							"internalType": "uint256",
							"name": "",
							"type": "uint256"
						}
					],
					"stateMutability": "view",
					"type": "function"
				},
				{
					"inputs": [
						{
							"internalType": "uint256",
							"name": "",
							"type": "uint256"
						}
					],
					"name": "taski",
					"outputs": [
						{
							"internalType": "string",
							"name": "text",
							"type": "string"
						},
						{
							"internalType": "bool",
							"name": "done",
							"type": "bool"
						}
					],
					"stateMutability": "view",
					"type": "function"
				},
				{
					"inputs": [
						{
							"internalType": "uint256",
							"name": "",
							"type": "uint256"
						}
					],
					"name": "tasks",
					"outputs": [
						{
							"internalType": "string",
							"name": "text",
							"type": "string"
						},
						{
							"internalType": "bool",
							"name": "done",
							"type": "bool"
						}
					],
					"stateMutability": "view",
					"type": "function"
				}
			],
			"devdoc": {
				"kind": "dev",
				"methods": {},
				"version": 1
			},
			"evm": {
				"assembly": "    /* \"BaseTaskManager.sol\":61:796  contract BaseTaskManager {... */\n  mstore(0x40, 0x80)\n  callvalue\n  dup1\n  iszero\n  tag_1\n  jumpi\n  revert(0x00, 0x00)\ntag_1:\n  pop\n  dataSize(sub_0)\n  dup1\n  dataOffset(sub_0)\n  0x00\n  codecopy\n  0x00\n  return\nstop\n\nsub_0: assembly {\n        /* \"BaseTaskManager.sol\":61:796  contract BaseTaskManager {... */\n      mstore(0x40, 0x80)\n      callvalue\n      dup1\n      iszero\n      tag_1\n      jumpi\n      revert(0x00, 0x00)\n    tag_1:\n      pop\n      jumpi(tag_2, lt(calldatasize, 0x04))\n      shr(0xe0, calldataload(0x00))\n      dup1\n      0x0eddaecf\n      eq\n      tag_3\n      jumpi\n      dup1\n      0x1d65e77e\n      eq\n      tag_4\n      jumpi\n      dup1\n      0x4ad0e590\n      eq\n      tag_5\n      jumpi\n      dup1\n      0x67238562\n      eq\n      tag_6\n      jumpi\n      dup1\n      0x8d977672\n      eq\n      tag_7\n      jumpi\n      dup1\n      0xb6cb58a5\n      eq\n      tag_8\n      jumpi\n    tag_2:\n      revert(0x00, 0x00)\n        /* \"BaseTaskManager.sol\":163:182  Task[] public taski */\n    tag_3:\n      tag_9\n      0x04\n      dup1\n      calldatasize\n      sub\n      dup2\n      add\n      swap1\n      tag_10\n      swap2\n      swap1\n      tag_11\n      jump\t// in\n    tag_10:\n      tag_12\n      jump\t// in\n    tag_9:\n      mload(0x40)\n      tag_13\n      swap3\n      swap2\n      swap1\n      tag_14\n      jump\t// in\n    tag_13:\n      mload(0x40)\n      dup1\n      swap2\n      sub\n      swap1\n      return\n        /* \"BaseTaskManager.sol\":465:634  function getTask(uint index) public view virtual returns (string memory, bool) {... */\n    tag_4:\n      tag_15\n      0x04\n      dup1\n      calldatasize\n      sub\n      dup2\n      add\n      swap1\n      tag_16\n      swap2\n      swap1\n      tag_11\n      jump\t// in\n    tag_16:\n      tag_17\n      jump\t// in\n    tag_15:\n      mload(0x40)\n      tag_18\n      swap3\n      swap2\n      swap1\n      tag_14\n      jump\t// in\n    tag_18:\n      mload(0x40)\n      dup1\n      swap2\n      sub\n      swap1\n      return\n        /* \"BaseTaskManager.sol\":642:793  function markDone(uint index) public virtual {... */\n    tag_5:\n      tag_19\n      0x04\n      dup1\n      calldatasize\n      sub\n      dup2\n      add\n      swap1\n      tag_20\n      swap2\n      swap1\n      tag_11\n      jump\t// in\n    tag_20:\n      tag_21\n      jump\t// in\n    tag_19:\n      stop\n        /* \"BaseTaskManager.sol\":264:457  function addTask(string memory text) public virtual {... */\n    tag_6:\n      tag_22\n      0x04\n      dup1\n      calldatasize\n      sub\n      dup2\n      add\n      swap1\n      tag_23\n      swap2\n      swap1\n      tag_24\n      jump\t// in\n    tag_23:\n      tag_25\n      jump\t// in\n    tag_22:\n      stop\n        /* \"BaseTaskManager.sol\":220:255  mapping (uint => Task) public tasks */\n    tag_7:\n      tag_26\n      0x04\n      dup1\n      calldatasize\n      sub\n      dup2\n      add\n      swap1\n      tag_27\n      swap2\n      swap1\n      tag_11\n      jump\t// in\n    tag_27:\n      tag_28\n      jump\t// in\n    tag_26:\n      mload(0x40)\n      tag_29\n      swap3\n      swap2\n      swap1\n      tag_14\n      jump\t// in\n    tag_29:\n      mload(0x40)\n      dup1\n      swap2\n      sub\n      swap1\n      return\n        /* \"BaseTaskManager.sol\":192:213  uint public taskCount */\n    tag_8:\n      tag_30\n      tag_31\n      jump\t// in\n    tag_30:\n      mload(0x40)\n      tag_32\n      swap2\n      swap1\n      tag_33\n      jump\t// in\n    tag_32:\n      mload(0x40)\n      dup1\n      swap2\n      sub\n      swap1\n      return\n        /* \"BaseTaskManager.sol\":163:182  Task[] public taski */\n    tag_12:\n      0x00\n      dup2\n      dup2\n      sload\n      dup2\n      lt\n      tag_34\n      jumpi\n      0x00\n      dup1\n      revert\n    tag_34:\n      swap1\n      0x00\n      mstore\n      keccak256(0x00, 0x20)\n      swap1\n      0x02\n      mul\n      add\n      0x00\n      swap2\n      pop\n      swap1\n      pop\n      dup1\n      0x00\n      add\n      dup1\n      sload\n      tag_36\n      swap1\n      tag_37\n      jump\t// in\n    tag_36:\n      dup1\n      0x1f\n      add\n      0x20\n      dup1\n      swap2\n      div\n      mul\n      0x20\n      add\n      mload(0x40)\n      swap1\n      dup2\n      add\n      0x40\n      mstore\n      dup1\n      swap3\n      swap2\n      swap1\n      dup2\n      dup2\n      mstore\n      0x20\n      add\n      dup3\n      dup1\n      sload\n      tag_38\n      swap1\n      tag_37\n      jump\t// in\n    tag_38:\n      dup1\n      iszero\n      tag_39\n      jumpi\n      dup1\n      0x1f\n      lt\n      tag_40\n      jumpi\n      0x0100\n      dup1\n      dup4\n      sload\n      div\n      mul\n      dup4\n      mstore\n      swap2\n      0x20\n      add\n      swap2\n      jump(tag_39)\n    tag_40:\n      dup3\n      add\n      swap2\n      swap1\n      0x00\n      mstore\n      keccak256(0x00, 0x20)\n      swap1\n    tag_41:\n      dup2\n      sload\n      dup2\n      mstore\n      swap1\n      0x01\n      add\n      swap1\n      0x20\n      add\n      dup1\n      dup4\n      gt\n      tag_41\n      jumpi\n      dup3\n      swap1\n      sub\n      0x1f\n      and\n      dup3\n      add\n      swap2\n    tag_39:\n      pop\n      pop\n      pop\n      pop\n      pop\n      swap1\n      dup1\n      0x01\n      add\n      0x00\n      swap1\n      sload\n      swap1\n      0x0100\n      exp\n      swap1\n      div\n      0xff\n      and\n      swap1\n      pop\n      dup3\n      jump\t// out\n        /* \"BaseTaskManager.sol\":465:634  function getTask(uint index) public view virtual returns (string memory, bool) {... */\n    tag_17:\n        /* \"BaseTaskManager.sol\":523:536  string memory */\n      0x60\n        /* \"BaseTaskManager.sol\":538:542  bool */\n      0x00\n        /* \"BaseTaskManager.sol\":555:571  Task memory task */\n      0x00\n        /* \"BaseTaskManager.sol\":574:579  tasks */\n      0x02\n        /* \"BaseTaskManager.sol\":574:586  tasks[index] */\n      0x00\n        /* \"BaseTaskManager.sol\":580:585  index */\n      dup6\n        /* \"BaseTaskManager.sol\":574:586  tasks[index] */\n      dup2\n      mstore\n      0x20\n      add\n      swap1\n      dup2\n      mstore\n      0x20\n      add\n      0x00\n      keccak256\n        /* \"BaseTaskManager.sol\":555:586  Task memory task = tasks[index] */\n      mload(0x40)\n      dup1\n      0x40\n      add\n      0x40\n      mstore\n      swap1\n      dup2\n      0x00\n      dup3\n      add\n      dup1\n      sload\n      tag_43\n      swap1\n      tag_37\n      jump\t// in\n    tag_43:\n      dup1\n      0x1f\n      add\n      0x20\n      dup1\n      swap2\n      div\n      mul\n      0x20\n      add\n      mload(0x40)\n      swap1\n      dup2\n      add\n      0x40\n      mstore\n      dup1\n      swap3\n      swap2\n      swap1\n      dup2\n      dup2\n      mstore\n      0x20\n      add\n      dup3\n      dup1\n      sload\n      tag_44\n      swap1\n      tag_37\n      jump\t// in\n    tag_44:\n      dup1\n      iszero\n      tag_45\n      jumpi\n      dup1\n      0x1f\n      lt\n      tag_46\n      jumpi\n      0x0100\n      dup1\n      dup4\n      sload\n      div\n      mul\n      dup4\n      mstore\n      swap2\n      0x20\n      add\n      swap2\n      jump(tag_45)\n    tag_46:\n      dup3\n      add\n      swap2\n      swap1\n      0x00\n      mstore\n      keccak256(0x00, 0x20)\n      swap1\n    tag_47:\n      dup2\n      sload\n      dup2\n      mstore\n      swap1\n      0x01\n      add\n      swap1\n      0x20\n      add\n      dup1\n      dup4\n      gt\n      tag_47\n      jumpi\n      dup3\n      swap1\n      sub\n      0x1f\n      and\n      dup3\n      add\n      swap2\n    tag_45:\n      pop\n      pop\n      pop\n      pop\n      pop\n      dup2\n      mstore\n      0x20\n      add\n      0x01\n      dup3\n      add\n      0x00\n      swap1\n      sload\n      swap1\n      0x0100\n      exp\n      swap1\n      div\n      0xff\n      and\n      iszero\n      iszero\n      iszero\n      iszero\n      dup2\n      mstore\n      pop\n      pop\n      swap1\n      pop\n        /* \"BaseTaskManager.sol\":605:609  task */\n      dup1\n        /* \"BaseTaskManager.sol\":605:614  task.text */\n      0x00\n      add\n      mload\n        /* \"BaseTaskManager.sol\":616:620  task */\n      dup2\n        /* \"BaseTaskManager.sol\":616:625  task.done */\n      0x20\n      add\n      mload\n        /* \"BaseTaskManager.sol\":597:626  return (task.text, task.done) */\n      swap3\n      pop\n      swap3\n      pop\n      pop\n        /* \"BaseTaskManager.sol\":465:634  function getTask(uint index) public view virtual returns (string memory, bool) {... */\n      swap2\n      pop\n      swap2\n      jump\t// out\n        /* \"BaseTaskManager.sol\":642:793  function markDone(uint index) public virtual {... */\n    tag_21:\n        /* \"BaseTaskManager.sol\":719:724  tasks */\n      0x02\n        /* \"BaseTaskManager.sol\":719:731  tasks[index] */\n      0x00\n        /* \"BaseTaskManager.sol\":725:730  index */\n      dup3\n        /* \"BaseTaskManager.sol\":719:731  tasks[index] */\n      dup2\n      mstore\n      0x20\n      add\n      swap1\n      dup2\n      mstore\n      0x20\n      add\n      0x00\n      keccak256\n        /* \"BaseTaskManager.sol\":719:736  tasks[index].done */\n      0x01\n      add\n      0x00\n      swap1\n      sload\n      swap1\n      0x0100\n      exp\n      swap1\n      div\n      0xff\n      and\n        /* \"BaseTaskManager.sol\":718:736  !tasks[index].done */\n      iszero\n        /* \"BaseTaskManager.sol\":698:703  taski */\n      0x00\n        /* \"BaseTaskManager.sol\":704:709  index */\n      dup3\n        /* \"BaseTaskManager.sol\":698:710  taski[index] */\n      dup2\n      sload\n      dup2\n      lt\n      tag_49\n      jumpi\n      tag_50\n      tag_51\n      jump\t// in\n    tag_50:\n    tag_49:\n      swap1\n      0x00\n      mstore\n      keccak256(0x00, 0x20)\n      swap1\n      0x02\n      mul\n      add\n        /* \"BaseTaskManager.sol\":698:715  taski[index].done */\n      0x01\n      add\n      0x00\n        /* \"BaseTaskManager.sol\":698:736  taski[index].done = !tasks[index].done */\n      0x0100\n      exp\n      dup2\n      sload\n      dup2\n      0xff\n      mul\n      not\n      and\n      swap1\n      dup4\n      iszero\n      iszero\n      mul\n      or\n      swap1\n      sstore\n      pop\n        /* \"BaseTaskManager.sol\":768:773  tasks */\n      0x02\n        /* \"BaseTaskManager.sol\":768:780  tasks[index] */\n      0x00\n        /* \"BaseTaskManager.sol\":774:779  index */\n      dup3\n        /* \"BaseTaskManager.sol\":768:780  tasks[index] */\n      dup2\n      mstore\n      0x20\n      add\n      swap1\n      dup2\n      mstore\n      0x20\n      add\n      0x00\n      keccak256\n        /* \"BaseTaskManager.sol\":768:785  tasks[index].done */\n      0x01\n      add\n      0x00\n      swap1\n      sload\n      swap1\n      0x0100\n      exp\n      swap1\n      div\n      0xff\n      and\n        /* \"BaseTaskManager.sol\":767:785  !tasks[index].done */\n      iszero\n        /* \"BaseTaskManager.sol\":747:752  tasks */\n      0x02\n        /* \"BaseTaskManager.sol\":747:759  tasks[index] */\n      0x00\n        /* \"BaseTaskManager.sol\":753:758  index */\n      dup4\n        /* \"BaseTaskManager.sol\":747:759  tasks[index] */\n      dup2\n      mstore\n      0x20\n      add\n      swap1\n      dup2\n      mstore\n      0x20\n      add\n      0x00\n      keccak256\n        /* \"BaseTaskManager.sol\":747:764  tasks[index].done */\n      0x01\n      add\n      0x00\n        /* \"BaseTaskManager.sol\":747:785  tasks[index].done = !tasks[index].done */\n      0x0100\n      exp\n      dup2\n      sload\n      dup2\n      0xff\n      mul\n      not\n      and\n      swap1\n      dup4\n      iszero\n      iszero\n      mul\n      or\n      swap1\n      sstore\n      pop\n        /* \"BaseTaskManager.sol\":642:793  function markDone(uint index) public virtual {... */\n      pop\n      jump\t// out\n        /* \"BaseTaskManager.sol\":264:457  function addTask(string memory text) public virtual {... */\n    tag_25:\n        /* \"BaseTaskManager.sol\":327:334  uint id */\n      0x00\n        /* \"BaseTaskManager.sol\":337:346  taskCount */\n      0x01\n      0x00\n        /* \"BaseTaskManager.sol\":337:348  taskCount++ */\n      dup2\n      sload\n      dup1\n      swap3\n      swap2\n      swap1\n      tag_54\n      swap1\n      tag_55\n      jump\t// in\n    tag_54:\n      swap2\n      swap1\n      pop\n      sstore\n        /* \"BaseTaskManager.sol\":327:348  uint id = taskCount++ */\n      swap1\n      pop\n        /* \"BaseTaskManager.sol\":359:373  Task storage t */\n      0x00\n        /* \"BaseTaskManager.sol\":376:381  tasks */\n      0x02\n        /* \"BaseTaskManager.sol\":376:385  tasks[id] */\n      0x00\n        /* \"BaseTaskManager.sol\":382:384  id */\n      dup4\n        /* \"BaseTaskManager.sol\":376:385  tasks[id] */\n      dup2\n      mstore\n      0x20\n      add\n      swap1\n      dup2\n      mstore\n      0x20\n      add\n      0x00\n      keccak256\n        /* \"BaseTaskManager.sol\":359:385  Task storage t = tasks[id] */\n      swap1\n      pop\n        /* \"BaseTaskManager.sol\":405:409  text */\n      dup3\n        /* \"BaseTaskManager.sol\":396:397  t */\n      dup2\n        /* \"BaseTaskManager.sol\":396:402  t.text */\n      0x00\n      add\n        /* \"BaseTaskManager.sol\":396:409  t.text = text */\n      swap1\n      dup2\n      tag_56\n      swap2\n      swap1\n      tag_57\n      jump\t// in\n    tag_56:\n      pop\n        /* \"BaseTaskManager.sol\":420:425  taski */\n      0x00\n        /* \"BaseTaskManager.sol\":431:448  Task(text, false) */\n      mload(0x40)\n      dup1\n      0x40\n      add\n      0x40\n      mstore\n      dup1\n        /* \"BaseTaskManager.sol\":436:440  text */\n      dup6\n        /* \"BaseTaskManager.sol\":431:448  Task(text, false) */\n      dup2\n      mstore\n      0x20\n      add\n        /* \"BaseTaskManager.sol\":442:447  false */\n      0x00\n        /* \"BaseTaskManager.sol\":431:448  Task(text, false) */\n      iszero\n      iszero\n      dup2\n      mstore\n      pop\n        /* \"BaseTaskManager.sol\":420:449  taski.push(Task(text, false)) */\n      swap1\n      dup1\n      0x01\n      dup2\n      sload\n      add\n      dup1\n      dup3\n      sstore\n      dup1\n      swap2\n      pop\n      pop\n      0x01\n      swap1\n      sub\n      swap1\n      0x00\n      mstore\n      keccak256(0x00, 0x20)\n      swap1\n      0x02\n      mul\n      add\n      0x00\n      swap1\n      swap2\n      swap1\n      swap2\n      swap1\n      swap2\n      pop\n      0x00\n      dup3\n      add\n      mload\n      dup2\n      0x00\n      add\n      swap1\n      dup2\n      tag_59\n      swap2\n      swap1\n      tag_57\n      jump\t// in\n    tag_59:\n      pop\n      0x20\n      dup3\n      add\n      mload\n      dup2\n      0x01\n      add\n      exp(0x0100, 0x00)\n      dup2\n      sload\n      dup2\n      0xff\n      mul\n      not\n      and\n      swap1\n      dup4\n      iszero\n      iszero\n      mul\n      or\n      swap1\n      sstore\n      pop\n      pop\n      pop\n        /* \"BaseTaskManager.sol\":316:457  {... */\n      pop\n      pop\n        /* \"BaseTaskManager.sol\":264:457  function addTask(string memory text) public virtual {... */\n      pop\n      jump\t// out\n        /* \"BaseTaskManager.sol\":220:255  mapping (uint => Task) public tasks */\n    tag_28:\n      mstore(0x20, 0x02)\n      dup1\n      0x00\n      mstore\n      keccak256(0x00, 0x40)\n      0x00\n      swap2\n      pop\n      swap1\n      pop\n      dup1\n      0x00\n      add\n      dup1\n      sload\n      tag_60\n      swap1\n      tag_37\n      jump\t// in\n    tag_60:\n      dup1\n      0x1f\n      add\n      0x20\n      dup1\n      swap2\n      div\n      mul\n      0x20\n      add\n      mload(0x40)\n      swap1\n      dup2\n      add\n      0x40\n      mstore\n      dup1\n      swap3\n      swap2\n      swap1\n      dup2\n      dup2\n      mstore\n      0x20\n      add\n      dup3\n      dup1\n      sload\n      tag_61\n      swap1\n      tag_37\n      jump\t// in\n    tag_61:\n      dup1\n      iszero\n      tag_62\n      jumpi\n      dup1\n      0x1f\n      lt\n      tag_63\n      jumpi\n      0x0100\n      dup1\n      dup4\n      sload\n      div\n      mul\n      dup4\n      mstore\n      swap2\n      0x20\n      add\n      swap2\n      jump(tag_62)\n    tag_63:\n      dup3\n      add\n      swap2\n      swap1\n      0x00\n      mstore\n      keccak256(0x00, 0x20)\n      swap1\n    tag_64:\n      dup2\n      sload\n      dup2\n      mstore\n      swap1\n      0x01\n      add\n      swap1\n      0x20\n      add\n      dup1\n      dup4\n      gt\n      tag_64\n      jumpi\n      dup3\n      swap1\n      sub\n      0x1f\n      and\n      dup3\n      add\n      swap2\n    tag_62:\n      pop\n      pop\n      pop\n      pop\n      pop\n      swap1\n      dup1\n      0x01\n      add\n      0x00\n      swap1\n      sload\n      swap1\n      0x0100\n      exp\n      swap1\n      div\n      0xff\n      and\n      swap1\n      pop\n      dup3\n      jump\t// out\n        /* \"BaseTaskManager.sol\":192:213  uint public taskCount */\n    tag_31:\n      sload(0x01)\n      dup2\n      jump\t// out\n        /* \"#utility.yul\":7:82   */\n    tag_65:\n        /* \"#utility.yul\":40:46   */\n      0x00\n        /* \"#utility.yul\":73:75   */\n      0x40\n        /* \"#utility.yul\":67:76   */\n      mload\n        /* \"#utility.yul\":57:76   */\n      swap1\n      pop\n        /* \"#utility.yul\":7:82   */\n      swap1\n      jump\t// out\n        /* \"#utility.yul\":88:205   */\n    tag_66:\n        /* \"#utility.yul\":197:198   */\n      0x00\n        /* \"#utility.yul\":194:195   */\n      0x00\n        /* \"#utility.yul\":187:199   */\n      revert\n        /* \"#utility.yul\":211:328   */\n    tag_67:\n        /* \"#utility.yul\":320:321   */\n      0x00\n        /* \"#utility.yul\":317:318   */\n      0x00\n        /* \"#utility.yul\":310:322   */\n      revert\n        /* \"#utility.yul\":334:411   */\n    tag_68:\n        /* \"#utility.yul\":371:378   */\n      0x00\n        /* \"#utility.yul\":400:405   */\n      dup2\n        /* \"#utility.yul\":389:405   */\n      swap1\n      pop\n        /* \"#utility.yul\":334:411   */\n      swap2\n      swap1\n      pop\n      jump\t// out\n        /* \"#utility.yul\":417:539   */\n    tag_69:\n        /* \"#utility.yul\":490:514   */\n      tag_111\n        /* \"#utility.yul\":508:513   */\n      dup2\n        /* \"#utility.yul\":490:514   */\n      tag_68\n      jump\t// in\n    tag_111:\n        /* \"#utility.yul\":483:488   */\n      dup2\n        /* \"#utility.yul\":480:515   */\n      eq\n        /* \"#utility.yul\":470:533   */\n      tag_112\n      jumpi\n        /* \"#utility.yul\":529:530   */\n      0x00\n        /* \"#utility.yul\":526:527   */\n      0x00\n        /* \"#utility.yul\":519:531   */\n      revert\n        /* \"#utility.yul\":470:533   */\n    tag_112:\n        /* \"#utility.yul\":417:539   */\n      pop\n      jump\t// out\n        /* \"#utility.yul\":545:684   */\n    tag_70:\n        /* \"#utility.yul\":591:596   */\n      0x00\n        /* \"#utility.yul\":629:635   */\n      dup2\n        /* \"#utility.yul\":616:636   */\n      calldataload\n        /* \"#utility.yul\":607:636   */\n      swap1\n      pop\n        /* \"#utility.yul\":645:678   */\n      tag_114\n        /* \"#utility.yul\":672:677   */\n      dup2\n        /* \"#utility.yul\":645:678   */\n      tag_69\n      jump\t// in\n    tag_114:\n        /* \"#utility.yul\":545:684   */\n      swap3\n      swap2\n      pop\n      pop\n      jump\t// out\n        /* \"#utility.yul\":690:1019   */\n    tag_11:\n        /* \"#utility.yul\":749:755   */\n      0x00\n        /* \"#utility.yul\":798:800   */\n      0x20\n        /* \"#utility.yul\":786:795   */\n      dup3\n        /* \"#utility.yul\":777:784   */\n      dup5\n        /* \"#utility.yul\":773:796   */\n      sub\n        /* \"#utility.yul\":769:801   */\n      slt\n        /* \"#utility.yul\":766:885   */\n      iszero\n      tag_116\n      jumpi\n        /* \"#utility.yul\":804:883   */\n      tag_117\n      tag_66\n      jump\t// in\n    tag_117:\n        /* \"#utility.yul\":766:885   */\n    tag_116:\n        /* \"#utility.yul\":924:925   */\n      0x00\n        /* \"#utility.yul\":949:1002   */\n      tag_118\n        /* \"#utility.yul\":994:1001   */\n      dup5\n        /* \"#utility.yul\":985:991   */\n      dup3\n        /* \"#utility.yul\":974:983   */\n      dup6\n        /* \"#utility.yul\":970:992   */\n      add\n        /* \"#utility.yul\":949:1002   */\n      tag_70\n      jump\t// in\n    tag_118:\n        /* \"#utility.yul\":939:1002   */\n      swap2\n      pop\n        /* \"#utility.yul\":895:1012   */\n      pop\n        /* \"#utility.yul\":690:1019   */\n      swap3\n      swap2\n      pop\n      pop\n      jump\t// out\n        /* \"#utility.yul\":1025:1124   */\n    tag_71:\n        /* \"#utility.yul\":1077:1083   */\n      0x00\n        /* \"#utility.yul\":1111:1116   */\n      dup2\n        /* \"#utility.yul\":1105:1117   */\n      mload\n        /* \"#utility.yul\":1095:1117   */\n      swap1\n      pop\n        /* \"#utility.yul\":1025:1124   */\n      swap2\n      swap1\n      pop\n      jump\t// out\n        /* \"#utility.yul\":1130:1299   */\n    tag_72:\n        /* \"#utility.yul\":1214:1225   */\n      0x00\n        /* \"#utility.yul\":1248:1254   */\n      dup3\n        /* \"#utility.yul\":1243:1246   */\n      dup3\n        /* \"#utility.yul\":1236:1255   */\n      mstore\n        /* \"#utility.yul\":1288:1292   */\n      0x20\n        /* \"#utility.yul\":1283:1286   */\n      dup3\n        /* \"#utility.yul\":1279:1293   */\n      add\n        /* \"#utility.yul\":1264:1293   */\n      swap1\n      pop\n        /* \"#utility.yul\":1130:1299   */\n      swap3\n      swap2\n      pop\n      pop\n      jump\t// out\n        /* \"#utility.yul\":1305:1444   */\n    tag_73:\n        /* \"#utility.yul\":1394:1400   */\n      dup3\n        /* \"#utility.yul\":1389:1392   */\n      dup2\n        /* \"#utility.yul\":1384:1387   */\n      dup4\n        /* \"#utility.yul\":1378:1401   */\n      mcopy\n        /* \"#utility.yul\":1435:1436   */\n      0x00\n        /* \"#utility.yul\":1426:1432   */\n      dup4\n        /* \"#utility.yul\":1421:1424   */\n      dup4\n        /* \"#utility.yul\":1417:1433   */\n      add\n        /* \"#utility.yul\":1410:1437   */\n      mstore\n        /* \"#utility.yul\":1305:1444   */\n      pop\n      pop\n      pop\n      jump\t// out\n        /* \"#utility.yul\":1450:1552   */\n    tag_74:\n        /* \"#utility.yul\":1491:1497   */\n      0x00\n        /* \"#utility.yul\":1542:1544   */\n      0x1f\n        /* \"#utility.yul\":1538:1545   */\n      not\n        /* \"#utility.yul\":1533:1535   */\n      0x1f\n        /* \"#utility.yul\":1526:1531   */\n      dup4\n        /* \"#utility.yul\":1522:1536   */\n      add\n        /* \"#utility.yul\":1518:1546   */\n      and\n        /* \"#utility.yul\":1508:1546   */\n      swap1\n      pop\n        /* \"#utility.yul\":1450:1552   */\n      swap2\n      swap1\n      pop\n      jump\t// out\n        /* \"#utility.yul\":1558:1935   */\n    tag_75:\n        /* \"#utility.yul\":1646:1649   */\n      0x00\n        /* \"#utility.yul\":1674:1713   */\n      tag_124\n        /* \"#utility.yul\":1707:1712   */\n      dup3\n        /* \"#utility.yul\":1674:1713   */\n      tag_71\n      jump\t// in\n    tag_124:\n        /* \"#utility.yul\":1729:1800   */\n      tag_125\n        /* \"#utility.yul\":1793:1799   */\n      dup2\n        /* \"#utility.yul\":1788:1791   */\n      dup6\n        /* \"#utility.yul\":1729:1800   */\n      tag_72\n      jump\t// in\n    tag_125:\n        /* \"#utility.yul\":1722:1800   */\n      swap4\n      pop\n        /* \"#utility.yul\":1809:1874   */\n      tag_126\n        /* \"#utility.yul\":1867:1873   */\n      dup2\n        /* \"#utility.yul\":1862:1865   */\n      dup6\n        /* \"#utility.yul\":1855:1859   */\n      0x20\n        /* \"#utility.yul\":1848:1853   */\n      dup7\n        /* \"#utility.yul\":1844:1860   */\n      add\n        /* \"#utility.yul\":1809:1874   */\n      tag_73\n      jump\t// in\n    tag_126:\n        /* \"#utility.yul\":1899:1928   */\n      tag_127\n        /* \"#utility.yul\":1921:1927   */\n      dup2\n        /* \"#utility.yul\":1899:1928   */\n      tag_74\n      jump\t// in\n    tag_127:\n        /* \"#utility.yul\":1894:1897   */\n      dup5\n        /* \"#utility.yul\":1890:1929   */\n      add\n        /* \"#utility.yul\":1883:1929   */\n      swap2\n      pop\n        /* \"#utility.yul\":1650:1935   */\n      pop\n        /* \"#utility.yul\":1558:1935   */\n      swap3\n      swap2\n      pop\n      pop\n      jump\t// out\n        /* \"#utility.yul\":1941:2031   */\n    tag_76:\n        /* \"#utility.yul\":1975:1982   */\n      0x00\n        /* \"#utility.yul\":2018:2023   */\n      dup2\n        /* \"#utility.yul\":2011:2024   */\n      iszero\n        /* \"#utility.yul\":2004:2025   */\n      iszero\n        /* \"#utility.yul\":1993:2025   */\n      swap1\n      pop\n        /* \"#utility.yul\":1941:2031   */\n      swap2\n      swap1\n      pop\n      jump\t// out\n        /* \"#utility.yul\":2037:2146   */\n    tag_77:\n        /* \"#utility.yul\":2118:2139   */\n      tag_130\n        /* \"#utility.yul\":2133:2138   */\n      dup2\n        /* \"#utility.yul\":2118:2139   */\n      tag_76\n      jump\t// in\n    tag_130:\n        /* \"#utility.yul\":2113:2116   */\n      dup3\n        /* \"#utility.yul\":2106:2140   */\n      mstore\n        /* \"#utility.yul\":2037:2146   */\n      pop\n      pop\n      jump\t// out\n        /* \"#utility.yul\":2152:2563   */\n    tag_14:\n        /* \"#utility.yul\":2287:2291   */\n      0x00\n        /* \"#utility.yul\":2325:2327   */\n      0x40\n        /* \"#utility.yul\":2314:2323   */\n      dup3\n        /* \"#utility.yul\":2310:2328   */\n      add\n        /* \"#utility.yul\":2302:2328   */\n      swap1\n      pop\n        /* \"#utility.yul\":2374:2383   */\n      dup2\n        /* \"#utility.yul\":2368:2372   */\n      dup2\n        /* \"#utility.yul\":2364:2384   */\n      sub\n        /* \"#utility.yul\":2360:2361   */\n      0x00\n        /* \"#utility.yul\":2349:2358   */\n      dup4\n        /* \"#utility.yul\":2345:2362   */\n      add\n        /* \"#utility.yul\":2338:2385   */\n      mstore\n        /* \"#utility.yul\":2402:2480   */\n      tag_132\n        /* \"#utility.yul\":2475:2479   */\n      dup2\n        /* \"#utility.yul\":2466:2472   */\n      dup6\n        /* \"#utility.yul\":2402:2480   */\n      tag_75\n      jump\t// in\n    tag_132:\n        /* \"#utility.yul\":2394:2480   */\n      swap1\n      pop\n        /* \"#utility.yul\":2490:2556   */\n      tag_133\n        /* \"#utility.yul\":2552:2554   */\n      0x20\n        /* \"#utility.yul\":2541:2550   */\n      dup4\n        /* \"#utility.yul\":2537:2555   */\n      add\n        /* \"#utility.yul\":2528:2534   */\n      dup5\n        /* \"#utility.yul\":2490:2556   */\n      tag_77\n      jump\t// in\n    tag_133:\n        /* \"#utility.yul\":2152:2563   */\n      swap4\n      swap3\n      pop\n      pop\n      pop\n      jump\t// out\n        /* \"#utility.yul\":2569:2686   */\n    tag_78:\n        /* \"#utility.yul\":2678:2679   */\n      0x00\n        /* \"#utility.yul\":2675:2676   */\n      0x00\n        /* \"#utility.yul\":2668:2680   */\n      revert\n        /* \"#utility.yul\":2692:2809   */\n    tag_79:\n        /* \"#utility.yul\":2801:2802   */\n      0x00\n        /* \"#utility.yul\":2798:2799   */\n      0x00\n        /* \"#utility.yul\":2791:2803   */\n      revert\n        /* \"#utility.yul\":2815:2995   */\n    tag_80:\n        /* \"#utility.yul\":2863:2940   */\n      0x4e487b7100000000000000000000000000000000000000000000000000000000\n        /* \"#utility.yul\":2860:2861   */\n      0x00\n        /* \"#utility.yul\":2853:2941   */\n      mstore\n        /* \"#utility.yul\":2960:2964   */\n      0x41\n        /* \"#utility.yul\":2957:2958   */\n      0x04\n        /* \"#utility.yul\":2950:2965   */\n      mstore\n        /* \"#utility.yul\":2984:2988   */\n      0x24\n        /* \"#utility.yul\":2981:2982   */\n      0x00\n        /* \"#utility.yul\":2974:2989   */\n      revert\n        /* \"#utility.yul\":3001:3282   */\n    tag_81:\n        /* \"#utility.yul\":3084:3111   */\n      tag_138\n        /* \"#utility.yul\":3106:3110   */\n      dup3\n        /* \"#utility.yul\":3084:3111   */\n      tag_74\n      jump\t// in\n    tag_138:\n        /* \"#utility.yul\":3076:3082   */\n      dup2\n        /* \"#utility.yul\":3072:3112   */\n      add\n        /* \"#utility.yul\":3214:3220   */\n      dup2\n        /* \"#utility.yul\":3202:3212   */\n      dup2\n        /* \"#utility.yul\":3199:3221   */\n      lt\n        /* \"#utility.yul\":3178:3196   */\n      0xffffffffffffffff\n        /* \"#utility.yul\":3166:3176   */\n      dup3\n        /* \"#utility.yul\":3163:3197   */\n      gt\n        /* \"#utility.yul\":3160:3222   */\n      or\n        /* \"#utility.yul\":3157:3245   */\n      iszero\n      tag_139\n      jumpi\n        /* \"#utility.yul\":3225:3243   */\n      tag_140\n      tag_80\n      jump\t// in\n    tag_140:\n        /* \"#utility.yul\":3157:3245   */\n    tag_139:\n        /* \"#utility.yul\":3265:3275   */\n      dup1\n        /* \"#utility.yul\":3261:3263   */\n      0x40\n        /* \"#utility.yul\":3254:3276   */\n      mstore\n        /* \"#utility.yul\":3044:3282   */\n      pop\n        /* \"#utility.yul\":3001:3282   */\n      pop\n      pop\n      jump\t// out\n        /* \"#utility.yul\":3288:3417   */\n    tag_82:\n        /* \"#utility.yul\":3322:3328   */\n      0x00\n        /* \"#utility.yul\":3349:3369   */\n      tag_142\n      tag_65\n      jump\t// in\n    tag_142:\n        /* \"#utility.yul\":3339:3369   */\n      swap1\n      pop\n        /* \"#utility.yul\":3378:3411   */\n      tag_143\n        /* \"#utility.yul\":3406:3410   */\n      dup3\n        /* \"#utility.yul\":3398:3404   */\n      dup3\n        /* \"#utility.yul\":3378:3411   */\n      tag_81\n      jump\t// in\n    tag_143:\n        /* \"#utility.yul\":3288:3417   */\n      swap2\n      swap1\n      pop\n      jump\t// out\n        /* \"#utility.yul\":3423:3731   */\n    tag_83:\n        /* \"#utility.yul\":3485:3489   */\n      0x00\n        /* \"#utility.yul\":3575:3593   */\n      0xffffffffffffffff\n        /* \"#utility.yul\":3567:3573   */\n      dup3\n        /* \"#utility.yul\":3564:3594   */\n      gt\n        /* \"#utility.yul\":3561:3617   */\n      iszero\n      tag_145\n      jumpi\n        /* \"#utility.yul\":3597:3615   */\n      tag_146\n      tag_80\n      jump\t// in\n    tag_146:\n        /* \"#utility.yul\":3561:3617   */\n    tag_145:\n        /* \"#utility.yul\":3635:3664   */\n      tag_147\n        /* \"#utility.yul\":3657:3663   */\n      dup3\n        /* \"#utility.yul\":3635:3664   */\n      tag_74\n      jump\t// in\n    tag_147:\n        /* \"#utility.yul\":3627:3664   */\n      swap1\n      pop\n        /* \"#utility.yul\":3719:3723   */\n      0x20\n        /* \"#utility.yul\":3713:3717   */\n      dup2\n        /* \"#utility.yul\":3709:3724   */\n      add\n        /* \"#utility.yul\":3701:3724   */\n      swap1\n      pop\n        /* \"#utility.yul\":3423:3731   */\n      swap2\n      swap1\n      pop\n      jump\t// out\n        /* \"#utility.yul\":3737:3885   */\n    tag_84:\n        /* \"#utility.yul\":3835:3841   */\n      dup3\n        /* \"#utility.yul\":3830:3833   */\n      dup2\n        /* \"#utility.yul\":3825:3828   */\n      dup4\n        /* \"#utility.yul\":3812:3842   */\n      calldatacopy\n        /* \"#utility.yul\":3876:3877   */\n      0x00\n        /* \"#utility.yul\":3867:3873   */\n      dup4\n        /* \"#utility.yul\":3862:3865   */\n      dup4\n        /* \"#utility.yul\":3858:3874   */\n      add\n        /* \"#utility.yul\":3851:3878   */\n      mstore\n        /* \"#utility.yul\":3737:3885   */\n      pop\n      pop\n      pop\n      jump\t// out\n        /* \"#utility.yul\":3891:4316   */\n    tag_85:\n        /* \"#utility.yul\":3969:3974   */\n      0x00\n        /* \"#utility.yul\":3994:4060   */\n      tag_150\n        /* \"#utility.yul\":4010:4059   */\n      tag_151\n        /* \"#utility.yul\":4052:4058   */\n      dup5\n        /* \"#utility.yul\":4010:4059   */\n      tag_83\n      jump\t// in\n    tag_151:\n        /* \"#utility.yul\":3994:4060   */\n      tag_82\n      jump\t// in\n    tag_150:\n        /* \"#utility.yul\":3985:4060   */\n      swap1\n      pop\n        /* \"#utility.yul\":4083:4089   */\n      dup3\n        /* \"#utility.yul\":4076:4081   */\n      dup2\n        /* \"#utility.yul\":4069:4090   */\n      mstore\n        /* \"#utility.yul\":4121:4125   */\n      0x20\n        /* \"#utility.yul\":4114:4119   */\n      dup2\n        /* \"#utility.yul\":4110:4126   */\n      add\n        /* \"#utility.yul\":4159:4162   */\n      dup5\n        /* \"#utility.yul\":4150:4156   */\n      dup5\n        /* \"#utility.yul\":4145:4148   */\n      dup5\n        /* \"#utility.yul\":4141:4157   */\n      add\n        /* \"#utility.yul\":4138:4163   */\n      gt\n        /* \"#utility.yul\":4135:4247   */\n      iszero\n      tag_152\n      jumpi\n        /* \"#utility.yul\":4166:4245   */\n      tag_153\n      tag_79\n      jump\t// in\n    tag_153:\n        /* \"#utility.yul\":4135:4247   */\n    tag_152:\n        /* \"#utility.yul\":4256:4310   */\n      tag_154\n        /* \"#utility.yul\":4303:4309   */\n      dup5\n        /* \"#utility.yul\":4298:4301   */\n      dup3\n        /* \"#utility.yul\":4293:4296   */\n      dup6\n        /* \"#utility.yul\":4256:4310   */\n      tag_84\n      jump\t// in\n    tag_154:\n        /* \"#utility.yul\":3975:4316   */\n      pop\n        /* \"#utility.yul\":3891:4316   */\n      swap4\n      swap3\n      pop\n      pop\n      pop\n      jump\t// out\n        /* \"#utility.yul\":4336:4676   */\n    tag_86:\n        /* \"#utility.yul\":4392:4397   */\n      0x00\n        /* \"#utility.yul\":4441:4444   */\n      dup3\n        /* \"#utility.yul\":4434:4438   */\n      0x1f\n        /* \"#utility.yul\":4426:4432   */\n      dup4\n        /* \"#utility.yul\":4422:4439   */\n      add\n        /* \"#utility.yul\":4418:4445   */\n      slt\n        /* \"#utility.yul\":4408:4530   */\n      tag_156\n      jumpi\n        /* \"#utility.yul\":4449:4528   */\n      tag_157\n      tag_78\n      jump\t// in\n    tag_157:\n        /* \"#utility.yul\":4408:4530   */\n    tag_156:\n        /* \"#utility.yul\":4566:4572   */\n      dup2\n        /* \"#utility.yul\":4553:4573   */\n      calldataload\n        /* \"#utility.yul\":4591:4670   */\n      tag_158\n        /* \"#utility.yul\":4666:4669   */\n      dup5\n        /* \"#utility.yul\":4658:4664   */\n      dup3\n        /* \"#utility.yul\":4651:4655   */\n      0x20\n        /* \"#utility.yul\":4643:4649   */\n      dup7\n        /* \"#utility.yul\":4639:4656   */\n      add\n        /* \"#utility.yul\":4591:4670   */\n      tag_85\n      jump\t// in\n    tag_158:\n        /* \"#utility.yul\":4582:4670   */\n      swap2\n      pop\n        /* \"#utility.yul\":4398:4676   */\n      pop\n        /* \"#utility.yul\":4336:4676   */\n      swap3\n      swap2\n      pop\n      pop\n      jump\t// out\n        /* \"#utility.yul\":4682:5191   */\n    tag_24:\n        /* \"#utility.yul\":4751:4757   */\n      0x00\n        /* \"#utility.yul\":4800:4802   */\n      0x20\n        /* \"#utility.yul\":4788:4797   */\n      dup3\n        /* \"#utility.yul\":4779:4786   */\n      dup5\n        /* \"#utility.yul\":4775:4798   */\n      sub\n        /* \"#utility.yul\":4771:4803   */\n      slt\n        /* \"#utility.yul\":4768:4887   */\n      iszero\n      tag_160\n      jumpi\n        /* \"#utility.yul\":4806:4885   */\n      tag_161\n      tag_66\n      jump\t// in\n    tag_161:\n        /* \"#utility.yul\":4768:4887   */\n    tag_160:\n        /* \"#utility.yul\":4954:4955   */\n      0x00\n        /* \"#utility.yul\":4943:4952   */\n      dup3\n        /* \"#utility.yul\":4939:4956   */\n      add\n        /* \"#utility.yul\":4926:4957   */\n      calldataload\n        /* \"#utility.yul\":4984:5002   */\n      0xffffffffffffffff\n        /* \"#utility.yul\":4976:4982   */\n      dup2\n        /* \"#utility.yul\":4973:5003   */\n      gt\n        /* \"#utility.yul\":4970:5087   */\n      iszero\n      tag_162\n      jumpi\n        /* \"#utility.yul\":5006:5085   */\n      tag_163\n      tag_67\n      jump\t// in\n    tag_163:\n        /* \"#utility.yul\":4970:5087   */\n    tag_162:\n        /* \"#utility.yul\":5111:5174   */\n      tag_164\n        /* \"#utility.yul\":5166:5173   */\n      dup5\n        /* \"#utility.yul\":5157:5163   */\n      dup3\n        /* \"#utility.yul\":5146:5155   */\n      dup6\n        /* \"#utility.yul\":5142:5164   */\n      add\n        /* \"#utility.yul\":5111:5174   */\n      tag_86\n      jump\t// in\n    tag_164:\n        /* \"#utility.yul\":5101:5174   */\n      swap2\n      pop\n        /* \"#utility.yul\":4897:5184   */\n      pop\n        /* \"#utility.yul\":4682:5191   */\n      swap3\n      swap2\n      pop\n      pop\n      jump\t// out\n        /* \"#utility.yul\":5197:5315   */\n    tag_87:\n        /* \"#utility.yul\":5284:5308   */\n      tag_166\n        /* \"#utility.yul\":5302:5307   */\n      dup2\n        /* \"#utility.yul\":5284:5308   */\n      tag_68\n      jump\t// in\n    tag_166:\n        /* \"#utility.yul\":5279:5282   */\n      dup3\n        /* \"#utility.yul\":5272:5309   */\n      mstore\n        /* \"#utility.yul\":5197:5315   */\n      pop\n      pop\n      jump\t// out\n        /* \"#utility.yul\":5321:5543   */\n    tag_33:\n        /* \"#utility.yul\":5414:5418   */\n      0x00\n        /* \"#utility.yul\":5452:5454   */\n      0x20\n        /* \"#utility.yul\":5441:5450   */\n      dup3\n        /* \"#utility.yul\":5437:5455   */\n      add\n        /* \"#utility.yul\":5429:5455   */\n      swap1\n      pop\n        /* \"#utility.yul\":5465:5536   */\n      tag_168\n        /* \"#utility.yul\":5533:5534   */\n      0x00\n        /* \"#utility.yul\":5522:5531   */\n      dup4\n        /* \"#utility.yul\":5518:5535   */\n      add\n        /* \"#utility.yul\":5509:5515   */\n      dup5\n        /* \"#utility.yul\":5465:5536   */\n      tag_87\n      jump\t// in\n    tag_168:\n        /* \"#utility.yul\":5321:5543   */\n      swap3\n      swap2\n      pop\n      pop\n      jump\t// out\n        /* \"#utility.yul\":5549:5729   */\n    tag_88:\n        /* \"#utility.yul\":5597:5674   */\n      0x4e487b7100000000000000000000000000000000000000000000000000000000\n        /* \"#utility.yul\":5594:5595   */\n      0x00\n        /* \"#utility.yul\":5587:5675   */\n      mstore\n        /* \"#utility.yul\":5694:5698   */\n      0x22\n        /* \"#utility.yul\":5691:5692   */\n      0x04\n        /* \"#utility.yul\":5684:5699   */\n      mstore\n        /* \"#utility.yul\":5718:5722   */\n      0x24\n        /* \"#utility.yul\":5715:5716   */\n      0x00\n        /* \"#utility.yul\":5708:5723   */\n      revert\n        /* \"#utility.yul\":5735:6055   */\n    tag_37:\n        /* \"#utility.yul\":5779:5785   */\n      0x00\n        /* \"#utility.yul\":5816:5817   */\n      0x02\n        /* \"#utility.yul\":5810:5814   */\n      dup3\n        /* \"#utility.yul\":5806:5818   */\n      div\n        /* \"#utility.yul\":5796:5818   */\n      swap1\n      pop\n        /* \"#utility.yul\":5863:5864   */\n      0x01\n        /* \"#utility.yul\":5857:5861   */\n      dup3\n        /* \"#utility.yul\":5853:5865   */\n      and\n        /* \"#utility.yul\":5884:5902   */\n      dup1\n        /* \"#utility.yul\":5874:5955   */\n      tag_171\n      jumpi\n        /* \"#utility.yul\":5940:5944   */\n      0x7f\n        /* \"#utility.yul\":5932:5938   */\n      dup3\n        /* \"#utility.yul\":5928:5945   */\n      and\n        /* \"#utility.yul\":5918:5945   */\n      swap2\n      pop\n        /* \"#utility.yul\":5874:5955   */\n    tag_171:\n        /* \"#utility.yul\":6002:6004   */\n      0x20\n        /* \"#utility.yul\":5994:6000   */\n      dup3\n        /* \"#utility.yul\":5991:6005   */\n      lt\n        /* \"#utility.yul\":5971:5989   */\n      dup2\n        /* \"#utility.yul\":5968:6006   */\n      sub\n        /* \"#utility.yul\":5965:6049   */\n      tag_172\n      jumpi\n        /* \"#utility.yul\":6021:6039   */\n      tag_173\n      tag_88\n      jump\t// in\n    tag_173:\n        /* \"#utility.yul\":5965:6049   */\n    tag_172:\n        /* \"#utility.yul\":5786:6055   */\n      pop\n        /* \"#utility.yul\":5735:6055   */\n      swap2\n      swap1\n      pop\n      jump\t// out\n        /* \"#utility.yul\":6061:6241   */\n    tag_51:\n        /* \"#utility.yul\":6109:6186   */\n      0x4e487b7100000000000000000000000000000000000000000000000000000000\n        /* \"#utility.yul\":6106:6107   */\n      0x00\n        /* \"#utility.yul\":6099:6187   */\n      mstore\n        /* \"#utility.yul\":6206:6210   */\n      0x32\n        /* \"#utility.yul\":6203:6204   */\n      0x04\n        /* \"#utility.yul\":6196:6211   */\n      mstore\n        /* \"#utility.yul\":6230:6234   */\n      0x24\n        /* \"#utility.yul\":6227:6228   */\n      0x00\n        /* \"#utility.yul\":6220:6235   */\n      revert\n        /* \"#utility.yul\":6247:6427   */\n    tag_89:\n        /* \"#utility.yul\":6295:6372   */\n      0x4e487b7100000000000000000000000000000000000000000000000000000000\n        /* \"#utility.yul\":6292:6293   */\n      0x00\n        /* \"#utility.yul\":6285:6373   */\n      mstore\n        /* \"#utility.yul\":6392:6396   */\n      0x11\n        /* \"#utility.yul\":6389:6390   */\n      0x04\n        /* \"#utility.yul\":6382:6397   */\n      mstore\n        /* \"#utility.yul\":6416:6420   */\n      0x24\n        /* \"#utility.yul\":6413:6414   */\n      0x00\n        /* \"#utility.yul\":6406:6421   */\n      revert\n        /* \"#utility.yul\":6433:6666   */\n    tag_55:\n        /* \"#utility.yul\":6472:6475   */\n      0x00\n        /* \"#utility.yul\":6495:6519   */\n      tag_177\n        /* \"#utility.yul\":6513:6518   */\n      dup3\n        /* \"#utility.yul\":6495:6519   */\n      tag_68\n      jump\t// in\n    tag_177:\n        /* \"#utility.yul\":6486:6519   */\n      swap2\n      pop\n        /* \"#utility.yul\":6541:6607   */\n      0xffffffffffffffffffffffffffffffffffffffffffffffffffffffffffffffff\n        /* \"#utility.yul\":6534:6539   */\n      dup3\n        /* \"#utility.yul\":6531:6608   */\n      sub\n        /* \"#utility.yul\":6528:6631   */\n      tag_178\n      jumpi\n        /* \"#utility.yul\":6611:6629   */\n      tag_179\n      tag_89\n      jump\t// in\n    tag_179:\n        /* \"#utility.yul\":6528:6631   */\n    tag_178:\n        /* \"#utility.yul\":6658:6659   */\n      0x01\n        /* \"#utility.yul\":6651:6656   */\n      dup3\n        /* \"#utility.yul\":6647:6660   */\n      add\n        /* \"#utility.yul\":6640:6660   */\n      swap1\n      pop\n        /* \"#utility.yul\":6433:6666   */\n      swap2\n      swap1\n      pop\n      jump\t// out\n        /* \"#utility.yul\":6672:6813   */\n    tag_90:\n        /* \"#utility.yul\":6721:6725   */\n      0x00\n        /* \"#utility.yul\":6744:6747   */\n      dup2\n        /* \"#utility.yul\":6736:6747   */\n      swap1\n      pop\n        /* \"#utility.yul\":6767:6770   */\n      dup2\n        /* \"#utility.yul\":6764:6765   */\n      0x00\n        /* \"#utility.yul\":6757:6771   */\n      mstore\n        /* \"#utility.yul\":6801:6805   */\n      0x20\n        /* \"#utility.yul\":6798:6799   */\n      0x00\n        /* \"#utility.yul\":6788:6806   */\n      keccak256\n        /* \"#utility.yul\":6780:6806   */\n      swap1\n      pop\n        /* \"#utility.yul\":6672:6813   */\n      swap2\n      swap1\n      pop\n      jump\t// out\n        /* \"#utility.yul\":6819:6912   */\n    tag_91:\n        /* \"#utility.yul\":6856:6862   */\n      0x00\n        /* \"#utility.yul\":6903:6905   */\n      0x20\n        /* \"#utility.yul\":6898:6900   */\n      0x1f\n        /* \"#utility.yul\":6891:6896   */\n      dup4\n        /* \"#utility.yul\":6887:6901   */\n      add\n        /* \"#utility.yul\":6883:6906   */\n      div\n        /* \"#utility.yul\":6873:6906   */\n      swap1\n      pop\n        /* \"#utility.yul\":6819:6912   */\n      swap2\n      swap1\n      pop\n      jump\t// out\n        /* \"#utility.yul\":6918:7025   */\n    tag_92:\n        /* \"#utility.yul\":6962:6970   */\n      0x00\n        /* \"#utility.yul\":7012:7017   */\n      dup3\n        /* \"#utility.yul\":7006:7010   */\n      dup3\n        /* \"#utility.yul\":7002:7018   */\n      shl\n        /* \"#utility.yul\":6981:7018   */\n      swap1\n      pop\n        /* \"#utility.yul\":6918:7025   */\n      swap3\n      swap2\n      pop\n      pop\n      jump\t// out\n        /* \"#utility.yul\":7031:7424   */\n    tag_93:\n        /* \"#utility.yul\":7100:7106   */\n      0x00\n        /* \"#utility.yul\":7150:7151   */\n      0x08\n        /* \"#utility.yul\":7138:7148   */\n      dup4\n        /* \"#utility.yul\":7134:7152   */\n      mul\n        /* \"#utility.yul\":7173:7270   */\n      tag_184\n        /* \"#utility.yul\":7203:7269   */\n      0xffffffffffffffffffffffffffffffffffffffffffffffffffffffffffffffff\n        /* \"#utility.yul\":7192:7201   */\n      dup3\n        /* \"#utility.yul\":7173:7270   */\n      tag_92\n      jump\t// in\n    tag_184:\n        /* \"#utility.yul\":7291:7330   */\n      tag_185\n        /* \"#utility.yul\":7321:7329   */\n      dup7\n        /* \"#utility.yul\":7310:7319   */\n      dup4\n        /* \"#utility.yul\":7291:7330   */\n      tag_92\n      jump\t// in\n    tag_185:\n        /* \"#utility.yul\":7279:7330   */\n      swap6\n      pop\n        /* \"#utility.yul\":7363:7367   */\n      dup1\n        /* \"#utility.yul\":7359:7368   */\n      not\n        /* \"#utility.yul\":7352:7357   */\n      dup5\n        /* \"#utility.yul\":7348:7369   */\n      and\n        /* \"#utility.yul\":7339:7369   */\n      swap4\n      pop\n        /* \"#utility.yul\":7412:7416   */\n      dup1\n        /* \"#utility.yul\":7402:7410   */\n      dup7\n        /* \"#utility.yul\":7398:7417   */\n      and\n        /* \"#utility.yul\":7391:7396   */\n      dup5\n        /* \"#utility.yul\":7388:7418   */\n      or\n        /* \"#utility.yul\":7378:7418   */\n      swap3\n      pop\n        /* \"#utility.yul\":7107:7424   */\n      pop\n      pop\n        /* \"#utility.yul\":7031:7424   */\n      swap4\n      swap3\n      pop\n      pop\n      pop\n      jump\t// out\n        /* \"#utility.yul\":7430:7490   */\n    tag_94:\n        /* \"#utility.yul\":7458:7461   */\n      0x00\n        /* \"#utility.yul\":7479:7484   */\n      dup2\n        /* \"#utility.yul\":7472:7484   */\n      swap1\n      pop\n        /* \"#utility.yul\":7430:7490   */\n      swap2\n      swap1\n      pop\n      jump\t// out\n        /* \"#utility.yul\":7496:7638   */\n    tag_95:\n        /* \"#utility.yul\":7546:7555   */\n      0x00\n        /* \"#utility.yul\":7579:7632   */\n      tag_188\n        /* \"#utility.yul\":7597:7631   */\n      tag_189\n        /* \"#utility.yul\":7606:7630   */\n      tag_190\n        /* \"#utility.yul\":7624:7629   */\n      dup5\n        /* \"#utility.yul\":7606:7630   */\n      tag_68\n      jump\t// in\n    tag_190:\n        /* \"#utility.yul\":7597:7631   */\n      tag_94\n      jump\t// in\n    tag_189:\n        /* \"#utility.yul\":7579:7632   */\n      tag_68\n      jump\t// in\n    tag_188:\n        /* \"#utility.yul\":7566:7632   */\n      swap1\n      pop\n        /* \"#utility.yul\":7496:7638   */\n      swap2\n      swap1\n      pop\n      jump\t// out\n        /* \"#utility.yul\":7644:7719   */\n    tag_96:\n        /* \"#utility.yul\":7687:7690   */\n      0x00\n        /* \"#utility.yul\":7708:7713   */\n      dup2\n        /* \"#utility.yul\":7701:7713   */\n      swap1\n      pop\n        /* \"#utility.yul\":7644:7719   */\n      swap2\n      swap1\n      pop\n      jump\t// out\n        /* \"#utility.yul\":7725:7994   */\n    tag_97:\n        /* \"#utility.yul\":7835:7874   */\n      tag_193\n        /* \"#utility.yul\":7866:7873   */\n      dup4\n        /* \"#utility.yul\":7835:7874   */\n      tag_95\n      jump\t// in\n    tag_193:\n        /* \"#utility.yul\":7896:7987   */\n      tag_194\n        /* \"#utility.yul\":7945:7986   */\n      tag_195\n        /* \"#utility.yul\":7969:7985   */\n      dup3\n        /* \"#utility.yul\":7945:7986   */\n      tag_96\n      jump\t// in\n    tag_195:\n        /* \"#utility.yul\":7937:7943   */\n      dup5\n        /* \"#utility.yul\":7930:7934   */\n      dup5\n        /* \"#utility.yul\":7924:7935   */\n      sload\n        /* \"#utility.yul\":7896:7987   */\n      tag_93\n      jump\t// in\n    tag_194:\n        /* \"#utility.yul\":7890:7894   */\n      dup3\n        /* \"#utility.yul\":7883:7988   */\n      sstore\n        /* \"#utility.yul\":7801:7994   */\n      pop\n        /* \"#utility.yul\":7725:7994   */\n      pop\n      pop\n      pop\n      jump\t// out\n        /* \"#utility.yul\":8000:8073   */\n    tag_98:\n        /* \"#utility.yul\":8045:8048   */\n      0x00\n        /* \"#utility.yul\":8066:8067   */\n      0x00\n        /* \"#utility.yul\":8059:8067   */\n      swap1\n      pop\n        /* \"#utility.yul\":8000:8073   */\n      swap1\n      jump\t// out\n        /* \"#utility.yul\":8079:8268   */\n    tag_99:\n        /* \"#utility.yul\":8156:8188   */\n      tag_198\n      tag_98\n      jump\t// in\n    tag_198:\n        /* \"#utility.yul\":8197:8262   */\n      tag_199\n        /* \"#utility.yul\":8255:8261   */\n      dup2\n        /* \"#utility.yul\":8247:8253   */\n      dup5\n        /* \"#utility.yul\":8241:8245   */\n      dup5\n        /* \"#utility.yul\":8197:8262   */\n      tag_97\n      jump\t// in\n    tag_199:\n        /* \"#utility.yul\":8132:8268   */\n      pop\n        /* \"#utility.yul\":8079:8268   */\n      pop\n      pop\n      jump\t// out\n        /* \"#utility.yul\":8274:8460   */\n    tag_100:\n        /* \"#utility.yul\":8334:8454   */\n    tag_201:\n        /* \"#utility.yul\":8351:8354   */\n      dup2\n        /* \"#utility.yul\":8344:8349   */\n      dup2\n        /* \"#utility.yul\":8341:8355   */\n      lt\n        /* \"#utility.yul\":8334:8454   */\n      iszero\n      tag_203\n      jumpi\n        /* \"#utility.yul\":8405:8444   */\n      tag_204\n        /* \"#utility.yul\":8442:8443   */\n      0x00\n        /* \"#utility.yul\":8435:8440   */\n      dup3\n        /* \"#utility.yul\":8405:8444   */\n      tag_99\n      jump\t// in\n    tag_204:\n        /* \"#utility.yul\":8378:8379   */\n      0x01\n        /* \"#utility.yul\":8371:8376   */\n      dup2\n        /* \"#utility.yul\":8367:8380   */\n      add\n        /* \"#utility.yul\":8358:8380   */\n      swap1\n      pop\n        /* \"#utility.yul\":8334:8454   */\n      jump(tag_201)\n    tag_203:\n        /* \"#utility.yul\":8274:8460   */\n      pop\n      pop\n      jump\t// out\n        /* \"#utility.yul\":8466:9009   */\n    tag_101:\n        /* \"#utility.yul\":8567:8569   */\n      0x1f\n        /* \"#utility.yul\":8562:8565   */\n      dup3\n        /* \"#utility.yul\":8559:8570   */\n      gt\n        /* \"#utility.yul\":8556:9002   */\n      iszero\n      tag_206\n      jumpi\n        /* \"#utility.yul\":8601:8639   */\n      tag_207\n        /* \"#utility.yul\":8633:8638   */\n      dup2\n        /* \"#utility.yul\":8601:8639   */\n      tag_90\n      jump\t// in\n    tag_207:\n        /* \"#utility.yul\":8685:8714   */\n      tag_208\n        /* \"#utility.yul\":8703:8713   */\n      dup5\n        /* \"#utility.yul\":8685:8714   */\n      tag_91\n      jump\t// in\n    tag_208:\n        /* \"#utility.yul\":8675:8683   */\n      dup2\n        /* \"#utility.yul\":8671:8715   */\n      add\n        /* \"#utility.yul\":8868:8870   */\n      0x20\n        /* \"#utility.yul\":8856:8866   */\n      dup6\n        /* \"#utility.yul\":8853:8871   */\n      lt\n        /* \"#utility.yul\":8850:8899   */\n      iszero\n      tag_209\n      jumpi\n        /* \"#utility.yul\":8889:8897   */\n      dup2\n        /* \"#utility.yul\":8874:8897   */\n      swap1\n      pop\n        /* \"#utility.yul\":8850:8899   */\n    tag_209:\n        /* \"#utility.yul\":8912:8992   */\n      tag_210\n        /* \"#utility.yul\":8968:8990   */\n      tag_211\n        /* \"#utility.yul\":8986:8989   */\n      dup6\n        /* \"#utility.yul\":8968:8990   */\n      tag_91\n      jump\t// in\n    tag_211:\n        /* \"#utility.yul\":8958:8966   */\n      dup4\n        /* \"#utility.yul\":8954:8991   */\n      add\n        /* \"#utility.yul\":8941:8952   */\n      dup3\n        /* \"#utility.yul\":8912:8992   */\n      tag_100\n      jump\t// in\n    tag_210:\n        /* \"#utility.yul\":8571:9002   */\n      pop\n      pop\n        /* \"#utility.yul\":8556:9002   */\n    tag_206:\n        /* \"#utility.yul\":8466:9009   */\n      pop\n      pop\n      pop\n      jump\t// out\n        /* \"#utility.yul\":9015:9132   */\n    tag_102:\n        /* \"#utility.yul\":9069:9077   */\n      0x00\n        /* \"#utility.yul\":9119:9124   */\n      dup3\n        /* \"#utility.yul\":9113:9117   */\n      dup3\n        /* \"#utility.yul\":9109:9125   */\n      shr\n        /* \"#utility.yul\":9088:9125   */\n      swap1\n      pop\n        /* \"#utility.yul\":9015:9132   */\n      swap3\n      swap2\n      pop\n      pop\n      jump\t// out\n        /* \"#utility.yul\":9138:9307   */\n    tag_103:\n        /* \"#utility.yul\":9182:9188   */\n      0x00\n        /* \"#utility.yul\":9215:9266   */\n      tag_214\n        /* \"#utility.yul\":9263:9264   */\n      0x00\n        /* \"#utility.yul\":9259:9265   */\n      not\n        /* \"#utility.yul\":9251:9256   */\n      dup5\n        /* \"#utility.yul\":9248:9249   */\n      0x08\n        /* \"#utility.yul\":9244:9257   */\n      mul\n        /* \"#utility.yul\":9215:9266   */\n      tag_102\n      jump\t// in\n    tag_214:\n        /* \"#utility.yul\":9211:9267   */\n      not\n        /* \"#utility.yul\":9296:9300   */\n      dup1\n        /* \"#utility.yul\":9290:9294   */\n      dup4\n        /* \"#utility.yul\":9286:9301   */\n      and\n        /* \"#utility.yul\":9276:9301   */\n      swap2\n      pop\n        /* \"#utility.yul\":9189:9307   */\n      pop\n        /* \"#utility.yul\":9138:9307   */\n      swap3\n      swap2\n      pop\n      pop\n      jump\t// out\n        /* \"#utility.yul\":9312:9607   */\n    tag_104:\n        /* \"#utility.yul\":9388:9392   */\n      0x00\n        /* \"#utility.yul\":9534:9563   */\n      tag_216\n        /* \"#utility.yul\":9559:9562   */\n      dup4\n        /* \"#utility.yul\":9553:9557   */\n      dup4\n        /* \"#utility.yul\":9534:9563   */\n      tag_103\n      jump\t// in\n    tag_216:\n        /* \"#utility.yul\":9526:9563   */\n      swap2\n      pop\n        /* \"#utility.yul\":9596:9599   */\n      dup3\n        /* \"#utility.yul\":9593:9594   */\n      0x02\n        /* \"#utility.yul\":9589:9600   */\n      mul\n        /* \"#utility.yul\":9583:9587   */\n      dup3\n        /* \"#utility.yul\":9580:9601   */\n      or\n        /* \"#utility.yul\":9572:9601   */\n      swap1\n      pop\n        /* \"#utility.yul\":9312:9607   */\n      swap3\n      swap2\n      pop\n      pop\n      jump\t// out\n        /* \"#utility.yul\":9612:11007   */\n    tag_57:\n        /* \"#utility.yul\":9729:9766   */\n      tag_218\n        /* \"#utility.yul\":9762:9765   */\n      dup3\n        /* \"#utility.yul\":9729:9766   */\n      tag_71\n      jump\t// in\n    tag_218:\n        /* \"#utility.yul\":9831:9849   */\n      0xffffffffffffffff\n        /* \"#utility.yul\":9823:9829   */\n      dup2\n        /* \"#utility.yul\":9820:9850   */\n      gt\n        /* \"#utility.yul\":9817:9873   */\n      iszero\n      tag_219\n      jumpi\n        /* \"#utility.yul\":9853:9871   */\n      tag_220\n      tag_80\n      jump\t// in\n    tag_220:\n        /* \"#utility.yul\":9817:9873   */\n    tag_219:\n        /* \"#utility.yul\":9897:9935   */\n      tag_221\n        /* \"#utility.yul\":9929:9933   */\n      dup3\n        /* \"#utility.yul\":9923:9934   */\n      sload\n        /* \"#utility.yul\":9897:9935   */\n      tag_37\n      jump\t// in\n    tag_221:\n        /* \"#utility.yul\":9982:10049   */\n      tag_222\n        /* \"#utility.yul\":10042:10048   */\n      dup3\n        /* \"#utility.yul\":10034:10040   */\n      dup3\n        /* \"#utility.yul\":10028:10032   */\n      dup6\n        /* \"#utility.yul\":9982:10049   */\n      tag_101\n      jump\t// in\n    tag_222:\n        /* \"#utility.yul\":10076:10077   */\n      0x00\n        /* \"#utility.yul\":10100:10104   */\n      0x20\n        /* \"#utility.yul\":10087:10104   */\n      swap1\n      pop\n        /* \"#utility.yul\":10132:10134   */\n      0x1f\n        /* \"#utility.yul\":10124:10130   */\n      dup4\n        /* \"#utility.yul\":10121:10135   */\n      gt\n        /* \"#utility.yul\":10149:10150   */\n      0x01\n        /* \"#utility.yul\":10144:10762   */\n      dup2\n      eq\n      tag_224\n      jumpi\n        /* \"#utility.yul\":10806:10807   */\n      0x00\n        /* \"#utility.yul\":10823:10829   */\n      dup5\n        /* \"#utility.yul\":10820:10897   */\n      iszero\n      tag_225\n      jumpi\n        /* \"#utility.yul\":10872:10881   */\n      dup3\n        /* \"#utility.yul\":10867:10870   */\n      dup8\n        /* \"#utility.yul\":10863:10882   */\n      add\n        /* \"#utility.yul\":10857:10883   */\n      mload\n        /* \"#utility.yul\":10848:10883   */\n      swap1\n      pop\n        /* \"#utility.yul\":10820:10897   */\n    tag_225:\n        /* \"#utility.yul\":10923:10990   */\n      tag_226\n        /* \"#utility.yul\":10983:10989   */\n      dup6\n        /* \"#utility.yul\":10976:10981   */\n      dup3\n        /* \"#utility.yul\":10923:10990   */\n      tag_104\n      jump\t// in\n    tag_226:\n        /* \"#utility.yul\":10917:10921   */\n      dup7\n        /* \"#utility.yul\":10910:10991   */\n      sstore\n        /* \"#utility.yul\":10779:11001   */\n      pop\n        /* \"#utility.yul\":10114:11001   */\n      jump(tag_223)\n        /* \"#utility.yul\":10144:10762   */\n    tag_224:\n        /* \"#utility.yul\":10196:10200   */\n      0x1f\n        /* \"#utility.yul\":10192:10201   */\n      not\n        /* \"#utility.yul\":10184:10190   */\n      dup5\n        /* \"#utility.yul\":10180:10202   */\n      and\n        /* \"#utility.yul\":10230:10267   */\n      tag_227\n        /* \"#utility.yul\":10262:10266   */\n      dup7\n        /* \"#utility.yul\":10230:10267   */\n      tag_90\n      jump\t// in\n    tag_227:\n        /* \"#utility.yul\":10289:10290   */\n      0x00\n        /* \"#utility.yul\":10303:10511   */\n    tag_228:\n        /* \"#utility.yul\":10317:10324   */\n      dup3\n        /* \"#utility.yul\":10314:10315   */\n      dup2\n        /* \"#utility.yul\":10311:10325   */\n      lt\n        /* \"#utility.yul\":10303:10511   */\n      iszero\n      tag_230\n      jumpi\n        /* \"#utility.yul\":10396:10405   */\n      dup5\n        /* \"#utility.yul\":10391:10394   */\n      dup10\n        /* \"#utility.yul\":10387:10406   */\n      add\n        /* \"#utility.yul\":10381:10407   */\n      mload\n        /* \"#utility.yul\":10373:10379   */\n      dup3\n        /* \"#utility.yul\":10366:10408   */\n      sstore\n        /* \"#utility.yul\":10447:10448   */\n      0x01\n        /* \"#utility.yul\":10439:10445   */\n      dup3\n        /* \"#utility.yul\":10435:10449   */\n      add\n        /* \"#utility.yul\":10425:10449   */\n      swap2\n      pop\n        /* \"#utility.yul\":10494:10496   */\n      0x20\n        /* \"#utility.yul\":10483:10492   */\n      dup6\n        /* \"#utility.yul\":10479:10497   */\n      add\n        /* \"#utility.yul\":10466:10497   */\n      swap5\n      pop\n        /* \"#utility.yul\":10340:10344   */\n      0x20\n        /* \"#utility.yul\":10337:10338   */\n      dup2\n        /* \"#utility.yul\":10333:10345   */\n      add\n        /* \"#utility.yul\":10328:10345   */\n      swap1\n      pop\n        /* \"#utility.yul\":10303:10511   */\n      jump(tag_228)\n    tag_230:\n        /* \"#utility.yul\":10539:10545   */\n      dup7\n        /* \"#utility.yul\":10530:10537   */\n      dup4\n        /* \"#utility.yul\":10527:10546   */\n      lt\n        /* \"#utility.yul\":10524:10703   */\n      iszero\n      tag_231\n      jumpi\n        /* \"#utility.yul\":10597:10606   */\n      dup5\n        /* \"#utility.yul\":10592:10595   */\n      dup10\n        /* \"#utility.yul\":10588:10607   */\n      add\n        /* \"#utility.yul\":10582:10608   */\n      mload\n        /* \"#utility.yul\":10640:10688   */\n      tag_232\n        /* \"#utility.yul\":10682:10686   */\n      0x1f\n        /* \"#utility.yul\":10674:10680   */\n      dup10\n        /* \"#utility.yul\":10670:10687   */\n      and\n        /* \"#utility.yul\":10659:10668   */\n      dup3\n        /* \"#utility.yul\":10640:10688   */\n      tag_103\n      jump\t// in\n    tag_232:\n        /* \"#utility.yul\":10632:10638   */\n      dup4\n        /* \"#utility.yul\":10625:10689   */\n      sstore\n        /* \"#utility.yul\":10547:10703   */\n      pop\n        /* \"#utility.yul\":10524:10703   */\n    tag_231:\n        /* \"#utility.yul\":10749:10750   */\n      0x01\n        /* \"#utility.yul\":10745:10746   */\n      0x02\n        /* \"#utility.yul\":10737:10743   */\n      dup9\n        /* \"#utility.yul\":10733:10747   */\n      mul\n        /* \"#utility.yul\":10729:10751   */\n      add\n        /* \"#utility.yul\":10723:10727   */\n      dup9\n        /* \"#utility.yul\":10716:10752   */\n      sstore\n        /* \"#utility.yul\":10151:10762   */\n      pop\n      pop\n      pop\n        /* \"#utility.yul\":10114:11001   */\n    tag_223:\n      pop\n        /* \"#utility.yul\":9704:11007   */\n      pop\n      pop\n      pop\n        /* \"#utility.yul\":9612:11007   */\n      pop\n      pop\n      jump\t// out\n\n    auxdata: 0xa26469706673582212201f89c67cf3bdf6305981ca3e8da36dac4056c559d80524fdacad3c721d6400d264736f6c634300081e0033\n}\n",
				"bytecode": {
					"linkReferences": {},
					"object": "6080604052348015600e575f5ffd5b50610b678061001c5f395ff3fe608060405234801561000f575f5ffd5b5060043610610060575f3560e01c80630eddaecf146100645780631d65e77e146100955780634ad0e590146100c657806367238562146100e25780638d977672146100fe578063b6cb58a51461012f575b5f5ffd5b61007e60048036038101906100799190610546565b61014d565b60405161008c9291906105fb565b60405180910390f35b6100af60048036038101906100aa9190610546565b61020d565b6040516100bd9291906105fb565b60405180910390f35b6100e060048036038101906100db9190610546565b6102eb565b005b6100fc60048036038101906100f79190610755565b610394565b005b61011860048036038101906101139190610546565b61044a565b6040516101269291906105fb565b60405180910390f35b6101376104fc565b60405161014491906107ab565b60405180910390f35b5f818154811061015b575f80fd5b905f5260205f2090600202015f91509050805f01805461017a906107f1565b80601f01602080910402602001604051908101604052809291908181526020018280546101a6906107f1565b80156101f15780601f106101c8576101008083540402835291602001916101f1565b820191905f5260205f20905b8154815290600101906020018083116101d457829003601f168201915b505050505090806001015f9054906101000a900460ff16905082565b60605f5f60025f8581526020019081526020015f206040518060400160405290815f8201805461023c906107f1565b80601f0160208091040260200160405190810160405280929190818152602001828054610268906107f1565b80156102b35780601f1061028a576101008083540402835291602001916102b3565b820191905f5260205f20905b81548152906001019060200180831161029657829003601f168201915b50505050508152602001600182015f9054906101000a900460ff1615151515815250509050805f015181602001519250925050915091565b60025f8281526020019081526020015f206001015f9054906101000a900460ff16155f82815481106103205761031f610821565b5b905f5260205f2090600202016001015f6101000a81548160ff02191690831515021790555060025f8281526020019081526020015f206001015f9054906101000a900460ff161560025f8381526020019081526020015f206001015f6101000a81548160ff02191690831515021790555050565b5f60015f8154809291906103a79061087b565b9190505590505f60025f8381526020019081526020015f20905082815f0190816103d19190610a62565b505f60405180604001604052808581526020015f1515815250908060018154018082558091505060019003905f5260205f2090600202015f909190919091505f820151815f0190816104239190610a62565b506020820151816001015f6101000a81548160ff0219169083151502179055505050505050565b6002602052805f5260405f205f91509050805f018054610469906107f1565b80601f0160208091040260200160405190810160405280929190818152602001828054610495906107f1565b80156104e05780601f106104b7576101008083540402835291602001916104e0565b820191905f5260205f20905b8154815290600101906020018083116104c357829003601f168201915b505050505090806001015f9054906101000a900460ff16905082565b60015481565b5f604051905090565b5f5ffd5b5f5ffd5b5f819050919050565b61052581610513565b811461052f575f5ffd5b50565b5f813590506105408161051c565b92915050565b5f6020828403121561055b5761055a61050b565b5b5f61056884828501610532565b91505092915050565b5f81519050919050565b5f82825260208201905092915050565b8281835e5f83830152505050565b5f601f19601f8301169050919050565b5f6105b382610571565b6105bd818561057b565b93506105cd81856020860161058b565b6105d681610599565b840191505092915050565b5f8115159050919050565b6105f5816105e1565b82525050565b5f6040820190508181035f83015261061381856105a9565b905061062260208301846105ec565b9392505050565b5f5ffd5b5f5ffd5b7f4e487b71000000000000000000000000000000000000000000000000000000005f52604160045260245ffd5b61066782610599565b810181811067ffffffffffffffff8211171561068657610685610631565b5b80604052505050565b5f610698610502565b90506106a4828261065e565b919050565b5f67ffffffffffffffff8211156106c3576106c2610631565b5b6106cc82610599565b9050602081019050919050565b828183375f83830152505050565b5f6106f96106f4846106a9565b61068f565b9050828152602081018484840111156107155761071461062d565b5b6107208482856106d9565b509392505050565b5f82601f83011261073c5761073b610629565b5b813561074c8482602086016106e7565b91505092915050565b5f6020828403121561076a5761076961050b565b5b5f82013567ffffffffffffffff8111156107875761078661050f565b5b61079384828501610728565b91505092915050565b6107a581610513565b82525050565b5f6020820190506107be5f83018461079c565b92915050565b7f4e487b71000000000000000000000000000000000000000000000000000000005f52602260045260245ffd5b5f600282049050600182168061080857607f821691505b60208210810361081b5761081a6107c4565b5b50919050565b7f4e487b71000000000000000000000000000000000000000000000000000000005f52603260045260245ffd5b7f4e487b71000000000000000000000000000000000000000000000000000000005f52601160045260245ffd5b5f61088582610513565b91507fffffffffffffffffffffffffffffffffffffffffffffffffffffffffffffffff82036108b7576108b661084e565b5b600182019050919050565b5f819050815f5260205f209050919050565b5f6020601f8301049050919050565b5f82821b905092915050565b5f6008830261091e7fffffffffffffffffffffffffffffffffffffffffffffffffffffffffffffffff826108e3565b61092886836108e3565b95508019841693508086168417925050509392505050565b5f819050919050565b5f61096361095e61095984610513565b610940565b610513565b9050919050565b5f819050919050565b61097c83610949565b6109906109888261096a565b8484546108ef565b825550505050565b5f5f905090565b6109a7610998565b6109b2818484610973565b505050565b5b818110156109d5576109ca5f8261099f565b6001810190506109b8565b5050565b601f821115610a1a576109eb816108c2565b6109f4846108d4565b81016020851015610a03578190505b610a17610a0f856108d4565b8301826109b7565b50505b505050565b5f82821c905092915050565b5f610a3a5f1984600802610a1f565b1980831691505092915050565b5f610a528383610a2b565b9150826002028217905092915050565b610a6b82610571565b67ffffffffffffffff811115610a8457610a83610631565b5b610a8e82546107f1565b610a998282856109d9565b5f60209050601f831160018114610aca575f8415610ab8578287015190505b610ac28582610a47565b865550610b29565b601f198416610ad8866108c2565b5f5b82811015610aff57848901518255600182019150602085019450602081019050610ada565b86831015610b1c5784890151610b18601f891682610a2b565b8355505b6001600288020188555050505b50505050505056fea26469706673582212201f89c67cf3bdf6305981ca3e8da36dac4056c559d80524fdacad3c721d6400d264736f6c634300081e0033",
					"opcodes": "PUSH1 0x80 PUSH1 0x40 MSTORE CALLVALUE DUP1 ISZERO PUSH1 0xE JUMPI PUSH0 PUSH0 REVERT JUMPDEST POP PUSH2 0xB67 DUP1 PUSH2 0x1C PUSH0 CODECOPY PUSH0 RETURN INVALID PUSH1 0x80 PUSH1 0x40 MSTORE CALLVALUE DUP1 ISZERO PUSH2 0xF JUMPI PUSH0 PUSH0 REVERT JUMPDEST POP PUSH1 0x4 CALLDATASIZE LT PUSH2 0x60 JUMPI PUSH0 CALLDATALOAD PUSH1 0xE0 SHR DUP1 PUSH4 0xEDDAECF EQ PUSH2 0x64 JUMPI DUP1 PUSH4 0x1D65E77E EQ PUSH2 0x95 JUMPI DUP1 PUSH4 0x4AD0E590 EQ PUSH2 0xC6 JUMPI DUP1 PUSH4 0x67238562 EQ PUSH2 0xE2 JUMPI DUP1 PUSH4 0x8D977672 EQ PUSH2 0xFE JUMPI DUP1 PUSH4 0xB6CB58A5 EQ PUSH2 0x12F JUMPI JUMPDEST PUSH0 PUSH0 REVERT JUMPDEST PUSH2 0x7E PUSH1 0x4 DUP1 CALLDATASIZE SUB DUP2 ADD SWAP1 PUSH2 0x79 SWAP2 SWAP1 PUSH2 0x546 JUMP JUMPDEST PUSH2 0x14D JUMP JUMPDEST PUSH1 0x40 MLOAD PUSH2 0x8C SWAP3 SWAP2 SWAP1 PUSH2 0x5FB JUMP JUMPDEST PUSH1 0x40 MLOAD DUP1 SWAP2 SUB SWAP1 RETURN JUMPDEST PUSH2 0xAF PUSH1 0x4 DUP1 CALLDATASIZE SUB DUP2 ADD SWAP1 PUSH2 0xAA SWAP2 SWAP1 PUSH2 0x546 JUMP JUMPDEST PUSH2 0x20D JUMP JUMPDEST PUSH1 0x40 MLOAD PUSH2 0xBD SWAP3 SWAP2 SWAP1 PUSH2 0x5FB JUMP JUMPDEST PUSH1 0x40 MLOAD DUP1 SWAP2 SUB SWAP1 RETURN JUMPDEST PUSH2 0xE0 PUSH1 0x4 DUP1 CALLDATASIZE SUB DUP2 ADD SWAP1 PUSH2 0xDB SWAP2 SWAP1 PUSH2 0x546 JUMP JUMPDEST PUSH2 0x2EB JUMP JUMPDEST STOP JUMPDEST PUSH2 0xFC PUSH1 0x4 DUP1 CALLDATASIZE SUB DUP2 ADD SWAP1 PUSH2 0xF7 SWAP2 SWAP1 PUSH2 0x755 JUMP JUMPDEST PUSH2 0x394 JUMP JUMPDEST STOP JUMPDEST PUSH2 0x118 PUSH1 0x4 DUP1 CALLDATASIZE SUB DUP2 ADD SWAP1 PUSH2 0x113 SWAP2 SWAP1 PUSH2 0x546 JUMP JUMPDEST PUSH2 0x44A JUMP JUMPDEST PUSH1 0x40 MLOAD PUSH2 0x126 SWAP3 SWAP2 SWAP1 PUSH2 0x5FB JUMP JUMPDEST PUSH1 0x40 MLOAD DUP1 SWAP2 SUB SWAP1 RETURN JUMPDEST PUSH2 0x137 PUSH2 0x4FC JUMP JUMPDEST PUSH1 0x40 MLOAD PUSH2 0x144 SWAP2 SWAP1 PUSH2 0x7AB JUMP JUMPDEST PUSH1 0x40 MLOAD DUP1 SWAP2 SUB SWAP1 RETURN JUMPDEST PUSH0 DUP2 DUP2 SLOAD DUP2 LT PUSH2 0x15B JUMPI PUSH0 DUP1 REVERT JUMPDEST SWAP1 PUSH0 MSTORE PUSH1 0x20 PUSH0 KECCAK256 SWAP1 PUSH1 0x2 MUL ADD PUSH0 SWAP2 POP SWAP1 POP DUP1 PUSH0 ADD DUP1 SLOAD PUSH2 0x17A SWAP1 PUSH2 0x7F1 JUMP JUMPDEST DUP1 PUSH1 0x1F ADD PUSH1 0x20 DUP1 SWAP2 DIV MUL PUSH1 0x20 ADD PUSH1 0x40 MLOAD SWAP1 DUP2 ADD PUSH1 0x40 MSTORE DUP1 SWAP3 SWAP2 SWAP1 DUP2 DUP2 MSTORE PUSH1 0x20 ADD DUP3 DUP1 SLOAD PUSH2 0x1A6 SWAP1 PUSH2 0x7F1 JUMP JUMPDEST DUP1 ISZERO PUSH2 0x1F1 JUMPI DUP1 PUSH1 0x1F LT PUSH2 0x1C8 JUMPI PUSH2 0x100 DUP1 DUP4 SLOAD DIV MUL DUP4 MSTORE SWAP2 PUSH1 0x20 ADD SWAP2 PUSH2 0x1F1 JUMP JUMPDEST DUP3 ADD SWAP2 SWAP1 PUSH0 MSTORE PUSH1 0x20 PUSH0 KECCAK256 SWAP1 JUMPDEST DUP2 SLOAD DUP2 MSTORE SWAP1 PUSH1 0x1 ADD SWAP1 PUSH1 0x20 ADD DUP1 DUP4 GT PUSH2 0x1D4 JUMPI DUP3 SWAP1 SUB PUSH1 0x1F AND DUP3 ADD SWAP2 JUMPDEST POP POP POP POP POP SWAP1 DUP1 PUSH1 0x1 ADD PUSH0 SWAP1 SLOAD SWAP1 PUSH2 0x100 EXP SWAP1 DIV PUSH1 0xFF AND SWAP1 POP DUP3 JUMP JUMPDEST PUSH1 0x60 PUSH0 PUSH0 PUSH1 0x2 PUSH0 DUP6 DUP2 MSTORE PUSH1 0x20 ADD SWAP1 DUP2 MSTORE PUSH1 0x20 ADD PUSH0 KECCAK256 PUSH1 0x40 MLOAD DUP1 PUSH1 0x40 ADD PUSH1 0x40 MSTORE SWAP1 DUP2 PUSH0 DUP3 ADD DUP1 SLOAD PUSH2 0x23C SWAP1 PUSH2 0x7F1 JUMP JUMPDEST DUP1 PUSH1 0x1F ADD PUSH1 0x20 DUP1 SWAP2 DIV MUL PUSH1 0x20 ADD PUSH1 0x40 MLOAD SWAP1 DUP2 ADD PUSH1 0x40 MSTORE DUP1 SWAP3 SWAP2 SWAP1 DUP2 DUP2 MSTORE PUSH1 0x20 ADD DUP3 DUP1 SLOAD PUSH2 0x268 SWAP1 PUSH2 0x7F1 JUMP JUMPDEST DUP1 ISZERO PUSH2 0x2B3 JUMPI DUP1 PUSH1 0x1F LT PUSH2 0x28A JUMPI PUSH2 0x100 DUP1 DUP4 SLOAD DIV MUL DUP4 MSTORE SWAP2 PUSH1 0x20 ADD SWAP2 PUSH2 0x2B3 JUMP JUMPDEST DUP3 ADD SWAP2 SWAP1 PUSH0 MSTORE PUSH1 0x20 PUSH0 KECCAK256 SWAP1 JUMPDEST DUP2 SLOAD DUP2 MSTORE SWAP1 PUSH1 0x1 ADD SWAP1 PUSH1 0x20 ADD DUP1 DUP4 GT PUSH2 0x296 JUMPI DUP3 SWAP1 SUB PUSH1 0x1F AND DUP3 ADD SWAP2 JUMPDEST POP POP POP POP POP DUP2 MSTORE PUSH1 0x20 ADD PUSH1 0x1 DUP3 ADD PUSH0 SWAP1 SLOAD SWAP1 PUSH2 0x100 EXP SWAP1 DIV PUSH1 0xFF AND ISZERO ISZERO ISZERO ISZERO DUP2 MSTORE POP POP SWAP1 POP DUP1 PUSH0 ADD MLOAD DUP2 PUSH1 0x20 ADD MLOAD SWAP3 POP SWAP3 POP POP SWAP2 POP SWAP2 JUMP JUMPDEST PUSH1 0x2 PUSH0 DUP3 DUP2 MSTORE PUSH1 0x20 ADD SWAP1 DUP2 MSTORE PUSH1 0x20 ADD PUSH0 KECCAK256 PUSH1 0x1 ADD PUSH0 SWAP1 SLOAD SWAP1 PUSH2 0x100 EXP SWAP1 DIV PUSH1 0xFF AND ISZERO PUSH0 DUP3 DUP2 SLOAD DUP2 LT PUSH2 0x320 JUMPI PUSH2 0x31F PUSH2 0x821 JUMP JUMPDEST JUMPDEST SWAP1 PUSH0 MSTORE PUSH1 0x20 PUSH0 KECCAK256 SWAP1 PUSH1 0x2 MUL ADD PUSH1 0x1 ADD PUSH0 PUSH2 0x100 EXP DUP2 SLOAD DUP2 PUSH1 0xFF MUL NOT AND SWAP1 DUP4 ISZERO ISZERO MUL OR SWAP1 SSTORE POP PUSH1 0x2 PUSH0 DUP3 DUP2 MSTORE PUSH1 0x20 ADD SWAP1 DUP2 MSTORE PUSH1 0x20 ADD PUSH0 KECCAK256 PUSH1 0x1 ADD PUSH0 SWAP1 SLOAD SWAP1 PUSH2 0x100 EXP SWAP1 DIV PUSH1 0xFF AND ISZERO PUSH1 0x2 PUSH0 DUP4 DUP2 MSTORE PUSH1 0x20 ADD SWAP1 DUP2 MSTORE PUSH1 0x20 ADD PUSH0 KECCAK256 PUSH1 0x1 ADD PUSH0 PUSH2 0x100 EXP DUP2 SLOAD DUP2 PUSH1 0xFF MUL NOT AND SWAP1 DUP4 ISZERO ISZERO MUL OR SWAP1 SSTORE POP POP JUMP JUMPDEST PUSH0 PUSH1 0x1 PUSH0 DUP2 SLOAD DUP1 SWAP3 SWAP2 SWAP1 PUSH2 0x3A7 SWAP1 PUSH2 0x87B JUMP JUMPDEST SWAP2 SWAP1 POP SSTORE SWAP1 POP PUSH0 PUSH1 0x2 PUSH0 DUP4 DUP2 MSTORE PUSH1 0x20 ADD SWAP1 DUP2 MSTORE PUSH1 0x20 ADD PUSH0 KECCAK256 SWAP1 POP DUP3 DUP2 PUSH0 ADD SWAP1 DUP2 PUSH2 0x3D1 SWAP2 SWAP1 PUSH2 0xA62 JUMP JUMPDEST POP PUSH0 PUSH1 0x40 MLOAD DUP1 PUSH1 0x40 ADD PUSH1 0x40 MSTORE DUP1 DUP6 DUP2 MSTORE PUSH1 0x20 ADD PUSH0 ISZERO ISZERO DUP2 MSTORE POP SWAP1 DUP1 PUSH1 0x1 DUP2 SLOAD ADD DUP1 DUP3 SSTORE DUP1 SWAP2 POP POP PUSH1 0x1 SWAP1 SUB SWAP1 PUSH0 MSTORE PUSH1 0x20 PUSH0 KECCAK256 SWAP1 PUSH1 0x2 MUL ADD PUSH0 SWAP1 SWAP2 SWAP1 SWAP2 SWAP1 SWAP2 POP PUSH0 DUP3 ADD MLOAD DUP2 PUSH0 ADD SWAP1 DUP2 PUSH2 0x423 SWAP2 SWAP1 PUSH2 0xA62 JUMP JUMPDEST POP PUSH1 0x20 DUP3 ADD MLOAD DUP2 PUSH1 0x1 ADD PUSH0 PUSH2 0x100 EXP DUP2 SLOAD DUP2 PUSH1 0xFF MUL NOT AND SWAP1 DUP4 ISZERO ISZERO MUL OR SWAP1 SSTORE POP POP POP POP POP POP JUMP JUMPDEST PUSH1 0x2 PUSH1 0x20 MSTORE DUP1 PUSH0 MSTORE PUSH1 0x40 PUSH0 KECCAK256 PUSH0 SWAP2 POP SWAP1 POP DUP1 PUSH0 ADD DUP1 SLOAD PUSH2 0x469 SWAP1 PUSH2 0x7F1 JUMP JUMPDEST DUP1 PUSH1 0x1F ADD PUSH1 0x20 DUP1 SWAP2 DIV MUL PUSH1 0x20 ADD PUSH1 0x40 MLOAD SWAP1 DUP2 ADD PUSH1 0x40 MSTORE DUP1 SWAP3 SWAP2 SWAP1 DUP2 DUP2 MSTORE PUSH1 0x20 ADD DUP3 DUP1 SLOAD PUSH2 0x495 SWAP1 PUSH2 0x7F1 JUMP JUMPDEST DUP1 ISZERO PUSH2 0x4E0 JUMPI DUP1 PUSH1 0x1F LT PUSH2 0x4B7 JUMPI PUSH2 0x100 DUP1 DUP4 SLOAD DIV MUL DUP4 MSTORE SWAP2 PUSH1 0x20 ADD SWAP2 PUSH2 0x4E0 JUMP JUMPDEST DUP3 ADD SWAP2 SWAP1 PUSH0 MSTORE PUSH1 0x20 PUSH0 KECCAK256 SWAP1 JUMPDEST DUP2 SLOAD DUP2 MSTORE SWAP1 PUSH1 0x1 ADD SWAP1 PUSH1 0x20 ADD DUP1 DUP4 GT PUSH2 0x4C3 JUMPI DUP3 SWAP1 SUB PUSH1 0x1F AND DUP3 ADD SWAP2 JUMPDEST POP POP POP POP POP SWAP1 DUP1 PUSH1 0x1 ADD PUSH0 SWAP1 SLOAD SWAP1 PUSH2 0x100 EXP SWAP1 DIV PUSH1 0xFF AND SWAP1 POP DUP3 JUMP JUMPDEST PUSH1 0x1 SLOAD DUP2 JUMP JUMPDEST PUSH0 PUSH1 0x40 MLOAD SWAP1 POP SWAP1 JUMP JUMPDEST PUSH0 PUSH0 REVERT JUMPDEST PUSH0 PUSH0 REVERT JUMPDEST PUSH0 DUP2 SWAP1 POP SWAP2 SWAP1 POP JUMP JUMPDEST PUSH2 0x525 DUP2 PUSH2 0x513 JUMP JUMPDEST DUP2 EQ PUSH2 0x52F JUMPI PUSH0 PUSH0 REVERT JUMPDEST POP JUMP JUMPDEST PUSH0 DUP2 CALLDATALOAD SWAP1 POP PUSH2 0x540 DUP2 PUSH2 0x51C JUMP JUMPDEST SWAP3 SWAP2 POP POP JUMP JUMPDEST PUSH0 PUSH1 0x20 DUP3 DUP5 SUB SLT ISZERO PUSH2 0x55B JUMPI PUSH2 0x55A PUSH2 0x50B JUMP JUMPDEST JUMPDEST PUSH0 PUSH2 0x568 DUP5 DUP3 DUP6 ADD PUSH2 0x532 JUMP JUMPDEST SWAP2 POP POP SWAP3 SWAP2 POP POP JUMP JUMPDEST PUSH0 DUP2 MLOAD SWAP1 POP SWAP2 SWAP1 POP JUMP JUMPDEST PUSH0 DUP3 DUP3 MSTORE PUSH1 0x20 DUP3 ADD SWAP1 POP SWAP3 SWAP2 POP POP JUMP JUMPDEST DUP3 DUP2 DUP4 MCOPY PUSH0 DUP4 DUP4 ADD MSTORE POP POP POP JUMP JUMPDEST PUSH0 PUSH1 0x1F NOT PUSH1 0x1F DUP4 ADD AND SWAP1 POP SWAP2 SWAP1 POP JUMP JUMPDEST PUSH0 PUSH2 0x5B3 DUP3 PUSH2 0x571 JUMP JUMPDEST PUSH2 0x5BD DUP2 DUP6 PUSH2 0x57B JUMP JUMPDEST SWAP4 POP PUSH2 0x5CD DUP2 DUP6 PUSH1 0x20 DUP7 ADD PUSH2 0x58B JUMP JUMPDEST PUSH2 0x5D6 DUP2 PUSH2 0x599 JUMP JUMPDEST DUP5 ADD SWAP2 POP POP SWAP3 SWAP2 POP POP JUMP JUMPDEST PUSH0 DUP2 ISZERO ISZERO SWAP1 POP SWAP2 SWAP1 POP JUMP JUMPDEST PUSH2 0x5F5 DUP2 PUSH2 0x5E1 JUMP JUMPDEST DUP3 MSTORE POP POP JUMP JUMPDEST PUSH0 PUSH1 0x40 DUP3 ADD SWAP1 POP DUP2 DUP2 SUB PUSH0 DUP4 ADD MSTORE PUSH2 0x613 DUP2 DUP6 PUSH2 0x5A9 JUMP JUMPDEST SWAP1 POP PUSH2 0x622 PUSH1 0x20 DUP4 ADD DUP5 PUSH2 0x5EC JUMP JUMPDEST SWAP4 SWAP3 POP POP POP JUMP JUMPDEST PUSH0 PUSH0 REVERT JUMPDEST PUSH0 PUSH0 REVERT JUMPDEST PUSH32 0x4E487B7100000000000000000000000000000000000000000000000000000000 PUSH0 MSTORE PUSH1 0x41 PUSH1 0x4 MSTORE PUSH1 0x24 PUSH0 REVERT JUMPDEST PUSH2 0x667 DUP3 PUSH2 0x599 JUMP JUMPDEST DUP2 ADD DUP2 DUP2 LT PUSH8 0xFFFFFFFFFFFFFFFF DUP3 GT OR ISZERO PUSH2 0x686 JUMPI PUSH2 0x685 PUSH2 0x631 JUMP JUMPDEST JUMPDEST DUP1 PUSH1 0x40 MSTORE POP POP POP JUMP JUMPDEST PUSH0 PUSH2 0x698 PUSH2 0x502 JUMP JUMPDEST SWAP1 POP PUSH2 0x6A4 DUP3 DUP3 PUSH2 0x65E JUMP JUMPDEST SWAP2 SWAP1 POP JUMP JUMPDEST PUSH0 PUSH8 0xFFFFFFFFFFFFFFFF DUP3 GT ISZERO PUSH2 0x6C3 JUMPI PUSH2 0x6C2 PUSH2 0x631 JUMP JUMPDEST JUMPDEST PUSH2 0x6CC DUP3 PUSH2 0x599 JUMP JUMPDEST SWAP1 POP PUSH1 0x20 DUP2 ADD SWAP1 POP SWAP2 SWAP1 POP JUMP JUMPDEST DUP3 DUP2 DUP4 CALLDATACOPY PUSH0 DUP4 DUP4 ADD MSTORE POP POP POP JUMP JUMPDEST PUSH0 PUSH2 0x6F9 PUSH2 0x6F4 DUP5 PUSH2 0x6A9 JUMP JUMPDEST PUSH2 0x68F JUMP JUMPDEST SWAP1 POP DUP3 DUP2 MSTORE PUSH1 0x20 DUP2 ADD DUP5 DUP5 DUP5 ADD GT ISZERO PUSH2 0x715 JUMPI PUSH2 0x714 PUSH2 0x62D JUMP JUMPDEST JUMPDEST PUSH2 0x720 DUP5 DUP3 DUP6 PUSH2 0x6D9 JUMP JUMPDEST POP SWAP4 SWAP3 POP POP POP JUMP JUMPDEST PUSH0 DUP3 PUSH1 0x1F DUP4 ADD SLT PUSH2 0x73C JUMPI PUSH2 0x73B PUSH2 0x629 JUMP JUMPDEST JUMPDEST DUP2 CALLDATALOAD PUSH2 0x74C DUP5 DUP3 PUSH1 0x20 DUP7 ADD PUSH2 0x6E7 JUMP JUMPDEST SWAP2 POP POP SWAP3 SWAP2 POP POP JUMP JUMPDEST PUSH0 PUSH1 0x20 DUP3 DUP5 SUB SLT ISZERO PUSH2 0x76A JUMPI PUSH2 0x769 PUSH2 0x50B JUMP JUMPDEST JUMPDEST PUSH0 DUP3 ADD CALLDATALOAD PUSH8 0xFFFFFFFFFFFFFFFF DUP2 GT ISZERO PUSH2 0x787 JUMPI PUSH2 0x786 PUSH2 0x50F JUMP JUMPDEST JUMPDEST PUSH2 0x793 DUP5 DUP3 DUP6 ADD PUSH2 0x728 JUMP JUMPDEST SWAP2 POP POP SWAP3 SWAP2 POP POP JUMP JUMPDEST PUSH2 0x7A5 DUP2 PUSH2 0x513 JUMP JUMPDEST DUP3 MSTORE POP POP JUMP JUMPDEST PUSH0 PUSH1 0x20 DUP3 ADD SWAP1 POP PUSH2 0x7BE PUSH0 DUP4 ADD DUP5 PUSH2 0x79C JUMP JUMPDEST SWAP3 SWAP2 POP POP JUMP JUMPDEST PUSH32 0x4E487B7100000000000000000000000000000000000000000000000000000000 PUSH0 MSTORE PUSH1 0x22 PUSH1 0x4 MSTORE PUSH1 0x24 PUSH0 REVERT JUMPDEST PUSH0 PUSH1 0x2 DUP3 DIV SWAP1 POP PUSH1 0x1 DUP3 AND DUP1 PUSH2 0x808 JUMPI PUSH1 0x7F DUP3 AND SWAP2 POP JUMPDEST PUSH1 0x20 DUP3 LT DUP2 SUB PUSH2 0x81B JUMPI PUSH2 0x81A PUSH2 0x7C4 JUMP JUMPDEST JUMPDEST POP SWAP2 SWAP1 POP JUMP JUMPDEST PUSH32 0x4E487B7100000000000000000000000000000000000000000000000000000000 PUSH0 MSTORE PUSH1 0x32 PUSH1 0x4 MSTORE PUSH1 0x24 PUSH0 REVERT JUMPDEST PUSH32 0x4E487B7100000000000000000000000000000000000000000000000000000000 PUSH0 MSTORE PUSH1 0x11 PUSH1 0x4 MSTORE PUSH1 0x24 PUSH0 REVERT JUMPDEST PUSH0 PUSH2 0x885 DUP3 PUSH2 0x513 JUMP JUMPDEST SWAP2 POP PUSH32 0xFFFFFFFFFFFFFFFFFFFFFFFFFFFFFFFFFFFFFFFFFFFFFFFFFFFFFFFFFFFFFFFF DUP3 SUB PUSH2 0x8B7 JUMPI PUSH2 0x8B6 PUSH2 0x84E JUMP JUMPDEST JUMPDEST PUSH1 0x1 DUP3 ADD SWAP1 POP SWAP2 SWAP1 POP JUMP JUMPDEST PUSH0 DUP2 SWAP1 POP DUP2 PUSH0 MSTORE PUSH1 0x20 PUSH0 KECCAK256 SWAP1 POP SWAP2 SWAP1 POP JUMP JUMPDEST PUSH0 PUSH1 0x20 PUSH1 0x1F DUP4 ADD DIV SWAP1 POP SWAP2 SWAP1 POP JUMP JUMPDEST PUSH0 DUP3 DUP3 SHL SWAP1 POP SWAP3 SWAP2 POP POP JUMP JUMPDEST PUSH0 PUSH1 0x8 DUP4 MUL PUSH2 0x91E PUSH32 0xFFFFFFFFFFFFFFFFFFFFFFFFFFFFFFFFFFFFFFFFFFFFFFFFFFFFFFFFFFFFFFFF DUP3 PUSH2 0x8E3 JUMP JUMPDEST PUSH2 0x928 DUP7 DUP4 PUSH2 0x8E3 JUMP JUMPDEST SWAP6 POP DUP1 NOT DUP5 AND SWAP4 POP DUP1 DUP7 AND DUP5 OR SWAP3 POP POP POP SWAP4 SWAP3 POP POP POP JUMP JUMPDEST PUSH0 DUP2 SWAP1 POP SWAP2 SWAP1 POP JUMP JUMPDEST PUSH0 PUSH2 0x963 PUSH2 0x95E PUSH2 0x959 DUP5 PUSH2 0x513 JUMP JUMPDEST PUSH2 0x940 JUMP JUMPDEST PUSH2 0x513 JUMP JUMPDEST SWAP1 POP SWAP2 SWAP1 POP JUMP JUMPDEST PUSH0 DUP2 SWAP1 POP SWAP2 SWAP1 POP JUMP JUMPDEST PUSH2 0x97C DUP4 PUSH2 0x949 JUMP JUMPDEST PUSH2 0x990 PUSH2 0x988 DUP3 PUSH2 0x96A JUMP JUMPDEST DUP5 DUP5 SLOAD PUSH2 0x8EF JUMP JUMPDEST DUP3 SSTORE POP POP POP POP JUMP JUMPDEST PUSH0 PUSH0 SWAP1 POP SWAP1 JUMP JUMPDEST PUSH2 0x9A7 PUSH2 0x998 JUMP JUMPDEST PUSH2 0x9B2 DUP2 DUP5 DUP5 PUSH2 0x973 JUMP JUMPDEST POP POP POP JUMP JUMPDEST JUMPDEST DUP2 DUP2 LT ISZERO PUSH2 0x9D5 JUMPI PUSH2 0x9CA PUSH0 DUP3 PUSH2 0x99F JUMP JUMPDEST PUSH1 0x1 DUP2 ADD SWAP1 POP PUSH2 0x9B8 JUMP JUMPDEST POP POP JUMP JUMPDEST PUSH1 0x1F DUP3 GT ISZERO PUSH2 0xA1A JUMPI PUSH2 0x9EB DUP2 PUSH2 0x8C2 JUMP JUMPDEST PUSH2 0x9F4 DUP5 PUSH2 0x8D4 JUMP JUMPDEST DUP2 ADD PUSH1 0x20 DUP6 LT ISZERO PUSH2 0xA03 JUMPI DUP2 SWAP1 POP JUMPDEST PUSH2 0xA17 PUSH2 0xA0F DUP6 PUSH2 0x8D4 JUMP JUMPDEST DUP4 ADD DUP3 PUSH2 0x9B7 JUMP JUMPDEST POP POP JUMPDEST POP POP POP JUMP JUMPDEST PUSH0 DUP3 DUP3 SHR SWAP1 POP SWAP3 SWAP2 POP POP JUMP JUMPDEST PUSH0 PUSH2 0xA3A PUSH0 NOT DUP5 PUSH1 0x8 MUL PUSH2 0xA1F JUMP JUMPDEST NOT DUP1 DUP4 AND SWAP2 POP POP SWAP3 SWAP2 POP POP JUMP JUMPDEST PUSH0 PUSH2 0xA52 DUP4 DUP4 PUSH2 0xA2B JUMP JUMPDEST SWAP2 POP DUP3 PUSH1 0x2 MUL DUP3 OR SWAP1 POP SWAP3 SWAP2 POP POP JUMP JUMPDEST PUSH2 0xA6B DUP3 PUSH2 0x571 JUMP JUMPDEST PUSH8 0xFFFFFFFFFFFFFFFF DUP2 GT ISZERO PUSH2 0xA84 JUMPI PUSH2 0xA83 PUSH2 0x631 JUMP JUMPDEST JUMPDEST PUSH2 0xA8E DUP3 SLOAD PUSH2 0x7F1 JUMP JUMPDEST PUSH2 0xA99 DUP3 DUP3 DUP6 PUSH2 0x9D9 JUMP JUMPDEST PUSH0 PUSH1 0x20 SWAP1 POP PUSH1 0x1F DUP4 GT PUSH1 0x1 DUP2 EQ PUSH2 0xACA JUMPI PUSH0 DUP5 ISZERO PUSH2 0xAB8 JUMPI DUP3 DUP8 ADD MLOAD SWAP1 POP JUMPDEST PUSH2 0xAC2 DUP6 DUP3 PUSH2 0xA47 JUMP JUMPDEST DUP7 SSTORE POP PUSH2 0xB29 JUMP JUMPDEST PUSH1 0x1F NOT DUP5 AND PUSH2 0xAD8 DUP7 PUSH2 0x8C2 JUMP JUMPDEST PUSH0 JUMPDEST DUP3 DUP2 LT ISZERO PUSH2 0xAFF JUMPI DUP5 DUP10 ADD MLOAD DUP3 SSTORE PUSH1 0x1 DUP3 ADD SWAP2 POP PUSH1 0x20 DUP6 ADD SWAP5 POP PUSH1 0x20 DUP2 ADD SWAP1 POP PUSH2 0xADA JUMP JUMPDEST DUP7 DUP4 LT ISZERO PUSH2 0xB1C JUMPI DUP5 DUP10 ADD MLOAD PUSH2 0xB18 PUSH1 0x1F DUP10 AND DUP3 PUSH2 0xA2B JUMP JUMPDEST DUP4 SSTORE POP JUMPDEST PUSH1 0x1 PUSH1 0x2 DUP9 MUL ADD DUP9 SSTORE POP POP POP JUMPDEST POP POP POP POP POP POP JUMP INVALID LOG2 PUSH5 0x6970667358 0x22 SLT KECCAK256 0x1F DUP10 0xC6 PUSH29 0xF3BDF6305981CA3E8DA36DAC4056C559D80524FDACAD3C721D6400D264 PUSH20 0x6F6C634300081E00330000000000000000000000 "
				},
				"gasEstimates": {
					"creation": {
						"codeDepositCost": "583800",
						"executionCost": "617",
						"totalCost": "584417"
					},
					"external": {
						"addTask(string)": "infinite",
						"getTask(uint256)": "infinite",
						"markDone(uint256)": "55671",
						"taskCount()": "2513",
						"taski(uint256)": "infinite",
						"tasks(uint256)": "infinite"
					}
				},
				"methodIdentifiers": {
					"addTask(string)": "67238562",
					"getTask(uint256)": "1d65e77e",
					"markDone(uint256)": "4ad0e590",
					"taskCount()": "b6cb58a5",
					"taski(uint256)": "0eddaecf",
					"tasks(uint256)": "8d977672"
				}
			},
			"storageLayout": {
				"storage": [
					{
						"astId": 10,
						"contract": "BaseTaskManager.sol:BaseTaskManager",
						"label": "taski",
						"offset": 0,
						"slot": "0",
						"type": "t_array(t_struct(Task)6_storage)dyn_storage"
					},
					{
						"astId": 12,
						"contract": "BaseTaskManager.sol:BaseTaskManager",
						"label": "taskCount",
						"offset": 0,
						"slot": "1",
						"type": "t_uint256"
					},
					{
						"astId": 17,
						"contract": "BaseTaskManager.sol:BaseTaskManager",
						"label": "tasks",
						"offset": 0,
						"slot": "2",
						"type": "t_mapping(t_uint256,t_struct(Task)6_storage)"
					}
				],
				"types": {
					"t_array(t_struct(Task)6_storage)dyn_storage": {
						"base": "t_struct(Task)6_storage",
						"encoding": "dynamic_array",
						"label": "struct BaseTaskManager.Task[]",
						"numberOfBytes": "32"
					},
					"t_bool": {
						"encoding": "inplace",
						"label": "bool",
						"numberOfBytes": "1"
					},
					"t_mapping(t_uint256,t_struct(Task)6_storage)": {
						"encoding": "mapping",
						"key": "t_uint256",
						"label": "mapping(uint256 => struct BaseTaskManager.Task)",
						"numberOfBytes": "32",
						"value": "t_struct(Task)6_storage"
					},
					"t_string_storage": {
						"encoding": "bytes",
						"label": "string",
						"numberOfBytes": "32"
					},
					"t_struct(Task)6_storage": {
						"encoding": "inplace",
						"label": "struct BaseTaskManager.Task",
						"members": [
							{
								"astId": 3,
								"contract": "BaseTaskManager.sol:BaseTaskManager",
								"label": "text",
								"offset": 0,
								"slot": "0",
								"type": "t_string_storage"
							},
							{
								"astId": 5,
								"contract": "BaseTaskManager.sol:BaseTaskManager",
								"label": "done",
								"offset": 0,
								"slot": "1",
								"type": "t_bool"
							}
						],
						"numberOfBytes": "64"
					},
					"t_uint256": {
						"encoding": "inplace",
						"label": "uint256",
						"numberOfBytes": "32"
					}
				}
			},
			"userdoc": {
				"kind": "user",
				"methods": {},
				"version": 1
			}
		}
	}
}