{
	"TaskManager.sol": {
		"TaskManager": {
			"abi": [
				{
					"inputs": [
						{
							"internalType": "string",
							"name": "text",
							"type": "string"
						}
					],
					"name": "addTask",
					"outputs": [],
					"stateMutability": "nonpayable",
					"type": "function"
				},
				{
					"inputs": [
						{
							"internalType": "string",
							"name": "text",
							"type": "string"
						},
						{
							"internalType": "uint256",
							"name": "points",
							"type": "uint256"
						}
					],
					"name": "addTaskWithPoints",
					"outputs": [],
					"stateMutability": "nonpayable",
					"type": "function"
				},
				{
					"inputs": [
						{
							"internalType": "uint256",
							"name": "index",
							"type": "uint256"
						}
					],
					"name": "getTask",
					"outputs": [
						{
							"internalType": "string",
							"name": "",
							"type": "string"
						},
						{
							"internalType": "bool",
							"name": "",
							"type": "bool"
						}
					],
					"stateMutability": "view",
					"type": "function"
				},
				{
					"inputs": [],
					"name": "globalStatus",
					"outputs": [
						{
							"internalType": "enum TaskManager.Status",
							"name": "",
							"type": "uint8"
						}
					],
					"stateMutability": "view",
					"type": "function"
				},
				{
					"inputs": [
						{
							"internalType": "uint256",
							"name": "index",
							"type": "uint256"
						}
					],
					"name": "markDone",
					"outputs": [],
					"stateMutability": "nonpayable",
					"type": "function"
				},
				{
					"inputs": [
						{
							"internalType": "enum TaskManager.Status",
							"name": "newStatus",
							"type": "uint8"
						}
					],
					"name": "setStatus",
					"outputs": [],
					"stateMutability": "nonpayable",
					"type": "function"
				},
				{
					"inputs": [],
					"name": "taskCount",
					"outputs": [
						{
							"internalType": "uint256",
							"name": "",
							"type": "uint256"
						}
					],
					"stateMutability": "view",
					"type": "function"
				},
				{
					"inputs": [
						{
							"internalType": "uint256",
							"name": "",
							"type": "uint256"
						}
					],
					"name": "taski",
					"outputs": [
						{
							"internalType": "string",
							"name": "text",
							"type": "string"
						},
						{
							"internalType": "bool",
							"name": "done",
							"type": "bool"
						}
					],
					"stateMutability": "view",
					"type": "function"
				},
				{
					"inputs": [
						{
							"internalType": "uint256",
							"name": "",
							"type": "uint256"
						}
					],
					"name": "tasks",
					"outputs": [
						{
							"internalType": "string",
							"name": "text",
							"type": "string"
						},
						{
							"internalType": "bool",
							"name": "done",
							"type": "bool"
						}
					],
					"stateMutability": "view",
					"type": "function"
				},
				{
					"inputs": [],
					"name": "totalPoints",
					"outputs": [
						{
							"internalType": "uint256",
							"name": "",
							"type": "uint256"
						}
					],
					"stateMutability": "view",
					"type": "function"
				}
			],
			"devdoc": {
				"kind": "dev",
				"methods": {},
				"version": 1
			},
			"evm": {
				"assembly": "    /* \"TaskManager.sol\":96:906  contract TaskManager is BaseTaskManager {... */\n  mstore(0x40, 0x80)\n  callvalue\n  dup1\n  iszero\n  tag_1\n  jumpi\n  revert(0x00, 0x00)\ntag_1:\n  pop\n  dataSize(sub_0)\n  dup1\n  dataOffset(sub_0)\n  0x00\n  codecopy\n  0x00\n  return\nstop\n\nsub_0: assembly {\n        /* \"TaskManager.sol\":96:906  contract TaskManager is BaseTaskManager {... */\n      mstore(0x40, 0x80)\n      callvalue\n      dup1\n      iszero\n      tag_1\n      jumpi\n      revert(0x00, 0x00)\n    tag_1:\n      pop\n      jumpi(tag_2, lt(calldatasize, 0x04))\n      shr(0xe0, calldataload(0x00))\n      dup1\n      0x5c9814cb\n      gt\n      tag_13\n      jumpi\n      dup1\n      0x5c9814cb\n      eq\n      tag_8\n      jumpi\n      dup1\n      0x67238562\n      eq\n      tag_9\n      jumpi\n      dup1\n      0x8d977672\n      eq\n      tag_10\n      jumpi\n      dup1\n      0xb6cb58a5\n      eq\n      tag_11\n      jumpi\n      dup1\n      0xb73f7951\n      eq\n      tag_12\n      jumpi\n      jump(tag_2)\n    tag_13:\n      dup1\n      0x0eddaecf\n      eq\n      tag_3\n      jumpi\n      dup1\n      0x1d65e77e\n      eq\n      tag_4\n      jumpi\n      dup1\n      0x2e49d78b\n      eq\n      tag_5\n      jumpi\n      dup1\n      0x4ad0e590\n      eq\n      tag_6\n      jumpi\n      dup1\n      0x567142be\n      eq\n      tag_7\n      jumpi\n    tag_2:\n      revert(0x00, 0x00)\n        /* \"BaseTaskManager.sol\":163:182  Task[] public taski */\n    tag_3:\n      tag_14\n      0x04\n      dup1\n      calldatasize\n      sub\n      dup2\n      add\n      swap1\n      tag_15\n      swap2\n      swap1\n      tag_16\n      jump\t// in\n    tag_15:\n      tag_17\n      jump\t// in\n    tag_14:\n      mload(0x40)\n      tag_18\n      swap3\n      swap2\n      swap1\n      tag_19\n      jump\t// in\n    tag_18:\n      mload(0x40)\n      dup1\n      swap2\n      sub\n      swap1\n      return\n        /* \"BaseTaskManager.sol\":394:563  function getTask(uint index) public view virtual returns (string memory, bool) {... */\n    tag_4:\n      tag_20\n      0x04\n      dup1\n      calldatasize\n      sub\n      dup2\n      add\n      swap1\n      tag_21\n      swap2\n      swap1\n      tag_16\n      jump\t// in\n    tag_21:\n      tag_22\n      jump\t// in\n    tag_20:\n      mload(0x40)\n      tag_23\n      swap3\n      swap2\n      swap1\n      tag_19\n      jump\t// in\n    tag_23:\n      mload(0x40)\n      dup1\n      swap2\n      sub\n      swap1\n      return\n        /* \"TaskManager.sol\":254:341  function setStatus(Status newStatus) public {... */\n    tag_5:\n      tag_24\n      0x04\n      dup1\n      calldatasize\n      sub\n      dup2\n      add\n      swap1\n      tag_25\n      swap2\n      swap1\n      tag_26\n      jump\t// in\n    tag_25:\n      tag_27\n      jump\t// in\n    tag_24:\n      stop\n        /* \"TaskManager.sol\":603:689  function markDone(uint index) public override {... */\n    tag_6:\n      tag_28\n      0x04\n      dup1\n      calldatasize\n      sub\n      dup2\n      add\n      swap1\n      tag_29\n      swap2\n      swap1\n      tag_16\n      jump\t// in\n    tag_29:\n      tag_30\n      jump\t// in\n    tag_28:\n      stop\n        /* \"TaskManager.sol\":222:245  uint public totalPoints */\n    tag_7:\n      tag_31\n      tag_32\n      jump\t// in\n    tag_31:\n      mload(0x40)\n      tag_33\n      swap2\n      swap1\n      tag_34\n      jump\t// in\n    tag_33:\n      mload(0x40)\n      dup1\n      swap2\n      sub\n      swap1\n      return\n        /* \"TaskManager.sol\":349:595  function addTaskWithPoints(string memory text, uint points) public {... */\n    tag_8:\n      tag_35\n      0x04\n      dup1\n      calldatasize\n      sub\n      dup2\n      add\n      swap1\n      tag_36\n      swap2\n      swap1\n      tag_37\n      jump\t// in\n    tag_36:\n      tag_38\n      jump\t// in\n    tag_35:\n      stop\n        /* \"BaseTaskManager.sol\":264:386  function addTask(string memory text) public virtual {... */\n    tag_9:\n      tag_39\n      0x04\n      dup1\n      calldatasize\n      sub\n      dup2\n      add\n      swap1\n      tag_40\n      swap2\n      swap1\n      tag_41\n      jump\t// in\n    tag_40:\n      tag_42\n      jump\t// in\n    tag_39:\n      stop\n        /* \"BaseTaskManager.sol\":220:255  mapping (uint => Task) public tasks */\n    tag_10:\n      tag_43\n      0x04\n      dup1\n      calldatasize\n      sub\n      dup2\n      add\n      swap1\n      tag_44\n      swap2\n      swap1\n      tag_16\n      jump\t// in\n    tag_44:\n      tag_45\n      jump\t// in\n    tag_43:\n      mload(0x40)\n      tag_46\n      swap3\n      swap2\n      swap1\n      tag_19\n      jump\t// in\n    tag_46:\n      mload(0x40)\n      dup1\n      swap2\n      sub\n      swap1\n      return\n        /* \"BaseTaskManager.sol\":192:213  uint public taskCount */\n    tag_11:\n      tag_47\n      tag_48\n      jump\t// in\n    tag_47:\n      mload(0x40)\n      tag_49\n      swap2\n      swap1\n      tag_34\n      jump\t// in\n    tag_49:\n      mload(0x40)\n      dup1\n      swap2\n      sub\n      swap1\n      return\n        /* \"TaskManager.sol\":187:213  Status public globalStatus */\n    tag_12:\n      tag_50\n      tag_51\n      jump\t// in\n    tag_50:\n      mload(0x40)\n      tag_52\n      swap2\n      swap1\n      tag_53\n      jump\t// in\n    tag_52:\n      mload(0x40)\n      dup1\n      swap2\n      sub\n      swap1\n      return\n        /* \"BaseTaskManager.sol\":163:182  Task[] public taski */\n    tag_17:\n      0x00\n      dup2\n      dup2\n      sload\n      dup2\n      lt\n      tag_54\n      jumpi\n      0x00\n      dup1\n      revert\n    tag_54:\n      swap1\n      0x00\n      mstore\n      keccak256(0x00, 0x20)\n      swap1\n      0x02\n      mul\n      add\n      0x00\n      swap2\n      pop\n      swap1\n      pop\n      dup1\n      0x00\n      add\n      dup1\n      sload\n      tag_56\n      swap1\n      tag_57\n      jump\t// in\n    tag_56:\n      dup1\n      0x1f\n      add\n      0x20\n      dup1\n      swap2\n      div\n      mul\n      0x20\n      add\n      mload(0x40)\n      swap1\n      dup2\n      add\n      0x40\n      mstore\n      dup1\n      swap3\n      swap2\n      swap1\n      dup2\n      dup2\n      mstore\n      0x20\n      add\n      dup3\n      dup1\n      sload\n      tag_58\n      swap1\n      tag_57\n      jump\t// in\n    tag_58:\n      dup1\n      iszero\n      tag_59\n      jumpi\n      dup1\n      0x1f\n      lt\n      tag_60\n      jumpi\n      0x0100\n      dup1\n      dup4\n      sload\n      div\n      mul\n      dup4\n      mstore\n      swap2\n      0x20\n      add\n      swap2\n      jump(tag_59)\n    tag_60:\n      dup3\n      add\n      swap2\n      swap1\n      0x00\n      mstore\n      keccak256(0x00, 0x20)\n      swap1\n    tag_61:\n      dup2\n      sload\n      dup2\n      mstore\n      swap1\n      0x01\n      add\n      swap1\n      0x20\n      add\n      dup1\n      dup4\n      gt\n      tag_61\n      jumpi\n      dup3\n      swap1\n      sub\n      0x1f\n      and\n      dup3\n      add\n      swap2\n    tag_59:\n      pop\n      pop\n      pop\n      pop\n      pop\n      swap1\n      dup1\n      0x01\n      add\n      0x00\n      swap1\n      sload\n      swap1\n      0x0100\n      exp\n      swap1\n      div\n      0xff\n      and\n      swap1\n      pop\n      dup3\n      jump\t// out\n        /* \"BaseTaskManager.sol\":394:563  function getTask(uint index) public view virtual returns (string memory, bool) {... */\n    tag_22:\n        /* \"BaseTaskManager.sol\":452:465  string memory */\n      0x60\n        /* \"BaseTaskManager.sol\":467:471  bool */\n      0x00\n        /* \"BaseTaskManager.sol\":484:500  Task memory task */\n      0x00\n        /* \"BaseTaskManager.sol\":503:508  taski */\n      0x00\n        /* \"BaseTaskManager.sol\":509:514  index */\n      dup5\n        /* \"BaseTaskManager.sol\":503:515  taski[index] */\n      dup2\n      sload\n      dup2\n      lt\n      tag_63\n      jumpi\n      tag_64\n      tag_65\n      jump\t// in\n    tag_64:\n    tag_63:\n      swap1\n      0x00\n      mstore\n      keccak256(0x00, 0x20)\n      swap1\n      0x02\n      mul\n      add\n        /* \"BaseTaskManager.sol\":484:515  Task memory task = taski[index] */\n      mload(0x40)\n      dup1\n      0x40\n      add\n      0x40\n      mstore\n      swap1\n      dup2\n      0x00\n      dup3\n      add\n      dup1\n      sload\n      tag_67\n      swap1\n      tag_57\n      jump\t// in\n    tag_67:\n      dup1\n      0x1f\n      add\n      0x20\n      dup1\n      swap2\n      div\n      mul\n      0x20\n      add\n      mload(0x40)\n      swap1\n      dup2\n      add\n      0x40\n      mstore\n      dup1\n      swap3\n      swap2\n      swap1\n      dup2\n      dup2\n      mstore\n      0x20\n      add\n      dup3\n      dup1\n      sload\n      tag_68\n      swap1\n      tag_57\n      jump\t// in\n    tag_68:\n      dup1\n      iszero\n      tag_69\n      jumpi\n      dup1\n      0x1f\n      lt\n      tag_70\n      jumpi\n      0x0100\n      dup1\n      dup4\n      sload\n      div\n      mul\n      dup4\n      mstore\n      swap2\n      0x20\n      add\n      swap2\n      jump(tag_69)\n    tag_70:\n      dup3\n      add\n      swap2\n      swap1\n      0x00\n      mstore\n      keccak256(0x00, 0x20)\n      swap1\n    tag_71:\n      dup2\n      sload\n      dup2\n      mstore\n      swap1\n      0x01\n      add\n      swap1\n      0x20\n      add\n      dup1\n      dup4\n      gt\n      tag_71\n      jumpi\n      dup3\n      swap1\n      sub\n      0x1f\n      and\n      dup3\n      add\n      swap2\n    tag_69:\n      pop\n      pop\n      pop\n      pop\n      pop\n      dup2\n      mstore\n      0x20\n      add\n      0x01\n      dup3\n      add\n      0x00\n      swap1\n      sload\n      swap1\n      0x0100\n      exp\n      swap1\n      div\n      0xff\n      and\n      iszero\n      iszero\n      iszero\n      iszero\n      dup2\n      mstore\n      pop\n      pop\n      swap1\n      pop\n        /* \"BaseTaskManager.sol\":534:538  task */\n      dup1\n        /* \"BaseTaskManager.sol\":534:543  task.text */\n      0x00\n      add\n      mload\n        /* \"BaseTaskManager.sol\":545:549  task */\n      dup2\n        /* \"BaseTaskManager.sol\":545:554  task.done */\n      0x20\n      add\n      mload\n        /* \"BaseTaskManager.sol\":526:555  return (task.text, task.done) */\n      swap3\n      pop\n      swap3\n      pop\n      pop\n        /* \"BaseTaskManager.sol\":394:563  function getTask(uint index) public view virtual returns (string memory, bool) {... */\n      swap2\n      pop\n      swap2\n      jump\t// out\n        /* \"TaskManager.sol\":254:341  function setStatus(Status newStatus) public {... */\n    tag_27:\n        /* \"TaskManager.sol\":324:333  newStatus */\n      dup1\n        /* \"TaskManager.sol\":309:321  globalStatus */\n      0x03\n      0x00\n        /* \"TaskManager.sol\":309:333  globalStatus = newStatus */\n      0x0100\n      exp\n      dup2\n      sload\n      dup2\n      0xff\n      mul\n      not\n      and\n      swap1\n      dup4\n      0x02\n      dup2\n      gt\n      iszero\n      tag_73\n      jumpi\n      tag_74\n      tag_75\n      jump\t// in\n    tag_74:\n    tag_73:\n      mul\n      or\n      swap1\n      sstore\n      pop\n        /* \"TaskManager.sol\":254:341  function setStatus(Status newStatus) public {... */\n      pop\n      jump\t// out\n        /* \"TaskManager.sol\":603:689  function markDone(uint index) public override {... */\n    tag_30:\n        /* \"TaskManager.sol\":660:681  super.markDone(index) */\n      tag_77\n        /* \"TaskManager.sol\":675:680  index */\n      dup2\n        /* \"TaskManager.sol\":660:674  super.markDone */\n      tag_78\n        /* \"TaskManager.sol\":660:681  super.markDone(index) */\n      jump\t// in\n    tag_77:\n        /* \"TaskManager.sol\":603:689  function markDone(uint index) public override {... */\n      pop\n      jump\t// out\n        /* \"TaskManager.sol\":222:245  uint public totalPoints */\n    tag_32:\n      sload(0x04)\n      dup2\n      jump\t// out\n        /* \"TaskManager.sol\":349:595  function addTaskWithPoints(string memory text, uint points) public {... */\n    tag_38:\n        /* \"TaskManager.sol\":445:448  100 */\n      0x64\n        /* \"TaskManager.sol\":435:441  points */\n      dup2\n        /* \"TaskManager.sol\":435:448  points >= 100 */\n      lt\n      iszero\n        /* \"TaskManager.sol\":427:525  require(points >= 100, unicode\"Оценка не может превысить 100 баллов!\") */\n      tag_80\n      jumpi\n      mload(0x40)\n      0x08c379a000000000000000000000000000000000000000000000000000000000\n      dup2\n      mstore\n      0x04\n      add\n      tag_81\n      swap1\n      tag_82\n      jump\t// in\n    tag_81:\n      mload(0x40)\n      dup1\n      swap2\n      sub\n      swap1\n      revert\n    tag_80:\n        /* \"TaskManager.sol\":536:555  super.addTask(text) */\n      tag_83\n        /* \"TaskManager.sol\":550:554  text */\n      dup3\n        /* \"TaskManager.sol\":536:549  super.addTask */\n      tag_42\n        /* \"TaskManager.sol\":536:555  super.addTask(text) */\n      jump\t// in\n    tag_83:\n        /* \"TaskManager.sol\":581:587  points */\n      dup1\n        /* \"TaskManager.sol\":566:577  totalPoints */\n      0x04\n      0x00\n        /* \"TaskManager.sol\":566:587  totalPoints += points */\n      dup3\n      dup3\n      sload\n      tag_84\n      swap2\n      swap1\n      tag_85\n      jump\t// in\n    tag_84:\n      swap3\n      pop\n      pop\n      dup2\n      swap1\n      sstore\n      pop\n        /* \"TaskManager.sol\":349:595  function addTaskWithPoints(string memory text, uint points) public {... */\n      pop\n      pop\n      jump\t// out\n        /* \"BaseTaskManager.sol\":264:386  function addTask(string memory text) public virtual {... */\n    tag_42:\n        /* \"BaseTaskManager.sol\":327:336  taskCount */\n      0x01\n      0x00\n        /* \"BaseTaskManager.sol\":327:338  taskCount++ */\n      dup2\n      sload\n      dup1\n      swap3\n      swap2\n      swap1\n      tag_87\n      swap1\n      tag_88\n      jump\t// in\n    tag_87:\n      swap2\n      swap1\n      pop\n      sstore\n      pop\n        /* \"BaseTaskManager.sol\":349:354  taski */\n      0x00\n        /* \"BaseTaskManager.sol\":360:377  Task(text, false) */\n      mload(0x40)\n      dup1\n      0x40\n      add\n      0x40\n      mstore\n      dup1\n        /* \"BaseTaskManager.sol\":365:369  text */\n      dup4\n        /* \"BaseTaskManager.sol\":360:377  Task(text, false) */\n      dup2\n      mstore\n      0x20\n      add\n        /* \"BaseTaskManager.sol\":371:376  false */\n      0x00\n        /* \"BaseTaskManager.sol\":360:377  Task(text, false) */\n      iszero\n      iszero\n      dup2\n      mstore\n      pop\n        /* \"BaseTaskManager.sol\":349:378  taski.push(Task(text, false)) */\n      swap1\n      dup1\n      0x01\n      dup2\n      sload\n      add\n      dup1\n      dup3\n      sstore\n      dup1\n      swap2\n      pop\n      pop\n      0x01\n      swap1\n      sub\n      swap1\n      0x00\n      mstore\n      keccak256(0x00, 0x20)\n      swap1\n      0x02\n      mul\n      add\n      0x00\n      swap1\n      swap2\n      swap1\n      swap2\n      swap1\n      swap2\n      pop\n      0x00\n      dup3\n      add\n      mload\n      dup2\n      0x00\n      add\n      swap1\n      dup2\n      tag_90\n      swap2\n      swap1\n      tag_91\n      jump\t// in\n    tag_90:\n      pop\n      0x20\n      dup3\n      add\n      mload\n      dup2\n      0x01\n      add\n      exp(0x0100, 0x00)\n      dup2\n      sload\n      dup2\n      0xff\n      mul\n      not\n      and\n      swap1\n      dup4\n      iszero\n      iszero\n      mul\n      or\n      swap1\n      sstore\n      pop\n      pop\n      pop\n        /* \"BaseTaskManager.sol\":264:386  function addTask(string memory text) public virtual {... */\n      pop\n      jump\t// out\n        /* \"BaseTaskManager.sol\":220:255  mapping (uint => Task) public tasks */\n    tag_45:\n      mstore(0x20, 0x02)\n      dup1\n      0x00\n      mstore\n      keccak256(0x00, 0x40)\n      0x00\n      swap2\n      pop\n      swap1\n      pop\n      dup1\n      0x00\n      add\n      dup1\n      sload\n      tag_92\n      swap1\n      tag_57\n      jump\t// in\n    tag_92:\n      dup1\n      0x1f\n      add\n      0x20\n      dup1\n      swap2\n      div\n      mul\n      0x20\n      add\n      mload(0x40)\n      swap1\n      dup2\n      add\n      0x40\n      mstore\n      dup1\n      swap3\n      swap2\n      swap1\n      dup2\n      dup2\n      mstore\n      0x20\n      add\n      dup3\n      dup1\n      sload\n      tag_93\n      swap1\n      tag_57\n      jump\t// in\n    tag_93:\n      dup1\n      iszero\n      tag_94\n      jumpi\n      dup1\n      0x1f\n      lt\n      tag_95\n      jumpi\n      0x0100\n      dup1\n      dup4\n      sload\n      div\n      mul\n      dup4\n      mstore\n      swap2\n      0x20\n      add\n      swap2\n      jump(tag_94)\n    tag_95:\n      dup3\n      add\n      swap2\n      swap1\n      0x00\n      mstore\n      keccak256(0x00, 0x20)\n      swap1\n    tag_96:\n      dup2\n      sload\n      dup2\n      mstore\n      swap1\n      0x01\n      add\n      swap1\n      0x20\n      add\n      dup1\n      dup4\n      gt\n      tag_96\n      jumpi\n      dup3\n      swap1\n      sub\n      0x1f\n      and\n      dup3\n      add\n      swap2\n    tag_94:\n      pop\n      pop\n      pop\n      pop\n      pop\n      swap1\n      dup1\n      0x01\n      add\n      0x00\n      swap1\n      sload\n      swap1\n      0x0100\n      exp\n      swap1\n      div\n      0xff\n      and\n      swap1\n      pop\n      dup3\n      jump\t// out\n        /* \"BaseTaskManager.sol\":192:213  uint public taskCount */\n    tag_48:\n      sload(0x01)\n      dup2\n      jump\t// out\n        /* \"TaskManager.sol\":187:213  Status public globalStatus */\n    tag_51:\n      0x03\n      0x00\n      swap1\n      sload\n      swap1\n      0x0100\n      exp\n      swap1\n      div\n      0xff\n      and\n      dup2\n      jump\t// out\n        /* \"BaseTaskManager.sol\":571:659  function markDone(uint index) public virtual {... */\n    tag_78:\n        /* \"BaseTaskManager.sol\":647:651  true */\n      0x01\n        /* \"BaseTaskManager.sol\":627:632  taski */\n      0x00\n        /* \"BaseTaskManager.sol\":633:638  index */\n      dup3\n        /* \"BaseTaskManager.sol\":627:639  taski[index] */\n      dup2\n      sload\n      dup2\n      lt\n      tag_98\n      jumpi\n      tag_99\n      tag_65\n      jump\t// in\n    tag_99:\n    tag_98:\n      swap1\n      0x00\n      mstore\n      keccak256(0x00, 0x20)\n      swap1\n      0x02\n      mul\n      add\n        /* \"BaseTaskManager.sol\":627:644  taski[index].done */\n      0x01\n      add\n      0x00\n        /* \"BaseTaskManager.sol\":627:651  taski[index].done = true */\n      0x0100\n      exp\n      dup2\n      sload\n      dup2\n      0xff\n      mul\n      not\n      and\n      swap1\n      dup4\n      iszero\n      iszero\n      mul\n      or\n      swap1\n      sstore\n      pop\n        /* \"BaseTaskManager.sol\":571:659  function markDone(uint index) public virtual {... */\n      pop\n      jump\t// out\n        /* \"#utility.yul\":7:82   */\n    tag_101:\n        /* \"#utility.yul\":40:46   */\n      0x00\n        /* \"#utility.yul\":73:75   */\n      0x40\n        /* \"#utility.yul\":67:76   */\n      mload\n        /* \"#utility.yul\":57:76   */\n      swap1\n      pop\n        /* \"#utility.yul\":7:82   */\n      swap1\n      jump\t// out\n        /* \"#utility.yul\":88:205   */\n    tag_102:\n        /* \"#utility.yul\":197:198   */\n      0x00\n        /* \"#utility.yul\":194:195   */\n      0x00\n        /* \"#utility.yul\":187:199   */\n      revert\n        /* \"#utility.yul\":211:328   */\n    tag_103:\n        /* \"#utility.yul\":320:321   */\n      0x00\n        /* \"#utility.yul\":317:318   */\n      0x00\n        /* \"#utility.yul\":310:322   */\n      revert\n        /* \"#utility.yul\":334:411   */\n    tag_104:\n        /* \"#utility.yul\":371:378   */\n      0x00\n        /* \"#utility.yul\":400:405   */\n      dup2\n        /* \"#utility.yul\":389:405   */\n      swap1\n      pop\n        /* \"#utility.yul\":334:411   */\n      swap2\n      swap1\n      pop\n      jump\t// out\n        /* \"#utility.yul\":417:539   */\n    tag_105:\n        /* \"#utility.yul\":490:514   */\n      tag_155\n        /* \"#utility.yul\":508:513   */\n      dup2\n        /* \"#utility.yul\":490:514   */\n      tag_104\n      jump\t// in\n    tag_155:\n        /* \"#utility.yul\":483:488   */\n      dup2\n        /* \"#utility.yul\":480:515   */\n      eq\n        /* \"#utility.yul\":470:533   */\n      tag_156\n      jumpi\n        /* \"#utility.yul\":529:530   */\n      0x00\n        /* \"#utility.yul\":526:527   */\n      0x00\n        /* \"#utility.yul\":519:531   */\n      revert\n        /* \"#utility.yul\":470:533   */\n    tag_156:\n        /* \"#utility.yul\":417:539   */\n      pop\n      jump\t// out\n        /* \"#utility.yul\":545:684   */\n    tag_106:\n        /* \"#utility.yul\":591:596   */\n      0x00\n        /* \"#utility.yul\":629:635   */\n      dup2\n        /* \"#utility.yul\":616:636   */\n      calldataload\n        /* \"#utility.yul\":607:636   */\n      swap1\n      pop\n        /* \"#utility.yul\":645:678   */\n      tag_158\n        /* \"#utility.yul\":672:677   */\n      dup2\n        /* \"#utility.yul\":645:678   */\n      tag_105\n      jump\t// in\n    tag_158:\n        /* \"#utility.yul\":545:684   */\n      swap3\n      swap2\n      pop\n      pop\n      jump\t// out\n        /* \"#utility.yul\":690:1019   */\n    tag_16:\n        /* \"#utility.yul\":749:755   */\n      0x00\n        /* \"#utility.yul\":798:800   */\n      0x20\n        /* \"#utility.yul\":786:795   */\n      dup3\n        /* \"#utility.yul\":777:784   */\n      dup5\n        /* \"#utility.yul\":773:796   */\n      sub\n        /* \"#utility.yul\":769:801   */\n      slt\n        /* \"#utility.yul\":766:885   */\n      iszero\n      tag_160\n      jumpi\n        /* \"#utility.yul\":804:883   */\n      tag_161\n      tag_102\n      jump\t// in\n    tag_161:\n        /* \"#utility.yul\":766:885   */\n    tag_160:\n        /* \"#utility.yul\":924:925   */\n      0x00\n        /* \"#utility.yul\":949:1002   */\n      tag_162\n        /* \"#utility.yul\":994:1001   */\n      dup5\n        /* \"#utility.yul\":985:991   */\n      dup3\n        /* \"#utility.yul\":974:983   */\n      dup6\n        /* \"#utility.yul\":970:992   */\n      add\n        /* \"#utility.yul\":949:1002   */\n      tag_106\n      jump\t// in\n    tag_162:\n        /* \"#utility.yul\":939:1002   */\n      swap2\n      pop\n        /* \"#utility.yul\":895:1012   */\n      pop\n        /* \"#utility.yul\":690:1019   */\n      swap3\n      swap2\n      pop\n      pop\n      jump\t// out\n        /* \"#utility.yul\":1025:1124   */\n    tag_107:\n        /* \"#utility.yul\":1077:1083   */\n      0x00\n        /* \"#utility.yul\":1111:1116   */\n      dup2\n        /* \"#utility.yul\":1105:1117   */\n      mload\n        /* \"#utility.yul\":1095:1117   */\n      swap1\n      pop\n        /* \"#utility.yul\":1025:1124   */\n      swap2\n      swap1\n      pop\n      jump\t// out\n        /* \"#utility.yul\":1130:1299   */\n    tag_108:\n        /* \"#utility.yul\":1214:1225   */\n      0x00\n        /* \"#utility.yul\":1248:1254   */\n      dup3\n        /* \"#utility.yul\":1243:1246   */\n      dup3\n        /* \"#utility.yul\":1236:1255   */\n      mstore\n        /* \"#utility.yul\":1288:1292   */\n      0x20\n        /* \"#utility.yul\":1283:1286   */\n      dup3\n        /* \"#utility.yul\":1279:1293   */\n      add\n        /* \"#utility.yul\":1264:1293   */\n      swap1\n      pop\n        /* \"#utility.yul\":1130:1299   */\n      swap3\n      swap2\n      pop\n      pop\n      jump\t// out\n        /* \"#utility.yul\":1305:1444   */\n    tag_109:\n        /* \"#utility.yul\":1394:1400   */\n      dup3\n        /* \"#utility.yul\":1389:1392   */\n      dup2\n        /* \"#utility.yul\":1384:1387   */\n      dup4\n        /* \"#utility.yul\":1378:1401   */\n      mcopy\n        /* \"#utility.yul\":1435:1436   */\n      0x00\n        /* \"#utility.yul\":1426:1432   */\n      dup4\n        /* \"#utility.yul\":1421:1424   */\n      dup4\n        /* \"#utility.yul\":1417:1433   */\n      add\n        /* \"#utility.yul\":1410:1437   */\n      mstore\n        /* \"#utility.yul\":1305:1444   */\n      pop\n      pop\n      pop\n      jump\t// out\n        /* \"#utility.yul\":1450:1552   */\n    tag_110:\n        /* \"#utility.yul\":1491:1497   */\n      0x00\n        /* \"#utility.yul\":1542:1544   */\n      0x1f\n        /* \"#utility.yul\":1538:1545   */\n      not\n        /* \"#utility.yul\":1533:1535   */\n      0x1f\n        /* \"#utility.yul\":1526:1531   */\n      dup4\n        /* \"#utility.yul\":1522:1536   */\n      add\n        /* \"#utility.yul\":1518:1546   */\n      and\n        /* \"#utility.yul\":1508:1546   */\n      swap1\n      pop\n        /* \"#utility.yul\":1450:1552   */\n      swap2\n      swap1\n      pop\n      jump\t// out\n        /* \"#utility.yul\":1558:1935   */\n    tag_111:\n        /* \"#utility.yul\":1646:1649   */\n      0x00\n        /* \"#utility.yul\":1674:1713   */\n      tag_168\n        /* \"#utility.yul\":1707:1712   */\n      dup3\n        /* \"#utility.yul\":1674:1713   */\n      tag_107\n      jump\t// in\n    tag_168:\n        /* \"#utility.yul\":1729:1800   */\n      tag_169\n        /* \"#utility.yul\":1793:1799   */\n      dup2\n        /* \"#utility.yul\":1788:1791   */\n      dup6\n        /* \"#utility.yul\":1729:1800   */\n      tag_108\n      jump\t// in\n    tag_169:\n        /* \"#utility.yul\":1722:1800   */\n      swap4\n      pop\n        /* \"#utility.yul\":1809:1874   */\n      tag_170\n        /* \"#utility.yul\":1867:1873   */\n      dup2\n        /* \"#utility.yul\":1862:1865   */\n      dup6\n        /* \"#utility.yul\":1855:1859   */\n      0x20\n        /* \"#utility.yul\":1848:1853   */\n      dup7\n        /* \"#utility.yul\":1844:1860   */\n      add\n        /* \"#utility.yul\":1809:1874   */\n      tag_109\n      jump\t// in\n    tag_170:\n        /* \"#utility.yul\":1899:1928   */\n      tag_171\n        /* \"#utility.yul\":1921:1927   */\n      dup2\n        /* \"#utility.yul\":1899:1928   */\n      tag_110\n      jump\t// in\n    tag_171:\n        /* \"#utility.yul\":1894:1897   */\n      dup5\n        /* \"#utility.yul\":1890:1929   */\n      add\n        /* \"#utility.yul\":1883:1929   */\n      swap2\n      pop\n        /* \"#utility.yul\":1650:1935   */\n      pop\n        /* \"#utility.yul\":1558:1935   */\n      swap3\n      swap2\n      pop\n      pop\n      jump\t// out\n        /* \"#utility.yul\":1941:2031   */\n    tag_112:\n        /* \"#utility.yul\":1975:1982   */\n      0x00\n        /* \"#utility.yul\":2018:2023   */\n      dup2\n        /* \"#utility.yul\":2011:2024   */\n      iszero\n        /* \"#utility.yul\":2004:2025   */\n      iszero\n        /* \"#utility.yul\":1993:2025   */\n      swap1\n      pop\n        /* \"#utility.yul\":1941:2031   */\n      swap2\n      swap1\n      pop\n      jump\t// out\n        /* \"#utility.yul\":2037:2146   */\n    tag_113:\n        /* \"#utility.yul\":2118:2139   */\n      tag_174\n        /* \"#utility.yul\":2133:2138   */\n      dup2\n        /* \"#utility.yul\":2118:2139   */\n      tag_112\n      jump\t// in\n    tag_174:\n        /* \"#utility.yul\":2113:2116   */\n      dup3\n        /* \"#utility.yul\":2106:2140   */\n      mstore\n        /* \"#utility.yul\":2037:2146   */\n      pop\n      pop\n      jump\t// out\n        /* \"#utility.yul\":2152:2563   */\n    tag_19:\n        /* \"#utility.yul\":2287:2291   */\n      0x00\n        /* \"#utility.yul\":2325:2327   */\n      0x40\n        /* \"#utility.yul\":2314:2323   */\n      dup3\n        /* \"#utility.yul\":2310:2328   */\n      add\n        /* \"#utility.yul\":2302:2328   */\n      swap1\n      pop\n        /* \"#utility.yul\":2374:2383   */\n      dup2\n        /* \"#utility.yul\":2368:2372   */\n      dup2\n        /* \"#utility.yul\":2364:2384   */\n      sub\n        /* \"#utility.yul\":2360:2361   */\n      0x00\n        /* \"#utility.yul\":2349:2358   */\n      dup4\n        /* \"#utility.yul\":2345:2362   */\n      add\n        /* \"#utility.yul\":2338:2385   */\n      mstore\n        /* \"#utility.yul\":2402:2480   */\n      tag_176\n        /* \"#utility.yul\":2475:2479   */\n      dup2\n        /* \"#utility.yul\":2466:2472   */\n      dup6\n        /* \"#utility.yul\":2402:2480   */\n      tag_111\n      jump\t// in\n    tag_176:\n        /* \"#utility.yul\":2394:2480   */\n      swap1\n      pop\n        /* \"#utility.yul\":2490:2556   */\n      tag_177\n        /* \"#utility.yul\":2552:2554   */\n      0x20\n        /* \"#utility.yul\":2541:2550   */\n      dup4\n        /* \"#utility.yul\":2537:2555   */\n      add\n        /* \"#utility.yul\":2528:2534   */\n      dup5\n        /* \"#utility.yul\":2490:2556   */\n      tag_113\n      jump\t// in\n    tag_177:\n        /* \"#utility.yul\":2152:2563   */\n      swap4\n      swap3\n      pop\n      pop\n      pop\n      jump\t// out\n        /* \"#utility.yul\":2569:2677   */\n    tag_114:\n        /* \"#utility.yul\":2651:2652   */\n      0x03\n        /* \"#utility.yul\":2644:2649   */\n      dup2\n        /* \"#utility.yul\":2641:2653   */\n      lt\n        /* \"#utility.yul\":2631:2671   */\n      tag_179\n      jumpi\n        /* \"#utility.yul\":2667:2668   */\n      0x00\n        /* \"#utility.yul\":2664:2665   */\n      0x00\n        /* \"#utility.yul\":2657:2669   */\n      revert\n        /* \"#utility.yul\":2631:2671   */\n    tag_179:\n        /* \"#utility.yul\":2569:2677   */\n      pop\n      jump\t// out\n        /* \"#utility.yul\":2683:2840   */\n    tag_115:\n        /* \"#utility.yul\":2738:2743   */\n      0x00\n        /* \"#utility.yul\":2776:2782   */\n      dup2\n        /* \"#utility.yul\":2763:2783   */\n      calldataload\n        /* \"#utility.yul\":2754:2783   */\n      swap1\n      pop\n        /* \"#utility.yul\":2792:2834   */\n      tag_181\n        /* \"#utility.yul\":2828:2833   */\n      dup2\n        /* \"#utility.yul\":2792:2834   */\n      tag_114\n      jump\t// in\n    tag_181:\n        /* \"#utility.yul\":2683:2840   */\n      swap3\n      swap2\n      pop\n      pop\n      jump\t// out\n        /* \"#utility.yul\":2846:3193   */\n    tag_26:\n        /* \"#utility.yul\":2914:2920   */\n      0x00\n        /* \"#utility.yul\":2963:2965   */\n      0x20\n        /* \"#utility.yul\":2951:2960   */\n      dup3\n        /* \"#utility.yul\":2942:2949   */\n      dup5\n        /* \"#utility.yul\":2938:2961   */\n      sub\n        /* \"#utility.yul\":2934:2966   */\n      slt\n        /* \"#utility.yul\":2931:3050   */\n      iszero\n      tag_183\n      jumpi\n        /* \"#utility.yul\":2969:3048   */\n      tag_184\n      tag_102\n      jump\t// in\n    tag_184:\n        /* \"#utility.yul\":2931:3050   */\n    tag_183:\n        /* \"#utility.yul\":3089:3090   */\n      0x00\n        /* \"#utility.yul\":3114:3176   */\n      tag_185\n        /* \"#utility.yul\":3168:3175   */\n      dup5\n        /* \"#utility.yul\":3159:3165   */\n      dup3\n        /* \"#utility.yul\":3148:3157   */\n      dup6\n        /* \"#utility.yul\":3144:3166   */\n      add\n        /* \"#utility.yul\":3114:3176   */\n      tag_115\n      jump\t// in\n    tag_185:\n        /* \"#utility.yul\":3104:3176   */\n      swap2\n      pop\n        /* \"#utility.yul\":3060:3186   */\n      pop\n        /* \"#utility.yul\":2846:3193   */\n      swap3\n      swap2\n      pop\n      pop\n      jump\t// out\n        /* \"#utility.yul\":3199:3317   */\n    tag_116:\n        /* \"#utility.yul\":3286:3310   */\n      tag_187\n        /* \"#utility.yul\":3304:3309   */\n      dup2\n        /* \"#utility.yul\":3286:3310   */\n      tag_104\n      jump\t// in\n    tag_187:\n        /* \"#utility.yul\":3281:3284   */\n      dup3\n        /* \"#utility.yul\":3274:3311   */\n      mstore\n        /* \"#utility.yul\":3199:3317   */\n      pop\n      pop\n      jump\t// out\n        /* \"#utility.yul\":3323:3545   */\n    tag_34:\n        /* \"#utility.yul\":3416:3420   */\n      0x00\n        /* \"#utility.yul\":3454:3456   */\n      0x20\n        /* \"#utility.yul\":3443:3452   */\n      dup3\n        /* \"#utility.yul\":3439:3457   */\n      add\n        /* \"#utility.yul\":3431:3457   */\n      swap1\n      pop\n        /* \"#utility.yul\":3467:3538   */\n      tag_189\n        /* \"#utility.yul\":3535:3536   */\n      0x00\n        /* \"#utility.yul\":3524:3533   */\n      dup4\n        /* \"#utility.yul\":3520:3537   */\n      add\n        /* \"#utility.yul\":3511:3517   */\n      dup5\n        /* \"#utility.yul\":3467:3538   */\n      tag_116\n      jump\t// in\n    tag_189:\n        /* \"#utility.yul\":3323:3545   */\n      swap3\n      swap2\n      pop\n      pop\n      jump\t// out\n        /* \"#utility.yul\":3551:3668   */\n    tag_117:\n        /* \"#utility.yul\":3660:3661   */\n      0x00\n        /* \"#utility.yul\":3657:3658   */\n      0x00\n        /* \"#utility.yul\":3650:3662   */\n      revert\n        /* \"#utility.yul\":3674:3791   */\n    tag_118:\n        /* \"#utility.yul\":3783:3784   */\n      0x00\n        /* \"#utility.yul\":3780:3781   */\n      0x00\n        /* \"#utility.yul\":3773:3785   */\n      revert\n        /* \"#utility.yul\":3797:3977   */\n    tag_119:\n        /* \"#utility.yul\":3845:3922   */\n      0x4e487b7100000000000000000000000000000000000000000000000000000000\n        /* \"#utility.yul\":3842:3843   */\n      0x00\n        /* \"#utility.yul\":3835:3923   */\n      mstore\n        /* \"#utility.yul\":3942:3946   */\n      0x41\n        /* \"#utility.yul\":3939:3940   */\n      0x04\n        /* \"#utility.yul\":3932:3947   */\n      mstore\n        /* \"#utility.yul\":3966:3970   */\n      0x24\n        /* \"#utility.yul\":3963:3964   */\n      0x00\n        /* \"#utility.yul\":3956:3971   */\n      revert\n        /* \"#utility.yul\":3983:4264   */\n    tag_120:\n        /* \"#utility.yul\":4066:4093   */\n      tag_194\n        /* \"#utility.yul\":4088:4092   */\n      dup3\n        /* \"#utility.yul\":4066:4093   */\n      tag_110\n      jump\t// in\n    tag_194:\n        /* \"#utility.yul\":4058:4064   */\n      dup2\n        /* \"#utility.yul\":4054:4094   */\n      add\n        /* \"#utility.yul\":4196:4202   */\n      dup2\n        /* \"#utility.yul\":4184:4194   */\n      dup2\n        /* \"#utility.yul\":4181:4203   */\n      lt\n        /* \"#utility.yul\":4160:4178   */\n      0xffffffffffffffff\n        /* \"#utility.yul\":4148:4158   */\n      dup3\n        /* \"#utility.yul\":4145:4179   */\n      gt\n        /* \"#utility.yul\":4142:4204   */\n      or\n        /* \"#utility.yul\":4139:4227   */\n      iszero\n      tag_195\n      jumpi\n        /* \"#utility.yul\":4207:4225   */\n      tag_196\n      tag_119\n      jump\t// in\n    tag_196:\n        /* \"#utility.yul\":4139:4227   */\n    tag_195:\n        /* \"#utility.yul\":4247:4257   */\n      dup1\n        /* \"#utility.yul\":4243:4245   */\n      0x40\n        /* \"#utility.yul\":4236:4258   */\n      mstore\n        /* \"#utility.yul\":4026:4264   */\n      pop\n        /* \"#utility.yul\":3983:4264   */\n      pop\n      pop\n      jump\t// out\n        /* \"#utility.yul\":4270:4399   */\n    tag_121:\n        /* \"#utility.yul\":4304:4310   */\n      0x00\n        /* \"#utility.yul\":4331:4351   */\n      tag_198\n      tag_101\n      jump\t// in\n    tag_198:\n        /* \"#utility.yul\":4321:4351   */\n      swap1\n      pop\n        /* \"#utility.yul\":4360:4393   */\n      tag_199\n        /* \"#utility.yul\":4388:4392   */\n      dup3\n        /* \"#utility.yul\":4380:4386   */\n      dup3\n        /* \"#utility.yul\":4360:4393   */\n      tag_120\n      jump\t// in\n    tag_199:\n        /* \"#utility.yul\":4270:4399   */\n      swap2\n      swap1\n      pop\n      jump\t// out\n        /* \"#utility.yul\":4405:4713   */\n    tag_122:\n        /* \"#utility.yul\":4467:4471   */\n      0x00\n        /* \"#utility.yul\":4557:4575   */\n      0xffffffffffffffff\n        /* \"#utility.yul\":4549:4555   */\n      dup3\n        /* \"#utility.yul\":4546:4576   */\n      gt\n        /* \"#utility.yul\":4543:4599   */\n      iszero\n      tag_201\n      jumpi\n        /* \"#utility.yul\":4579:4597   */\n      tag_202\n      tag_119\n      jump\t// in\n    tag_202:\n        /* \"#utility.yul\":4543:4599   */\n    tag_201:\n        /* \"#utility.yul\":4617:4646   */\n      tag_203\n        /* \"#utility.yul\":4639:4645   */\n      dup3\n        /* \"#utility.yul\":4617:4646   */\n      tag_110\n      jump\t// in\n    tag_203:\n        /* \"#utility.yul\":4609:4646   */\n      swap1\n      pop\n        /* \"#utility.yul\":4701:4705   */\n      0x20\n        /* \"#utility.yul\":4695:4699   */\n      dup2\n        /* \"#utility.yul\":4691:4706   */\n      add\n        /* \"#utility.yul\":4683:4706   */\n      swap1\n      pop\n        /* \"#utility.yul\":4405:4713   */\n      swap2\n      swap1\n      pop\n      jump\t// out\n        /* \"#utility.yul\":4719:4867   */\n    tag_123:\n        /* \"#utility.yul\":4817:4823   */\n      dup3\n        /* \"#utility.yul\":4812:4815   */\n      dup2\n        /* \"#utility.yul\":4807:4810   */\n      dup4\n        /* \"#utility.yul\":4794:4824   */\n      calldatacopy\n        /* \"#utility.yul\":4858:4859   */\n      0x00\n        /* \"#utility.yul\":4849:4855   */\n      dup4\n        /* \"#utility.yul\":4844:4847   */\n      dup4\n        /* \"#utility.yul\":4840:4856   */\n      add\n        /* \"#utility.yul\":4833:4860   */\n      mstore\n        /* \"#utility.yul\":4719:4867   */\n      pop\n      pop\n      pop\n      jump\t// out\n        /* \"#utility.yul\":4873:5298   */\n    tag_124:\n        /* \"#utility.yul\":4951:4956   */\n      0x00\n        /* \"#utility.yul\":4976:5042   */\n      tag_206\n        /* \"#utility.yul\":4992:5041   */\n      tag_207\n        /* \"#utility.yul\":5034:5040   */\n      dup5\n        /* \"#utility.yul\":4992:5041   */\n      tag_122\n      jump\t// in\n    tag_207:\n        /* \"#utility.yul\":4976:5042   */\n      tag_121\n      jump\t// in\n    tag_206:\n        /* \"#utility.yul\":4967:5042   */\n      swap1\n      pop\n        /* \"#utility.yul\":5065:5071   */\n      dup3\n        /* \"#utility.yul\":5058:5063   */\n      dup2\n        /* \"#utility.yul\":5051:5072   */\n      mstore\n        /* \"#utility.yul\":5103:5107   */\n      0x20\n        /* \"#utility.yul\":5096:5101   */\n      dup2\n        /* \"#utility.yul\":5092:5108   */\n      add\n        /* \"#utility.yul\":5141:5144   */\n      dup5\n        /* \"#utility.yul\":5132:5138   */\n      dup5\n        /* \"#utility.yul\":5127:5130   */\n      dup5\n        /* \"#utility.yul\":5123:5139   */\n      add\n        /* \"#utility.yul\":5120:5145   */\n      gt\n        /* \"#utility.yul\":5117:5229   */\n      iszero\n      tag_208\n      jumpi\n        /* \"#utility.yul\":5148:5227   */\n      tag_209\n      tag_118\n      jump\t// in\n    tag_209:\n        /* \"#utility.yul\":5117:5229   */\n    tag_208:\n        /* \"#utility.yul\":5238:5292   */\n      tag_210\n        /* \"#utility.yul\":5285:5291   */\n      dup5\n        /* \"#utility.yul\":5280:5283   */\n      dup3\n        /* \"#utility.yul\":5275:5278   */\n      dup6\n        /* \"#utility.yul\":5238:5292   */\n      tag_123\n      jump\t// in\n    tag_210:\n        /* \"#utility.yul\":4957:5298   */\n      pop\n        /* \"#utility.yul\":4873:5298   */\n      swap4\n      swap3\n      pop\n      pop\n      pop\n      jump\t// out\n        /* \"#utility.yul\":5318:5658   */\n    tag_125:\n        /* \"#utility.yul\":5374:5379   */\n      0x00\n        /* \"#utility.yul\":5423:5426   */\n      dup3\n        /* \"#utility.yul\":5416:5420   */\n      0x1f\n        /* \"#utility.yul\":5408:5414   */\n      dup4\n        /* \"#utility.yul\":5404:5421   */\n      add\n        /* \"#utility.yul\":5400:5427   */\n      slt\n        /* \"#utility.yul\":5390:5512   */\n      tag_212\n      jumpi\n        /* \"#utility.yul\":5431:5510   */\n      tag_213\n      tag_117\n      jump\t// in\n    tag_213:\n        /* \"#utility.yul\":5390:5512   */\n    tag_212:\n        /* \"#utility.yul\":5548:5554   */\n      dup2\n        /* \"#utility.yul\":5535:5555   */\n      calldataload\n        /* \"#utility.yul\":5573:5652   */\n      tag_214\n        /* \"#utility.yul\":5648:5651   */\n      dup5\n        /* \"#utility.yul\":5640:5646   */\n      dup3\n        /* \"#utility.yul\":5633:5637   */\n      0x20\n        /* \"#utility.yul\":5625:5631   */\n      dup7\n        /* \"#utility.yul\":5621:5638   */\n      add\n        /* \"#utility.yul\":5573:5652   */\n      tag_124\n      jump\t// in\n    tag_214:\n        /* \"#utility.yul\":5564:5652   */\n      swap2\n      pop\n        /* \"#utility.yul\":5380:5658   */\n      pop\n        /* \"#utility.yul\":5318:5658   */\n      swap3\n      swap2\n      pop\n      pop\n      jump\t// out\n        /* \"#utility.yul\":5664:6318   */\n    tag_37:\n        /* \"#utility.yul\":5742:5748   */\n      0x00\n        /* \"#utility.yul\":5750:5756   */\n      0x00\n        /* \"#utility.yul\":5799:5801   */\n      0x40\n        /* \"#utility.yul\":5787:5796   */\n      dup4\n        /* \"#utility.yul\":5778:5785   */\n      dup6\n        /* \"#utility.yul\":5774:5797   */\n      sub\n        /* \"#utility.yul\":5770:5802   */\n      slt\n        /* \"#utility.yul\":5767:5886   */\n      iszero\n      tag_216\n      jumpi\n        /* \"#utility.yul\":5805:5884   */\n      tag_217\n      tag_102\n      jump\t// in\n    tag_217:\n        /* \"#utility.yul\":5767:5886   */\n    tag_216:\n        /* \"#utility.yul\":5953:5954   */\n      0x00\n        /* \"#utility.yul\":5942:5951   */\n      dup4\n        /* \"#utility.yul\":5938:5955   */\n      add\n        /* \"#utility.yul\":5925:5956   */\n      calldataload\n        /* \"#utility.yul\":5983:6001   */\n      0xffffffffffffffff\n        /* \"#utility.yul\":5975:5981   */\n      dup2\n        /* \"#utility.yul\":5972:6002   */\n      gt\n        /* \"#utility.yul\":5969:6086   */\n      iszero\n      tag_218\n      jumpi\n        /* \"#utility.yul\":6005:6084   */\n      tag_219\n      tag_103\n      jump\t// in\n    tag_219:\n        /* \"#utility.yul\":5969:6086   */\n    tag_218:\n        /* \"#utility.yul\":6110:6173   */\n      tag_220\n        /* \"#utility.yul\":6165:6172   */\n      dup6\n        /* \"#utility.yul\":6156:6162   */\n      dup3\n        /* \"#utility.yul\":6145:6154   */\n      dup7\n        /* \"#utility.yul\":6141:6163   */\n      add\n        /* \"#utility.yul\":6110:6173   */\n      tag_125\n      jump\t// in\n    tag_220:\n        /* \"#utility.yul\":6100:6173   */\n      swap3\n      pop\n        /* \"#utility.yul\":5896:6183   */\n      pop\n        /* \"#utility.yul\":6222:6224   */\n      0x20\n        /* \"#utility.yul\":6248:6301   */\n      tag_221\n        /* \"#utility.yul\":6293:6300   */\n      dup6\n        /* \"#utility.yul\":6284:6290   */\n      dup3\n        /* \"#utility.yul\":6273:6282   */\n      dup7\n        /* \"#utility.yul\":6269:6291   */\n      add\n        /* \"#utility.yul\":6248:6301   */\n      tag_106\n      jump\t// in\n    tag_221:\n        /* \"#utility.yul\":6238:6301   */\n      swap2\n      pop\n        /* \"#utility.yul\":6193:6311   */\n      pop\n        /* \"#utility.yul\":5664:6318   */\n      swap3\n      pop\n      swap3\n      swap1\n      pop\n      jump\t// out\n        /* \"#utility.yul\":6324:6833   */\n    tag_41:\n        /* \"#utility.yul\":6393:6399   */\n      0x00\n        /* \"#utility.yul\":6442:6444   */\n      0x20\n        /* \"#utility.yul\":6430:6439   */\n      dup3\n        /* \"#utility.yul\":6421:6428   */\n      dup5\n        /* \"#utility.yul\":6417:6440   */\n      sub\n        /* \"#utility.yul\":6413:6445   */\n      slt\n        /* \"#utility.yul\":6410:6529   */\n      iszero\n      tag_223\n      jumpi\n        /* \"#utility.yul\":6448:6527   */\n      tag_224\n      tag_102\n      jump\t// in\n    tag_224:\n        /* \"#utility.yul\":6410:6529   */\n    tag_223:\n        /* \"#utility.yul\":6596:6597   */\n      0x00\n        /* \"#utility.yul\":6585:6594   */\n      dup3\n        /* \"#utility.yul\":6581:6598   */\n      add\n        /* \"#utility.yul\":6568:6599   */\n      calldataload\n        /* \"#utility.yul\":6626:6644   */\n      0xffffffffffffffff\n        /* \"#utility.yul\":6618:6624   */\n      dup2\n        /* \"#utility.yul\":6615:6645   */\n      gt\n        /* \"#utility.yul\":6612:6729   */\n      iszero\n      tag_225\n      jumpi\n        /* \"#utility.yul\":6648:6727   */\n      tag_226\n      tag_103\n      jump\t// in\n    tag_226:\n        /* \"#utility.yul\":6612:6729   */\n    tag_225:\n        /* \"#utility.yul\":6753:6816   */\n      tag_227\n        /* \"#utility.yul\":6808:6815   */\n      dup5\n        /* \"#utility.yul\":6799:6805   */\n      dup3\n        /* \"#utility.yul\":6788:6797   */\n      dup6\n        /* \"#utility.yul\":6784:6806   */\n      add\n        /* \"#utility.yul\":6753:6816   */\n      tag_125\n      jump\t// in\n    tag_227:\n        /* \"#utility.yul\":6743:6816   */\n      swap2\n      pop\n        /* \"#utility.yul\":6539:6826   */\n      pop\n        /* \"#utility.yul\":6324:6833   */\n      swap3\n      swap2\n      pop\n      pop\n      jump\t// out\n        /* \"#utility.yul\":6839:7019   */\n    tag_75:\n        /* \"#utility.yul\":6887:6964   */\n      0x4e487b7100000000000000000000000000000000000000000000000000000000\n        /* \"#utility.yul\":6884:6885   */\n      0x00\n        /* \"#utility.yul\":6877:6965   */\n      mstore\n        /* \"#utility.yul\":6984:6988   */\n      0x21\n        /* \"#utility.yul\":6981:6982   */\n      0x04\n        /* \"#utility.yul\":6974:6989   */\n      mstore\n        /* \"#utility.yul\":7008:7012   */\n      0x24\n        /* \"#utility.yul\":7005:7006   */\n      0x00\n        /* \"#utility.yul\":6998:7013   */\n      revert\n        /* \"#utility.yul\":7025:7139   */\n    tag_126:\n        /* \"#utility.yul\":7107:7108   */\n      0x03\n        /* \"#utility.yul\":7100:7105   */\n      dup2\n        /* \"#utility.yul\":7097:7109   */\n      lt\n        /* \"#utility.yul\":7087:7133   */\n      tag_230\n      jumpi\n        /* \"#utility.yul\":7113:7131   */\n      tag_231\n      tag_75\n      jump\t// in\n    tag_231:\n        /* \"#utility.yul\":7087:7133   */\n    tag_230:\n        /* \"#utility.yul\":7025:7139   */\n      pop\n      jump\t// out\n        /* \"#utility.yul\":7145:7274   */\n    tag_127:\n        /* \"#utility.yul\":7191:7198   */\n      0x00\n        /* \"#utility.yul\":7220:7225   */\n      dup2\n        /* \"#utility.yul\":7209:7225   */\n      swap1\n      pop\n        /* \"#utility.yul\":7226:7268   */\n      tag_233\n        /* \"#utility.yul\":7262:7267   */\n      dup3\n        /* \"#utility.yul\":7226:7268   */\n      tag_126\n      jump\t// in\n    tag_233:\n        /* \"#utility.yul\":7145:7274   */\n      swap2\n      swap1\n      pop\n      jump\t// out\n        /* \"#utility.yul\":7280:7409   */\n    tag_128:\n        /* \"#utility.yul\":7337:7346   */\n      0x00\n        /* \"#utility.yul\":7370:7403   */\n      tag_235\n        /* \"#utility.yul\":7397:7402   */\n      dup3\n        /* \"#utility.yul\":7370:7403   */\n      tag_127\n      jump\t// in\n    tag_235:\n        /* \"#utility.yul\":7357:7403   */\n      swap1\n      pop\n        /* \"#utility.yul\":7280:7409   */\n      swap2\n      swap1\n      pop\n      jump\t// out\n        /* \"#utility.yul\":7415:7560   */\n    tag_129:\n        /* \"#utility.yul\":7509:7553   */\n      tag_237\n        /* \"#utility.yul\":7547:7552   */\n      dup2\n        /* \"#utility.yul\":7509:7553   */\n      tag_128\n      jump\t// in\n    tag_237:\n        /* \"#utility.yul\":7504:7507   */\n      dup3\n        /* \"#utility.yul\":7497:7554   */\n      mstore\n        /* \"#utility.yul\":7415:7560   */\n      pop\n      pop\n      jump\t// out\n        /* \"#utility.yul\":7566:7802   */\n    tag_53:\n        /* \"#utility.yul\":7666:7670   */\n      0x00\n        /* \"#utility.yul\":7704:7706   */\n      0x20\n        /* \"#utility.yul\":7693:7702   */\n      dup3\n        /* \"#utility.yul\":7689:7707   */\n      add\n        /* \"#utility.yul\":7681:7707   */\n      swap1\n      pop\n        /* \"#utility.yul\":7717:7795   */\n      tag_239\n        /* \"#utility.yul\":7792:7793   */\n      0x00\n        /* \"#utility.yul\":7781:7790   */\n      dup4\n        /* \"#utility.yul\":7777:7794   */\n      add\n        /* \"#utility.yul\":7768:7774   */\n      dup5\n        /* \"#utility.yul\":7717:7795   */\n      tag_129\n      jump\t// in\n    tag_239:\n        /* \"#utility.yul\":7566:7802   */\n      swap3\n      swap2\n      pop\n      pop\n      jump\t// out\n        /* \"#utility.yul\":7808:7988   */\n    tag_130:\n        /* \"#utility.yul\":7856:7933   */\n      0x4e487b7100000000000000000000000000000000000000000000000000000000\n        /* \"#utility.yul\":7853:7854   */\n      0x00\n        /* \"#utility.yul\":7846:7934   */\n      mstore\n        /* \"#utility.yul\":7953:7957   */\n      0x22\n        /* \"#utility.yul\":7950:7951   */\n      0x04\n        /* \"#utility.yul\":7943:7958   */\n      mstore\n        /* \"#utility.yul\":7977:7981   */\n      0x24\n        /* \"#utility.yul\":7974:7975   */\n      0x00\n        /* \"#utility.yul\":7967:7982   */\n      revert\n        /* \"#utility.yul\":7994:8314   */\n    tag_57:\n        /* \"#utility.yul\":8038:8044   */\n      0x00\n        /* \"#utility.yul\":8075:8076   */\n      0x02\n        /* \"#utility.yul\":8069:8073   */\n      dup3\n        /* \"#utility.yul\":8065:8077   */\n      div\n        /* \"#utility.yul\":8055:8077   */\n      swap1\n      pop\n        /* \"#utility.yul\":8122:8123   */\n      0x01\n        /* \"#utility.yul\":8116:8120   */\n      dup3\n        /* \"#utility.yul\":8112:8124   */\n      and\n        /* \"#utility.yul\":8143:8161   */\n      dup1\n        /* \"#utility.yul\":8133:8214   */\n      tag_242\n      jumpi\n        /* \"#utility.yul\":8199:8203   */\n      0x7f\n        /* \"#utility.yul\":8191:8197   */\n      dup3\n        /* \"#utility.yul\":8187:8204   */\n      and\n        /* \"#utility.yul\":8177:8204   */\n      swap2\n      pop\n        /* \"#utility.yul\":8133:8214   */\n    tag_242:\n        /* \"#utility.yul\":8261:8263   */\n      0x20\n        /* \"#utility.yul\":8253:8259   */\n      dup3\n        /* \"#utility.yul\":8250:8264   */\n      lt\n        /* \"#utility.yul\":8230:8248   */\n      dup2\n        /* \"#utility.yul\":8227:8265   */\n      sub\n        /* \"#utility.yul\":8224:8308   */\n      tag_243\n      jumpi\n        /* \"#utility.yul\":8280:8298   */\n      tag_244\n      tag_130\n      jump\t// in\n    tag_244:\n        /* \"#utility.yul\":8224:8308   */\n    tag_243:\n        /* \"#utility.yul\":8045:8314   */\n      pop\n        /* \"#utility.yul\":7994:8314   */\n      swap2\n      swap1\n      pop\n      jump\t// out\n        /* \"#utility.yul\":8320:8500   */\n    tag_65:\n        /* \"#utility.yul\":8368:8445   */\n      0x4e487b7100000000000000000000000000000000000000000000000000000000\n        /* \"#utility.yul\":8365:8366   */\n      0x00\n        /* \"#utility.yul\":8358:8446   */\n      mstore\n        /* \"#utility.yul\":8465:8469   */\n      0x32\n        /* \"#utility.yul\":8462:8463   */\n      0x04\n        /* \"#utility.yul\":8455:8470   */\n      mstore\n        /* \"#utility.yul\":8489:8493   */\n      0x24\n        /* \"#utility.yul\":8486:8487   */\n      0x00\n        /* \"#utility.yul\":8479:8494   */\n      revert\n        /* \"#utility.yul\":8506:8859   */\n    tag_131:\n        /* \"#utility.yul\":8646:8712   */\n      0xd09ed186d0b5d0bdd0bad0b020d0bdd0b520d0bcd0bed0b6d0b5d18220d0bfd1\n        /* \"#utility.yul\":8642:8643   */\n      0x00\n        /* \"#utility.yul\":8634:8640   */\n      dup3\n        /* \"#utility.yul\":8630:8644   */\n      add\n        /* \"#utility.yul\":8623:8713   */\n      mstore\n        /* \"#utility.yul\":8747:8813   */\n      0x80d0b5d0b2d18bd181d0b8d182d18c2031303020d0b1d0b0d0bbd0bbd0bed0b2\n        /* \"#utility.yul\":8742:8744   */\n      0x20\n        /* \"#utility.yul\":8734:8740   */\n      dup3\n        /* \"#utility.yul\":8730:8745   */\n      add\n        /* \"#utility.yul\":8723:8814   */\n      mstore\n        /* \"#utility.yul\":8848:8851   */\n      0x2100000000000000000000000000000000000000000000000000000000000000\n        /* \"#utility.yul\":8843:8845   */\n      0x40\n        /* \"#utility.yul\":8835:8841   */\n      dup3\n        /* \"#utility.yul\":8831:8846   */\n      add\n        /* \"#utility.yul\":8824:8852   */\n      mstore\n        /* \"#utility.yul\":8506:8859   */\n      pop\n      jump\t// out\n        /* \"#utility.yul\":8865:9231   */\n    tag_132:\n        /* \"#utility.yul\":9007:9010   */\n      0x00\n        /* \"#utility.yul\":9028:9095   */\n      tag_248\n        /* \"#utility.yul\":9092:9094   */\n      0x41\n        /* \"#utility.yul\":9087:9090   */\n      dup4\n        /* \"#utility.yul\":9028:9095   */\n      tag_108\n      jump\t// in\n    tag_248:\n        /* \"#utility.yul\":9021:9095   */\n      swap2\n      pop\n        /* \"#utility.yul\":9104:9197   */\n      tag_249\n        /* \"#utility.yul\":9193:9196   */\n      dup3\n        /* \"#utility.yul\":9104:9197   */\n      tag_131\n      jump\t// in\n    tag_249:\n        /* \"#utility.yul\":9222:9224   */\n      0x60\n        /* \"#utility.yul\":9217:9220   */\n      dup3\n        /* \"#utility.yul\":9213:9225   */\n      add\n        /* \"#utility.yul\":9206:9225   */\n      swap1\n      pop\n        /* \"#utility.yul\":8865:9231   */\n      swap2\n      swap1\n      pop\n      jump\t// out\n        /* \"#utility.yul\":9237:9656   */\n    tag_82:\n        /* \"#utility.yul\":9403:9407   */\n      0x00\n        /* \"#utility.yul\":9441:9443   */\n      0x20\n        /* \"#utility.yul\":9430:9439   */\n      dup3\n        /* \"#utility.yul\":9426:9444   */\n      add\n        /* \"#utility.yul\":9418:9444   */\n      swap1\n      pop\n        /* \"#utility.yul\":9490:9499   */\n      dup2\n        /* \"#utility.yul\":9484:9488   */\n      dup2\n        /* \"#utility.yul\":9480:9500   */\n      sub\n        /* \"#utility.yul\":9476:9477   */\n      0x00\n        /* \"#utility.yul\":9465:9474   */\n      dup4\n        /* \"#utility.yul\":9461:9478   */\n      add\n        /* \"#utility.yul\":9454:9501   */\n      mstore\n        /* \"#utility.yul\":9518:9649   */\n      tag_251\n        /* \"#utility.yul\":9644:9648   */\n      dup2\n        /* \"#utility.yul\":9518:9649   */\n      tag_132\n      jump\t// in\n    tag_251:\n        /* \"#utility.yul\":9510:9649   */\n      swap1\n      pop\n        /* \"#utility.yul\":9237:9656   */\n      swap2\n      swap1\n      pop\n      jump\t// out\n        /* \"#utility.yul\":9662:9842   */\n    tag_133:\n        /* \"#utility.yul\":9710:9787   */\n      0x4e487b7100000000000000000000000000000000000000000000000000000000\n        /* \"#utility.yul\":9707:9708   */\n      0x00\n        /* \"#utility.yul\":9700:9788   */\n      mstore\n        /* \"#utility.yul\":9807:9811   */\n      0x11\n        /* \"#utility.yul\":9804:9805   */\n      0x04\n        /* \"#utility.yul\":9797:9812   */\n      mstore\n        /* \"#utility.yul\":9831:9835   */\n      0x24\n        /* \"#utility.yul\":9828:9829   */\n      0x00\n        /* \"#utility.yul\":9821:9836   */\n      revert\n        /* \"#utility.yul\":9848:10039   */\n    tag_85:\n        /* \"#utility.yul\":9888:9891   */\n      0x00\n        /* \"#utility.yul\":9907:9927   */\n      tag_254\n        /* \"#utility.yul\":9925:9926   */\n      dup3\n        /* \"#utility.yul\":9907:9927   */\n      tag_104\n      jump\t// in\n    tag_254:\n        /* \"#utility.yul\":9902:9927   */\n      swap2\n      pop\n        /* \"#utility.yul\":9941:9961   */\n      tag_255\n        /* \"#utility.yul\":9959:9960   */\n      dup4\n        /* \"#utility.yul\":9941:9961   */\n      tag_104\n      jump\t// in\n    tag_255:\n        /* \"#utility.yul\":9936:9961   */\n      swap3\n      pop\n        /* \"#utility.yul\":9984:9985   */\n      dup3\n        /* \"#utility.yul\":9981:9982   */\n      dup3\n        /* \"#utility.yul\":9977:9986   */\n      add\n        /* \"#utility.yul\":9970:9986   */\n      swap1\n      pop\n        /* \"#utility.yul\":10005:10008   */\n      dup1\n        /* \"#utility.yul\":10002:10003   */\n      dup3\n        /* \"#utility.yul\":9999:10009   */\n      gt\n        /* \"#utility.yul\":9996:10032   */\n      iszero\n      tag_256\n      jumpi\n        /* \"#utility.yul\":10012:10030   */\n      tag_257\n      tag_133\n      jump\t// in\n    tag_257:\n        /* \"#utility.yul\":9996:10032   */\n    tag_256:\n        /* \"#utility.yul\":9848:10039   */\n      swap3\n      swap2\n      pop\n      pop\n      jump\t// out\n        /* \"#utility.yul\":10045:10278   */\n    tag_88:\n        /* \"#utility.yul\":10084:10087   */\n      0x00\n        /* \"#utility.yul\":10107:10131   */\n      tag_259\n        /* \"#utility.yul\":10125:10130   */\n      dup3\n        /* \"#utility.yul\":10107:10131   */\n      tag_104\n      jump\t// in\n    tag_259:\n        /* \"#utility.yul\":10098:10131   */\n      swap2\n      pop\n        /* \"#utility.yul\":10153:10219   */\n      0xffffffffffffffffffffffffffffffffffffffffffffffffffffffffffffffff\n        /* \"#utility.yul\":10146:10151   */\n      dup3\n        /* \"#utility.yul\":10143:10220   */\n      sub\n        /* \"#utility.yul\":10140:10243   */\n      tag_260\n      jumpi\n        /* \"#utility.yul\":10223:10241   */\n      tag_261\n      tag_133\n      jump\t// in\n    tag_261:\n        /* \"#utility.yul\":10140:10243   */\n    tag_260:\n        /* \"#utility.yul\":10270:10271   */\n      0x01\n        /* \"#utility.yul\":10263:10268   */\n      dup3\n        /* \"#utility.yul\":10259:10272   */\n      add\n        /* \"#utility.yul\":10252:10272   */\n      swap1\n      pop\n        /* \"#utility.yul\":10045:10278   */\n      swap2\n      swap1\n      pop\n      jump\t// out\n        /* \"#utility.yul\":10284:10425   */\n    tag_134:\n        /* \"#utility.yul\":10333:10337   */\n      0x00\n        /* \"#utility.yul\":10356:10359   */\n      dup2\n        /* \"#utility.yul\":10348:10359   */\n      swap1\n      pop\n        /* \"#utility.yul\":10379:10382   */\n      dup2\n        /* \"#utility.yul\":10376:10377   */\n      0x00\n        /* \"#utility.yul\":10369:10383   */\n      mstore\n        /* \"#utility.yul\":10413:10417   */\n      0x20\n        /* \"#utility.yul\":10410:10411   */\n      0x00\n        /* \"#utility.yul\":10400:10418   */\n      keccak256\n        /* \"#utility.yul\":10392:10418   */\n      swap1\n      pop\n        /* \"#utility.yul\":10284:10425   */\n      swap2\n      swap1\n      pop\n      jump\t// out\n        /* \"#utility.yul\":10431:10524   */\n    tag_135:\n        /* \"#utility.yul\":10468:10474   */\n      0x00\n        /* \"#utility.yul\":10515:10517   */\n      0x20\n        /* \"#utility.yul\":10510:10512   */\n      0x1f\n        /* \"#utility.yul\":10503:10508   */\n      dup4\n        /* \"#utility.yul\":10499:10513   */\n      add\n        /* \"#utility.yul\":10495:10518   */\n      div\n        /* \"#utility.yul\":10485:10518   */\n      swap1\n      pop\n        /* \"#utility.yul\":10431:10524   */\n      swap2\n      swap1\n      pop\n      jump\t// out\n        /* \"#utility.yul\":10530:10637   */\n    tag_136:\n        /* \"#utility.yul\":10574:10582   */\n      0x00\n        /* \"#utility.yul\":10624:10629   */\n      dup3\n        /* \"#utility.yul\":10618:10622   */\n      dup3\n        /* \"#utility.yul\":10614:10630   */\n      shl\n        /* \"#utility.yul\":10593:10630   */\n      swap1\n      pop\n        /* \"#utility.yul\":10530:10637   */\n      swap3\n      swap2\n      pop\n      pop\n      jump\t// out\n        /* \"#utility.yul\":10643:11036   */\n    tag_137:\n        /* \"#utility.yul\":10712:10718   */\n      0x00\n        /* \"#utility.yul\":10762:10763   */\n      0x08\n        /* \"#utility.yul\":10750:10760   */\n      dup4\n        /* \"#utility.yul\":10746:10764   */\n      mul\n        /* \"#utility.yul\":10785:10882   */\n      tag_266\n        /* \"#utility.yul\":10815:10881   */\n      0xffffffffffffffffffffffffffffffffffffffffffffffffffffffffffffffff\n        /* \"#utility.yul\":10804:10813   */\n      dup3\n        /* \"#utility.yul\":10785:10882   */\n      tag_136\n      jump\t// in\n    tag_266:\n        /* \"#utility.yul\":10903:10942   */\n      tag_267\n        /* \"#utility.yul\":10933:10941   */\n      dup7\n        /* \"#utility.yul\":10922:10931   */\n      dup4\n        /* \"#utility.yul\":10903:10942   */\n      tag_136\n      jump\t// in\n    tag_267:\n        /* \"#utility.yul\":10891:10942   */\n      swap6\n      pop\n        /* \"#utility.yul\":10975:10979   */\n      dup1\n        /* \"#utility.yul\":10971:10980   */\n      not\n        /* \"#utility.yul\":10964:10969   */\n      dup5\n        /* \"#utility.yul\":10960:10981   */\n      and\n        /* \"#utility.yul\":10951:10981   */\n      swap4\n      pop\n        /* \"#utility.yul\":11024:11028   */\n      dup1\n        /* \"#utility.yul\":11014:11022   */\n      dup7\n        /* \"#utility.yul\":11010:11029   */\n      and\n        /* \"#utility.yul\":11003:11008   */\n      dup5\n        /* \"#utility.yul\":11000:11030   */\n      or\n        /* \"#utility.yul\":10990:11030   */\n      swap3\n      pop\n        /* \"#utility.yul\":10719:11036   */\n      pop\n      pop\n        /* \"#utility.yul\":10643:11036   */\n      swap4\n      swap3\n      pop\n      pop\n      pop\n      jump\t// out\n        /* \"#utility.yul\":11042:11102   */\n    tag_138:\n        /* \"#utility.yul\":11070:11073   */\n      0x00\n        /* \"#utility.yul\":11091:11096   */\n      dup2\n        /* \"#utility.yul\":11084:11096   */\n      swap1\n      pop\n        /* \"#utility.yul\":11042:11102   */\n      swap2\n      swap1\n      pop\n      jump\t// out\n        /* \"#utility.yul\":11108:11250   */\n    tag_139:\n        /* \"#utility.yul\":11158:11167   */\n      0x00\n        /* \"#utility.yul\":11191:11244   */\n      tag_270\n        /* \"#utility.yul\":11209:11243   */\n      tag_271\n        /* \"#utility.yul\":11218:11242   */\n      tag_272\n        /* \"#utility.yul\":11236:11241   */\n      dup5\n        /* \"#utility.yul\":11218:11242   */\n      tag_104\n      jump\t// in\n    tag_272:\n        /* \"#utility.yul\":11209:11243   */\n      tag_138\n      jump\t// in\n    tag_271:\n        /* \"#utility.yul\":11191:11244   */\n      tag_104\n      jump\t// in\n    tag_270:\n        /* \"#utility.yul\":11178:11244   */\n      swap1\n      pop\n        /* \"#utility.yul\":11108:11250   */\n      swap2\n      swap1\n      pop\n      jump\t// out\n        /* \"#utility.yul\":11256:11331   */\n    tag_140:\n        /* \"#utility.yul\":11299:11302   */\n      0x00\n        /* \"#utility.yul\":11320:11325   */\n      dup2\n        /* \"#utility.yul\":11313:11325   */\n      swap1\n      pop\n        /* \"#utility.yul\":11256:11331   */\n      swap2\n      swap1\n      pop\n      jump\t// out\n        /* \"#utility.yul\":11337:11606   */\n    tag_141:\n        /* \"#utility.yul\":11447:11486   */\n      tag_275\n        /* \"#utility.yul\":11478:11485   */\n      dup4\n        /* \"#utility.yul\":11447:11486   */\n      tag_139\n      jump\t// in\n    tag_275:\n        /* \"#utility.yul\":11508:11599   */\n      tag_276\n        /* \"#utility.yul\":11557:11598   */\n      tag_277\n        /* \"#utility.yul\":11581:11597   */\n      dup3\n        /* \"#utility.yul\":11557:11598   */\n      tag_140\n      jump\t// in\n    tag_277:\n        /* \"#utility.yul\":11549:11555   */\n      dup5\n        /* \"#utility.yul\":11542:11546   */\n      dup5\n        /* \"#utility.yul\":11536:11547   */\n      sload\n        /* \"#utility.yul\":11508:11599   */\n      tag_137\n      jump\t// in\n    tag_276:\n        /* \"#utility.yul\":11502:11506   */\n      dup3\n        /* \"#utility.yul\":11495:11600   */\n      sstore\n        /* \"#utility.yul\":11413:11606   */\n      pop\n        /* \"#utility.yul\":11337:11606   */\n      pop\n      pop\n      pop\n      jump\t// out\n        /* \"#utility.yul\":11612:11685   */\n    tag_142:\n        /* \"#utility.yul\":11657:11660   */\n      0x00\n        /* \"#utility.yul\":11678:11679   */\n      0x00\n        /* \"#utility.yul\":11671:11679   */\n      swap1\n      pop\n        /* \"#utility.yul\":11612:11685   */\n      swap1\n      jump\t// out\n        /* \"#utility.yul\":11691:11880   */\n    tag_143:\n        /* \"#utility.yul\":11768:11800   */\n      tag_280\n      tag_142\n      jump\t// in\n    tag_280:\n        /* \"#utility.yul\":11809:11874   */\n      tag_281\n        /* \"#utility.yul\":11867:11873   */\n      dup2\n        /* \"#utility.yul\":11859:11865   */\n      dup5\n        /* \"#utility.yul\":11853:11857   */\n      dup5\n        /* \"#utility.yul\":11809:11874   */\n      tag_141\n      jump\t// in\n    tag_281:\n        /* \"#utility.yul\":11744:11880   */\n      pop\n        /* \"#utility.yul\":11691:11880   */\n      pop\n      pop\n      jump\t// out\n        /* \"#utility.yul\":11886:12072   */\n    tag_144:\n        /* \"#utility.yul\":11946:12066   */\n    tag_283:\n        /* \"#utility.yul\":11963:11966   */\n      dup2\n        /* \"#utility.yul\":11956:11961   */\n      dup2\n        /* \"#utility.yul\":11953:11967   */\n      lt\n        /* \"#utility.yul\":11946:12066   */\n      iszero\n      tag_285\n      jumpi\n        /* \"#utility.yul\":12017:12056   */\n      tag_286\n        /* \"#utility.yul\":12054:12055   */\n      0x00\n        /* \"#utility.yul\":12047:12052   */\n      dup3\n        /* \"#utility.yul\":12017:12056   */\n      tag_143\n      jump\t// in\n    tag_286:\n        /* \"#utility.yul\":11990:11991   */\n      0x01\n        /* \"#utility.yul\":11983:11988   */\n      dup2\n        /* \"#utility.yul\":11979:11992   */\n      add\n        /* \"#utility.yul\":11970:11992   */\n      swap1\n      pop\n        /* \"#utility.yul\":11946:12066   */\n      jump(tag_283)\n    tag_285:\n        /* \"#utility.yul\":11886:12072   */\n      pop\n      pop\n      jump\t// out\n        /* \"#utility.yul\":12078:12621   */\n    tag_145:\n        /* \"#utility.yul\":12179:12181   */\n      0x1f\n        /* \"#utility.yul\":12174:12177   */\n      dup3\n        /* \"#utility.yul\":12171:12182   */\n      gt\n        /* \"#utility.yul\":12168:12614   */\n      iszero\n      tag_288\n      jumpi\n        /* \"#utility.yul\":12213:12251   */\n      tag_289\n        /* \"#utility.yul\":12245:12250   */\n      dup2\n        /* \"#utility.yul\":12213:12251   */\n      tag_134\n      jump\t// in\n    tag_289:\n        /* \"#utility.yul\":12297:12326   */\n      tag_290\n        /* \"#utility.yul\":12315:12325   */\n      dup5\n        /* \"#utility.yul\":12297:12326   */\n      tag_135\n      jump\t// in\n    tag_290:\n        /* \"#utility.yul\":12287:12295   */\n      dup2\n        /* \"#utility.yul\":12283:12327   */\n      add\n        /* \"#utility.yul\":12480:12482   */\n      0x20\n        /* \"#utility.yul\":12468:12478   */\n      dup6\n        /* \"#utility.yul\":12465:12483   */\n      lt\n        /* \"#utility.yul\":12462:12511   */\n      iszero\n      tag_291\n      jumpi\n        /* \"#utility.yul\":12501:12509   */\n      dup2\n        /* \"#utility.yul\":12486:12509   */\n      swap1\n      pop\n        /* \"#utility.yul\":12462:12511   */\n    tag_291:\n        /* \"#utility.yul\":12524:12604   */\n      tag_292\n        /* \"#utility.yul\":12580:12602   */\n      tag_293\n        /* \"#utility.yul\":12598:12601   */\n      dup6\n        /* \"#utility.yul\":12580:12602   */\n      tag_135\n      jump\t// in\n    tag_293:\n        /* \"#utility.yul\":12570:12578   */\n      dup4\n        /* \"#utility.yul\":12566:12603   */\n      add\n        /* \"#utility.yul\":12553:12564   */\n      dup3\n        /* \"#utility.yul\":12524:12604   */\n      tag_144\n      jump\t// in\n    tag_292:\n        /* \"#utility.yul\":12183:12614   */\n      pop\n      pop\n        /* \"#utility.yul\":12168:12614   */\n    tag_288:\n        /* \"#utility.yul\":12078:12621   */\n      pop\n      pop\n      pop\n      jump\t// out\n        /* \"#utility.yul\":12627:12744   */\n    tag_146:\n        /* \"#utility.yul\":12681:12689   */\n      0x00\n        /* \"#utility.yul\":12731:12736   */\n      dup3\n        /* \"#utility.yul\":12725:12729   */\n      dup3\n        /* \"#utility.yul\":12721:12737   */\n      shr\n        /* \"#utility.yul\":12700:12737   */\n      swap1\n      pop\n        /* \"#utility.yul\":12627:12744   */\n      swap3\n      swap2\n      pop\n      pop\n      jump\t// out\n        /* \"#utility.yul\":12750:12919   */\n    tag_147:\n        /* \"#utility.yul\":12794:12800   */\n      0x00\n        /* \"#utility.yul\":12827:12878   */\n      tag_296\n        /* \"#utility.yul\":12875:12876   */\n      0x00\n        /* \"#utility.yul\":12871:12877   */\n      not\n        /* \"#utility.yul\":12863:12868   */\n      dup5\n        /* \"#utility.yul\":12860:12861   */\n      0x08\n        /* \"#utility.yul\":12856:12869   */\n      mul\n        /* \"#utility.yul\":12827:12878   */\n      tag_146\n      jump\t// in\n    tag_296:\n        /* \"#utility.yul\":12823:12879   */\n      not\n        /* \"#utility.yul\":12908:12912   */\n      dup1\n        /* \"#utility.yul\":12902:12906   */\n      dup4\n        /* \"#utility.yul\":12898:12913   */\n      and\n        /* \"#utility.yul\":12888:12913   */\n      swap2\n      pop\n        /* \"#utility.yul\":12801:12919   */\n      pop\n        /* \"#utility.yul\":12750:12919   */\n      swap3\n      swap2\n      pop\n      pop\n      jump\t// out\n        /* \"#utility.yul\":12924:13219   */\n    tag_148:\n        /* \"#utility.yul\":13000:13004   */\n      0x00\n        /* \"#utility.yul\":13146:13175   */\n      tag_298\n        /* \"#utility.yul\":13171:13174   */\n      dup4\n        /* \"#utility.yul\":13165:13169   */\n      dup4\n        /* \"#utility.yul\":13146:13175   */\n      tag_147\n      jump\t// in\n    tag_298:\n        /* \"#utility.yul\":13138:13175   */\n      swap2\n      pop\n        /* \"#utility.yul\":13208:13211   */\n      dup3\n        /* \"#utility.yul\":13205:13206   */\n      0x02\n        /* \"#utility.yul\":13201:13212   */\n      mul\n        /* \"#utility.yul\":13195:13199   */\n      dup3\n        /* \"#utility.yul\":13192:13213   */\n      or\n        /* \"#utility.yul\":13184:13213   */\n      swap1\n      pop\n        /* \"#utility.yul\":12924:13219   */\n      swap3\n      swap2\n      pop\n      pop\n      jump\t// out\n        /* \"#utility.yul\":13224:14619   */\n    tag_91:\n        /* \"#utility.yul\":13341:13378   */\n      tag_300\n        /* \"#utility.yul\":13374:13377   */\n      dup3\n        /* \"#utility.yul\":13341:13378   */\n      tag_107\n      jump\t// in\n    tag_300:\n        /* \"#utility.yul\":13443:13461   */\n      0xffffffffffffffff\n        /* \"#utility.yul\":13435:13441   */\n      dup2\n        /* \"#utility.yul\":13432:13462   */\n      gt\n        /* \"#utility.yul\":13429:13485   */\n      iszero\n      tag_301\n      jumpi\n        /* \"#utility.yul\":13465:13483   */\n      tag_302\n      tag_119\n      jump\t// in\n    tag_302:\n        /* \"#utility.yul\":13429:13485   */\n    tag_301:\n        /* \"#utility.yul\":13509:13547   */\n      tag_303\n        /* \"#utility.yul\":13541:13545   */\n      dup3\n        /* \"#utility.yul\":13535:13546   */\n      sload\n        /* \"#utility.yul\":13509:13547   */\n      tag_57\n      jump\t// in\n    tag_303:\n        /* \"#utility.yul\":13594:13661   */\n      tag_304\n        /* \"#utility.yul\":13654:13660   */\n      dup3\n        /* \"#utility.yul\":13646:13652   */\n      dup3\n        /* \"#utility.yul\":13640:13644   */\n      dup6\n        /* \"#utility.yul\":13594:13661   */\n      tag_145\n      jump\t// in\n    tag_304:\n        /* \"#utility.yul\":13688:13689   */\n      0x00\n        /* \"#utility.yul\":13712:13716   */\n      0x20\n        /* \"#utility.yul\":13699:13716   */\n      swap1\n      pop\n        /* \"#utility.yul\":13744:13746   */\n      0x1f\n        /* \"#utility.yul\":13736:13742   */\n      dup4\n        /* \"#utility.yul\":13733:13747   */\n      gt\n        /* \"#utility.yul\":13761:13762   */\n      0x01\n        /* \"#utility.yul\":13756:14374   */\n      dup2\n      eq\n      tag_306\n      jumpi\n        /* \"#utility.yul\":14418:14419   */\n      0x00\n        /* \"#utility.yul\":14435:14441   */\n      dup5\n        /* \"#utility.yul\":14432:14509   */\n      iszero\n      tag_307\n      jumpi\n        /* \"#utility.yul\":14484:14493   */\n      dup3\n        /* \"#utility.yul\":14479:14482   */\n      dup8\n        /* \"#utility.yul\":14475:14494   */\n      add\n        /* \"#utility.yul\":14469:14495   */\n      mload\n        /* \"#utility.yul\":14460:14495   */\n      swap1\n      pop\n        /* \"#utility.yul\":14432:14509   */\n    tag_307:\n        /* \"#utility.yul\":14535:14602   */\n      tag_308\n        /* \"#utility.yul\":14595:14601   */\n      dup6\n        /* \"#utility.yul\":14588:14593   */\n      dup3\n        /* \"#utility.yul\":14535:14602   */\n      tag_148\n      jump\t// in\n    tag_308:\n        /* \"#utility.yul\":14529:14533   */\n      dup7\n        /* \"#utility.yul\":14522:14603   */\n      sstore\n        /* \"#utility.yul\":14391:14613   */\n      pop\n        /* \"#utility.yul\":13726:14613   */\n      jump(tag_305)\n        /* \"#utility.yul\":13756:14374   */\n    tag_306:\n        /* \"#utility.yul\":13808:13812   */\n      0x1f\n        /* \"#utility.yul\":13804:13813   */\n      not\n        /* \"#utility.yul\":13796:13802   */\n      dup5\n        /* \"#utility.yul\":13792:13814   */\n      and\n        /* \"#utility.yul\":13842:13879   */\n      tag_309\n        /* \"#utility.yul\":13874:13878   */\n      dup7\n        /* \"#utility.yul\":13842:13879   */\n      tag_134\n      jump\t// in\n    tag_309:\n        /* \"#utility.yul\":13901:13902   */\n      0x00\n        /* \"#utility.yul\":13915:14123   */\n    tag_310:\n        /* \"#utility.yul\":13929:13936   */\n      dup3\n        /* \"#utility.yul\":13926:13927   */\n      dup2\n        /* \"#utility.yul\":13923:13937   */\n      lt\n        /* \"#utility.yul\":13915:14123   */\n      iszero\n      tag_312\n      jumpi\n        /* \"#utility.yul\":14008:14017   */\n      dup5\n        /* \"#utility.yul\":14003:14006   */\n      dup10\n        /* \"#utility.yul\":13999:14018   */\n      add\n        /* \"#utility.yul\":13993:14019   */\n      mload\n        /* \"#utility.yul\":13985:13991   */\n      dup3\n        /* \"#utility.yul\":13978:14020   */\n      sstore\n        /* \"#utility.yul\":14059:14060   */\n      0x01\n        /* \"#utility.yul\":14051:14057   */\n      dup3\n        /* \"#utility.yul\":14047:14061   */\n      add\n        /* \"#utility.yul\":14037:14061   */\n      swap2\n      pop\n        /* \"#utility.yul\":14106:14108   */\n      0x20\n        /* \"#utility.yul\":14095:14104   */\n      dup6\n        /* \"#utility.yul\":14091:14109   */\n      add\n        /* \"#utility.yul\":14078:14109   */\n      swap5\n      pop\n        /* \"#utility.yul\":13952:13956   */\n      0x20\n        /* \"#utility.yul\":13949:13950   */\n      dup2\n        /* \"#utility.yul\":13945:13957   */\n      add\n        /* \"#utility.yul\":13940:13957   */\n      swap1\n      pop\n        /* \"#utility.yul\":13915:14123   */\n      jump(tag_310)\n    tag_312:\n        /* \"#utility.yul\":14151:14157   */\n      dup7\n        /* \"#utility.yul\":14142:14149   */\n      dup4\n        /* \"#utility.yul\":14139:14158   */\n      lt\n        /* \"#utility.yul\":14136:14315   */\n      iszero\n      tag_313\n      jumpi\n        /* \"#utility.yul\":14209:14218   */\n      dup5\n        /* \"#utility.yul\":14204:14207   */\n      dup10\n        /* \"#utility.yul\":14200:14219   */\n      add\n        /* \"#utility.yul\":14194:14220   */\n      mload\n        /* \"#utility.yul\":14252:14300   */\n      tag_314\n        /* \"#utility.yul\":14294:14298   */\n      0x1f\n        /* \"#utility.yul\":14286:14292   */\n      dup10\n        /* \"#utility.yul\":14282:14299   */\n      and\n        /* \"#utility.yul\":14271:14280   */\n      dup3\n        /* \"#utility.yul\":14252:14300   */\n      tag_147\n      jump\t// in\n    tag_314:\n        /* \"#utility.yul\":14244:14250   */\n      dup4\n        /* \"#utility.yul\":14237:14301   */\n      sstore\n        /* \"#utility.yul\":14159:14315   */\n      pop\n        /* \"#utility.yul\":14136:14315   */\n    tag_313:\n        /* \"#utility.yul\":14361:14362   */\n      0x01\n        /* \"#utility.yul\":14357:14358   */\n      0x02\n        /* \"#utility.yul\":14349:14355   */\n      dup9\n        /* \"#utility.yul\":14345:14359   */\n      mul\n        /* \"#utility.yul\":14341:14363   */\n      add\n        /* \"#utility.yul\":14335:14339   */\n      dup9\n        /* \"#utility.yul\":14328:14364   */\n      sstore\n        /* \"#utility.yul\":13763:14374   */\n      pop\n      pop\n      pop\n        /* \"#utility.yul\":13726:14613   */\n    tag_305:\n      pop\n        /* \"#utility.yul\":13316:14619   */\n      pop\n      pop\n      pop\n        /* \"#utility.yul\":13224:14619   */\n      pop\n      pop\n      jump\t// out\n\n    auxdata: 0xa26469706673582212202753bdb8781aad16668a1781acd58a139399bfc477d3a5a61078212496be096f64736f6c634300081e0033\n}\n",
				"bytecode": {
					"linkReferences": {},
					"object": "6080604052348015600e575f5ffd5b50610e648061001c5f395ff3fe608060405234801561000f575f5ffd5b506004361061009c575f3560e01c80635c9814cb116100645780635c9814cb1461015857806367238562146101745780638d97767214610190578063b6cb58a5146101c1578063b73f7951146101df5761009c565b80630eddaecf146100a05780631d65e77e146100d15780632e49d78b146101025780634ad0e5901461011e578063567142be1461013a575b5f5ffd5b6100ba60048036038101906100b59190610628565b6101fd565b6040516100c89291906106dd565b60405180910390f35b6100eb60048036038101906100e69190610628565b6102bd565b6040516100f99291906106dd565b60405180910390f35b61011c6004803603810190610117919061072e565b6103a9565b005b61013860048036038101906101339190610628565b6103d5565b005b6101426103e1565b60405161014f9190610768565b60405180910390f35b610172600480360381019061016d91906108ad565b6103e7565b005b61018e60048036038101906101899190610907565b610450565b005b6101aa60048036038101906101a59190610628565b6104dd565b6040516101b89291906106dd565b60405180910390f35b6101c961058f565b6040516101d69190610768565b60405180910390f35b6101e7610595565b6040516101f491906109c1565b60405180910390f35b5f818154811061020b575f80fd5b905f5260205f2090600202015f91509050805f01805461022a90610a07565b80601f016020809104026020016040519081016040528092919081815260200182805461025690610a07565b80156102a15780601f10610278576101008083540402835291602001916102a1565b820191905f5260205f20905b81548152906001019060200180831161028457829003601f168201915b505050505090806001015f9054906101000a900460ff16905082565b60605f5f5f84815481106102d4576102d3610a37565b5b905f5260205f2090600202016040518060400160405290815f820180546102fa90610a07565b80601f016020809104026020016040519081016040528092919081815260200182805461032690610a07565b80156103715780601f1061034857610100808354040283529160200191610371565b820191905f5260205f20905b81548152906001019060200180831161035457829003601f168201915b50505050508152602001600182015f9054906101000a900460ff1615151515815250509050805f015181602001519250925050915091565b8060035f6101000a81548160ff021916908360028111156103cd576103cc61094e565b5b021790555050565b6103de816105a7565b50565b60045481565b606481101561042b576040517f08c379a000000000000000000000000000000000000000000000000000000000815260040161042290610afa565b60405180910390fd5b61043482610450565b8060045f8282546104459190610b45565b925050819055505050565b60015f81548092919061046290610b78565b91905055505f60405180604001604052808381526020015f1515815250908060018154018082558091505060019003905f5260205f2090600202015f909190919091505f820151815f0190816104b89190610d5f565b506020820151816001015f6101000a81548160ff021916908315150217905550505050565b6002602052805f5260405f205f91509050805f0180546104fc90610a07565b80601f016020809104026020016040519081016040528092919081815260200182805461052890610a07565b80156105735780601f1061054a57610100808354040283529160200191610573565b820191905f5260205f20905b81548152906001019060200180831161055657829003601f168201915b505050505090806001015f9054906101000a900460ff16905082565b60015481565b60035f9054906101000a900460ff1681565b60015f82815481106105bc576105bb610a37565b5b905f5260205f2090600202016001015f6101000a81548160ff02191690831515021790555050565b5f604051905090565b5f5ffd5b5f5ffd5b5f819050919050565b610607816105f5565b8114610611575f5ffd5b50565b5f81359050610622816105fe565b92915050565b5f6020828403121561063d5761063c6105ed565b5b5f61064a84828501610614565b91505092915050565b5f81519050919050565b5f82825260208201905092915050565b8281835e5f83830152505050565b5f601f19601f8301169050919050565b5f61069582610653565b61069f818561065d565b93506106af81856020860161066d565b6106b88161067b565b840191505092915050565b5f8115159050919050565b6106d7816106c3565b82525050565b5f6040820190508181035f8301526106f5818561068b565b905061070460208301846106ce565b9392505050565b60038110610717575f5ffd5b50565b5f813590506107288161070b565b92915050565b5f60208284031215610743576107426105ed565b5b5f6107508482850161071a565b91505092915050565b610762816105f5565b82525050565b5f60208201905061077b5f830184610759565b92915050565b5f5ffd5b5f5ffd5b7f4e487b71000000000000000000000000000000000000000000000000000000005f52604160045260245ffd5b6107bf8261067b565b810181811067ffffffffffffffff821117156107de576107dd610789565b5b80604052505050565b5f6107f06105e4565b90506107fc82826107b6565b919050565b5f67ffffffffffffffff82111561081b5761081a610789565b5b6108248261067b565b9050602081019050919050565b828183375f83830152505050565b5f61085161084c84610801565b6107e7565b90508281526020810184848401111561086d5761086c610785565b5b610878848285610831565b509392505050565b5f82601f83011261089457610893610781565b5b81356108a484826020860161083f565b91505092915050565b5f5f604083850312156108c3576108c26105ed565b5b5f83013567ffffffffffffffff8111156108e0576108df6105f1565b5b6108ec85828601610880565b92505060206108fd85828601610614565b9150509250929050565b5f6020828403121561091c5761091b6105ed565b5b5f82013567ffffffffffffffff811115610939576109386105f1565b5b61094584828501610880565b91505092915050565b7f4e487b71000000000000000000000000000000000000000000000000000000005f52602160045260245ffd5b6003811061098c5761098b61094e565b5b50565b5f81905061099c8261097b565b919050565b5f6109ab8261098f565b9050919050565b6109bb816109a1565b82525050565b5f6020820190506109d45f8301846109b2565b92915050565b7f4e487b71000000000000000000000000000000000000000000000000000000005f52602260045260245ffd5b5f6002820490506001821680610a1e57607f821691505b602082108103610a3157610a306109da565b5b50919050565b7f4e487b71000000000000000000000000000000000000000000000000000000005f52603260045260245ffd5b7fd09ed186d0b5d0bdd0bad0b020d0bdd0b520d0bcd0bed0b6d0b5d18220d0bfd15f8201527f80d0b5d0b2d18bd181d0b8d182d18c2031303020d0b1d0b0d0bbd0bbd0bed0b260208201527f2100000000000000000000000000000000000000000000000000000000000000604082015250565b5f610ae460418361065d565b9150610aef82610a64565b606082019050919050565b5f6020820190508181035f830152610b1181610ad8565b9050919050565b7f4e487b71000000000000000000000000000000000000000000000000000000005f52601160045260245ffd5b5f610b4f826105f5565b9150610b5a836105f5565b9250828201905080821115610b7257610b71610b18565b5b92915050565b5f610b82826105f5565b91507fffffffffffffffffffffffffffffffffffffffffffffffffffffffffffffffff8203610bb457610bb3610b18565b5b600182019050919050565b5f819050815f5260205f209050919050565b5f6020601f8301049050919050565b5f82821b905092915050565b5f60088302610c1b7fffffffffffffffffffffffffffffffffffffffffffffffffffffffffffffffff82610be0565b610c258683610be0565b95508019841693508086168417925050509392505050565b5f819050919050565b5f610c60610c5b610c56846105f5565b610c3d565b6105f5565b9050919050565b5f819050919050565b610c7983610c46565b610c8d610c8582610c67565b848454610bec565b825550505050565b5f5f905090565b610ca4610c95565b610caf818484610c70565b505050565b5b81811015610cd257610cc75f82610c9c565b600181019050610cb5565b5050565b601f821115610d1757610ce881610bbf565b610cf184610bd1565b81016020851015610d00578190505b610d14610d0c85610bd1565b830182610cb4565b50505b505050565b5f82821c905092915050565b5f610d375f1984600802610d1c565b1980831691505092915050565b5f610d4f8383610d28565b9150826002028217905092915050565b610d6882610653565b67ffffffffffffffff811115610d8157610d80610789565b5b610d8b8254610a07565b610d96828285610cd6565b5f60209050601f831160018114610dc7575f8415610db5578287015190505b610dbf8582610d44565b865550610e26565b601f198416610dd586610bbf565b5f5b82811015610dfc57848901518255600182019150602085019450602081019050610dd7565b86831015610e195784890151610e15601f891682610d28565b8355505b6001600288020188555050505b50505050505056fea26469706673582212202753bdb8781aad16668a1781acd58a139399bfc477d3a5a61078212496be096f64736f6c634300081e0033",
					"opcodes": "PUSH1 0x80 PUSH1 0x40 MSTORE CALLVALUE DUP1 ISZERO PUSH1 0xE JUMPI PUSH0 PUSH0 REVERT JUMPDEST POP PUSH2 0xE64 DUP1 PUSH2 0x1C PUSH0 CODECOPY PUSH0 RETURN INVALID PUSH1 0x80 PUSH1 0x40 MSTORE CALLVALUE DUP1 ISZERO PUSH2 0xF JUMPI PUSH0 PUSH0 REVERT JUMPDEST POP PUSH1 0x4 CALLDATASIZE LT PUSH2 0x9C JUMPI PUSH0 CALLDATALOAD PUSH1 0xE0 SHR DUP1 PUSH4 0x5C9814CB GT PUSH2 0x64 JUMPI DUP1 PUSH4 0x5C9814CB EQ PUSH2 0x158 JUMPI DUP1 PUSH4 0x67238562 EQ PUSH2 0x174 JUMPI DUP1 PUSH4 0x8D977672 EQ PUSH2 0x190 JUMPI DUP1 PUSH4 0xB6CB58A5 EQ PUSH2 0x1C1 JUMPI DUP1 PUSH4 0xB73F7951 EQ PUSH2 0x1DF JUMPI PUSH2 0x9C JUMP JUMPDEST DUP1 PUSH4 0xEDDAECF EQ PUSH2 0xA0 JUMPI DUP1 PUSH4 0x1D65E77E EQ PUSH2 0xD1 JUMPI DUP1 PUSH4 0x2E49D78B EQ PUSH2 0x102 JUMPI DUP1 PUSH4 0x4AD0E590 EQ PUSH2 0x11E JUMPI DUP1 PUSH4 0x567142BE EQ PUSH2 0x13A JUMPI JUMPDEST PUSH0 PUSH0 REVERT JUMPDEST PUSH2 0xBA PUSH1 0x4 DUP1 CALLDATASIZE SUB DUP2 ADD SWAP1 PUSH2 0xB5 SWAP2 SWAP1 PUSH2 0x628 JUMP JUMPDEST PUSH2 0x1FD JUMP JUMPDEST PUSH1 0x40 MLOAD PUSH2 0xC8 SWAP3 SWAP2 SWAP1 PUSH2 0x6DD JUMP JUMPDEST PUSH1 0x40 MLOAD DUP1 SWAP2 SUB SWAP1 RETURN JUMPDEST PUSH2 0xEB PUSH1 0x4 DUP1 CALLDATASIZE SUB DUP2 ADD SWAP1 PUSH2 0xE6 SWAP2 SWAP1 PUSH2 0x628 JUMP JUMPDEST PUSH2 0x2BD JUMP JUMPDEST PUSH1 0x40 MLOAD PUSH2 0xF9 SWAP3 SWAP2 SWAP1 PUSH2 0x6DD JUMP JUMPDEST PUSH1 0x40 MLOAD DUP1 SWAP2 SUB SWAP1 RETURN JUMPDEST PUSH2 0x11C PUSH1 0x4 DUP1 CALLDATASIZE SUB DUP2 ADD SWAP1 PUSH2 0x117 SWAP2 SWAP1 PUSH2 0x72E JUMP JUMPDEST PUSH2 0x3A9 JUMP JUMPDEST STOP JUMPDEST PUSH2 0x138 PUSH1 0x4 DUP1 CALLDATASIZE SUB DUP2 ADD SWAP1 PUSH2 0x133 SWAP2 SWAP1 PUSH2 0x628 JUMP JUMPDEST PUSH2 0x3D5 JUMP JUMPDEST STOP JUMPDEST PUSH2 0x142 PUSH2 0x3E1 JUMP JUMPDEST PUSH1 0x40 MLOAD PUSH2 0x14F SWAP2 SWAP1 PUSH2 0x768 JUMP JUMPDEST PUSH1 0x40 MLOAD DUP1 SWAP2 SUB SWAP1 RETURN JUMPDEST PUSH2 0x172 PUSH1 0x4 DUP1 CALLDATASIZE SUB DUP2 ADD SWAP1 PUSH2 0x16D SWAP2 SWAP1 PUSH2 0x8AD JUMP JUMPDEST PUSH2 0x3E7 JUMP JUMPDEST STOP JUMPDEST PUSH2 0x18E PUSH1 0x4 DUP1 CALLDATASIZE SUB DUP2 ADD SWAP1 PUSH2 0x189 SWAP2 SWAP1 PUSH2 0x907 JUMP JUMPDEST PUSH2 0x450 JUMP JUMPDEST STOP JUMPDEST PUSH2 0x1AA PUSH1 0x4 DUP1 CALLDATASIZE SUB DUP2 ADD SWAP1 PUSH2 0x1A5 SWAP2 SWAP1 PUSH2 0x628 JUMP JUMPDEST PUSH2 0x4DD JUMP JUMPDEST PUSH1 0x40 MLOAD PUSH2 0x1B8 SWAP3 SWAP2 SWAP1 PUSH2 0x6DD JUMP JUMPDEST PUSH1 0x40 MLOAD DUP1 SWAP2 SUB SWAP1 RETURN JUMPDEST PUSH2 0x1C9 PUSH2 0x58F JUMP JUMPDEST PUSH1 0x40 MLOAD PUSH2 0x1D6 SWAP2 SWAP1 PUSH2 0x768 JUMP JUMPDEST PUSH1 0x40 MLOAD DUP1 SWAP2 SUB SWAP1 RETURN JUMPDEST PUSH2 0x1E7 PUSH2 0x595 JUMP JUMPDEST PUSH1 0x40 MLOAD PUSH2 0x1F4 SWAP2 SWAP1 PUSH2 0x9C1 JUMP JUMPDEST PUSH1 0x40 MLOAD DUP1 SWAP2 SUB SWAP1 RETURN JUMPDEST PUSH0 DUP2 DUP2 SLOAD DUP2 LT PUSH2 0x20B JUMPI PUSH0 DUP1 REVERT JUMPDEST SWAP1 PUSH0 MSTORE PUSH1 0x20 PUSH0 KECCAK256 SWAP1 PUSH1 0x2 MUL ADD PUSH0 SWAP2 POP SWAP1 POP DUP1 PUSH0 ADD DUP1 SLOAD PUSH2 0x22A SWAP1 PUSH2 0xA07 JUMP JUMPDEST DUP1 PUSH1 0x1F ADD PUSH1 0x20 DUP1 SWAP2 DIV MUL PUSH1 0x20 ADD PUSH1 0x40 MLOAD SWAP1 DUP2 ADD PUSH1 0x40 MSTORE DUP1 SWAP3 SWAP2 SWAP1 DUP2 DUP2 MSTORE PUSH1 0x20 ADD DUP3 DUP1 SLOAD PUSH2 0x256 SWAP1 PUSH2 0xA07 JUMP JUMPDEST DUP1 ISZERO PUSH2 0x2A1 JUMPI DUP1 PUSH1 0x1F LT PUSH2 0x278 JUMPI PUSH2 0x100 DUP1 DUP4 SLOAD DIV MUL DUP4 MSTORE SWAP2 PUSH1 0x20 ADD SWAP2 PUSH2 0x2A1 JUMP JUMPDEST DUP3 ADD SWAP2 SWAP1 PUSH0 MSTORE PUSH1 0x20 PUSH0 KECCAK256 SWAP1 JUMPDEST DUP2 SLOAD DUP2 MSTORE SWAP1 PUSH1 0x1 ADD SWAP1 PUSH1 0x20 ADD DUP1 DUP4 GT PUSH2 0x284 JUMPI DUP3 SWAP1 SUB PUSH1 0x1F AND DUP3 ADD SWAP2 JUMPDEST POP POP POP POP POP SWAP1 DUP1 PUSH1 0x1 ADD PUSH0 SWAP1 SLOAD SWAP1 PUSH2 0x100 EXP SWAP1 DIV PUSH1 0xFF AND SWAP1 POP DUP3 JUMP JUMPDEST PUSH1 0x60 PUSH0 PUSH0 PUSH0 DUP5 DUP2 SLOAD DUP2 LT PUSH2 0x2D4 JUMPI PUSH2 0x2D3 PUSH2 0xA37 JUMP JUMPDEST JUMPDEST SWAP1 PUSH0 MSTORE PUSH1 0x20 PUSH0 KECCAK256 SWAP1 PUSH1 0x2 MUL ADD PUSH1 0x40 MLOAD DUP1 PUSH1 0x40 ADD PUSH1 0x40 MSTORE SWAP1 DUP2 PUSH0 DUP3 ADD DUP1 SLOAD PUSH2 0x2FA SWAP1 PUSH2 0xA07 JUMP JUMPDEST DUP1 PUSH1 0x1F ADD PUSH1 0x20 DUP1 SWAP2 DIV MUL PUSH1 0x20 ADD PUSH1 0x40 MLOAD SWAP1 DUP2 ADD PUSH1 0x40 MSTORE DUP1 SWAP3 SWAP2 SWAP1 DUP2 DUP2 MSTORE PUSH1 0x20 ADD DUP3 DUP1 SLOAD PUSH2 0x326 SWAP1 PUSH2 0xA07 JUMP JUMPDEST DUP1 ISZERO PUSH2 0x371 JUMPI DUP1 PUSH1 0x1F LT PUSH2 0x348 JUMPI PUSH2 0x100 DUP1 DUP4 SLOAD DIV MUL DUP4 MSTORE SWAP2 PUSH1 0x20 ADD SWAP2 PUSH2 0x371 JUMP JUMPDEST DUP3 ADD SWAP2 SWAP1 PUSH0 MSTORE PUSH1 0x20 PUSH0 KECCAK256 SWAP1 JUMPDEST DUP2 SLOAD DUP2 MSTORE SWAP1 PUSH1 0x1 ADD SWAP1 PUSH1 0x20 ADD DUP1 DUP4 GT PUSH2 0x354 JUMPI DUP3 SWAP1 SUB PUSH1 0x1F AND DUP3 ADD SWAP2 JUMPDEST POP POP POP POP POP DUP2 MSTORE PUSH1 0x20 ADD PUSH1 0x1 DUP3 ADD PUSH0 SWAP1 SLOAD SWAP1 PUSH2 0x100 EXP SWAP1 DIV PUSH1 0xFF AND ISZERO ISZERO ISZERO ISZERO DUP2 MSTORE POP POP SWAP1 POP DUP1 PUSH0 ADD MLOAD DUP2 PUSH1 0x20 ADD MLOAD SWAP3 POP SWAP3 POP POP SWAP2 POP SWAP2 JUMP JUMPDEST DUP1 PUSH1 0x3 PUSH0 PUSH2 0x100 EXP DUP2 SLOAD DUP2 PUSH1 0xFF MUL NOT AND SWAP1 DUP4 PUSH1 0x2 DUP2 GT ISZERO PUSH2 0x3CD JUMPI PUSH2 0x3CC PUSH2 0x94E JUMP JUMPDEST JUMPDEST MUL OR SWAP1 SSTORE POP POP JUMP JUMPDEST PUSH2 0x3DE DUP2 PUSH2 0x5A7 JUMP JUMPDEST POP JUMP JUMPDEST PUSH1 0x4 SLOAD DUP2 JUMP JUMPDEST PUSH1 0x64 DUP2 LT ISZERO PUSH2 0x42B JUMPI PUSH1 0x40 MLOAD PUSH32 0x8C379A000000000000000000000000000000000000000000000000000000000 DUP2 MSTORE PUSH1 0x4 ADD PUSH2 0x422 SWAP1 PUSH2 0xAFA JUMP JUMPDEST PUSH1 0x40 MLOAD DUP1 SWAP2 SUB SWAP1 REVERT JUMPDEST PUSH2 0x434 DUP3 PUSH2 0x450 JUMP JUMPDEST DUP1 PUSH1 0x4 PUSH0 DUP3 DUP3 SLOAD PUSH2 0x445 SWAP2 SWAP1 PUSH2 0xB45 JUMP JUMPDEST SWAP3 POP POP DUP2 SWAP1 SSTORE POP POP POP JUMP JUMPDEST PUSH1 0x1 PUSH0 DUP2 SLOAD DUP1 SWAP3 SWAP2 SWAP1 PUSH2 0x462 SWAP1 PUSH2 0xB78 JUMP JUMPDEST SWAP2 SWAP1 POP SSTORE POP PUSH0 PUSH1 0x40 MLOAD DUP1 PUSH1 0x40 ADD PUSH1 0x40 MSTORE DUP1 DUP4 DUP2 MSTORE PUSH1 0x20 ADD PUSH0 ISZERO ISZERO DUP2 MSTORE POP SWAP1 DUP1 PUSH1 0x1 DUP2 SLOAD ADD DUP1 DUP3 SSTORE DUP1 SWAP2 POP POP PUSH1 0x1 SWAP1 SUB SWAP1 PUSH0 MSTORE PUSH1 0x20 PUSH0 KECCAK256 SWAP1 PUSH1 0x2 MUL ADD PUSH0 SWAP1 SWAP2 SWAP1 SWAP2 SWAP1 SWAP2 POP PUSH0 DUP3 ADD MLOAD DUP2 PUSH0 ADD SWAP1 DUP2 PUSH2 0x4B8 SWAP2 SWAP1 PUSH2 0xD5F JUMP JUMPDEST POP PUSH1 0x20 DUP3 ADD MLOAD DUP2 PUSH1 0x1 ADD PUSH0 PUSH2 0x100 EXP DUP2 SLOAD DUP2 PUSH1 0xFF MUL NOT AND SWAP1 DUP4 ISZERO ISZERO MUL OR SWAP1 SSTORE POP POP POP POP JUMP JUMPDEST PUSH1 0x2 PUSH1 0x20 MSTORE DUP1 PUSH0 MSTORE PUSH1 0x40 PUSH0 KECCAK256 PUSH0 SWAP2 POP SWAP1 POP DUP1 PUSH0 ADD DUP1 SLOAD PUSH2 0x4FC SWAP1 PUSH2 0xA07 JUMP JUMPDEST DUP1 PUSH1 0x1F ADD PUSH1 0x20 DUP1 SWAP2 DIV MUL PUSH1 0x20 ADD PUSH1 0x40 MLOAD SWAP1 DUP2 ADD PUSH1 0x40 MSTORE DUP1 SWAP3 SWAP2 SWAP1 DUP2 DUP2 MSTORE PUSH1 0x20 ADD DUP3 DUP1 SLOAD PUSH2 0x528 SWAP1 PUSH2 0xA07 JUMP JUMPDEST DUP1 ISZERO PUSH2 0x573 JUMPI DUP1 PUSH1 0x1F LT PUSH2 0x54A JUMPI PUSH2 0x100 DUP1 DUP4 SLOAD DIV MUL DUP4 MSTORE SWAP2 PUSH1 0x20 ADD SWAP2 PUSH2 0x573 JUMP JUMPDEST DUP3 ADD SWAP2 SWAP1 PUSH0 MSTORE PUSH1 0x20 PUSH0 KECCAK256 SWAP1 JUMPDEST DUP2 SLOAD DUP2 MSTORE SWAP1 PUSH1 0x1 ADD SWAP1 PUSH1 0x20 ADD DUP1 DUP4 GT PUSH2 0x556 JUMPI DUP3 SWAP1 SUB PUSH1 0x1F AND DUP3 ADD SWAP2 JUMPDEST POP POP POP POP POP SWAP1 DUP1 PUSH1 0x1 ADD PUSH0 SWAP1 SLOAD SWAP1 PUSH2 0x100 EXP SWAP1 DIV PUSH1 0xFF AND SWAP1 POP DUP3 JUMP JUMPDEST PUSH1 0x1 SLOAD DUP2 JUMP JUMPDEST PUSH1 0x3 PUSH0 SWAP1 SLOAD SWAP1 PUSH2 0x100 EXP SWAP1 DIV PUSH1 0xFF AND DUP2 JUMP JUMPDEST PUSH1 0x1 PUSH0 DUP3 DUP2 SLOAD DUP2 LT PUSH2 0x5BC JUMPI PUSH2 0x5BB PUSH2 0xA37 JUMP JUMPDEST JUMPDEST SWAP1 PUSH0 MSTORE PUSH1 0x20 PUSH0 KECCAK256 SWAP1 PUSH1 0x2 MUL ADD PUSH1 0x1 ADD PUSH0 PUSH2 0x100 EXP DUP2 SLOAD DUP2 PUSH1 0xFF MUL NOT AND SWAP1 DUP4 ISZERO ISZERO MUL OR SWAP1 SSTORE POP POP JUMP JUMPDEST PUSH0 PUSH1 0x40 MLOAD SWAP1 POP SWAP1 JUMP JUMPDEST PUSH0 PUSH0 REVERT JUMPDEST PUSH0 PUSH0 REVERT JUMPDEST PUSH0 DUP2 SWAP1 POP SWAP2 SWAP1 POP JUMP JUMPDEST PUSH2 0x607 DUP2 PUSH2 0x5F5 JUMP JUMPDEST DUP2 EQ PUSH2 0x611 JUMPI PUSH0 PUSH0 REVERT JUMPDEST POP JUMP JUMPDEST PUSH0 DUP2 CALLDATALOAD SWAP1 POP PUSH2 0x622 DUP2 PUSH2 0x5FE JUMP JUMPDEST SWAP3 SWAP2 POP POP JUMP JUMPDEST PUSH0 PUSH1 0x20 DUP3 DUP5 SUB SLT ISZERO PUSH2 0x63D JUMPI PUSH2 0x63C PUSH2 0x5ED JUMP JUMPDEST JUMPDEST PUSH0 PUSH2 0x64A DUP5 DUP3 DUP6 ADD PUSH2 0x614 JUMP JUMPDEST SWAP2 POP POP SWAP3 SWAP2 POP POP JUMP JUMPDEST PUSH0 DUP2 MLOAD SWAP1 POP SWAP2 SWAP1 POP JUMP JUMPDEST PUSH0 DUP3 DUP3 MSTORE PUSH1 0x20 DUP3 ADD SWAP1 POP SWAP3 SWAP2 POP POP JUMP JUMPDEST DUP3 DUP2 DUP4 MCOPY PUSH0 DUP4 DUP4 ADD MSTORE POP POP POP JUMP JUMPDEST PUSH0 PUSH1 0x1F NOT PUSH1 0x1F DUP4 ADD AND SWAP1 POP SWAP2 SWAP1 POP JUMP JUMPDEST PUSH0 PUSH2 0x695 DUP3 PUSH2 0x653 JUMP JUMPDEST PUSH2 0x69F DUP2 DUP6 PUSH2 0x65D JUMP JUMPDEST SWAP4 POP PUSH2 0x6AF DUP2 DUP6 PUSH1 0x20 DUP7 ADD PUSH2 0x66D JUMP JUMPDEST PUSH2 0x6B8 DUP2 PUSH2 0x67B JUMP JUMPDEST DUP5 ADD SWAP2 POP POP SWAP3 SWAP2 POP POP JUMP JUMPDEST PUSH0 DUP2 ISZERO ISZERO SWAP1 POP SWAP2 SWAP1 POP JUMP JUMPDEST PUSH2 0x6D7 DUP2 PUSH2 0x6C3 JUMP JUMPDEST DUP3 MSTORE POP POP JUMP JUMPDEST PUSH0 PUSH1 0x40 DUP3 ADD SWAP1 POP DUP2 DUP2 SUB PUSH0 DUP4 ADD MSTORE PUSH2 0x6F5 DUP2 DUP6 PUSH2 0x68B JUMP JUMPDEST SWAP1 POP PUSH2 0x704 PUSH1 0x20 DUP4 ADD DUP5 PUSH2 0x6CE JUMP JUMPDEST SWAP4 SWAP3 POP POP POP JUMP JUMPDEST PUSH1 0x3 DUP2 LT PUSH2 0x717 JUMPI PUSH0 PUSH0 REVERT JUMPDEST POP JUMP JUMPDEST PUSH0 DUP2 CALLDATALOAD SWAP1 POP PUSH2 0x728 DUP2 PUSH2 0x70B JUMP JUMPDEST SWAP3 SWAP2 POP POP JUMP JUMPDEST PUSH0 PUSH1 0x20 DUP3 DUP5 SUB SLT ISZERO PUSH2 0x743 JUMPI PUSH2 0x742 PUSH2 0x5ED JUMP JUMPDEST JUMPDEST PUSH0 PUSH2 0x750 DUP5 DUP3 DUP6 ADD PUSH2 0x71A JUMP JUMPDEST SWAP2 POP POP SWAP3 SWAP2 POP POP JUMP JUMPDEST PUSH2 0x762 DUP2 PUSH2 0x5F5 JUMP JUMPDEST DUP3 MSTORE POP POP JUMP JUMPDEST PUSH0 PUSH1 0x20 DUP3 ADD SWAP1 POP PUSH2 0x77B PUSH0 DUP4 ADD DUP5 PUSH2 0x759 JUMP JUMPDEST SWAP3 SWAP2 POP POP JUMP JUMPDEST PUSH0 PUSH0 REVERT JUMPDEST PUSH0 PUSH0 REVERT JUMPDEST PUSH32 0x4E487B7100000000000000000000000000000000000000000000000000000000 PUSH0 MSTORE PUSH1 0x41 PUSH1 0x4 MSTORE PUSH1 0x24 PUSH0 REVERT JUMPDEST PUSH2 0x7BF DUP3 PUSH2 0x67B JUMP JUMPDEST DUP2 ADD DUP2 DUP2 LT PUSH8 0xFFFFFFFFFFFFFFFF DUP3 GT OR ISZERO PUSH2 0x7DE JUMPI PUSH2 0x7DD PUSH2 0x789 JUMP JUMPDEST JUMPDEST DUP1 PUSH1 0x40 MSTORE POP POP POP JUMP JUMPDEST PUSH0 PUSH2 0x7F0 PUSH2 0x5E4 JUMP JUMPDEST SWAP1 POP PUSH2 0x7FC DUP3 DUP3 PUSH2 0x7B6 JUMP JUMPDEST SWAP2 SWAP1 POP JUMP JUMPDEST PUSH0 PUSH8 0xFFFFFFFFFFFFFFFF DUP3 GT ISZERO PUSH2 0x81B JUMPI PUSH2 0x81A PUSH2 0x789 JUMP JUMPDEST JUMPDEST PUSH2 0x824 DUP3 PUSH2 0x67B JUMP JUMPDEST SWAP1 POP PUSH1 0x20 DUP2 ADD SWAP1 POP SWAP2 SWAP1 POP JUMP JUMPDEST DUP3 DUP2 DUP4 CALLDATACOPY PUSH0 DUP4 DUP4 ADD MSTORE POP POP POP JUMP JUMPDEST PUSH0 PUSH2 0x851 PUSH2 0x84C DUP5 PUSH2 0x801 JUMP JUMPDEST PUSH2 0x7E7 JUMP JUMPDEST SWAP1 POP DUP3 DUP2 MSTORE PUSH1 0x20 DUP2 ADD DUP5 DUP5 DUP5 ADD GT ISZERO PUSH2 0x86D JUMPI PUSH2 0x86C PUSH2 0x785 JUMP JUMPDEST JUMPDEST PUSH2 0x878 DUP5 DUP3 DUP6 PUSH2 0x831 JUMP JUMPDEST POP SWAP4 SWAP3 POP POP POP JUMP JUMPDEST PUSH0 DUP3 PUSH1 0x1F DUP4 ADD SLT PUSH2 0x894 JUMPI PUSH2 0x893 PUSH2 0x781 JUMP JUMPDEST JUMPDEST DUP2 CALLDATALOAD PUSH2 0x8A4 DUP5 DUP3 PUSH1 0x20 DUP7 ADD PUSH2 0x83F JUMP JUMPDEST SWAP2 POP POP SWAP3 SWAP2 POP POP JUMP JUMPDEST PUSH0 PUSH0 PUSH1 0x40 DUP4 DUP6 SUB SLT ISZERO PUSH2 0x8C3 JUMPI PUSH2 0x8C2 PUSH2 0x5ED JUMP JUMPDEST JUMPDEST PUSH0 DUP4 ADD CALLDATALOAD PUSH8 0xFFFFFFFFFFFFFFFF DUP2 GT ISZERO PUSH2 0x8E0 JUMPI PUSH2 0x8DF PUSH2 0x5F1 JUMP JUMPDEST JUMPDEST PUSH2 0x8EC DUP6 DUP3 DUP7 ADD PUSH2 0x880 JUMP JUMPDEST SWAP3 POP POP PUSH1 0x20 PUSH2 0x8FD DUP6 DUP3 DUP7 ADD PUSH2 0x614 JUMP JUMPDEST SWAP2 POP POP SWAP3 POP SWAP3 SWAP1 POP JUMP JUMPDEST PUSH0 PUSH1 0x20 DUP3 DUP5 SUB SLT ISZERO PUSH2 0x91C JUMPI PUSH2 0x91B PUSH2 0x5ED JUMP JUMPDEST JUMPDEST PUSH0 DUP3 ADD CALLDATALOAD PUSH8 0xFFFFFFFFFFFFFFFF DUP2 GT ISZERO PUSH2 0x939 JUMPI PUSH2 0x938 PUSH2 0x5F1 JUMP JUMPDEST JUMPDEST PUSH2 0x945 DUP5 DUP3 DUP6 ADD PUSH2 0x880 JUMP JUMPDEST SWAP2 POP POP SWAP3 SWAP2 POP POP JUMP JUMPDEST PUSH32 0x4E487B7100000000000000000000000000000000000000000000000000000000 PUSH0 MSTORE PUSH1 0x21 PUSH1 0x4 MSTORE PUSH1 0x24 PUSH0 REVERT JUMPDEST PUSH1 0x3 DUP2 LT PUSH2 0x98C JUMPI PUSH2 0x98B PUSH2 0x94E JUMP JUMPDEST JUMPDEST POP JUMP JUMPDEST PUSH0 DUP2 SWAP1 POP PUSH2 0x99C DUP3 PUSH2 0x97B JUMP JUMPDEST SWAP2 SWAP1 POP JUMP JUMPDEST PUSH0 PUSH2 0x9AB DUP3 PUSH2 0x98F JUMP JUMPDEST SWAP1 POP SWAP2 SWAP1 POP JUMP JUMPDEST PUSH2 0x9BB DUP2 PUSH2 0x9A1 JUMP JUMPDEST DUP3 MSTORE POP POP JUMP JUMPDEST PUSH0 PUSH1 0x20 DUP3 ADD SWAP1 POP PUSH2 0x9D4 PUSH0 DUP4 ADD DUP5 PUSH2 0x9B2 JUMP JUMPDEST SWAP3 SWAP2 POP POP JUMP JUMPDEST PUSH32 0x4E487B7100000000000000000000000000000000000000000000000000000000 PUSH0 MSTORE PUSH1 0x22 PUSH1 0x4 MSTORE PUSH1 0x24 PUSH0 REVERT JUMPDEST PUSH0 PUSH1 0x2 DUP3 DIV SWAP1 POP PUSH1 0x1 DUP3 AND DUP1 PUSH2 0xA1E JUMPI PUSH1 0x7F DUP3 AND SWAP2 POP JUMPDEST PUSH1 0x20 DUP3 LT DUP2 SUB PUSH2 0xA31 JUMPI PUSH2 0xA30 PUSH2 0x9DA JUMP JUMPDEST JUMPDEST POP SWAP2 SWAP1 POP JUMP JUMPDEST PUSH32 0x4E487B7100000000000000000000000000000000000000000000000000000000 PUSH0 MSTORE PUSH1 0x32 PUSH1 0x4 MSTORE PUSH1 0x24 PUSH0 REVERT JUMPDEST PUSH32 0xD09ED186D0B5D0BDD0BAD0B020D0BDD0B520D0BCD0BED0B6D0B5D18220D0BFD1 PUSH0 DUP3 ADD MSTORE PUSH32 0x80D0B5D0B2D18BD181D0B8D182D18C2031303020D0B1D0B0D0BBD0BBD0BED0B2 PUSH1 0x20 DUP3 ADD MSTORE PUSH32 0x2100000000000000000000000000000000000000000000000000000000000000 PUSH1 0x40 DUP3 ADD MSTORE POP JUMP JUMPDEST PUSH0 PUSH2 0xAE4 PUSH1 0x41 DUP4 PUSH2 0x65D JUMP JUMPDEST SWAP2 POP PUSH2 0xAEF DUP3 PUSH2 0xA64 JUMP JUMPDEST PUSH1 0x60 DUP3 ADD SWAP1 POP SWAP2 SWAP1 POP JUMP JUMPDEST PUSH0 PUSH1 0x20 DUP3 ADD SWAP1 POP DUP2 DUP2 SUB PUSH0 DUP4 ADD MSTORE PUSH2 0xB11 DUP2 PUSH2 0xAD8 JUMP JUMPDEST SWAP1 POP SWAP2 SWAP1 POP JUMP JUMPDEST PUSH32 0x4E487B7100000000000000000000000000000000000000000000000000000000 PUSH0 MSTORE PUSH1 0x11 PUSH1 0x4 MSTORE PUSH1 0x24 PUSH0 REVERT JUMPDEST PUSH0 PUSH2 0xB4F DUP3 PUSH2 0x5F5 JUMP JUMPDEST SWAP2 POP PUSH2 0xB5A DUP4 PUSH2 0x5F5 JUMP JUMPDEST SWAP3 POP DUP3 DUP3 ADD SWAP1 POP DUP1 DUP3 GT ISZERO PUSH2 0xB72 JUMPI PUSH2 0xB71 PUSH2 0xB18 JUMP JUMPDEST JUMPDEST SWAP3 SWAP2 POP POP JUMP JUMPDEST PUSH0 PUSH2 0xB82 DUP3 PUSH2 0x5F5 JUMP JUMPDEST SWAP2 POP PUSH32 0xFFFFFFFFFFFFFFFFFFFFFFFFFFFFFFFFFFFFFFFFFFFFFFFFFFFFFFFFFFFFFFFF DUP3 SUB PUSH2 0xBB4 JUMPI PUSH2 0xBB3 PUSH2 0xB18 JUMP JUMPDEST JUMPDEST PUSH1 0x1 DUP3 ADD SWAP1 POP SWAP2 SWAP1 POP JUMP JUMPDEST PUSH0 DUP2 SWAP1 POP DUP2 PUSH0 MSTORE PUSH1 0x20 PUSH0 KECCAK256 SWAP1 POP SWAP2 SWAP1 POP JUMP JUMPDEST PUSH0 PUSH1 0x20 PUSH1 0x1F DUP4 ADD DIV SWAP1 POP SWAP2 SWAP1 POP JUMP JUMPDEST PUSH0 DUP3 DUP3 SHL SWAP1 POP SWAP3 SWAP2 POP POP JUMP JUMPDEST PUSH0 PUSH1 0x8 DUP4 MUL PUSH2 0xC1B PUSH32 0xFFFFFFFFFFFFFFFFFFFFFFFFFFFFFFFFFFFFFFFFFFFFFFFFFFFFFFFFFFFFFFFF DUP3 PUSH2 0xBE0 JUMP JUMPDEST PUSH2 0xC25 DUP7 DUP4 PUSH2 0xBE0 JUMP JUMPDEST SWAP6 POP DUP1 NOT DUP5 AND SWAP4 POP DUP1 DUP7 AND DUP5 OR SWAP3 POP POP POP SWAP4 SWAP3 POP POP POP JUMP JUMPDEST PUSH0 DUP2 SWAP1 POP SWAP2 SWAP1 POP JUMP JUMPDEST PUSH0 PUSH2 0xC60 PUSH2 0xC5B PUSH2 0xC56 DUP5 PUSH2 0x5F5 JUMP JUMPDEST PUSH2 0xC3D JUMP JUMPDEST PUSH2 0x5F5 JUMP JUMPDEST SWAP1 POP SWAP2 SWAP1 POP JUMP JUMPDEST PUSH0 DUP2 SWAP1 POP SWAP2 SWAP1 POP JUMP JUMPDEST PUSH2 0xC79 DUP4 PUSH2 0xC46 JUMP JUMPDEST PUSH2 0xC8D PUSH2 0xC85 DUP3 PUSH2 0xC67 JUMP JUMPDEST DUP5 DUP5 SLOAD PUSH2 0xBEC JUMP JUMPDEST DUP3 SSTORE POP POP POP POP JUMP JUMPDEST PUSH0 PUSH0 SWAP1 POP SWAP1 JUMP JUMPDEST PUSH2 0xCA4 PUSH2 0xC95 JUMP JUMPDEST PUSH2 0xCAF DUP2 DUP5 DUP5 PUSH2 0xC70 JUMP JUMPDEST POP POP POP JUMP JUMPDEST JUMPDEST DUP2 DUP2 LT ISZERO PUSH2 0xCD2 JUMPI PUSH2 0xCC7 PUSH0 DUP3 PUSH2 0xC9C JUMP JUMPDEST PUSH1 0x1 DUP2 ADD SWAP1 POP PUSH2 0xCB5 JUMP JUMPDEST POP POP JUMP JUMPDEST PUSH1 0x1F DUP3 GT ISZERO PUSH2 0xD17 JUMPI PUSH2 0xCE8 DUP2 PUSH2 0xBBF JUMP JUMPDEST PUSH2 0xCF1 DUP5 PUSH2 0xBD1 JUMP JUMPDEST DUP2 ADD PUSH1 0x20 DUP6 LT ISZERO PUSH2 0xD00 JUMPI DUP2 SWAP1 POP JUMPDEST PUSH2 0xD14 PUSH2 0xD0C DUP6 PUSH2 0xBD1 JUMP JUMPDEST DUP4 ADD DUP3 PUSH2 0xCB4 JUMP JUMPDEST POP POP JUMPDEST POP POP POP JUMP JUMPDEST PUSH0 DUP3 DUP3 SHR SWAP1 POP SWAP3 SWAP2 POP POP JUMP JUMPDEST PUSH0 PUSH2 0xD37 PUSH0 NOT DUP5 PUSH1 0x8 MUL PUSH2 0xD1C JUMP JUMPDEST NOT DUP1 DUP4 AND SWAP2 POP POP SWAP3 SWAP2 POP POP JUMP JUMPDEST PUSH0 PUSH2 0xD4F DUP4 DUP4 PUSH2 0xD28 JUMP JUMPDEST SWAP2 POP DUP3 PUSH1 0x2 MUL DUP3 OR SWAP1 POP SWAP3 SWAP2 POP POP JUMP JUMPDEST PUSH2 0xD68 DUP3 PUSH2 0x653 JUMP JUMPDEST PUSH8 0xFFFFFFFFFFFFFFFF DUP2 GT ISZERO PUSH2 0xD81 JUMPI PUSH2 0xD80 PUSH2 0x789 JUMP JUMPDEST JUMPDEST PUSH2 0xD8B DUP3 SLOAD PUSH2 0xA07 JUMP JUMPDEST PUSH2 0xD96 DUP3 DUP3 DUP6 PUSH2 0xCD6 JUMP JUMPDEST PUSH0 PUSH1 0x20 SWAP1 POP PUSH1 0x1F DUP4 GT PUSH1 0x1 DUP2 EQ PUSH2 0xDC7 JUMPI PUSH0 DUP5 ISZERO PUSH2 0xDB5 JUMPI DUP3 DUP8 ADD MLOAD SWAP1 POP JUMPDEST PUSH2 0xDBF DUP6 DUP3 PUSH2 0xD44 JUMP JUMPDEST DUP7 SSTORE POP PUSH2 0xE26 JUMP JUMPDEST PUSH1 0x1F NOT DUP5 AND PUSH2 0xDD5 DUP7 PUSH2 0xBBF JUMP JUMPDEST PUSH0 JUMPDEST DUP3 DUP2 LT ISZERO PUSH2 0xDFC JUMPI DUP5 DUP10 ADD MLOAD DUP3 SSTORE PUSH1 0x1 DUP3 ADD SWAP2 POP PUSH1 0x20 DUP6 ADD SWAP5 POP PUSH1 0x20 DUP2 ADD SWAP1 POP PUSH2 0xDD7 JUMP JUMPDEST DUP7 DUP4 LT ISZERO PUSH2 0xE19 JUMPI DUP5 DUP10 ADD MLOAD PUSH2 0xE15 PUSH1 0x1F DUP10 AND DUP3 PUSH2 0xD28 JUMP JUMPDEST DUP4 SSTORE POP JUMPDEST PUSH1 0x1 PUSH1 0x2 DUP9 MUL ADD DUP9 SSTORE POP POP POP JUMPDEST POP POP POP POP POP POP JUMP INVALID LOG2 PUSH5 0x6970667358 0x22 SLT KECCAK256 0x27 MSTORE8 0xBD 0xB8 PUSH25 0x1AAD16668A1781ACD58A139399BFC477D3A5A61078212496BE MULMOD PUSH16 0x64736F6C634300081E00330000000000 "
				},
				"gasEstimates": {
					"creation": {
						"codeDepositCost": "736800",
						"executionCost": "771",
						"totalCost": "737571"
					},
					"external": {
						"addTask(string)": "infinite",
						"addTaskWithPoints(string,uint256)": "infinite",
						"getTask(uint256)": "infinite",
						"globalStatus()": "2642",
						"markDone(uint256)": "26957",
						"setStatus(uint8)": "24690",
						"taskCount()": "2491",
						"taski(uint256)": "infinite",
						"tasks(uint256)": "infinite",
						"totalPoints()": "2514"
					}
				},
				"methodIdentifiers": {
					"addTask(string)": "67238562",
					"addTaskWithPoints(string,uint256)": "5c9814cb",
					"getTask(uint256)": "1d65e77e",
					"globalStatus()": "b73f7951",
					"markDone(uint256)": "4ad0e590",
					"setStatus(uint8)": "2e49d78b",
					"taskCount()": "b6cb58a5",
					"taski(uint256)": "0eddaecf",
					"tasks(uint256)": "8d977672",
					"totalPoints()": "567142be"
				}
			},
			"storageLayout": {
				"storage": [
					{
						"astId": 10,
						"contract": "TaskManager.sol:TaskManager",
						"label": "taski",
						"offset": 0,
						"slot": "0",
						"type": "t_array(t_struct(Task)6_storage)dyn_storage"
					},
					{
						"astId": 12,
						"contract": "TaskManager.sol:TaskManager",
						"label": "taskCount",
						"offset": 0,
						"slot": "1",
						"type": "t_uint256"
					},
					{
						"astId": 17,
						"contract": "TaskManager.sol:TaskManager",
						"label": "tasks",
						"offset": 0,
						"slot": "2",
						"type": "t_mapping(t_uint256,t_struct(Task)6_storage)"
					},
					{
						"astId": 84,
						"contract": "TaskManager.sol:TaskManager",
						"label": "globalStatus",
						"offset": 0,
						"slot": "3",
						"type": "t_enum(Status)81"
					},
					{
						"astId": 86,
						"contract": "TaskManager.sol:TaskManager",
						"label": "totalPoints",
						"offset": 0,
						"slot": "4",
						"type": "t_uint256"
					}
				],
				"types": {
					"t_array(t_struct(Task)6_storage)dyn_storage": {
						"base": "t_struct(Task)6_storage",
						"encoding": "dynamic_array",
						"label": "struct BaseTaskManager.Task[]",
						"numberOfBytes": "32"
					},
					"t_bool": {
						"encoding": "inplace",
						"label": "bool",
						"numberOfBytes": "1"
					},
					"t_enum(Status)81": {
						"encoding": "inplace",
						"label": "enum TaskManager.Status",
						"numberOfBytes": "1"
					},
					"t_mapping(t_uint256,t_struct(Task)6_storage)": {
						"encoding": "mapping",
						"key": "t_uint256",
						"label": "mapping(uint256 => struct BaseTaskManager.Task)",
						"numberOfBytes": "32",
						"value": "t_struct(Task)6_storage"
					},
					"t_string_storage": {
						"encoding": "bytes",
						"label": "string",
						"numberOfBytes": "32"
					},
					"t_struct(Task)6_storage": {
						"encoding": "inplace",
						"label": "struct BaseTaskManager.Task",
						"members": [
							{
								"astId": 3,
								"contract": "TaskManager.sol:TaskManager",
								"label": "text",
								"offset": 0,
								"slot": "0",
								"type": "t_string_storage"
							},
							{
								"astId": 5,
								"contract": "TaskManager.sol:TaskManager",
								"label": "done",
								"offset": 0,
								"slot": "1",
								"type": "t_bool"
							}
						],
						"numberOfBytes": "64"
					},
					"t_uint256": {
						"encoding": "inplace",
						"label": "uint256",
						"numberOfBytes": "32"
					}
				}
			},
			"userdoc": {
				"kind": "user",
				"methods": {},
				"version": 1
			}
		}
	}
}