{
	"TaskManager.sol": {
		"TaskManager": {
			"abi": [
				{
					"inputs": [
						{
							"internalType": "uint256",
							"name": "index",
							"type": "uint256"
						}
					],
					"name": "GetTask",
					"outputs": [
						{
							"internalType": "string",
							"name": "",
							"type": "string"
						},
						{
							"internalType": "bool",
							"name": "",
							"type": "bool"
						},
						{
							"internalType": "uint256",
							"name": "",
							"type": "uint256"
						}
					],
					"stateMutability": "view",
					"type": "function"
				},
				{
					"inputs": [
						{
							"internalType": "string",
							"name": "text",
							"type": "string"
						}
					],
					"name": "addTask",
					"outputs": [],
					"stateMutability": "nonpayable",
					"type": "function"
				},
				{
					"inputs": [
						{
							"internalType": "string",
							"name": "text",
							"type": "string"
						},
						{
							"internalType": "uint256",
							"name": "_points",
							"type": "uint256"
						}
					],
					"name": "addTaskWithPoints",
					"outputs": [],
					"stateMutability": "nonpayable",
					"type": "function"
				},
				{
					"inputs": [
						{
							"internalType": "uint256",
							"name": "index",
							"type": "uint256"
						}
					],
					"name": "getTask",
					"outputs": [
						{
							"internalType": "string",
							"name": "",
							"type": "string"
						},
						{
							"internalType": "bool",
							"name": "",
							"type": "bool"
						}
					],
					"stateMutability": "view",
					"type": "function"
				},
				{
					"inputs": [],
					"name": "globalStatus",
					"outputs": [
						{
							"internalType": "enum TaskManager.Status",
							"name": "",
							"type": "uint8"
						}
					],
					"stateMutability": "view",
					"type": "function"
				},
				{
					"inputs": [
						{
							"internalType": "uint256",
							"name": "index",
							"type": "uint256"
						}
					],
					"name": "markDone",
					"outputs": [],
					"stateMutability": "nonpayable",
					"type": "function"
				},
				{
					"inputs": [
						{
							"internalType": "uint256",
							"name": "",
							"type": "uint256"
						}
					],
					"name": "points",
					"outputs": [
						{
							"internalType": "uint256",
							"name": "",
							"type": "uint256"
						}
					],
					"stateMutability": "view",
					"type": "function"
				},
				{
					"inputs": [
						{
							"internalType": "enum TaskManager.Status",
							"name": "newStatus",
							"type": "uint8"
						}
					],
					"name": "setStatus",
					"outputs": [],
					"stateMutability": "nonpayable",
					"type": "function"
				},
				{
					"inputs": [],
					"name": "taskCount",
					"outputs": [
						{
							"internalType": "uint256",
							"name": "",
							"type": "uint256"
						}
					],
					"stateMutability": "view",
					"type": "function"
				},
				{
					"inputs": [
						{
							"internalType": "uint256",
							"name": "",
							"type": "uint256"
						}
					],
					"name": "taski",
					"outputs": [
						{
							"internalType": "string",
							"name": "text",
							"type": "string"
						},
						{
							"internalType": "bool",
							"name": "done",
							"type": "bool"
						}
					],
					"stateMutability": "view",
					"type": "function"
				},
				{
					"inputs": [
						{
							"internalType": "uint256",
							"name": "",
							"type": "uint256"
						}
					],
					"name": "tasks",
					"outputs": [
						{
							"internalType": "string",
							"name": "text",
							"type": "string"
						},
						{
							"internalType": "bool",
							"name": "done",
							"type": "bool"
						}
					],
					"stateMutability": "view",
					"type": "function"
				},
				{
					"inputs": [],
					"name": "totalPoints",
					"outputs": [
						{
							"internalType": "uint256",
							"name": "",
							"type": "uint256"
						}
					],
					"stateMutability": "view",
					"type": "function"
				}
			],
			"devdoc": {
				"kind": "dev",
				"methods": {},
				"version": 1
			},
			"evm": {
				"assembly": "    /* \"TaskManager.sol\":96:991  contract TaskManager is BaseTaskManager {... */\n  mstore(0x40, 0x80)\n  callvalue\n  dup1\n  iszero\n  tag_1\n  jumpi\n  revert(0x00, 0x00)\ntag_1:\n  pop\n  dataSize(sub_0)\n  dup1\n  dataOffset(sub_0)\n  0x00\n  codecopy\n  0x00\n  return\nstop\n\nsub_0: assembly {\n        /* \"TaskManager.sol\":96:991  contract TaskManager is BaseTaskManager {... */\n      mstore(0x40, 0x80)\n      callvalue\n      dup1\n      iszero\n      tag_1\n      jumpi\n      revert(0x00, 0x00)\n    tag_1:\n      pop\n      jumpi(tag_2, lt(calldatasize, 0x04))\n      shr(0xe0, calldataload(0x00))\n      dup1\n      0x5c9814cb\n      gt\n      tag_15\n      jumpi\n      dup1\n      0x5c9814cb\n      eq\n      tag_9\n      jumpi\n      dup1\n      0x67238562\n      eq\n      tag_10\n      jumpi\n      dup1\n      0x8d977672\n      eq\n      tag_11\n      jumpi\n      dup1\n      0x9799b4e7\n      eq\n      tag_12\n      jumpi\n      dup1\n      0xb6cb58a5\n      eq\n      tag_13\n      jumpi\n      dup1\n      0xb73f7951\n      eq\n      tag_14\n      jumpi\n      jump(tag_2)\n    tag_15:\n      dup1\n      0x0eddaecf\n      eq\n      tag_3\n      jumpi\n      dup1\n      0x1d65e77e\n      eq\n      tag_4\n      jumpi\n      dup1\n      0x2e49d78b\n      eq\n      tag_5\n      jumpi\n      dup1\n      0x4ad0e590\n      eq\n      tag_6\n      jumpi\n      dup1\n      0x50675ed6\n      eq\n      tag_7\n      jumpi\n      dup1\n      0x567142be\n      eq\n      tag_8\n      jumpi\n    tag_2:\n      revert(0x00, 0x00)\n        /* \"BaseTaskManager.sol\":163:182  Task[] public taski */\n    tag_3:\n      tag_16\n      0x04\n      dup1\n      calldatasize\n      sub\n      dup2\n      add\n      swap1\n      tag_17\n      swap2\n      swap1\n      tag_18\n      jump\t// in\n    tag_17:\n      tag_19\n      jump\t// in\n    tag_16:\n      mload(0x40)\n      tag_20\n      swap3\n      swap2\n      swap1\n      tag_21\n      jump\t// in\n    tag_20:\n      mload(0x40)\n      dup1\n      swap2\n      sub\n      swap1\n      return\n        /* \"BaseTaskManager.sol\":471:640  function getTask(uint index) public view virtual returns (string memory, bool) {... */\n    tag_4:\n      tag_22\n      0x04\n      dup1\n      calldatasize\n      sub\n      dup2\n      add\n      swap1\n      tag_23\n      swap2\n      swap1\n      tag_18\n      jump\t// in\n    tag_23:\n      tag_24\n      jump\t// in\n    tag_22:\n      mload(0x40)\n      tag_25\n      swap3\n      swap2\n      swap1\n      tag_21\n      jump\t// in\n    tag_25:\n      mload(0x40)\n      dup1\n      swap2\n      sub\n      swap1\n      return\n        /* \"TaskManager.sol\":296:383  function setStatus(Status newStatus) public {... */\n    tag_5:\n      tag_26\n      0x04\n      dup1\n      calldatasize\n      sub\n      dup2\n      add\n      swap1\n      tag_27\n      swap2\n      swap1\n      tag_28\n      jump\t// in\n    tag_27:\n      tag_29\n      jump\t// in\n    tag_26:\n      stop\n        /* \"TaskManager.sol\":874:988  function markDone(uint index) public override {... */\n    tag_6:\n      tag_30\n      0x04\n      dup1\n      calldatasize\n      sub\n      dup2\n      add\n      swap1\n      tag_31\n      swap2\n      swap1\n      tag_18\n      jump\t// in\n    tag_31:\n      tag_32\n      jump\t// in\n    tag_30:\n      stop\n        /* \"TaskManager.sol\":674:866  function GetTask(uint index) public view /*override*/ returns(string memory, bool, uint) {... */\n    tag_7:\n      tag_33\n      0x04\n      dup1\n      calldatasize\n      sub\n      dup2\n      add\n      swap1\n      tag_34\n      swap2\n      swap1\n      tag_18\n      jump\t// in\n    tag_34:\n      tag_35\n      jump\t// in\n    tag_33:\n      mload(0x40)\n      tag_36\n      swap4\n      swap3\n      swap2\n      swap1\n      tag_37\n      jump\t// in\n    tag_36:\n      mload(0x40)\n      dup1\n      swap2\n      sub\n      swap1\n      return\n        /* \"TaskManager.sol\":264:287  uint public totalPoints */\n    tag_8:\n      tag_38\n      tag_39\n      jump\t// in\n    tag_38:\n      mload(0x40)\n      tag_40\n      swap2\n      swap1\n      tag_41\n      jump\t// in\n    tag_40:\n      mload(0x40)\n      dup1\n      swap2\n      sub\n      swap1\n      return\n        /* \"TaskManager.sol\":391:666  function addTaskWithPoints(string memory text, uint _points) public {... */\n    tag_9:\n      tag_42\n      0x04\n      dup1\n      calldatasize\n      sub\n      dup2\n      add\n      swap1\n      tag_43\n      swap2\n      swap1\n      tag_44\n      jump\t// in\n    tag_43:\n      tag_45\n      jump\t// in\n    tag_42:\n      stop\n        /* \"BaseTaskManager.sol\":264:463  function addTask(string memory text) public virtual {... */\n    tag_10:\n      tag_46\n      0x04\n      dup1\n      calldatasize\n      sub\n      dup2\n      add\n      swap1\n      tag_47\n      swap2\n      swap1\n      tag_48\n      jump\t// in\n    tag_47:\n      tag_49\n      jump\t// in\n    tag_46:\n      stop\n        /* \"BaseTaskManager.sol\":220:255  mapping (uint => Task) public tasks */\n    tag_11:\n      tag_50\n      0x04\n      dup1\n      calldatasize\n      sub\n      dup2\n      add\n      swap1\n      tag_51\n      swap2\n      swap1\n      tag_18\n      jump\t// in\n    tag_51:\n      tag_52\n      jump\t// in\n    tag_50:\n      mload(0x40)\n      tag_53\n      swap3\n      swap2\n      swap1\n      tag_21\n      jump\t// in\n    tag_53:\n      mload(0x40)\n      dup1\n      swap2\n      sub\n      swap1\n      return\n        /* \"TaskManager.sol\":143:178  mapping(uint => uint) public points */\n    tag_12:\n      tag_54\n      0x04\n      dup1\n      calldatasize\n      sub\n      dup2\n      add\n      swap1\n      tag_55\n      swap2\n      swap1\n      tag_18\n      jump\t// in\n    tag_55:\n      tag_56\n      jump\t// in\n    tag_54:\n      mload(0x40)\n      tag_57\n      swap2\n      swap1\n      tag_41\n      jump\t// in\n    tag_57:\n      mload(0x40)\n      dup1\n      swap2\n      sub\n      swap1\n      return\n        /* \"BaseTaskManager.sol\":192:213  uint public taskCount */\n    tag_13:\n      tag_58\n      tag_59\n      jump\t// in\n    tag_58:\n      mload(0x40)\n      tag_60\n      swap2\n      swap1\n      tag_41\n      jump\t// in\n    tag_60:\n      mload(0x40)\n      dup1\n      swap2\n      sub\n      swap1\n      return\n        /* \"TaskManager.sol\":229:255  Status public globalStatus */\n    tag_14:\n      tag_61\n      tag_62\n      jump\t// in\n    tag_61:\n      mload(0x40)\n      tag_63\n      swap2\n      swap1\n      tag_64\n      jump\t// in\n    tag_63:\n      mload(0x40)\n      dup1\n      swap2\n      sub\n      swap1\n      return\n        /* \"BaseTaskManager.sol\":163:182  Task[] public taski */\n    tag_19:\n      0x00\n      dup2\n      dup2\n      sload\n      dup2\n      lt\n      tag_65\n      jumpi\n      0x00\n      dup1\n      revert\n    tag_65:\n      swap1\n      0x00\n      mstore\n      keccak256(0x00, 0x20)\n      swap1\n      0x02\n      mul\n      add\n      0x00\n      swap2\n      pop\n      swap1\n      pop\n      dup1\n      0x00\n      add\n      dup1\n      sload\n      tag_67\n      swap1\n      tag_68\n      jump\t// in\n    tag_67:\n      dup1\n      0x1f\n      add\n      0x20\n      dup1\n      swap2\n      div\n      mul\n      0x20\n      add\n      mload(0x40)\n      swap1\n      dup2\n      add\n      0x40\n      mstore\n      dup1\n      swap3\n      swap2\n      swap1\n      dup2\n      dup2\n      mstore\n      0x20\n      add\n      dup3\n      dup1\n      sload\n      tag_69\n      swap1\n      tag_68\n      jump\t// in\n    tag_69:\n      dup1\n      iszero\n      tag_70\n      jumpi\n      dup1\n      0x1f\n      lt\n      tag_71\n      jumpi\n      0x0100\n      dup1\n      dup4\n      sload\n      div\n      mul\n      dup4\n      mstore\n      swap2\n      0x20\n      add\n      swap2\n      jump(tag_70)\n    tag_71:\n      dup3\n      add\n      swap2\n      swap1\n      0x00\n      mstore\n      keccak256(0x00, 0x20)\n      swap1\n    tag_72:\n      dup2\n      sload\n      dup2\n      mstore\n      swap1\n      0x01\n      add\n      swap1\n      0x20\n      add\n      dup1\n      dup4\n      gt\n      tag_72\n      jumpi\n      dup3\n      swap1\n      sub\n      0x1f\n      and\n      dup3\n      add\n      swap2\n    tag_70:\n      pop\n      pop\n      pop\n      pop\n      pop\n      swap1\n      dup1\n      0x01\n      add\n      0x00\n      swap1\n      sload\n      swap1\n      0x0100\n      exp\n      swap1\n      div\n      0xff\n      and\n      swap1\n      pop\n      dup3\n      jump\t// out\n        /* \"BaseTaskManager.sol\":471:640  function getTask(uint index) public view virtual returns (string memory, bool) {... */\n    tag_24:\n        /* \"BaseTaskManager.sol\":529:542  string memory */\n      0x60\n        /* \"BaseTaskManager.sol\":544:548  bool */\n      0x00\n        /* \"BaseTaskManager.sol\":561:577  Task memory task */\n      0x00\n        /* \"BaseTaskManager.sol\":580:585  taski */\n      0x00\n        /* \"BaseTaskManager.sol\":586:591  index */\n      dup5\n        /* \"BaseTaskManager.sol\":580:592  taski[index] */\n      dup2\n      sload\n      dup2\n      lt\n      tag_74\n      jumpi\n      tag_75\n      tag_76\n      jump\t// in\n    tag_75:\n    tag_74:\n      swap1\n      0x00\n      mstore\n      keccak256(0x00, 0x20)\n      swap1\n      0x02\n      mul\n      add\n        /* \"BaseTaskManager.sol\":561:592  Task memory task = taski[index] */\n      mload(0x40)\n      dup1\n      0x40\n      add\n      0x40\n      mstore\n      swap1\n      dup2\n      0x00\n      dup3\n      add\n      dup1\n      sload\n      tag_78\n      swap1\n      tag_68\n      jump\t// in\n    tag_78:\n      dup1\n      0x1f\n      add\n      0x20\n      dup1\n      swap2\n      div\n      mul\n      0x20\n      add\n      mload(0x40)\n      swap1\n      dup2\n      add\n      0x40\n      mstore\n      dup1\n      swap3\n      swap2\n      swap1\n      dup2\n      dup2\n      mstore\n      0x20\n      add\n      dup3\n      dup1\n      sload\n      tag_79\n      swap1\n      tag_68\n      jump\t// in\n    tag_79:\n      dup1\n      iszero\n      tag_80\n      jumpi\n      dup1\n      0x1f\n      lt\n      tag_81\n      jumpi\n      0x0100\n      dup1\n      dup4\n      sload\n      div\n      mul\n      dup4\n      mstore\n      swap2\n      0x20\n      add\n      swap2\n      jump(tag_80)\n    tag_81:\n      dup3\n      add\n      swap2\n      swap1\n      0x00\n      mstore\n      keccak256(0x00, 0x20)\n      swap1\n    tag_82:\n      dup2\n      sload\n      dup2\n      mstore\n      swap1\n      0x01\n      add\n      swap1\n      0x20\n      add\n      dup1\n      dup4\n      gt\n      tag_82\n      jumpi\n      dup3\n      swap1\n      sub\n      0x1f\n      and\n      dup3\n      add\n      swap2\n    tag_80:\n      pop\n      pop\n      pop\n      pop\n      pop\n      dup2\n      mstore\n      0x20\n      add\n      0x01\n      dup3\n      add\n      0x00\n      swap1\n      sload\n      swap1\n      0x0100\n      exp\n      swap1\n      div\n      0xff\n      and\n      iszero\n      iszero\n      iszero\n      iszero\n      dup2\n      mstore\n      pop\n      pop\n      swap1\n      pop\n        /* \"BaseTaskManager.sol\":611:615  task */\n      dup1\n        /* \"BaseTaskManager.sol\":611:620  task.text */\n      0x00\n      add\n      mload\n        /* \"BaseTaskManager.sol\":622:626  task */\n      dup2\n        /* \"BaseTaskManager.sol\":622:631  task.done */\n      0x20\n      add\n      mload\n        /* \"BaseTaskManager.sol\":603:632  return (task.text, task.done) */\n      swap3\n      pop\n      swap3\n      pop\n      pop\n        /* \"BaseTaskManager.sol\":471:640  function getTask(uint index) public view virtual returns (string memory, bool) {... */\n      swap2\n      pop\n      swap2\n      jump\t// out\n        /* \"TaskManager.sol\":296:383  function setStatus(Status newStatus) public {... */\n    tag_29:\n        /* \"TaskManager.sol\":366:375  newStatus */\n      dup1\n        /* \"TaskManager.sol\":351:363  globalStatus */\n      0x04\n      0x00\n        /* \"TaskManager.sol\":351:375  globalStatus = newStatus */\n      0x0100\n      exp\n      dup2\n      sload\n      dup2\n      0xff\n      mul\n      not\n      and\n      swap1\n      dup4\n      0x02\n      dup2\n      gt\n      iszero\n      tag_84\n      jumpi\n      tag_85\n      tag_86\n      jump\t// in\n    tag_85:\n    tag_84:\n      mul\n      or\n      swap1\n      sstore\n      pop\n        /* \"TaskManager.sol\":296:383  function setStatus(Status newStatus) public {... */\n      pop\n      jump\t// out\n        /* \"TaskManager.sol\":874:988  function markDone(uint index) public override {... */\n    tag_32:\n        /* \"TaskManager.sol\":931:952  super.markDone(index) */\n      tag_88\n        /* \"TaskManager.sol\":946:951  index */\n      dup2\n        /* \"TaskManager.sol\":931:945  super.markDone */\n      tag_89\n        /* \"TaskManager.sol\":931:952  super.markDone(index) */\n      jump\t// in\n    tag_88:\n        /* \"TaskManager.sol\":978:980  10 */\n      0x0a\n        /* \"TaskManager.sol\":963:974  totalPoints */\n      0x05\n      0x00\n        /* \"TaskManager.sol\":963:980  totalPoints += 10 */\n      dup3\n      dup3\n      sload\n      tag_90\n      swap2\n      swap1\n      tag_91\n      jump\t// in\n    tag_90:\n      swap3\n      pop\n      pop\n      dup2\n      swap1\n      sstore\n      pop\n        /* \"TaskManager.sol\":874:988  function markDone(uint index) public override {... */\n      pop\n      jump\t// out\n        /* \"TaskManager.sol\":674:866  function GetTask(uint index) public view /*override*/ returns(string memory, bool, uint) {... */\n    tag_35:\n        /* \"TaskManager.sol\":736:749  string memory */\n      0x60\n        /* \"TaskManager.sol\":751:755  bool */\n      0x00\n        /* \"TaskManager.sol\":757:761  uint */\n      0x00\n        /* \"TaskManager.sol\":774:790  Task memory task */\n      0x00\n        /* \"TaskManager.sol\":793:798  tasks */\n      0x02\n        /* \"TaskManager.sol\":793:805  tasks[index] */\n      0x00\n        /* \"TaskManager.sol\":799:804  index */\n      dup7\n        /* \"TaskManager.sol\":793:805  tasks[index] */\n      dup2\n      mstore\n      0x20\n      add\n      swap1\n      dup2\n      mstore\n      0x20\n      add\n      0x00\n      keccak256\n        /* \"TaskManager.sol\":774:805  Task memory task = tasks[index] */\n      mload(0x40)\n      dup1\n      0x40\n      add\n      0x40\n      mstore\n      swap1\n      dup2\n      0x00\n      dup3\n      add\n      dup1\n      sload\n      tag_93\n      swap1\n      tag_68\n      jump\t// in\n    tag_93:\n      dup1\n      0x1f\n      add\n      0x20\n      dup1\n      swap2\n      div\n      mul\n      0x20\n      add\n      mload(0x40)\n      swap1\n      dup2\n      add\n      0x40\n      mstore\n      dup1\n      swap3\n      swap2\n      swap1\n      dup2\n      dup2\n      mstore\n      0x20\n      add\n      dup3\n      dup1\n      sload\n      tag_94\n      swap1\n      tag_68\n      jump\t// in\n    tag_94:\n      dup1\n      iszero\n      tag_95\n      jumpi\n      dup1\n      0x1f\n      lt\n      tag_96\n      jumpi\n      0x0100\n      dup1\n      dup4\n      sload\n      div\n      mul\n      dup4\n      mstore\n      swap2\n      0x20\n      add\n      swap2\n      jump(tag_95)\n    tag_96:\n      dup3\n      add\n      swap2\n      swap1\n      0x00\n      mstore\n      keccak256(0x00, 0x20)\n      swap1\n    tag_97:\n      dup2\n      sload\n      dup2\n      mstore\n      swap1\n      0x01\n      add\n      swap1\n      0x20\n      add\n      dup1\n      dup4\n      gt\n      tag_97\n      jumpi\n      dup3\n      swap1\n      sub\n      0x1f\n      and\n      dup3\n      add\n      swap2\n    tag_95:\n      pop\n      pop\n      pop\n      pop\n      pop\n      dup2\n      mstore\n      0x20\n      add\n      0x01\n      dup3\n      add\n      0x00\n      swap1\n      sload\n      swap1\n      0x0100\n      exp\n      swap1\n      div\n      0xff\n      and\n      iszero\n      iszero\n      iszero\n      iszero\n      dup2\n      mstore\n      pop\n      pop\n      swap1\n      pop\n        /* \"TaskManager.sol\":824:828  task */\n      dup1\n        /* \"TaskManager.sol\":824:833  task.text */\n      0x00\n      add\n      mload\n        /* \"TaskManager.sol\":835:839  task */\n      dup2\n        /* \"TaskManager.sol\":835:844  task.done */\n      0x20\n      add\n      mload\n        /* \"TaskManager.sol\":846:857  totalPoints */\n      sload(0x05)\n        /* \"TaskManager.sol\":816:858  return (task.text, task.done, totalPoints) */\n      swap4\n      pop\n      swap4\n      pop\n      swap4\n      pop\n      pop\n        /* \"TaskManager.sol\":674:866  function GetTask(uint index) public view /*override*/ returns(string memory, bool, uint) {... */\n      swap2\n      swap4\n      swap1\n      swap3\n      pop\n      jump\t// out\n        /* \"TaskManager.sol\":264:287  uint public totalPoints */\n    tag_39:\n      sload(0x05)\n      dup2\n      jump\t// out\n        /* \"TaskManager.sol\":391:666  function addTaskWithPoints(string memory text, uint _points) public {... */\n    tag_45:\n        /* \"TaskManager.sol\":489:492  100 */\n      0x64\n        /* \"TaskManager.sol\":478:485  _points */\n      dup2\n        /* \"TaskManager.sol\":478:492  _points <= 100 */\n      gt\n      iszero\n        /* \"TaskManager.sol\":470:569  require(_points <= 100, unicode\"Оценка не может превысить 100 баллов!\") */\n      tag_99\n      jumpi\n      mload(0x40)\n      0x08c379a000000000000000000000000000000000000000000000000000000000\n      dup2\n      mstore\n      0x04\n      add\n      tag_100\n      swap1\n      tag_101\n      jump\t// in\n    tag_100:\n      mload(0x40)\n      dup1\n      swap2\n      sub\n      swap1\n      revert\n    tag_99:\n        /* \"TaskManager.sol\":580:586  points */\n      0x03\n        /* \"TaskManager.sol\":580:595  points[_points] */\n      0x00\n        /* \"TaskManager.sol\":587:594  _points */\n      dup3\n        /* \"TaskManager.sol\":580:595  points[_points] */\n      dup2\n      mstore\n      0x20\n      add\n      swap1\n      dup2\n      mstore\n      0x20\n      add\n      0x00\n      keccak256\n      pop\n        /* \"TaskManager.sol\":606:625  super.addTask(text) */\n      tag_102\n        /* \"TaskManager.sol\":620:624  text */\n      dup3\n        /* \"TaskManager.sol\":606:619  super.addTask */\n      tag_49\n        /* \"TaskManager.sol\":606:625  super.addTask(text) */\n      jump\t// in\n    tag_102:\n        /* \"TaskManager.sol\":651:658  _points */\n      dup1\n        /* \"TaskManager.sol\":636:647  totalPoints */\n      0x05\n      0x00\n        /* \"TaskManager.sol\":636:658  totalPoints += _points */\n      dup3\n      dup3\n      sload\n      tag_103\n      swap2\n      swap1\n      tag_91\n      jump\t// in\n    tag_103:\n      swap3\n      pop\n      pop\n      dup2\n      swap1\n      sstore\n      pop\n        /* \"TaskManager.sol\":391:666  function addTaskWithPoints(string memory text, uint _points) public {... */\n      pop\n      pop\n      jump\t// out\n        /* \"BaseTaskManager.sol\":264:463  function addTask(string memory text) public virtual {... */\n    tag_49:\n        /* \"BaseTaskManager.sol\":327:334  uint id */\n      0x00\n        /* \"BaseTaskManager.sol\":337:346  taskCount */\n      0x01\n      0x00\n        /* \"BaseTaskManager.sol\":337:348  taskCount++ */\n      dup2\n      sload\n      dup1\n      swap3\n      swap2\n      swap1\n      tag_105\n      swap1\n      tag_106\n      jump\t// in\n    tag_105:\n      swap2\n      swap1\n      pop\n      sstore\n        /* \"BaseTaskManager.sol\":327:348  uint id = taskCount++ */\n      swap1\n      pop\n        /* \"BaseTaskManager.sol\":359:376  Task storage task */\n      0x00\n        /* \"BaseTaskManager.sol\":379:384  tasks */\n      0x02\n        /* \"BaseTaskManager.sol\":379:388  tasks[id] */\n      0x00\n        /* \"BaseTaskManager.sol\":385:387  id */\n      dup4\n        /* \"BaseTaskManager.sol\":379:388  tasks[id] */\n      dup2\n      mstore\n      0x20\n      add\n      swap1\n      dup2\n      mstore\n      0x20\n      add\n      0x00\n      keccak256\n        /* \"BaseTaskManager.sol\":359:388  Task storage task = tasks[id] */\n      swap1\n      pop\n        /* \"BaseTaskManager.sol\":411:415  text */\n      dup3\n        /* \"BaseTaskManager.sol\":399:403  task */\n      dup2\n        /* \"BaseTaskManager.sol\":399:408  task.text */\n      0x00\n      add\n        /* \"BaseTaskManager.sol\":399:415  task.text = text */\n      swap1\n      dup2\n      tag_107\n      swap2\n      swap1\n      tag_108\n      jump\t// in\n    tag_107:\n      pop\n        /* \"BaseTaskManager.sol\":426:431  taski */\n      0x00\n        /* \"BaseTaskManager.sol\":437:454  Task(text, false) */\n      mload(0x40)\n      dup1\n      0x40\n      add\n      0x40\n      mstore\n      dup1\n        /* \"BaseTaskManager.sol\":442:446  text */\n      dup6\n        /* \"BaseTaskManager.sol\":437:454  Task(text, false) */\n      dup2\n      mstore\n      0x20\n      add\n        /* \"BaseTaskManager.sol\":448:453  false */\n      0x00\n        /* \"BaseTaskManager.sol\":437:454  Task(text, false) */\n      iszero\n      iszero\n      dup2\n      mstore\n      pop\n        /* \"BaseTaskManager.sol\":426:455  taski.push(Task(text, false)) */\n      swap1\n      dup1\n      0x01\n      dup2\n      sload\n      add\n      dup1\n      dup3\n      sstore\n      dup1\n      swap2\n      pop\n      pop\n      0x01\n      swap1\n      sub\n      swap1\n      0x00\n      mstore\n      keccak256(0x00, 0x20)\n      swap1\n      0x02\n      mul\n      add\n      0x00\n      swap1\n      swap2\n      swap1\n      swap2\n      swap1\n      swap2\n      pop\n      0x00\n      dup3\n      add\n      mload\n      dup2\n      0x00\n      add\n      swap1\n      dup2\n      tag_110\n      swap2\n      swap1\n      tag_108\n      jump\t// in\n    tag_110:\n      pop\n      0x20\n      dup3\n      add\n      mload\n      dup2\n      0x01\n      add\n      exp(0x0100, 0x00)\n      dup2\n      sload\n      dup2\n      0xff\n      mul\n      not\n      and\n      swap1\n      dup4\n      iszero\n      iszero\n      mul\n      or\n      swap1\n      sstore\n      pop\n      pop\n      pop\n        /* \"BaseTaskManager.sol\":316:463  {... */\n      pop\n      pop\n        /* \"BaseTaskManager.sol\":264:463  function addTask(string memory text) public virtual {... */\n      pop\n      jump\t// out\n        /* \"BaseTaskManager.sol\":220:255  mapping (uint => Task) public tasks */\n    tag_52:\n      mstore(0x20, 0x02)\n      dup1\n      0x00\n      mstore\n      keccak256(0x00, 0x40)\n      0x00\n      swap2\n      pop\n      swap1\n      pop\n      dup1\n      0x00\n      add\n      dup1\n      sload\n      tag_111\n      swap1\n      tag_68\n      jump\t// in\n    tag_111:\n      dup1\n      0x1f\n      add\n      0x20\n      dup1\n      swap2\n      div\n      mul\n      0x20\n      add\n      mload(0x40)\n      swap1\n      dup2\n      add\n      0x40\n      mstore\n      dup1\n      swap3\n      swap2\n      swap1\n      dup2\n      dup2\n      mstore\n      0x20\n      add\n      dup3\n      dup1\n      sload\n      tag_112\n      swap1\n      tag_68\n      jump\t// in\n    tag_112:\n      dup1\n      iszero\n      tag_113\n      jumpi\n      dup1\n      0x1f\n      lt\n      tag_114\n      jumpi\n      0x0100\n      dup1\n      dup4\n      sload\n      div\n      mul\n      dup4\n      mstore\n      swap2\n      0x20\n      add\n      swap2\n      jump(tag_113)\n    tag_114:\n      dup3\n      add\n      swap2\n      swap1\n      0x00\n      mstore\n      keccak256(0x00, 0x20)\n      swap1\n    tag_115:\n      dup2\n      sload\n      dup2\n      mstore\n      swap1\n      0x01\n      add\n      swap1\n      0x20\n      add\n      dup1\n      dup4\n      gt\n      tag_115\n      jumpi\n      dup3\n      swap1\n      sub\n      0x1f\n      and\n      dup3\n      add\n      swap2\n    tag_113:\n      pop\n      pop\n      pop\n      pop\n      pop\n      swap1\n      dup1\n      0x01\n      add\n      0x00\n      swap1\n      sload\n      swap1\n      0x0100\n      exp\n      swap1\n      div\n      0xff\n      and\n      swap1\n      pop\n      dup3\n      jump\t// out\n        /* \"TaskManager.sol\":143:178  mapping(uint => uint) public points */\n    tag_56:\n      mstore(0x20, 0x03)\n      dup1\n      0x00\n      mstore\n      keccak256(0x00, 0x40)\n      0x00\n      swap2\n      pop\n      swap1\n      pop\n      sload\n      dup2\n      jump\t// out\n        /* \"BaseTaskManager.sol\":192:213  uint public taskCount */\n    tag_59:\n      sload(0x01)\n      dup2\n      jump\t// out\n        /* \"TaskManager.sol\":229:255  Status public globalStatus */\n    tag_62:\n      0x04\n      0x00\n      swap1\n      sload\n      swap1\n      0x0100\n      exp\n      swap1\n      div\n      0xff\n      and\n      dup2\n      jump\t// out\n        /* \"BaseTaskManager.sol\":648:771  function markDone(uint index) public virtual {... */\n    tag_89:\n        /* \"BaseTaskManager.sol\":724:728  true */\n      0x01\n        /* \"BaseTaskManager.sol\":704:709  taski */\n      0x00\n        /* \"BaseTaskManager.sol\":710:715  index */\n      dup3\n        /* \"BaseTaskManager.sol\":704:716  taski[index] */\n      dup2\n      sload\n      dup2\n      lt\n      tag_117\n      jumpi\n      tag_118\n      tag_76\n      jump\t// in\n    tag_118:\n    tag_117:\n      swap1\n      0x00\n      mstore\n      keccak256(0x00, 0x20)\n      swap1\n      0x02\n      mul\n      add\n        /* \"BaseTaskManager.sol\":704:721  taski[index].done */\n      0x01\n      add\n      0x00\n        /* \"BaseTaskManager.sol\":704:728  taski[index].done = true */\n      0x0100\n      exp\n      dup2\n      sload\n      dup2\n      0xff\n      mul\n      not\n      and\n      swap1\n      dup4\n      iszero\n      iszero\n      mul\n      or\n      swap1\n      sstore\n      pop\n        /* \"BaseTaskManager.sol\":759:763  true */\n      0x01\n        /* \"BaseTaskManager.sol\":739:744  tasks */\n      0x02\n        /* \"BaseTaskManager.sol\":739:751  tasks[index] */\n      0x00\n        /* \"BaseTaskManager.sol\":745:750  index */\n      dup4\n        /* \"BaseTaskManager.sol\":739:751  tasks[index] */\n      dup2\n      mstore\n      0x20\n      add\n      swap1\n      dup2\n      mstore\n      0x20\n      add\n      0x00\n      keccak256\n        /* \"BaseTaskManager.sol\":739:756  tasks[index].done */\n      0x01\n      add\n      0x00\n        /* \"BaseTaskManager.sol\":739:763  tasks[index].done = true */\n      0x0100\n      exp\n      dup2\n      sload\n      dup2\n      0xff\n      mul\n      not\n      and\n      swap1\n      dup4\n      iszero\n      iszero\n      mul\n      or\n      swap1\n      sstore\n      pop\n        /* \"BaseTaskManager.sol\":648:771  function markDone(uint index) public virtual {... */\n      pop\n      jump\t// out\n        /* \"#utility.yul\":7:82   */\n    tag_120:\n        /* \"#utility.yul\":40:46   */\n      0x00\n        /* \"#utility.yul\":73:75   */\n      0x40\n        /* \"#utility.yul\":67:76   */\n      mload\n        /* \"#utility.yul\":57:76   */\n      swap1\n      pop\n        /* \"#utility.yul\":7:82   */\n      swap1\n      jump\t// out\n        /* \"#utility.yul\":88:205   */\n    tag_121:\n        /* \"#utility.yul\":197:198   */\n      0x00\n        /* \"#utility.yul\":194:195   */\n      0x00\n        /* \"#utility.yul\":187:199   */\n      revert\n        /* \"#utility.yul\":211:328   */\n    tag_122:\n        /* \"#utility.yul\":320:321   */\n      0x00\n        /* \"#utility.yul\":317:318   */\n      0x00\n        /* \"#utility.yul\":310:322   */\n      revert\n        /* \"#utility.yul\":334:411   */\n    tag_123:\n        /* \"#utility.yul\":371:378   */\n      0x00\n        /* \"#utility.yul\":400:405   */\n      dup2\n        /* \"#utility.yul\":389:405   */\n      swap1\n      pop\n        /* \"#utility.yul\":334:411   */\n      swap2\n      swap1\n      pop\n      jump\t// out\n        /* \"#utility.yul\":417:539   */\n    tag_124:\n        /* \"#utility.yul\":490:514   */\n      tag_174\n        /* \"#utility.yul\":508:513   */\n      dup2\n        /* \"#utility.yul\":490:514   */\n      tag_123\n      jump\t// in\n    tag_174:\n        /* \"#utility.yul\":483:488   */\n      dup2\n        /* \"#utility.yul\":480:515   */\n      eq\n        /* \"#utility.yul\":470:533   */\n      tag_175\n      jumpi\n        /* \"#utility.yul\":529:530   */\n      0x00\n        /* \"#utility.yul\":526:527   */\n      0x00\n        /* \"#utility.yul\":519:531   */\n      revert\n        /* \"#utility.yul\":470:533   */\n    tag_175:\n        /* \"#utility.yul\":417:539   */\n      pop\n      jump\t// out\n        /* \"#utility.yul\":545:684   */\n    tag_125:\n        /* \"#utility.yul\":591:596   */\n      0x00\n        /* \"#utility.yul\":629:635   */\n      dup2\n        /* \"#utility.yul\":616:636   */\n      calldataload\n        /* \"#utility.yul\":607:636   */\n      swap1\n      pop\n        /* \"#utility.yul\":645:678   */\n      tag_177\n        /* \"#utility.yul\":672:677   */\n      dup2\n        /* \"#utility.yul\":645:678   */\n      tag_124\n      jump\t// in\n    tag_177:\n        /* \"#utility.yul\":545:684   */\n      swap3\n      swap2\n      pop\n      pop\n      jump\t// out\n        /* \"#utility.yul\":690:1019   */\n    tag_18:\n        /* \"#utility.yul\":749:755   */\n      0x00\n        /* \"#utility.yul\":798:800   */\n      0x20\n        /* \"#utility.yul\":786:795   */\n      dup3\n        /* \"#utility.yul\":777:784   */\n      dup5\n        /* \"#utility.yul\":773:796   */\n      sub\n        /* \"#utility.yul\":769:801   */\n      slt\n        /* \"#utility.yul\":766:885   */\n      iszero\n      tag_179\n      jumpi\n        /* \"#utility.yul\":804:883   */\n      tag_180\n      tag_121\n      jump\t// in\n    tag_180:\n        /* \"#utility.yul\":766:885   */\n    tag_179:\n        /* \"#utility.yul\":924:925   */\n      0x00\n        /* \"#utility.yul\":949:1002   */\n      tag_181\n        /* \"#utility.yul\":994:1001   */\n      dup5\n        /* \"#utility.yul\":985:991   */\n      dup3\n        /* \"#utility.yul\":974:983   */\n      dup6\n        /* \"#utility.yul\":970:992   */\n      add\n        /* \"#utility.yul\":949:1002   */\n      tag_125\n      jump\t// in\n    tag_181:\n        /* \"#utility.yul\":939:1002   */\n      swap2\n      pop\n        /* \"#utility.yul\":895:1012   */\n      pop\n        /* \"#utility.yul\":690:1019   */\n      swap3\n      swap2\n      pop\n      pop\n      jump\t// out\n        /* \"#utility.yul\":1025:1124   */\n    tag_126:\n        /* \"#utility.yul\":1077:1083   */\n      0x00\n        /* \"#utility.yul\":1111:1116   */\n      dup2\n        /* \"#utility.yul\":1105:1117   */\n      mload\n        /* \"#utility.yul\":1095:1117   */\n      swap1\n      pop\n        /* \"#utility.yul\":1025:1124   */\n      swap2\n      swap1\n      pop\n      jump\t// out\n        /* \"#utility.yul\":1130:1299   */\n    tag_127:\n        /* \"#utility.yul\":1214:1225   */\n      0x00\n        /* \"#utility.yul\":1248:1254   */\n      dup3\n        /* \"#utility.yul\":1243:1246   */\n      dup3\n        /* \"#utility.yul\":1236:1255   */\n      mstore\n        /* \"#utility.yul\":1288:1292   */\n      0x20\n        /* \"#utility.yul\":1283:1286   */\n      dup3\n        /* \"#utility.yul\":1279:1293   */\n      add\n        /* \"#utility.yul\":1264:1293   */\n      swap1\n      pop\n        /* \"#utility.yul\":1130:1299   */\n      swap3\n      swap2\n      pop\n      pop\n      jump\t// out\n        /* \"#utility.yul\":1305:1444   */\n    tag_128:\n        /* \"#utility.yul\":1394:1400   */\n      dup3\n        /* \"#utility.yul\":1389:1392   */\n      dup2\n        /* \"#utility.yul\":1384:1387   */\n      dup4\n        /* \"#utility.yul\":1378:1401   */\n      mcopy\n        /* \"#utility.yul\":1435:1436   */\n      0x00\n        /* \"#utility.yul\":1426:1432   */\n      dup4\n        /* \"#utility.yul\":1421:1424   */\n      dup4\n        /* \"#utility.yul\":1417:1433   */\n      add\n        /* \"#utility.yul\":1410:1437   */\n      mstore\n        /* \"#utility.yul\":1305:1444   */\n      pop\n      pop\n      pop\n      jump\t// out\n        /* \"#utility.yul\":1450:1552   */\n    tag_129:\n        /* \"#utility.yul\":1491:1497   */\n      0x00\n        /* \"#utility.yul\":1542:1544   */\n      0x1f\n        /* \"#utility.yul\":1538:1545   */\n      not\n        /* \"#utility.yul\":1533:1535   */\n      0x1f\n        /* \"#utility.yul\":1526:1531   */\n      dup4\n        /* \"#utility.yul\":1522:1536   */\n      add\n        /* \"#utility.yul\":1518:1546   */\n      and\n        /* \"#utility.yul\":1508:1546   */\n      swap1\n      pop\n        /* \"#utility.yul\":1450:1552   */\n      swap2\n      swap1\n      pop\n      jump\t// out\n        /* \"#utility.yul\":1558:1935   */\n    tag_130:\n        /* \"#utility.yul\":1646:1649   */\n      0x00\n        /* \"#utility.yul\":1674:1713   */\n      tag_187\n        /* \"#utility.yul\":1707:1712   */\n      dup3\n        /* \"#utility.yul\":1674:1713   */\n      tag_126\n      jump\t// in\n    tag_187:\n        /* \"#utility.yul\":1729:1800   */\n      tag_188\n        /* \"#utility.yul\":1793:1799   */\n      dup2\n        /* \"#utility.yul\":1788:1791   */\n      dup6\n        /* \"#utility.yul\":1729:1800   */\n      tag_127\n      jump\t// in\n    tag_188:\n        /* \"#utility.yul\":1722:1800   */\n      swap4\n      pop\n        /* \"#utility.yul\":1809:1874   */\n      tag_189\n        /* \"#utility.yul\":1867:1873   */\n      dup2\n        /* \"#utility.yul\":1862:1865   */\n      dup6\n        /* \"#utility.yul\":1855:1859   */\n      0x20\n        /* \"#utility.yul\":1848:1853   */\n      dup7\n        /* \"#utility.yul\":1844:1860   */\n      add\n        /* \"#utility.yul\":1809:1874   */\n      tag_128\n      jump\t// in\n    tag_189:\n        /* \"#utility.yul\":1899:1928   */\n      tag_190\n        /* \"#utility.yul\":1921:1927   */\n      dup2\n        /* \"#utility.yul\":1899:1928   */\n      tag_129\n      jump\t// in\n    tag_190:\n        /* \"#utility.yul\":1894:1897   */\n      dup5\n        /* \"#utility.yul\":1890:1929   */\n      add\n        /* \"#utility.yul\":1883:1929   */\n      swap2\n      pop\n        /* \"#utility.yul\":1650:1935   */\n      pop\n        /* \"#utility.yul\":1558:1935   */\n      swap3\n      swap2\n      pop\n      pop\n      jump\t// out\n        /* \"#utility.yul\":1941:2031   */\n    tag_131:\n        /* \"#utility.yul\":1975:1982   */\n      0x00\n        /* \"#utility.yul\":2018:2023   */\n      dup2\n        /* \"#utility.yul\":2011:2024   */\n      iszero\n        /* \"#utility.yul\":2004:2025   */\n      iszero\n        /* \"#utility.yul\":1993:2025   */\n      swap1\n      pop\n        /* \"#utility.yul\":1941:2031   */\n      swap2\n      swap1\n      pop\n      jump\t// out\n        /* \"#utility.yul\":2037:2146   */\n    tag_132:\n        /* \"#utility.yul\":2118:2139   */\n      tag_193\n        /* \"#utility.yul\":2133:2138   */\n      dup2\n        /* \"#utility.yul\":2118:2139   */\n      tag_131\n      jump\t// in\n    tag_193:\n        /* \"#utility.yul\":2113:2116   */\n      dup3\n        /* \"#utility.yul\":2106:2140   */\n      mstore\n        /* \"#utility.yul\":2037:2146   */\n      pop\n      pop\n      jump\t// out\n        /* \"#utility.yul\":2152:2563   */\n    tag_21:\n        /* \"#utility.yul\":2287:2291   */\n      0x00\n        /* \"#utility.yul\":2325:2327   */\n      0x40\n        /* \"#utility.yul\":2314:2323   */\n      dup3\n        /* \"#utility.yul\":2310:2328   */\n      add\n        /* \"#utility.yul\":2302:2328   */\n      swap1\n      pop\n        /* \"#utility.yul\":2374:2383   */\n      dup2\n        /* \"#utility.yul\":2368:2372   */\n      dup2\n        /* \"#utility.yul\":2364:2384   */\n      sub\n        /* \"#utility.yul\":2360:2361   */\n      0x00\n        /* \"#utility.yul\":2349:2358   */\n      dup4\n        /* \"#utility.yul\":2345:2362   */\n      add\n        /* \"#utility.yul\":2338:2385   */\n      mstore\n        /* \"#utility.yul\":2402:2480   */\n      tag_195\n        /* \"#utility.yul\":2475:2479   */\n      dup2\n        /* \"#utility.yul\":2466:2472   */\n      dup6\n        /* \"#utility.yul\":2402:2480   */\n      tag_130\n      jump\t// in\n    tag_195:\n        /* \"#utility.yul\":2394:2480   */\n      swap1\n      pop\n        /* \"#utility.yul\":2490:2556   */\n      tag_196\n        /* \"#utility.yul\":2552:2554   */\n      0x20\n        /* \"#utility.yul\":2541:2550   */\n      dup4\n        /* \"#utility.yul\":2537:2555   */\n      add\n        /* \"#utility.yul\":2528:2534   */\n      dup5\n        /* \"#utility.yul\":2490:2556   */\n      tag_132\n      jump\t// in\n    tag_196:\n        /* \"#utility.yul\":2152:2563   */\n      swap4\n      swap3\n      pop\n      pop\n      pop\n      jump\t// out\n        /* \"#utility.yul\":2569:2678   */\n    tag_133:\n        /* \"#utility.yul\":2652:2653   */\n      0x03\n        /* \"#utility.yul\":2645:2650   */\n      dup2\n        /* \"#utility.yul\":2642:2654   */\n      lt\n        /* \"#utility.yul\":2632:2672   */\n      tag_198\n      jumpi\n        /* \"#utility.yul\":2668:2669   */\n      0x00\n        /* \"#utility.yul\":2665:2666   */\n      0x00\n        /* \"#utility.yul\":2658:2670   */\n      revert\n        /* \"#utility.yul\":2632:2672   */\n    tag_198:\n        /* \"#utility.yul\":2569:2678   */\n      pop\n      jump\t// out\n        /* \"#utility.yul\":2684:2843   */\n    tag_134:\n        /* \"#utility.yul\":2740:2745   */\n      0x00\n        /* \"#utility.yul\":2778:2784   */\n      dup2\n        /* \"#utility.yul\":2765:2785   */\n      calldataload\n        /* \"#utility.yul\":2756:2785   */\n      swap1\n      pop\n        /* \"#utility.yul\":2794:2837   */\n      tag_200\n        /* \"#utility.yul\":2831:2836   */\n      dup2\n        /* \"#utility.yul\":2794:2837   */\n      tag_133\n      jump\t// in\n    tag_200:\n        /* \"#utility.yul\":2684:2843   */\n      swap3\n      swap2\n      pop\n      pop\n      jump\t// out\n        /* \"#utility.yul\":2849:3198   */\n    tag_28:\n        /* \"#utility.yul\":2918:2924   */\n      0x00\n        /* \"#utility.yul\":2967:2969   */\n      0x20\n        /* \"#utility.yul\":2955:2964   */\n      dup3\n        /* \"#utility.yul\":2946:2953   */\n      dup5\n        /* \"#utility.yul\":2942:2965   */\n      sub\n        /* \"#utility.yul\":2938:2970   */\n      slt\n        /* \"#utility.yul\":2935:3054   */\n      iszero\n      tag_202\n      jumpi\n        /* \"#utility.yul\":2973:3052   */\n      tag_203\n      tag_121\n      jump\t// in\n    tag_203:\n        /* \"#utility.yul\":2935:3054   */\n    tag_202:\n        /* \"#utility.yul\":3093:3094   */\n      0x00\n        /* \"#utility.yul\":3118:3181   */\n      tag_204\n        /* \"#utility.yul\":3173:3180   */\n      dup5\n        /* \"#utility.yul\":3164:3170   */\n      dup3\n        /* \"#utility.yul\":3153:3162   */\n      dup6\n        /* \"#utility.yul\":3149:3171   */\n      add\n        /* \"#utility.yul\":3118:3181   */\n      tag_134\n      jump\t// in\n    tag_204:\n        /* \"#utility.yul\":3108:3181   */\n      swap2\n      pop\n        /* \"#utility.yul\":3064:3191   */\n      pop\n        /* \"#utility.yul\":2849:3198   */\n      swap3\n      swap2\n      pop\n      pop\n      jump\t// out\n        /* \"#utility.yul\":3204:3322   */\n    tag_135:\n        /* \"#utility.yul\":3291:3315   */\n      tag_206\n        /* \"#utility.yul\":3309:3314   */\n      dup2\n        /* \"#utility.yul\":3291:3315   */\n      tag_123\n      jump\t// in\n    tag_206:\n        /* \"#utility.yul\":3286:3289   */\n      dup3\n        /* \"#utility.yul\":3279:3316   */\n      mstore\n        /* \"#utility.yul\":3204:3322   */\n      pop\n      pop\n      jump\t// out\n        /* \"#utility.yul\":3328:3849   */\n    tag_37:\n        /* \"#utility.yul\":3491:3495   */\n      0x00\n        /* \"#utility.yul\":3529:3531   */\n      0x60\n        /* \"#utility.yul\":3518:3527   */\n      dup3\n        /* \"#utility.yul\":3514:3532   */\n      add\n        /* \"#utility.yul\":3506:3532   */\n      swap1\n      pop\n        /* \"#utility.yul\":3578:3587   */\n      dup2\n        /* \"#utility.yul\":3572:3576   */\n      dup2\n        /* \"#utility.yul\":3568:3588   */\n      sub\n        /* \"#utility.yul\":3564:3565   */\n      0x00\n        /* \"#utility.yul\":3553:3562   */\n      dup4\n        /* \"#utility.yul\":3549:3566   */\n      add\n        /* \"#utility.yul\":3542:3589   */\n      mstore\n        /* \"#utility.yul\":3606:3684   */\n      tag_208\n        /* \"#utility.yul\":3679:3683   */\n      dup2\n        /* \"#utility.yul\":3670:3676   */\n      dup7\n        /* \"#utility.yul\":3606:3684   */\n      tag_130\n      jump\t// in\n    tag_208:\n        /* \"#utility.yul\":3598:3684   */\n      swap1\n      pop\n        /* \"#utility.yul\":3694:3760   */\n      tag_209\n        /* \"#utility.yul\":3756:3758   */\n      0x20\n        /* \"#utility.yul\":3745:3754   */\n      dup4\n        /* \"#utility.yul\":3741:3759   */\n      add\n        /* \"#utility.yul\":3732:3738   */\n      dup6\n        /* \"#utility.yul\":3694:3760   */\n      tag_132\n      jump\t// in\n    tag_209:\n        /* \"#utility.yul\":3770:3842   */\n      tag_210\n        /* \"#utility.yul\":3838:3840   */\n      0x40\n        /* \"#utility.yul\":3827:3836   */\n      dup4\n        /* \"#utility.yul\":3823:3841   */\n      add\n        /* \"#utility.yul\":3814:3820   */\n      dup5\n        /* \"#utility.yul\":3770:3842   */\n      tag_135\n      jump\t// in\n    tag_210:\n        /* \"#utility.yul\":3328:3849   */\n      swap5\n      swap4\n      pop\n      pop\n      pop\n      pop\n      jump\t// out\n        /* \"#utility.yul\":3855:4077   */\n    tag_41:\n        /* \"#utility.yul\":3948:3952   */\n      0x00\n        /* \"#utility.yul\":3986:3988   */\n      0x20\n        /* \"#utility.yul\":3975:3984   */\n      dup3\n        /* \"#utility.yul\":3971:3989   */\n      add\n        /* \"#utility.yul\":3963:3989   */\n      swap1\n      pop\n        /* \"#utility.yul\":3999:4070   */\n      tag_212\n        /* \"#utility.yul\":4067:4068   */\n      0x00\n        /* \"#utility.yul\":4056:4065   */\n      dup4\n        /* \"#utility.yul\":4052:4069   */\n      add\n        /* \"#utility.yul\":4043:4049   */\n      dup5\n        /* \"#utility.yul\":3999:4070   */\n      tag_135\n      jump\t// in\n    tag_212:\n        /* \"#utility.yul\":3855:4077   */\n      swap3\n      swap2\n      pop\n      pop\n      jump\t// out\n        /* \"#utility.yul\":4083:4200   */\n    tag_136:\n        /* \"#utility.yul\":4192:4193   */\n      0x00\n        /* \"#utility.yul\":4189:4190   */\n      0x00\n        /* \"#utility.yul\":4182:4194   */\n      revert\n        /* \"#utility.yul\":4206:4323   */\n    tag_137:\n        /* \"#utility.yul\":4315:4316   */\n      0x00\n        /* \"#utility.yul\":4312:4313   */\n      0x00\n        /* \"#utility.yul\":4305:4317   */\n      revert\n        /* \"#utility.yul\":4329:4509   */\n    tag_138:\n        /* \"#utility.yul\":4377:4454   */\n      0x4e487b7100000000000000000000000000000000000000000000000000000000\n        /* \"#utility.yul\":4374:4375   */\n      0x00\n        /* \"#utility.yul\":4367:4455   */\n      mstore\n        /* \"#utility.yul\":4474:4478   */\n      0x41\n        /* \"#utility.yul\":4471:4472   */\n      0x04\n        /* \"#utility.yul\":4464:4479   */\n      mstore\n        /* \"#utility.yul\":4498:4502   */\n      0x24\n        /* \"#utility.yul\":4495:4496   */\n      0x00\n        /* \"#utility.yul\":4488:4503   */\n      revert\n        /* \"#utility.yul\":4515:4796   */\n    tag_139:\n        /* \"#utility.yul\":4598:4625   */\n      tag_217\n        /* \"#utility.yul\":4620:4624   */\n      dup3\n        /* \"#utility.yul\":4598:4625   */\n      tag_129\n      jump\t// in\n    tag_217:\n        /* \"#utility.yul\":4590:4596   */\n      dup2\n        /* \"#utility.yul\":4586:4626   */\n      add\n        /* \"#utility.yul\":4728:4734   */\n      dup2\n        /* \"#utility.yul\":4716:4726   */\n      dup2\n        /* \"#utility.yul\":4713:4735   */\n      lt\n        /* \"#utility.yul\":4692:4710   */\n      0xffffffffffffffff\n        /* \"#utility.yul\":4680:4690   */\n      dup3\n        /* \"#utility.yul\":4677:4711   */\n      gt\n        /* \"#utility.yul\":4674:4736   */\n      or\n        /* \"#utility.yul\":4671:4759   */\n      iszero\n      tag_218\n      jumpi\n        /* \"#utility.yul\":4739:4757   */\n      tag_219\n      tag_138\n      jump\t// in\n    tag_219:\n        /* \"#utility.yul\":4671:4759   */\n    tag_218:\n        /* \"#utility.yul\":4779:4789   */\n      dup1\n        /* \"#utility.yul\":4775:4777   */\n      0x40\n        /* \"#utility.yul\":4768:4790   */\n      mstore\n        /* \"#utility.yul\":4558:4796   */\n      pop\n        /* \"#utility.yul\":4515:4796   */\n      pop\n      pop\n      jump\t// out\n        /* \"#utility.yul\":4802:4931   */\n    tag_140:\n        /* \"#utility.yul\":4836:4842   */\n      0x00\n        /* \"#utility.yul\":4863:4883   */\n      tag_221\n      tag_120\n      jump\t// in\n    tag_221:\n        /* \"#utility.yul\":4853:4883   */\n      swap1\n      pop\n        /* \"#utility.yul\":4892:4925   */\n      tag_222\n        /* \"#utility.yul\":4920:4924   */\n      dup3\n        /* \"#utility.yul\":4912:4918   */\n      dup3\n        /* \"#utility.yul\":4892:4925   */\n      tag_139\n      jump\t// in\n    tag_222:\n        /* \"#utility.yul\":4802:4931   */\n      swap2\n      swap1\n      pop\n      jump\t// out\n        /* \"#utility.yul\":4937:5245   */\n    tag_141:\n        /* \"#utility.yul\":4999:5003   */\n      0x00\n        /* \"#utility.yul\":5089:5107   */\n      0xffffffffffffffff\n        /* \"#utility.yul\":5081:5087   */\n      dup3\n        /* \"#utility.yul\":5078:5108   */\n      gt\n        /* \"#utility.yul\":5075:5131   */\n      iszero\n      tag_224\n      jumpi\n        /* \"#utility.yul\":5111:5129   */\n      tag_225\n      tag_138\n      jump\t// in\n    tag_225:\n        /* \"#utility.yul\":5075:5131   */\n    tag_224:\n        /* \"#utility.yul\":5149:5178   */\n      tag_226\n        /* \"#utility.yul\":5171:5177   */\n      dup3\n        /* \"#utility.yul\":5149:5178   */\n      tag_129\n      jump\t// in\n    tag_226:\n        /* \"#utility.yul\":5141:5178   */\n      swap1\n      pop\n        /* \"#utility.yul\":5233:5237   */\n      0x20\n        /* \"#utility.yul\":5227:5231   */\n      dup2\n        /* \"#utility.yul\":5223:5238   */\n      add\n        /* \"#utility.yul\":5215:5238   */\n      swap1\n      pop\n        /* \"#utility.yul\":4937:5245   */\n      swap2\n      swap1\n      pop\n      jump\t// out\n        /* \"#utility.yul\":5251:5399   */\n    tag_142:\n        /* \"#utility.yul\":5349:5355   */\n      dup3\n        /* \"#utility.yul\":5344:5347   */\n      dup2\n        /* \"#utility.yul\":5339:5342   */\n      dup4\n        /* \"#utility.yul\":5326:5356   */\n      calldatacopy\n        /* \"#utility.yul\":5390:5391   */\n      0x00\n        /* \"#utility.yul\":5381:5387   */\n      dup4\n        /* \"#utility.yul\":5376:5379   */\n      dup4\n        /* \"#utility.yul\":5372:5388   */\n      add\n        /* \"#utility.yul\":5365:5392   */\n      mstore\n        /* \"#utility.yul\":5251:5399   */\n      pop\n      pop\n      pop\n      jump\t// out\n        /* \"#utility.yul\":5405:5830   */\n    tag_143:\n        /* \"#utility.yul\":5483:5488   */\n      0x00\n        /* \"#utility.yul\":5508:5574   */\n      tag_229\n        /* \"#utility.yul\":5524:5573   */\n      tag_230\n        /* \"#utility.yul\":5566:5572   */\n      dup5\n        /* \"#utility.yul\":5524:5573   */\n      tag_141\n      jump\t// in\n    tag_230:\n        /* \"#utility.yul\":5508:5574   */\n      tag_140\n      jump\t// in\n    tag_229:\n        /* \"#utility.yul\":5499:5574   */\n      swap1\n      pop\n        /* \"#utility.yul\":5597:5603   */\n      dup3\n        /* \"#utility.yul\":5590:5595   */\n      dup2\n        /* \"#utility.yul\":5583:5604   */\n      mstore\n        /* \"#utility.yul\":5635:5639   */\n      0x20\n        /* \"#utility.yul\":5628:5633   */\n      dup2\n        /* \"#utility.yul\":5624:5640   */\n      add\n        /* \"#utility.yul\":5673:5676   */\n      dup5\n        /* \"#utility.yul\":5664:5670   */\n      dup5\n        /* \"#utility.yul\":5659:5662   */\n      dup5\n        /* \"#utility.yul\":5655:5671   */\n      add\n        /* \"#utility.yul\":5652:5677   */\n      gt\n        /* \"#utility.yul\":5649:5761   */\n      iszero\n      tag_231\n      jumpi\n        /* \"#utility.yul\":5680:5759   */\n      tag_232\n      tag_137\n      jump\t// in\n    tag_232:\n        /* \"#utility.yul\":5649:5761   */\n    tag_231:\n        /* \"#utility.yul\":5770:5824   */\n      tag_233\n        /* \"#utility.yul\":5817:5823   */\n      dup5\n        /* \"#utility.yul\":5812:5815   */\n      dup3\n        /* \"#utility.yul\":5807:5810   */\n      dup6\n        /* \"#utility.yul\":5770:5824   */\n      tag_142\n      jump\t// in\n    tag_233:\n        /* \"#utility.yul\":5489:5830   */\n      pop\n        /* \"#utility.yul\":5405:5830   */\n      swap4\n      swap3\n      pop\n      pop\n      pop\n      jump\t// out\n        /* \"#utility.yul\":5850:6190   */\n    tag_144:\n        /* \"#utility.yul\":5906:5911   */\n      0x00\n        /* \"#utility.yul\":5955:5958   */\n      dup3\n        /* \"#utility.yul\":5948:5952   */\n      0x1f\n        /* \"#utility.yul\":5940:5946   */\n      dup4\n        /* \"#utility.yul\":5936:5953   */\n      add\n        /* \"#utility.yul\":5932:5959   */\n      slt\n        /* \"#utility.yul\":5922:6044   */\n      tag_235\n      jumpi\n        /* \"#utility.yul\":5963:6042   */\n      tag_236\n      tag_136\n      jump\t// in\n    tag_236:\n        /* \"#utility.yul\":5922:6044   */\n    tag_235:\n        /* \"#utility.yul\":6080:6086   */\n      dup2\n        /* \"#utility.yul\":6067:6087   */\n      calldataload\n        /* \"#utility.yul\":6105:6184   */\n      tag_237\n        /* \"#utility.yul\":6180:6183   */\n      dup5\n        /* \"#utility.yul\":6172:6178   */\n      dup3\n        /* \"#utility.yul\":6165:6169   */\n      0x20\n        /* \"#utility.yul\":6157:6163   */\n      dup7\n        /* \"#utility.yul\":6153:6170   */\n      add\n        /* \"#utility.yul\":6105:6184   */\n      tag_143\n      jump\t// in\n    tag_237:\n        /* \"#utility.yul\":6096:6184   */\n      swap2\n      pop\n        /* \"#utility.yul\":5912:6190   */\n      pop\n        /* \"#utility.yul\":5850:6190   */\n      swap3\n      swap2\n      pop\n      pop\n      jump\t// out\n        /* \"#utility.yul\":6196:6850   */\n    tag_44:\n        /* \"#utility.yul\":6274:6280   */\n      0x00\n        /* \"#utility.yul\":6282:6288   */\n      0x00\n        /* \"#utility.yul\":6331:6333   */\n      0x40\n        /* \"#utility.yul\":6319:6328   */\n      dup4\n        /* \"#utility.yul\":6310:6317   */\n      dup6\n        /* \"#utility.yul\":6306:6329   */\n      sub\n        /* \"#utility.yul\":6302:6334   */\n      slt\n        /* \"#utility.yul\":6299:6418   */\n      iszero\n      tag_239\n      jumpi\n        /* \"#utility.yul\":6337:6416   */\n      tag_240\n      tag_121\n      jump\t// in\n    tag_240:\n        /* \"#utility.yul\":6299:6418   */\n    tag_239:\n        /* \"#utility.yul\":6485:6486   */\n      0x00\n        /* \"#utility.yul\":6474:6483   */\n      dup4\n        /* \"#utility.yul\":6470:6487   */\n      add\n        /* \"#utility.yul\":6457:6488   */\n      calldataload\n        /* \"#utility.yul\":6515:6533   */\n      0xffffffffffffffff\n        /* \"#utility.yul\":6507:6513   */\n      dup2\n        /* \"#utility.yul\":6504:6534   */\n      gt\n        /* \"#utility.yul\":6501:6618   */\n      iszero\n      tag_241\n      jumpi\n        /* \"#utility.yul\":6537:6616   */\n      tag_242\n      tag_122\n      jump\t// in\n    tag_242:\n        /* \"#utility.yul\":6501:6618   */\n    tag_241:\n        /* \"#utility.yul\":6642:6705   */\n      tag_243\n        /* \"#utility.yul\":6697:6704   */\n      dup6\n        /* \"#utility.yul\":6688:6694   */\n      dup3\n        /* \"#utility.yul\":6677:6686   */\n      dup7\n        /* \"#utility.yul\":6673:6695   */\n      add\n        /* \"#utility.yul\":6642:6705   */\n      tag_144\n      jump\t// in\n    tag_243:\n        /* \"#utility.yul\":6632:6705   */\n      swap3\n      pop\n        /* \"#utility.yul\":6428:6715   */\n      pop\n        /* \"#utility.yul\":6754:6756   */\n      0x20\n        /* \"#utility.yul\":6780:6833   */\n      tag_244\n        /* \"#utility.yul\":6825:6832   */\n      dup6\n        /* \"#utility.yul\":6816:6822   */\n      dup3\n        /* \"#utility.yul\":6805:6814   */\n      dup7\n        /* \"#utility.yul\":6801:6823   */\n      add\n        /* \"#utility.yul\":6780:6833   */\n      tag_125\n      jump\t// in\n    tag_244:\n        /* \"#utility.yul\":6770:6833   */\n      swap2\n      pop\n        /* \"#utility.yul\":6725:6843   */\n      pop\n        /* \"#utility.yul\":6196:6850   */\n      swap3\n      pop\n      swap3\n      swap1\n      pop\n      jump\t// out\n        /* \"#utility.yul\":6856:7365   */\n    tag_48:\n        /* \"#utility.yul\":6925:6931   */\n      0x00\n        /* \"#utility.yul\":6974:6976   */\n      0x20\n        /* \"#utility.yul\":6962:6971   */\n      dup3\n        /* \"#utility.yul\":6953:6960   */\n      dup5\n        /* \"#utility.yul\":6949:6972   */\n      sub\n        /* \"#utility.yul\":6945:6977   */\n      slt\n        /* \"#utility.yul\":6942:7061   */\n      iszero\n      tag_246\n      jumpi\n        /* \"#utility.yul\":6980:7059   */\n      tag_247\n      tag_121\n      jump\t// in\n    tag_247:\n        /* \"#utility.yul\":6942:7061   */\n    tag_246:\n        /* \"#utility.yul\":7128:7129   */\n      0x00\n        /* \"#utility.yul\":7117:7126   */\n      dup3\n        /* \"#utility.yul\":7113:7130   */\n      add\n        /* \"#utility.yul\":7100:7131   */\n      calldataload\n        /* \"#utility.yul\":7158:7176   */\n      0xffffffffffffffff\n        /* \"#utility.yul\":7150:7156   */\n      dup2\n        /* \"#utility.yul\":7147:7177   */\n      gt\n        /* \"#utility.yul\":7144:7261   */\n      iszero\n      tag_248\n      jumpi\n        /* \"#utility.yul\":7180:7259   */\n      tag_249\n      tag_122\n      jump\t// in\n    tag_249:\n        /* \"#utility.yul\":7144:7261   */\n    tag_248:\n        /* \"#utility.yul\":7285:7348   */\n      tag_250\n        /* \"#utility.yul\":7340:7347   */\n      dup5\n        /* \"#utility.yul\":7331:7337   */\n      dup3\n        /* \"#utility.yul\":7320:7329   */\n      dup6\n        /* \"#utility.yul\":7316:7338   */\n      add\n        /* \"#utility.yul\":7285:7348   */\n      tag_144\n      jump\t// in\n    tag_250:\n        /* \"#utility.yul\":7275:7348   */\n      swap2\n      pop\n        /* \"#utility.yul\":7071:7358   */\n      pop\n        /* \"#utility.yul\":6856:7365   */\n      swap3\n      swap2\n      pop\n      pop\n      jump\t// out\n        /* \"#utility.yul\":7371:7551   */\n    tag_86:\n        /* \"#utility.yul\":7419:7496   */\n      0x4e487b7100000000000000000000000000000000000000000000000000000000\n        /* \"#utility.yul\":7416:7417   */\n      0x00\n        /* \"#utility.yul\":7409:7497   */\n      mstore\n        /* \"#utility.yul\":7516:7520   */\n      0x21\n        /* \"#utility.yul\":7513:7514   */\n      0x04\n        /* \"#utility.yul\":7506:7521   */\n      mstore\n        /* \"#utility.yul\":7540:7544   */\n      0x24\n        /* \"#utility.yul\":7537:7538   */\n      0x00\n        /* \"#utility.yul\":7530:7545   */\n      revert\n        /* \"#utility.yul\":7557:7672   */\n    tag_145:\n        /* \"#utility.yul\":7640:7641   */\n      0x03\n        /* \"#utility.yul\":7633:7638   */\n      dup2\n        /* \"#utility.yul\":7630:7642   */\n      lt\n        /* \"#utility.yul\":7620:7666   */\n      tag_253\n      jumpi\n        /* \"#utility.yul\":7646:7664   */\n      tag_254\n      tag_86\n      jump\t// in\n    tag_254:\n        /* \"#utility.yul\":7620:7666   */\n    tag_253:\n        /* \"#utility.yul\":7557:7672   */\n      pop\n      jump\t// out\n        /* \"#utility.yul\":7678:7809   */\n    tag_146:\n        /* \"#utility.yul\":7725:7732   */\n      0x00\n        /* \"#utility.yul\":7754:7759   */\n      dup2\n        /* \"#utility.yul\":7743:7759   */\n      swap1\n      pop\n        /* \"#utility.yul\":7760:7803   */\n      tag_256\n        /* \"#utility.yul\":7797:7802   */\n      dup3\n        /* \"#utility.yul\":7760:7803   */\n      tag_145\n      jump\t// in\n    tag_256:\n        /* \"#utility.yul\":7678:7809   */\n      swap2\n      swap1\n      pop\n      jump\t// out\n        /* \"#utility.yul\":7815:7946   */\n    tag_147:\n        /* \"#utility.yul\":7873:7882   */\n      0x00\n        /* \"#utility.yul\":7906:7940   */\n      tag_258\n        /* \"#utility.yul\":7934:7939   */\n      dup3\n        /* \"#utility.yul\":7906:7940   */\n      tag_146\n      jump\t// in\n    tag_258:\n        /* \"#utility.yul\":7893:7940   */\n      swap1\n      pop\n        /* \"#utility.yul\":7815:7946   */\n      swap2\n      swap1\n      pop\n      jump\t// out\n        /* \"#utility.yul\":7952:8099   */\n    tag_148:\n        /* \"#utility.yul\":8047:8092   */\n      tag_260\n        /* \"#utility.yul\":8086:8091   */\n      dup2\n        /* \"#utility.yul\":8047:8092   */\n      tag_147\n      jump\t// in\n    tag_260:\n        /* \"#utility.yul\":8042:8045   */\n      dup3\n        /* \"#utility.yul\":8035:8093   */\n      mstore\n        /* \"#utility.yul\":7952:8099   */\n      pop\n      pop\n      jump\t// out\n        /* \"#utility.yul\":8105:8343   */\n    tag_64:\n        /* \"#utility.yul\":8206:8210   */\n      0x00\n        /* \"#utility.yul\":8244:8246   */\n      0x20\n        /* \"#utility.yul\":8233:8242   */\n      dup3\n        /* \"#utility.yul\":8229:8247   */\n      add\n        /* \"#utility.yul\":8221:8247   */\n      swap1\n      pop\n        /* \"#utility.yul\":8257:8336   */\n      tag_262\n        /* \"#utility.yul\":8333:8334   */\n      0x00\n        /* \"#utility.yul\":8322:8331   */\n      dup4\n        /* \"#utility.yul\":8318:8335   */\n      add\n        /* \"#utility.yul\":8309:8315   */\n      dup5\n        /* \"#utility.yul\":8257:8336   */\n      tag_148\n      jump\t// in\n    tag_262:\n        /* \"#utility.yul\":8105:8343   */\n      swap3\n      swap2\n      pop\n      pop\n      jump\t// out\n        /* \"#utility.yul\":8349:8529   */\n    tag_149:\n        /* \"#utility.yul\":8397:8474   */\n      0x4e487b7100000000000000000000000000000000000000000000000000000000\n        /* \"#utility.yul\":8394:8395   */\n      0x00\n        /* \"#utility.yul\":8387:8475   */\n      mstore\n        /* \"#utility.yul\":8494:8498   */\n      0x22\n        /* \"#utility.yul\":8491:8492   */\n      0x04\n        /* \"#utility.yul\":8484:8499   */\n      mstore\n        /* \"#utility.yul\":8518:8522   */\n      0x24\n        /* \"#utility.yul\":8515:8516   */\n      0x00\n        /* \"#utility.yul\":8508:8523   */\n      revert\n        /* \"#utility.yul\":8535:8855   */\n    tag_68:\n        /* \"#utility.yul\":8579:8585   */\n      0x00\n        /* \"#utility.yul\":8616:8617   */\n      0x02\n        /* \"#utility.yul\":8610:8614   */\n      dup3\n        /* \"#utility.yul\":8606:8618   */\n      div\n        /* \"#utility.yul\":8596:8618   */\n      swap1\n      pop\n        /* \"#utility.yul\":8663:8664   */\n      0x01\n        /* \"#utility.yul\":8657:8661   */\n      dup3\n        /* \"#utility.yul\":8653:8665   */\n      and\n        /* \"#utility.yul\":8684:8702   */\n      dup1\n        /* \"#utility.yul\":8674:8755   */\n      tag_265\n      jumpi\n        /* \"#utility.yul\":8740:8744   */\n      0x7f\n        /* \"#utility.yul\":8732:8738   */\n      dup3\n        /* \"#utility.yul\":8728:8745   */\n      and\n        /* \"#utility.yul\":8718:8745   */\n      swap2\n      pop\n        /* \"#utility.yul\":8674:8755   */\n    tag_265:\n        /* \"#utility.yul\":8802:8804   */\n      0x20\n        /* \"#utility.yul\":8794:8800   */\n      dup3\n        /* \"#utility.yul\":8791:8805   */\n      lt\n        /* \"#utility.yul\":8771:8789   */\n      dup2\n        /* \"#utility.yul\":8768:8806   */\n      sub\n        /* \"#utility.yul\":8765:8849   */\n      tag_266\n      jumpi\n        /* \"#utility.yul\":8821:8839   */\n      tag_267\n      tag_149\n      jump\t// in\n    tag_267:\n        /* \"#utility.yul\":8765:8849   */\n    tag_266:\n        /* \"#utility.yul\":8586:8855   */\n      pop\n        /* \"#utility.yul\":8535:8855   */\n      swap2\n      swap1\n      pop\n      jump\t// out\n        /* \"#utility.yul\":8861:9041   */\n    tag_76:\n        /* \"#utility.yul\":8909:8986   */\n      0x4e487b7100000000000000000000000000000000000000000000000000000000\n        /* \"#utility.yul\":8906:8907   */\n      0x00\n        /* \"#utility.yul\":8899:8987   */\n      mstore\n        /* \"#utility.yul\":9006:9010   */\n      0x32\n        /* \"#utility.yul\":9003:9004   */\n      0x04\n        /* \"#utility.yul\":8996:9011   */\n      mstore\n        /* \"#utility.yul\":9030:9034   */\n      0x24\n        /* \"#utility.yul\":9027:9028   */\n      0x00\n        /* \"#utility.yul\":9020:9035   */\n      revert\n        /* \"#utility.yul\":9047:9227   */\n    tag_150:\n        /* \"#utility.yul\":9095:9172   */\n      0x4e487b7100000000000000000000000000000000000000000000000000000000\n        /* \"#utility.yul\":9092:9093   */\n      0x00\n        /* \"#utility.yul\":9085:9173   */\n      mstore\n        /* \"#utility.yul\":9192:9196   */\n      0x11\n        /* \"#utility.yul\":9189:9190   */\n      0x04\n        /* \"#utility.yul\":9182:9197   */\n      mstore\n        /* \"#utility.yul\":9216:9220   */\n      0x24\n        /* \"#utility.yul\":9213:9214   */\n      0x00\n        /* \"#utility.yul\":9206:9221   */\n      revert\n        /* \"#utility.yul\":9233:9424   */\n    tag_91:\n        /* \"#utility.yul\":9273:9276   */\n      0x00\n        /* \"#utility.yul\":9292:9312   */\n      tag_271\n        /* \"#utility.yul\":9310:9311   */\n      dup3\n        /* \"#utility.yul\":9292:9312   */\n      tag_123\n      jump\t// in\n    tag_271:\n        /* \"#utility.yul\":9287:9312   */\n      swap2\n      pop\n        /* \"#utility.yul\":9326:9346   */\n      tag_272\n        /* \"#utility.yul\":9344:9345   */\n      dup4\n        /* \"#utility.yul\":9326:9346   */\n      tag_123\n      jump\t// in\n    tag_272:\n        /* \"#utility.yul\":9321:9346   */\n      swap3\n      pop\n        /* \"#utility.yul\":9369:9370   */\n      dup3\n        /* \"#utility.yul\":9366:9367   */\n      dup3\n        /* \"#utility.yul\":9362:9371   */\n      add\n        /* \"#utility.yul\":9355:9371   */\n      swap1\n      pop\n        /* \"#utility.yul\":9390:9393   */\n      dup1\n        /* \"#utility.yul\":9387:9388   */\n      dup3\n        /* \"#utility.yul\":9384:9394   */\n      gt\n        /* \"#utility.yul\":9381:9417   */\n      iszero\n      tag_273\n      jumpi\n        /* \"#utility.yul\":9397:9415   */\n      tag_274\n      tag_150\n      jump\t// in\n    tag_274:\n        /* \"#utility.yul\":9381:9417   */\n    tag_273:\n        /* \"#utility.yul\":9233:9424   */\n      swap3\n      swap2\n      pop\n      pop\n      jump\t// out\n        /* \"#utility.yul\":9430:9783   */\n    tag_151:\n        /* \"#utility.yul\":9570:9636   */\n      0xd09ed186d0b5d0bdd0bad0b020d0bdd0b520d0bcd0bed0b6d0b5d18220d0bfd1\n        /* \"#utility.yul\":9566:9567   */\n      0x00\n        /* \"#utility.yul\":9558:9564   */\n      dup3\n        /* \"#utility.yul\":9554:9568   */\n      add\n        /* \"#utility.yul\":9547:9637   */\n      mstore\n        /* \"#utility.yul\":9671:9737   */\n      0x80d0b5d0b2d18bd181d0b8d182d18c2031303020d0b1d0b0d0bbd0bbd0bed0b2\n        /* \"#utility.yul\":9666:9668   */\n      0x20\n        /* \"#utility.yul\":9658:9664   */\n      dup3\n        /* \"#utility.yul\":9654:9669   */\n      add\n        /* \"#utility.yul\":9647:9738   */\n      mstore\n        /* \"#utility.yul\":9772:9775   */\n      0x2100000000000000000000000000000000000000000000000000000000000000\n        /* \"#utility.yul\":9767:9769   */\n      0x40\n        /* \"#utility.yul\":9759:9765   */\n      dup3\n        /* \"#utility.yul\":9755:9770   */\n      add\n        /* \"#utility.yul\":9748:9776   */\n      mstore\n        /* \"#utility.yul\":9430:9783   */\n      pop\n      jump\t// out\n        /* \"#utility.yul\":9789:10155   */\n    tag_152:\n        /* \"#utility.yul\":9931:9934   */\n      0x00\n        /* \"#utility.yul\":9952:10019   */\n      tag_277\n        /* \"#utility.yul\":10016:10018   */\n      0x41\n        /* \"#utility.yul\":10011:10014   */\n      dup4\n        /* \"#utility.yul\":9952:10019   */\n      tag_127\n      jump\t// in\n    tag_277:\n        /* \"#utility.yul\":9945:10019   */\n      swap2\n      pop\n        /* \"#utility.yul\":10028:10121   */\n      tag_278\n        /* \"#utility.yul\":10117:10120   */\n      dup3\n        /* \"#utility.yul\":10028:10121   */\n      tag_151\n      jump\t// in\n    tag_278:\n        /* \"#utility.yul\":10146:10148   */\n      0x60\n        /* \"#utility.yul\":10141:10144   */\n      dup3\n        /* \"#utility.yul\":10137:10149   */\n      add\n        /* \"#utility.yul\":10130:10149   */\n      swap1\n      pop\n        /* \"#utility.yul\":9789:10155   */\n      swap2\n      swap1\n      pop\n      jump\t// out\n        /* \"#utility.yul\":10161:10580   */\n    tag_101:\n        /* \"#utility.yul\":10327:10331   */\n      0x00\n        /* \"#utility.yul\":10365:10367   */\n      0x20\n        /* \"#utility.yul\":10354:10363   */\n      dup3\n        /* \"#utility.yul\":10350:10368   */\n      add\n        /* \"#utility.yul\":10342:10368   */\n      swap1\n      pop\n        /* \"#utility.yul\":10414:10423   */\n      dup2\n        /* \"#utility.yul\":10408:10412   */\n      dup2\n        /* \"#utility.yul\":10404:10424   */\n      sub\n        /* \"#utility.yul\":10400:10401   */\n      0x00\n        /* \"#utility.yul\":10389:10398   */\n      dup4\n        /* \"#utility.yul\":10385:10402   */\n      add\n        /* \"#utility.yul\":10378:10425   */\n      mstore\n        /* \"#utility.yul\":10442:10573   */\n      tag_280\n        /* \"#utility.yul\":10568:10572   */\n      dup2\n        /* \"#utility.yul\":10442:10573   */\n      tag_152\n      jump\t// in\n    tag_280:\n        /* \"#utility.yul\":10434:10573   */\n      swap1\n      pop\n        /* \"#utility.yul\":10161:10580   */\n      swap2\n      swap1\n      pop\n      jump\t// out\n        /* \"#utility.yul\":10586:10819   */\n    tag_106:\n        /* \"#utility.yul\":10625:10628   */\n      0x00\n        /* \"#utility.yul\":10648:10672   */\n      tag_282\n        /* \"#utility.yul\":10666:10671   */\n      dup3\n        /* \"#utility.yul\":10648:10672   */\n      tag_123\n      jump\t// in\n    tag_282:\n        /* \"#utility.yul\":10639:10672   */\n      swap2\n      pop\n        /* \"#utility.yul\":10694:10760   */\n      0xffffffffffffffffffffffffffffffffffffffffffffffffffffffffffffffff\n        /* \"#utility.yul\":10687:10692   */\n      dup3\n        /* \"#utility.yul\":10684:10761   */\n      sub\n        /* \"#utility.yul\":10681:10784   */\n      tag_283\n      jumpi\n        /* \"#utility.yul\":10764:10782   */\n      tag_284\n      tag_150\n      jump\t// in\n    tag_284:\n        /* \"#utility.yul\":10681:10784   */\n    tag_283:\n        /* \"#utility.yul\":10811:10812   */\n      0x01\n        /* \"#utility.yul\":10804:10809   */\n      dup3\n        /* \"#utility.yul\":10800:10813   */\n      add\n        /* \"#utility.yul\":10793:10813   */\n      swap1\n      pop\n        /* \"#utility.yul\":10586:10819   */\n      swap2\n      swap1\n      pop\n      jump\t// out\n        /* \"#utility.yul\":10825:10966   */\n    tag_153:\n        /* \"#utility.yul\":10874:10878   */\n      0x00\n        /* \"#utility.yul\":10897:10900   */\n      dup2\n        /* \"#utility.yul\":10889:10900   */\n      swap1\n      pop\n        /* \"#utility.yul\":10920:10923   */\n      dup2\n        /* \"#utility.yul\":10917:10918   */\n      0x00\n        /* \"#utility.yul\":10910:10924   */\n      mstore\n        /* \"#utility.yul\":10954:10958   */\n      0x20\n        /* \"#utility.yul\":10951:10952   */\n      0x00\n        /* \"#utility.yul\":10941:10959   */\n      keccak256\n        /* \"#utility.yul\":10933:10959   */\n      swap1\n      pop\n        /* \"#utility.yul\":10825:10966   */\n      swap2\n      swap1\n      pop\n      jump\t// out\n        /* \"#utility.yul\":10972:11065   */\n    tag_154:\n        /* \"#utility.yul\":11009:11015   */\n      0x00\n        /* \"#utility.yul\":11056:11058   */\n      0x20\n        /* \"#utility.yul\":11051:11053   */\n      0x1f\n        /* \"#utility.yul\":11044:11049   */\n      dup4\n        /* \"#utility.yul\":11040:11054   */\n      add\n        /* \"#utility.yul\":11036:11059   */\n      div\n        /* \"#utility.yul\":11026:11059   */\n      swap1\n      pop\n        /* \"#utility.yul\":10972:11065   */\n      swap2\n      swap1\n      pop\n      jump\t// out\n        /* \"#utility.yul\":11071:11178   */\n    tag_155:\n        /* \"#utility.yul\":11115:11123   */\n      0x00\n        /* \"#utility.yul\":11165:11170   */\n      dup3\n        /* \"#utility.yul\":11159:11163   */\n      dup3\n        /* \"#utility.yul\":11155:11171   */\n      shl\n        /* \"#utility.yul\":11134:11171   */\n      swap1\n      pop\n        /* \"#utility.yul\":11071:11178   */\n      swap3\n      swap2\n      pop\n      pop\n      jump\t// out\n        /* \"#utility.yul\":11184:11577   */\n    tag_156:\n        /* \"#utility.yul\":11253:11259   */\n      0x00\n        /* \"#utility.yul\":11303:11304   */\n      0x08\n        /* \"#utility.yul\":11291:11301   */\n      dup4\n        /* \"#utility.yul\":11287:11305   */\n      mul\n        /* \"#utility.yul\":11326:11423   */\n      tag_289\n        /* \"#utility.yul\":11356:11422   */\n      0xffffffffffffffffffffffffffffffffffffffffffffffffffffffffffffffff\n        /* \"#utility.yul\":11345:11354   */\n      dup3\n        /* \"#utility.yul\":11326:11423   */\n      tag_155\n      jump\t// in\n    tag_289:\n        /* \"#utility.yul\":11444:11483   */\n      tag_290\n        /* \"#utility.yul\":11474:11482   */\n      dup7\n        /* \"#utility.yul\":11463:11472   */\n      dup4\n        /* \"#utility.yul\":11444:11483   */\n      tag_155\n      jump\t// in\n    tag_290:\n        /* \"#utility.yul\":11432:11483   */\n      swap6\n      pop\n        /* \"#utility.yul\":11516:11520   */\n      dup1\n        /* \"#utility.yul\":11512:11521   */\n      not\n        /* \"#utility.yul\":11505:11510   */\n      dup5\n        /* \"#utility.yul\":11501:11522   */\n      and\n        /* \"#utility.yul\":11492:11522   */\n      swap4\n      pop\n        /* \"#utility.yul\":11565:11569   */\n      dup1\n        /* \"#utility.yul\":11555:11563   */\n      dup7\n        /* \"#utility.yul\":11551:11570   */\n      and\n        /* \"#utility.yul\":11544:11549   */\n      dup5\n        /* \"#utility.yul\":11541:11571   */\n      or\n        /* \"#utility.yul\":11531:11571   */\n      swap3\n      pop\n        /* \"#utility.yul\":11260:11577   */\n      pop\n      pop\n        /* \"#utility.yul\":11184:11577   */\n      swap4\n      swap3\n      pop\n      pop\n      pop\n      jump\t// out\n        /* \"#utility.yul\":11583:11643   */\n    tag_157:\n        /* \"#utility.yul\":11611:11614   */\n      0x00\n        /* \"#utility.yul\":11632:11637   */\n      dup2\n        /* \"#utility.yul\":11625:11637   */\n      swap1\n      pop\n        /* \"#utility.yul\":11583:11643   */\n      swap2\n      swap1\n      pop\n      jump\t// out\n        /* \"#utility.yul\":11649:11791   */\n    tag_158:\n        /* \"#utility.yul\":11699:11708   */\n      0x00\n        /* \"#utility.yul\":11732:11785   */\n      tag_293\n        /* \"#utility.yul\":11750:11784   */\n      tag_294\n        /* \"#utility.yul\":11759:11783   */\n      tag_295\n        /* \"#utility.yul\":11777:11782   */\n      dup5\n        /* \"#utility.yul\":11759:11783   */\n      tag_123\n      jump\t// in\n    tag_295:\n        /* \"#utility.yul\":11750:11784   */\n      tag_157\n      jump\t// in\n    tag_294:\n        /* \"#utility.yul\":11732:11785   */\n      tag_123\n      jump\t// in\n    tag_293:\n        /* \"#utility.yul\":11719:11785   */\n      swap1\n      pop\n        /* \"#utility.yul\":11649:11791   */\n      swap2\n      swap1\n      pop\n      jump\t// out\n        /* \"#utility.yul\":11797:11872   */\n    tag_159:\n        /* \"#utility.yul\":11840:11843   */\n      0x00\n        /* \"#utility.yul\":11861:11866   */\n      dup2\n        /* \"#utility.yul\":11854:11866   */\n      swap1\n      pop\n        /* \"#utility.yul\":11797:11872   */\n      swap2\n      swap1\n      pop\n      jump\t// out\n        /* \"#utility.yul\":11878:12147   */\n    tag_160:\n        /* \"#utility.yul\":11988:12027   */\n      tag_298\n        /* \"#utility.yul\":12019:12026   */\n      dup4\n        /* \"#utility.yul\":11988:12027   */\n      tag_158\n      jump\t// in\n    tag_298:\n        /* \"#utility.yul\":12049:12140   */\n      tag_299\n        /* \"#utility.yul\":12098:12139   */\n      tag_300\n        /* \"#utility.yul\":12122:12138   */\n      dup3\n        /* \"#utility.yul\":12098:12139   */\n      tag_159\n      jump\t// in\n    tag_300:\n        /* \"#utility.yul\":12090:12096   */\n      dup5\n        /* \"#utility.yul\":12083:12087   */\n      dup5\n        /* \"#utility.yul\":12077:12088   */\n      sload\n        /* \"#utility.yul\":12049:12140   */\n      tag_156\n      jump\t// in\n    tag_299:\n        /* \"#utility.yul\":12043:12047   */\n      dup3\n        /* \"#utility.yul\":12036:12141   */\n      sstore\n        /* \"#utility.yul\":11954:12147   */\n      pop\n        /* \"#utility.yul\":11878:12147   */\n      pop\n      pop\n      pop\n      jump\t// out\n        /* \"#utility.yul\":12153:12226   */\n    tag_161:\n        /* \"#utility.yul\":12198:12201   */\n      0x00\n        /* \"#utility.yul\":12219:12220   */\n      0x00\n        /* \"#utility.yul\":12212:12220   */\n      swap1\n      pop\n        /* \"#utility.yul\":12153:12226   */\n      swap1\n      jump\t// out\n        /* \"#utility.yul\":12232:12421   */\n    tag_162:\n        /* \"#utility.yul\":12309:12341   */\n      tag_303\n      tag_161\n      jump\t// in\n    tag_303:\n        /* \"#utility.yul\":12350:12415   */\n      tag_304\n        /* \"#utility.yul\":12408:12414   */\n      dup2\n        /* \"#utility.yul\":12400:12406   */\n      dup5\n        /* \"#utility.yul\":12394:12398   */\n      dup5\n        /* \"#utility.yul\":12350:12415   */\n      tag_160\n      jump\t// in\n    tag_304:\n        /* \"#utility.yul\":12285:12421   */\n      pop\n        /* \"#utility.yul\":12232:12421   */\n      pop\n      pop\n      jump\t// out\n        /* \"#utility.yul\":12427:12613   */\n    tag_163:\n        /* \"#utility.yul\":12487:12607   */\n    tag_306:\n        /* \"#utility.yul\":12504:12507   */\n      dup2\n        /* \"#utility.yul\":12497:12502   */\n      dup2\n        /* \"#utility.yul\":12494:12508   */\n      lt\n        /* \"#utility.yul\":12487:12607   */\n      iszero\n      tag_308\n      jumpi\n        /* \"#utility.yul\":12558:12597   */\n      tag_309\n        /* \"#utility.yul\":12595:12596   */\n      0x00\n        /* \"#utility.yul\":12588:12593   */\n      dup3\n        /* \"#utility.yul\":12558:12597   */\n      tag_162\n      jump\t// in\n    tag_309:\n        /* \"#utility.yul\":12531:12532   */\n      0x01\n        /* \"#utility.yul\":12524:12529   */\n      dup2\n        /* \"#utility.yul\":12520:12533   */\n      add\n        /* \"#utility.yul\":12511:12533   */\n      swap1\n      pop\n        /* \"#utility.yul\":12487:12607   */\n      jump(tag_306)\n    tag_308:\n        /* \"#utility.yul\":12427:12613   */\n      pop\n      pop\n      jump\t// out\n        /* \"#utility.yul\":12619:13162   */\n    tag_164:\n        /* \"#utility.yul\":12720:12722   */\n      0x1f\n        /* \"#utility.yul\":12715:12718   */\n      dup3\n        /* \"#utility.yul\":12712:12723   */\n      gt\n        /* \"#utility.yul\":12709:13155   */\n      iszero\n      tag_311\n      jumpi\n        /* \"#utility.yul\":12754:12792   */\n      tag_312\n        /* \"#utility.yul\":12786:12791   */\n      dup2\n        /* \"#utility.yul\":12754:12792   */\n      tag_153\n      jump\t// in\n    tag_312:\n        /* \"#utility.yul\":12838:12867   */\n      tag_313\n        /* \"#utility.yul\":12856:12866   */\n      dup5\n        /* \"#utility.yul\":12838:12867   */\n      tag_154\n      jump\t// in\n    tag_313:\n        /* \"#utility.yul\":12828:12836   */\n      dup2\n        /* \"#utility.yul\":12824:12868   */\n      add\n        /* \"#utility.yul\":13021:13023   */\n      0x20\n        /* \"#utility.yul\":13009:13019   */\n      dup6\n        /* \"#utility.yul\":13006:13024   */\n      lt\n        /* \"#utility.yul\":13003:13052   */\n      iszero\n      tag_314\n      jumpi\n        /* \"#utility.yul\":13042:13050   */\n      dup2\n        /* \"#utility.yul\":13027:13050   */\n      swap1\n      pop\n        /* \"#utility.yul\":13003:13052   */\n    tag_314:\n        /* \"#utility.yul\":13065:13145   */\n      tag_315\n        /* \"#utility.yul\":13121:13143   */\n      tag_316\n        /* \"#utility.yul\":13139:13142   */\n      dup6\n        /* \"#utility.yul\":13121:13143   */\n      tag_154\n      jump\t// in\n    tag_316:\n        /* \"#utility.yul\":13111:13119   */\n      dup4\n        /* \"#utility.yul\":13107:13144   */\n      add\n        /* \"#utility.yul\":13094:13105   */\n      dup3\n        /* \"#utility.yul\":13065:13145   */\n      tag_163\n      jump\t// in\n    tag_315:\n        /* \"#utility.yul\":12724:13155   */\n      pop\n      pop\n        /* \"#utility.yul\":12709:13155   */\n    tag_311:\n        /* \"#utility.yul\":12619:13162   */\n      pop\n      pop\n      pop\n      jump\t// out\n        /* \"#utility.yul\":13168:13285   */\n    tag_165:\n        /* \"#utility.yul\":13222:13230   */\n      0x00\n        /* \"#utility.yul\":13272:13277   */\n      dup3\n        /* \"#utility.yul\":13266:13270   */\n      dup3\n        /* \"#utility.yul\":13262:13278   */\n      shr\n        /* \"#utility.yul\":13241:13278   */\n      swap1\n      pop\n        /* \"#utility.yul\":13168:13285   */\n      swap3\n      swap2\n      pop\n      pop\n      jump\t// out\n        /* \"#utility.yul\":13291:13460   */\n    tag_166:\n        /* \"#utility.yul\":13335:13341   */\n      0x00\n        /* \"#utility.yul\":13368:13419   */\n      tag_319\n        /* \"#utility.yul\":13416:13417   */\n      0x00\n        /* \"#utility.yul\":13412:13418   */\n      not\n        /* \"#utility.yul\":13404:13409   */\n      dup5\n        /* \"#utility.yul\":13401:13402   */\n      0x08\n        /* \"#utility.yul\":13397:13410   */\n      mul\n        /* \"#utility.yul\":13368:13419   */\n      tag_165\n      jump\t// in\n    tag_319:\n        /* \"#utility.yul\":13364:13420   */\n      not\n        /* \"#utility.yul\":13449:13453   */\n      dup1\n        /* \"#utility.yul\":13443:13447   */\n      dup4\n        /* \"#utility.yul\":13439:13454   */\n      and\n        /* \"#utility.yul\":13429:13454   */\n      swap2\n      pop\n        /* \"#utility.yul\":13342:13460   */\n      pop\n        /* \"#utility.yul\":13291:13460   */\n      swap3\n      swap2\n      pop\n      pop\n      jump\t// out\n        /* \"#utility.yul\":13465:13760   */\n    tag_167:\n        /* \"#utility.yul\":13541:13545   */\n      0x00\n        /* \"#utility.yul\":13687:13716   */\n      tag_321\n        /* \"#utility.yul\":13712:13715   */\n      dup4\n        /* \"#utility.yul\":13706:13710   */\n      dup4\n        /* \"#utility.yul\":13687:13716   */\n      tag_166\n      jump\t// in\n    tag_321:\n        /* \"#utility.yul\":13679:13716   */\n      swap2\n      pop\n        /* \"#utility.yul\":13749:13752   */\n      dup3\n        /* \"#utility.yul\":13746:13747   */\n      0x02\n        /* \"#utility.yul\":13742:13753   */\n      mul\n        /* \"#utility.yul\":13736:13740   */\n      dup3\n        /* \"#utility.yul\":13733:13754   */\n      or\n        /* \"#utility.yul\":13725:13754   */\n      swap1\n      pop\n        /* \"#utility.yul\":13465:13760   */\n      swap3\n      swap2\n      pop\n      pop\n      jump\t// out\n        /* \"#utility.yul\":13765:15160   */\n    tag_108:\n        /* \"#utility.yul\":13882:13919   */\n      tag_323\n        /* \"#utility.yul\":13915:13918   */\n      dup3\n        /* \"#utility.yul\":13882:13919   */\n      tag_126\n      jump\t// in\n    tag_323:\n        /* \"#utility.yul\":13984:14002   */\n      0xffffffffffffffff\n        /* \"#utility.yul\":13976:13982   */\n      dup2\n        /* \"#utility.yul\":13973:14003   */\n      gt\n        /* \"#utility.yul\":13970:14026   */\n      iszero\n      tag_324\n      jumpi\n        /* \"#utility.yul\":14006:14024   */\n      tag_325\n      tag_138\n      jump\t// in\n    tag_325:\n        /* \"#utility.yul\":13970:14026   */\n    tag_324:\n        /* \"#utility.yul\":14050:14088   */\n      tag_326\n        /* \"#utility.yul\":14082:14086   */\n      dup3\n        /* \"#utility.yul\":14076:14087   */\n      sload\n        /* \"#utility.yul\":14050:14088   */\n      tag_68\n      jump\t// in\n    tag_326:\n        /* \"#utility.yul\":14135:14202   */\n      tag_327\n        /* \"#utility.yul\":14195:14201   */\n      dup3\n        /* \"#utility.yul\":14187:14193   */\n      dup3\n        /* \"#utility.yul\":14181:14185   */\n      dup6\n        /* \"#utility.yul\":14135:14202   */\n      tag_164\n      jump\t// in\n    tag_327:\n        /* \"#utility.yul\":14229:14230   */\n      0x00\n        /* \"#utility.yul\":14253:14257   */\n      0x20\n        /* \"#utility.yul\":14240:14257   */\n      swap1\n      pop\n        /* \"#utility.yul\":14285:14287   */\n      0x1f\n        /* \"#utility.yul\":14277:14283   */\n      dup4\n        /* \"#utility.yul\":14274:14288   */\n      gt\n        /* \"#utility.yul\":14302:14303   */\n      0x01\n        /* \"#utility.yul\":14297:14915   */\n      dup2\n      eq\n      tag_329\n      jumpi\n        /* \"#utility.yul\":14959:14960   */\n      0x00\n        /* \"#utility.yul\":14976:14982   */\n      dup5\n        /* \"#utility.yul\":14973:15050   */\n      iszero\n      tag_330\n      jumpi\n        /* \"#utility.yul\":15025:15034   */\n      dup3\n        /* \"#utility.yul\":15020:15023   */\n      dup8\n        /* \"#utility.yul\":15016:15035   */\n      add\n        /* \"#utility.yul\":15010:15036   */\n      mload\n        /* \"#utility.yul\":15001:15036   */\n      swap1\n      pop\n        /* \"#utility.yul\":14973:15050   */\n    tag_330:\n        /* \"#utility.yul\":15076:15143   */\n      tag_331\n        /* \"#utility.yul\":15136:15142   */\n      dup6\n        /* \"#utility.yul\":15129:15134   */\n      dup3\n        /* \"#utility.yul\":15076:15143   */\n      tag_167\n      jump\t// in\n    tag_331:\n        /* \"#utility.yul\":15070:15074   */\n      dup7\n        /* \"#utility.yul\":15063:15144   */\n      sstore\n        /* \"#utility.yul\":14932:15154   */\n      pop\n        /* \"#utility.yul\":14267:15154   */\n      jump(tag_328)\n        /* \"#utility.yul\":14297:14915   */\n    tag_329:\n        /* \"#utility.yul\":14349:14353   */\n      0x1f\n        /* \"#utility.yul\":14345:14354   */\n      not\n        /* \"#utility.yul\":14337:14343   */\n      dup5\n        /* \"#utility.yul\":14333:14355   */\n      and\n        /* \"#utility.yul\":14383:14420   */\n      tag_332\n        /* \"#utility.yul\":14415:14419   */\n      dup7\n        /* \"#utility.yul\":14383:14420   */\n      tag_153\n      jump\t// in\n    tag_332:\n        /* \"#utility.yul\":14442:14443   */\n      0x00\n        /* \"#utility.yul\":14456:14664   */\n    tag_333:\n        /* \"#utility.yul\":14470:14477   */\n      dup3\n        /* \"#utility.yul\":14467:14468   */\n      dup2\n        /* \"#utility.yul\":14464:14478   */\n      lt\n        /* \"#utility.yul\":14456:14664   */\n      iszero\n      tag_335\n      jumpi\n        /* \"#utility.yul\":14549:14558   */\n      dup5\n        /* \"#utility.yul\":14544:14547   */\n      dup10\n        /* \"#utility.yul\":14540:14559   */\n      add\n        /* \"#utility.yul\":14534:14560   */\n      mload\n        /* \"#utility.yul\":14526:14532   */\n      dup3\n        /* \"#utility.yul\":14519:14561   */\n      sstore\n        /* \"#utility.yul\":14600:14601   */\n      0x01\n        /* \"#utility.yul\":14592:14598   */\n      dup3\n        /* \"#utility.yul\":14588:14602   */\n      add\n        /* \"#utility.yul\":14578:14602   */\n      swap2\n      pop\n        /* \"#utility.yul\":14647:14649   */\n      0x20\n        /* \"#utility.yul\":14636:14645   */\n      dup6\n        /* \"#utility.yul\":14632:14650   */\n      add\n        /* \"#utility.yul\":14619:14650   */\n      swap5\n      pop\n        /* \"#utility.yul\":14493:14497   */\n      0x20\n        /* \"#utility.yul\":14490:14491   */\n      dup2\n        /* \"#utility.yul\":14486:14498   */\n      add\n        /* \"#utility.yul\":14481:14498   */\n      swap1\n      pop\n        /* \"#utility.yul\":14456:14664   */\n      jump(tag_333)\n    tag_335:\n        /* \"#utility.yul\":14692:14698   */\n      dup7\n        /* \"#utility.yul\":14683:14690   */\n      dup4\n        /* \"#utility.yul\":14680:14699   */\n      lt\n        /* \"#utility.yul\":14677:14856   */\n      iszero\n      tag_336\n      jumpi\n        /* \"#utility.yul\":14750:14759   */\n      dup5\n        /* \"#utility.yul\":14745:14748   */\n      dup10\n        /* \"#utility.yul\":14741:14760   */\n      add\n        /* \"#utility.yul\":14735:14761   */\n      mload\n        /* \"#utility.yul\":14793:14841   */\n      tag_337\n        /* \"#utility.yul\":14835:14839   */\n      0x1f\n        /* \"#utility.yul\":14827:14833   */\n      dup10\n        /* \"#utility.yul\":14823:14840   */\n      and\n        /* \"#utility.yul\":14812:14821   */\n      dup3\n        /* \"#utility.yul\":14793:14841   */\n      tag_166\n      jump\t// in\n    tag_337:\n        /* \"#utility.yul\":14785:14791   */\n      dup4\n        /* \"#utility.yul\":14778:14842   */\n      sstore\n        /* \"#utility.yul\":14700:14856   */\n      pop\n        /* \"#utility.yul\":14677:14856   */\n    tag_336:\n        /* \"#utility.yul\":14902:14903   */\n      0x01\n        /* \"#utility.yul\":14898:14899   */\n      0x02\n        /* \"#utility.yul\":14890:14896   */\n      dup9\n        /* \"#utility.yul\":14886:14900   */\n      mul\n        /* \"#utility.yul\":14882:14904   */\n      add\n        /* \"#utility.yul\":14876:14880   */\n      dup9\n        /* \"#utility.yul\":14869:14905   */\n      sstore\n        /* \"#utility.yul\":14304:14915   */\n      pop\n      pop\n      pop\n        /* \"#utility.yul\":14267:15154   */\n    tag_328:\n      pop\n        /* \"#utility.yul\":13857:15160   */\n      pop\n      pop\n      pop\n        /* \"#utility.yul\":13765:15160   */\n      pop\n      pop\n      jump\t// out\n\n    auxdata: 0xa2646970667358221220a9c17cdaddcf17454ade868c5d83f567c56408095bed47c0b004c99de44461e464736f6c634300081e0033\n}\n",
				"bytecode": {
					"linkReferences": {},
					"object": "6080604052348015600e575f5ffd5b506110938061001c5f395ff3fe608060405234801561000f575f5ffd5b50600436106100b2575f3560e01c80635c9814cb1161006f5780635c9814cb146101a057806367238562146101bc5780638d977672146101d85780639799b4e714610209578063b6cb58a514610239578063b73f795114610257576100b2565b80630eddaecf146100b65780631d65e77e146100e75780632e49d78b146101185780634ad0e5901461013457806350675ed614610150578063567142be14610182575b5f5ffd5b6100d060048036038101906100cb919061081b565b610275565b6040516100de9291906108d0565b60405180910390f35b61010160048036038101906100fc919061081b565b610335565b60405161010f9291906108d0565b60405180910390f35b610132600480360381019061012d9190610921565b610421565b005b61014e6004803603810190610149919061081b565b61044d565b005b61016a6004803603810190610165919061081b565b610472565b6040516101799392919061095b565b60405180910390f35b61018a610558565b6040516101979190610997565b60405180910390f35b6101ba60048036038101906101b59190610adc565b61055e565b005b6101d660048036038101906101d19190610b36565b6105d9565b005b6101f260048036038101906101ed919061081b565b61068f565b6040516102009291906108d0565b60405180910390f35b610223600480360381019061021e919061081b565b610741565b6040516102309190610997565b60405180910390f35b610241610756565b60405161024e9190610997565b60405180910390f35b61025f61075c565b60405161026c9190610bf0565b60405180910390f35b5f8181548110610283575f80fd5b905f5260205f2090600202015f91509050805f0180546102a290610c36565b80601f01602080910402602001604051908101604052809291908181526020018280546102ce90610c36565b80156103195780601f106102f057610100808354040283529160200191610319565b820191905f5260205f20905b8154815290600101906020018083116102fc57829003601f168201915b505050505090806001015f9054906101000a900460ff16905082565b60605f5f5f848154811061034c5761034b610c66565b5b905f5260205f2090600202016040518060400160405290815f8201805461037290610c36565b80601f016020809104026020016040519081016040528092919081815260200182805461039e90610c36565b80156103e95780601f106103c0576101008083540402835291602001916103e9565b820191905f5260205f20905b8154815290600101906020018083116103cc57829003601f168201915b50505050508152602001600182015f9054906101000a900460ff1615151515815250509050805f015181602001519250925050915091565b8060045f6101000a81548160ff0219169083600281111561044557610444610b7d565b5b021790555050565b6104568161076e565b600a60055f8282546104689190610cc0565b9250508190555050565b60605f5f5f60025f8681526020019081526020015f206040518060400160405290815f820180546104a290610c36565b80601f01602080910402602001604051908101604052809291908181526020018280546104ce90610c36565b80156105195780601f106104f057610100808354040283529160200191610519565b820191905f5260205f20905b8154815290600101906020018083116104fc57829003601f168201915b50505050508152602001600182015f9054906101000a900460ff1615151515815250509050805f01518160200151600554935093509350509193909250565b60055481565b60648111156105a2576040517f08c379a000000000000000000000000000000000000000000000000000000000815260040161059990610d89565b60405180910390fd5b60035f8281526020019081526020015f20506105bd826105d9565b8060055f8282546105ce9190610cc0565b925050819055505050565b5f60015f8154809291906105ec90610da7565b9190505590505f60025f8381526020019081526020015f20905082815f0190816106169190610f8e565b505f60405180604001604052808581526020015f1515815250908060018154018082558091505060019003905f5260205f2090600202015f909190919091505f820151815f0190816106689190610f8e565b506020820151816001015f6101000a81548160ff0219169083151502179055505050505050565b6002602052805f5260405f205f91509050805f0180546106ae90610c36565b80601f01602080910402602001604051908101604052809291908181526020018280546106da90610c36565b80156107255780601f106106fc57610100808354040283529160200191610725565b820191905f5260205f20905b81548152906001019060200180831161070857829003601f168201915b505050505090806001015f9054906101000a900460ff16905082565b6003602052805f5260405f205f915090505481565b60015481565b60045f9054906101000a900460ff1681565b60015f828154811061078357610782610c66565b5b905f5260205f2090600202016001015f6101000a81548160ff021916908315150217905550600160025f8381526020019081526020015f206001015f6101000a81548160ff02191690831515021790555050565b5f604051905090565b5f5ffd5b5f5ffd5b5f819050919050565b6107fa816107e8565b8114610804575f5ffd5b50565b5f81359050610815816107f1565b92915050565b5f602082840312156108305761082f6107e0565b5b5f61083d84828501610807565b91505092915050565b5f81519050919050565b5f82825260208201905092915050565b8281835e5f83830152505050565b5f601f19601f8301169050919050565b5f61088882610846565b6108928185610850565b93506108a2818560208601610860565b6108ab8161086e565b840191505092915050565b5f8115159050919050565b6108ca816108b6565b82525050565b5f6040820190508181035f8301526108e8818561087e565b90506108f760208301846108c1565b9392505050565b6003811061090a575f5ffd5b50565b5f8135905061091b816108fe565b92915050565b5f60208284031215610936576109356107e0565b5b5f6109438482850161090d565b91505092915050565b610955816107e8565b82525050565b5f6060820190508181035f830152610973818661087e565b905061098260208301856108c1565b61098f604083018461094c565b949350505050565b5f6020820190506109aa5f83018461094c565b92915050565b5f5ffd5b5f5ffd5b7f4e487b71000000000000000000000000000000000000000000000000000000005f52604160045260245ffd5b6109ee8261086e565b810181811067ffffffffffffffff82111715610a0d57610a0c6109b8565b5b80604052505050565b5f610a1f6107d7565b9050610a2b82826109e5565b919050565b5f67ffffffffffffffff821115610a4a57610a496109b8565b5b610a538261086e565b9050602081019050919050565b828183375f83830152505050565b5f610a80610a7b84610a30565b610a16565b905082815260208101848484011115610a9c57610a9b6109b4565b5b610aa7848285610a60565b509392505050565b5f82601f830112610ac357610ac26109b0565b5b8135610ad3848260208601610a6e565b91505092915050565b5f5f60408385031215610af257610af16107e0565b5b5f83013567ffffffffffffffff811115610b0f57610b0e6107e4565b5b610b1b85828601610aaf565b9250506020610b2c85828601610807565b9150509250929050565b5f60208284031215610b4b57610b4a6107e0565b5b5f82013567ffffffffffffffff811115610b6857610b676107e4565b5b610b7484828501610aaf565b91505092915050565b7f4e487b71000000000000000000000000000000000000000000000000000000005f52602160045260245ffd5b60038110610bbb57610bba610b7d565b5b50565b5f819050610bcb82610baa565b919050565b5f610bda82610bbe565b9050919050565b610bea81610bd0565b82525050565b5f602082019050610c035f830184610be1565b92915050565b7f4e487b71000000000000000000000000000000000000000000000000000000005f52602260045260245ffd5b5f6002820490506001821680610c4d57607f821691505b602082108103610c6057610c5f610c09565b5b50919050565b7f4e487b71000000000000000000000000000000000000000000000000000000005f52603260045260245ffd5b7f4e487b71000000000000000000000000000000000000000000000000000000005f52601160045260245ffd5b5f610cca826107e8565b9150610cd5836107e8565b9250828201905080821115610ced57610cec610c93565b5b92915050565b7fd09ed186d0b5d0bdd0bad0b020d0bdd0b520d0bcd0bed0b6d0b5d18220d0bfd15f8201527f80d0b5d0b2d18bd181d0b8d182d18c2031303020d0b1d0b0d0bbd0bbd0bed0b260208201527f2100000000000000000000000000000000000000000000000000000000000000604082015250565b5f610d73604183610850565b9150610d7e82610cf3565b606082019050919050565b5f6020820190508181035f830152610da081610d67565b9050919050565b5f610db1826107e8565b91507fffffffffffffffffffffffffffffffffffffffffffffffffffffffffffffffff8203610de357610de2610c93565b5b600182019050919050565b5f819050815f5260205f209050919050565b5f6020601f8301049050919050565b5f82821b905092915050565b5f60088302610e4a7fffffffffffffffffffffffffffffffffffffffffffffffffffffffffffffffff82610e0f565b610e548683610e0f565b95508019841693508086168417925050509392505050565b5f819050919050565b5f610e8f610e8a610e85846107e8565b610e6c565b6107e8565b9050919050565b5f819050919050565b610ea883610e75565b610ebc610eb482610e96565b848454610e1b565b825550505050565b5f5f905090565b610ed3610ec4565b610ede818484610e9f565b505050565b5b81811015610f0157610ef65f82610ecb565b600181019050610ee4565b5050565b601f821115610f4657610f1781610dee565b610f2084610e00565b81016020851015610f2f578190505b610f43610f3b85610e00565b830182610ee3565b50505b505050565b5f82821c905092915050565b5f610f665f1984600802610f4b565b1980831691505092915050565b5f610f7e8383610f57565b9150826002028217905092915050565b610f9782610846565b67ffffffffffffffff811115610fb057610faf6109b8565b5b610fba8254610c36565b610fc5828285610f05565b5f60209050601f831160018114610ff6575f8415610fe4578287015190505b610fee8582610f73565b865550611055565b601f19841661100486610dee565b5f5b8281101561102b57848901518255600182019150602085019450602081019050611006565b868310156110485784890151611044601f891682610f57565b8355505b6001600288020188555050505b50505050505056fea2646970667358221220a9c17cdaddcf17454ade868c5d83f567c56408095bed47c0b004c99de44461e464736f6c634300081e0033",
					"opcodes": "PUSH1 0x80 PUSH1 0x40 MSTORE CALLVALUE DUP1 ISZERO PUSH1 0xE JUMPI PUSH0 PUSH0 REVERT JUMPDEST POP PUSH2 0x1093 DUP1 PUSH2 0x1C PUSH0 CODECOPY PUSH0 RETURN INVALID PUSH1 0x80 PUSH1 0x40 MSTORE CALLVALUE DUP1 ISZERO PUSH2 0xF JUMPI PUSH0 PUSH0 REVERT JUMPDEST POP PUSH1 0x4 CALLDATASIZE LT PUSH2 0xB2 JUMPI PUSH0 CALLDATALOAD PUSH1 0xE0 SHR DUP1 PUSH4 0x5C9814CB GT PUSH2 0x6F JUMPI DUP1 PUSH4 0x5C9814CB EQ PUSH2 0x1A0 JUMPI DUP1 PUSH4 0x67238562 EQ PUSH2 0x1BC JUMPI DUP1 PUSH4 0x8D977672 EQ PUSH2 0x1D8 JUMPI DUP1 PUSH4 0x9799B4E7 EQ PUSH2 0x209 JUMPI DUP1 PUSH4 0xB6CB58A5 EQ PUSH2 0x239 JUMPI DUP1 PUSH4 0xB73F7951 EQ PUSH2 0x257 JUMPI PUSH2 0xB2 JUMP JUMPDEST DUP1 PUSH4 0xEDDAECF EQ PUSH2 0xB6 JUMPI DUP1 PUSH4 0x1D65E77E EQ PUSH2 0xE7 JUMPI DUP1 PUSH4 0x2E49D78B EQ PUSH2 0x118 JUMPI DUP1 PUSH4 0x4AD0E590 EQ PUSH2 0x134 JUMPI DUP1 PUSH4 0x50675ED6 EQ PUSH2 0x150 JUMPI DUP1 PUSH4 0x567142BE EQ PUSH2 0x182 JUMPI JUMPDEST PUSH0 PUSH0 REVERT JUMPDEST PUSH2 0xD0 PUSH1 0x4 DUP1 CALLDATASIZE SUB DUP2 ADD SWAP1 PUSH2 0xCB SWAP2 SWAP1 PUSH2 0x81B JUMP JUMPDEST PUSH2 0x275 JUMP JUMPDEST PUSH1 0x40 MLOAD PUSH2 0xDE SWAP3 SWAP2 SWAP1 PUSH2 0x8D0 JUMP JUMPDEST PUSH1 0x40 MLOAD DUP1 SWAP2 SUB SWAP1 RETURN JUMPDEST PUSH2 0x101 PUSH1 0x4 DUP1 CALLDATASIZE SUB DUP2 ADD SWAP1 PUSH2 0xFC SWAP2 SWAP1 PUSH2 0x81B JUMP JUMPDEST PUSH2 0x335 JUMP JUMPDEST PUSH1 0x40 MLOAD PUSH2 0x10F SWAP3 SWAP2 SWAP1 PUSH2 0x8D0 JUMP JUMPDEST PUSH1 0x40 MLOAD DUP1 SWAP2 SUB SWAP1 RETURN JUMPDEST PUSH2 0x132 PUSH1 0x4 DUP1 CALLDATASIZE SUB DUP2 ADD SWAP1 PUSH2 0x12D SWAP2 SWAP1 PUSH2 0x921 JUMP JUMPDEST PUSH2 0x421 JUMP JUMPDEST STOP JUMPDEST PUSH2 0x14E PUSH1 0x4 DUP1 CALLDATASIZE SUB DUP2 ADD SWAP1 PUSH2 0x149 SWAP2 SWAP1 PUSH2 0x81B JUMP JUMPDEST PUSH2 0x44D JUMP JUMPDEST STOP JUMPDEST PUSH2 0x16A PUSH1 0x4 DUP1 CALLDATASIZE SUB DUP2 ADD SWAP1 PUSH2 0x165 SWAP2 SWAP1 PUSH2 0x81B JUMP JUMPDEST PUSH2 0x472 JUMP JUMPDEST PUSH1 0x40 MLOAD PUSH2 0x179 SWAP4 SWAP3 SWAP2 SWAP1 PUSH2 0x95B JUMP JUMPDEST PUSH1 0x40 MLOAD DUP1 SWAP2 SUB SWAP1 RETURN JUMPDEST PUSH2 0x18A PUSH2 0x558 JUMP JUMPDEST PUSH1 0x40 MLOAD PUSH2 0x197 SWAP2 SWAP1 PUSH2 0x997 JUMP JUMPDEST PUSH1 0x40 MLOAD DUP1 SWAP2 SUB SWAP1 RETURN JUMPDEST PUSH2 0x1BA PUSH1 0x4 DUP1 CALLDATASIZE SUB DUP2 ADD SWAP1 PUSH2 0x1B5 SWAP2 SWAP1 PUSH2 0xADC JUMP JUMPDEST PUSH2 0x55E JUMP JUMPDEST STOP JUMPDEST PUSH2 0x1D6 PUSH1 0x4 DUP1 CALLDATASIZE SUB DUP2 ADD SWAP1 PUSH2 0x1D1 SWAP2 SWAP1 PUSH2 0xB36 JUMP JUMPDEST PUSH2 0x5D9 JUMP JUMPDEST STOP JUMPDEST PUSH2 0x1F2 PUSH1 0x4 DUP1 CALLDATASIZE SUB DUP2 ADD SWAP1 PUSH2 0x1ED SWAP2 SWAP1 PUSH2 0x81B JUMP JUMPDEST PUSH2 0x68F JUMP JUMPDEST PUSH1 0x40 MLOAD PUSH2 0x200 SWAP3 SWAP2 SWAP1 PUSH2 0x8D0 JUMP JUMPDEST PUSH1 0x40 MLOAD DUP1 SWAP2 SUB SWAP1 RETURN JUMPDEST PUSH2 0x223 PUSH1 0x4 DUP1 CALLDATASIZE SUB DUP2 ADD SWAP1 PUSH2 0x21E SWAP2 SWAP1 PUSH2 0x81B JUMP JUMPDEST PUSH2 0x741 JUMP JUMPDEST PUSH1 0x40 MLOAD PUSH2 0x230 SWAP2 SWAP1 PUSH2 0x997 JUMP JUMPDEST PUSH1 0x40 MLOAD DUP1 SWAP2 SUB SWAP1 RETURN JUMPDEST PUSH2 0x241 PUSH2 0x756 JUMP JUMPDEST PUSH1 0x40 MLOAD PUSH2 0x24E SWAP2 SWAP1 PUSH2 0x997 JUMP JUMPDEST PUSH1 0x40 MLOAD DUP1 SWAP2 SUB SWAP1 RETURN JUMPDEST PUSH2 0x25F PUSH2 0x75C JUMP JUMPDEST PUSH1 0x40 MLOAD PUSH2 0x26C SWAP2 SWAP1 PUSH2 0xBF0 JUMP JUMPDEST PUSH1 0x40 MLOAD DUP1 SWAP2 SUB SWAP1 RETURN JUMPDEST PUSH0 DUP2 DUP2 SLOAD DUP2 LT PUSH2 0x283 JUMPI PUSH0 DUP1 REVERT JUMPDEST SWAP1 PUSH0 MSTORE PUSH1 0x20 PUSH0 KECCAK256 SWAP1 PUSH1 0x2 MUL ADD PUSH0 SWAP2 POP SWAP1 POP DUP1 PUSH0 ADD DUP1 SLOAD PUSH2 0x2A2 SWAP1 PUSH2 0xC36 JUMP JUMPDEST DUP1 PUSH1 0x1F ADD PUSH1 0x20 DUP1 SWAP2 DIV MUL PUSH1 0x20 ADD PUSH1 0x40 MLOAD SWAP1 DUP2 ADD PUSH1 0x40 MSTORE DUP1 SWAP3 SWAP2 SWAP1 DUP2 DUP2 MSTORE PUSH1 0x20 ADD DUP3 DUP1 SLOAD PUSH2 0x2CE SWAP1 PUSH2 0xC36 JUMP JUMPDEST DUP1 ISZERO PUSH2 0x319 JUMPI DUP1 PUSH1 0x1F LT PUSH2 0x2F0 JUMPI PUSH2 0x100 DUP1 DUP4 SLOAD DIV MUL DUP4 MSTORE SWAP2 PUSH1 0x20 ADD SWAP2 PUSH2 0x319 JUMP JUMPDEST DUP3 ADD SWAP2 SWAP1 PUSH0 MSTORE PUSH1 0x20 PUSH0 KECCAK256 SWAP1 JUMPDEST DUP2 SLOAD DUP2 MSTORE SWAP1 PUSH1 0x1 ADD SWAP1 PUSH1 0x20 ADD DUP1 DUP4 GT PUSH2 0x2FC JUMPI DUP3 SWAP1 SUB PUSH1 0x1F AND DUP3 ADD SWAP2 JUMPDEST POP POP POP POP POP SWAP1 DUP1 PUSH1 0x1 ADD PUSH0 SWAP1 SLOAD SWAP1 PUSH2 0x100 EXP SWAP1 DIV PUSH1 0xFF AND SWAP1 POP DUP3 JUMP JUMPDEST PUSH1 0x60 PUSH0 PUSH0 PUSH0 DUP5 DUP2 SLOAD DUP2 LT PUSH2 0x34C JUMPI PUSH2 0x34B PUSH2 0xC66 JUMP JUMPDEST JUMPDEST SWAP1 PUSH0 MSTORE PUSH1 0x20 PUSH0 KECCAK256 SWAP1 PUSH1 0x2 MUL ADD PUSH1 0x40 MLOAD DUP1 PUSH1 0x40 ADD PUSH1 0x40 MSTORE SWAP1 DUP2 PUSH0 DUP3 ADD DUP1 SLOAD PUSH2 0x372 SWAP1 PUSH2 0xC36 JUMP JUMPDEST DUP1 PUSH1 0x1F ADD PUSH1 0x20 DUP1 SWAP2 DIV MUL PUSH1 0x20 ADD PUSH1 0x40 MLOAD SWAP1 DUP2 ADD PUSH1 0x40 MSTORE DUP1 SWAP3 SWAP2 SWAP1 DUP2 DUP2 MSTORE PUSH1 0x20 ADD DUP3 DUP1 SLOAD PUSH2 0x39E SWAP1 PUSH2 0xC36 JUMP JUMPDEST DUP1 ISZERO PUSH2 0x3E9 JUMPI DUP1 PUSH1 0x1F LT PUSH2 0x3C0 JUMPI PUSH2 0x100 DUP1 DUP4 SLOAD DIV MUL DUP4 MSTORE SWAP2 PUSH1 0x20 ADD SWAP2 PUSH2 0x3E9 JUMP JUMPDEST DUP3 ADD SWAP2 SWAP1 PUSH0 MSTORE PUSH1 0x20 PUSH0 KECCAK256 SWAP1 JUMPDEST DUP2 SLOAD DUP2 MSTORE SWAP1 PUSH1 0x1 ADD SWAP1 PUSH1 0x20 ADD DUP1 DUP4 GT PUSH2 0x3CC JUMPI DUP3 SWAP1 SUB PUSH1 0x1F AND DUP3 ADD SWAP2 JUMPDEST POP POP POP POP POP DUP2 MSTORE PUSH1 0x20 ADD PUSH1 0x1 DUP3 ADD PUSH0 SWAP1 SLOAD SWAP1 PUSH2 0x100 EXP SWAP1 DIV PUSH1 0xFF AND ISZERO ISZERO ISZERO ISZERO DUP2 MSTORE POP POP SWAP1 POP DUP1 PUSH0 ADD MLOAD DUP2 PUSH1 0x20 ADD MLOAD SWAP3 POP SWAP3 POP POP SWAP2 POP SWAP2 JUMP JUMPDEST DUP1 PUSH1 0x4 PUSH0 PUSH2 0x100 EXP DUP2 SLOAD DUP2 PUSH1 0xFF MUL NOT AND SWAP1 DUP4 PUSH1 0x2 DUP2 GT ISZERO PUSH2 0x445 JUMPI PUSH2 0x444 PUSH2 0xB7D JUMP JUMPDEST JUMPDEST MUL OR SWAP1 SSTORE POP POP JUMP JUMPDEST PUSH2 0x456 DUP2 PUSH2 0x76E JUMP JUMPDEST PUSH1 0xA PUSH1 0x5 PUSH0 DUP3 DUP3 SLOAD PUSH2 0x468 SWAP2 SWAP1 PUSH2 0xCC0 JUMP JUMPDEST SWAP3 POP POP DUP2 SWAP1 SSTORE POP POP JUMP JUMPDEST PUSH1 0x60 PUSH0 PUSH0 PUSH0 PUSH1 0x2 PUSH0 DUP7 DUP2 MSTORE PUSH1 0x20 ADD SWAP1 DUP2 MSTORE PUSH1 0x20 ADD PUSH0 KECCAK256 PUSH1 0x40 MLOAD DUP1 PUSH1 0x40 ADD PUSH1 0x40 MSTORE SWAP1 DUP2 PUSH0 DUP3 ADD DUP1 SLOAD PUSH2 0x4A2 SWAP1 PUSH2 0xC36 JUMP JUMPDEST DUP1 PUSH1 0x1F ADD PUSH1 0x20 DUP1 SWAP2 DIV MUL PUSH1 0x20 ADD PUSH1 0x40 MLOAD SWAP1 DUP2 ADD PUSH1 0x40 MSTORE DUP1 SWAP3 SWAP2 SWAP1 DUP2 DUP2 MSTORE PUSH1 0x20 ADD DUP3 DUP1 SLOAD PUSH2 0x4CE SWAP1 PUSH2 0xC36 JUMP JUMPDEST DUP1 ISZERO PUSH2 0x519 JUMPI DUP1 PUSH1 0x1F LT PUSH2 0x4F0 JUMPI PUSH2 0x100 DUP1 DUP4 SLOAD DIV MUL DUP4 MSTORE SWAP2 PUSH1 0x20 ADD SWAP2 PUSH2 0x519 JUMP JUMPDEST DUP3 ADD SWAP2 SWAP1 PUSH0 MSTORE PUSH1 0x20 PUSH0 KECCAK256 SWAP1 JUMPDEST DUP2 SLOAD DUP2 MSTORE SWAP1 PUSH1 0x1 ADD SWAP1 PUSH1 0x20 ADD DUP1 DUP4 GT PUSH2 0x4FC JUMPI DUP3 SWAP1 SUB PUSH1 0x1F AND DUP3 ADD SWAP2 JUMPDEST POP POP POP POP POP DUP2 MSTORE PUSH1 0x20 ADD PUSH1 0x1 DUP3 ADD PUSH0 SWAP1 SLOAD SWAP1 PUSH2 0x100 EXP SWAP1 DIV PUSH1 0xFF AND ISZERO ISZERO ISZERO ISZERO DUP2 MSTORE POP POP SWAP1 POP DUP1 PUSH0 ADD MLOAD DUP2 PUSH1 0x20 ADD MLOAD PUSH1 0x5 SLOAD SWAP4 POP SWAP4 POP SWAP4 POP POP SWAP2 SWAP4 SWAP1 SWAP3 POP JUMP JUMPDEST PUSH1 0x5 SLOAD DUP2 JUMP JUMPDEST PUSH1 0x64 DUP2 GT ISZERO PUSH2 0x5A2 JUMPI PUSH1 0x40 MLOAD PUSH32 0x8C379A000000000000000000000000000000000000000000000000000000000 DUP2 MSTORE PUSH1 0x4 ADD PUSH2 0x599 SWAP1 PUSH2 0xD89 JUMP JUMPDEST PUSH1 0x40 MLOAD DUP1 SWAP2 SUB SWAP1 REVERT JUMPDEST PUSH1 0x3 PUSH0 DUP3 DUP2 MSTORE PUSH1 0x20 ADD SWAP1 DUP2 MSTORE PUSH1 0x20 ADD PUSH0 KECCAK256 POP PUSH2 0x5BD DUP3 PUSH2 0x5D9 JUMP JUMPDEST DUP1 PUSH1 0x5 PUSH0 DUP3 DUP3 SLOAD PUSH2 0x5CE SWAP2 SWAP1 PUSH2 0xCC0 JUMP JUMPDEST SWAP3 POP POP DUP2 SWAP1 SSTORE POP POP POP JUMP JUMPDEST PUSH0 PUSH1 0x1 PUSH0 DUP2 SLOAD DUP1 SWAP3 SWAP2 SWAP1 PUSH2 0x5EC SWAP1 PUSH2 0xDA7 JUMP JUMPDEST SWAP2 SWAP1 POP SSTORE SWAP1 POP PUSH0 PUSH1 0x2 PUSH0 DUP4 DUP2 MSTORE PUSH1 0x20 ADD SWAP1 DUP2 MSTORE PUSH1 0x20 ADD PUSH0 KECCAK256 SWAP1 POP DUP3 DUP2 PUSH0 ADD SWAP1 DUP2 PUSH2 0x616 SWAP2 SWAP1 PUSH2 0xF8E JUMP JUMPDEST POP PUSH0 PUSH1 0x40 MLOAD DUP1 PUSH1 0x40 ADD PUSH1 0x40 MSTORE DUP1 DUP6 DUP2 MSTORE PUSH1 0x20 ADD PUSH0 ISZERO ISZERO DUP2 MSTORE POP SWAP1 DUP1 PUSH1 0x1 DUP2 SLOAD ADD DUP1 DUP3 SSTORE DUP1 SWAP2 POP POP PUSH1 0x1 SWAP1 SUB SWAP1 PUSH0 MSTORE PUSH1 0x20 PUSH0 KECCAK256 SWAP1 PUSH1 0x2 MUL ADD PUSH0 SWAP1 SWAP2 SWAP1 SWAP2 SWAP1 SWAP2 POP PUSH0 DUP3 ADD MLOAD DUP2 PUSH0 ADD SWAP1 DUP2 PUSH2 0x668 SWAP2 SWAP1 PUSH2 0xF8E JUMP JUMPDEST POP PUSH1 0x20 DUP3 ADD MLOAD DUP2 PUSH1 0x1 ADD PUSH0 PUSH2 0x100 EXP DUP2 SLOAD DUP2 PUSH1 0xFF MUL NOT AND SWAP1 DUP4 ISZERO ISZERO MUL OR SWAP1 SSTORE POP POP POP POP POP POP JUMP JUMPDEST PUSH1 0x2 PUSH1 0x20 MSTORE DUP1 PUSH0 MSTORE PUSH1 0x40 PUSH0 KECCAK256 PUSH0 SWAP2 POP SWAP1 POP DUP1 PUSH0 ADD DUP1 SLOAD PUSH2 0x6AE SWAP1 PUSH2 0xC36 JUMP JUMPDEST DUP1 PUSH1 0x1F ADD PUSH1 0x20 DUP1 SWAP2 DIV MUL PUSH1 0x20 ADD PUSH1 0x40 MLOAD SWAP1 DUP2 ADD PUSH1 0x40 MSTORE DUP1 SWAP3 SWAP2 SWAP1 DUP2 DUP2 MSTORE PUSH1 0x20 ADD DUP3 DUP1 SLOAD PUSH2 0x6DA SWAP1 PUSH2 0xC36 JUMP JUMPDEST DUP1 ISZERO PUSH2 0x725 JUMPI DUP1 PUSH1 0x1F LT PUSH2 0x6FC JUMPI PUSH2 0x100 DUP1 DUP4 SLOAD DIV MUL DUP4 MSTORE SWAP2 PUSH1 0x20 ADD SWAP2 PUSH2 0x725 JUMP JUMPDEST DUP3 ADD SWAP2 SWAP1 PUSH0 MSTORE PUSH1 0x20 PUSH0 KECCAK256 SWAP1 JUMPDEST DUP2 SLOAD DUP2 MSTORE SWAP1 PUSH1 0x1 ADD SWAP1 PUSH1 0x20 ADD DUP1 DUP4 GT PUSH2 0x708 JUMPI DUP3 SWAP1 SUB PUSH1 0x1F AND DUP3 ADD SWAP2 JUMPDEST POP POP POP POP POP SWAP1 DUP1 PUSH1 0x1 ADD PUSH0 SWAP1 SLOAD SWAP1 PUSH2 0x100 EXP SWAP1 DIV PUSH1 0xFF AND SWAP1 POP DUP3 JUMP JUMPDEST PUSH1 0x3 PUSH1 0x20 MSTORE DUP1 PUSH0 MSTORE PUSH1 0x40 PUSH0 KECCAK256 PUSH0 SWAP2 POP SWAP1 POP SLOAD DUP2 JUMP JUMPDEST PUSH1 0x1 SLOAD DUP2 JUMP JUMPDEST PUSH1 0x4 PUSH0 SWAP1 SLOAD SWAP1 PUSH2 0x100 EXP SWAP1 DIV PUSH1 0xFF AND DUP2 JUMP JUMPDEST PUSH1 0x1 PUSH0 DUP3 DUP2 SLOAD DUP2 LT PUSH2 0x783 JUMPI PUSH2 0x782 PUSH2 0xC66 JUMP JUMPDEST JUMPDEST SWAP1 PUSH0 MSTORE PUSH1 0x20 PUSH0 KECCAK256 SWAP1 PUSH1 0x2 MUL ADD PUSH1 0x1 ADD PUSH0 PUSH2 0x100 EXP DUP2 SLOAD DUP2 PUSH1 0xFF MUL NOT AND SWAP1 DUP4 ISZERO ISZERO MUL OR SWAP1 SSTORE POP PUSH1 0x1 PUSH1 0x2 PUSH0 DUP4 DUP2 MSTORE PUSH1 0x20 ADD SWAP1 DUP2 MSTORE PUSH1 0x20 ADD PUSH0 KECCAK256 PUSH1 0x1 ADD PUSH0 PUSH2 0x100 EXP DUP2 SLOAD DUP2 PUSH1 0xFF MUL NOT AND SWAP1 DUP4 ISZERO ISZERO MUL OR SWAP1 SSTORE POP POP JUMP JUMPDEST PUSH0 PUSH1 0x40 MLOAD SWAP1 POP SWAP1 JUMP JUMPDEST PUSH0 PUSH0 REVERT JUMPDEST PUSH0 PUSH0 REVERT JUMPDEST PUSH0 DUP2 SWAP1 POP SWAP2 SWAP1 POP JUMP JUMPDEST PUSH2 0x7FA DUP2 PUSH2 0x7E8 JUMP JUMPDEST DUP2 EQ PUSH2 0x804 JUMPI PUSH0 PUSH0 REVERT JUMPDEST POP JUMP JUMPDEST PUSH0 DUP2 CALLDATALOAD SWAP1 POP PUSH2 0x815 DUP2 PUSH2 0x7F1 JUMP JUMPDEST SWAP3 SWAP2 POP POP JUMP JUMPDEST PUSH0 PUSH1 0x20 DUP3 DUP5 SUB SLT ISZERO PUSH2 0x830 JUMPI PUSH2 0x82F PUSH2 0x7E0 JUMP JUMPDEST JUMPDEST PUSH0 PUSH2 0x83D DUP5 DUP3 DUP6 ADD PUSH2 0x807 JUMP JUMPDEST SWAP2 POP POP SWAP3 SWAP2 POP POP JUMP JUMPDEST PUSH0 DUP2 MLOAD SWAP1 POP SWAP2 SWAP1 POP JUMP JUMPDEST PUSH0 DUP3 DUP3 MSTORE PUSH1 0x20 DUP3 ADD SWAP1 POP SWAP3 SWAP2 POP POP JUMP JUMPDEST DUP3 DUP2 DUP4 MCOPY PUSH0 DUP4 DUP4 ADD MSTORE POP POP POP JUMP JUMPDEST PUSH0 PUSH1 0x1F NOT PUSH1 0x1F DUP4 ADD AND SWAP1 POP SWAP2 SWAP1 POP JUMP JUMPDEST PUSH0 PUSH2 0x888 DUP3 PUSH2 0x846 JUMP JUMPDEST PUSH2 0x892 DUP2 DUP6 PUSH2 0x850 JUMP JUMPDEST SWAP4 POP PUSH2 0x8A2 DUP2 DUP6 PUSH1 0x20 DUP7 ADD PUSH2 0x860 JUMP JUMPDEST PUSH2 0x8AB DUP2 PUSH2 0x86E JUMP JUMPDEST DUP5 ADD SWAP2 POP POP SWAP3 SWAP2 POP POP JUMP JUMPDEST PUSH0 DUP2 ISZERO ISZERO SWAP1 POP SWAP2 SWAP1 POP JUMP JUMPDEST PUSH2 0x8CA DUP2 PUSH2 0x8B6 JUMP JUMPDEST DUP3 MSTORE POP POP JUMP JUMPDEST PUSH0 PUSH1 0x40 DUP3 ADD SWAP1 POP DUP2 DUP2 SUB PUSH0 DUP4 ADD MSTORE PUSH2 0x8E8 DUP2 DUP6 PUSH2 0x87E JUMP JUMPDEST SWAP1 POP PUSH2 0x8F7 PUSH1 0x20 DUP4 ADD DUP5 PUSH2 0x8C1 JUMP JUMPDEST SWAP4 SWAP3 POP POP POP JUMP JUMPDEST PUSH1 0x3 DUP2 LT PUSH2 0x90A JUMPI PUSH0 PUSH0 REVERT JUMPDEST POP JUMP JUMPDEST PUSH0 DUP2 CALLDATALOAD SWAP1 POP PUSH2 0x91B DUP2 PUSH2 0x8FE JUMP JUMPDEST SWAP3 SWAP2 POP POP JUMP JUMPDEST PUSH0 PUSH1 0x20 DUP3 DUP5 SUB SLT ISZERO PUSH2 0x936 JUMPI PUSH2 0x935 PUSH2 0x7E0 JUMP JUMPDEST JUMPDEST PUSH0 PUSH2 0x943 DUP5 DUP3 DUP6 ADD PUSH2 0x90D JUMP JUMPDEST SWAP2 POP POP SWAP3 SWAP2 POP POP JUMP JUMPDEST PUSH2 0x955 DUP2 PUSH2 0x7E8 JUMP JUMPDEST DUP3 MSTORE POP POP JUMP JUMPDEST PUSH0 PUSH1 0x60 DUP3 ADD SWAP1 POP DUP2 DUP2 SUB PUSH0 DUP4 ADD MSTORE PUSH2 0x973 DUP2 DUP7 PUSH2 0x87E JUMP JUMPDEST SWAP1 POP PUSH2 0x982 PUSH1 0x20 DUP4 ADD DUP6 PUSH2 0x8C1 JUMP JUMPDEST PUSH2 0x98F PUSH1 0x40 DUP4 ADD DUP5 PUSH2 0x94C JUMP JUMPDEST SWAP5 SWAP4 POP POP POP POP JUMP JUMPDEST PUSH0 PUSH1 0x20 DUP3 ADD SWAP1 POP PUSH2 0x9AA PUSH0 DUP4 ADD DUP5 PUSH2 0x94C JUMP JUMPDEST SWAP3 SWAP2 POP POP JUMP JUMPDEST PUSH0 PUSH0 REVERT JUMPDEST PUSH0 PUSH0 REVERT JUMPDEST PUSH32 0x4E487B7100000000000000000000000000000000000000000000000000000000 PUSH0 MSTORE PUSH1 0x41 PUSH1 0x4 MSTORE PUSH1 0x24 PUSH0 REVERT JUMPDEST PUSH2 0x9EE DUP3 PUSH2 0x86E JUMP JUMPDEST DUP2 ADD DUP2 DUP2 LT PUSH8 0xFFFFFFFFFFFFFFFF DUP3 GT OR ISZERO PUSH2 0xA0D JUMPI PUSH2 0xA0C PUSH2 0x9B8 JUMP JUMPDEST JUMPDEST DUP1 PUSH1 0x40 MSTORE POP POP POP JUMP JUMPDEST PUSH0 PUSH2 0xA1F PUSH2 0x7D7 JUMP JUMPDEST SWAP1 POP PUSH2 0xA2B DUP3 DUP3 PUSH2 0x9E5 JUMP JUMPDEST SWAP2 SWAP1 POP JUMP JUMPDEST PUSH0 PUSH8 0xFFFFFFFFFFFFFFFF DUP3 GT ISZERO PUSH2 0xA4A JUMPI PUSH2 0xA49 PUSH2 0x9B8 JUMP JUMPDEST JUMPDEST PUSH2 0xA53 DUP3 PUSH2 0x86E JUMP JUMPDEST SWAP1 POP PUSH1 0x20 DUP2 ADD SWAP1 POP SWAP2 SWAP1 POP JUMP JUMPDEST DUP3 DUP2 DUP4 CALLDATACOPY PUSH0 DUP4 DUP4 ADD MSTORE POP POP POP JUMP JUMPDEST PUSH0 PUSH2 0xA80 PUSH2 0xA7B DUP5 PUSH2 0xA30 JUMP JUMPDEST PUSH2 0xA16 JUMP JUMPDEST SWAP1 POP DUP3 DUP2 MSTORE PUSH1 0x20 DUP2 ADD DUP5 DUP5 DUP5 ADD GT ISZERO PUSH2 0xA9C JUMPI PUSH2 0xA9B PUSH2 0x9B4 JUMP JUMPDEST JUMPDEST PUSH2 0xAA7 DUP5 DUP3 DUP6 PUSH2 0xA60 JUMP JUMPDEST POP SWAP4 SWAP3 POP POP POP JUMP JUMPDEST PUSH0 DUP3 PUSH1 0x1F DUP4 ADD SLT PUSH2 0xAC3 JUMPI PUSH2 0xAC2 PUSH2 0x9B0 JUMP JUMPDEST JUMPDEST DUP2 CALLDATALOAD PUSH2 0xAD3 DUP5 DUP3 PUSH1 0x20 DUP7 ADD PUSH2 0xA6E JUMP JUMPDEST SWAP2 POP POP SWAP3 SWAP2 POP POP JUMP JUMPDEST PUSH0 PUSH0 PUSH1 0x40 DUP4 DUP6 SUB SLT ISZERO PUSH2 0xAF2 JUMPI PUSH2 0xAF1 PUSH2 0x7E0 JUMP JUMPDEST JUMPDEST PUSH0 DUP4 ADD CALLDATALOAD PUSH8 0xFFFFFFFFFFFFFFFF DUP2 GT ISZERO PUSH2 0xB0F JUMPI PUSH2 0xB0E PUSH2 0x7E4 JUMP JUMPDEST JUMPDEST PUSH2 0xB1B DUP6 DUP3 DUP7 ADD PUSH2 0xAAF JUMP JUMPDEST SWAP3 POP POP PUSH1 0x20 PUSH2 0xB2C DUP6 DUP3 DUP7 ADD PUSH2 0x807 JUMP JUMPDEST SWAP2 POP POP SWAP3 POP SWAP3 SWAP1 POP JUMP JUMPDEST PUSH0 PUSH1 0x20 DUP3 DUP5 SUB SLT ISZERO PUSH2 0xB4B JUMPI PUSH2 0xB4A PUSH2 0x7E0 JUMP JUMPDEST JUMPDEST PUSH0 DUP3 ADD CALLDATALOAD PUSH8 0xFFFFFFFFFFFFFFFF DUP2 GT ISZERO PUSH2 0xB68 JUMPI PUSH2 0xB67 PUSH2 0x7E4 JUMP JUMPDEST JUMPDEST PUSH2 0xB74 DUP5 DUP3 DUP6 ADD PUSH2 0xAAF JUMP JUMPDEST SWAP2 POP POP SWAP3 SWAP2 POP POP JUMP JUMPDEST PUSH32 0x4E487B7100000000000000000000000000000000000000000000000000000000 PUSH0 MSTORE PUSH1 0x21 PUSH1 0x4 MSTORE PUSH1 0x24 PUSH0 REVERT JUMPDEST PUSH1 0x3 DUP2 LT PUSH2 0xBBB JUMPI PUSH2 0xBBA PUSH2 0xB7D JUMP JUMPDEST JUMPDEST POP JUMP JUMPDEST PUSH0 DUP2 SWAP1 POP PUSH2 0xBCB DUP3 PUSH2 0xBAA JUMP JUMPDEST SWAP2 SWAP1 POP JUMP JUMPDEST PUSH0 PUSH2 0xBDA DUP3 PUSH2 0xBBE JUMP JUMPDEST SWAP1 POP SWAP2 SWAP1 POP JUMP JUMPDEST PUSH2 0xBEA DUP2 PUSH2 0xBD0 JUMP JUMPDEST DUP3 MSTORE POP POP JUMP JUMPDEST PUSH0 PUSH1 0x20 DUP3 ADD SWAP1 POP PUSH2 0xC03 PUSH0 DUP4 ADD DUP5 PUSH2 0xBE1 JUMP JUMPDEST SWAP3 SWAP2 POP POP JUMP JUMPDEST PUSH32 0x4E487B7100000000000000000000000000000000000000000000000000000000 PUSH0 MSTORE PUSH1 0x22 PUSH1 0x4 MSTORE PUSH1 0x24 PUSH0 REVERT JUMPDEST PUSH0 PUSH1 0x2 DUP3 DIV SWAP1 POP PUSH1 0x1 DUP3 AND DUP1 PUSH2 0xC4D JUMPI PUSH1 0x7F DUP3 AND SWAP2 POP JUMPDEST PUSH1 0x20 DUP3 LT DUP2 SUB PUSH2 0xC60 JUMPI PUSH2 0xC5F PUSH2 0xC09 JUMP JUMPDEST JUMPDEST POP SWAP2 SWAP1 POP JUMP JUMPDEST PUSH32 0x4E487B7100000000000000000000000000000000000000000000000000000000 PUSH0 MSTORE PUSH1 0x32 PUSH1 0x4 MSTORE PUSH1 0x24 PUSH0 REVERT JUMPDEST PUSH32 0x4E487B7100000000000000000000000000000000000000000000000000000000 PUSH0 MSTORE PUSH1 0x11 PUSH1 0x4 MSTORE PUSH1 0x24 PUSH0 REVERT JUMPDEST PUSH0 PUSH2 0xCCA DUP3 PUSH2 0x7E8 JUMP JUMPDEST SWAP2 POP PUSH2 0xCD5 DUP4 PUSH2 0x7E8 JUMP JUMPDEST SWAP3 POP DUP3 DUP3 ADD SWAP1 POP DUP1 DUP3 GT ISZERO PUSH2 0xCED JUMPI PUSH2 0xCEC PUSH2 0xC93 JUMP JUMPDEST JUMPDEST SWAP3 SWAP2 POP POP JUMP JUMPDEST PUSH32 0xD09ED186D0B5D0BDD0BAD0B020D0BDD0B520D0BCD0BED0B6D0B5D18220D0BFD1 PUSH0 DUP3 ADD MSTORE PUSH32 0x80D0B5D0B2D18BD181D0B8D182D18C2031303020D0B1D0B0D0BBD0BBD0BED0B2 PUSH1 0x20 DUP3 ADD MSTORE PUSH32 0x2100000000000000000000000000000000000000000000000000000000000000 PUSH1 0x40 DUP3 ADD MSTORE POP JUMP JUMPDEST PUSH0 PUSH2 0xD73 PUSH1 0x41 DUP4 PUSH2 0x850 JUMP JUMPDEST SWAP2 POP PUSH2 0xD7E DUP3 PUSH2 0xCF3 JUMP JUMPDEST PUSH1 0x60 DUP3 ADD SWAP1 POP SWAP2 SWAP1 POP JUMP JUMPDEST PUSH0 PUSH1 0x20 DUP3 ADD SWAP1 POP DUP2 DUP2 SUB PUSH0 DUP4 ADD MSTORE PUSH2 0xDA0 DUP2 PUSH2 0xD67 JUMP JUMPDEST SWAP1 POP SWAP2 SWAP1 POP JUMP JUMPDEST PUSH0 PUSH2 0xDB1 DUP3 PUSH2 0x7E8 JUMP JUMPDEST SWAP2 POP PUSH32 0xFFFFFFFFFFFFFFFFFFFFFFFFFFFFFFFFFFFFFFFFFFFFFFFFFFFFFFFFFFFFFFFF DUP3 SUB PUSH2 0xDE3 JUMPI PUSH2 0xDE2 PUSH2 0xC93 JUMP JUMPDEST JUMPDEST PUSH1 0x1 DUP3 ADD SWAP1 POP SWAP2 SWAP1 POP JUMP JUMPDEST PUSH0 DUP2 SWAP1 POP DUP2 PUSH0 MSTORE PUSH1 0x20 PUSH0 KECCAK256 SWAP1 POP SWAP2 SWAP1 POP JUMP JUMPDEST PUSH0 PUSH1 0x20 PUSH1 0x1F DUP4 ADD DIV SWAP1 POP SWAP2 SWAP1 POP JUMP JUMPDEST PUSH0 DUP3 DUP3 SHL SWAP1 POP SWAP3 SWAP2 POP POP JUMP JUMPDEST PUSH0 PUSH1 0x8 DUP4 MUL PUSH2 0xE4A PUSH32 0xFFFFFFFFFFFFFFFFFFFFFFFFFFFFFFFFFFFFFFFFFFFFFFFFFFFFFFFFFFFFFFFF DUP3 PUSH2 0xE0F JUMP JUMPDEST PUSH2 0xE54 DUP7 DUP4 PUSH2 0xE0F JUMP JUMPDEST SWAP6 POP DUP1 NOT DUP5 AND SWAP4 POP DUP1 DUP7 AND DUP5 OR SWAP3 POP POP POP SWAP4 SWAP3 POP POP POP JUMP JUMPDEST PUSH0 DUP2 SWAP1 POP SWAP2 SWAP1 POP JUMP JUMPDEST PUSH0 PUSH2 0xE8F PUSH2 0xE8A PUSH2 0xE85 DUP5 PUSH2 0x7E8 JUMP JUMPDEST PUSH2 0xE6C JUMP JUMPDEST PUSH2 0x7E8 JUMP JUMPDEST SWAP1 POP SWAP2 SWAP1 POP JUMP JUMPDEST PUSH0 DUP2 SWAP1 POP SWAP2 SWAP1 POP JUMP JUMPDEST PUSH2 0xEA8 DUP4 PUSH2 0xE75 JUMP JUMPDEST PUSH2 0xEBC PUSH2 0xEB4 DUP3 PUSH2 0xE96 JUMP JUMPDEST DUP5 DUP5 SLOAD PUSH2 0xE1B JUMP JUMPDEST DUP3 SSTORE POP POP POP POP JUMP JUMPDEST PUSH0 PUSH0 SWAP1 POP SWAP1 JUMP JUMPDEST PUSH2 0xED3 PUSH2 0xEC4 JUMP JUMPDEST PUSH2 0xEDE DUP2 DUP5 DUP5 PUSH2 0xE9F JUMP JUMPDEST POP POP POP JUMP JUMPDEST JUMPDEST DUP2 DUP2 LT ISZERO PUSH2 0xF01 JUMPI PUSH2 0xEF6 PUSH0 DUP3 PUSH2 0xECB JUMP JUMPDEST PUSH1 0x1 DUP2 ADD SWAP1 POP PUSH2 0xEE4 JUMP JUMPDEST POP POP JUMP JUMPDEST PUSH1 0x1F DUP3 GT ISZERO PUSH2 0xF46 JUMPI PUSH2 0xF17 DUP2 PUSH2 0xDEE JUMP JUMPDEST PUSH2 0xF20 DUP5 PUSH2 0xE00 JUMP JUMPDEST DUP2 ADD PUSH1 0x20 DUP6 LT ISZERO PUSH2 0xF2F JUMPI DUP2 SWAP1 POP JUMPDEST PUSH2 0xF43 PUSH2 0xF3B DUP6 PUSH2 0xE00 JUMP JUMPDEST DUP4 ADD DUP3 PUSH2 0xEE3 JUMP JUMPDEST POP POP JUMPDEST POP POP POP JUMP JUMPDEST PUSH0 DUP3 DUP3 SHR SWAP1 POP SWAP3 SWAP2 POP POP JUMP JUMPDEST PUSH0 PUSH2 0xF66 PUSH0 NOT DUP5 PUSH1 0x8 MUL PUSH2 0xF4B JUMP JUMPDEST NOT DUP1 DUP4 AND SWAP2 POP POP SWAP3 SWAP2 POP POP JUMP JUMPDEST PUSH0 PUSH2 0xF7E DUP4 DUP4 PUSH2 0xF57 JUMP JUMPDEST SWAP2 POP DUP3 PUSH1 0x2 MUL DUP3 OR SWAP1 POP SWAP3 SWAP2 POP POP JUMP JUMPDEST PUSH2 0xF97 DUP3 PUSH2 0x846 JUMP JUMPDEST PUSH8 0xFFFFFFFFFFFFFFFF DUP2 GT ISZERO PUSH2 0xFB0 JUMPI PUSH2 0xFAF PUSH2 0x9B8 JUMP JUMPDEST JUMPDEST PUSH2 0xFBA DUP3 SLOAD PUSH2 0xC36 JUMP JUMPDEST PUSH2 0xFC5 DUP3 DUP3 DUP6 PUSH2 0xF05 JUMP JUMPDEST PUSH0 PUSH1 0x20 SWAP1 POP PUSH1 0x1F DUP4 GT PUSH1 0x1 DUP2 EQ PUSH2 0xFF6 JUMPI PUSH0 DUP5 ISZERO PUSH2 0xFE4 JUMPI DUP3 DUP8 ADD MLOAD SWAP1 POP JUMPDEST PUSH2 0xFEE DUP6 DUP3 PUSH2 0xF73 JUMP JUMPDEST DUP7 SSTORE POP PUSH2 0x1055 JUMP JUMPDEST PUSH1 0x1F NOT DUP5 AND PUSH2 0x1004 DUP7 PUSH2 0xDEE JUMP JUMPDEST PUSH0 JUMPDEST DUP3 DUP2 LT ISZERO PUSH2 0x102B JUMPI DUP5 DUP10 ADD MLOAD DUP3 SSTORE PUSH1 0x1 DUP3 ADD SWAP2 POP PUSH1 0x20 DUP6 ADD SWAP5 POP PUSH1 0x20 DUP2 ADD SWAP1 POP PUSH2 0x1006 JUMP JUMPDEST DUP7 DUP4 LT ISZERO PUSH2 0x1048 JUMPI DUP5 DUP10 ADD MLOAD PUSH2 0x1044 PUSH1 0x1F DUP10 AND DUP3 PUSH2 0xF57 JUMP JUMPDEST DUP4 SSTORE POP JUMPDEST PUSH1 0x1 PUSH1 0x2 DUP9 MUL ADD DUP9 SSTORE POP POP POP JUMPDEST POP POP POP POP POP POP JUMP INVALID LOG2 PUSH5 0x6970667358 0x22 SLT KECCAK256 0xA9 0xC1 PUSH29 0xDADDCF17454ADE868C5D83F567C56408095BED47C0B004C99DE44461E4 PUSH5 0x736F6C6343 STOP ADDMOD 0x1E STOP CALLER "
				},
				"gasEstimates": {
					"creation": {
						"codeDepositCost": "848600",
						"executionCost": "881",
						"totalCost": "849481"
					},
					"external": {
						"GetTask(uint256)": "infinite",
						"addTask(string)": "infinite",
						"addTaskWithPoints(string,uint256)": "infinite",
						"getTask(uint256)": "infinite",
						"globalStatus()": "2664",
						"markDone(uint256)": "infinite",
						"points(uint256)": "infinite",
						"setStatus(uint8)": "24690",
						"taskCount()": "2513",
						"taski(uint256)": "infinite",
						"tasks(uint256)": "infinite",
						"totalPoints()": "2536"
					}
				},
				"methodIdentifiers": {
					"GetTask(uint256)": "50675ed6",
					"addTask(string)": "67238562",
					"addTaskWithPoints(string,uint256)": "5c9814cb",
					"getTask(uint256)": "1d65e77e",
					"globalStatus()": "b73f7951",
					"markDone(uint256)": "4ad0e590",
					"points(uint256)": "9799b4e7",
					"setStatus(uint8)": "2e49d78b",
					"taskCount()": "b6cb58a5",
					"taski(uint256)": "0eddaecf",
					"tasks(uint256)": "8d977672",
					"totalPoints()": "567142be"
				}
			},
			"storageLayout": {
				"storage": [
					{
						"astId": 10,
						"contract": "TaskManager.sol:TaskManager",
						"label": "taski",
						"offset": 0,
						"slot": "0",
						"type": "t_array(t_struct(Task)6_storage)dyn_storage"
					},
					{
						"astId": 12,
						"contract": "TaskManager.sol:TaskManager",
						"label": "taskCount",
						"offset": 0,
						"slot": "1",
						"type": "t_uint256"
					},
					{
						"astId": 17,
						"contract": "TaskManager.sol:TaskManager",
						"label": "tasks",
						"offset": 0,
						"slot": "2",
						"type": "t_mapping(t_uint256,t_struct(Task)6_storage)"
					},
					{
						"astId": 103,
						"contract": "TaskManager.sol:TaskManager",
						"label": "points",
						"offset": 0,
						"slot": "3",
						"type": "t_mapping(t_uint256,t_uint256)"
					},
					{
						"astId": 110,
						"contract": "TaskManager.sol:TaskManager",
						"label": "globalStatus",
						"offset": 0,
						"slot": "4",
						"type": "t_enum(Status)107"
					},
					{
						"astId": 112,
						"contract": "TaskManager.sol:TaskManager",
						"label": "totalPoints",
						"offset": 0,
						"slot": "5",
						"type": "t_uint256"
					}
				],
				"types": {
					"t_array(t_struct(Task)6_storage)dyn_storage": {
						"base": "t_struct(Task)6_storage",
						"encoding": "dynamic_array",
						"label": "struct BaseTaskManager.Task[]",
						"numberOfBytes": "32"
					},
					"t_bool": {
						"encoding": "inplace",
						"label": "bool",
						"numberOfBytes": "1"
					},
					"t_enum(Status)107": {
						"encoding": "inplace",
						"label": "enum TaskManager.Status",
						"numberOfBytes": "1"
					},
					"t_mapping(t_uint256,t_struct(Task)6_storage)": {
						"encoding": "mapping",
						"key": "t_uint256",
						"label": "mapping(uint256 => struct BaseTaskManager.Task)",
						"numberOfBytes": "32",
						"value": "t_struct(Task)6_storage"
					},
					"t_mapping(t_uint256,t_uint256)": {
						"encoding": "mapping",
						"key": "t_uint256",
						"label": "mapping(uint256 => uint256)",
						"numberOfBytes": "32",
						"value": "t_uint256"
					},
					"t_string_storage": {
						"encoding": "bytes",
						"label": "string",
						"numberOfBytes": "32"
					},
					"t_struct(Task)6_storage": {
						"encoding": "inplace",
						"label": "struct BaseTaskManager.Task",
						"members": [
							{
								"astId": 3,
								"contract": "TaskManager.sol:TaskManager",
								"label": "text",
								"offset": 0,
								"slot": "0",
								"type": "t_string_storage"
							},
							{
								"astId": 5,
								"contract": "TaskManager.sol:TaskManager",
								"label": "done",
								"offset": 0,
								"slot": "1",
								"type": "t_bool"
							}
						],
						"numberOfBytes": "64"
					},
					"t_uint256": {
						"encoding": "inplace",
						"label": "uint256",
						"numberOfBytes": "32"
					}
				}
			},
			"userdoc": {
				"kind": "user",
				"methods": {},
				"version": 1
			}
		}
	}
}