{
	"StudentDiary.sol": {
		"StudentDiary": {
			"abi": [
				{
					"inputs": [],
					"stateMutability": "nonpayable",
					"type": "constructor"
				},
				{
					"inputs": [],
					"name": "English",
					"outputs": [
						{
							"internalType": "string",
							"name": "",
							"type": "string"
						}
					],
					"stateMutability": "view",
					"type": "function"
				},
				{
					"inputs": [],
					"name": "Math",
					"outputs": [
						{
							"internalType": "string",
							"name": "",
							"type": "string"
						}
					],
					"stateMutability": "view",
					"type": "function"
				},
				{
					"inputs": [],
					"name": "Russian",
					"outputs": [
						{
							"internalType": "string",
							"name": "",
							"type": "string"
						}
					],
					"stateMutability": "view",
					"type": "function"
				},
				{
					"inputs": [
						{
							"internalType": "address",
							"name": "",
							"type": "address"
						}
					],
					"name": "addressStudent",
					"outputs": [
						{
							"internalType": "uint256",
							"name": "",
							"type": "uint256"
						}
					],
					"stateMutability": "view",
					"type": "function"
				},
				{
					"inputs": [],
					"name": "completeUrok",
					"outputs": [],
					"stateMutability": "nonpayable",
					"type": "function"
				},
				{
					"inputs": [
						{
							"internalType": "string",
							"name": "",
							"type": "string"
						}
					],
					"name": "egoLesson",
					"outputs": [
						{
							"internalType": "int256",
							"name": "",
							"type": "int256"
						}
					],
					"stateMutability": "view",
					"type": "function"
				},
				{
					"inputs": [
						{
							"internalType": "uint256",
							"name": "amount",
							"type": "uint256"
						},
						{
							"internalType": "string",
							"name": "newOcenka",
							"type": "string"
						}
					],
					"name": "i",
					"outputs": [
						{
							"internalType": "string",
							"name": "",
							"type": "string"
						}
					],
					"stateMutability": "nonpayable",
					"type": "function"
				},
				{
					"inputs": [],
					"name": "lesson",
					"outputs": [
						{
							"internalType": "string",
							"name": "",
							"type": "string"
						}
					],
					"stateMutability": "view",
					"type": "function"
				},
				{
					"inputs": [],
					"name": "nameStudent",
					"outputs": [
						{
							"internalType": "string",
							"name": "",
							"type": "string"
						}
					],
					"stateMutability": "view",
					"type": "function"
				},
				{
					"inputs": [],
					"name": "number",
					"outputs": [
						{
							"internalType": "int256",
							"name": "",
							"type": "int256"
						}
					],
					"stateMutability": "view",
					"type": "function"
				},
				{
					"inputs": [],
					"name": "ocenkaStudent",
					"outputs": [
						{
							"internalType": "string",
							"name": "",
							"type": "string"
						}
					],
					"stateMutability": "view",
					"type": "function"
				},
				{
					"inputs": [
						{
							"internalType": "string",
							"name": "replace",
							"type": "string"
						}
					],
					"name": "replaceOcenka",
					"outputs": [
						{
							"internalType": "string",
							"name": "",
							"type": "string"
						}
					],
					"stateMutability": "nonpayable",
					"type": "function"
				},
				{
					"inputs": [
						{
							"internalType": "string",
							"name": "newOcenka",
							"type": "string"
						}
					],
					"name": "setOcenkaEng",
					"outputs": [
						{
							"internalType": "string",
							"name": "",
							"type": "string"
						}
					],
					"stateMutability": "nonpayable",
					"type": "function"
				},
				{
					"inputs": [
						{
							"internalType": "string",
							"name": "newOcenka",
							"type": "string"
						}
					],
					"name": "setOcenkaMath",
					"outputs": [
						{
							"internalType": "string",
							"name": "",
							"type": "string"
						}
					],
					"stateMutability": "nonpayable",
					"type": "function"
				},
				{
					"inputs": [
						{
							"internalType": "string",
							"name": "newOcenka",
							"type": "string"
						}
					],
					"name": "setOcenkaRus",
					"outputs": [
						{
							"internalType": "string",
							"name": "",
							"type": "string"
						}
					],
					"stateMutability": "nonpayable",
					"type": "function"
				},
				{
					"inputs": [],
					"name": "statusStudent",
					"outputs": [
						{
							"internalType": "bool",
							"name": "",
							"type": "bool"
						}
					],
					"stateMutability": "view",
					"type": "function"
				},
				{
					"inputs": [],
					"name": "student",
					"outputs": [
						{
							"internalType": "address",
							"name": "",
							"type": "address"
						}
					],
					"stateMutability": "view",
					"type": "function"
				},
				{
					"inputs": [],
					"name": "swapStatusActive",
					"outputs": [],
					"stateMutability": "nonpayable",
					"type": "function"
				},
				{
					"inputs": [],
					"name": "swapStatusInactive",
					"outputs": [],
					"stateMutability": "nonpayable",
					"type": "function"
				},
				{
					"inputs": [
						{
							"internalType": "int256",
							"name": "newNumber",
							"type": "int256"
						}
					],
					"name": "umnozhenie",
					"outputs": [
						{
							"internalType": "int256",
							"name": "",
							"type": "int256"
						}
					],
					"stateMutability": "nonpayable",
					"type": "function"
				},
				{
					"inputs": [],
					"name": "urok",
					"outputs": [
						{
							"internalType": "int256",
							"name": "",
							"type": "int256"
						}
					],
					"stateMutability": "view",
					"type": "function"
				}
			],
			"devdoc": {
				"kind": "dev",
				"methods": {},
				"version": 1
			},
			"evm": {
				"assembly": "    /* \"StudentDiary.sol\":58:2124  contract StudentDiary {... */\n  mstore(0x40, 0x80)\n    /* \"StudentDiary.sol\":114:149  string public nameStudent = \"Misha\" */\n  mload(0x40)\n  dup1\n  0x40\n  add\n  0x40\n  mstore\n  dup1\n  0x05\n  dup2\n  mstore\n  0x20\n  add\n  0x4d69736861000000000000000000000000000000000000000000000000000000\n  dup2\n  mstore\n  pop\n  0x01\n  swap1\n  dup2\n  tag_1\n  swap2\n  swap1\n  tag_2\n  jump\t// in\ntag_1:\n  pop\n    /* \"StudentDiary.sol\":465:539  constructor() {... */\n  callvalue\n  dup1\n  iszero\n  tag_3\n  jumpi\n  revert(0x00, 0x00)\ntag_3:\n  pop\n    /* \"StudentDiary.sol\":499:509  msg.sender */\n  caller\n    /* \"StudentDiary.sol\":489:496  student */\n  0x00\n  0x00\n    /* \"StudentDiary.sol\":489:509  student = msg.sender */\n  0x0100\n  exp\n  dup2\n  sload\n  dup2\n  0xffffffffffffffffffffffffffffffffffffffff\n  mul\n  not\n  and\n  swap1\n  dup4\n  0xffffffffffffffffffffffffffffffffffffffff\n  and\n  mul\n  or\n  swap1\n  sstore\n  pop\n    /* \"StudentDiary.sol\":528:532  Math */\n  0x04\n    /* \"StudentDiary.sol\":519:525  lesson */\n  0x0a\n    /* \"StudentDiary.sol\":519:532  lesson = Math */\n  swap1\n  dup2\n  tag_6\n  swap2\n  swap1\n  tag_7\n  jump\t// in\ntag_6:\n  pop\n    /* \"StudentDiary.sol\":58:2124  contract StudentDiary {... */\n  jump(tag_8)\n    /* \"#utility.yul\":7:106   */\ntag_9:\n    /* \"#utility.yul\":59:65   */\n  0x00\n    /* \"#utility.yul\":93:98   */\n  dup2\n    /* \"#utility.yul\":87:99   */\n  mload\n    /* \"#utility.yul\":77:99   */\n  swap1\n  pop\n    /* \"#utility.yul\":7:106   */\n  swap2\n  swap1\n  pop\n  jump\t// out\n    /* \"#utility.yul\":112:292   */\ntag_10:\n    /* \"#utility.yul\":160:237   */\n  0x4e487b7100000000000000000000000000000000000000000000000000000000\n    /* \"#utility.yul\":157:158   */\n  0x00\n    /* \"#utility.yul\":150:238   */\n  mstore\n    /* \"#utility.yul\":257:261   */\n  0x41\n    /* \"#utility.yul\":254:255   */\n  0x04\n    /* \"#utility.yul\":247:262   */\n  mstore\n    /* \"#utility.yul\":281:285   */\n  0x24\n    /* \"#utility.yul\":278:279   */\n  0x00\n    /* \"#utility.yul\":271:286   */\n  revert\n    /* \"#utility.yul\":298:478   */\ntag_11:\n    /* \"#utility.yul\":346:423   */\n  0x4e487b7100000000000000000000000000000000000000000000000000000000\n    /* \"#utility.yul\":343:344   */\n  0x00\n    /* \"#utility.yul\":336:424   */\n  mstore\n    /* \"#utility.yul\":443:447   */\n  0x22\n    /* \"#utility.yul\":440:441   */\n  0x04\n    /* \"#utility.yul\":433:448   */\n  mstore\n    /* \"#utility.yul\":467:471   */\n  0x24\n    /* \"#utility.yul\":464:465   */\n  0x00\n    /* \"#utility.yul\":457:472   */\n  revert\n    /* \"#utility.yul\":484:804   */\ntag_12:\n    /* \"#utility.yul\":528:534   */\n  0x00\n    /* \"#utility.yul\":565:566   */\n  0x02\n    /* \"#utility.yul\":559:563   */\n  dup3\n    /* \"#utility.yul\":555:567   */\n  div\n    /* \"#utility.yul\":545:567   */\n  swap1\n  pop\n    /* \"#utility.yul\":612:613   */\n  0x01\n    /* \"#utility.yul\":606:610   */\n  dup3\n    /* \"#utility.yul\":602:614   */\n  and\n    /* \"#utility.yul\":633:651   */\n  dup1\n    /* \"#utility.yul\":623:704   */\n  tag_36\n  jumpi\n    /* \"#utility.yul\":689:693   */\n  0x7f\n    /* \"#utility.yul\":681:687   */\n  dup3\n    /* \"#utility.yul\":677:694   */\n  and\n    /* \"#utility.yul\":667:694   */\n  swap2\n  pop\n    /* \"#utility.yul\":623:704   */\ntag_36:\n    /* \"#utility.yul\":751:753   */\n  0x20\n    /* \"#utility.yul\":743:749   */\n  dup3\n    /* \"#utility.yul\":740:754   */\n  lt\n    /* \"#utility.yul\":720:738   */\n  dup2\n    /* \"#utility.yul\":717:755   */\n  sub\n    /* \"#utility.yul\":714:798   */\n  tag_37\n  jumpi\n    /* \"#utility.yul\":770:788   */\n  tag_38\n  tag_11\n  jump\t// in\ntag_38:\n    /* \"#utility.yul\":714:798   */\ntag_37:\n    /* \"#utility.yul\":535:804   */\n  pop\n    /* \"#utility.yul\":484:804   */\n  swap2\n  swap1\n  pop\n  jump\t// out\n    /* \"#utility.yul\":810:951   */\ntag_13:\n    /* \"#utility.yul\":859:863   */\n  0x00\n    /* \"#utility.yul\":882:885   */\n  dup2\n    /* \"#utility.yul\":874:885   */\n  swap1\n  pop\n    /* \"#utility.yul\":905:908   */\n  dup2\n    /* \"#utility.yul\":902:903   */\n  0x00\n    /* \"#utility.yul\":895:909   */\n  mstore\n    /* \"#utility.yul\":939:943   */\n  0x20\n    /* \"#utility.yul\":936:937   */\n  0x00\n    /* \"#utility.yul\":926:944   */\n  keccak256\n    /* \"#utility.yul\":918:944   */\n  swap1\n  pop\n    /* \"#utility.yul\":810:951   */\n  swap2\n  swap1\n  pop\n  jump\t// out\n    /* \"#utility.yul\":957:1050   */\ntag_14:\n    /* \"#utility.yul\":994:1000   */\n  0x00\n    /* \"#utility.yul\":1041:1043   */\n  0x20\n    /* \"#utility.yul\":1036:1038   */\n  0x1f\n    /* \"#utility.yul\":1029:1034   */\n  dup4\n    /* \"#utility.yul\":1025:1039   */\n  add\n    /* \"#utility.yul\":1021:1044   */\n  div\n    /* \"#utility.yul\":1011:1044   */\n  swap1\n  pop\n    /* \"#utility.yul\":957:1050   */\n  swap2\n  swap1\n  pop\n  jump\t// out\n    /* \"#utility.yul\":1056:1163   */\ntag_15:\n    /* \"#utility.yul\":1100:1108   */\n  0x00\n    /* \"#utility.yul\":1150:1155   */\n  dup3\n    /* \"#utility.yul\":1144:1148   */\n  dup3\n    /* \"#utility.yul\":1140:1156   */\n  shl\n    /* \"#utility.yul\":1119:1156   */\n  swap1\n  pop\n    /* \"#utility.yul\":1056:1163   */\n  swap3\n  swap2\n  pop\n  pop\n  jump\t// out\n    /* \"#utility.yul\":1169:1562   */\ntag_16:\n    /* \"#utility.yul\":1238:1244   */\n  0x00\n    /* \"#utility.yul\":1288:1289   */\n  0x08\n    /* \"#utility.yul\":1276:1286   */\n  dup4\n    /* \"#utility.yul\":1272:1290   */\n  mul\n    /* \"#utility.yul\":1311:1408   */\n  tag_43\n    /* \"#utility.yul\":1341:1407   */\n  0xffffffffffffffffffffffffffffffffffffffffffffffffffffffffffffffff\n    /* \"#utility.yul\":1330:1339   */\n  dup3\n    /* \"#utility.yul\":1311:1408   */\n  tag_15\n  jump\t// in\ntag_43:\n    /* \"#utility.yul\":1429:1468   */\n  tag_44\n    /* \"#utility.yul\":1459:1467   */\n  dup7\n    /* \"#utility.yul\":1448:1457   */\n  dup4\n    /* \"#utility.yul\":1429:1468   */\n  tag_15\n  jump\t// in\ntag_44:\n    /* \"#utility.yul\":1417:1468   */\n  swap6\n  pop\n    /* \"#utility.yul\":1501:1505   */\n  dup1\n    /* \"#utility.yul\":1497:1506   */\n  not\n    /* \"#utility.yul\":1490:1495   */\n  dup5\n    /* \"#utility.yul\":1486:1507   */\n  and\n    /* \"#utility.yul\":1477:1507   */\n  swap4\n  pop\n    /* \"#utility.yul\":1550:1554   */\n  dup1\n    /* \"#utility.yul\":1540:1548   */\n  dup7\n    /* \"#utility.yul\":1536:1555   */\n  and\n    /* \"#utility.yul\":1529:1534   */\n  dup5\n    /* \"#utility.yul\":1526:1556   */\n  or\n    /* \"#utility.yul\":1516:1556   */\n  swap3\n  pop\n    /* \"#utility.yul\":1245:1562   */\n  pop\n  pop\n    /* \"#utility.yul\":1169:1562   */\n  swap4\n  swap3\n  pop\n  pop\n  pop\n  jump\t// out\n    /* \"#utility.yul\":1568:1645   */\ntag_17:\n    /* \"#utility.yul\":1605:1612   */\n  0x00\n    /* \"#utility.yul\":1634:1639   */\n  dup2\n    /* \"#utility.yul\":1623:1639   */\n  swap1\n  pop\n    /* \"#utility.yul\":1568:1645   */\n  swap2\n  swap1\n  pop\n  jump\t// out\n    /* \"#utility.yul\":1651:1711   */\ntag_18:\n    /* \"#utility.yul\":1679:1682   */\n  0x00\n    /* \"#utility.yul\":1700:1705   */\n  dup2\n    /* \"#utility.yul\":1693:1705   */\n  swap1\n  pop\n    /* \"#utility.yul\":1651:1711   */\n  swap2\n  swap1\n  pop\n  jump\t// out\n    /* \"#utility.yul\":1717:1859   */\ntag_19:\n    /* \"#utility.yul\":1767:1776   */\n  0x00\n    /* \"#utility.yul\":1800:1853   */\n  tag_48\n    /* \"#utility.yul\":1818:1852   */\n  tag_49\n    /* \"#utility.yul\":1827:1851   */\n  tag_50\n    /* \"#utility.yul\":1845:1850   */\n  dup5\n    /* \"#utility.yul\":1827:1851   */\n  tag_17\n  jump\t// in\ntag_50:\n    /* \"#utility.yul\":1818:1852   */\n  tag_18\n  jump\t// in\ntag_49:\n    /* \"#utility.yul\":1800:1853   */\n  tag_17\n  jump\t// in\ntag_48:\n    /* \"#utility.yul\":1787:1853   */\n  swap1\n  pop\n    /* \"#utility.yul\":1717:1859   */\n  swap2\n  swap1\n  pop\n  jump\t// out\n    /* \"#utility.yul\":1865:1940   */\ntag_20:\n    /* \"#utility.yul\":1908:1911   */\n  0x00\n    /* \"#utility.yul\":1929:1934   */\n  dup2\n    /* \"#utility.yul\":1922:1934   */\n  swap1\n  pop\n    /* \"#utility.yul\":1865:1940   */\n  swap2\n  swap1\n  pop\n  jump\t// out\n    /* \"#utility.yul\":1946:2215   */\ntag_21:\n    /* \"#utility.yul\":2056:2095   */\n  tag_53\n    /* \"#utility.yul\":2087:2094   */\n  dup4\n    /* \"#utility.yul\":2056:2095   */\n  tag_19\n  jump\t// in\ntag_53:\n    /* \"#utility.yul\":2117:2208   */\n  tag_54\n    /* \"#utility.yul\":2166:2207   */\n  tag_55\n    /* \"#utility.yul\":2190:2206   */\n  dup3\n    /* \"#utility.yul\":2166:2207   */\n  tag_20\n  jump\t// in\ntag_55:\n    /* \"#utility.yul\":2158:2164   */\n  dup5\n    /* \"#utility.yul\":2151:2155   */\n  dup5\n    /* \"#utility.yul\":2145:2156   */\n  sload\n    /* \"#utility.yul\":2117:2208   */\n  tag_16\n  jump\t// in\ntag_54:\n    /* \"#utility.yul\":2111:2115   */\n  dup3\n    /* \"#utility.yul\":2104:2209   */\n  sstore\n    /* \"#utility.yul\":2022:2215   */\n  pop\n    /* \"#utility.yul\":1946:2215   */\n  pop\n  pop\n  pop\n  jump\t// out\n    /* \"#utility.yul\":2221:2294   */\ntag_22:\n    /* \"#utility.yul\":2266:2269   */\n  0x00\n    /* \"#utility.yul\":2287:2288   */\n  0x00\n    /* \"#utility.yul\":2280:2288   */\n  swap1\n  pop\n    /* \"#utility.yul\":2221:2294   */\n  swap1\n  jump\t// out\n    /* \"#utility.yul\":2300:2489   */\ntag_23:\n    /* \"#utility.yul\":2377:2409   */\n  tag_58\n  tag_22\n  jump\t// in\ntag_58:\n    /* \"#utility.yul\":2418:2483   */\n  tag_59\n    /* \"#utility.yul\":2476:2482   */\n  dup2\n    /* \"#utility.yul\":2468:2474   */\n  dup5\n    /* \"#utility.yul\":2462:2466   */\n  dup5\n    /* \"#utility.yul\":2418:2483   */\n  tag_21\n  jump\t// in\ntag_59:\n    /* \"#utility.yul\":2353:2489   */\n  pop\n    /* \"#utility.yul\":2300:2489   */\n  pop\n  pop\n  jump\t// out\n    /* \"#utility.yul\":2495:2709   */\ntag_24:\n    /* \"#utility.yul\":2580:2581   */\n  0x00\n    /* \"#utility.yul\":2565:2703   */\ntag_61:\n    /* \"#utility.yul\":2590:2599   */\n  dup3\n    /* \"#utility.yul\":2587:2588   */\n  dup2\n    /* \"#utility.yul\":2584:2600   */\n  lt\n    /* \"#utility.yul\":2565:2703   */\n  iszero\n  tag_63\n  jumpi\n    /* \"#utility.yul\":2642:2693   */\n  tag_64\n    /* \"#utility.yul\":2691:2692   */\n  0x00\n    /* \"#utility.yul\":2687:2688   */\n  dup3\n    /* \"#utility.yul\":2676:2685   */\n  dup5\n    /* \"#utility.yul\":2672:2689   */\n  add\n    /* \"#utility.yul\":2642:2693   */\n  tag_23\n  jump\t// in\ntag_64:\n    /* \"#utility.yul\":2615:2616   */\n  0x01\n    /* \"#utility.yul\":2612:2613   */\n  dup2\n    /* \"#utility.yul\":2608:2617   */\n  add\n    /* \"#utility.yul\":2603:2617   */\n  swap1\n  pop\n    /* \"#utility.yul\":2565:2703   */\n  jump(tag_61)\ntag_63:\n    /* \"#utility.yul\":2569:2583   */\n  pop\n    /* \"#utility.yul\":2495:2709   */\n  pop\n  pop\n  jump\t// out\n    /* \"#utility.yul\":2715:3461   */\ntag_25:\n    /* \"#utility.yul\":2816:2818   */\n  0x1f\n    /* \"#utility.yul\":2811:2814   */\n  dup3\n    /* \"#utility.yul\":2808:2819   */\n  gt\n    /* \"#utility.yul\":2805:3454   */\n  iszero\n  tag_66\n  jumpi\n    /* \"#utility.yul\":2845:2855   */\n  dup3\n    /* \"#utility.yul\":2840:2843   */\n  dup3\n    /* \"#utility.yul\":2837:2856   */\n  gt\n    /* \"#utility.yul\":2834:3444   */\n  iszero\n  tag_67\n  jumpi\n    /* \"#utility.yul\":2891:2929   */\n  tag_68\n    /* \"#utility.yul\":2923:2928   */\n  dup2\n    /* \"#utility.yul\":2891:2929   */\n  tag_13\n  jump\t// in\ntag_68:\n    /* \"#utility.yul\":2966:2988   */\n  tag_69\n    /* \"#utility.yul\":2984:2987   */\n  dup4\n    /* \"#utility.yul\":2966:2988   */\n  tag_14\n  jump\t// in\ntag_69:\n    /* \"#utility.yul\":3025:3054   */\n  tag_70\n    /* \"#utility.yul\":3043:3053   */\n  dup6\n    /* \"#utility.yul\":3025:3054   */\n  tag_14\n  jump\t// in\ntag_70:\n    /* \"#utility.yul\":3215:3217   */\n  0x20\n    /* \"#utility.yul\":3203:3213   */\n  dup7\n    /* \"#utility.yul\":3200:3218   */\n  lt\n    /* \"#utility.yul\":3197:3276   */\n  iszero\n  tag_71\n  jumpi\n    /* \"#utility.yul\":3257:3258   */\n  0x00\n    /* \"#utility.yul\":3241:3258   */\n  swap1\n  pop\n    /* \"#utility.yul\":3197:3276   */\ntag_71:\n    /* \"#utility.yul\":3326:3338   */\n  dup1\n    /* \"#utility.yul\":3316:3324   */\n  dup4\n    /* \"#utility.yul\":3312:3339   */\n  add\n    /* \"#utility.yul\":3356:3430   */\n  tag_72\n    /* \"#utility.yul\":3416:3428   */\n  dup3\n    /* \"#utility.yul\":3402:3414   */\n  dup5\n    /* \"#utility.yul\":3398:3429   */\n  sub\n    /* \"#utility.yul\":3385:3396   */\n  dup3\n    /* \"#utility.yul\":3356:3430   */\n  tag_24\n  jump\t// in\ntag_72:\n    /* \"#utility.yul\":2857:3444   */\n  pop\n  pop\n  pop\n  pop\n    /* \"#utility.yul\":2834:3444   */\ntag_67:\n    /* \"#utility.yul\":2805:3454   */\ntag_66:\n    /* \"#utility.yul\":2715:3461   */\n  pop\n  pop\n  pop\n  jump\t// out\n    /* \"#utility.yul\":3467:3584   */\ntag_26:\n    /* \"#utility.yul\":3521:3529   */\n  0x00\n    /* \"#utility.yul\":3571:3576   */\n  dup3\n    /* \"#utility.yul\":3565:3569   */\n  dup3\n    /* \"#utility.yul\":3561:3577   */\n  shr\n    /* \"#utility.yul\":3540:3577   */\n  swap1\n  pop\n    /* \"#utility.yul\":3467:3584   */\n  swap3\n  swap2\n  pop\n  pop\n  jump\t// out\n    /* \"#utility.yul\":3590:3759   */\ntag_27:\n    /* \"#utility.yul\":3634:3640   */\n  0x00\n    /* \"#utility.yul\":3667:3718   */\n  tag_75\n    /* \"#utility.yul\":3715:3716   */\n  0x00\n    /* \"#utility.yul\":3711:3717   */\n  not\n    /* \"#utility.yul\":3703:3708   */\n  dup5\n    /* \"#utility.yul\":3700:3701   */\n  0x08\n    /* \"#utility.yul\":3696:3709   */\n  mul\n    /* \"#utility.yul\":3667:3718   */\n  tag_26\n  jump\t// in\ntag_75:\n    /* \"#utility.yul\":3663:3719   */\n  not\n    /* \"#utility.yul\":3748:3752   */\n  dup1\n    /* \"#utility.yul\":3742:3746   */\n  dup4\n    /* \"#utility.yul\":3738:3753   */\n  and\n    /* \"#utility.yul\":3728:3753   */\n  swap2\n  pop\n    /* \"#utility.yul\":3641:3759   */\n  pop\n    /* \"#utility.yul\":3590:3759   */\n  swap3\n  swap2\n  pop\n  pop\n  jump\t// out\n    /* \"#utility.yul\":3764:4059   */\ntag_28:\n    /* \"#utility.yul\":3840:3844   */\n  0x00\n    /* \"#utility.yul\":3986:4015   */\n  tag_77\n    /* \"#utility.yul\":4011:4014   */\n  dup4\n    /* \"#utility.yul\":4005:4009   */\n  dup4\n    /* \"#utility.yul\":3986:4015   */\n  tag_27\n  jump\t// in\ntag_77:\n    /* \"#utility.yul\":3978:4015   */\n  swap2\n  pop\n    /* \"#utility.yul\":4048:4051   */\n  dup3\n    /* \"#utility.yul\":4045:4046   */\n  0x02\n    /* \"#utility.yul\":4041:4052   */\n  mul\n    /* \"#utility.yul\":4035:4039   */\n  dup3\n    /* \"#utility.yul\":4032:4053   */\n  or\n    /* \"#utility.yul\":4024:4053   */\n  swap1\n  pop\n    /* \"#utility.yul\":3764:4059   */\n  swap3\n  swap2\n  pop\n  pop\n  jump\t// out\n    /* \"#utility.yul\":4064:5459   */\ntag_2:\n    /* \"#utility.yul\":4181:4218   */\n  tag_79\n    /* \"#utility.yul\":4214:4217   */\n  dup3\n    /* \"#utility.yul\":4181:4218   */\n  tag_9\n  jump\t// in\ntag_79:\n    /* \"#utility.yul\":4283:4301   */\n  0xffffffffffffffff\n    /* \"#utility.yul\":4275:4281   */\n  dup2\n    /* \"#utility.yul\":4272:4302   */\n  gt\n    /* \"#utility.yul\":4269:4325   */\n  iszero\n  tag_80\n  jumpi\n    /* \"#utility.yul\":4305:4323   */\n  tag_81\n  tag_10\n  jump\t// in\ntag_81:\n    /* \"#utility.yul\":4269:4325   */\ntag_80:\n    /* \"#utility.yul\":4349:4387   */\n  tag_82\n    /* \"#utility.yul\":4381:4385   */\n  dup3\n    /* \"#utility.yul\":4375:4386   */\n  sload\n    /* \"#utility.yul\":4349:4387   */\n  tag_12\n  jump\t// in\ntag_82:\n    /* \"#utility.yul\":4434:4501   */\n  tag_83\n    /* \"#utility.yul\":4494:4500   */\n  dup3\n    /* \"#utility.yul\":4486:4492   */\n  dup3\n    /* \"#utility.yul\":4480:4484   */\n  dup6\n    /* \"#utility.yul\":4434:4501   */\n  tag_25\n  jump\t// in\ntag_83:\n    /* \"#utility.yul\":4528:4529   */\n  0x00\n    /* \"#utility.yul\":4552:4556   */\n  0x20\n    /* \"#utility.yul\":4539:4556   */\n  swap1\n  pop\n    /* \"#utility.yul\":4584:4586   */\n  0x1f\n    /* \"#utility.yul\":4576:4582   */\n  dup4\n    /* \"#utility.yul\":4573:4587   */\n  gt\n    /* \"#utility.yul\":4601:4602   */\n  0x01\n    /* \"#utility.yul\":4596:5214   */\n  dup2\n  eq\n  tag_85\n  jumpi\n    /* \"#utility.yul\":5258:5259   */\n  0x00\n    /* \"#utility.yul\":5275:5281   */\n  dup5\n    /* \"#utility.yul\":5272:5349   */\n  iszero\n  tag_86\n  jumpi\n    /* \"#utility.yul\":5324:5333   */\n  dup3\n    /* \"#utility.yul\":5319:5322   */\n  dup8\n    /* \"#utility.yul\":5315:5334   */\n  add\n    /* \"#utility.yul\":5309:5335   */\n  mload\n    /* \"#utility.yul\":5300:5335   */\n  swap1\n  pop\n    /* \"#utility.yul\":5272:5349   */\ntag_86:\n    /* \"#utility.yul\":5375:5442   */\n  tag_87\n    /* \"#utility.yul\":5435:5441   */\n  dup6\n    /* \"#utility.yul\":5428:5433   */\n  dup3\n    /* \"#utility.yul\":5375:5442   */\n  tag_28\n  jump\t// in\ntag_87:\n    /* \"#utility.yul\":5369:5373   */\n  dup7\n    /* \"#utility.yul\":5362:5443   */\n  sstore\n    /* \"#utility.yul\":5231:5453   */\n  pop\n    /* \"#utility.yul\":4566:5453   */\n  jump(tag_84)\n    /* \"#utility.yul\":4596:5214   */\ntag_85:\n    /* \"#utility.yul\":4648:4652   */\n  0x1f\n    /* \"#utility.yul\":4644:4653   */\n  not\n    /* \"#utility.yul\":4636:4642   */\n  dup5\n    /* \"#utility.yul\":4632:4654   */\n  and\n    /* \"#utility.yul\":4682:4719   */\n  tag_88\n    /* \"#utility.yul\":4714:4718   */\n  dup7\n    /* \"#utility.yul\":4682:4719   */\n  tag_13\n  jump\t// in\ntag_88:\n    /* \"#utility.yul\":4741:4742   */\n  0x00\n    /* \"#utility.yul\":4755:4963   */\ntag_89:\n    /* \"#utility.yul\":4769:4776   */\n  dup3\n    /* \"#utility.yul\":4766:4767   */\n  dup2\n    /* \"#utility.yul\":4763:4777   */\n  lt\n    /* \"#utility.yul\":4755:4963   */\n  iszero\n  tag_91\n  jumpi\n    /* \"#utility.yul\":4848:4857   */\n  dup5\n    /* \"#utility.yul\":4843:4846   */\n  dup10\n    /* \"#utility.yul\":4839:4858   */\n  add\n    /* \"#utility.yul\":4833:4859   */\n  mload\n    /* \"#utility.yul\":4825:4831   */\n  dup3\n    /* \"#utility.yul\":4818:4860   */\n  sstore\n    /* \"#utility.yul\":4899:4900   */\n  0x01\n    /* \"#utility.yul\":4891:4897   */\n  dup3\n    /* \"#utility.yul\":4887:4901   */\n  add\n    /* \"#utility.yul\":4877:4901   */\n  swap2\n  pop\n    /* \"#utility.yul\":4946:4948   */\n  0x20\n    /* \"#utility.yul\":4935:4944   */\n  dup6\n    /* \"#utility.yul\":4931:4949   */\n  add\n    /* \"#utility.yul\":4918:4949   */\n  swap5\n  pop\n    /* \"#utility.yul\":4792:4796   */\n  0x20\n    /* \"#utility.yul\":4789:4790   */\n  dup2\n    /* \"#utility.yul\":4785:4797   */\n  add\n    /* \"#utility.yul\":4780:4797   */\n  swap1\n  pop\n    /* \"#utility.yul\":4755:4963   */\n  jump(tag_89)\ntag_91:\n    /* \"#utility.yul\":4991:4997   */\n  dup7\n    /* \"#utility.yul\":4982:4989   */\n  dup4\n    /* \"#utility.yul\":4979:4998   */\n  lt\n    /* \"#utility.yul\":4976:5155   */\n  iszero\n  tag_92\n  jumpi\n    /* \"#utility.yul\":5049:5058   */\n  dup5\n    /* \"#utility.yul\":5044:5047   */\n  dup10\n    /* \"#utility.yul\":5040:5059   */\n  add\n    /* \"#utility.yul\":5034:5060   */\n  mload\n    /* \"#utility.yul\":5092:5140   */\n  tag_93\n    /* \"#utility.yul\":5134:5138   */\n  0x1f\n    /* \"#utility.yul\":5126:5132   */\n  dup10\n    /* \"#utility.yul\":5122:5139   */\n  and\n    /* \"#utility.yul\":5111:5120   */\n  dup3\n    /* \"#utility.yul\":5092:5140   */\n  tag_27\n  jump\t// in\ntag_93:\n    /* \"#utility.yul\":5084:5090   */\n  dup4\n    /* \"#utility.yul\":5077:5141   */\n  sstore\n    /* \"#utility.yul\":4999:5155   */\n  pop\n    /* \"#utility.yul\":4976:5155   */\ntag_92:\n    /* \"#utility.yul\":5201:5202   */\n  0x01\n    /* \"#utility.yul\":5197:5198   */\n  0x02\n    /* \"#utility.yul\":5189:5195   */\n  dup9\n    /* \"#utility.yul\":5185:5199   */\n  mul\n    /* \"#utility.yul\":5181:5203   */\n  add\n    /* \"#utility.yul\":5175:5179   */\n  dup9\n    /* \"#utility.yul\":5168:5204   */\n  sstore\n    /* \"#utility.yul\":4603:5214   */\n  pop\n  pop\n  pop\n    /* \"#utility.yul\":4566:5453   */\ntag_84:\n  pop\n    /* \"#utility.yul\":4156:5459   */\n  pop\n  pop\n  pop\n    /* \"#utility.yul\":4064:5459   */\n  pop\n  pop\n  jump\t// out\n    /* \"#utility.yul\":5465:5618   */\ntag_29:\n    /* \"#utility.yul\":5518:5524   */\n  0x00\n    /* \"#utility.yul\":5552:5557   */\n  dup2\n    /* \"#utility.yul\":5546:5558   */\n  sload\n    /* \"#utility.yul\":5536:5558   */\n  swap1\n  pop\n    /* \"#utility.yul\":5578:5611   */\n  tag_95\n    /* \"#utility.yul\":5604:5610   */\n  dup2\n    /* \"#utility.yul\":5578:5611   */\n  tag_12\n  jump\t// in\ntag_95:\n    /* \"#utility.yul\":5568:5611   */\n  swap1\n  pop\n    /* \"#utility.yul\":5465:5618   */\n  swap2\n  swap1\n  pop\n  jump\t// out\n    /* \"#utility.yul\":5624:5769   */\ntag_30:\n    /* \"#utility.yul\":5677:5681   */\n  0x00\n    /* \"#utility.yul\":5700:5703   */\n  dup2\n    /* \"#utility.yul\":5692:5703   */\n  swap1\n  pop\n    /* \"#utility.yul\":5723:5726   */\n  dup2\n    /* \"#utility.yul\":5720:5721   */\n  0x00\n    /* \"#utility.yul\":5713:5727   */\n  mstore\n    /* \"#utility.yul\":5757:5761   */\n  0x20\n    /* \"#utility.yul\":5754:5755   */\n  0x00\n    /* \"#utility.yul\":5744:5762   */\n  keccak256\n    /* \"#utility.yul\":5736:5762   */\n  swap1\n  pop\n    /* \"#utility.yul\":5624:5769   */\n  swap2\n  swap1\n  pop\n  jump\t// out\n    /* \"#utility.yul\":5775:7238   */\ntag_7:\n    /* \"#utility.yul\":5890:5893   */\n  dup2\n    /* \"#utility.yul\":5884:5888   */\n  dup2\n    /* \"#utility.yul\":5881:5894   */\n  sub\n    /* \"#utility.yul\":5878:5904   */\n  tag_98\n  jumpi\n    /* \"#utility.yul\":5897:5902   */\n  pop\n  pop\n  jump(tag_97)\n    /* \"#utility.yul\":5878:5904   */\ntag_98:\n    /* \"#utility.yul\":5928:5966   */\n  tag_99\n    /* \"#utility.yul\":5962:5965   */\n  dup3\n    /* \"#utility.yul\":5928:5966   */\n  tag_29\n  jump\t// in\ntag_99:\n    /* \"#utility.yul\":6031:6049   */\n  0xffffffffffffffff\n    /* \"#utility.yul\":6023:6029   */\n  dup2\n    /* \"#utility.yul\":6020:6050   */\n  gt\n    /* \"#utility.yul\":6017:6073   */\n  iszero\n  tag_100\n  jumpi\n    /* \"#utility.yul\":6053:6071   */\n  tag_101\n  tag_10\n  jump\t// in\ntag_101:\n    /* \"#utility.yul\":6017:6073   */\ntag_100:\n    /* \"#utility.yul\":6097:6135   */\n  tag_102\n    /* \"#utility.yul\":6129:6133   */\n  dup3\n    /* \"#utility.yul\":6123:6134   */\n  sload\n    /* \"#utility.yul\":6097:6135   */\n  tag_12\n  jump\t// in\ntag_102:\n    /* \"#utility.yul\":6182:6249   */\n  tag_103\n    /* \"#utility.yul\":6242:6248   */\n  dup3\n    /* \"#utility.yul\":6234:6240   */\n  dup3\n    /* \"#utility.yul\":6228:6232   */\n  dup6\n    /* \"#utility.yul\":6182:6249   */\n  tag_25\n  jump\t// in\ntag_103:\n    /* \"#utility.yul\":6276:6277   */\n  0x00\n    /* \"#utility.yul\":6305:6307   */\n  0x1f\n    /* \"#utility.yul\":6297:6303   */\n  dup4\n    /* \"#utility.yul\":6294:6308   */\n  gt\n    /* \"#utility.yul\":6322:6323   */\n  0x01\n    /* \"#utility.yul\":6317:6993   */\n  dup2\n  eq\n  tag_105\n  jumpi\n    /* \"#utility.yul\":7037:7038   */\n  0x00\n    /* \"#utility.yul\":7054:7060   */\n  dup5\n    /* \"#utility.yul\":7051:7128   */\n  iszero\n  tag_106\n  jumpi\n    /* \"#utility.yul\":7103:7112   */\n  dup3\n    /* \"#utility.yul\":7098:7101   */\n  dup8\n    /* \"#utility.yul\":7094:7113   */\n  add\n    /* \"#utility.yul\":7088:7114   */\n  sload\n    /* \"#utility.yul\":7079:7114   */\n  swap1\n  pop\n    /* \"#utility.yul\":7051:7128   */\ntag_106:\n    /* \"#utility.yul\":7154:7221   */\n  tag_107\n    /* \"#utility.yul\":7214:7220   */\n  dup6\n    /* \"#utility.yul\":7207:7212   */\n  dup3\n    /* \"#utility.yul\":7154:7221   */\n  tag_28\n  jump\t// in\ntag_107:\n    /* \"#utility.yul\":7148:7152   */\n  dup7\n    /* \"#utility.yul\":7141:7222   */\n  sstore\n    /* \"#utility.yul\":7010:7232   */\n  pop\n    /* \"#utility.yul\":6287:7232   */\n  jump(tag_104)\n    /* \"#utility.yul\":6317:6993   */\ntag_105:\n    /* \"#utility.yul\":6369:6373   */\n  0x1f\n    /* \"#utility.yul\":6365:6374   */\n  not\n    /* \"#utility.yul\":6357:6363   */\n  dup5\n    /* \"#utility.yul\":6353:6375   */\n  and\n    /* \"#utility.yul\":6395:6435   */\n  tag_108\n    /* \"#utility.yul\":6431:6434   */\n  dup8\n    /* \"#utility.yul\":6395:6435   */\n  tag_30\n  jump\t// in\ntag_108:\n    /* \"#utility.yul\":6388:6435   */\n  swap7\n  pop\n    /* \"#utility.yul\":6462:6499   */\n  tag_109\n    /* \"#utility.yul\":6494:6498   */\n  dup7\n    /* \"#utility.yul\":6462:6499   */\n  tag_13\n  jump\t// in\ntag_109:\n    /* \"#utility.yul\":6521:6522   */\n  0x00\n    /* \"#utility.yul\":6535:6742   */\ntag_110:\n    /* \"#utility.yul\":6549:6556   */\n  dup3\n    /* \"#utility.yul\":6546:6547   */\n  dup2\n    /* \"#utility.yul\":6543:6557   */\n  lt\n    /* \"#utility.yul\":6535:6742   */\n  iszero\n  tag_112\n  jumpi\n    /* \"#utility.yul\":6628:6637   */\n  dup5\n    /* \"#utility.yul\":6623:6626   */\n  dup10\n    /* \"#utility.yul\":6619:6638   */\n  add\n    /* \"#utility.yul\":6613:6639   */\n  sload\n    /* \"#utility.yul\":6605:6611   */\n  dup3\n    /* \"#utility.yul\":6598:6640   */\n  sstore\n    /* \"#utility.yul\":6679:6680   */\n  0x01\n    /* \"#utility.yul\":6671:6677   */\n  dup3\n    /* \"#utility.yul\":6667:6681   */\n  add\n    /* \"#utility.yul\":6657:6681   */\n  swap2\n  pop\n    /* \"#utility.yul\":6726:6727   */\n  0x01\n    /* \"#utility.yul\":6715:6724   */\n  dup6\n    /* \"#utility.yul\":6711:6728   */\n  add\n    /* \"#utility.yul\":6698:6728   */\n  swap5\n  pop\n    /* \"#utility.yul\":6572:6576   */\n  0x20\n    /* \"#utility.yul\":6569:6570   */\n  dup2\n    /* \"#utility.yul\":6565:6577   */\n  add\n    /* \"#utility.yul\":6560:6577   */\n  swap1\n  pop\n    /* \"#utility.yul\":6535:6742   */\n  jump(tag_110)\ntag_112:\n    /* \"#utility.yul\":6770:6776   */\n  dup7\n    /* \"#utility.yul\":6761:6768   */\n  dup4\n    /* \"#utility.yul\":6758:6777   */\n  lt\n    /* \"#utility.yul\":6755:6934   */\n  iszero\n  tag_113\n  jumpi\n    /* \"#utility.yul\":6828:6837   */\n  dup5\n    /* \"#utility.yul\":6823:6826   */\n  dup10\n    /* \"#utility.yul\":6819:6838   */\n  add\n    /* \"#utility.yul\":6813:6839   */\n  sload\n    /* \"#utility.yul\":6871:6919   */\n  tag_114\n    /* \"#utility.yul\":6913:6917   */\n  0x1f\n    /* \"#utility.yul\":6905:6911   */\n  dup10\n    /* \"#utility.yul\":6901:6918   */\n  and\n    /* \"#utility.yul\":6890:6899   */\n  dup3\n    /* \"#utility.yul\":6871:6919   */\n  tag_27\n  jump\t// in\ntag_114:\n    /* \"#utility.yul\":6863:6869   */\n  dup4\n    /* \"#utility.yul\":6856:6920   */\n  sstore\n    /* \"#utility.yul\":6778:6934   */\n  pop\n    /* \"#utility.yul\":6755:6934   */\ntag_113:\n    /* \"#utility.yul\":6980:6981   */\n  0x01\n    /* \"#utility.yul\":6976:6977   */\n  0x02\n    /* \"#utility.yul\":6968:6974   */\n  dup9\n    /* \"#utility.yul\":6964:6978   */\n  mul\n    /* \"#utility.yul\":6960:6982   */\n  add\n    /* \"#utility.yul\":6954:6958   */\n  dup9\n    /* \"#utility.yul\":6947:6983   */\n  sstore\n    /* \"#utility.yul\":6324:6993   */\n  pop\n  pop\n  pop\n    /* \"#utility.yul\":6287:7232   */\ntag_104:\n  pop\n    /* \"#utility.yul\":5868:7238   */\n  pop\n  pop\n  pop\n    /* \"#utility.yul\":5775:7238   */\n  pop\n  pop\ntag_97:\n  jump\t// out\n    /* \"StudentDiary.sol\":58:2124  contract StudentDiary {... */\ntag_8:\n  dataSize(sub_0)\n  dup1\n  dataOffset(sub_0)\n  0x00\n  codecopy\n  0x00\n  return\nstop\n\nsub_0: assembly {\n        /* \"StudentDiary.sol\":58:2124  contract StudentDiary {... */\n      mstore(0x40, 0x80)\n      callvalue\n      dup1\n      iszero\n      tag_1\n      jumpi\n      revert(0x00, 0x00)\n    tag_1:\n      pop\n      jumpi(tag_2, lt(calldatasize, 0x04))\n      shr(0xe0, calldataload(0x00))\n      dup1\n      0x80e8d626\n      gt\n      tag_24\n      jumpi\n      dup1\n      0xa93b016a\n      gt\n      tag_25\n      jumpi\n      dup1\n      0xa93b016a\n      eq\n      tag_18\n      jumpi\n      dup1\n      0xb182b083\n      eq\n      tag_19\n      jumpi\n      dup1\n      0xb774884a\n      eq\n      tag_20\n      jumpi\n      dup1\n      0xc5b0cb3b\n      eq\n      tag_21\n      jumpi\n      dup1\n      0xd46c2dc4\n      eq\n      tag_22\n      jumpi\n      dup1\n      0xfa1ebe4f\n      eq\n      tag_23\n      jumpi\n      jump(tag_2)\n    tag_25:\n      dup1\n      0x80e8d626\n      eq\n      tag_13\n      jumpi\n      dup1\n      0x8381f58a\n      eq\n      tag_14\n      jumpi\n      dup1\n      0x88e7cc08\n      eq\n      tag_15\n      jumpi\n      dup1\n      0x8eace8f7\n      eq\n      tag_16\n      jumpi\n      dup1\n      0xa830e15f\n      eq\n      tag_17\n      jumpi\n      jump(tag_2)\n    tag_24:\n      dup1\n      0x5d36d095\n      gt\n      tag_26\n      jumpi\n      dup1\n      0x5d36d095\n      eq\n      tag_8\n      jumpi\n      dup1\n      0x699450e8\n      eq\n      tag_9\n      jumpi\n      dup1\n      0x6c5f5966\n      eq\n      tag_10\n      jumpi\n      dup1\n      0x6d76b926\n      eq\n      tag_11\n      jumpi\n      dup1\n      0x76c3ac1d\n      eq\n      tag_12\n      jumpi\n      jump(tag_2)\n    tag_26:\n      dup1\n      0x06c5a5f5\n      eq\n      tag_3\n      jumpi\n      dup1\n      0x0f91d842\n      eq\n      tag_4\n      jumpi\n      dup1\n      0x235f9bc9\n      eq\n      tag_5\n      jumpi\n      dup1\n      0x4d5e01fb\n      eq\n      tag_6\n      jumpi\n      dup1\n      0x59212064\n      eq\n      tag_7\n      jumpi\n    tag_2:\n      revert(0x00, 0x00)\n        /* \"StudentDiary.sol\":240:258  string public Math */\n    tag_3:\n      tag_27\n      tag_28\n      jump\t// in\n    tag_27:\n      mload(0x40)\n      tag_29\n      swap2\n      swap1\n      tag_30\n      jump\t// in\n    tag_29:\n      mload(0x40)\n      dup1\n      swap2\n      sub\n      swap1\n      return\n        /* \"StudentDiary.sol\":341:356  int public urok */\n    tag_4:\n      tag_31\n      tag_32\n      jump\t// in\n    tag_31:\n      mload(0x40)\n      tag_33\n      swap2\n      swap1\n      tag_34\n      jump\t// in\n    tag_33:\n      mload(0x40)\n      dup1\n      swap2\n      sub\n      swap1\n      return\n        /* \"StudentDiary.sol\":1654:1777  function replaceOcenka(... */\n    tag_5:\n      tag_35\n      0x04\n      dup1\n      calldatasize\n      sub\n      dup2\n      add\n      swap1\n      tag_36\n      swap2\n      swap1\n      tag_37\n      jump\t// in\n    tag_36:\n      tag_38\n      jump\t// in\n    tag_35:\n      mload(0x40)\n      tag_39\n      swap2\n      swap1\n      tag_30\n      jump\t// in\n    tag_39:\n      mload(0x40)\n      dup1\n      swap2\n      sub\n      swap1\n      return\n        /* \"StudentDiary.sol\":545:854  function i(... */\n    tag_6:\n      tag_40\n      0x04\n      dup1\n      calldatasize\n      sub\n      dup2\n      add\n      swap1\n      tag_41\n      swap2\n      swap1\n      tag_42\n      jump\t// in\n    tag_41:\n      tag_43\n      jump\t// in\n    tag_40:\n      mload(0x40)\n      tag_44\n      swap2\n      swap1\n      tag_30\n      jump\t// in\n    tag_44:\n      mload(0x40)\n      dup1\n      swap2\n      sub\n      swap1\n      return\n        /* \"StudentDiary.sol\":1861:1936  function swapStatusInactive() public {... */\n    tag_7:\n      tag_45\n      tag_46\n      jump\t// in\n    tag_45:\n      stop\n        /* \"StudentDiary.sol\":1124:1383  function setOcenkaRus(... */\n    tag_8:\n      tag_47\n      0x04\n      dup1\n      calldatasize\n      sub\n      dup2\n      add\n      swap1\n      tag_48\n      swap2\n      swap1\n      tag_37\n      jump\t// in\n    tag_48:\n      tag_49\n      jump\t// in\n    tag_47:\n      mload(0x40)\n      tag_50\n      swap2\n      swap1\n      tag_30\n      jump\t// in\n    tag_50:\n      mload(0x40)\n      dup1\n      swap2\n      sub\n      swap1\n      return\n        /* \"StudentDiary.sol\":86:108  address public student */\n    tag_9:\n      tag_51\n      tag_52\n      jump\t// in\n    tag_51:\n      mload(0x40)\n      tag_53\n      swap2\n      swap1\n      tag_54\n      jump\t// in\n    tag_53:\n      mload(0x40)\n      dup1\n      swap2\n      sub\n      swap1\n      return\n        /* \"StudentDiary.sol\":419:458  mapping(string => int) public egoLesson */\n    tag_10:\n      tag_55\n      0x04\n      dup1\n      calldatasize\n      sub\n      dup2\n      add\n      swap1\n      tag_56\n      swap2\n      swap1\n      tag_37\n      jump\t// in\n    tag_56:\n      tag_57\n      jump\t// in\n    tag_55:\n      mload(0x40)\n      tag_58\n      swap2\n      swap1\n      tag_34\n      jump\t// in\n    tag_58:\n      mload(0x40)\n      dup1\n      swap2\n      sub\n      swap1\n      return\n        /* \"StudentDiary.sol\":188:234  mapping(address => uint) public addressStudent */\n    tag_11:\n      tag_59\n      0x04\n      dup1\n      calldatasize\n      sub\n      dup2\n      add\n      swap1\n      tag_60\n      swap2\n      swap1\n      tag_61\n      jump\t// in\n    tag_60:\n      tag_62\n      jump\t// in\n    tag_59:\n      mload(0x40)\n      tag_63\n      swap2\n      swap1\n      tag_64\n      jump\t// in\n    tag_63:\n      mload(0x40)\n      dup1\n      swap2\n      sub\n      swap1\n      return\n        /* \"StudentDiary.sol\":864:1118  function setOcenkaMath(... */\n    tag_12:\n      tag_65\n      0x04\n      dup1\n      calldatasize\n      sub\n      dup2\n      add\n      swap1\n      tag_66\n      swap2\n      swap1\n      tag_37\n      jump\t// in\n    tag_66:\n      tag_67\n      jump\t// in\n    tag_65:\n      mload(0x40)\n      tag_68\n      swap2\n      swap1\n      tag_30\n      jump\t// in\n    tag_68:\n      mload(0x40)\n      dup1\n      swap2\n      sub\n      swap1\n      return\n        /* \"StudentDiary.sol\":362:387  bool public statusStudent */\n    tag_13:\n      tag_69\n      tag_70\n      jump\t// in\n    tag_69:\n      mload(0x40)\n      tag_71\n      swap2\n      swap1\n      tag_72\n      jump\t// in\n    tag_71:\n      mload(0x40)\n      dup1\n      swap2\n      sub\n      swap1\n      return\n        /* \"StudentDiary.sol\":318:335  int public number */\n    tag_14:\n      tag_73\n      tag_74\n      jump\t// in\n    tag_73:\n      mload(0x40)\n      tag_75\n      swap2\n      swap1\n      tag_34\n      jump\t// in\n    tag_75:\n      mload(0x40)\n      dup1\n      swap2\n      sub\n      swap1\n      return\n        /* \"StudentDiary.sol\":2002:2122  function umnozhenie(int newNumber) external returns (int) {... */\n    tag_15:\n      tag_76\n      0x04\n      dup1\n      calldatasize\n      sub\n      dup2\n      add\n      swap1\n      tag_77\n      swap2\n      swap1\n      tag_78\n      jump\t// in\n    tag_77:\n      tag_79\n      jump\t// in\n    tag_76:\n      mload(0x40)\n      tag_80\n      swap2\n      swap1\n      tag_34\n      jump\t// in\n    tag_80:\n      mload(0x40)\n      dup1\n      swap2\n      sub\n      swap1\n      return\n        /* \"StudentDiary.sol\":291:312  string public English */\n    tag_16:\n      tag_81\n      tag_82\n      jump\t// in\n    tag_81:\n      mload(0x40)\n      tag_83\n      swap2\n      swap1\n      tag_30\n      jump\t// in\n    tag_83:\n      mload(0x40)\n      dup1\n      swap2\n      sub\n      swap1\n      return\n        /* \"StudentDiary.sol\":114:149  string public nameStudent = \"Misha\" */\n    tag_17:\n      tag_84\n      tag_85\n      jump\t// in\n    tag_84:\n      mload(0x40)\n      tag_86\n      swap2\n      swap1\n      tag_30\n      jump\t// in\n    tag_86:\n      mload(0x40)\n      dup1\n      swap2\n      sub\n      swap1\n      return\n        /* \"StudentDiary.sol\":155:182  string public ocenkaStudent */\n    tag_18:\n      tag_87\n      tag_88\n      jump\t// in\n    tag_87:\n      mload(0x40)\n      tag_89\n      swap2\n      swap1\n      tag_30\n      jump\t// in\n    tag_89:\n      mload(0x40)\n      dup1\n      swap2\n      sub\n      swap1\n      return\n        /* \"StudentDiary.sol\":1942:1996  function completeUrok() public {... */\n    tag_19:\n      tag_90\n      tag_91\n      jump\t// in\n    tag_90:\n      stop\n        /* \"StudentDiary.sol\":1783:1855  function swapStatusActive() public {... */\n    tag_20:\n      tag_92\n      tag_93\n      jump\t// in\n    tag_92:\n      stop\n        /* \"StudentDiary.sol\":393:413  string public lesson */\n    tag_21:\n      tag_94\n      tag_95\n      jump\t// in\n    tag_94:\n      mload(0x40)\n      tag_96\n      swap2\n      swap1\n      tag_30\n      jump\t// in\n    tag_96:\n      mload(0x40)\n      dup1\n      swap2\n      sub\n      swap1\n      return\n        /* \"StudentDiary.sol\":1389:1648  function setOcenkaEng(... */\n    tag_22:\n      tag_97\n      0x04\n      dup1\n      calldatasize\n      sub\n      dup2\n      add\n      swap1\n      tag_98\n      swap2\n      swap1\n      tag_37\n      jump\t// in\n    tag_98:\n      tag_99\n      jump\t// in\n    tag_97:\n      mload(0x40)\n      tag_100\n      swap2\n      swap1\n      tag_30\n      jump\t// in\n    tag_100:\n      mload(0x40)\n      dup1\n      swap2\n      sub\n      swap1\n      return\n        /* \"StudentDiary.sol\":264:285  string public Russian */\n    tag_23:\n      tag_101\n      tag_102\n      jump\t// in\n    tag_101:\n      mload(0x40)\n      tag_103\n      swap2\n      swap1\n      tag_30\n      jump\t// in\n    tag_103:\n      mload(0x40)\n      dup1\n      swap2\n      sub\n      swap1\n      return\n        /* \"StudentDiary.sol\":240:258  string public Math */\n    tag_28:\n      0x04\n      dup1\n      sload\n      tag_104\n      swap1\n      tag_105\n      jump\t// in\n    tag_104:\n      dup1\n      0x1f\n      add\n      0x20\n      dup1\n      swap2\n      div\n      mul\n      0x20\n      add\n      mload(0x40)\n      swap1\n      dup2\n      add\n      0x40\n      mstore\n      dup1\n      swap3\n      swap2\n      swap1\n      dup2\n      dup2\n      mstore\n      0x20\n      add\n      dup3\n      dup1\n      sload\n      tag_106\n      swap1\n      tag_105\n      jump\t// in\n    tag_106:\n      dup1\n      iszero\n      tag_107\n      jumpi\n      dup1\n      0x1f\n      lt\n      tag_108\n      jumpi\n      0x0100\n      dup1\n      dup4\n      sload\n      div\n      mul\n      dup4\n      mstore\n      swap2\n      0x20\n      add\n      swap2\n      jump(tag_107)\n    tag_108:\n      dup3\n      add\n      swap2\n      swap1\n      0x00\n      mstore\n      keccak256(0x00, 0x20)\n      swap1\n    tag_109:\n      dup2\n      sload\n      dup2\n      mstore\n      swap1\n      0x01\n      add\n      swap1\n      0x20\n      add\n      dup1\n      dup4\n      gt\n      tag_109\n      jumpi\n      dup3\n      swap1\n      sub\n      0x1f\n      and\n      dup3\n      add\n      swap2\n    tag_107:\n      pop\n      pop\n      pop\n      pop\n      pop\n      dup2\n      jump\t// out\n        /* \"StudentDiary.sol\":341:356  int public urok */\n    tag_32:\n      sload(0x08)\n      dup2\n      jump\t// out\n        /* \"StudentDiary.sol\":1654:1777  function replaceOcenka(... */\n    tag_38:\n        /* \"StudentDiary.sol\":1732:1745  string memory */\n      0x60\n        /* \"StudentDiary.sol\":1764:1770  lesson */\n      0x0a\n        /* \"StudentDiary.sol\":1757:1770  return lesson */\n      dup1\n      sload\n      tag_111\n      swap1\n      tag_105\n      jump\t// in\n    tag_111:\n      dup1\n      0x1f\n      add\n      0x20\n      dup1\n      swap2\n      div\n      mul\n      0x20\n      add\n      mload(0x40)\n      swap1\n      dup2\n      add\n      0x40\n      mstore\n      dup1\n      swap3\n      swap2\n      swap1\n      dup2\n      dup2\n      mstore\n      0x20\n      add\n      dup3\n      dup1\n      sload\n      tag_112\n      swap1\n      tag_105\n      jump\t// in\n    tag_112:\n      dup1\n      iszero\n      tag_113\n      jumpi\n      dup1\n      0x1f\n      lt\n      tag_114\n      jumpi\n      0x0100\n      dup1\n      dup4\n      sload\n      div\n      mul\n      dup4\n      mstore\n      swap2\n      0x20\n      add\n      swap2\n      jump(tag_113)\n    tag_114:\n      dup3\n      add\n      swap2\n      swap1\n      0x00\n      mstore\n      keccak256(0x00, 0x20)\n      swap1\n    tag_115:\n      dup2\n      sload\n      dup2\n      mstore\n      swap1\n      0x01\n      add\n      swap1\n      0x20\n      add\n      dup1\n      dup4\n      gt\n      tag_115\n      jumpi\n      dup3\n      swap1\n      sub\n      0x1f\n      and\n      dup3\n      add\n      swap2\n    tag_113:\n      pop\n      pop\n      pop\n      pop\n      pop\n      swap1\n      pop\n        /* \"StudentDiary.sol\":1654:1777  function replaceOcenka(... */\n      swap2\n      swap1\n      pop\n      jump\t// out\n        /* \"StudentDiary.sol\":545:854  function i(... */\n    tag_43:\n        /* \"StudentDiary.sol\":634:647  string memory */\n      0x60\n        /* \"StudentDiary.sol\":677:678  5 */\n      0x05\n        /* \"StudentDiary.sol\":667:673  amount */\n      dup4\n        /* \"StudentDiary.sol\":667:678  amount <= 5 */\n      gt\n      iszero\n        /* \"StudentDiary.sol\":659:695  require(amount <= 5, \"invalid numb\") */\n      tag_117\n      jumpi\n      mload(0x40)\n      0x08c379a000000000000000000000000000000000000000000000000000000000\n      dup2\n      mstore\n      0x04\n      add\n      tag_118\n      swap1\n      tag_119\n      jump\t// in\n    tag_118:\n      mload(0x40)\n      dup1\n      swap2\n      sub\n      swap1\n      revert\n    tag_117:\n        /* \"StudentDiary.sol\":726:730  Math */\n      0x04\n        /* \"StudentDiary.sol\":732:741  newOcenka */\n      dup3\n        /* \"StudentDiary.sol\":712:747  string.concat(Math, newOcenka, \" \") */\n      add(0x20, mload(0x40))\n      tag_120\n      swap3\n      swap2\n      swap1\n      tag_121\n      jump\t// in\n    tag_120:\n      mload(0x40)\n      0x20\n      dup2\n      dup4\n      sub\n      sub\n      dup2\n      mstore\n      swap1\n      0x40\n      mstore\n        /* \"StudentDiary.sol\":705:709  Math */\n      0x04\n        /* \"StudentDiary.sol\":705:747  Math = string.concat(Math, newOcenka, \" \") */\n      swap1\n      dup2\n      tag_122\n      swap2\n      swap1\n      tag_123\n      jump\t// in\n    tag_122:\n      pop\n        /* \"StudentDiary.sol\":787:800  ocenkaStudent */\n      0x02\n        /* \"StudentDiary.sol\":802:811  newOcenka */\n      dup3\n        /* \"StudentDiary.sol\":773:817  string.concat(ocenkaStudent, newOcenka, \" \") */\n      add(0x20, mload(0x40))\n      tag_124\n      swap3\n      swap2\n      swap1\n      tag_121\n      jump\t// in\n    tag_124:\n      mload(0x40)\n      0x20\n      dup2\n      dup4\n      sub\n      sub\n      dup2\n      mstore\n      swap1\n      0x40\n      mstore\n        /* \"StudentDiary.sol\":757:770  ocenkaStudent */\n      0x02\n        /* \"StudentDiary.sol\":757:817  ocenkaStudent = string.concat(ocenkaStudent, newOcenka, \" \") */\n      swap1\n      dup2\n      tag_125\n      swap2\n      swap1\n      tag_123\n      jump\t// in\n    tag_125:\n      pop\n        /* \"StudentDiary.sol\":834:847  ocenkaStudent */\n      0x02\n        /* \"StudentDiary.sol\":827:847  return ocenkaStudent */\n      dup1\n      sload\n      tag_126\n      swap1\n      tag_105\n      jump\t// in\n    tag_126:\n      dup1\n      0x1f\n      add\n      0x20\n      dup1\n      swap2\n      div\n      mul\n      0x20\n      add\n      mload(0x40)\n      swap1\n      dup2\n      add\n      0x40\n      mstore\n      dup1\n      swap3\n      swap2\n      swap1\n      dup2\n      dup2\n      mstore\n      0x20\n      add\n      dup3\n      dup1\n      sload\n      tag_127\n      swap1\n      tag_105\n      jump\t// in\n    tag_127:\n      dup1\n      iszero\n      tag_128\n      jumpi\n      dup1\n      0x1f\n      lt\n      tag_129\n      jumpi\n      0x0100\n      dup1\n      dup4\n      sload\n      div\n      mul\n      dup4\n      mstore\n      swap2\n      0x20\n      add\n      swap2\n      jump(tag_128)\n    tag_129:\n      dup3\n      add\n      swap2\n      swap1\n      0x00\n      mstore\n      keccak256(0x00, 0x20)\n      swap1\n    tag_130:\n      dup2\n      sload\n      dup2\n      mstore\n      swap1\n      0x01\n      add\n      swap1\n      0x20\n      add\n      dup1\n      dup4\n      gt\n      tag_130\n      jumpi\n      dup3\n      swap1\n      sub\n      0x1f\n      and\n      dup3\n      add\n      swap2\n    tag_128:\n      pop\n      pop\n      pop\n      pop\n      pop\n      swap1\n      pop\n        /* \"StudentDiary.sol\":545:854  function i(... */\n      swap3\n      swap2\n      pop\n      pop\n      jump\t// out\n        /* \"StudentDiary.sol\":1861:1936  function swapStatusInactive() public {... */\n    tag_46:\n        /* \"StudentDiary.sol\":1924:1929  false */\n      0x00\n        /* \"StudentDiary.sol\":1908:1921  statusStudent */\n      0x09\n      0x00\n        /* \"StudentDiary.sol\":1908:1929  statusStudent = false */\n      0x0100\n      exp\n      dup2\n      sload\n      dup2\n      0xff\n      mul\n      not\n      and\n      swap1\n      dup4\n      iszero\n      iszero\n      mul\n      or\n      swap1\n      sstore\n      pop\n        /* \"StudentDiary.sol\":1861:1936  function swapStatusInactive() public {... */\n      jump\t// out\n        /* \"StudentDiary.sol\":1124:1383  function setOcenkaRus(... */\n    tag_49:\n        /* \"StudentDiary.sol\":1203:1216  string memory */\n      0x60\n        /* \"StudentDiary.sol\":1252:1259  Russian */\n      0x05\n        /* \"StudentDiary.sol\":1261:1270  newOcenka */\n      dup3\n        /* \"StudentDiary.sol\":1238:1276  string.concat(Russian, newOcenka, \" \") */\n      add(0x20, mload(0x40))\n      tag_133\n      swap3\n      swap2\n      swap1\n      tag_121\n      jump\t// in\n    tag_133:\n      mload(0x40)\n      0x20\n      dup2\n      dup4\n      sub\n      sub\n      dup2\n      mstore\n      swap1\n      0x40\n      mstore\n        /* \"StudentDiary.sol\":1228:1235  Russian */\n      0x05\n        /* \"StudentDiary.sol\":1228:1276  Russian = string.concat(Russian, newOcenka, \" \") */\n      swap1\n      dup2\n      tag_134\n      swap2\n      swap1\n      tag_123\n      jump\t// in\n    tag_134:\n      pop\n        /* \"StudentDiary.sol\":1316:1329  ocenkaStudent */\n      0x02\n        /* \"StudentDiary.sol\":1331:1340  newOcenka */\n      dup3\n        /* \"StudentDiary.sol\":1302:1346  string.concat(ocenkaStudent, newOcenka, \" \") */\n      add(0x20, mload(0x40))\n      tag_135\n      swap3\n      swap2\n      swap1\n      tag_121\n      jump\t// in\n    tag_135:\n      mload(0x40)\n      0x20\n      dup2\n      dup4\n      sub\n      sub\n      dup2\n      mstore\n      swap1\n      0x40\n      mstore\n        /* \"StudentDiary.sol\":1286:1299  ocenkaStudent */\n      0x02\n        /* \"StudentDiary.sol\":1286:1346  ocenkaStudent = string.concat(ocenkaStudent, newOcenka, \" \") */\n      swap1\n      dup2\n      tag_136\n      swap2\n      swap1\n      tag_123\n      jump\t// in\n    tag_136:\n      pop\n        /* \"StudentDiary.sol\":1363:1376  ocenkaStudent */\n      0x02\n        /* \"StudentDiary.sol\":1356:1376  return ocenkaStudent */\n      dup1\n      sload\n      tag_137\n      swap1\n      tag_105\n      jump\t// in\n    tag_137:\n      dup1\n      0x1f\n      add\n      0x20\n      dup1\n      swap2\n      div\n      mul\n      0x20\n      add\n      mload(0x40)\n      swap1\n      dup2\n      add\n      0x40\n      mstore\n      dup1\n      swap3\n      swap2\n      swap1\n      dup2\n      dup2\n      mstore\n      0x20\n      add\n      dup3\n      dup1\n      sload\n      tag_138\n      swap1\n      tag_105\n      jump\t// in\n    tag_138:\n      dup1\n      iszero\n      tag_139\n      jumpi\n      dup1\n      0x1f\n      lt\n      tag_140\n      jumpi\n      0x0100\n      dup1\n      dup4\n      sload\n      div\n      mul\n      dup4\n      mstore\n      swap2\n      0x20\n      add\n      swap2\n      jump(tag_139)\n    tag_140:\n      dup3\n      add\n      swap2\n      swap1\n      0x00\n      mstore\n      keccak256(0x00, 0x20)\n      swap1\n    tag_141:\n      dup2\n      sload\n      dup2\n      mstore\n      swap1\n      0x01\n      add\n      swap1\n      0x20\n      add\n      dup1\n      dup4\n      gt\n      tag_141\n      jumpi\n      dup3\n      swap1\n      sub\n      0x1f\n      and\n      dup3\n      add\n      swap2\n    tag_139:\n      pop\n      pop\n      pop\n      pop\n      pop\n      swap1\n      pop\n        /* \"StudentDiary.sol\":1124:1383  function setOcenkaRus(... */\n      swap2\n      swap1\n      pop\n      jump\t// out\n        /* \"StudentDiary.sol\":86:108  address public student */\n    tag_52:\n      0x00\n      0x00\n      swap1\n      sload\n      swap1\n      0x0100\n      exp\n      swap1\n      div\n      0xffffffffffffffffffffffffffffffffffffffff\n      and\n      dup2\n      jump\t// out\n        /* \"StudentDiary.sol\":419:458  mapping(string => int) public egoLesson */\n    tag_57:\n      0x0b\n      dup2\n      dup1\n      mload\n      0x20\n      dup2\n      add\n      dup3\n      add\n      dup1\n      mload\n      dup5\n      dup3\n      mstore\n      0x20\n      dup4\n      add\n      0x20\n      dup6\n      add\n      keccak256\n      dup2\n      dup4\n      mstore\n      dup1\n      swap6\n      pop\n      pop\n      pop\n      pop\n      pop\n      pop\n      0x00\n      swap2\n      pop\n      swap1\n      pop\n      sload\n      dup2\n      jump\t// out\n        /* \"StudentDiary.sol\":188:234  mapping(address => uint) public addressStudent */\n    tag_62:\n      mstore(0x20, 0x03)\n      dup1\n      0x00\n      mstore\n      keccak256(0x00, 0x40)\n      0x00\n      swap2\n      pop\n      swap1\n      pop\n      sload\n      dup2\n      jump\t// out\n        /* \"StudentDiary.sol\":864:1118  function setOcenkaMath(... */\n    tag_67:\n        /* \"StudentDiary.sol\":944:957  string memory */\n      0x60\n        /* \"StudentDiary.sol\":990:994  Math */\n      0x04\n        /* \"StudentDiary.sol\":996:1005  newOcenka */\n      dup3\n        /* \"StudentDiary.sol\":976:1011  string.concat(Math, newOcenka, \" \") */\n      add(0x20, mload(0x40))\n      tag_143\n      swap3\n      swap2\n      swap1\n      tag_121\n      jump\t// in\n    tag_143:\n      mload(0x40)\n      0x20\n      dup2\n      dup4\n      sub\n      sub\n      dup2\n      mstore\n      swap1\n      0x40\n      mstore\n        /* \"StudentDiary.sol\":969:973  Math */\n      0x04\n        /* \"StudentDiary.sol\":969:1011  Math = string.concat(Math, newOcenka, \" \") */\n      swap1\n      dup2\n      tag_144\n      swap2\n      swap1\n      tag_123\n      jump\t// in\n    tag_144:\n      pop\n        /* \"StudentDiary.sol\":1051:1064  ocenkaStudent */\n      0x02\n        /* \"StudentDiary.sol\":1066:1075  newOcenka */\n      dup3\n        /* \"StudentDiary.sol\":1037:1081  string.concat(ocenkaStudent, newOcenka, \" \") */\n      add(0x20, mload(0x40))\n      tag_145\n      swap3\n      swap2\n      swap1\n      tag_121\n      jump\t// in\n    tag_145:\n      mload(0x40)\n      0x20\n      dup2\n      dup4\n      sub\n      sub\n      dup2\n      mstore\n      swap1\n      0x40\n      mstore\n        /* \"StudentDiary.sol\":1021:1034  ocenkaStudent */\n      0x02\n        /* \"StudentDiary.sol\":1021:1081  ocenkaStudent = string.concat(ocenkaStudent, newOcenka, \" \") */\n      swap1\n      dup2\n      tag_146\n      swap2\n      swap1\n      tag_123\n      jump\t// in\n    tag_146:\n      pop\n        /* \"StudentDiary.sol\":1098:1111  ocenkaStudent */\n      0x02\n        /* \"StudentDiary.sol\":1091:1111  return ocenkaStudent */\n      dup1\n      sload\n      tag_147\n      swap1\n      tag_105\n      jump\t// in\n    tag_147:\n      dup1\n      0x1f\n      add\n      0x20\n      dup1\n      swap2\n      div\n      mul\n      0x20\n      add\n      mload(0x40)\n      swap1\n      dup2\n      add\n      0x40\n      mstore\n      dup1\n      swap3\n      swap2\n      swap1\n      dup2\n      dup2\n      mstore\n      0x20\n      add\n      dup3\n      dup1\n      sload\n      tag_148\n      swap1\n      tag_105\n      jump\t// in\n    tag_148:\n      dup1\n      iszero\n      tag_149\n      jumpi\n      dup1\n      0x1f\n      lt\n      tag_150\n      jumpi\n      0x0100\n      dup1\n      dup4\n      sload\n      div\n      mul\n      dup4\n      mstore\n      swap2\n      0x20\n      add\n      swap2\n      jump(tag_149)\n    tag_150:\n      dup3\n      add\n      swap2\n      swap1\n      0x00\n      mstore\n      keccak256(0x00, 0x20)\n      swap1\n    tag_151:\n      dup2\n      sload\n      dup2\n      mstore\n      swap1\n      0x01\n      add\n      swap1\n      0x20\n      add\n      dup1\n      dup4\n      gt\n      tag_151\n      jumpi\n      dup3\n      swap1\n      sub\n      0x1f\n      and\n      dup3\n      add\n      swap2\n    tag_149:\n      pop\n      pop\n      pop\n      pop\n      pop\n      swap1\n      pop\n        /* \"StudentDiary.sol\":864:1118  function setOcenkaMath(... */\n      swap2\n      swap1\n      pop\n      jump\t// out\n        /* \"StudentDiary.sol\":362:387  bool public statusStudent */\n    tag_70:\n      0x09\n      0x00\n      swap1\n      sload\n      swap1\n      0x0100\n      exp\n      swap1\n      div\n      0xff\n      and\n      dup2\n      jump\t// out\n        /* \"StudentDiary.sol\":318:335  int public number */\n    tag_74:\n      sload(0x07)\n      dup2\n      jump\t// out\n        /* \"StudentDiary.sol\":2002:2122  function umnozhenie(int newNumber) external returns (int) {... */\n    tag_79:\n        /* \"StudentDiary.sol\":2055:2058  int */\n      0x00\n        /* \"StudentDiary.sol\":2091:2092  2 */\n      0x02\n        /* \"StudentDiary.sol\":2079:2088  newNumber */\n      dup3\n        /* \"StudentDiary.sol\":2079:2092  newNumber * 2 */\n      tag_153\n      swap2\n      swap1\n      tag_154\n      jump\t// in\n    tag_153:\n        /* \"StudentDiary.sol\":2070:2076  number */\n      0x07\n        /* \"StudentDiary.sol\":2070:2092  number = newNumber * 2 */\n      dup2\n      swap1\n      sstore\n      pop\n        /* \"StudentDiary.sol\":2109:2115  number */\n      sload(0x07)\n        /* \"StudentDiary.sol\":2102:2115  return number */\n      swap1\n      pop\n        /* \"StudentDiary.sol\":2002:2122  function umnozhenie(int newNumber) external returns (int) {... */\n      swap2\n      swap1\n      pop\n      jump\t// out\n        /* \"StudentDiary.sol\":291:312  string public English */\n    tag_82:\n      0x06\n      dup1\n      sload\n      tag_155\n      swap1\n      tag_105\n      jump\t// in\n    tag_155:\n      dup1\n      0x1f\n      add\n      0x20\n      dup1\n      swap2\n      div\n      mul\n      0x20\n      add\n      mload(0x40)\n      swap1\n      dup2\n      add\n      0x40\n      mstore\n      dup1\n      swap3\n      swap2\n      swap1\n      dup2\n      dup2\n      mstore\n      0x20\n      add\n      dup3\n      dup1\n      sload\n      tag_156\n      swap1\n      tag_105\n      jump\t// in\n    tag_156:\n      dup1\n      iszero\n      tag_157\n      jumpi\n      dup1\n      0x1f\n      lt\n      tag_158\n      jumpi\n      0x0100\n      dup1\n      dup4\n      sload\n      div\n      mul\n      dup4\n      mstore\n      swap2\n      0x20\n      add\n      swap2\n      jump(tag_157)\n    tag_158:\n      dup3\n      add\n      swap2\n      swap1\n      0x00\n      mstore\n      keccak256(0x00, 0x20)\n      swap1\n    tag_159:\n      dup2\n      sload\n      dup2\n      mstore\n      swap1\n      0x01\n      add\n      swap1\n      0x20\n      add\n      dup1\n      dup4\n      gt\n      tag_159\n      jumpi\n      dup3\n      swap1\n      sub\n      0x1f\n      and\n      dup3\n      add\n      swap2\n    tag_157:\n      pop\n      pop\n      pop\n      pop\n      pop\n      dup2\n      jump\t// out\n        /* \"StudentDiary.sol\":114:149  string public nameStudent = \"Misha\" */\n    tag_85:\n      0x01\n      dup1\n      sload\n      tag_160\n      swap1\n      tag_105\n      jump\t// in\n    tag_160:\n      dup1\n      0x1f\n      add\n      0x20\n      dup1\n      swap2\n      div\n      mul\n      0x20\n      add\n      mload(0x40)\n      swap1\n      dup2\n      add\n      0x40\n      mstore\n      dup1\n      swap3\n      swap2\n      swap1\n      dup2\n      dup2\n      mstore\n      0x20\n      add\n      dup3\n      dup1\n      sload\n      tag_161\n      swap1\n      tag_105\n      jump\t// in\n    tag_161:\n      dup1\n      iszero\n      tag_162\n      jumpi\n      dup1\n      0x1f\n      lt\n      tag_163\n      jumpi\n      0x0100\n      dup1\n      dup4\n      sload\n      div\n      mul\n      dup4\n      mstore\n      swap2\n      0x20\n      add\n      swap2\n      jump(tag_162)\n    tag_163:\n      dup3\n      add\n      swap2\n      swap1\n      0x00\n      mstore\n      keccak256(0x00, 0x20)\n      swap1\n    tag_164:\n      dup2\n      sload\n      dup2\n      mstore\n      swap1\n      0x01\n      add\n      swap1\n      0x20\n      add\n      dup1\n      dup4\n      gt\n      tag_164\n      jumpi\n      dup3\n      swap1\n      sub\n      0x1f\n      and\n      dup3\n      add\n      swap2\n    tag_162:\n      pop\n      pop\n      pop\n      pop\n      pop\n      dup2\n      jump\t// out\n        /* \"StudentDiary.sol\":155:182  string public ocenkaStudent */\n    tag_88:\n      0x02\n      dup1\n      sload\n      tag_165\n      swap1\n      tag_105\n      jump\t// in\n    tag_165:\n      dup1\n      0x1f\n      add\n      0x20\n      dup1\n      swap2\n      div\n      mul\n      0x20\n      add\n      mload(0x40)\n      swap1\n      dup2\n      add\n      0x40\n      mstore\n      dup1\n      swap3\n      swap2\n      swap1\n      dup2\n      dup2\n      mstore\n      0x20\n      add\n      dup3\n      dup1\n      sload\n      tag_166\n      swap1\n      tag_105\n      jump\t// in\n    tag_166:\n      dup1\n      iszero\n      tag_167\n      jumpi\n      dup1\n      0x1f\n      lt\n      tag_168\n      jumpi\n      0x0100\n      dup1\n      dup4\n      sload\n      div\n      mul\n      dup4\n      mstore\n      swap2\n      0x20\n      add\n      swap2\n      jump(tag_167)\n    tag_168:\n      dup3\n      add\n      swap2\n      swap1\n      0x00\n      mstore\n      keccak256(0x00, 0x20)\n      swap1\n    tag_169:\n      dup2\n      sload\n      dup2\n      mstore\n      swap1\n      0x01\n      add\n      swap1\n      0x20\n      add\n      dup1\n      dup4\n      gt\n      tag_169\n      jumpi\n      dup3\n      swap1\n      sub\n      0x1f\n      and\n      dup3\n      add\n      swap2\n    tag_167:\n      pop\n      pop\n      pop\n      pop\n      pop\n      dup2\n      jump\t// out\n        /* \"StudentDiary.sol\":1942:1996  function completeUrok() public {... */\n    tag_91:\n        /* \"StudentDiary.sol\":1983:1987  urok */\n      0x08\n      0x00\n        /* \"StudentDiary.sol\":1983:1989  urok++ */\n      dup2\n      sload\n      dup1\n      swap3\n      swap2\n      swap1\n      tag_171\n      swap1\n      tag_172\n      jump\t// in\n    tag_171:\n      swap2\n      swap1\n      pop\n      sstore\n      pop\n        /* \"StudentDiary.sol\":1942:1996  function completeUrok() public {... */\n      jump\t// out\n        /* \"StudentDiary.sol\":1783:1855  function swapStatusActive() public {... */\n    tag_93:\n        /* \"StudentDiary.sol\":1844:1848  true */\n      0x01\n        /* \"StudentDiary.sol\":1828:1841  statusStudent */\n      0x09\n      0x00\n        /* \"StudentDiary.sol\":1828:1848  statusStudent = true */\n      0x0100\n      exp\n      dup2\n      sload\n      dup2\n      0xff\n      mul\n      not\n      and\n      swap1\n      dup4\n      iszero\n      iszero\n      mul\n      or\n      swap1\n      sstore\n      pop\n        /* \"StudentDiary.sol\":1783:1855  function swapStatusActive() public {... */\n      jump\t// out\n        /* \"StudentDiary.sol\":393:413  string public lesson */\n    tag_95:\n      0x0a\n      dup1\n      sload\n      tag_174\n      swap1\n      tag_105\n      jump\t// in\n    tag_174:\n      dup1\n      0x1f\n      add\n      0x20\n      dup1\n      swap2\n      div\n      mul\n      0x20\n      add\n      mload(0x40)\n      swap1\n      dup2\n      add\n      0x40\n      mstore\n      dup1\n      swap3\n      swap2\n      swap1\n      dup2\n      dup2\n      mstore\n      0x20\n      add\n      dup3\n      dup1\n      sload\n      tag_175\n      swap1\n      tag_105\n      jump\t// in\n    tag_175:\n      dup1\n      iszero\n      tag_176\n      jumpi\n      dup1\n      0x1f\n      lt\n      tag_177\n      jumpi\n      0x0100\n      dup1\n      dup4\n      sload\n      div\n      mul\n      dup4\n      mstore\n      swap2\n      0x20\n      add\n      swap2\n      jump(tag_176)\n    tag_177:\n      dup3\n      add\n      swap2\n      swap1\n      0x00\n      mstore\n      keccak256(0x00, 0x20)\n      swap1\n    tag_178:\n      dup2\n      sload\n      dup2\n      mstore\n      swap1\n      0x01\n      add\n      swap1\n      0x20\n      add\n      dup1\n      dup4\n      gt\n      tag_178\n      jumpi\n      dup3\n      swap1\n      sub\n      0x1f\n      and\n      dup3\n      add\n      swap2\n    tag_176:\n      pop\n      pop\n      pop\n      pop\n      pop\n      dup2\n      jump\t// out\n        /* \"StudentDiary.sol\":1389:1648  function setOcenkaEng(... */\n    tag_99:\n        /* \"StudentDiary.sol\":1468:1481  string memory */\n      0x60\n        /* \"StudentDiary.sol\":1517:1524  English */\n      0x06\n        /* \"StudentDiary.sol\":1526:1535  newOcenka */\n      dup3\n        /* \"StudentDiary.sol\":1503:1541  string.concat(English, newOcenka, \" \") */\n      add(0x20, mload(0x40))\n      tag_180\n      swap3\n      swap2\n      swap1\n      tag_121\n      jump\t// in\n    tag_180:\n      mload(0x40)\n      0x20\n      dup2\n      dup4\n      sub\n      sub\n      dup2\n      mstore\n      swap1\n      0x40\n      mstore\n        /* \"StudentDiary.sol\":1493:1500  English */\n      0x06\n        /* \"StudentDiary.sol\":1493:1541  English = string.concat(English, newOcenka, \" \") */\n      swap1\n      dup2\n      tag_181\n      swap2\n      swap1\n      tag_123\n      jump\t// in\n    tag_181:\n      pop\n        /* \"StudentDiary.sol\":1581:1594  ocenkaStudent */\n      0x02\n        /* \"StudentDiary.sol\":1596:1605  newOcenka */\n      dup3\n        /* \"StudentDiary.sol\":1567:1611  string.concat(ocenkaStudent, newOcenka, \" \") */\n      add(0x20, mload(0x40))\n      tag_182\n      swap3\n      swap2\n      swap1\n      tag_121\n      jump\t// in\n    tag_182:\n      mload(0x40)\n      0x20\n      dup2\n      dup4\n      sub\n      sub\n      dup2\n      mstore\n      swap1\n      0x40\n      mstore\n        /* \"StudentDiary.sol\":1551:1564  ocenkaStudent */\n      0x02\n        /* \"StudentDiary.sol\":1551:1611  ocenkaStudent = string.concat(ocenkaStudent, newOcenka, \" \") */\n      swap1\n      dup2\n      tag_183\n      swap2\n      swap1\n      tag_123\n      jump\t// in\n    tag_183:\n      pop\n        /* \"StudentDiary.sol\":1628:1641  ocenkaStudent */\n      0x02\n        /* \"StudentDiary.sol\":1621:1641  return ocenkaStudent */\n      dup1\n      sload\n      tag_184\n      swap1\n      tag_105\n      jump\t// in\n    tag_184:\n      dup1\n      0x1f\n      add\n      0x20\n      dup1\n      swap2\n      div\n      mul\n      0x20\n      add\n      mload(0x40)\n      swap1\n      dup2\n      add\n      0x40\n      mstore\n      dup1\n      swap3\n      swap2\n      swap1\n      dup2\n      dup2\n      mstore\n      0x20\n      add\n      dup3\n      dup1\n      sload\n      tag_185\n      swap1\n      tag_105\n      jump\t// in\n    tag_185:\n      dup1\n      iszero\n      tag_186\n      jumpi\n      dup1\n      0x1f\n      lt\n      tag_187\n      jumpi\n      0x0100\n      dup1\n      dup4\n      sload\n      div\n      mul\n      dup4\n      mstore\n      swap2\n      0x20\n      add\n      swap2\n      jump(tag_186)\n    tag_187:\n      dup3\n      add\n      swap2\n      swap1\n      0x00\n      mstore\n      keccak256(0x00, 0x20)\n      swap1\n    tag_188:\n      dup2\n      sload\n      dup2\n      mstore\n      swap1\n      0x01\n      add\n      swap1\n      0x20\n      add\n      dup1\n      dup4\n      gt\n      tag_188\n      jumpi\n      dup3\n      swap1\n      sub\n      0x1f\n      and\n      dup3\n      add\n      swap2\n    tag_186:\n      pop\n      pop\n      pop\n      pop\n      pop\n      swap1\n      pop\n        /* \"StudentDiary.sol\":1389:1648  function setOcenkaEng(... */\n      swap2\n      swap1\n      pop\n      jump\t// out\n        /* \"StudentDiary.sol\":264:285  string public Russian */\n    tag_102:\n      0x05\n      dup1\n      sload\n      tag_189\n      swap1\n      tag_105\n      jump\t// in\n    tag_189:\n      dup1\n      0x1f\n      add\n      0x20\n      dup1\n      swap2\n      div\n      mul\n      0x20\n      add\n      mload(0x40)\n      swap1\n      dup2\n      add\n      0x40\n      mstore\n      dup1\n      swap3\n      swap2\n      swap1\n      dup2\n      dup2\n      mstore\n      0x20\n      add\n      dup3\n      dup1\n      sload\n      tag_190\n      swap1\n      tag_105\n      jump\t// in\n    tag_190:\n      dup1\n      iszero\n      tag_191\n      jumpi\n      dup1\n      0x1f\n      lt\n      tag_192\n      jumpi\n      0x0100\n      dup1\n      dup4\n      sload\n      div\n      mul\n      dup4\n      mstore\n      swap2\n      0x20\n      add\n      swap2\n      jump(tag_191)\n    tag_192:\n      dup3\n      add\n      swap2\n      swap1\n      0x00\n      mstore\n      keccak256(0x00, 0x20)\n      swap1\n    tag_193:\n      dup2\n      sload\n      dup2\n      mstore\n      swap1\n      0x01\n      add\n      swap1\n      0x20\n      add\n      dup1\n      dup4\n      gt\n      tag_193\n      jumpi\n      dup3\n      swap1\n      sub\n      0x1f\n      and\n      dup3\n      add\n      swap2\n    tag_191:\n      pop\n      pop\n      pop\n      pop\n      pop\n      dup2\n      jump\t// out\n        /* \"#utility.yul\":7:106   */\n    tag_194:\n        /* \"#utility.yul\":59:65   */\n      0x00\n        /* \"#utility.yul\":93:98   */\n      dup2\n        /* \"#utility.yul\":87:99   */\n      mload\n        /* \"#utility.yul\":77:99   */\n      swap1\n      pop\n        /* \"#utility.yul\":7:106   */\n      swap2\n      swap1\n      pop\n      jump\t// out\n        /* \"#utility.yul\":112:281   */\n    tag_195:\n        /* \"#utility.yul\":196:207   */\n      0x00\n        /* \"#utility.yul\":230:236   */\n      dup3\n        /* \"#utility.yul\":225:228   */\n      dup3\n        /* \"#utility.yul\":218:237   */\n      mstore\n        /* \"#utility.yul\":270:274   */\n      0x20\n        /* \"#utility.yul\":265:268   */\n      dup3\n        /* \"#utility.yul\":261:275   */\n      add\n        /* \"#utility.yul\":246:275   */\n      swap1\n      pop\n        /* \"#utility.yul\":112:281   */\n      swap3\n      swap2\n      pop\n      pop\n      jump\t// out\n        /* \"#utility.yul\":287:426   */\n    tag_196:\n        /* \"#utility.yul\":376:382   */\n      dup3\n        /* \"#utility.yul\":371:374   */\n      dup2\n        /* \"#utility.yul\":366:369   */\n      dup4\n        /* \"#utility.yul\":360:383   */\n      mcopy\n        /* \"#utility.yul\":417:418   */\n      0x00\n        /* \"#utility.yul\":408:414   */\n      dup4\n        /* \"#utility.yul\":403:406   */\n      dup4\n        /* \"#utility.yul\":399:415   */\n      add\n        /* \"#utility.yul\":392:419   */\n      mstore\n        /* \"#utility.yul\":287:426   */\n      pop\n      pop\n      pop\n      jump\t// out\n        /* \"#utility.yul\":432:534   */\n    tag_197:\n        /* \"#utility.yul\":473:479   */\n      0x00\n        /* \"#utility.yul\":524:526   */\n      0x1f\n        /* \"#utility.yul\":520:527   */\n      not\n        /* \"#utility.yul\":515:517   */\n      0x1f\n        /* \"#utility.yul\":508:513   */\n      dup4\n        /* \"#utility.yul\":504:518   */\n      add\n        /* \"#utility.yul\":500:528   */\n      and\n        /* \"#utility.yul\":490:528   */\n      swap1\n      pop\n        /* \"#utility.yul\":432:534   */\n      swap2\n      swap1\n      pop\n      jump\t// out\n        /* \"#utility.yul\":540:917   */\n    tag_198:\n        /* \"#utility.yul\":628:631   */\n      0x00\n        /* \"#utility.yul\":656:695   */\n      tag_255\n        /* \"#utility.yul\":689:694   */\n      dup3\n        /* \"#utility.yul\":656:695   */\n      tag_194\n      jump\t// in\n    tag_255:\n        /* \"#utility.yul\":711:782   */\n      tag_256\n        /* \"#utility.yul\":775:781   */\n      dup2\n        /* \"#utility.yul\":770:773   */\n      dup6\n        /* \"#utility.yul\":711:782   */\n      tag_195\n      jump\t// in\n    tag_256:\n        /* \"#utility.yul\":704:782   */\n      swap4\n      pop\n        /* \"#utility.yul\":791:856   */\n      tag_257\n        /* \"#utility.yul\":849:855   */\n      dup2\n        /* \"#utility.yul\":844:847   */\n      dup6\n        /* \"#utility.yul\":837:841   */\n      0x20\n        /* \"#utility.yul\":830:835   */\n      dup7\n        /* \"#utility.yul\":826:842   */\n      add\n        /* \"#utility.yul\":791:856   */\n      tag_196\n      jump\t// in\n    tag_257:\n        /* \"#utility.yul\":881:910   */\n      tag_258\n        /* \"#utility.yul\":903:909   */\n      dup2\n        /* \"#utility.yul\":881:910   */\n      tag_197\n      jump\t// in\n    tag_258:\n        /* \"#utility.yul\":876:879   */\n      dup5\n        /* \"#utility.yul\":872:911   */\n      add\n        /* \"#utility.yul\":865:911   */\n      swap2\n      pop\n        /* \"#utility.yul\":632:917   */\n      pop\n        /* \"#utility.yul\":540:917   */\n      swap3\n      swap2\n      pop\n      pop\n      jump\t// out\n        /* \"#utility.yul\":923:1236   */\n    tag_30:\n        /* \"#utility.yul\":1036:1040   */\n      0x00\n        /* \"#utility.yul\":1074:1076   */\n      0x20\n        /* \"#utility.yul\":1063:1072   */\n      dup3\n        /* \"#utility.yul\":1059:1077   */\n      add\n        /* \"#utility.yul\":1051:1077   */\n      swap1\n      pop\n        /* \"#utility.yul\":1123:1132   */\n      dup2\n        /* \"#utility.yul\":1117:1121   */\n      dup2\n        /* \"#utility.yul\":1113:1133   */\n      sub\n        /* \"#utility.yul\":1109:1110   */\n      0x00\n        /* \"#utility.yul\":1098:1107   */\n      dup4\n        /* \"#utility.yul\":1094:1111   */\n      add\n        /* \"#utility.yul\":1087:1134   */\n      mstore\n        /* \"#utility.yul\":1151:1229   */\n      tag_260\n        /* \"#utility.yul\":1224:1228   */\n      dup2\n        /* \"#utility.yul\":1215:1221   */\n      dup5\n        /* \"#utility.yul\":1151:1229   */\n      tag_198\n      jump\t// in\n    tag_260:\n        /* \"#utility.yul\":1143:1229   */\n      swap1\n      pop\n        /* \"#utility.yul\":923:1236   */\n      swap3\n      swap2\n      pop\n      pop\n      jump\t// out\n        /* \"#utility.yul\":1242:1318   */\n    tag_199:\n        /* \"#utility.yul\":1278:1285   */\n      0x00\n        /* \"#utility.yul\":1307:1312   */\n      dup2\n        /* \"#utility.yul\":1296:1312   */\n      swap1\n      pop\n        /* \"#utility.yul\":1242:1318   */\n      swap2\n      swap1\n      pop\n      jump\t// out\n        /* \"#utility.yul\":1324:1439   */\n    tag_200:\n        /* \"#utility.yul\":1409:1432   */\n      tag_263\n        /* \"#utility.yul\":1426:1431   */\n      dup2\n        /* \"#utility.yul\":1409:1432   */\n      tag_199\n      jump\t// in\n    tag_263:\n        /* \"#utility.yul\":1404:1407   */\n      dup3\n        /* \"#utility.yul\":1397:1433   */\n      mstore\n        /* \"#utility.yul\":1324:1439   */\n      pop\n      pop\n      jump\t// out\n        /* \"#utility.yul\":1445:1663   */\n    tag_34:\n        /* \"#utility.yul\":1536:1540   */\n      0x00\n        /* \"#utility.yul\":1574:1576   */\n      0x20\n        /* \"#utility.yul\":1563:1572   */\n      dup3\n        /* \"#utility.yul\":1559:1577   */\n      add\n        /* \"#utility.yul\":1551:1577   */\n      swap1\n      pop\n        /* \"#utility.yul\":1587:1656   */\n      tag_265\n        /* \"#utility.yul\":1653:1654   */\n      0x00\n        /* \"#utility.yul\":1642:1651   */\n      dup4\n        /* \"#utility.yul\":1638:1655   */\n      add\n        /* \"#utility.yul\":1629:1635   */\n      dup5\n        /* \"#utility.yul\":1587:1656   */\n      tag_200\n      jump\t// in\n    tag_265:\n        /* \"#utility.yul\":1445:1663   */\n      swap3\n      swap2\n      pop\n      pop\n      jump\t// out\n        /* \"#utility.yul\":1669:1744   */\n    tag_201:\n        /* \"#utility.yul\":1702:1708   */\n      0x00\n        /* \"#utility.yul\":1735:1737   */\n      0x40\n        /* \"#utility.yul\":1729:1738   */\n      mload\n        /* \"#utility.yul\":1719:1738   */\n      swap1\n      pop\n        /* \"#utility.yul\":1669:1744   */\n      swap1\n      jump\t// out\n        /* \"#utility.yul\":1750:1867   */\n    tag_202:\n        /* \"#utility.yul\":1859:1860   */\n      0x00\n        /* \"#utility.yul\":1856:1857   */\n      0x00\n        /* \"#utility.yul\":1849:1861   */\n      revert\n        /* \"#utility.yul\":1873:1990   */\n    tag_203:\n        /* \"#utility.yul\":1982:1983   */\n      0x00\n        /* \"#utility.yul\":1979:1980   */\n      0x00\n        /* \"#utility.yul\":1972:1984   */\n      revert\n        /* \"#utility.yul\":1996:2113   */\n    tag_204:\n        /* \"#utility.yul\":2105:2106   */\n      0x00\n        /* \"#utility.yul\":2102:2103   */\n      0x00\n        /* \"#utility.yul\":2095:2107   */\n      revert\n        /* \"#utility.yul\":2119:2236   */\n    tag_205:\n        /* \"#utility.yul\":2228:2229   */\n      0x00\n        /* \"#utility.yul\":2225:2226   */\n      0x00\n        /* \"#utility.yul\":2218:2230   */\n      revert\n        /* \"#utility.yul\":2242:2422   */\n    tag_206:\n        /* \"#utility.yul\":2290:2367   */\n      0x4e487b7100000000000000000000000000000000000000000000000000000000\n        /* \"#utility.yul\":2287:2288   */\n      0x00\n        /* \"#utility.yul\":2280:2368   */\n      mstore\n        /* \"#utility.yul\":2387:2391   */\n      0x41\n        /* \"#utility.yul\":2384:2385   */\n      0x04\n        /* \"#utility.yul\":2377:2392   */\n      mstore\n        /* \"#utility.yul\":2411:2415   */\n      0x24\n        /* \"#utility.yul\":2408:2409   */\n      0x00\n        /* \"#utility.yul\":2401:2416   */\n      revert\n        /* \"#utility.yul\":2428:2709   */\n    tag_207:\n        /* \"#utility.yul\":2511:2538   */\n      tag_273\n        /* \"#utility.yul\":2533:2537   */\n      dup3\n        /* \"#utility.yul\":2511:2538   */\n      tag_197\n      jump\t// in\n    tag_273:\n        /* \"#utility.yul\":2503:2509   */\n      dup2\n        /* \"#utility.yul\":2499:2539   */\n      add\n        /* \"#utility.yul\":2641:2647   */\n      dup2\n        /* \"#utility.yul\":2629:2639   */\n      dup2\n        /* \"#utility.yul\":2626:2648   */\n      lt\n        /* \"#utility.yul\":2605:2623   */\n      0xffffffffffffffff\n        /* \"#utility.yul\":2593:2603   */\n      dup3\n        /* \"#utility.yul\":2590:2624   */\n      gt\n        /* \"#utility.yul\":2587:2649   */\n      or\n        /* \"#utility.yul\":2584:2672   */\n      iszero\n      tag_274\n      jumpi\n        /* \"#utility.yul\":2652:2670   */\n      tag_275\n      tag_206\n      jump\t// in\n    tag_275:\n        /* \"#utility.yul\":2584:2672   */\n    tag_274:\n        /* \"#utility.yul\":2692:2702   */\n      dup1\n        /* \"#utility.yul\":2688:2690   */\n      0x40\n        /* \"#utility.yul\":2681:2703   */\n      mstore\n        /* \"#utility.yul\":2471:2709   */\n      pop\n        /* \"#utility.yul\":2428:2709   */\n      pop\n      pop\n      jump\t// out\n        /* \"#utility.yul\":2715:2844   */\n    tag_208:\n        /* \"#utility.yul\":2749:2755   */\n      0x00\n        /* \"#utility.yul\":2776:2796   */\n      tag_277\n      tag_201\n      jump\t// in\n    tag_277:\n        /* \"#utility.yul\":2766:2796   */\n      swap1\n      pop\n        /* \"#utility.yul\":2805:2838   */\n      tag_278\n        /* \"#utility.yul\":2833:2837   */\n      dup3\n        /* \"#utility.yul\":2825:2831   */\n      dup3\n        /* \"#utility.yul\":2805:2838   */\n      tag_207\n      jump\t// in\n    tag_278:\n        /* \"#utility.yul\":2715:2844   */\n      swap2\n      swap1\n      pop\n      jump\t// out\n        /* \"#utility.yul\":2850:3158   */\n    tag_209:\n        /* \"#utility.yul\":2912:2916   */\n      0x00\n        /* \"#utility.yul\":3002:3020   */\n      0xffffffffffffffff\n        /* \"#utility.yul\":2994:3000   */\n      dup3\n        /* \"#utility.yul\":2991:3021   */\n      gt\n        /* \"#utility.yul\":2988:3044   */\n      iszero\n      tag_280\n      jumpi\n        /* \"#utility.yul\":3024:3042   */\n      tag_281\n      tag_206\n      jump\t// in\n    tag_281:\n        /* \"#utility.yul\":2988:3044   */\n    tag_280:\n        /* \"#utility.yul\":3062:3091   */\n      tag_282\n        /* \"#utility.yul\":3084:3090   */\n      dup3\n        /* \"#utility.yul\":3062:3091   */\n      tag_197\n      jump\t// in\n    tag_282:\n        /* \"#utility.yul\":3054:3091   */\n      swap1\n      pop\n        /* \"#utility.yul\":3146:3150   */\n      0x20\n        /* \"#utility.yul\":3140:3144   */\n      dup2\n        /* \"#utility.yul\":3136:3151   */\n      add\n        /* \"#utility.yul\":3128:3151   */\n      swap1\n      pop\n        /* \"#utility.yul\":2850:3158   */\n      swap2\n      swap1\n      pop\n      jump\t// out\n        /* \"#utility.yul\":3164:3312   */\n    tag_210:\n        /* \"#utility.yul\":3262:3268   */\n      dup3\n        /* \"#utility.yul\":3257:3260   */\n      dup2\n        /* \"#utility.yul\":3252:3255   */\n      dup4\n        /* \"#utility.yul\":3239:3269   */\n      calldatacopy\n        /* \"#utility.yul\":3303:3304   */\n      0x00\n        /* \"#utility.yul\":3294:3300   */\n      dup4\n        /* \"#utility.yul\":3289:3292   */\n      dup4\n        /* \"#utility.yul\":3285:3301   */\n      add\n        /* \"#utility.yul\":3278:3305   */\n      mstore\n        /* \"#utility.yul\":3164:3312   */\n      pop\n      pop\n      pop\n      jump\t// out\n        /* \"#utility.yul\":3318:3743   */\n    tag_211:\n        /* \"#utility.yul\":3396:3401   */\n      0x00\n        /* \"#utility.yul\":3421:3487   */\n      tag_285\n        /* \"#utility.yul\":3437:3486   */\n      tag_286\n        /* \"#utility.yul\":3479:3485   */\n      dup5\n        /* \"#utility.yul\":3437:3486   */\n      tag_209\n      jump\t// in\n    tag_286:\n        /* \"#utility.yul\":3421:3487   */\n      tag_208\n      jump\t// in\n    tag_285:\n        /* \"#utility.yul\":3412:3487   */\n      swap1\n      pop\n        /* \"#utility.yul\":3510:3516   */\n      dup3\n        /* \"#utility.yul\":3503:3508   */\n      dup2\n        /* \"#utility.yul\":3496:3517   */\n      mstore\n        /* \"#utility.yul\":3548:3552   */\n      0x20\n        /* \"#utility.yul\":3541:3546   */\n      dup2\n        /* \"#utility.yul\":3537:3553   */\n      add\n        /* \"#utility.yul\":3586:3589   */\n      dup5\n        /* \"#utility.yul\":3577:3583   */\n      dup5\n        /* \"#utility.yul\":3572:3575   */\n      dup5\n        /* \"#utility.yul\":3568:3584   */\n      add\n        /* \"#utility.yul\":3565:3590   */\n      gt\n        /* \"#utility.yul\":3562:3674   */\n      iszero\n      tag_287\n      jumpi\n        /* \"#utility.yul\":3593:3672   */\n      tag_288\n      tag_205\n      jump\t// in\n    tag_288:\n        /* \"#utility.yul\":3562:3674   */\n    tag_287:\n        /* \"#utility.yul\":3683:3737   */\n      tag_289\n        /* \"#utility.yul\":3730:3736   */\n      dup5\n        /* \"#utility.yul\":3725:3728   */\n      dup3\n        /* \"#utility.yul\":3720:3723   */\n      dup6\n        /* \"#utility.yul\":3683:3737   */\n      tag_210\n      jump\t// in\n    tag_289:\n        /* \"#utility.yul\":3402:3743   */\n      pop\n        /* \"#utility.yul\":3318:3743   */\n      swap4\n      swap3\n      pop\n      pop\n      pop\n      jump\t// out\n        /* \"#utility.yul\":3763:4103   */\n    tag_212:\n        /* \"#utility.yul\":3819:3824   */\n      0x00\n        /* \"#utility.yul\":3868:3871   */\n      dup3\n        /* \"#utility.yul\":3861:3865   */\n      0x1f\n        /* \"#utility.yul\":3853:3859   */\n      dup4\n        /* \"#utility.yul\":3849:3866   */\n      add\n        /* \"#utility.yul\":3845:3872   */\n      slt\n        /* \"#utility.yul\":3835:3957   */\n      tag_291\n      jumpi\n        /* \"#utility.yul\":3876:3955   */\n      tag_292\n      tag_204\n      jump\t// in\n    tag_292:\n        /* \"#utility.yul\":3835:3957   */\n    tag_291:\n        /* \"#utility.yul\":3993:3999   */\n      dup2\n        /* \"#utility.yul\":3980:4000   */\n      calldataload\n        /* \"#utility.yul\":4018:4097   */\n      tag_293\n        /* \"#utility.yul\":4093:4096   */\n      dup5\n        /* \"#utility.yul\":4085:4091   */\n      dup3\n        /* \"#utility.yul\":4078:4082   */\n      0x20\n        /* \"#utility.yul\":4070:4076   */\n      dup7\n        /* \"#utility.yul\":4066:4083   */\n      add\n        /* \"#utility.yul\":4018:4097   */\n      tag_211\n      jump\t// in\n    tag_293:\n        /* \"#utility.yul\":4009:4097   */\n      swap2\n      pop\n        /* \"#utility.yul\":3825:4103   */\n      pop\n        /* \"#utility.yul\":3763:4103   */\n      swap3\n      swap2\n      pop\n      pop\n      jump\t// out\n        /* \"#utility.yul\":4109:4618   */\n    tag_37:\n        /* \"#utility.yul\":4178:4184   */\n      0x00\n        /* \"#utility.yul\":4227:4229   */\n      0x20\n        /* \"#utility.yul\":4215:4224   */\n      dup3\n        /* \"#utility.yul\":4206:4213   */\n      dup5\n        /* \"#utility.yul\":4202:4225   */\n      sub\n        /* \"#utility.yul\":4198:4230   */\n      slt\n        /* \"#utility.yul\":4195:4314   */\n      iszero\n      tag_295\n      jumpi\n        /* \"#utility.yul\":4233:4312   */\n      tag_296\n      tag_202\n      jump\t// in\n    tag_296:\n        /* \"#utility.yul\":4195:4314   */\n    tag_295:\n        /* \"#utility.yul\":4381:4382   */\n      0x00\n        /* \"#utility.yul\":4370:4379   */\n      dup3\n        /* \"#utility.yul\":4366:4383   */\n      add\n        /* \"#utility.yul\":4353:4384   */\n      calldataload\n        /* \"#utility.yul\":4411:4429   */\n      0xffffffffffffffff\n        /* \"#utility.yul\":4403:4409   */\n      dup2\n        /* \"#utility.yul\":4400:4430   */\n      gt\n        /* \"#utility.yul\":4397:4514   */\n      iszero\n      tag_297\n      jumpi\n        /* \"#utility.yul\":4433:4512   */\n      tag_298\n      tag_203\n      jump\t// in\n    tag_298:\n        /* \"#utility.yul\":4397:4514   */\n    tag_297:\n        /* \"#utility.yul\":4538:4601   */\n      tag_299\n        /* \"#utility.yul\":4593:4600   */\n      dup5\n        /* \"#utility.yul\":4584:4590   */\n      dup3\n        /* \"#utility.yul\":4573:4582   */\n      dup6\n        /* \"#utility.yul\":4569:4591   */\n      add\n        /* \"#utility.yul\":4538:4601   */\n      tag_212\n      jump\t// in\n    tag_299:\n        /* \"#utility.yul\":4528:4601   */\n      swap2\n      pop\n        /* \"#utility.yul\":4324:4611   */\n      pop\n        /* \"#utility.yul\":4109:4618   */\n      swap3\n      swap2\n      pop\n      pop\n      jump\t// out\n        /* \"#utility.yul\":4624:4701   */\n    tag_213:\n        /* \"#utility.yul\":4661:4668   */\n      0x00\n        /* \"#utility.yul\":4690:4695   */\n      dup2\n        /* \"#utility.yul\":4679:4695   */\n      swap1\n      pop\n        /* \"#utility.yul\":4624:4701   */\n      swap2\n      swap1\n      pop\n      jump\t// out\n        /* \"#utility.yul\":4707:4829   */\n    tag_214:\n        /* \"#utility.yul\":4780:4804   */\n      tag_302\n        /* \"#utility.yul\":4798:4803   */\n      dup2\n        /* \"#utility.yul\":4780:4804   */\n      tag_213\n      jump\t// in\n    tag_302:\n        /* \"#utility.yul\":4773:4778   */\n      dup2\n        /* \"#utility.yul\":4770:4805   */\n      eq\n        /* \"#utility.yul\":4760:4823   */\n      tag_303\n      jumpi\n        /* \"#utility.yul\":4819:4820   */\n      0x00\n        /* \"#utility.yul\":4816:4817   */\n      0x00\n        /* \"#utility.yul\":4809:4821   */\n      revert\n        /* \"#utility.yul\":4760:4823   */\n    tag_303:\n        /* \"#utility.yul\":4707:4829   */\n      pop\n      jump\t// out\n        /* \"#utility.yul\":4835:4974   */\n    tag_215:\n        /* \"#utility.yul\":4881:4886   */\n      0x00\n        /* \"#utility.yul\":4919:4925   */\n      dup2\n        /* \"#utility.yul\":4906:4926   */\n      calldataload\n        /* \"#utility.yul\":4897:4926   */\n      swap1\n      pop\n        /* \"#utility.yul\":4935:4968   */\n      tag_305\n        /* \"#utility.yul\":4962:4967   */\n      dup2\n        /* \"#utility.yul\":4935:4968   */\n      tag_214\n      jump\t// in\n    tag_305:\n        /* \"#utility.yul\":4835:4974   */\n      swap3\n      swap2\n      pop\n      pop\n      jump\t// out\n        /* \"#utility.yul\":4980:5634   */\n    tag_42:\n        /* \"#utility.yul\":5058:5064   */\n      0x00\n        /* \"#utility.yul\":5066:5072   */\n      0x00\n        /* \"#utility.yul\":5115:5117   */\n      0x40\n        /* \"#utility.yul\":5103:5112   */\n      dup4\n        /* \"#utility.yul\":5094:5101   */\n      dup6\n        /* \"#utility.yul\":5090:5113   */\n      sub\n        /* \"#utility.yul\":5086:5118   */\n      slt\n        /* \"#utility.yul\":5083:5202   */\n      iszero\n      tag_307\n      jumpi\n        /* \"#utility.yul\":5121:5200   */\n      tag_308\n      tag_202\n      jump\t// in\n    tag_308:\n        /* \"#utility.yul\":5083:5202   */\n    tag_307:\n        /* \"#utility.yul\":5241:5242   */\n      0x00\n        /* \"#utility.yul\":5266:5319   */\n      tag_309\n        /* \"#utility.yul\":5311:5318   */\n      dup6\n        /* \"#utility.yul\":5302:5308   */\n      dup3\n        /* \"#utility.yul\":5291:5300   */\n      dup7\n        /* \"#utility.yul\":5287:5309   */\n      add\n        /* \"#utility.yul\":5266:5319   */\n      tag_215\n      jump\t// in\n    tag_309:\n        /* \"#utility.yul\":5256:5319   */\n      swap3\n      pop\n        /* \"#utility.yul\":5212:5329   */\n      pop\n        /* \"#utility.yul\":5396:5398   */\n      0x20\n        /* \"#utility.yul\":5385:5394   */\n      dup4\n        /* \"#utility.yul\":5381:5399   */\n      add\n        /* \"#utility.yul\":5368:5400   */\n      calldataload\n        /* \"#utility.yul\":5427:5445   */\n      0xffffffffffffffff\n        /* \"#utility.yul\":5419:5425   */\n      dup2\n        /* \"#utility.yul\":5416:5446   */\n      gt\n        /* \"#utility.yul\":5413:5530   */\n      iszero\n      tag_310\n      jumpi\n        /* \"#utility.yul\":5449:5528   */\n      tag_311\n      tag_203\n      jump\t// in\n    tag_311:\n        /* \"#utility.yul\":5413:5530   */\n    tag_310:\n        /* \"#utility.yul\":5554:5617   */\n      tag_312\n        /* \"#utility.yul\":5609:5616   */\n      dup6\n        /* \"#utility.yul\":5600:5606   */\n      dup3\n        /* \"#utility.yul\":5589:5598   */\n      dup7\n        /* \"#utility.yul\":5585:5607   */\n      add\n        /* \"#utility.yul\":5554:5617   */\n      tag_212\n      jump\t// in\n    tag_312:\n        /* \"#utility.yul\":5544:5617   */\n      swap2\n      pop\n        /* \"#utility.yul\":5339:5627   */\n      pop\n        /* \"#utility.yul\":4980:5634   */\n      swap3\n      pop\n      swap3\n      swap1\n      pop\n      jump\t// out\n        /* \"#utility.yul\":5640:5766   */\n    tag_216:\n        /* \"#utility.yul\":5677:5684   */\n      0x00\n        /* \"#utility.yul\":5717:5759   */\n      0xffffffffffffffffffffffffffffffffffffffff\n        /* \"#utility.yul\":5710:5715   */\n      dup3\n        /* \"#utility.yul\":5706:5760   */\n      and\n        /* \"#utility.yul\":5695:5760   */\n      swap1\n      pop\n        /* \"#utility.yul\":5640:5766   */\n      swap2\n      swap1\n      pop\n      jump\t// out\n        /* \"#utility.yul\":5772:5868   */\n    tag_217:\n        /* \"#utility.yul\":5809:5816   */\n      0x00\n        /* \"#utility.yul\":5838:5862   */\n      tag_315\n        /* \"#utility.yul\":5856:5861   */\n      dup3\n        /* \"#utility.yul\":5838:5862   */\n      tag_216\n      jump\t// in\n    tag_315:\n        /* \"#utility.yul\":5827:5862   */\n      swap1\n      pop\n        /* \"#utility.yul\":5772:5868   */\n      swap2\n      swap1\n      pop\n      jump\t// out\n        /* \"#utility.yul\":5874:5992   */\n    tag_218:\n        /* \"#utility.yul\":5961:5985   */\n      tag_317\n        /* \"#utility.yul\":5979:5984   */\n      dup2\n        /* \"#utility.yul\":5961:5985   */\n      tag_217\n      jump\t// in\n    tag_317:\n        /* \"#utility.yul\":5956:5959   */\n      dup3\n        /* \"#utility.yul\":5949:5986   */\n      mstore\n        /* \"#utility.yul\":5874:5992   */\n      pop\n      pop\n      jump\t// out\n        /* \"#utility.yul\":5998:6220   */\n    tag_54:\n        /* \"#utility.yul\":6091:6095   */\n      0x00\n        /* \"#utility.yul\":6129:6131   */\n      0x20\n        /* \"#utility.yul\":6118:6127   */\n      dup3\n        /* \"#utility.yul\":6114:6132   */\n      add\n        /* \"#utility.yul\":6106:6132   */\n      swap1\n      pop\n        /* \"#utility.yul\":6142:6213   */\n      tag_319\n        /* \"#utility.yul\":6210:6211   */\n      0x00\n        /* \"#utility.yul\":6199:6208   */\n      dup4\n        /* \"#utility.yul\":6195:6212   */\n      add\n        /* \"#utility.yul\":6186:6192   */\n      dup5\n        /* \"#utility.yul\":6142:6213   */\n      tag_218\n      jump\t// in\n    tag_319:\n        /* \"#utility.yul\":5998:6220   */\n      swap3\n      swap2\n      pop\n      pop\n      jump\t// out\n        /* \"#utility.yul\":6226:6348   */\n    tag_219:\n        /* \"#utility.yul\":6299:6323   */\n      tag_321\n        /* \"#utility.yul\":6317:6322   */\n      dup2\n        /* \"#utility.yul\":6299:6323   */\n      tag_217\n      jump\t// in\n    tag_321:\n        /* \"#utility.yul\":6292:6297   */\n      dup2\n        /* \"#utility.yul\":6289:6324   */\n      eq\n        /* \"#utility.yul\":6279:6342   */\n      tag_322\n      jumpi\n        /* \"#utility.yul\":6338:6339   */\n      0x00\n        /* \"#utility.yul\":6335:6336   */\n      0x00\n        /* \"#utility.yul\":6328:6340   */\n      revert\n        /* \"#utility.yul\":6279:6342   */\n    tag_322:\n        /* \"#utility.yul\":6226:6348   */\n      pop\n      jump\t// out\n        /* \"#utility.yul\":6354:6493   */\n    tag_220:\n        /* \"#utility.yul\":6400:6405   */\n      0x00\n        /* \"#utility.yul\":6438:6444   */\n      dup2\n        /* \"#utility.yul\":6425:6445   */\n      calldataload\n        /* \"#utility.yul\":6416:6445   */\n      swap1\n      pop\n        /* \"#utility.yul\":6454:6487   */\n      tag_324\n        /* \"#utility.yul\":6481:6486   */\n      dup2\n        /* \"#utility.yul\":6454:6487   */\n      tag_219\n      jump\t// in\n    tag_324:\n        /* \"#utility.yul\":6354:6493   */\n      swap3\n      swap2\n      pop\n      pop\n      jump\t// out\n        /* \"#utility.yul\":6499:6828   */\n    tag_61:\n        /* \"#utility.yul\":6558:6564   */\n      0x00\n        /* \"#utility.yul\":6607:6609   */\n      0x20\n        /* \"#utility.yul\":6595:6604   */\n      dup3\n        /* \"#utility.yul\":6586:6593   */\n      dup5\n        /* \"#utility.yul\":6582:6605   */\n      sub\n        /* \"#utility.yul\":6578:6610   */\n      slt\n        /* \"#utility.yul\":6575:6694   */\n      iszero\n      tag_326\n      jumpi\n        /* \"#utility.yul\":6613:6692   */\n      tag_327\n      tag_202\n      jump\t// in\n    tag_327:\n        /* \"#utility.yul\":6575:6694   */\n    tag_326:\n        /* \"#utility.yul\":6733:6734   */\n      0x00\n        /* \"#utility.yul\":6758:6811   */\n      tag_328\n        /* \"#utility.yul\":6803:6810   */\n      dup5\n        /* \"#utility.yul\":6794:6800   */\n      dup3\n        /* \"#utility.yul\":6783:6792   */\n      dup6\n        /* \"#utility.yul\":6779:6801   */\n      add\n        /* \"#utility.yul\":6758:6811   */\n      tag_220\n      jump\t// in\n    tag_328:\n        /* \"#utility.yul\":6748:6811   */\n      swap2\n      pop\n        /* \"#utility.yul\":6704:6821   */\n      pop\n        /* \"#utility.yul\":6499:6828   */\n      swap3\n      swap2\n      pop\n      pop\n      jump\t// out\n        /* \"#utility.yul\":6834:6952   */\n    tag_221:\n        /* \"#utility.yul\":6921:6945   */\n      tag_330\n        /* \"#utility.yul\":6939:6944   */\n      dup2\n        /* \"#utility.yul\":6921:6945   */\n      tag_213\n      jump\t// in\n    tag_330:\n        /* \"#utility.yul\":6916:6919   */\n      dup3\n        /* \"#utility.yul\":6909:6946   */\n      mstore\n        /* \"#utility.yul\":6834:6952   */\n      pop\n      pop\n      jump\t// out\n        /* \"#utility.yul\":6958:7180   */\n    tag_64:\n        /* \"#utility.yul\":7051:7055   */\n      0x00\n        /* \"#utility.yul\":7089:7091   */\n      0x20\n        /* \"#utility.yul\":7078:7087   */\n      dup3\n        /* \"#utility.yul\":7074:7092   */\n      add\n        /* \"#utility.yul\":7066:7092   */\n      swap1\n      pop\n        /* \"#utility.yul\":7102:7173   */\n      tag_332\n        /* \"#utility.yul\":7170:7171   */\n      0x00\n        /* \"#utility.yul\":7159:7168   */\n      dup4\n        /* \"#utility.yul\":7155:7172   */\n      add\n        /* \"#utility.yul\":7146:7152   */\n      dup5\n        /* \"#utility.yul\":7102:7173   */\n      tag_221\n      jump\t// in\n    tag_332:\n        /* \"#utility.yul\":6958:7180   */\n      swap3\n      swap2\n      pop\n      pop\n      jump\t// out\n        /* \"#utility.yul\":7186:7276   */\n    tag_222:\n        /* \"#utility.yul\":7220:7227   */\n      0x00\n        /* \"#utility.yul\":7263:7268   */\n      dup2\n        /* \"#utility.yul\":7256:7269   */\n      iszero\n        /* \"#utility.yul\":7249:7270   */\n      iszero\n        /* \"#utility.yul\":7238:7270   */\n      swap1\n      pop\n        /* \"#utility.yul\":7186:7276   */\n      swap2\n      swap1\n      pop\n      jump\t// out\n        /* \"#utility.yul\":7282:7391   */\n    tag_223:\n        /* \"#utility.yul\":7363:7384   */\n      tag_335\n        /* \"#utility.yul\":7378:7383   */\n      dup2\n        /* \"#utility.yul\":7363:7384   */\n      tag_222\n      jump\t// in\n    tag_335:\n        /* \"#utility.yul\":7358:7361   */\n      dup3\n        /* \"#utility.yul\":7351:7385   */\n      mstore\n        /* \"#utility.yul\":7282:7391   */\n      pop\n      pop\n      jump\t// out\n        /* \"#utility.yul\":7397:7607   */\n    tag_72:\n        /* \"#utility.yul\":7484:7488   */\n      0x00\n        /* \"#utility.yul\":7522:7524   */\n      0x20\n        /* \"#utility.yul\":7511:7520   */\n      dup3\n        /* \"#utility.yul\":7507:7525   */\n      add\n        /* \"#utility.yul\":7499:7525   */\n      swap1\n      pop\n        /* \"#utility.yul\":7535:7600   */\n      tag_337\n        /* \"#utility.yul\":7597:7598   */\n      0x00\n        /* \"#utility.yul\":7586:7595   */\n      dup4\n        /* \"#utility.yul\":7582:7599   */\n      add\n        /* \"#utility.yul\":7573:7579   */\n      dup5\n        /* \"#utility.yul\":7535:7600   */\n      tag_223\n      jump\t// in\n    tag_337:\n        /* \"#utility.yul\":7397:7607   */\n      swap3\n      swap2\n      pop\n      pop\n      jump\t// out\n        /* \"#utility.yul\":7613:7733   */\n    tag_224:\n        /* \"#utility.yul\":7685:7708   */\n      tag_339\n        /* \"#utility.yul\":7702:7707   */\n      dup2\n        /* \"#utility.yul\":7685:7708   */\n      tag_199\n      jump\t// in\n    tag_339:\n        /* \"#utility.yul\":7678:7683   */\n      dup2\n        /* \"#utility.yul\":7675:7709   */\n      eq\n        /* \"#utility.yul\":7665:7727   */\n      tag_340\n      jumpi\n        /* \"#utility.yul\":7723:7724   */\n      0x00\n        /* \"#utility.yul\":7720:7721   */\n      0x00\n        /* \"#utility.yul\":7713:7725   */\n      revert\n        /* \"#utility.yul\":7665:7727   */\n    tag_340:\n        /* \"#utility.yul\":7613:7733   */\n      pop\n      jump\t// out\n        /* \"#utility.yul\":7739:7876   */\n    tag_225:\n        /* \"#utility.yul\":7784:7789   */\n      0x00\n        /* \"#utility.yul\":7822:7828   */\n      dup2\n        /* \"#utility.yul\":7809:7829   */\n      calldataload\n        /* \"#utility.yul\":7800:7829   */\n      swap1\n      pop\n        /* \"#utility.yul\":7838:7870   */\n      tag_342\n        /* \"#utility.yul\":7864:7869   */\n      dup2\n        /* \"#utility.yul\":7838:7870   */\n      tag_224\n      jump\t// in\n    tag_342:\n        /* \"#utility.yul\":7739:7876   */\n      swap3\n      swap2\n      pop\n      pop\n      jump\t// out\n        /* \"#utility.yul\":7882:8209   */\n    tag_78:\n        /* \"#utility.yul\":7940:7946   */\n      0x00\n        /* \"#utility.yul\":7989:7991   */\n      0x20\n        /* \"#utility.yul\":7977:7986   */\n      dup3\n        /* \"#utility.yul\":7968:7975   */\n      dup5\n        /* \"#utility.yul\":7964:7987   */\n      sub\n        /* \"#utility.yul\":7960:7992   */\n      slt\n        /* \"#utility.yul\":7957:8076   */\n      iszero\n      tag_344\n      jumpi\n        /* \"#utility.yul\":7995:8074   */\n      tag_345\n      tag_202\n      jump\t// in\n    tag_345:\n        /* \"#utility.yul\":7957:8076   */\n    tag_344:\n        /* \"#utility.yul\":8115:8116   */\n      0x00\n        /* \"#utility.yul\":8140:8192   */\n      tag_346\n        /* \"#utility.yul\":8184:8191   */\n      dup5\n        /* \"#utility.yul\":8175:8181   */\n      dup3\n        /* \"#utility.yul\":8164:8173   */\n      dup6\n        /* \"#utility.yul\":8160:8182   */\n      add\n        /* \"#utility.yul\":8140:8192   */\n      tag_225\n      jump\t// in\n    tag_346:\n        /* \"#utility.yul\":8130:8192   */\n      swap2\n      pop\n        /* \"#utility.yul\":8086:8202   */\n      pop\n        /* \"#utility.yul\":7882:8209   */\n      swap3\n      swap2\n      pop\n      pop\n      jump\t// out\n        /* \"#utility.yul\":8215:8395   */\n    tag_226:\n        /* \"#utility.yul\":8263:8340   */\n      0x4e487b7100000000000000000000000000000000000000000000000000000000\n        /* \"#utility.yul\":8260:8261   */\n      0x00\n        /* \"#utility.yul\":8253:8341   */\n      mstore\n        /* \"#utility.yul\":8360:8364   */\n      0x22\n        /* \"#utility.yul\":8357:8358   */\n      0x04\n        /* \"#utility.yul\":8350:8365   */\n      mstore\n        /* \"#utility.yul\":8384:8388   */\n      0x24\n        /* \"#utility.yul\":8381:8382   */\n      0x00\n        /* \"#utility.yul\":8374:8389   */\n      revert\n        /* \"#utility.yul\":8401:8721   */\n    tag_105:\n        /* \"#utility.yul\":8445:8451   */\n      0x00\n        /* \"#utility.yul\":8482:8483   */\n      0x02\n        /* \"#utility.yul\":8476:8480   */\n      dup3\n        /* \"#utility.yul\":8472:8484   */\n      div\n        /* \"#utility.yul\":8462:8484   */\n      swap1\n      pop\n        /* \"#utility.yul\":8529:8530   */\n      0x01\n        /* \"#utility.yul\":8523:8527   */\n      dup3\n        /* \"#utility.yul\":8519:8531   */\n      and\n        /* \"#utility.yul\":8550:8568   */\n      dup1\n        /* \"#utility.yul\":8540:8621   */\n      tag_349\n      jumpi\n        /* \"#utility.yul\":8606:8610   */\n      0x7f\n        /* \"#utility.yul\":8598:8604   */\n      dup3\n        /* \"#utility.yul\":8594:8611   */\n      and\n        /* \"#utility.yul\":8584:8611   */\n      swap2\n      pop\n        /* \"#utility.yul\":8540:8621   */\n    tag_349:\n        /* \"#utility.yul\":8668:8670   */\n      0x20\n        /* \"#utility.yul\":8660:8666   */\n      dup3\n        /* \"#utility.yul\":8657:8671   */\n      lt\n        /* \"#utility.yul\":8637:8655   */\n      dup2\n        /* \"#utility.yul\":8634:8672   */\n      sub\n        /* \"#utility.yul\":8631:8715   */\n      tag_350\n      jumpi\n        /* \"#utility.yul\":8687:8705   */\n      tag_351\n      tag_226\n      jump\t// in\n    tag_351:\n        /* \"#utility.yul\":8631:8715   */\n    tag_350:\n        /* \"#utility.yul\":8452:8721   */\n      pop\n        /* \"#utility.yul\":8401:8721   */\n      swap2\n      swap1\n      pop\n      jump\t// out\n        /* \"#utility.yul\":8727:8889   */\n    tag_227:\n        /* \"#utility.yul\":8867:8881   */\n      0x696e76616c6964206e756d620000000000000000000000000000000000000000\n        /* \"#utility.yul\":8863:8864   */\n      0x00\n        /* \"#utility.yul\":8855:8861   */\n      dup3\n        /* \"#utility.yul\":8851:8865   */\n      add\n        /* \"#utility.yul\":8844:8882   */\n      mstore\n        /* \"#utility.yul\":8727:8889   */\n      pop\n      jump\t// out\n        /* \"#utility.yul\":8895:9261   */\n    tag_228:\n        /* \"#utility.yul\":9037:9040   */\n      0x00\n        /* \"#utility.yul\":9058:9125   */\n      tag_354\n        /* \"#utility.yul\":9122:9124   */\n      0x0c\n        /* \"#utility.yul\":9117:9120   */\n      dup4\n        /* \"#utility.yul\":9058:9125   */\n      tag_195\n      jump\t// in\n    tag_354:\n        /* \"#utility.yul\":9051:9125   */\n      swap2\n      pop\n        /* \"#utility.yul\":9134:9227   */\n      tag_355\n        /* \"#utility.yul\":9223:9226   */\n      dup3\n        /* \"#utility.yul\":9134:9227   */\n      tag_227\n      jump\t// in\n    tag_355:\n        /* \"#utility.yul\":9252:9254   */\n      0x20\n        /* \"#utility.yul\":9247:9250   */\n      dup3\n        /* \"#utility.yul\":9243:9255   */\n      add\n        /* \"#utility.yul\":9236:9255   */\n      swap1\n      pop\n        /* \"#utility.yul\":8895:9261   */\n      swap2\n      swap1\n      pop\n      jump\t// out\n        /* \"#utility.yul\":9267:9686   */\n    tag_119:\n        /* \"#utility.yul\":9433:9437   */\n      0x00\n        /* \"#utility.yul\":9471:9473   */\n      0x20\n        /* \"#utility.yul\":9460:9469   */\n      dup3\n        /* \"#utility.yul\":9456:9474   */\n      add\n        /* \"#utility.yul\":9448:9474   */\n      swap1\n      pop\n        /* \"#utility.yul\":9520:9529   */\n      dup2\n        /* \"#utility.yul\":9514:9518   */\n      dup2\n        /* \"#utility.yul\":9510:9530   */\n      sub\n        /* \"#utility.yul\":9506:9507   */\n      0x00\n        /* \"#utility.yul\":9495:9504   */\n      dup4\n        /* \"#utility.yul\":9491:9508   */\n      add\n        /* \"#utility.yul\":9484:9531   */\n      mstore\n        /* \"#utility.yul\":9548:9679   */\n      tag_357\n        /* \"#utility.yul\":9674:9678   */\n      dup2\n        /* \"#utility.yul\":9548:9679   */\n      tag_228\n      jump\t// in\n    tag_357:\n        /* \"#utility.yul\":9540:9679   */\n      swap1\n      pop\n        /* \"#utility.yul\":9267:9686   */\n      swap2\n      swap1\n      pop\n      jump\t// out\n        /* \"#utility.yul\":9692:9840   */\n    tag_229:\n        /* \"#utility.yul\":9794:9805   */\n      0x00\n        /* \"#utility.yul\":9831:9834   */\n      dup2\n        /* \"#utility.yul\":9816:9834   */\n      swap1\n      pop\n        /* \"#utility.yul\":9692:9840   */\n      swap3\n      swap2\n      pop\n      pop\n      jump\t// out\n        /* \"#utility.yul\":9846:9987   */\n    tag_230:\n        /* \"#utility.yul\":9895:9899   */\n      0x00\n        /* \"#utility.yul\":9918:9921   */\n      dup2\n        /* \"#utility.yul\":9910:9921   */\n      swap1\n      pop\n        /* \"#utility.yul\":9941:9944   */\n      dup2\n        /* \"#utility.yul\":9938:9939   */\n      0x00\n        /* \"#utility.yul\":9931:9945   */\n      mstore\n        /* \"#utility.yul\":9975:9979   */\n      0x20\n        /* \"#utility.yul\":9972:9973   */\n      0x00\n        /* \"#utility.yul\":9962:9980   */\n      keccak256\n        /* \"#utility.yul\":9954:9980   */\n      swap1\n      pop\n        /* \"#utility.yul\":9846:9987   */\n      swap2\n      swap1\n      pop\n      jump\t// out\n        /* \"#utility.yul\":10017:10891   */\n    tag_231:\n        /* \"#utility.yul\":10120:10123   */\n      0x00\n        /* \"#utility.yul\":10157:10162   */\n      dup2\n        /* \"#utility.yul\":10151:10163   */\n      sload\n        /* \"#utility.yul\":10186:10222   */\n      tag_361\n        /* \"#utility.yul\":10212:10221   */\n      dup2\n        /* \"#utility.yul\":10186:10222   */\n      tag_105\n      jump\t// in\n    tag_361:\n        /* \"#utility.yul\":10238:10327   */\n      tag_362\n        /* \"#utility.yul\":10320:10326   */\n      dup2\n        /* \"#utility.yul\":10315:10318   */\n      dup7\n        /* \"#utility.yul\":10238:10327   */\n      tag_229\n      jump\t// in\n    tag_362:\n        /* \"#utility.yul\":10231:10327   */\n      swap5\n      pop\n        /* \"#utility.yul\":10358:10359   */\n      0x01\n        /* \"#utility.yul\":10347:10356   */\n      dup3\n        /* \"#utility.yul\":10343:10360   */\n      and\n        /* \"#utility.yul\":10374:10375   */\n      0x00\n        /* \"#utility.yul\":10369:10535   */\n      dup2\n      eq\n      tag_364\n      jumpi\n        /* \"#utility.yul\":10549:10550   */\n      0x01\n        /* \"#utility.yul\":10544:10885   */\n      dup2\n      eq\n      tag_365\n      jumpi\n        /* \"#utility.yul\":10336:10885   */\n      jump(tag_363)\n        /* \"#utility.yul\":10369:10535   */\n    tag_364:\n        /* \"#utility.yul\":10453:10457   */\n      0xff\n        /* \"#utility.yul\":10449:10458   */\n      not\n        /* \"#utility.yul\":10438:10447   */\n      dup4\n        /* \"#utility.yul\":10434:10459   */\n      and\n        /* \"#utility.yul\":10429:10432   */\n      dup7\n        /* \"#utility.yul\":10422:10460   */\n      mstore\n        /* \"#utility.yul\":10515:10521   */\n      dup2\n        /* \"#utility.yul\":10508:10522   */\n      iszero\n        /* \"#utility.yul\":10501:10523   */\n      iszero\n        /* \"#utility.yul\":10493:10499   */\n      dup3\n        /* \"#utility.yul\":10489:10524   */\n      mul\n        /* \"#utility.yul\":10484:10487   */\n      dup7\n        /* \"#utility.yul\":10480:10525   */\n      add\n        /* \"#utility.yul\":10473:10525   */\n      swap4\n      pop\n        /* \"#utility.yul\":10369:10535   */\n      jump(tag_363)\n        /* \"#utility.yul\":10544:10885   */\n    tag_365:\n        /* \"#utility.yul\":10611:10649   */\n      tag_366\n        /* \"#utility.yul\":10643:10648   */\n      dup6\n        /* \"#utility.yul\":10611:10649   */\n      tag_230\n      jump\t// in\n    tag_366:\n        /* \"#utility.yul\":10671:10672   */\n      0x00\n        /* \"#utility.yul\":10685:10839   */\n    tag_367:\n        /* \"#utility.yul\":10699:10705   */\n      dup4\n        /* \"#utility.yul\":10696:10697   */\n      dup2\n        /* \"#utility.yul\":10693:10706   */\n      lt\n        /* \"#utility.yul\":10685:10839   */\n      iszero\n      tag_369\n      jumpi\n        /* \"#utility.yul\":10773:10780   */\n      dup2\n        /* \"#utility.yul\":10767:10781   */\n      sload\n        /* \"#utility.yul\":10763:10764   */\n      dup2\n        /* \"#utility.yul\":10758:10761   */\n      dup10\n        /* \"#utility.yul\":10754:10765   */\n      add\n        /* \"#utility.yul\":10747:10782   */\n      mstore\n        /* \"#utility.yul\":10823:10824   */\n      0x01\n        /* \"#utility.yul\":10814:10821   */\n      dup3\n        /* \"#utility.yul\":10810:10825   */\n      add\n        /* \"#utility.yul\":10799:10825   */\n      swap2\n      pop\n        /* \"#utility.yul\":10721:10725   */\n      0x20\n        /* \"#utility.yul\":10718:10719   */\n      dup2\n        /* \"#utility.yul\":10714:10726   */\n      add\n        /* \"#utility.yul\":10709:10726   */\n      swap1\n      pop\n        /* \"#utility.yul\":10685:10839   */\n      jump(tag_367)\n    tag_369:\n        /* \"#utility.yul\":10868:10874   */\n      dup4\n        /* \"#utility.yul\":10863:10866   */\n      dup9\n        /* \"#utility.yul\":10859:10875   */\n      add\n        /* \"#utility.yul\":10852:10875   */\n      swap6\n      pop\n        /* \"#utility.yul\":10551:10885   */\n      pop\n      pop\n        /* \"#utility.yul\":10336:10885   */\n    tag_363:\n      pop\n        /* \"#utility.yul\":10124:10891   */\n      pop\n      pop\n        /* \"#utility.yul\":10017:10891   */\n      swap3\n      swap2\n      pop\n      pop\n      jump\t// out\n        /* \"#utility.yul\":10897:11287   */\n    tag_232:\n        /* \"#utility.yul\":11003:11006   */\n      0x00\n        /* \"#utility.yul\":11031:11070   */\n      tag_371\n        /* \"#utility.yul\":11064:11069   */\n      dup3\n        /* \"#utility.yul\":11031:11070   */\n      tag_194\n      jump\t// in\n    tag_371:\n        /* \"#utility.yul\":11086:11175   */\n      tag_372\n        /* \"#utility.yul\":11168:11174   */\n      dup2\n        /* \"#utility.yul\":11163:11166   */\n      dup6\n        /* \"#utility.yul\":11086:11175   */\n      tag_229\n      jump\t// in\n    tag_372:\n        /* \"#utility.yul\":11079:11175   */\n      swap4\n      pop\n        /* \"#utility.yul\":11184:11249   */\n      tag_373\n        /* \"#utility.yul\":11242:11248   */\n      dup2\n        /* \"#utility.yul\":11237:11240   */\n      dup6\n        /* \"#utility.yul\":11230:11234   */\n      0x20\n        /* \"#utility.yul\":11223:11228   */\n      dup7\n        /* \"#utility.yul\":11219:11235   */\n      add\n        /* \"#utility.yul\":11184:11249   */\n      tag_196\n      jump\t// in\n    tag_373:\n        /* \"#utility.yul\":11274:11280   */\n      dup1\n        /* \"#utility.yul\":11269:11272   */\n      dup5\n        /* \"#utility.yul\":11265:11281   */\n      add\n        /* \"#utility.yul\":11258:11281   */\n      swap2\n      pop\n        /* \"#utility.yul\":11007:11287   */\n      pop\n        /* \"#utility.yul\":10897:11287   */\n      swap3\n      swap2\n      pop\n      pop\n      jump\t// out\n        /* \"#utility.yul\":11293:11471   */\n    tag_233:\n        /* \"#utility.yul\":11461:11464   */\n      0x2000000000000000000000000000000000000000000000000000000000000000\n        /* \"#utility.yul\":11456:11459   */\n      dup2\n        /* \"#utility.yul\":11449:11465   */\n      mstore\n        /* \"#utility.yul\":11293:11471   */\n      pop\n      jump\t// out\n        /* \"#utility.yul\":11477:12170   */\n    tag_121:\n        /* \"#utility.yul\":11744:11747   */\n      0x00\n        /* \"#utility.yul\":11766:11858   */\n      tag_376\n        /* \"#utility.yul\":11854:11857   */\n      dup3\n        /* \"#utility.yul\":11845:11851   */\n      dup6\n        /* \"#utility.yul\":11766:11858   */\n      tag_231\n      jump\t// in\n    tag_376:\n        /* \"#utility.yul\":11759:11858   */\n      swap2\n      pop\n        /* \"#utility.yul\":11875:11970   */\n      tag_377\n        /* \"#utility.yul\":11966:11969   */\n      dup3\n        /* \"#utility.yul\":11957:11963   */\n      dup5\n        /* \"#utility.yul\":11875:11970   */\n      tag_232\n      jump\t// in\n    tag_377:\n        /* \"#utility.yul\":11868:11970   */\n      swap2\n      pop\n        /* \"#utility.yul\":11980:12117   */\n      tag_378\n        /* \"#utility.yul\":12113:12116   */\n      dup3\n        /* \"#utility.yul\":11980:12117   */\n      tag_233\n      jump\t// in\n    tag_378:\n        /* \"#utility.yul\":12142:12143   */\n      0x01\n        /* \"#utility.yul\":12137:12140   */\n      dup3\n        /* \"#utility.yul\":12133:12144   */\n      add\n        /* \"#utility.yul\":12126:12144   */\n      swap2\n      pop\n        /* \"#utility.yul\":12161:12164   */\n      dup2\n        /* \"#utility.yul\":12154:12164   */\n      swap1\n      pop\n        /* \"#utility.yul\":11477:12170   */\n      swap4\n      swap3\n      pop\n      pop\n      pop\n      jump\t// out\n        /* \"#utility.yul\":12176:12269   */\n    tag_234:\n        /* \"#utility.yul\":12213:12219   */\n      0x00\n        /* \"#utility.yul\":12260:12262   */\n      0x20\n        /* \"#utility.yul\":12255:12257   */\n      0x1f\n        /* \"#utility.yul\":12248:12253   */\n      dup4\n        /* \"#utility.yul\":12244:12258   */\n      add\n        /* \"#utility.yul\":12240:12263   */\n      div\n        /* \"#utility.yul\":12230:12263   */\n      swap1\n      pop\n        /* \"#utility.yul\":12176:12269   */\n      swap2\n      swap1\n      pop\n      jump\t// out\n        /* \"#utility.yul\":12275:12382   */\n    tag_235:\n        /* \"#utility.yul\":12319:12327   */\n      0x00\n        /* \"#utility.yul\":12369:12374   */\n      dup3\n        /* \"#utility.yul\":12363:12367   */\n      dup3\n        /* \"#utility.yul\":12359:12375   */\n      shl\n        /* \"#utility.yul\":12338:12375   */\n      swap1\n      pop\n        /* \"#utility.yul\":12275:12382   */\n      swap3\n      swap2\n      pop\n      pop\n      jump\t// out\n        /* \"#utility.yul\":12388:12781   */\n    tag_236:\n        /* \"#utility.yul\":12457:12463   */\n      0x00\n        /* \"#utility.yul\":12507:12508   */\n      0x08\n        /* \"#utility.yul\":12495:12505   */\n      dup4\n        /* \"#utility.yul\":12491:12509   */\n      mul\n        /* \"#utility.yul\":12530:12627   */\n      tag_382\n        /* \"#utility.yul\":12560:12626   */\n      0xffffffffffffffffffffffffffffffffffffffffffffffffffffffffffffffff\n        /* \"#utility.yul\":12549:12558   */\n      dup3\n        /* \"#utility.yul\":12530:12627   */\n      tag_235\n      jump\t// in\n    tag_382:\n        /* \"#utility.yul\":12648:12687   */\n      tag_383\n        /* \"#utility.yul\":12678:12686   */\n      dup7\n        /* \"#utility.yul\":12667:12676   */\n      dup4\n        /* \"#utility.yul\":12648:12687   */\n      tag_235\n      jump\t// in\n    tag_383:\n        /* \"#utility.yul\":12636:12687   */\n      swap6\n      pop\n        /* \"#utility.yul\":12720:12724   */\n      dup1\n        /* \"#utility.yul\":12716:12725   */\n      not\n        /* \"#utility.yul\":12709:12714   */\n      dup5\n        /* \"#utility.yul\":12705:12726   */\n      and\n        /* \"#utility.yul\":12696:12726   */\n      swap4\n      pop\n        /* \"#utility.yul\":12769:12773   */\n      dup1\n        /* \"#utility.yul\":12759:12767   */\n      dup7\n        /* \"#utility.yul\":12755:12774   */\n      and\n        /* \"#utility.yul\":12748:12753   */\n      dup5\n        /* \"#utility.yul\":12745:12775   */\n      or\n        /* \"#utility.yul\":12735:12775   */\n      swap3\n      pop\n        /* \"#utility.yul\":12464:12781   */\n      pop\n      pop\n        /* \"#utility.yul\":12388:12781   */\n      swap4\n      swap3\n      pop\n      pop\n      pop\n      jump\t// out\n        /* \"#utility.yul\":12787:12847   */\n    tag_237:\n        /* \"#utility.yul\":12815:12818   */\n      0x00\n        /* \"#utility.yul\":12836:12841   */\n      dup2\n        /* \"#utility.yul\":12829:12841   */\n      swap1\n      pop\n        /* \"#utility.yul\":12787:12847   */\n      swap2\n      swap1\n      pop\n      jump\t// out\n        /* \"#utility.yul\":12853:12995   */\n    tag_238:\n        /* \"#utility.yul\":12903:12912   */\n      0x00\n        /* \"#utility.yul\":12936:12989   */\n      tag_386\n        /* \"#utility.yul\":12954:12988   */\n      tag_387\n        /* \"#utility.yul\":12963:12987   */\n      tag_388\n        /* \"#utility.yul\":12981:12986   */\n      dup5\n        /* \"#utility.yul\":12963:12987   */\n      tag_213\n      jump\t// in\n    tag_388:\n        /* \"#utility.yul\":12954:12988   */\n      tag_237\n      jump\t// in\n    tag_387:\n        /* \"#utility.yul\":12936:12989   */\n      tag_213\n      jump\t// in\n    tag_386:\n        /* \"#utility.yul\":12923:12989   */\n      swap1\n      pop\n        /* \"#utility.yul\":12853:12995   */\n      swap2\n      swap1\n      pop\n      jump\t// out\n        /* \"#utility.yul\":13001:13076   */\n    tag_239:\n        /* \"#utility.yul\":13044:13047   */\n      0x00\n        /* \"#utility.yul\":13065:13070   */\n      dup2\n        /* \"#utility.yul\":13058:13070   */\n      swap1\n      pop\n        /* \"#utility.yul\":13001:13076   */\n      swap2\n      swap1\n      pop\n      jump\t// out\n        /* \"#utility.yul\":13082:13351   */\n    tag_240:\n        /* \"#utility.yul\":13192:13231   */\n      tag_391\n        /* \"#utility.yul\":13223:13230   */\n      dup4\n        /* \"#utility.yul\":13192:13231   */\n      tag_238\n      jump\t// in\n    tag_391:\n        /* \"#utility.yul\":13253:13344   */\n      tag_392\n        /* \"#utility.yul\":13302:13343   */\n      tag_393\n        /* \"#utility.yul\":13326:13342   */\n      dup3\n        /* \"#utility.yul\":13302:13343   */\n      tag_239\n      jump\t// in\n    tag_393:\n        /* \"#utility.yul\":13294:13300   */\n      dup5\n        /* \"#utility.yul\":13287:13291   */\n      dup5\n        /* \"#utility.yul\":13281:13292   */\n      sload\n        /* \"#utility.yul\":13253:13344   */\n      tag_236\n      jump\t// in\n    tag_392:\n        /* \"#utility.yul\":13247:13251   */\n      dup3\n        /* \"#utility.yul\":13240:13345   */\n      sstore\n        /* \"#utility.yul\":13158:13351   */\n      pop\n        /* \"#utility.yul\":13082:13351   */\n      pop\n      pop\n      pop\n      jump\t// out\n        /* \"#utility.yul\":13357:13430   */\n    tag_241:\n        /* \"#utility.yul\":13402:13405   */\n      0x00\n        /* \"#utility.yul\":13423:13424   */\n      0x00\n        /* \"#utility.yul\":13416:13424   */\n      swap1\n      pop\n        /* \"#utility.yul\":13357:13430   */\n      swap1\n      jump\t// out\n        /* \"#utility.yul\":13436:13625   */\n    tag_242:\n        /* \"#utility.yul\":13513:13545   */\n      tag_396\n      tag_241\n      jump\t// in\n    tag_396:\n        /* \"#utility.yul\":13554:13619   */\n      tag_397\n        /* \"#utility.yul\":13612:13618   */\n      dup2\n        /* \"#utility.yul\":13604:13610   */\n      dup5\n        /* \"#utility.yul\":13598:13602   */\n      dup5\n        /* \"#utility.yul\":13554:13619   */\n      tag_240\n      jump\t// in\n    tag_397:\n        /* \"#utility.yul\":13489:13625   */\n      pop\n        /* \"#utility.yul\":13436:13625   */\n      pop\n      pop\n      jump\t// out\n        /* \"#utility.yul\":13631:13845   */\n    tag_243:\n        /* \"#utility.yul\":13716:13717   */\n      0x00\n        /* \"#utility.yul\":13701:13839   */\n    tag_399:\n        /* \"#utility.yul\":13726:13735   */\n      dup3\n        /* \"#utility.yul\":13723:13724   */\n      dup2\n        /* \"#utility.yul\":13720:13736   */\n      lt\n        /* \"#utility.yul\":13701:13839   */\n      iszero\n      tag_401\n      jumpi\n        /* \"#utility.yul\":13778:13829   */\n      tag_402\n        /* \"#utility.yul\":13827:13828   */\n      0x00\n        /* \"#utility.yul\":13823:13824   */\n      dup3\n        /* \"#utility.yul\":13812:13821   */\n      dup5\n        /* \"#utility.yul\":13808:13825   */\n      add\n        /* \"#utility.yul\":13778:13829   */\n      tag_242\n      jump\t// in\n    tag_402:\n        /* \"#utility.yul\":13751:13752   */\n      0x01\n        /* \"#utility.yul\":13748:13749   */\n      dup2\n        /* \"#utility.yul\":13744:13753   */\n      add\n        /* \"#utility.yul\":13739:13753   */\n      swap1\n      pop\n        /* \"#utility.yul\":13701:13839   */\n      jump(tag_399)\n    tag_401:\n        /* \"#utility.yul\":13705:13719   */\n      pop\n        /* \"#utility.yul\":13631:13845   */\n      pop\n      pop\n      jump\t// out\n        /* \"#utility.yul\":13851:14597   */\n    tag_244:\n        /* \"#utility.yul\":13952:13954   */\n      0x1f\n        /* \"#utility.yul\":13947:13950   */\n      dup3\n        /* \"#utility.yul\":13944:13955   */\n      gt\n        /* \"#utility.yul\":13941:14590   */\n      iszero\n      tag_404\n      jumpi\n        /* \"#utility.yul\":13981:13991   */\n      dup3\n        /* \"#utility.yul\":13976:13979   */\n      dup3\n        /* \"#utility.yul\":13973:13992   */\n      gt\n        /* \"#utility.yul\":13970:14580   */\n      iszero\n      tag_405\n      jumpi\n        /* \"#utility.yul\":14027:14065   */\n      tag_406\n        /* \"#utility.yul\":14059:14064   */\n      dup2\n        /* \"#utility.yul\":14027:14065   */\n      tag_230\n      jump\t// in\n    tag_406:\n        /* \"#utility.yul\":14102:14124   */\n      tag_407\n        /* \"#utility.yul\":14120:14123   */\n      dup4\n        /* \"#utility.yul\":14102:14124   */\n      tag_234\n      jump\t// in\n    tag_407:\n        /* \"#utility.yul\":14161:14190   */\n      tag_408\n        /* \"#utility.yul\":14179:14189   */\n      dup6\n        /* \"#utility.yul\":14161:14190   */\n      tag_234\n      jump\t// in\n    tag_408:\n        /* \"#utility.yul\":14351:14353   */\n      0x20\n        /* \"#utility.yul\":14339:14349   */\n      dup7\n        /* \"#utility.yul\":14336:14354   */\n      lt\n        /* \"#utility.yul\":14333:14412   */\n      iszero\n      tag_409\n      jumpi\n        /* \"#utility.yul\":14393:14394   */\n      0x00\n        /* \"#utility.yul\":14377:14394   */\n      swap1\n      pop\n        /* \"#utility.yul\":14333:14412   */\n    tag_409:\n        /* \"#utility.yul\":14462:14474   */\n      dup1\n        /* \"#utility.yul\":14452:14460   */\n      dup4\n        /* \"#utility.yul\":14448:14475   */\n      add\n        /* \"#utility.yul\":14492:14566   */\n      tag_410\n        /* \"#utility.yul\":14552:14564   */\n      dup3\n        /* \"#utility.yul\":14538:14550   */\n      dup5\n        /* \"#utility.yul\":14534:14565   */\n      sub\n        /* \"#utility.yul\":14521:14532   */\n      dup3\n        /* \"#utility.yul\":14492:14566   */\n      tag_243\n      jump\t// in\n    tag_410:\n        /* \"#utility.yul\":13993:14580   */\n      pop\n      pop\n      pop\n      pop\n        /* \"#utility.yul\":13970:14580   */\n    tag_405:\n        /* \"#utility.yul\":13941:14590   */\n    tag_404:\n        /* \"#utility.yul\":13851:14597   */\n      pop\n      pop\n      pop\n      jump\t// out\n        /* \"#utility.yul\":14603:14720   */\n    tag_245:\n        /* \"#utility.yul\":14657:14665   */\n      0x00\n        /* \"#utility.yul\":14707:14712   */\n      dup3\n        /* \"#utility.yul\":14701:14705   */\n      dup3\n        /* \"#utility.yul\":14697:14713   */\n      shr\n        /* \"#utility.yul\":14676:14713   */\n      swap1\n      pop\n        /* \"#utility.yul\":14603:14720   */\n      swap3\n      swap2\n      pop\n      pop\n      jump\t// out\n        /* \"#utility.yul\":14726:14895   */\n    tag_246:\n        /* \"#utility.yul\":14770:14776   */\n      0x00\n        /* \"#utility.yul\":14803:14854   */\n      tag_413\n        /* \"#utility.yul\":14851:14852   */\n      0x00\n        /* \"#utility.yul\":14847:14853   */\n      not\n        /* \"#utility.yul\":14839:14844   */\n      dup5\n        /* \"#utility.yul\":14836:14837   */\n      0x08\n        /* \"#utility.yul\":14832:14845   */\n      mul\n        /* \"#utility.yul\":14803:14854   */\n      tag_245\n      jump\t// in\n    tag_413:\n        /* \"#utility.yul\":14799:14855   */\n      not\n        /* \"#utility.yul\":14884:14888   */\n      dup1\n        /* \"#utility.yul\":14878:14882   */\n      dup4\n        /* \"#utility.yul\":14874:14889   */\n      and\n        /* \"#utility.yul\":14864:14889   */\n      swap2\n      pop\n        /* \"#utility.yul\":14777:14895   */\n      pop\n        /* \"#utility.yul\":14726:14895   */\n      swap3\n      swap2\n      pop\n      pop\n      jump\t// out\n        /* \"#utility.yul\":14900:15195   */\n    tag_247:\n        /* \"#utility.yul\":14976:14980   */\n      0x00\n        /* \"#utility.yul\":15122:15151   */\n      tag_415\n        /* \"#utility.yul\":15147:15150   */\n      dup4\n        /* \"#utility.yul\":15141:15145   */\n      dup4\n        /* \"#utility.yul\":15122:15151   */\n      tag_246\n      jump\t// in\n    tag_415:\n        /* \"#utility.yul\":15114:15151   */\n      swap2\n      pop\n        /* \"#utility.yul\":15184:15187   */\n      dup3\n        /* \"#utility.yul\":15181:15182   */\n      0x02\n        /* \"#utility.yul\":15177:15188   */\n      mul\n        /* \"#utility.yul\":15171:15175   */\n      dup3\n        /* \"#utility.yul\":15168:15189   */\n      or\n        /* \"#utility.yul\":15160:15189   */\n      swap1\n      pop\n        /* \"#utility.yul\":14900:15195   */\n      swap3\n      swap2\n      pop\n      pop\n      jump\t// out\n        /* \"#utility.yul\":15200:16595   */\n    tag_123:\n        /* \"#utility.yul\":15317:15354   */\n      tag_417\n        /* \"#utility.yul\":15350:15353   */\n      dup3\n        /* \"#utility.yul\":15317:15354   */\n      tag_194\n      jump\t// in\n    tag_417:\n        /* \"#utility.yul\":15419:15437   */\n      0xffffffffffffffff\n        /* \"#utility.yul\":15411:15417   */\n      dup2\n        /* \"#utility.yul\":15408:15438   */\n      gt\n        /* \"#utility.yul\":15405:15461   */\n      iszero\n      tag_418\n      jumpi\n        /* \"#utility.yul\":15441:15459   */\n      tag_419\n      tag_206\n      jump\t// in\n    tag_419:\n        /* \"#utility.yul\":15405:15461   */\n    tag_418:\n        /* \"#utility.yul\":15485:15523   */\n      tag_420\n        /* \"#utility.yul\":15517:15521   */\n      dup3\n        /* \"#utility.yul\":15511:15522   */\n      sload\n        /* \"#utility.yul\":15485:15523   */\n      tag_105\n      jump\t// in\n    tag_420:\n        /* \"#utility.yul\":15570:15637   */\n      tag_421\n        /* \"#utility.yul\":15630:15636   */\n      dup3\n        /* \"#utility.yul\":15622:15628   */\n      dup3\n        /* \"#utility.yul\":15616:15620   */\n      dup6\n        /* \"#utility.yul\":15570:15637   */\n      tag_244\n      jump\t// in\n    tag_421:\n        /* \"#utility.yul\":15664:15665   */\n      0x00\n        /* \"#utility.yul\":15688:15692   */\n      0x20\n        /* \"#utility.yul\":15675:15692   */\n      swap1\n      pop\n        /* \"#utility.yul\":15720:15722   */\n      0x1f\n        /* \"#utility.yul\":15712:15718   */\n      dup4\n        /* \"#utility.yul\":15709:15723   */\n      gt\n        /* \"#utility.yul\":15737:15738   */\n      0x01\n        /* \"#utility.yul\":15732:16350   */\n      dup2\n      eq\n      tag_423\n      jumpi\n        /* \"#utility.yul\":16394:16395   */\n      0x00\n        /* \"#utility.yul\":16411:16417   */\n      dup5\n        /* \"#utility.yul\":16408:16485   */\n      iszero\n      tag_424\n      jumpi\n        /* \"#utility.yul\":16460:16469   */\n      dup3\n        /* \"#utility.yul\":16455:16458   */\n      dup8\n        /* \"#utility.yul\":16451:16470   */\n      add\n        /* \"#utility.yul\":16445:16471   */\n      mload\n        /* \"#utility.yul\":16436:16471   */\n      swap1\n      pop\n        /* \"#utility.yul\":16408:16485   */\n    tag_424:\n        /* \"#utility.yul\":16511:16578   */\n      tag_425\n        /* \"#utility.yul\":16571:16577   */\n      dup6\n        /* \"#utility.yul\":16564:16569   */\n      dup3\n        /* \"#utility.yul\":16511:16578   */\n      tag_247\n      jump\t// in\n    tag_425:\n        /* \"#utility.yul\":16505:16509   */\n      dup7\n        /* \"#utility.yul\":16498:16579   */\n      sstore\n        /* \"#utility.yul\":16367:16589   */\n      pop\n        /* \"#utility.yul\":15702:16589   */\n      jump(tag_422)\n        /* \"#utility.yul\":15732:16350   */\n    tag_423:\n        /* \"#utility.yul\":15784:15788   */\n      0x1f\n        /* \"#utility.yul\":15780:15789   */\n      not\n        /* \"#utility.yul\":15772:15778   */\n      dup5\n        /* \"#utility.yul\":15768:15790   */\n      and\n        /* \"#utility.yul\":15818:15855   */\n      tag_426\n        /* \"#utility.yul\":15850:15854   */\n      dup7\n        /* \"#utility.yul\":15818:15855   */\n      tag_230\n      jump\t// in\n    tag_426:\n        /* \"#utility.yul\":15877:15878   */\n      0x00\n        /* \"#utility.yul\":15891:16099   */\n    tag_427:\n        /* \"#utility.yul\":15905:15912   */\n      dup3\n        /* \"#utility.yul\":15902:15903   */\n      dup2\n        /* \"#utility.yul\":15899:15913   */\n      lt\n        /* \"#utility.yul\":15891:16099   */\n      iszero\n      tag_429\n      jumpi\n        /* \"#utility.yul\":15984:15993   */\n      dup5\n        /* \"#utility.yul\":15979:15982   */\n      dup10\n        /* \"#utility.yul\":15975:15994   */\n      add\n        /* \"#utility.yul\":15969:15995   */\n      mload\n        /* \"#utility.yul\":15961:15967   */\n      dup3\n        /* \"#utility.yul\":15954:15996   */\n      sstore\n        /* \"#utility.yul\":16035:16036   */\n      0x01\n        /* \"#utility.yul\":16027:16033   */\n      dup3\n        /* \"#utility.yul\":16023:16037   */\n      add\n        /* \"#utility.yul\":16013:16037   */\n      swap2\n      pop\n        /* \"#utility.yul\":16082:16084   */\n      0x20\n        /* \"#utility.yul\":16071:16080   */\n      dup6\n        /* \"#utility.yul\":16067:16085   */\n      add\n        /* \"#utility.yul\":16054:16085   */\n      swap5\n      pop\n        /* \"#utility.yul\":15928:15932   */\n      0x20\n        /* \"#utility.yul\":15925:15926   */\n      dup2\n        /* \"#utility.yul\":15921:15933   */\n      add\n        /* \"#utility.yul\":15916:15933   */\n      swap1\n      pop\n        /* \"#utility.yul\":15891:16099   */\n      jump(tag_427)\n    tag_429:\n        /* \"#utility.yul\":16127:16133   */\n      dup7\n        /* \"#utility.yul\":16118:16125   */\n      dup4\n        /* \"#utility.yul\":16115:16134   */\n      lt\n        /* \"#utility.yul\":16112:16291   */\n      iszero\n      tag_430\n      jumpi\n        /* \"#utility.yul\":16185:16194   */\n      dup5\n        /* \"#utility.yul\":16180:16183   */\n      dup10\n        /* \"#utility.yul\":16176:16195   */\n      add\n        /* \"#utility.yul\":16170:16196   */\n      mload\n        /* \"#utility.yul\":16228:16276   */\n      tag_431\n        /* \"#utility.yul\":16270:16274   */\n      0x1f\n        /* \"#utility.yul\":16262:16268   */\n      dup10\n        /* \"#utility.yul\":16258:16275   */\n      and\n        /* \"#utility.yul\":16247:16256   */\n      dup3\n        /* \"#utility.yul\":16228:16276   */\n      tag_246\n      jump\t// in\n    tag_431:\n        /* \"#utility.yul\":16220:16226   */\n      dup4\n        /* \"#utility.yul\":16213:16277   */\n      sstore\n        /* \"#utility.yul\":16135:16291   */\n      pop\n        /* \"#utility.yul\":16112:16291   */\n    tag_430:\n        /* \"#utility.yul\":16337:16338   */\n      0x01\n        /* \"#utility.yul\":16333:16334   */\n      0x02\n        /* \"#utility.yul\":16325:16331   */\n      dup9\n        /* \"#utility.yul\":16321:16335   */\n      mul\n        /* \"#utility.yul\":16317:16339   */\n      add\n        /* \"#utility.yul\":16311:16315   */\n      dup9\n        /* \"#utility.yul\":16304:16340   */\n      sstore\n        /* \"#utility.yul\":15739:16350   */\n      pop\n      pop\n      pop\n        /* \"#utility.yul\":15702:16589   */\n    tag_422:\n      pop\n        /* \"#utility.yul\":15292:16595   */\n      pop\n      pop\n      pop\n        /* \"#utility.yul\":15200:16595   */\n      pop\n      pop\n      jump\t// out\n        /* \"#utility.yul\":16601:16781   */\n    tag_248:\n        /* \"#utility.yul\":16649:16726   */\n      0x4e487b7100000000000000000000000000000000000000000000000000000000\n        /* \"#utility.yul\":16646:16647   */\n      0x00\n        /* \"#utility.yul\":16639:16727   */\n      mstore\n        /* \"#utility.yul\":16746:16750   */\n      0x11\n        /* \"#utility.yul\":16743:16744   */\n      0x04\n        /* \"#utility.yul\":16736:16751   */\n      mstore\n        /* \"#utility.yul\":16770:16774   */\n      0x24\n        /* \"#utility.yul\":16767:16768   */\n      0x00\n        /* \"#utility.yul\":16760:16775   */\n      revert\n        /* \"#utility.yul\":16787:17343   */\n    tag_154:\n        /* \"#utility.yul\":16826:16833   */\n      0x00\n        /* \"#utility.yul\":16849:16868   */\n      tag_434\n        /* \"#utility.yul\":16866:16867   */\n      dup3\n        /* \"#utility.yul\":16849:16868   */\n      tag_199\n      jump\t// in\n    tag_434:\n        /* \"#utility.yul\":16844:16868   */\n      swap2\n      pop\n        /* \"#utility.yul\":16882:16901   */\n      tag_435\n        /* \"#utility.yul\":16899:16900   */\n      dup4\n        /* \"#utility.yul\":16882:16901   */\n      tag_199\n      jump\t// in\n    tag_435:\n        /* \"#utility.yul\":16877:16901   */\n      swap3\n      pop\n        /* \"#utility.yul\":16936:16937   */\n      dup3\n        /* \"#utility.yul\":16933:16934   */\n      dup3\n        /* \"#utility.yul\":16929:16938   */\n      mul\n        /* \"#utility.yul\":16958:16987   */\n      tag_436\n        /* \"#utility.yul\":16975:16986   */\n      dup2\n        /* \"#utility.yul\":16958:16987   */\n      tag_199\n      jump\t// in\n    tag_436:\n        /* \"#utility.yul\":16947:16987   */\n      swap2\n      pop\n        /* \"#utility.yul\":17045:17111   */\n      0x8000000000000000000000000000000000000000000000000000000000000000\n        /* \"#utility.yul\":17042:17043   */\n      dup5\n        /* \"#utility.yul\":17039:17112   */\n      eq\n        /* \"#utility.yul\":17035:17036   */\n      0x00\n        /* \"#utility.yul\":17032:17033   */\n      dup5\n        /* \"#utility.yul\":17028:17037   */\n      slt\n        /* \"#utility.yul\":17024:17113   */\n      and\n        /* \"#utility.yul\":17021:17136   */\n      iszero\n      tag_437\n      jumpi\n        /* \"#utility.yul\":17116:17134   */\n      tag_438\n      tag_248\n      jump\t// in\n    tag_438:\n        /* \"#utility.yul\":17021:17136   */\n    tag_437:\n        /* \"#utility.yul\":17286:17287   */\n      dup3\n        /* \"#utility.yul\":17277:17284   */\n      dup3\n        /* \"#utility.yul\":17272:17288   */\n      sdiv\n        /* \"#utility.yul\":17269:17270   */\n      dup5\n        /* \"#utility.yul\":17266:17289   */\n      eq\n        /* \"#utility.yul\":17246:17247   */\n      dup4\n        /* \"#utility.yul\":17239:17248   */\n      iszero\n        /* \"#utility.yul\":17219:17303   */\n      or\n        /* \"#utility.yul\":17196:17336   */\n      tag_439\n      jumpi\n        /* \"#utility.yul\":17316:17334   */\n      tag_440\n      tag_248\n      jump\t// in\n    tag_440:\n        /* \"#utility.yul\":17196:17336   */\n    tag_439:\n        /* \"#utility.yul\":16834:17343   */\n      pop\n        /* \"#utility.yul\":16787:17343   */\n      swap3\n      swap2\n      pop\n      pop\n      jump\t// out\n        /* \"#utility.yul\":17349:17580   */\n    tag_172:\n        /* \"#utility.yul\":17387:17390   */\n      0x00\n        /* \"#utility.yul\":17410:17433   */\n      tag_442\n        /* \"#utility.yul\":17427:17432   */\n      dup3\n        /* \"#utility.yul\":17410:17433   */\n      tag_199\n      jump\t// in\n    tag_442:\n        /* \"#utility.yul\":17401:17433   */\n      swap2\n      pop\n        /* \"#utility.yul\":17455:17521   */\n      0x7fffffffffffffffffffffffffffffffffffffffffffffffffffffffffffffff\n        /* \"#utility.yul\":17448:17453   */\n      dup3\n        /* \"#utility.yul\":17445:17522   */\n      sub\n        /* \"#utility.yul\":17442:17545   */\n      tag_443\n      jumpi\n        /* \"#utility.yul\":17525:17543   */\n      tag_444\n      tag_248\n      jump\t// in\n    tag_444:\n        /* \"#utility.yul\":17442:17545   */\n    tag_443:\n        /* \"#utility.yul\":17572:17573   */\n      0x01\n        /* \"#utility.yul\":17565:17570   */\n      dup3\n        /* \"#utility.yul\":17561:17574   */\n      add\n        /* \"#utility.yul\":17554:17574   */\n      swap1\n      pop\n        /* \"#utility.yul\":17349:17580   */\n      swap2\n      swap1\n      pop\n      jump\t// out\n\n    auxdata: 0xa2646970667358221220ede96d2ff9e99e66caf9591b0c479f94d4585338acd1170135a71b69df128d8864736f6c63430008230033\n}\n",
				"bytecode": {
					"linkReferences": {},
					"object": "60806040526040518060400160405280600581526020017f4d697368610000000000000000000000000000000000000000000000000000008152506001908161004891906102f8565b50348015610054575f5ffd5b50335f5f6101000a81548173ffffffffffffffffffffffffffffffffffffffff021916908373ffffffffffffffffffffffffffffffffffffffff1602179055506004600a90816100a491906103ee565b506104d3565b5f81519050919050565b7f4e487b71000000000000000000000000000000000000000000000000000000005f52604160045260245ffd5b7f4e487b71000000000000000000000000000000000000000000000000000000005f52602260045260245ffd5b5f600282049050600182168061012557607f821691505b602082108103610138576101376100e1565b5b50919050565b5f819050815f5260205f209050919050565b5f6020601f8301049050919050565b5f82821b905092915050565b5f6008830261019a7fffffffffffffffffffffffffffffffffffffffffffffffffffffffffffffffff8261015f565b6101a4868361015f565b95508019841693508086168417925050509392505050565b5f819050919050565b5f819050919050565b5f6101e86101e36101de846101bc565b6101c5565b6101bc565b9050919050565b5f819050919050565b610201836101ce565b61021561020d826101ef565b84845461016b565b825550505050565b5f5f905090565b61022c61021d565b6102378184846101f8565b505050565b5f5b8281101561025d576102525f828401610224565b60018101905061023e565b505050565b601f8211156102b057828211156102af5761027c8161013e565b61028583610150565b61028e85610150565b602086101561029b575f90505b8083016102aa8284038261023c565b505050505b5b505050565b5f82821c905092915050565b5f6102d05f19846008026102b5565b1980831691505092915050565b5f6102e883836102c1565b9150826002028217905092915050565b610301826100aa565b67ffffffffffffffff81111561031a576103196100b4565b5b610324825461010e565b61032f828285610262565b5f60209050601f831160018114610360575f841561034e578287015190505b61035885826102dd565b8655506103bf565b601f19841661036e8661013e565b5f5b8281101561039557848901518255600182019150602085019450602081019050610370565b868310156103b257848901516103ae601f8916826102c1565b8355505b6001600288020188555050505b505050505050565b5f815490506103d58161010e565b9050919050565b5f819050815f5260205f209050919050565b8181036103fc5750506104d1565b610405826103c7565b67ffffffffffffffff81111561041e5761041d6100b4565b5b610428825461010e565b610433828285610262565b5f601f831160018114610460575f841561044e578287015490505b61045885826102dd565b8655506104ca565b601f19841661046e876103dc565b96506104798661013e565b5f5b828110156104a05784890154825560018201915060018501945060208101905061047b565b868310156104bd57848901546104b9601f8916826102c1565b8355505b6001600288020188555050505b5050505050505b565b611692806104e05f395ff3fe608060405234801561000f575f5ffd5b5060043610610135575f3560e01c806380e8d626116100b6578063a93b016a1161007a578063a93b016a14610365578063b182b08314610383578063b774884a1461038d578063c5b0cb3b14610397578063d46c2dc4146103b5578063fa1ebe4f146103e557610135565b806380e8d626146102bd5780638381f58a146102db57806388e7cc08146102f95780638eace8f714610329578063a830e15f1461034757610135565b80635d36d095116100fd5780635d36d095146101df578063699450e81461020f5780636c5f59661461022d5780636d76b9261461025d57806376c3ac1d1461028d57610135565b806306c5a5f5146101395780630f91d84214610157578063235f9bc9146101755780634d5e01fb146101a557806359212064146101d5575b5f5ffd5b610141610403565b60405161014e9190610d5c565b60405180910390f35b61015f61048f565b60405161016c9190610d94565b60405180910390f35b61018f600480360381019061018a9190610eea565b610495565b60405161019c9190610d5c565b60405180910390f35b6101bf60048036038101906101ba9190610f64565b610527565b6040516101cc9190610d5c565b60405180910390f35b6101dd610662565b005b6101f960048036038101906101f49190610eea565b61067d565b6040516102069190610d5c565b60405180910390f35b610217610773565b6040516102249190610ffd565b60405180910390f35b61024760048036038101906102429190610eea565b610797565b6040516102549190610d94565b60405180910390f35b61027760048036038101906102729190611040565b6107c4565b604051610284919061107a565b60405180910390f35b6102a760048036038101906102a29190610eea565b6107d9565b6040516102b49190610d5c565b60405180910390f35b6102c56108cf565b6040516102d291906110ad565b60405180910390f35b6102e36108e1565b6040516102f09190610d94565b60405180910390f35b610313600480360381019061030e91906110f0565b6108e7565b6040516103209190610d94565b60405180910390f35b610331610905565b60405161033e9190610d5c565b60405180910390f35b61034f610991565b60405161035c9190610d5c565b60405180910390f35b61036d610a1d565b60405161037a9190610d5c565b60405180910390f35b61038b610aa9565b005b610395610ac2565b005b61039f610ade565b6040516103ac9190610d5c565b60405180910390f35b6103cf60048036038101906103ca9190610eea565b610b6a565b6040516103dc9190610d5c565b60405180910390f35b6103ed610c60565b6040516103fa9190610d5c565b60405180910390f35b6004805461041090611148565b80601f016020809104026020016040519081016040528092919081815260200182805461043c90611148565b80156104875780601f1061045e57610100808354040283529160200191610487565b820191905f5260205f20905b81548152906001019060200180831161046a57829003601f168201915b505050505081565b60085481565b6060600a80546104a490611148565b80601f01602080910402602001604051908101604052809291908181526020018280546104d090611148565b801561051b5780601f106104f25761010080835404028352916020019161051b565b820191905f5260205f20905b8154815290600101906020018083116104fe57829003601f168201915b50505050509050919050565b6060600583111561056d576040517f08c379a0000000000000000000000000000000000000000000000000000000008152600401610564906111c2565b60405180910390fd5b6004826040516020016105819291906112d2565b6040516020818303038152906040526004908161059e91906114a3565b506002826040516020016105b39291906112d2565b604051602081830303815290604052600290816105d091906114a3565b50600280546105de90611148565b80601f016020809104026020016040519081016040528092919081815260200182805461060a90611148565b80156106555780601f1061062c57610100808354040283529160200191610655565b820191905f5260205f20905b81548152906001019060200180831161063857829003601f168201915b5050505050905092915050565b5f60095f6101000a81548160ff021916908315150217905550565b60606005826040516020016106939291906112d2565b604051602081830303815290604052600590816106b091906114a3565b506002826040516020016106c59291906112d2565b604051602081830303815290604052600290816106e291906114a3565b50600280546106f090611148565b80601f016020809104026020016040519081016040528092919081815260200182805461071c90611148565b80156107675780601f1061073e57610100808354040283529160200191610767565b820191905f5260205f20905b81548152906001019060200180831161074a57829003601f168201915b50505050509050919050565b5f5f9054906101000a900473ffffffffffffffffffffffffffffffffffffffff1681565b600b818051602081018201805184825260208301602085012081835280955050505050505f915090505481565b6003602052805f5260405f205f915090505481565b60606004826040516020016107ef9291906112d2565b6040516020818303038152906040526004908161080c91906114a3565b506002826040516020016108219291906112d2565b6040516020818303038152906040526002908161083e91906114a3565b506002805461084c90611148565b80601f016020809104026020016040519081016040528092919081815260200182805461087890611148565b80156108c35780601f1061089a576101008083540402835291602001916108c3565b820191905f5260205f20905b8154815290600101906020018083116108a657829003601f168201915b50505050509050919050565b60095f9054906101000a900460ff1681565b60075481565b5f6002826108f5919061159f565b6007819055506007549050919050565b6006805461091290611148565b80601f016020809104026020016040519081016040528092919081815260200182805461093e90611148565b80156109895780601f1061096057610100808354040283529160200191610989565b820191905f5260205f20905b81548152906001019060200180831161096c57829003601f168201915b505050505081565b6001805461099e90611148565b80601f01602080910402602001604051908101604052809291908181526020018280546109ca90611148565b8015610a155780601f106109ec57610100808354040283529160200191610a15565b820191905f5260205f20905b8154815290600101906020018083116109f857829003601f168201915b505050505081565b60028054610a2a90611148565b80601f0160208091040260200160405190810160405280929190818152602001828054610a5690611148565b8015610aa15780601f10610a7857610100808354040283529160200191610aa1565b820191905f5260205f20905b815481529060010190602001808311610a8457829003601f168201915b505050505081565b60085f815480929190610abb90611615565b9190505550565b600160095f6101000a81548160ff021916908315150217905550565b600a8054610aeb90611148565b80601f0160208091040260200160405190810160405280929190818152602001828054610b1790611148565b8015610b625780601f10610b3957610100808354040283529160200191610b62565b820191905f5260205f20905b815481529060010190602001808311610b4557829003601f168201915b505050505081565b6060600682604051602001610b809291906112d2565b60405160208183030381529060405260069081610b9d91906114a3565b50600282604051602001610bb29291906112d2565b60405160208183030381529060405260029081610bcf91906114a3565b5060028054610bdd90611148565b80601f0160208091040260200160405190810160405280929190818152602001828054610c0990611148565b8015610c545780601f10610c2b57610100808354040283529160200191610c54565b820191905f5260205f20905b815481529060010190602001808311610c3757829003601f168201915b50505050509050919050565b60058054610c6d90611148565b80601f0160208091040260200160405190810160405280929190818152602001828054610c9990611148565b8015610ce45780601f10610cbb57610100808354040283529160200191610ce4565b820191905f5260205f20905b815481529060010190602001808311610cc757829003601f168201915b505050505081565b5f81519050919050565b5f82825260208201905092915050565b8281835e5f83830152505050565b5f601f19601f8301169050919050565b5f610d2e82610cec565b610d388185610cf6565b9350610d48818560208601610d06565b610d5181610d14565b840191505092915050565b5f6020820190508181035f830152610d748184610d24565b905092915050565b5f819050919050565b610d8e81610d7c565b82525050565b5f602082019050610da75f830184610d85565b92915050565b5f604051905090565b5f5ffd5b5f5ffd5b5f5ffd5b5f5ffd5b7f4e487b71000000000000000000000000000000000000000000000000000000005f52604160045260245ffd5b610dfc82610d14565b810181811067ffffffffffffffff82111715610e1b57610e1a610dc6565b5b80604052505050565b5f610e2d610dad565b9050610e398282610df3565b919050565b5f67ffffffffffffffff821115610e5857610e57610dc6565b5b610e6182610d14565b9050602081019050919050565b828183375f83830152505050565b5f610e8e610e8984610e3e565b610e24565b905082815260208101848484011115610eaa57610ea9610dc2565b5b610eb5848285610e6e565b509392505050565b5f82601f830112610ed157610ed0610dbe565b5b8135610ee1848260208601610e7c565b91505092915050565b5f60208284031215610eff57610efe610db6565b5b5f82013567ffffffffffffffff811115610f1c57610f1b610dba565b5b610f2884828501610ebd565b91505092915050565b5f819050919050565b610f4381610f31565b8114610f4d575f5ffd5b50565b5f81359050610f5e81610f3a565b92915050565b5f5f60408385031215610f7a57610f79610db6565b5b5f610f8785828601610f50565b925050602083013567ffffffffffffffff811115610fa857610fa7610dba565b5b610fb485828601610ebd565b9150509250929050565b5f73ffffffffffffffffffffffffffffffffffffffff82169050919050565b5f610fe782610fbe565b9050919050565b610ff781610fdd565b82525050565b5f6020820190506110105f830184610fee565b92915050565b61101f81610fdd565b8114611029575f5ffd5b50565b5f8135905061103a81611016565b92915050565b5f6020828403121561105557611054610db6565b5b5f6110628482850161102c565b91505092915050565b61107481610f31565b82525050565b5f60208201905061108d5f83018461106b565b92915050565b5f8115159050919050565b6110a781611093565b82525050565b5f6020820190506110c05f83018461109e565b92915050565b6110cf81610d7c565b81146110d9575f5ffd5b50565b5f813590506110ea816110c6565b92915050565b5f6020828403121561110557611104610db6565b5b5f611112848285016110dc565b91505092915050565b7f4e487b71000000000000000000000000000000000000000000000000000000005f52602260045260245ffd5b5f600282049050600182168061115f57607f821691505b6020821081036111725761117161111b565b5b50919050565b7f696e76616c6964206e756d6200000000000000000000000000000000000000005f82015250565b5f6111ac600c83610cf6565b91506111b782611178565b602082019050919050565b5f6020820190508181035f8301526111d9816111a0565b9050919050565b5f81905092915050565b5f819050815f5260205f209050919050565b5f815461120881611148565b61121281866111e0565b9450600182165f811461122c576001811461124157611273565b60ff1983168652811515820286019350611273565b61124a856111ea565b5f5b8381101561126b5781548189015260018201915060208101905061124c565b838801955050505b50505092915050565b5f61128682610cec565b61129081856111e0565b93506112a0818560208601610d06565b80840191505092915050565b7f2000000000000000000000000000000000000000000000000000000000000000815250565b5f6112dd82856111fc565b91506112e9828461127c565b91506112f4826112ac565b6001820191508190509392505050565b5f6020601f8301049050919050565b5f82821b905092915050565b5f6008830261134e7fffffffffffffffffffffffffffffffffffffffffffffffffffffffffffffffff82611313565b6113588683611313565b95508019841693508086168417925050509392505050565b5f819050919050565b5f61139361138e61138984610f31565b611370565b610f31565b9050919050565b5f819050919050565b6113ac83611379565b6113c06113b88261139a565b84845461131f565b825550505050565b5f5f905090565b6113d76113c8565b6113e28184846113a3565b505050565b5f5b82811015611408576113fd5f8284016113cf565b6001810190506113e9565b505050565b601f82111561145b578282111561145a57611427816111ea565b61143083611304565b61143985611304565b6020861015611446575f90505b808301611455828403826113e7565b505050505b5b505050565b5f82821c905092915050565b5f61147b5f1984600802611460565b1980831691505092915050565b5f611493838361146c565b9150826002028217905092915050565b6114ac82610cec565b67ffffffffffffffff8111156114c5576114c4610dc6565b5b6114cf8254611148565b6114da82828561140d565b5f60209050601f83116001811461150b575f84156114f9578287015190505b6115038582611488565b86555061156a565b601f198416611519866111ea565b5f5b828110156115405784890151825560018201915060208501945060208101905061151b565b8683101561155d5784890151611559601f89168261146c565b8355505b6001600288020188555050505b505050505050565b7f4e487b71000000000000000000000000000000000000000000000000000000005f52601160045260245ffd5b5f6115a982610d7c565b91506115b483610d7c565b92508282026115c281610d7c565b91507f800000000000000000000000000000000000000000000000000000000000000084145f841216156115f9576115f8611572565b5b828205841483151761160e5761160d611572565b5b5092915050565b5f61161f82610d7c565b91507f7fffffffffffffffffffffffffffffffffffffffffffffffffffffffffffffff820361165157611650611572565b5b60018201905091905056fea2646970667358221220ede96d2ff9e99e66caf9591b0c479f94d4585338acd1170135a71b69df128d8864736f6c63430008230033",
					"opcodes": "PUSH1 0x80 PUSH1 0x40 MSTORE PUSH1 0x40 MLOAD DUP1 PUSH1 0x40 ADD PUSH1 0x40 MSTORE DUP1 PUSH1 0x5 DUP2 MSTORE PUSH1 0x20 ADD PUSH32 0x4D69736861000000000000000000000000000000000000000000000000000000 DUP2 MSTORE POP PUSH1 0x1 SWAP1 DUP2 PUSH2 0x48 SWAP2 SWAP1 PUSH2 0x2F8 JUMP JUMPDEST POP CALLVALUE DUP1 ISZERO PUSH2 0x54 JUMPI PUSH0 PUSH0 REVERT JUMPDEST POP CALLER PUSH0 PUSH0 PUSH2 0x100 EXP DUP2 SLOAD DUP2 PUSH20 0xFFFFFFFFFFFFFFFFFFFFFFFFFFFFFFFFFFFFFFFF MUL NOT AND SWAP1 DUP4 PUSH20 0xFFFFFFFFFFFFFFFFFFFFFFFFFFFFFFFFFFFFFFFF AND MUL OR SWAP1 SSTORE POP PUSH1 0x4 PUSH1 0xA SWAP1 DUP2 PUSH2 0xA4 SWAP2 SWAP1 PUSH2 0x3EE JUMP JUMPDEST POP PUSH2 0x4D3 JUMP JUMPDEST PUSH0 DUP2 MLOAD SWAP1 POP SWAP2 SWAP1 POP JUMP JUMPDEST PUSH32 0x4E487B7100000000000000000000000000000000000000000000000000000000 PUSH0 MSTORE PUSH1 0x41 PUSH1 0x4 MSTORE PUSH1 0x24 PUSH0 REVERT JUMPDEST PUSH32 0x4E487B7100000000000000000000000000000000000000000000000000000000 PUSH0 MSTORE PUSH1 0x22 PUSH1 0x4 MSTORE PUSH1 0x24 PUSH0 REVERT JUMPDEST PUSH0 PUSH1 0x2 DUP3 DIV SWAP1 POP PUSH1 0x1 DUP3 AND DUP1 PUSH2 0x125 JUMPI PUSH1 0x7F DUP3 AND SWAP2 POP JUMPDEST PUSH1 0x20 DUP3 LT DUP2 SUB PUSH2 0x138 JUMPI PUSH2 0x137 PUSH2 0xE1 JUMP JUMPDEST JUMPDEST POP SWAP2 SWAP1 POP JUMP JUMPDEST PUSH0 DUP2 SWAP1 POP DUP2 PUSH0 MSTORE PUSH1 0x20 PUSH0 KECCAK256 SWAP1 POP SWAP2 SWAP1 POP JUMP JUMPDEST PUSH0 PUSH1 0x20 PUSH1 0x1F DUP4 ADD DIV SWAP1 POP SWAP2 SWAP1 POP JUMP JUMPDEST PUSH0 DUP3 DUP3 SHL SWAP1 POP SWAP3 SWAP2 POP POP JUMP JUMPDEST PUSH0 PUSH1 0x8 DUP4 MUL PUSH2 0x19A PUSH32 0xFFFFFFFFFFFFFFFFFFFFFFFFFFFFFFFFFFFFFFFFFFFFFFFFFFFFFFFFFFFFFFFF DUP3 PUSH2 0x15F JUMP JUMPDEST PUSH2 0x1A4 DUP7 DUP4 PUSH2 0x15F JUMP JUMPDEST SWAP6 POP DUP1 NOT DUP5 AND SWAP4 POP DUP1 DUP7 AND DUP5 OR SWAP3 POP POP POP SWAP4 SWAP3 POP POP POP JUMP JUMPDEST PUSH0 DUP2 SWAP1 POP SWAP2 SWAP1 POP JUMP JUMPDEST PUSH0 DUP2 SWAP1 POP SWAP2 SWAP1 POP JUMP JUMPDEST PUSH0 PUSH2 0x1E8 PUSH2 0x1E3 PUSH2 0x1DE DUP5 PUSH2 0x1BC JUMP JUMPDEST PUSH2 0x1C5 JUMP JUMPDEST PUSH2 0x1BC JUMP JUMPDEST SWAP1 POP SWAP2 SWAP1 POP JUMP JUMPDEST PUSH0 DUP2 SWAP1 POP SWAP2 SWAP1 POP JUMP JUMPDEST PUSH2 0x201 DUP4 PUSH2 0x1CE JUMP JUMPDEST PUSH2 0x215 PUSH2 0x20D DUP3 PUSH2 0x1EF JUMP JUMPDEST DUP5 DUP5 SLOAD PUSH2 0x16B JUMP JUMPDEST DUP3 SSTORE POP POP POP POP JUMP JUMPDEST PUSH0 PUSH0 SWAP1 POP SWAP1 JUMP JUMPDEST PUSH2 0x22C PUSH2 0x21D JUMP JUMPDEST PUSH2 0x237 DUP2 DUP5 DUP5 PUSH2 0x1F8 JUMP JUMPDEST POP POP POP JUMP JUMPDEST PUSH0 JUMPDEST DUP3 DUP2 LT ISZERO PUSH2 0x25D JUMPI PUSH2 0x252 PUSH0 DUP3 DUP5 ADD PUSH2 0x224 JUMP JUMPDEST PUSH1 0x1 DUP2 ADD SWAP1 POP PUSH2 0x23E JUMP JUMPDEST POP POP POP JUMP JUMPDEST PUSH1 0x1F DUP3 GT ISZERO PUSH2 0x2B0 JUMPI DUP3 DUP3 GT ISZERO PUSH2 0x2AF JUMPI PUSH2 0x27C DUP2 PUSH2 0x13E JUMP JUMPDEST PUSH2 0x285 DUP4 PUSH2 0x150 JUMP JUMPDEST PUSH2 0x28E DUP6 PUSH2 0x150 JUMP JUMPDEST PUSH1 0x20 DUP7 LT ISZERO PUSH2 0x29B JUMPI PUSH0 SWAP1 POP JUMPDEST DUP1 DUP4 ADD PUSH2 0x2AA DUP3 DUP5 SUB DUP3 PUSH2 0x23C JUMP JUMPDEST POP POP POP POP JUMPDEST JUMPDEST POP POP POP JUMP JUMPDEST PUSH0 DUP3 DUP3 SHR SWAP1 POP SWAP3 SWAP2 POP POP JUMP JUMPDEST PUSH0 PUSH2 0x2D0 PUSH0 NOT DUP5 PUSH1 0x8 MUL PUSH2 0x2B5 JUMP JUMPDEST NOT DUP1 DUP4 AND SWAP2 POP POP SWAP3 SWAP2 POP POP JUMP JUMPDEST PUSH0 PUSH2 0x2E8 DUP4 DUP4 PUSH2 0x2C1 JUMP JUMPDEST SWAP2 POP DUP3 PUSH1 0x2 MUL DUP3 OR SWAP1 POP SWAP3 SWAP2 POP POP JUMP JUMPDEST PUSH2 0x301 DUP3 PUSH2 0xAA JUMP JUMPDEST PUSH8 0xFFFFFFFFFFFFFFFF DUP2 GT ISZERO PUSH2 0x31A JUMPI PUSH2 0x319 PUSH2 0xB4 JUMP JUMPDEST JUMPDEST PUSH2 0x324 DUP3 SLOAD PUSH2 0x10E JUMP JUMPDEST PUSH2 0x32F DUP3 DUP3 DUP6 PUSH2 0x262 JUMP JUMPDEST PUSH0 PUSH1 0x20 SWAP1 POP PUSH1 0x1F DUP4 GT PUSH1 0x1 DUP2 EQ PUSH2 0x360 JUMPI PUSH0 DUP5 ISZERO PUSH2 0x34E JUMPI DUP3 DUP8 ADD MLOAD SWAP1 POP JUMPDEST PUSH2 0x358 DUP6 DUP3 PUSH2 0x2DD JUMP JUMPDEST DUP7 SSTORE POP PUSH2 0x3BF JUMP JUMPDEST PUSH1 0x1F NOT DUP5 AND PUSH2 0x36E DUP7 PUSH2 0x13E JUMP JUMPDEST PUSH0 JUMPDEST DUP3 DUP2 LT ISZERO PUSH2 0x395 JUMPI DUP5 DUP10 ADD MLOAD DUP3 SSTORE PUSH1 0x1 DUP3 ADD SWAP2 POP PUSH1 0x20 DUP6 ADD SWAP5 POP PUSH1 0x20 DUP2 ADD SWAP1 POP PUSH2 0x370 JUMP JUMPDEST DUP7 DUP4 LT ISZERO PUSH2 0x3B2 JUMPI DUP5 DUP10 ADD MLOAD PUSH2 0x3AE PUSH1 0x1F DUP10 AND DUP3 PUSH2 0x2C1 JUMP JUMPDEST DUP4 SSTORE POP JUMPDEST PUSH1 0x1 PUSH1 0x2 DUP9 MUL ADD DUP9 SSTORE POP POP POP JUMPDEST POP POP POP POP POP POP JUMP JUMPDEST PUSH0 DUP2 SLOAD SWAP1 POP PUSH2 0x3D5 DUP2 PUSH2 0x10E JUMP JUMPDEST SWAP1 POP SWAP2 SWAP1 POP JUMP JUMPDEST PUSH0 DUP2 SWAP1 POP DUP2 PUSH0 MSTORE PUSH1 0x20 PUSH0 KECCAK256 SWAP1 POP SWAP2 SWAP1 POP JUMP JUMPDEST DUP2 DUP2 SUB PUSH2 0x3FC JUMPI POP POP PUSH2 0x4D1 JUMP JUMPDEST PUSH2 0x405 DUP3 PUSH2 0x3C7 JUMP JUMPDEST PUSH8 0xFFFFFFFFFFFFFFFF DUP2 GT ISZERO PUSH2 0x41E JUMPI PUSH2 0x41D PUSH2 0xB4 JUMP JUMPDEST JUMPDEST PUSH2 0x428 DUP3 SLOAD PUSH2 0x10E JUMP JUMPDEST PUSH2 0x433 DUP3 DUP3 DUP6 PUSH2 0x262 JUMP JUMPDEST PUSH0 PUSH1 0x1F DUP4 GT PUSH1 0x1 DUP2 EQ PUSH2 0x460 JUMPI PUSH0 DUP5 ISZERO PUSH2 0x44E JUMPI DUP3 DUP8 ADD SLOAD SWAP1 POP JUMPDEST PUSH2 0x458 DUP6 DUP3 PUSH2 0x2DD JUMP JUMPDEST DUP7 SSTORE POP PUSH2 0x4CA JUMP JUMPDEST PUSH1 0x1F NOT DUP5 AND PUSH2 0x46E DUP8 PUSH2 0x3DC JUMP JUMPDEST SWAP7 POP PUSH2 0x479 DUP7 PUSH2 0x13E JUMP JUMPDEST PUSH0 JUMPDEST DUP3 DUP2 LT ISZERO PUSH2 0x4A0 JUMPI DUP5 DUP10 ADD SLOAD DUP3 SSTORE PUSH1 0x1 DUP3 ADD SWAP2 POP PUSH1 0x1 DUP6 ADD SWAP5 POP PUSH1 0x20 DUP2 ADD SWAP1 POP PUSH2 0x47B JUMP JUMPDEST DUP7 DUP4 LT ISZERO PUSH2 0x4BD JUMPI DUP5 DUP10 ADD SLOAD PUSH2 0x4B9 PUSH1 0x1F DUP10 AND DUP3 PUSH2 0x2C1 JUMP JUMPDEST DUP4 SSTORE POP JUMPDEST PUSH1 0x1 PUSH1 0x2 DUP9 MUL ADD DUP9 SSTORE POP POP POP JUMPDEST POP POP POP POP POP POP JUMPDEST JUMP JUMPDEST PUSH2 0x1692 DUP1 PUSH2 0x4E0 PUSH0 CODECOPY PUSH0 RETURN INVALID PUSH1 0x80 PUSH1 0x40 MSTORE CALLVALUE DUP1 ISZERO PUSH2 0xF JUMPI PUSH0 PUSH0 REVERT JUMPDEST POP PUSH1 0x4 CALLDATASIZE LT PUSH2 0x135 JUMPI PUSH0 CALLDATALOAD PUSH1 0xE0 SHR DUP1 PUSH4 0x80E8D626 GT PUSH2 0xB6 JUMPI DUP1 PUSH4 0xA93B016A GT PUSH2 0x7A JUMPI DUP1 PUSH4 0xA93B016A EQ PUSH2 0x365 JUMPI DUP1 PUSH4 0xB182B083 EQ PUSH2 0x383 JUMPI DUP1 PUSH4 0xB774884A EQ PUSH2 0x38D JUMPI DUP1 PUSH4 0xC5B0CB3B EQ PUSH2 0x397 JUMPI DUP1 PUSH4 0xD46C2DC4 EQ PUSH2 0x3B5 JUMPI DUP1 PUSH4 0xFA1EBE4F EQ PUSH2 0x3E5 JUMPI PUSH2 0x135 JUMP JUMPDEST DUP1 PUSH4 0x80E8D626 EQ PUSH2 0x2BD JUMPI DUP1 PUSH4 0x8381F58A EQ PUSH2 0x2DB JUMPI DUP1 PUSH4 0x88E7CC08 EQ PUSH2 0x2F9 JUMPI DUP1 PUSH4 0x8EACE8F7 EQ PUSH2 0x329 JUMPI DUP1 PUSH4 0xA830E15F EQ PUSH2 0x347 JUMPI PUSH2 0x135 JUMP JUMPDEST DUP1 PUSH4 0x5D36D095 GT PUSH2 0xFD JUMPI DUP1 PUSH4 0x5D36D095 EQ PUSH2 0x1DF JUMPI DUP1 PUSH4 0x699450E8 EQ PUSH2 0x20F JUMPI DUP1 PUSH4 0x6C5F5966 EQ PUSH2 0x22D JUMPI DUP1 PUSH4 0x6D76B926 EQ PUSH2 0x25D JUMPI DUP1 PUSH4 0x76C3AC1D EQ PUSH2 0x28D JUMPI PUSH2 0x135 JUMP JUMPDEST DUP1 PUSH4 0x6C5A5F5 EQ PUSH2 0x139 JUMPI DUP1 PUSH4 0xF91D842 EQ PUSH2 0x157 JUMPI DUP1 PUSH4 0x235F9BC9 EQ PUSH2 0x175 JUMPI DUP1 PUSH4 0x4D5E01FB EQ PUSH2 0x1A5 JUMPI DUP1 PUSH4 0x59212064 EQ PUSH2 0x1D5 JUMPI JUMPDEST PUSH0 PUSH0 REVERT JUMPDEST PUSH2 0x141 PUSH2 0x403 JUMP JUMPDEST PUSH1 0x40 MLOAD PUSH2 0x14E SWAP2 SWAP1 PUSH2 0xD5C JUMP JUMPDEST PUSH1 0x40 MLOAD DUP1 SWAP2 SUB SWAP1 RETURN JUMPDEST PUSH2 0x15F PUSH2 0x48F JUMP JUMPDEST PUSH1 0x40 MLOAD PUSH2 0x16C SWAP2 SWAP1 PUSH2 0xD94 JUMP JUMPDEST PUSH1 0x40 MLOAD DUP1 SWAP2 SUB SWAP1 RETURN JUMPDEST PUSH2 0x18F PUSH1 0x4 DUP1 CALLDATASIZE SUB DUP2 ADD SWAP1 PUSH2 0x18A SWAP2 SWAP1 PUSH2 0xEEA JUMP JUMPDEST PUSH2 0x495 JUMP JUMPDEST PUSH1 0x40 MLOAD PUSH2 0x19C SWAP2 SWAP1 PUSH2 0xD5C JUMP JUMPDEST PUSH1 0x40 MLOAD DUP1 SWAP2 SUB SWAP1 RETURN JUMPDEST PUSH2 0x1BF PUSH1 0x4 DUP1 CALLDATASIZE SUB DUP2 ADD SWAP1 PUSH2 0x1BA SWAP2 SWAP1 PUSH2 0xF64 JUMP JUMPDEST PUSH2 0x527 JUMP JUMPDEST PUSH1 0x40 MLOAD PUSH2 0x1CC SWAP2 SWAP1 PUSH2 0xD5C JUMP JUMPDEST PUSH1 0x40 MLOAD DUP1 SWAP2 SUB SWAP1 RETURN JUMPDEST PUSH2 0x1DD PUSH2 0x662 JUMP JUMPDEST STOP JUMPDEST PUSH2 0x1F9 PUSH1 0x4 DUP1 CALLDATASIZE SUB DUP2 ADD SWAP1 PUSH2 0x1F4 SWAP2 SWAP1 PUSH2 0xEEA JUMP JUMPDEST PUSH2 0x67D JUMP JUMPDEST PUSH1 0x40 MLOAD PUSH2 0x206 SWAP2 SWAP1 PUSH2 0xD5C JUMP JUMPDEST PUSH1 0x40 MLOAD DUP1 SWAP2 SUB SWAP1 RETURN JUMPDEST PUSH2 0x217 PUSH2 0x773 JUMP JUMPDEST PUSH1 0x40 MLOAD PUSH2 0x224 SWAP2 SWAP1 PUSH2 0xFFD JUMP JUMPDEST PUSH1 0x40 MLOAD DUP1 SWAP2 SUB SWAP1 RETURN JUMPDEST PUSH2 0x247 PUSH1 0x4 DUP1 CALLDATASIZE SUB DUP2 ADD SWAP1 PUSH2 0x242 SWAP2 SWAP1 PUSH2 0xEEA JUMP JUMPDEST PUSH2 0x797 JUMP JUMPDEST PUSH1 0x40 MLOAD PUSH2 0x254 SWAP2 SWAP1 PUSH2 0xD94 JUMP JUMPDEST PUSH1 0x40 MLOAD DUP1 SWAP2 SUB SWAP1 RETURN JUMPDEST PUSH2 0x277 PUSH1 0x4 DUP1 CALLDATASIZE SUB DUP2 ADD SWAP1 PUSH2 0x272 SWAP2 SWAP1 PUSH2 0x1040 JUMP JUMPDEST PUSH2 0x7C4 JUMP JUMPDEST PUSH1 0x40 MLOAD PUSH2 0x284 SWAP2 SWAP1 PUSH2 0x107A JUMP JUMPDEST PUSH1 0x40 MLOAD DUP1 SWAP2 SUB SWAP1 RETURN JUMPDEST PUSH2 0x2A7 PUSH1 0x4 DUP1 CALLDATASIZE SUB DUP2 ADD SWAP1 PUSH2 0x2A2 SWAP2 SWAP1 PUSH2 0xEEA JUMP JUMPDEST PUSH2 0x7D9 JUMP JUMPDEST PUSH1 0x40 MLOAD PUSH2 0x2B4 SWAP2 SWAP1 PUSH2 0xD5C JUMP JUMPDEST PUSH1 0x40 MLOAD DUP1 SWAP2 SUB SWAP1 RETURN JUMPDEST PUSH2 0x2C5 PUSH2 0x8CF JUMP JUMPDEST PUSH1 0x40 MLOAD PUSH2 0x2D2 SWAP2 SWAP1 PUSH2 0x10AD JUMP JUMPDEST PUSH1 0x40 MLOAD DUP1 SWAP2 SUB SWAP1 RETURN JUMPDEST PUSH2 0x2E3 PUSH2 0x8E1 JUMP JUMPDEST PUSH1 0x40 MLOAD PUSH2 0x2F0 SWAP2 SWAP1 PUSH2 0xD94 JUMP JUMPDEST PUSH1 0x40 MLOAD DUP1 SWAP2 SUB SWAP1 RETURN JUMPDEST PUSH2 0x313 PUSH1 0x4 DUP1 CALLDATASIZE SUB DUP2 ADD SWAP1 PUSH2 0x30E SWAP2 SWAP1 PUSH2 0x10F0 JUMP JUMPDEST PUSH2 0x8E7 JUMP JUMPDEST PUSH1 0x40 MLOAD PUSH2 0x320 SWAP2 SWAP1 PUSH2 0xD94 JUMP JUMPDEST PUSH1 0x40 MLOAD DUP1 SWAP2 SUB SWAP1 RETURN JUMPDEST PUSH2 0x331 PUSH2 0x905 JUMP JUMPDEST PUSH1 0x40 MLOAD PUSH2 0x33E SWAP2 SWAP1 PUSH2 0xD5C JUMP JUMPDEST PUSH1 0x40 MLOAD DUP1 SWAP2 SUB SWAP1 RETURN JUMPDEST PUSH2 0x34F PUSH2 0x991 JUMP JUMPDEST PUSH1 0x40 MLOAD PUSH2 0x35C SWAP2 SWAP1 PUSH2 0xD5C JUMP JUMPDEST PUSH1 0x40 MLOAD DUP1 SWAP2 SUB SWAP1 RETURN JUMPDEST PUSH2 0x36D PUSH2 0xA1D JUMP JUMPDEST PUSH1 0x40 MLOAD PUSH2 0x37A SWAP2 SWAP1 PUSH2 0xD5C JUMP JUMPDEST PUSH1 0x40 MLOAD DUP1 SWAP2 SUB SWAP1 RETURN JUMPDEST PUSH2 0x38B PUSH2 0xAA9 JUMP JUMPDEST STOP JUMPDEST PUSH2 0x395 PUSH2 0xAC2 JUMP JUMPDEST STOP JUMPDEST PUSH2 0x39F PUSH2 0xADE JUMP JUMPDEST PUSH1 0x40 MLOAD PUSH2 0x3AC SWAP2 SWAP1 PUSH2 0xD5C JUMP JUMPDEST PUSH1 0x40 MLOAD DUP1 SWAP2 SUB SWAP1 RETURN JUMPDEST PUSH2 0x3CF PUSH1 0x4 DUP1 CALLDATASIZE SUB DUP2 ADD SWAP1 PUSH2 0x3CA SWAP2 SWAP1 PUSH2 0xEEA JUMP JUMPDEST PUSH2 0xB6A JUMP JUMPDEST PUSH1 0x40 MLOAD PUSH2 0x3DC SWAP2 SWAP1 PUSH2 0xD5C JUMP JUMPDEST PUSH1 0x40 MLOAD DUP1 SWAP2 SUB SWAP1 RETURN JUMPDEST PUSH2 0x3ED PUSH2 0xC60 JUMP JUMPDEST PUSH1 0x40 MLOAD PUSH2 0x3FA SWAP2 SWAP1 PUSH2 0xD5C JUMP JUMPDEST PUSH1 0x40 MLOAD DUP1 SWAP2 SUB SWAP1 RETURN JUMPDEST PUSH1 0x4 DUP1 SLOAD PUSH2 0x410 SWAP1 PUSH2 0x1148 JUMP JUMPDEST DUP1 PUSH1 0x1F ADD PUSH1 0x20 DUP1 SWAP2 DIV MUL PUSH1 0x20 ADD PUSH1 0x40 MLOAD SWAP1 DUP2 ADD PUSH1 0x40 MSTORE DUP1 SWAP3 SWAP2 SWAP1 DUP2 DUP2 MSTORE PUSH1 0x20 ADD DUP3 DUP1 SLOAD PUSH2 0x43C SWAP1 PUSH2 0x1148 JUMP JUMPDEST DUP1 ISZERO PUSH2 0x487 JUMPI DUP1 PUSH1 0x1F LT PUSH2 0x45E JUMPI PUSH2 0x100 DUP1 DUP4 SLOAD DIV MUL DUP4 MSTORE SWAP2 PUSH1 0x20 ADD SWAP2 PUSH2 0x487 JUMP JUMPDEST DUP3 ADD SWAP2 SWAP1 PUSH0 MSTORE PUSH1 0x20 PUSH0 KECCAK256 SWAP1 JUMPDEST DUP2 SLOAD DUP2 MSTORE SWAP1 PUSH1 0x1 ADD SWAP1 PUSH1 0x20 ADD DUP1 DUP4 GT PUSH2 0x46A JUMPI DUP3 SWAP1 SUB PUSH1 0x1F AND DUP3 ADD SWAP2 JUMPDEST POP POP POP POP POP DUP2 JUMP JUMPDEST PUSH1 0x8 SLOAD DUP2 JUMP JUMPDEST PUSH1 0x60 PUSH1 0xA DUP1 SLOAD PUSH2 0x4A4 SWAP1 PUSH2 0x1148 JUMP JUMPDEST DUP1 PUSH1 0x1F ADD PUSH1 0x20 DUP1 SWAP2 DIV MUL PUSH1 0x20 ADD PUSH1 0x40 MLOAD SWAP1 DUP2 ADD PUSH1 0x40 MSTORE DUP1 SWAP3 SWAP2 SWAP1 DUP2 DUP2 MSTORE PUSH1 0x20 ADD DUP3 DUP1 SLOAD PUSH2 0x4D0 SWAP1 PUSH2 0x1148 JUMP JUMPDEST DUP1 ISZERO PUSH2 0x51B JUMPI DUP1 PUSH1 0x1F LT PUSH2 0x4F2 JUMPI PUSH2 0x100 DUP1 DUP4 SLOAD DIV MUL DUP4 MSTORE SWAP2 PUSH1 0x20 ADD SWAP2 PUSH2 0x51B JUMP JUMPDEST DUP3 ADD SWAP2 SWAP1 PUSH0 MSTORE PUSH1 0x20 PUSH0 KECCAK256 SWAP1 JUMPDEST DUP2 SLOAD DUP2 MSTORE SWAP1 PUSH1 0x1 ADD SWAP1 PUSH1 0x20 ADD DUP1 DUP4 GT PUSH2 0x4FE JUMPI DUP3 SWAP1 SUB PUSH1 0x1F AND DUP3 ADD SWAP2 JUMPDEST POP POP POP POP POP SWAP1 POP SWAP2 SWAP1 POP JUMP JUMPDEST PUSH1 0x60 PUSH1 0x5 DUP4 GT ISZERO PUSH2 0x56D JUMPI PUSH1 0x40 MLOAD PUSH32 0x8C379A000000000000000000000000000000000000000000000000000000000 DUP2 MSTORE PUSH1 0x4 ADD PUSH2 0x564 SWAP1 PUSH2 0x11C2 JUMP JUMPDEST PUSH1 0x40 MLOAD DUP1 SWAP2 SUB SWAP1 REVERT JUMPDEST PUSH1 0x4 DUP3 PUSH1 0x40 MLOAD PUSH1 0x20 ADD PUSH2 0x581 SWAP3 SWAP2 SWAP1 PUSH2 0x12D2 JUMP JUMPDEST PUSH1 0x40 MLOAD PUSH1 0x20 DUP2 DUP4 SUB SUB DUP2 MSTORE SWAP1 PUSH1 0x40 MSTORE PUSH1 0x4 SWAP1 DUP2 PUSH2 0x59E SWAP2 SWAP1 PUSH2 0x14A3 JUMP JUMPDEST POP PUSH1 0x2 DUP3 PUSH1 0x40 MLOAD PUSH1 0x20 ADD PUSH2 0x5B3 SWAP3 SWAP2 SWAP1 PUSH2 0x12D2 JUMP JUMPDEST PUSH1 0x40 MLOAD PUSH1 0x20 DUP2 DUP4 SUB SUB DUP2 MSTORE SWAP1 PUSH1 0x40 MSTORE PUSH1 0x2 SWAP1 DUP2 PUSH2 0x5D0 SWAP2 SWAP1 PUSH2 0x14A3 JUMP JUMPDEST POP PUSH1 0x2 DUP1 SLOAD PUSH2 0x5DE SWAP1 PUSH2 0x1148 JUMP JUMPDEST DUP1 PUSH1 0x1F ADD PUSH1 0x20 DUP1 SWAP2 DIV MUL PUSH1 0x20 ADD PUSH1 0x40 MLOAD SWAP1 DUP2 ADD PUSH1 0x40 MSTORE DUP1 SWAP3 SWAP2 SWAP1 DUP2 DUP2 MSTORE PUSH1 0x20 ADD DUP3 DUP1 SLOAD PUSH2 0x60A SWAP1 PUSH2 0x1148 JUMP JUMPDEST DUP1 ISZERO PUSH2 0x655 JUMPI DUP1 PUSH1 0x1F LT PUSH2 0x62C JUMPI PUSH2 0x100 DUP1 DUP4 SLOAD DIV MUL DUP4 MSTORE SWAP2 PUSH1 0x20 ADD SWAP2 PUSH2 0x655 JUMP JUMPDEST DUP3 ADD SWAP2 SWAP1 PUSH0 MSTORE PUSH1 0x20 PUSH0 KECCAK256 SWAP1 JUMPDEST DUP2 SLOAD DUP2 MSTORE SWAP1 PUSH1 0x1 ADD SWAP1 PUSH1 0x20 ADD DUP1 DUP4 GT PUSH2 0x638 JUMPI DUP3 SWAP1 SUB PUSH1 0x1F AND DUP3 ADD SWAP2 JUMPDEST POP POP POP POP POP SWAP1 POP SWAP3 SWAP2 POP POP JUMP JUMPDEST PUSH0 PUSH1 0x9 PUSH0 PUSH2 0x100 EXP DUP2 SLOAD DUP2 PUSH1 0xFF MUL NOT AND SWAP1 DUP4 ISZERO ISZERO MUL OR SWAP1 SSTORE POP JUMP JUMPDEST PUSH1 0x60 PUSH1 0x5 DUP3 PUSH1 0x40 MLOAD PUSH1 0x20 ADD PUSH2 0x693 SWAP3 SWAP2 SWAP1 PUSH2 0x12D2 JUMP JUMPDEST PUSH1 0x40 MLOAD PUSH1 0x20 DUP2 DUP4 SUB SUB DUP2 MSTORE SWAP1 PUSH1 0x40 MSTORE PUSH1 0x5 SWAP1 DUP2 PUSH2 0x6B0 SWAP2 SWAP1 PUSH2 0x14A3 JUMP JUMPDEST POP PUSH1 0x2 DUP3 PUSH1 0x40 MLOAD PUSH1 0x20 ADD PUSH2 0x6C5 SWAP3 SWAP2 SWAP1 PUSH2 0x12D2 JUMP JUMPDEST PUSH1 0x40 MLOAD PUSH1 0x20 DUP2 DUP4 SUB SUB DUP2 MSTORE SWAP1 PUSH1 0x40 MSTORE PUSH1 0x2 SWAP1 DUP2 PUSH2 0x6E2 SWAP2 SWAP1 PUSH2 0x14A3 JUMP JUMPDEST POP PUSH1 0x2 DUP1 SLOAD PUSH2 0x6F0 SWAP1 PUSH2 0x1148 JUMP JUMPDEST DUP1 PUSH1 0x1F ADD PUSH1 0x20 DUP1 SWAP2 DIV MUL PUSH1 0x20 ADD PUSH1 0x40 MLOAD SWAP1 DUP2 ADD PUSH1 0x40 MSTORE DUP1 SWAP3 SWAP2 SWAP1 DUP2 DUP2 MSTORE PUSH1 0x20 ADD DUP3 DUP1 SLOAD PUSH2 0x71C SWAP1 PUSH2 0x1148 JUMP JUMPDEST DUP1 ISZERO PUSH2 0x767 JUMPI DUP1 PUSH1 0x1F LT PUSH2 0x73E JUMPI PUSH2 0x100 DUP1 DUP4 SLOAD DIV MUL DUP4 MSTORE SWAP2 PUSH1 0x20 ADD SWAP2 PUSH2 0x767 JUMP JUMPDEST DUP3 ADD SWAP2 SWAP1 PUSH0 MSTORE PUSH1 0x20 PUSH0 KECCAK256 SWAP1 JUMPDEST DUP2 SLOAD DUP2 MSTORE SWAP1 PUSH1 0x1 ADD SWAP1 PUSH1 0x20 ADD DUP1 DUP4 GT PUSH2 0x74A JUMPI DUP3 SWAP1 SUB PUSH1 0x1F AND DUP3 ADD SWAP2 JUMPDEST POP POP POP POP POP SWAP1 POP SWAP2 SWAP1 POP JUMP JUMPDEST PUSH0 PUSH0 SWAP1 SLOAD SWAP1 PUSH2 0x100 EXP SWAP1 DIV PUSH20 0xFFFFFFFFFFFFFFFFFFFFFFFFFFFFFFFFFFFFFFFF AND DUP2 JUMP JUMPDEST PUSH1 0xB DUP2 DUP1 MLOAD PUSH1 0x20 DUP2 ADD DUP3 ADD DUP1 MLOAD DUP5 DUP3 MSTORE PUSH1 0x20 DUP4 ADD PUSH1 0x20 DUP6 ADD KECCAK256 DUP2 DUP4 MSTORE DUP1 SWAP6 POP POP POP POP POP POP PUSH0 SWAP2 POP SWAP1 POP SLOAD DUP2 JUMP JUMPDEST PUSH1 0x3 PUSH1 0x20 MSTORE DUP1 PUSH0 MSTORE PUSH1 0x40 PUSH0 KECCAK256 PUSH0 SWAP2 POP SWAP1 POP SLOAD DUP2 JUMP JUMPDEST PUSH1 0x60 PUSH1 0x4 DUP3 PUSH1 0x40 MLOAD PUSH1 0x20 ADD PUSH2 0x7EF SWAP3 SWAP2 SWAP1 PUSH2 0x12D2 JUMP JUMPDEST PUSH1 0x40 MLOAD PUSH1 0x20 DUP2 DUP4 SUB SUB DUP2 MSTORE SWAP1 PUSH1 0x40 MSTORE PUSH1 0x4 SWAP1 DUP2 PUSH2 0x80C SWAP2 SWAP1 PUSH2 0x14A3 JUMP JUMPDEST POP PUSH1 0x2 DUP3 PUSH1 0x40 MLOAD PUSH1 0x20 ADD PUSH2 0x821 SWAP3 SWAP2 SWAP1 PUSH2 0x12D2 JUMP JUMPDEST PUSH1 0x40 MLOAD PUSH1 0x20 DUP2 DUP4 SUB SUB DUP2 MSTORE SWAP1 PUSH1 0x40 MSTORE PUSH1 0x2 SWAP1 DUP2 PUSH2 0x83E SWAP2 SWAP1 PUSH2 0x14A3 JUMP JUMPDEST POP PUSH1 0x2 DUP1 SLOAD PUSH2 0x84C SWAP1 PUSH2 0x1148 JUMP JUMPDEST DUP1 PUSH1 0x1F ADD PUSH1 0x20 DUP1 SWAP2 DIV MUL PUSH1 0x20 ADD PUSH1 0x40 MLOAD SWAP1 DUP2 ADD PUSH1 0x40 MSTORE DUP1 SWAP3 SWAP2 SWAP1 DUP2 DUP2 MSTORE PUSH1 0x20 ADD DUP3 DUP1 SLOAD PUSH2 0x878 SWAP1 PUSH2 0x1148 JUMP JUMPDEST DUP1 ISZERO PUSH2 0x8C3 JUMPI DUP1 PUSH1 0x1F LT PUSH2 0x89A JUMPI PUSH2 0x100 DUP1 DUP4 SLOAD DIV MUL DUP4 MSTORE SWAP2 PUSH1 0x20 ADD SWAP2 PUSH2 0x8C3 JUMP JUMPDEST DUP3 ADD SWAP2 SWAP1 PUSH0 MSTORE PUSH1 0x20 PUSH0 KECCAK256 SWAP1 JUMPDEST DUP2 SLOAD DUP2 MSTORE SWAP1 PUSH1 0x1 ADD SWAP1 PUSH1 0x20 ADD DUP1 DUP4 GT PUSH2 0x8A6 JUMPI DUP3 SWAP1 SUB PUSH1 0x1F AND DUP3 ADD SWAP2 JUMPDEST POP POP POP POP POP SWAP1 POP SWAP2 SWAP1 POP JUMP JUMPDEST PUSH1 0x9 PUSH0 SWAP1 SLOAD SWAP1 PUSH2 0x100 EXP SWAP1 DIV PUSH1 0xFF AND DUP2 JUMP JUMPDEST PUSH1 0x7 SLOAD DUP2 JUMP JUMPDEST PUSH0 PUSH1 0x2 DUP3 PUSH2 0x8F5 SWAP2 SWAP1 PUSH2 0x159F JUMP JUMPDEST PUSH1 0x7 DUP2 SWAP1 SSTORE POP PUSH1 0x7 SLOAD SWAP1 POP SWAP2 SWAP1 POP JUMP JUMPDEST PUSH1 0x6 DUP1 SLOAD PUSH2 0x912 SWAP1 PUSH2 0x1148 JUMP JUMPDEST DUP1 PUSH1 0x1F ADD PUSH1 0x20 DUP1 SWAP2 DIV MUL PUSH1 0x20 ADD PUSH1 0x40 MLOAD SWAP1 DUP2 ADD PUSH1 0x40 MSTORE DUP1 SWAP3 SWAP2 SWAP1 DUP2 DUP2 MSTORE PUSH1 0x20 ADD DUP3 DUP1 SLOAD PUSH2 0x93E SWAP1 PUSH2 0x1148 JUMP JUMPDEST DUP1 ISZERO PUSH2 0x989 JUMPI DUP1 PUSH1 0x1F LT PUSH2 0x960 JUMPI PUSH2 0x100 DUP1 DUP4 SLOAD DIV MUL DUP4 MSTORE SWAP2 PUSH1 0x20 ADD SWAP2 PUSH2 0x989 JUMP JUMPDEST DUP3 ADD SWAP2 SWAP1 PUSH0 MSTORE PUSH1 0x20 PUSH0 KECCAK256 SWAP1 JUMPDEST DUP2 SLOAD DUP2 MSTORE SWAP1 PUSH1 0x1 ADD SWAP1 PUSH1 0x20 ADD DUP1 DUP4 GT PUSH2 0x96C JUMPI DUP3 SWAP1 SUB PUSH1 0x1F AND DUP3 ADD SWAP2 JUMPDEST POP POP POP POP POP DUP2 JUMP JUMPDEST PUSH1 0x1 DUP1 SLOAD PUSH2 0x99E SWAP1 PUSH2 0x1148 JUMP JUMPDEST DUP1 PUSH1 0x1F ADD PUSH1 0x20 DUP1 SWAP2 DIV MUL PUSH1 0x20 ADD PUSH1 0x40 MLOAD SWAP1 DUP2 ADD PUSH1 0x40 MSTORE DUP1 SWAP3 SWAP2 SWAP1 DUP2 DUP2 MSTORE PUSH1 0x20 ADD DUP3 DUP1 SLOAD PUSH2 0x9CA SWAP1 PUSH2 0x1148 JUMP JUMPDEST DUP1 ISZERO PUSH2 0xA15 JUMPI DUP1 PUSH1 0x1F LT PUSH2 0x9EC JUMPI PUSH2 0x100 DUP1 DUP4 SLOAD DIV MUL DUP4 MSTORE SWAP2 PUSH1 0x20 ADD SWAP2 PUSH2 0xA15 JUMP JUMPDEST DUP3 ADD SWAP2 SWAP1 PUSH0 MSTORE PUSH1 0x20 PUSH0 KECCAK256 SWAP1 JUMPDEST DUP2 SLOAD DUP2 MSTORE SWAP1 PUSH1 0x1 ADD SWAP1 PUSH1 0x20 ADD DUP1 DUP4 GT PUSH2 0x9F8 JUMPI DUP3 SWAP1 SUB PUSH1 0x1F AND DUP3 ADD SWAP2 JUMPDEST POP POP POP POP POP DUP2 JUMP JUMPDEST PUSH1 0x2 DUP1 SLOAD PUSH2 0xA2A SWAP1 PUSH2 0x1148 JUMP JUMPDEST DUP1 PUSH1 0x1F ADD PUSH1 0x20 DUP1 SWAP2 DIV MUL PUSH1 0x20 ADD PUSH1 0x40 MLOAD SWAP1 DUP2 ADD PUSH1 0x40 MSTORE DUP1 SWAP3 SWAP2 SWAP1 DUP2 DUP2 MSTORE PUSH1 0x20 ADD DUP3 DUP1 SLOAD PUSH2 0xA56 SWAP1 PUSH2 0x1148 JUMP JUMPDEST DUP1 ISZERO PUSH2 0xAA1 JUMPI DUP1 PUSH1 0x1F LT PUSH2 0xA78 JUMPI PUSH2 0x100 DUP1 DUP4 SLOAD DIV MUL DUP4 MSTORE SWAP2 PUSH1 0x20 ADD SWAP2 PUSH2 0xAA1 JUMP JUMPDEST DUP3 ADD SWAP2 SWAP1 PUSH0 MSTORE PUSH1 0x20 PUSH0 KECCAK256 SWAP1 JUMPDEST DUP2 SLOAD DUP2 MSTORE SWAP1 PUSH1 0x1 ADD SWAP1 PUSH1 0x20 ADD DUP1 DUP4 GT PUSH2 0xA84 JUMPI DUP3 SWAP1 SUB PUSH1 0x1F AND DUP3 ADD SWAP2 JUMPDEST POP POP POP POP POP DUP2 JUMP JUMPDEST PUSH1 0x8 PUSH0 DUP2 SLOAD DUP1 SWAP3 SWAP2 SWAP1 PUSH2 0xABB SWAP1 PUSH2 0x1615 JUMP JUMPDEST SWAP2 SWAP1 POP SSTORE POP JUMP JUMPDEST PUSH1 0x1 PUSH1 0x9 PUSH0 PUSH2 0x100 EXP DUP2 SLOAD DUP2 PUSH1 0xFF MUL NOT AND SWAP1 DUP4 ISZERO ISZERO MUL OR SWAP1 SSTORE POP JUMP JUMPDEST PUSH1 0xA DUP1 SLOAD PUSH2 0xAEB SWAP1 PUSH2 0x1148 JUMP JUMPDEST DUP1 PUSH1 0x1F ADD PUSH1 0x20 DUP1 SWAP2 DIV MUL PUSH1 0x20 ADD PUSH1 0x40 MLOAD SWAP1 DUP2 ADD PUSH1 0x40 MSTORE DUP1 SWAP3 SWAP2 SWAP1 DUP2 DUP2 MSTORE PUSH1 0x20 ADD DUP3 DUP1 SLOAD PUSH2 0xB17 SWAP1 PUSH2 0x1148 JUMP JUMPDEST DUP1 ISZERO PUSH2 0xB62 JUMPI DUP1 PUSH1 0x1F LT PUSH2 0xB39 JUMPI PUSH2 0x100 DUP1 DUP4 SLOAD DIV MUL DUP4 MSTORE SWAP2 PUSH1 0x20 ADD SWAP2 PUSH2 0xB62 JUMP JUMPDEST DUP3 ADD SWAP2 SWAP1 PUSH0 MSTORE PUSH1 0x20 PUSH0 KECCAK256 SWAP1 JUMPDEST DUP2 SLOAD DUP2 MSTORE SWAP1 PUSH1 0x1 ADD SWAP1 PUSH1 0x20 ADD DUP1 DUP4 GT PUSH2 0xB45 JUMPI DUP3 SWAP1 SUB PUSH1 0x1F AND DUP3 ADD SWAP2 JUMPDEST POP POP POP POP POP DUP2 JUMP JUMPDEST PUSH1 0x60 PUSH1 0x6 DUP3 PUSH1 0x40 MLOAD PUSH1 0x20 ADD PUSH2 0xB80 SWAP3 SWAP2 SWAP1 PUSH2 0x12D2 JUMP JUMPDEST PUSH1 0x40 MLOAD PUSH1 0x20 DUP2 DUP4 SUB SUB DUP2 MSTORE SWAP1 PUSH1 0x40 MSTORE PUSH1 0x6 SWAP1 DUP2 PUSH2 0xB9D SWAP2 SWAP1 PUSH2 0x14A3 JUMP JUMPDEST POP PUSH1 0x2 DUP3 PUSH1 0x40 MLOAD PUSH1 0x20 ADD PUSH2 0xBB2 SWAP3 SWAP2 SWAP1 PUSH2 0x12D2 JUMP JUMPDEST PUSH1 0x40 MLOAD PUSH1 0x20 DUP2 DUP4 SUB SUB DUP2 MSTORE SWAP1 PUSH1 0x40 MSTORE PUSH1 0x2 SWAP1 DUP2 PUSH2 0xBCF SWAP2 SWAP1 PUSH2 0x14A3 JUMP JUMPDEST POP PUSH1 0x2 DUP1 SLOAD PUSH2 0xBDD SWAP1 PUSH2 0x1148 JUMP JUMPDEST DUP1 PUSH1 0x1F ADD PUSH1 0x20 DUP1 SWAP2 DIV MUL PUSH1 0x20 ADD PUSH1 0x40 MLOAD SWAP1 DUP2 ADD PUSH1 0x40 MSTORE DUP1 SWAP3 SWAP2 SWAP1 DUP2 DUP2 MSTORE PUSH1 0x20 ADD DUP3 DUP1 SLOAD PUSH2 0xC09 SWAP1 PUSH2 0x1148 JUMP JUMPDEST DUP1 ISZERO PUSH2 0xC54 JUMPI DUP1 PUSH1 0x1F LT PUSH2 0xC2B JUMPI PUSH2 0x100 DUP1 DUP4 SLOAD DIV MUL DUP4 MSTORE SWAP2 PUSH1 0x20 ADD SWAP2 PUSH2 0xC54 JUMP JUMPDEST DUP3 ADD SWAP2 SWAP1 PUSH0 MSTORE PUSH1 0x20 PUSH0 KECCAK256 SWAP1 JUMPDEST DUP2 SLOAD DUP2 MSTORE SWAP1 PUSH1 0x1 ADD SWAP1 PUSH1 0x20 ADD DUP1 DUP4 GT PUSH2 0xC37 JUMPI DUP3 SWAP1 SUB PUSH1 0x1F AND DUP3 ADD SWAP2 JUMPDEST POP POP POP POP POP SWAP1 POP SWAP2 SWAP1 POP JUMP JUMPDEST PUSH1 0x5 DUP1 SLOAD PUSH2 0xC6D SWAP1 PUSH2 0x1148 JUMP JUMPDEST DUP1 PUSH1 0x1F ADD PUSH1 0x20 DUP1 SWAP2 DIV MUL PUSH1 0x20 ADD PUSH1 0x40 MLOAD SWAP1 DUP2 ADD PUSH1 0x40 MSTORE DUP1 SWAP3 SWAP2 SWAP1 DUP2 DUP2 MSTORE PUSH1 0x20 ADD DUP3 DUP1 SLOAD PUSH2 0xC99 SWAP1 PUSH2 0x1148 JUMP JUMPDEST DUP1 ISZERO PUSH2 0xCE4 JUMPI DUP1 PUSH1 0x1F LT PUSH2 0xCBB JUMPI PUSH2 0x100 DUP1 DUP4 SLOAD DIV MUL DUP4 MSTORE SWAP2 PUSH1 0x20 ADD SWAP2 PUSH2 0xCE4 JUMP JUMPDEST DUP3 ADD SWAP2 SWAP1 PUSH0 MSTORE PUSH1 0x20 PUSH0 KECCAK256 SWAP1 JUMPDEST DUP2 SLOAD DUP2 MSTORE SWAP1 PUSH1 0x1 ADD SWAP1 PUSH1 0x20 ADD DUP1 DUP4 GT PUSH2 0xCC7 JUMPI DUP3 SWAP1 SUB PUSH1 0x1F AND DUP3 ADD SWAP2 JUMPDEST POP POP POP POP POP DUP2 JUMP JUMPDEST PUSH0 DUP2 MLOAD SWAP1 POP SWAP2 SWAP1 POP JUMP JUMPDEST PUSH0 DUP3 DUP3 MSTORE PUSH1 0x20 DUP3 ADD SWAP1 POP SWAP3 SWAP2 POP POP JUMP JUMPDEST DUP3 DUP2 DUP4 MCOPY PUSH0 DUP4 DUP4 ADD MSTORE POP POP POP JUMP JUMPDEST PUSH0 PUSH1 0x1F NOT PUSH1 0x1F DUP4 ADD AND SWAP1 POP SWAP2 SWAP1 POP JUMP JUMPDEST PUSH0 PUSH2 0xD2E DUP3 PUSH2 0xCEC JUMP JUMPDEST PUSH2 0xD38 DUP2 DUP6 PUSH2 0xCF6 JUMP JUMPDEST SWAP4 POP PUSH2 0xD48 DUP2 DUP6 PUSH1 0x20 DUP7 ADD PUSH2 0xD06 JUMP JUMPDEST PUSH2 0xD51 DUP2 PUSH2 0xD14 JUMP JUMPDEST DUP5 ADD SWAP2 POP POP SWAP3 SWAP2 POP POP JUMP JUMPDEST PUSH0 PUSH1 0x20 DUP3 ADD SWAP1 POP DUP2 DUP2 SUB PUSH0 DUP4 ADD MSTORE PUSH2 0xD74 DUP2 DUP5 PUSH2 0xD24 JUMP JUMPDEST SWAP1 POP SWAP3 SWAP2 POP POP JUMP JUMPDEST PUSH0 DUP2 SWAP1 POP SWAP2 SWAP1 POP JUMP JUMPDEST PUSH2 0xD8E DUP2 PUSH2 0xD7C JUMP JUMPDEST DUP3 MSTORE POP POP JUMP JUMPDEST PUSH0 PUSH1 0x20 DUP3 ADD SWAP1 POP PUSH2 0xDA7 PUSH0 DUP4 ADD DUP5 PUSH2 0xD85 JUMP JUMPDEST SWAP3 SWAP2 POP POP JUMP JUMPDEST PUSH0 PUSH1 0x40 MLOAD SWAP1 POP SWAP1 JUMP JUMPDEST PUSH0 PUSH0 REVERT JUMPDEST PUSH0 PUSH0 REVERT JUMPDEST PUSH0 PUSH0 REVERT JUMPDEST PUSH0 PUSH0 REVERT JUMPDEST PUSH32 0x4E487B7100000000000000000000000000000000000000000000000000000000 PUSH0 MSTORE PUSH1 0x41 PUSH1 0x4 MSTORE PUSH1 0x24 PUSH0 REVERT JUMPDEST PUSH2 0xDFC DUP3 PUSH2 0xD14 JUMP JUMPDEST DUP2 ADD DUP2 DUP2 LT PUSH8 0xFFFFFFFFFFFFFFFF DUP3 GT OR ISZERO PUSH2 0xE1B JUMPI PUSH2 0xE1A PUSH2 0xDC6 JUMP JUMPDEST JUMPDEST DUP1 PUSH1 0x40 MSTORE POP POP POP JUMP JUMPDEST PUSH0 PUSH2 0xE2D PUSH2 0xDAD JUMP JUMPDEST SWAP1 POP PUSH2 0xE39 DUP3 DUP3 PUSH2 0xDF3 JUMP JUMPDEST SWAP2 SWAP1 POP JUMP JUMPDEST PUSH0 PUSH8 0xFFFFFFFFFFFFFFFF DUP3 GT ISZERO PUSH2 0xE58 JUMPI PUSH2 0xE57 PUSH2 0xDC6 JUMP JUMPDEST JUMPDEST PUSH2 0xE61 DUP3 PUSH2 0xD14 JUMP JUMPDEST SWAP1 POP PUSH1 0x20 DUP2 ADD SWAP1 POP SWAP2 SWAP1 POP JUMP JUMPDEST DUP3 DUP2 DUP4 CALLDATACOPY PUSH0 DUP4 DUP4 ADD MSTORE POP POP POP JUMP JUMPDEST PUSH0 PUSH2 0xE8E PUSH2 0xE89 DUP5 PUSH2 0xE3E JUMP JUMPDEST PUSH2 0xE24 JUMP JUMPDEST SWAP1 POP DUP3 DUP2 MSTORE PUSH1 0x20 DUP2 ADD DUP5 DUP5 DUP5 ADD GT ISZERO PUSH2 0xEAA JUMPI PUSH2 0xEA9 PUSH2 0xDC2 JUMP JUMPDEST JUMPDEST PUSH2 0xEB5 DUP5 DUP3 DUP6 PUSH2 0xE6E JUMP JUMPDEST POP SWAP4 SWAP3 POP POP POP JUMP JUMPDEST PUSH0 DUP3 PUSH1 0x1F DUP4 ADD SLT PUSH2 0xED1 JUMPI PUSH2 0xED0 PUSH2 0xDBE JUMP JUMPDEST JUMPDEST DUP2 CALLDATALOAD PUSH2 0xEE1 DUP5 DUP3 PUSH1 0x20 DUP7 ADD PUSH2 0xE7C JUMP JUMPDEST SWAP2 POP POP SWAP3 SWAP2 POP POP JUMP JUMPDEST PUSH0 PUSH1 0x20 DUP3 DUP5 SUB SLT ISZERO PUSH2 0xEFF JUMPI PUSH2 0xEFE PUSH2 0xDB6 JUMP JUMPDEST JUMPDEST PUSH0 DUP3 ADD CALLDATALOAD PUSH8 0xFFFFFFFFFFFFFFFF DUP2 GT ISZERO PUSH2 0xF1C JUMPI PUSH2 0xF1B PUSH2 0xDBA JUMP JUMPDEST JUMPDEST PUSH2 0xF28 DUP5 DUP3 DUP6 ADD PUSH2 0xEBD JUMP JUMPDEST SWAP2 POP POP SWAP3 SWAP2 POP POP JUMP JUMPDEST PUSH0 DUP2 SWAP1 POP SWAP2 SWAP1 POP JUMP JUMPDEST PUSH2 0xF43 DUP2 PUSH2 0xF31 JUMP JUMPDEST DUP2 EQ PUSH2 0xF4D JUMPI PUSH0 PUSH0 REVERT JUMPDEST POP JUMP JUMPDEST PUSH0 DUP2 CALLDATALOAD SWAP1 POP PUSH2 0xF5E DUP2 PUSH2 0xF3A JUMP JUMPDEST SWAP3 SWAP2 POP POP JUMP JUMPDEST PUSH0 PUSH0 PUSH1 0x40 DUP4 DUP6 SUB SLT ISZERO PUSH2 0xF7A JUMPI PUSH2 0xF79 PUSH2 0xDB6 JUMP JUMPDEST JUMPDEST PUSH0 PUSH2 0xF87 DUP6 DUP3 DUP7 ADD PUSH2 0xF50 JUMP JUMPDEST SWAP3 POP POP PUSH1 0x20 DUP4 ADD CALLDATALOAD PUSH8 0xFFFFFFFFFFFFFFFF DUP2 GT ISZERO PUSH2 0xFA8 JUMPI PUSH2 0xFA7 PUSH2 0xDBA JUMP JUMPDEST JUMPDEST PUSH2 0xFB4 DUP6 DUP3 DUP7 ADD PUSH2 0xEBD JUMP JUMPDEST SWAP2 POP POP SWAP3 POP SWAP3 SWAP1 POP JUMP JUMPDEST PUSH0 PUSH20 0xFFFFFFFFFFFFFFFFFFFFFFFFFFFFFFFFFFFFFFFF DUP3 AND SWAP1 POP SWAP2 SWAP1 POP JUMP JUMPDEST PUSH0 PUSH2 0xFE7 DUP3 PUSH2 0xFBE JUMP JUMPDEST SWAP1 POP SWAP2 SWAP1 POP JUMP JUMPDEST PUSH2 0xFF7 DUP2 PUSH2 0xFDD JUMP JUMPDEST DUP3 MSTORE POP POP JUMP JUMPDEST PUSH0 PUSH1 0x20 DUP3 ADD SWAP1 POP PUSH2 0x1010 PUSH0 DUP4 ADD DUP5 PUSH2 0xFEE JUMP JUMPDEST SWAP3 SWAP2 POP POP JUMP JUMPDEST PUSH2 0x101F DUP2 PUSH2 0xFDD JUMP JUMPDEST DUP2 EQ PUSH2 0x1029 JUMPI PUSH0 PUSH0 REVERT JUMPDEST POP JUMP JUMPDEST PUSH0 DUP2 CALLDATALOAD SWAP1 POP PUSH2 0x103A DUP2 PUSH2 0x1016 JUMP JUMPDEST SWAP3 SWAP2 POP POP JUMP JUMPDEST PUSH0 PUSH1 0x20 DUP3 DUP5 SUB SLT ISZERO PUSH2 0x1055 JUMPI PUSH2 0x1054 PUSH2 0xDB6 JUMP JUMPDEST JUMPDEST PUSH0 PUSH2 0x1062 DUP5 DUP3 DUP6 ADD PUSH2 0x102C JUMP JUMPDEST SWAP2 POP POP SWAP3 SWAP2 POP POP JUMP JUMPDEST PUSH2 0x1074 DUP2 PUSH2 0xF31 JUMP JUMPDEST DUP3 MSTORE POP POP JUMP JUMPDEST PUSH0 PUSH1 0x20 DUP3 ADD SWAP1 POP PUSH2 0x108D PUSH0 DUP4 ADD DUP5 PUSH2 0x106B JUMP JUMPDEST SWAP3 SWAP2 POP POP JUMP JUMPDEST PUSH0 DUP2 ISZERO ISZERO SWAP1 POP SWAP2 SWAP1 POP JUMP JUMPDEST PUSH2 0x10A7 DUP2 PUSH2 0x1093 JUMP JUMPDEST DUP3 MSTORE POP POP JUMP JUMPDEST PUSH0 PUSH1 0x20 DUP3 ADD SWAP1 POP PUSH2 0x10C0 PUSH0 DUP4 ADD DUP5 PUSH2 0x109E JUMP JUMPDEST SWAP3 SWAP2 POP POP JUMP JUMPDEST PUSH2 0x10CF DUP2 PUSH2 0xD7C JUMP JUMPDEST DUP2 EQ PUSH2 0x10D9 JUMPI PUSH0 PUSH0 REVERT JUMPDEST POP JUMP JUMPDEST PUSH0 DUP2 CALLDATALOAD SWAP1 POP PUSH2 0x10EA DUP2 PUSH2 0x10C6 JUMP JUMPDEST SWAP3 SWAP2 POP POP JUMP JUMPDEST PUSH0 PUSH1 0x20 DUP3 DUP5 SUB SLT ISZERO PUSH2 0x1105 JUMPI PUSH2 0x1104 PUSH2 0xDB6 JUMP JUMPDEST JUMPDEST PUSH0 PUSH2 0x1112 DUP5 DUP3 DUP6 ADD PUSH2 0x10DC JUMP JUMPDEST SWAP2 POP POP SWAP3 SWAP2 POP POP JUMP JUMPDEST PUSH32 0x4E487B7100000000000000000000000000000000000000000000000000000000 PUSH0 MSTORE PUSH1 0x22 PUSH1 0x4 MSTORE PUSH1 0x24 PUSH0 REVERT JUMPDEST PUSH0 PUSH1 0x2 DUP3 DIV SWAP1 POP PUSH1 0x1 DUP3 AND DUP1 PUSH2 0x115F JUMPI PUSH1 0x7F DUP3 AND SWAP2 POP JUMPDEST PUSH1 0x20 DUP3 LT DUP2 SUB PUSH2 0x1172 JUMPI PUSH2 0x1171 PUSH2 0x111B JUMP JUMPDEST JUMPDEST POP SWAP2 SWAP1 POP JUMP JUMPDEST PUSH32 0x696E76616C6964206E756D620000000000000000000000000000000000000000 PUSH0 DUP3 ADD MSTORE POP JUMP JUMPDEST PUSH0 PUSH2 0x11AC PUSH1 0xC DUP4 PUSH2 0xCF6 JUMP JUMPDEST SWAP2 POP PUSH2 0x11B7 DUP3 PUSH2 0x1178 JUMP JUMPDEST PUSH1 0x20 DUP3 ADD SWAP1 POP SWAP2 SWAP1 POP JUMP JUMPDEST PUSH0 PUSH1 0x20 DUP3 ADD SWAP1 POP DUP2 DUP2 SUB PUSH0 DUP4 ADD MSTORE PUSH2 0x11D9 DUP2 PUSH2 0x11A0 JUMP JUMPDEST SWAP1 POP SWAP2 SWAP1 POP JUMP JUMPDEST PUSH0 DUP2 SWAP1 POP SWAP3 SWAP2 POP POP JUMP JUMPDEST PUSH0 DUP2 SWAP1 POP DUP2 PUSH0 MSTORE PUSH1 0x20 PUSH0 KECCAK256 SWAP1 POP SWAP2 SWAP1 POP JUMP JUMPDEST PUSH0 DUP2 SLOAD PUSH2 0x1208 DUP2 PUSH2 0x1148 JUMP JUMPDEST PUSH2 0x1212 DUP2 DUP7 PUSH2 0x11E0 JUMP JUMPDEST SWAP5 POP PUSH1 0x1 DUP3 AND PUSH0 DUP2 EQ PUSH2 0x122C JUMPI PUSH1 0x1 DUP2 EQ PUSH2 0x1241 JUMPI PUSH2 0x1273 JUMP JUMPDEST PUSH1 0xFF NOT DUP4 AND DUP7 MSTORE DUP2 ISZERO ISZERO DUP3 MUL DUP7 ADD SWAP4 POP PUSH2 0x1273 JUMP JUMPDEST PUSH2 0x124A DUP6 PUSH2 0x11EA JUMP JUMPDEST PUSH0 JUMPDEST DUP4 DUP2 LT ISZERO PUSH2 0x126B JUMPI DUP2 SLOAD DUP2 DUP10 ADD MSTORE PUSH1 0x1 DUP3 ADD SWAP2 POP PUSH1 0x20 DUP2 ADD SWAP1 POP PUSH2 0x124C JUMP JUMPDEST DUP4 DUP9 ADD SWAP6 POP POP POP JUMPDEST POP POP POP SWAP3 SWAP2 POP POP JUMP JUMPDEST PUSH0 PUSH2 0x1286 DUP3 PUSH2 0xCEC JUMP JUMPDEST PUSH2 0x1290 DUP2 DUP6 PUSH2 0x11E0 JUMP JUMPDEST SWAP4 POP PUSH2 0x12A0 DUP2 DUP6 PUSH1 0x20 DUP7 ADD PUSH2 0xD06 JUMP JUMPDEST DUP1 DUP5 ADD SWAP2 POP POP SWAP3 SWAP2 POP POP JUMP JUMPDEST PUSH32 0x2000000000000000000000000000000000000000000000000000000000000000 DUP2 MSTORE POP JUMP JUMPDEST PUSH0 PUSH2 0x12DD DUP3 DUP6 PUSH2 0x11FC JUMP JUMPDEST SWAP2 POP PUSH2 0x12E9 DUP3 DUP5 PUSH2 0x127C JUMP JUMPDEST SWAP2 POP PUSH2 0x12F4 DUP3 PUSH2 0x12AC JUMP JUMPDEST PUSH1 0x1 DUP3 ADD SWAP2 POP DUP2 SWAP1 POP SWAP4 SWAP3 POP POP POP JUMP JUMPDEST PUSH0 PUSH1 0x20 PUSH1 0x1F DUP4 ADD DIV SWAP1 POP SWAP2 SWAP1 POP JUMP JUMPDEST PUSH0 DUP3 DUP3 SHL SWAP1 POP SWAP3 SWAP2 POP POP JUMP JUMPDEST PUSH0 PUSH1 0x8 DUP4 MUL PUSH2 0x134E PUSH32 0xFFFFFFFFFFFFFFFFFFFFFFFFFFFFFFFFFFFFFFFFFFFFFFFFFFFFFFFFFFFFFFFF DUP3 PUSH2 0x1313 JUMP JUMPDEST PUSH2 0x1358 DUP7 DUP4 PUSH2 0x1313 JUMP JUMPDEST SWAP6 POP DUP1 NOT DUP5 AND SWAP4 POP DUP1 DUP7 AND DUP5 OR SWAP3 POP POP POP SWAP4 SWAP3 POP POP POP JUMP JUMPDEST PUSH0 DUP2 SWAP1 POP SWAP2 SWAP1 POP JUMP JUMPDEST PUSH0 PUSH2 0x1393 PUSH2 0x138E PUSH2 0x1389 DUP5 PUSH2 0xF31 JUMP JUMPDEST PUSH2 0x1370 JUMP JUMPDEST PUSH2 0xF31 JUMP JUMPDEST SWAP1 POP SWAP2 SWAP1 POP JUMP JUMPDEST PUSH0 DUP2 SWAP1 POP SWAP2 SWAP1 POP JUMP JUMPDEST PUSH2 0x13AC DUP4 PUSH2 0x1379 JUMP JUMPDEST PUSH2 0x13C0 PUSH2 0x13B8 DUP3 PUSH2 0x139A JUMP JUMPDEST DUP5 DUP5 SLOAD PUSH2 0x131F JUMP JUMPDEST DUP3 SSTORE POP POP POP POP JUMP JUMPDEST PUSH0 PUSH0 SWAP1 POP SWAP1 JUMP JUMPDEST PUSH2 0x13D7 PUSH2 0x13C8 JUMP JUMPDEST PUSH2 0x13E2 DUP2 DUP5 DUP5 PUSH2 0x13A3 JUMP JUMPDEST POP POP POP JUMP JUMPDEST PUSH0 JUMPDEST DUP3 DUP2 LT ISZERO PUSH2 0x1408 JUMPI PUSH2 0x13FD PUSH0 DUP3 DUP5 ADD PUSH2 0x13CF JUMP JUMPDEST PUSH1 0x1 DUP2 ADD SWAP1 POP PUSH2 0x13E9 JUMP JUMPDEST POP POP POP JUMP JUMPDEST PUSH1 0x1F DUP3 GT ISZERO PUSH2 0x145B JUMPI DUP3 DUP3 GT ISZERO PUSH2 0x145A JUMPI PUSH2 0x1427 DUP2 PUSH2 0x11EA JUMP JUMPDEST PUSH2 0x1430 DUP4 PUSH2 0x1304 JUMP JUMPDEST PUSH2 0x1439 DUP6 PUSH2 0x1304 JUMP JUMPDEST PUSH1 0x20 DUP7 LT ISZERO PUSH2 0x1446 JUMPI PUSH0 SWAP1 POP JUMPDEST DUP1 DUP4 ADD PUSH2 0x1455 DUP3 DUP5 SUB DUP3 PUSH2 0x13E7 JUMP JUMPDEST POP POP POP POP JUMPDEST JUMPDEST POP POP POP JUMP JUMPDEST PUSH0 DUP3 DUP3 SHR SWAP1 POP SWAP3 SWAP2 POP POP JUMP JUMPDEST PUSH0 PUSH2 0x147B PUSH0 NOT DUP5 PUSH1 0x8 MUL PUSH2 0x1460 JUMP JUMPDEST NOT DUP1 DUP4 AND SWAP2 POP POP SWAP3 SWAP2 POP POP JUMP JUMPDEST PUSH0 PUSH2 0x1493 DUP4 DUP4 PUSH2 0x146C JUMP JUMPDEST SWAP2 POP DUP3 PUSH1 0x2 MUL DUP3 OR SWAP1 POP SWAP3 SWAP2 POP POP JUMP JUMPDEST PUSH2 0x14AC DUP3 PUSH2 0xCEC JUMP JUMPDEST PUSH8 0xFFFFFFFFFFFFFFFF DUP2 GT ISZERO PUSH2 0x14C5 JUMPI PUSH2 0x14C4 PUSH2 0xDC6 JUMP JUMPDEST JUMPDEST PUSH2 0x14CF DUP3 SLOAD PUSH2 0x1148 JUMP JUMPDEST PUSH2 0x14DA DUP3 DUP3 DUP6 PUSH2 0x140D JUMP JUMPDEST PUSH0 PUSH1 0x20 SWAP1 POP PUSH1 0x1F DUP4 GT PUSH1 0x1 DUP2 EQ PUSH2 0x150B JUMPI PUSH0 DUP5 ISZERO PUSH2 0x14F9 JUMPI DUP3 DUP8 ADD MLOAD SWAP1 POP JUMPDEST PUSH2 0x1503 DUP6 DUP3 PUSH2 0x1488 JUMP JUMPDEST DUP7 SSTORE POP PUSH2 0x156A JUMP JUMPDEST PUSH1 0x1F NOT DUP5 AND PUSH2 0x1519 DUP7 PUSH2 0x11EA JUMP JUMPDEST PUSH0 JUMPDEST DUP3 DUP2 LT ISZERO PUSH2 0x1540 JUMPI DUP5 DUP10 ADD MLOAD DUP3 SSTORE PUSH1 0x1 DUP3 ADD SWAP2 POP PUSH1 0x20 DUP6 ADD SWAP5 POP PUSH1 0x20 DUP2 ADD SWAP1 POP PUSH2 0x151B JUMP JUMPDEST DUP7 DUP4 LT ISZERO PUSH2 0x155D JUMPI DUP5 DUP10 ADD MLOAD PUSH2 0x1559 PUSH1 0x1F DUP10 AND DUP3 PUSH2 0x146C JUMP JUMPDEST DUP4 SSTORE POP JUMPDEST PUSH1 0x1 PUSH1 0x2 DUP9 MUL ADD DUP9 SSTORE POP POP POP JUMPDEST POP POP POP POP POP POP JUMP JUMPDEST PUSH32 0x4E487B7100000000000000000000000000000000000000000000000000000000 PUSH0 MSTORE PUSH1 0x11 PUSH1 0x4 MSTORE PUSH1 0x24 PUSH0 REVERT JUMPDEST PUSH0 PUSH2 0x15A9 DUP3 PUSH2 0xD7C JUMP JUMPDEST SWAP2 POP PUSH2 0x15B4 DUP4 PUSH2 0xD7C JUMP JUMPDEST SWAP3 POP DUP3 DUP3 MUL PUSH2 0x15C2 DUP2 PUSH2 0xD7C JUMP JUMPDEST SWAP2 POP PUSH32 0x8000000000000000000000000000000000000000000000000000000000000000 DUP5 EQ PUSH0 DUP5 SLT AND ISZERO PUSH2 0x15F9 JUMPI PUSH2 0x15F8 PUSH2 0x1572 JUMP JUMPDEST JUMPDEST DUP3 DUP3 SDIV DUP5 EQ DUP4 ISZERO OR PUSH2 0x160E JUMPI PUSH2 0x160D PUSH2 0x1572 JUMP JUMPDEST JUMPDEST POP SWAP3 SWAP2 POP POP JUMP JUMPDEST PUSH0 PUSH2 0x161F DUP3 PUSH2 0xD7C JUMP JUMPDEST SWAP2 POP PUSH32 0x7FFFFFFFFFFFFFFFFFFFFFFFFFFFFFFFFFFFFFFFFFFFFFFFFFFFFFFFFFFFFFFF DUP3 SUB PUSH2 0x1651 JUMPI PUSH2 0x1650 PUSH2 0x1572 JUMP JUMPDEST JUMPDEST PUSH1 0x1 DUP3 ADD SWAP1 POP SWAP2 SWAP1 POP JUMP INVALID LOG2 PUSH5 0x6970667358 0x22 SLT KECCAK256 0xED 0xE9 PUSH14 0x2FF9E99E66CAF9591B0C479F94D4 PC MSTORE8 CODESIZE 0xAC DATALOADN 0x1701 CALLDATALOAD 0xA7 SHL PUSH10 0xDF128D8864736F6C6343 STOP ADDMOD 0x23 STOP CALLER "
				},
				"gasEstimates": {
					"creation": {
						"codeDepositCost": "1155600",
						"executionCost": "infinite",
						"totalCost": "infinite"
					},
					"external": {
						"English()": "infinite",
						"Math()": "infinite",
						"Russian()": "infinite",
						"addressStudent(address)": "2891",
						"completeUrok()": "24541",
						"egoLesson(string)": "infinite",
						"i(uint256,string)": "infinite",
						"lesson()": "infinite",
						"nameStudent()": "infinite",
						"number()": "2470",
						"ocenkaStudent()": "infinite",
						"replaceOcenka(string)": "infinite",
						"setOcenkaEng(string)": "infinite",
						"setOcenkaMath(string)": "infinite",
						"setOcenkaRus(string)": "infinite",
						"statusStudent()": "2489",
						"student()": "2552",
						"swapStatusActive()": "24475",
						"swapStatusInactive()": "24520",
						"umnozhenie(int256)": "infinite",
						"urok()": "2471"
					}
				},
				"methodIdentifiers": {
					"English()": "8eace8f7",
					"Math()": "06c5a5f5",
					"Russian()": "fa1ebe4f",
					"addressStudent(address)": "6d76b926",
					"completeUrok()": "b182b083",
					"egoLesson(string)": "6c5f5966",
					"i(uint256,string)": "4d5e01fb",
					"lesson()": "c5b0cb3b",
					"nameStudent()": "a830e15f",
					"number()": "8381f58a",
					"ocenkaStudent()": "a93b016a",
					"replaceOcenka(string)": "235f9bc9",
					"setOcenkaEng(string)": "d46c2dc4",
					"setOcenkaMath(string)": "76c3ac1d",
					"setOcenkaRus(string)": "5d36d095",
					"statusStudent()": "80e8d626",
					"student()": "699450e8",
					"swapStatusActive()": "b774884a",
					"swapStatusInactive()": "59212064",
					"umnozhenie(int256)": "88e7cc08",
					"urok()": "0f91d842"
				}
			},
			"storageLayout": {
				"storage": [
					{
						"astId": 3,
						"contract": "StudentDiary.sol:StudentDiary",
						"label": "student",
						"offset": 0,
						"slot": "0",
						"type": "t_address"
					},
					{
						"astId": 6,
						"contract": "StudentDiary.sol:StudentDiary",
						"label": "nameStudent",
						"offset": 0,
						"slot": "1",
						"type": "t_string_storage"
					},
					{
						"astId": 8,
						"contract": "StudentDiary.sol:StudentDiary",
						"label": "ocenkaStudent",
						"offset": 0,
						"slot": "2",
						"type": "t_string_storage"
					},
					{
						"astId": 12,
						"contract": "StudentDiary.sol:StudentDiary",
						"label": "addressStudent",
						"offset": 0,
						"slot": "3",
						"type": "t_mapping(t_address,t_uint256)"
					},
					{
						"astId": 14,
						"contract": "StudentDiary.sol:StudentDiary",
						"label": "Math",
						"offset": 0,
						"slot": "4",
						"type": "t_string_storage"
					},
					{
						"astId": 16,
						"contract": "StudentDiary.sol:StudentDiary",
						"label": "Russian",
						"offset": 0,
						"slot": "5",
						"type": "t_string_storage"
					},
					{
						"astId": 18,
						"contract": "StudentDiary.sol:StudentDiary",
						"label": "English",
						"offset": 0,
						"slot": "6",
						"type": "t_string_storage"
					},
					{
						"astId": 20,
						"contract": "StudentDiary.sol:StudentDiary",
						"label": "number",
						"offset": 0,
						"slot": "7",
						"type": "t_int256"
					},
					{
						"astId": 22,
						"contract": "StudentDiary.sol:StudentDiary",
						"label": "urok",
						"offset": 0,
						"slot": "8",
						"type": "t_int256"
					},
					{
						"astId": 24,
						"contract": "StudentDiary.sol:StudentDiary",
						"label": "statusStudent",
						"offset": 0,
						"slot": "9",
						"type": "t_bool"
					},
					{
						"astId": 26,
						"contract": "StudentDiary.sol:StudentDiary",
						"label": "lesson",
						"offset": 0,
						"slot": "10",
						"type": "t_string_storage"
					},
					{
						"astId": 30,
						"contract": "StudentDiary.sol:StudentDiary",
						"label": "egoLesson",
						"offset": 0,
						"slot": "11",
						"type": "t_mapping(t_string_memory_ptr,t_int256)"
					}
				],
				"types": {
					"t_address": {
						"encoding": "inplace",
						"label": "address",
						"numberOfBytes": "20"
					},
					"t_bool": {
						"encoding": "inplace",
						"label": "bool",
						"numberOfBytes": "1"
					},
					"t_int256": {
						"encoding": "inplace",
						"label": "int256",
						"numberOfBytes": "32"
					},
					"t_mapping(t_address,t_uint256)": {
						"encoding": "mapping",
						"key": "t_address",
						"label": "mapping(address => uint256)",
						"numberOfBytes": "32",
						"value": "t_uint256"
					},
					"t_mapping(t_string_memory_ptr,t_int256)": {
						"encoding": "mapping",
						"key": "t_string_memory_ptr",
						"label": "mapping(string => int256)",
						"numberOfBytes": "32",
						"value": "t_int256"
					},
					"t_string_memory_ptr": {
						"encoding": "bytes",
						"label": "string",
						"numberOfBytes": "32"
					},
					"t_string_storage": {
						"encoding": "bytes",
						"label": "string",
						"numberOfBytes": "32"
					},
					"t_uint256": {
						"encoding": "inplace",
						"label": "uint256",
						"numberOfBytes": "32"
					}
				}
			},
			"userdoc": {
				"kind": "user",
				"methods": {},
				"version": 1
			}
		}
	}
}