{
	"urok5.sol": {
		"ToDoList": {
			"abi": [
				{
					"inputs": [
						{
							"internalType": "address",
							"name": "",
							"type": "address"
						}
					],
					"name": "balances",
					"outputs": [
						{
							"internalType": "uint256",
							"name": "totalPayments",
							"type": "uint256"
						}
					],
					"stateMutability": "view",
					"type": "function"
				},
				{
					"inputs": [
						{
							"internalType": "address",
							"name": "_addr",
							"type": "address"
						},
						{
							"internalType": "uint256",
							"name": "_index",
							"type": "uint256"
						}
					],
					"name": "getPayment",
					"outputs": [
						{
							"components": [
								{
									"internalType": "uint256",
									"name": "amount",
									"type": "uint256"
								},
								{
									"internalType": "uint256",
									"name": "timestamp",
									"type": "uint256"
								},
								{
									"internalType": "address",
									"name": "from",
									"type": "address"
								},
								{
									"internalType": "string",
									"name": "message",
									"type": "string"
								}
							],
							"internalType": "struct ToDoList.Payment",
							"name": "",
							"type": "tuple"
						}
					],
					"stateMutability": "view",
					"type": "function"
				},
				{
					"inputs": [
						{
							"internalType": "string",
							"name": "message",
							"type": "string"
						}
					],
					"name": "pay",
					"outputs": [],
					"stateMutability": "payable",
					"type": "function"
				}
			],
			"devdoc": {
				"kind": "dev",
				"methods": {},
				"version": 1
			},
			"evm": {
				"assembly": "    /* \"urok5.sol\":61:2073  contract ToDoList {... */\n  mstore(0x40, 0x80)\n  callvalue\n  dup1\n  iszero\n  tag_1\n  jumpi\n  revert(0x00, 0x00)\ntag_1:\n  pop\n  dataSize(sub_0)\n  dup1\n  dataOffset(sub_0)\n  0x00\n  codecopy\n  0x00\n  return\nstop\n\nsub_0: assembly {\n        /* \"urok5.sol\":61:2073  contract ToDoList {... */\n      mstore(0x40, 0x80)\n      jumpi(tag_1, lt(calldatasize, 0x04))\n      shr(0xe0, calldataload(0x00))\n      dup1\n      0x27e235e3\n      eq\n      tag_2\n      jumpi\n      dup1\n      0x2b66d72e\n      eq\n      tag_3\n      jumpi\n      dup1\n      0x977a767c\n      eq\n      tag_4\n      jumpi\n    tag_1:\n      revert(0x00, 0x00)\n        /* \"urok5.sol\":331:374  mapping(address => Balance) public balances */\n    tag_2:\n      callvalue\n      dup1\n      iszero\n      tag_5\n      jumpi\n      revert(0x00, 0x00)\n    tag_5:\n      pop\n      tag_6\n      0x04\n      dup1\n      calldatasize\n      sub\n      dup2\n      add\n      swap1\n      tag_7\n      swap2\n      swap1\n      tag_8\n      jump\t// in\n    tag_7:\n      tag_9\n      jump\t// in\n    tag_6:\n      mload(0x40)\n      tag_10\n      swap2\n      swap1\n      tag_11\n      jump\t// in\n    tag_10:\n      mload(0x40)\n      dup1\n      swap2\n      sub\n      swap1\n      return\n        /* \"urok5.sol\":533:929  function pay(string memory message) public payable {... */\n    tag_3:\n      tag_12\n      0x04\n      dup1\n      calldatasize\n      sub\n      dup2\n      add\n      swap1\n      tag_13\n      swap2\n      swap1\n      tag_14\n      jump\t// in\n    tag_13:\n      tag_15\n      jump\t// in\n    tag_12:\n      stop\n        /* \"urok5.sol\":383:525  function getPayment(address _addr, uint _index) public view returns(Payment memory) {... */\n    tag_4:\n      callvalue\n      dup1\n      iszero\n      tag_16\n      jumpi\n      revert(0x00, 0x00)\n    tag_16:\n      pop\n      tag_17\n      0x04\n      dup1\n      calldatasize\n      sub\n      dup2\n      add\n      swap1\n      tag_18\n      swap2\n      swap1\n      tag_19\n      jump\t// in\n    tag_18:\n      tag_20\n      jump\t// in\n    tag_17:\n      mload(0x40)\n      tag_21\n      swap2\n      swap1\n      tag_22\n      jump\t// in\n    tag_21:\n      mload(0x40)\n      dup1\n      swap2\n      sub\n      swap1\n      return\n        /* \"urok5.sol\":331:374  mapping(address => Balance) public balances */\n    tag_9:\n      mstore(0x20, 0x00)\n      dup1\n      0x00\n      mstore\n      keccak256(0x00, 0x40)\n      0x00\n      swap2\n      pop\n      swap1\n      pop\n      dup1\n      0x00\n      add\n      sload\n      swap1\n      pop\n      dup2\n      jump\t// out\n        /* \"urok5.sol\":533:929  function pay(string memory message) public payable {... */\n    tag_15:\n        /* \"urok5.sol\":595:610  uint paymentNum */\n      0x00\n        /* \"urok5.sol\":613:621  balances */\n      0x00\n        /* \"urok5.sol\":613:633  balances[msg.sender] */\n      0x00\n        /* \"urok5.sol\":622:632  msg.sender */\n      caller\n        /* \"urok5.sol\":613:633  balances[msg.sender] */\n      0xffffffffffffffffffffffffffffffffffffffff\n      and\n      0xffffffffffffffffffffffffffffffffffffffff\n      and\n      dup2\n      mstore\n      0x20\n      add\n      swap1\n      dup2\n      mstore\n      0x20\n      add\n      0x00\n      keccak256\n        /* \"urok5.sol\":613:647  balances[msg.sender].totalPayments */\n      0x00\n      add\n      sload\n        /* \"urok5.sol\":595:647  uint paymentNum = balances[msg.sender].totalPayments */\n      swap1\n      pop\n        /* \"urok5.sol\":658:666  balances */\n      0x00\n        /* \"urok5.sol\":658:678  balances[msg.sender] */\n      0x00\n        /* \"urok5.sol\":667:677  msg.sender */\n      caller\n        /* \"urok5.sol\":658:678  balances[msg.sender] */\n      0xffffffffffffffffffffffffffffffffffffffff\n      and\n      0xffffffffffffffffffffffffffffffffffffffff\n      and\n      dup2\n      mstore\n      0x20\n      add\n      swap1\n      dup2\n      mstore\n      0x20\n      add\n      0x00\n      keccak256\n        /* \"urok5.sol\":658:692  balances[msg.sender].totalPayments */\n      0x00\n      add\n      0x00\n        /* \"urok5.sol\":658:694  balances[msg.sender].totalPayments++ */\n      dup2\n      sload\n      dup1\n      swap3\n      swap2\n      swap1\n      tag_24\n      swap1\n      tag_25\n      jump\t// in\n    tag_24:\n      swap2\n      swap1\n      pop\n      sstore\n      pop\n        /* \"urok5.sol\":707:732  Payment memory newPayment */\n      0x00\n        /* \"urok5.sol\":735:854  Payment(... */\n      mload(0x40)\n      dup1\n      0x80\n      add\n      0x40\n      mstore\n      dup1\n        /* \"urok5.sol\":757:766  msg.value */\n      callvalue\n        /* \"urok5.sol\":735:854  Payment(... */\n      dup2\n      mstore\n      0x20\n      add\n        /* \"urok5.sol\":781:796  block.timestamp */\n      timestamp\n        /* \"urok5.sol\":735:854  Payment(... */\n      dup2\n      mstore\n      0x20\n      add\n        /* \"urok5.sol\":811:821  msg.sender */\n      caller\n        /* \"urok5.sol\":735:854  Payment(... */\n      0xffffffffffffffffffffffffffffffffffffffff\n      and\n      dup2\n      mstore\n      0x20\n      add\n        /* \"urok5.sol\":836:843  message */\n      dup5\n        /* \"urok5.sol\":735:854  Payment(... */\n      dup2\n      mstore\n      pop\n        /* \"urok5.sol\":707:854  Payment memory newPayment = Payment(... */\n      swap1\n      pop\n        /* \"urok5.sol\":911:921  newPayment */\n      dup1\n        /* \"urok5.sol\":867:875  balances */\n      0x00\n        /* \"urok5.sol\":867:887  balances[msg.sender] */\n      0x00\n        /* \"urok5.sol\":876:886  msg.sender */\n      caller\n        /* \"urok5.sol\":867:887  balances[msg.sender] */\n      0xffffffffffffffffffffffffffffffffffffffff\n      and\n      0xffffffffffffffffffffffffffffffffffffffff\n      and\n      dup2\n      mstore\n      0x20\n      add\n      swap1\n      dup2\n      mstore\n      0x20\n      add\n      0x00\n      keccak256\n        /* \"urok5.sol\":867:896  balances[msg.sender].payments */\n      0x01\n      add\n        /* \"urok5.sol\":867:908  balances[msg.sender].payments[paymentNum] */\n      0x00\n        /* \"urok5.sol\":897:907  paymentNum */\n      dup5\n        /* \"urok5.sol\":867:908  balances[msg.sender].payments[paymentNum] */\n      dup2\n      mstore\n      0x20\n      add\n      swap1\n      dup2\n      mstore\n      0x20\n      add\n      0x00\n      keccak256\n        /* \"urok5.sol\":867:921  balances[msg.sender].payments[paymentNum] = newPayment */\n      0x00\n      dup3\n      add\n      mload\n      dup2\n      0x00\n      add\n      sstore\n      0x20\n      dup3\n      add\n      mload\n      dup2\n      0x01\n      add\n      sstore\n      0x40\n      dup3\n      add\n      mload\n      dup2\n      0x02\n      add\n      exp(0x0100, 0x00)\n      dup2\n      sload\n      dup2\n      0xffffffffffffffffffffffffffffffffffffffff\n      mul\n      not\n      and\n      swap1\n      dup4\n      0xffffffffffffffffffffffffffffffffffffffff\n      and\n      mul\n      or\n      swap1\n      sstore\n      pop\n      0x60\n      dup3\n      add\n      mload\n      dup2\n      0x03\n      add\n      swap1\n      dup2\n      tag_26\n      swap2\n      swap1\n      tag_27\n      jump\t// in\n    tag_26:\n      pop\n      swap1\n      pop\n      pop\n        /* \"urok5.sol\":584:929  {... */\n      pop\n      pop\n        /* \"urok5.sol\":533:929  function pay(string memory message) public payable {... */\n      pop\n      jump\t// out\n        /* \"urok5.sol\":383:525  function getPayment(address _addr, uint _index) public view returns(Payment memory) {... */\n    tag_20:\n        /* \"urok5.sol\":451:465  Payment memory */\n      tag_28\n      tag_29\n      jump\t// in\n    tag_28:\n        /* \"urok5.sol\":485:493  balances */\n      0x00\n        /* \"urok5.sol\":485:500  balances[_addr] */\n      0x00\n        /* \"urok5.sol\":494:499  _addr */\n      dup5\n        /* \"urok5.sol\":485:500  balances[_addr] */\n      0xffffffffffffffffffffffffffffffffffffffff\n      and\n      0xffffffffffffffffffffffffffffffffffffffff\n      and\n      dup2\n      mstore\n      0x20\n      add\n      swap1\n      dup2\n      mstore\n      0x20\n      add\n      0x00\n      keccak256\n        /* \"urok5.sol\":485:509  balances[_addr].payments */\n      0x01\n      add\n        /* \"urok5.sol\":485:517  balances[_addr].payments[_index] */\n      0x00\n        /* \"urok5.sol\":510:516  _index */\n      dup4\n        /* \"urok5.sol\":485:517  balances[_addr].payments[_index] */\n      dup2\n      mstore\n      0x20\n      add\n      swap1\n      dup2\n      mstore\n      0x20\n      add\n      0x00\n      keccak256\n        /* \"urok5.sol\":478:517  return balances[_addr].payments[_index] */\n      mload(0x40)\n      dup1\n      0x80\n      add\n      0x40\n      mstore\n      swap1\n      dup2\n      0x00\n      dup3\n      add\n      sload\n      dup2\n      mstore\n      0x20\n      add\n      0x01\n      dup3\n      add\n      sload\n      dup2\n      mstore\n      0x20\n      add\n      0x02\n      dup3\n      add\n      0x00\n      swap1\n      sload\n      swap1\n      0x0100\n      exp\n      swap1\n      div\n      0xffffffffffffffffffffffffffffffffffffffff\n      and\n      0xffffffffffffffffffffffffffffffffffffffff\n      and\n      0xffffffffffffffffffffffffffffffffffffffff\n      and\n      dup2\n      mstore\n      0x20\n      add\n      0x03\n      dup3\n      add\n      dup1\n      sload\n      tag_31\n      swap1\n      tag_32\n      jump\t// in\n    tag_31:\n      dup1\n      0x1f\n      add\n      0x20\n      dup1\n      swap2\n      div\n      mul\n      0x20\n      add\n      mload(0x40)\n      swap1\n      dup2\n      add\n      0x40\n      mstore\n      dup1\n      swap3\n      swap2\n      swap1\n      dup2\n      dup2\n      mstore\n      0x20\n      add\n      dup3\n      dup1\n      sload\n      tag_33\n      swap1\n      tag_32\n      jump\t// in\n    tag_33:\n      dup1\n      iszero\n      tag_34\n      jumpi\n      dup1\n      0x1f\n      lt\n      tag_35\n      jumpi\n      0x0100\n      dup1\n      dup4\n      sload\n      div\n      mul\n      dup4\n      mstore\n      swap2\n      0x20\n      add\n      swap2\n      jump(tag_34)\n    tag_35:\n      dup3\n      add\n      swap2\n      swap1\n      0x00\n      mstore\n      keccak256(0x00, 0x20)\n      swap1\n    tag_36:\n      dup2\n      sload\n      dup2\n      mstore\n      swap1\n      0x01\n      add\n      swap1\n      0x20\n      add\n      dup1\n      dup4\n      gt\n      tag_36\n      jumpi\n      dup3\n      swap1\n      sub\n      0x1f\n      and\n      dup3\n      add\n      swap2\n    tag_34:\n      pop\n      pop\n      pop\n      pop\n      pop\n      dup2\n      mstore\n      pop\n      pop\n      swap1\n      pop\n        /* \"urok5.sol\":383:525  function getPayment(address _addr, uint _index) public view returns(Payment memory) {... */\n      swap3\n      swap2\n      pop\n      pop\n      jump\t// out\n    tag_29:\n      mload(0x40)\n      dup1\n      0x80\n      add\n      0x40\n      mstore\n      dup1\n      0x00\n      dup2\n      mstore\n      0x20\n      add\n      0x00\n      dup2\n      mstore\n      0x20\n      add\n      and(0xffffffffffffffffffffffffffffffffffffffff, 0x00)\n      dup2\n      mstore\n      0x20\n      add\n      0x60\n      dup2\n      mstore\n      pop\n      swap1\n      jump\t// out\n        /* \"#utility.yul\":7:82   */\n    tag_37:\n        /* \"#utility.yul\":40:46   */\n      0x00\n        /* \"#utility.yul\":73:75   */\n      0x40\n        /* \"#utility.yul\":67:76   */\n      mload\n        /* \"#utility.yul\":57:76   */\n      swap1\n      pop\n        /* \"#utility.yul\":7:82   */\n      swap1\n      jump\t// out\n        /* \"#utility.yul\":88:205   */\n    tag_38:\n        /* \"#utility.yul\":197:198   */\n      0x00\n        /* \"#utility.yul\":194:195   */\n      0x00\n        /* \"#utility.yul\":187:199   */\n      revert\n        /* \"#utility.yul\":211:328   */\n    tag_39:\n        /* \"#utility.yul\":320:321   */\n      0x00\n        /* \"#utility.yul\":317:318   */\n      0x00\n        /* \"#utility.yul\":310:322   */\n      revert\n        /* \"#utility.yul\":334:460   */\n    tag_40:\n        /* \"#utility.yul\":371:378   */\n      0x00\n        /* \"#utility.yul\":411:453   */\n      0xffffffffffffffffffffffffffffffffffffffff\n        /* \"#utility.yul\":404:409   */\n      dup3\n        /* \"#utility.yul\":400:454   */\n      and\n        /* \"#utility.yul\":389:454   */\n      swap1\n      pop\n        /* \"#utility.yul\":334:460   */\n      swap2\n      swap1\n      pop\n      jump\t// out\n        /* \"#utility.yul\":466:562   */\n    tag_41:\n        /* \"#utility.yul\":503:510   */\n      0x00\n        /* \"#utility.yul\":532:556   */\n      tag_88\n        /* \"#utility.yul\":550:555   */\n      dup3\n        /* \"#utility.yul\":532:556   */\n      tag_40\n      jump\t// in\n    tag_88:\n        /* \"#utility.yul\":521:556   */\n      swap1\n      pop\n        /* \"#utility.yul\":466:562   */\n      swap2\n      swap1\n      pop\n      jump\t// out\n        /* \"#utility.yul\":568:690   */\n    tag_42:\n        /* \"#utility.yul\":641:665   */\n      tag_90\n        /* \"#utility.yul\":659:664   */\n      dup2\n        /* \"#utility.yul\":641:665   */\n      tag_41\n      jump\t// in\n    tag_90:\n        /* \"#utility.yul\":634:639   */\n      dup2\n        /* \"#utility.yul\":631:666   */\n      eq\n        /* \"#utility.yul\":621:684   */\n      tag_91\n      jumpi\n        /* \"#utility.yul\":680:681   */\n      0x00\n        /* \"#utility.yul\":677:678   */\n      0x00\n        /* \"#utility.yul\":670:682   */\n      revert\n        /* \"#utility.yul\":621:684   */\n    tag_91:\n        /* \"#utility.yul\":568:690   */\n      pop\n      jump\t// out\n        /* \"#utility.yul\":696:835   */\n    tag_43:\n        /* \"#utility.yul\":742:747   */\n      0x00\n        /* \"#utility.yul\":780:786   */\n      dup2\n        /* \"#utility.yul\":767:787   */\n      calldataload\n        /* \"#utility.yul\":758:787   */\n      swap1\n      pop\n        /* \"#utility.yul\":796:829   */\n      tag_93\n        /* \"#utility.yul\":823:828   */\n      dup2\n        /* \"#utility.yul\":796:829   */\n      tag_42\n      jump\t// in\n    tag_93:\n        /* \"#utility.yul\":696:835   */\n      swap3\n      swap2\n      pop\n      pop\n      jump\t// out\n        /* \"#utility.yul\":841:1170   */\n    tag_8:\n        /* \"#utility.yul\":900:906   */\n      0x00\n        /* \"#utility.yul\":949:951   */\n      0x20\n        /* \"#utility.yul\":937:946   */\n      dup3\n        /* \"#utility.yul\":928:935   */\n      dup5\n        /* \"#utility.yul\":924:947   */\n      sub\n        /* \"#utility.yul\":920:952   */\n      slt\n        /* \"#utility.yul\":917:1036   */\n      iszero\n      tag_95\n      jumpi\n        /* \"#utility.yul\":955:1034   */\n      tag_96\n      tag_38\n      jump\t// in\n    tag_96:\n        /* \"#utility.yul\":917:1036   */\n    tag_95:\n        /* \"#utility.yul\":1075:1076   */\n      0x00\n        /* \"#utility.yul\":1100:1153   */\n      tag_97\n        /* \"#utility.yul\":1145:1152   */\n      dup5\n        /* \"#utility.yul\":1136:1142   */\n      dup3\n        /* \"#utility.yul\":1125:1134   */\n      dup6\n        /* \"#utility.yul\":1121:1143   */\n      add\n        /* \"#utility.yul\":1100:1153   */\n      tag_43\n      jump\t// in\n    tag_97:\n        /* \"#utility.yul\":1090:1153   */\n      swap2\n      pop\n        /* \"#utility.yul\":1046:1163   */\n      pop\n        /* \"#utility.yul\":841:1170   */\n      swap3\n      swap2\n      pop\n      pop\n      jump\t// out\n        /* \"#utility.yul\":1176:1253   */\n    tag_44:\n        /* \"#utility.yul\":1213:1220   */\n      0x00\n        /* \"#utility.yul\":1242:1247   */\n      dup2\n        /* \"#utility.yul\":1231:1247   */\n      swap1\n      pop\n        /* \"#utility.yul\":1176:1253   */\n      swap2\n      swap1\n      pop\n      jump\t// out\n        /* \"#utility.yul\":1259:1377   */\n    tag_45:\n        /* \"#utility.yul\":1346:1370   */\n      tag_100\n        /* \"#utility.yul\":1364:1369   */\n      dup2\n        /* \"#utility.yul\":1346:1370   */\n      tag_44\n      jump\t// in\n    tag_100:\n        /* \"#utility.yul\":1341:1344   */\n      dup3\n        /* \"#utility.yul\":1334:1371   */\n      mstore\n        /* \"#utility.yul\":1259:1377   */\n      pop\n      pop\n      jump\t// out\n        /* \"#utility.yul\":1383:1605   */\n    tag_11:\n        /* \"#utility.yul\":1476:1480   */\n      0x00\n        /* \"#utility.yul\":1514:1516   */\n      0x20\n        /* \"#utility.yul\":1503:1512   */\n      dup3\n        /* \"#utility.yul\":1499:1517   */\n      add\n        /* \"#utility.yul\":1491:1517   */\n      swap1\n      pop\n        /* \"#utility.yul\":1527:1598   */\n      tag_102\n        /* \"#utility.yul\":1595:1596   */\n      0x00\n        /* \"#utility.yul\":1584:1593   */\n      dup4\n        /* \"#utility.yul\":1580:1597   */\n      add\n        /* \"#utility.yul\":1571:1577   */\n      dup5\n        /* \"#utility.yul\":1527:1598   */\n      tag_45\n      jump\t// in\n    tag_102:\n        /* \"#utility.yul\":1383:1605   */\n      swap3\n      swap2\n      pop\n      pop\n      jump\t// out\n        /* \"#utility.yul\":1611:1728   */\n    tag_46:\n        /* \"#utility.yul\":1720:1721   */\n      0x00\n        /* \"#utility.yul\":1717:1718   */\n      0x00\n        /* \"#utility.yul\":1710:1722   */\n      revert\n        /* \"#utility.yul\":1734:1851   */\n    tag_47:\n        /* \"#utility.yul\":1843:1844   */\n      0x00\n        /* \"#utility.yul\":1840:1841   */\n      0x00\n        /* \"#utility.yul\":1833:1845   */\n      revert\n        /* \"#utility.yul\":1857:1959   */\n    tag_48:\n        /* \"#utility.yul\":1898:1904   */\n      0x00\n        /* \"#utility.yul\":1949:1951   */\n      0x1f\n        /* \"#utility.yul\":1945:1952   */\n      not\n        /* \"#utility.yul\":1940:1942   */\n      0x1f\n        /* \"#utility.yul\":1933:1938   */\n      dup4\n        /* \"#utility.yul\":1929:1943   */\n      add\n        /* \"#utility.yul\":1925:1953   */\n      and\n        /* \"#utility.yul\":1915:1953   */\n      swap1\n      pop\n        /* \"#utility.yul\":1857:1959   */\n      swap2\n      swap1\n      pop\n      jump\t// out\n        /* \"#utility.yul\":1965:2145   */\n    tag_49:\n        /* \"#utility.yul\":2013:2090   */\n      0x4e487b7100000000000000000000000000000000000000000000000000000000\n        /* \"#utility.yul\":2010:2011   */\n      0x00\n        /* \"#utility.yul\":2003:2091   */\n      mstore\n        /* \"#utility.yul\":2110:2114   */\n      0x41\n        /* \"#utility.yul\":2107:2108   */\n      0x04\n        /* \"#utility.yul\":2100:2115   */\n      mstore\n        /* \"#utility.yul\":2134:2138   */\n      0x24\n        /* \"#utility.yul\":2131:2132   */\n      0x00\n        /* \"#utility.yul\":2124:2139   */\n      revert\n        /* \"#utility.yul\":2151:2432   */\n    tag_50:\n        /* \"#utility.yul\":2234:2261   */\n      tag_108\n        /* \"#utility.yul\":2256:2260   */\n      dup3\n        /* \"#utility.yul\":2234:2261   */\n      tag_48\n      jump\t// in\n    tag_108:\n        /* \"#utility.yul\":2226:2232   */\n      dup2\n        /* \"#utility.yul\":2222:2262   */\n      add\n        /* \"#utility.yul\":2364:2370   */\n      dup2\n        /* \"#utility.yul\":2352:2362   */\n      dup2\n        /* \"#utility.yul\":2349:2371   */\n      lt\n        /* \"#utility.yul\":2328:2346   */\n      0xffffffffffffffff\n        /* \"#utility.yul\":2316:2326   */\n      dup3\n        /* \"#utility.yul\":2313:2347   */\n      gt\n        /* \"#utility.yul\":2310:2372   */\n      or\n        /* \"#utility.yul\":2307:2395   */\n      iszero\n      tag_109\n      jumpi\n        /* \"#utility.yul\":2375:2393   */\n      tag_110\n      tag_49\n      jump\t// in\n    tag_110:\n        /* \"#utility.yul\":2307:2395   */\n    tag_109:\n        /* \"#utility.yul\":2415:2425   */\n      dup1\n        /* \"#utility.yul\":2411:2413   */\n      0x40\n        /* \"#utility.yul\":2404:2426   */\n      mstore\n        /* \"#utility.yul\":2194:2432   */\n      pop\n        /* \"#utility.yul\":2151:2432   */\n      pop\n      pop\n      jump\t// out\n        /* \"#utility.yul\":2438:2567   */\n    tag_51:\n        /* \"#utility.yul\":2472:2478   */\n      0x00\n        /* \"#utility.yul\":2499:2519   */\n      tag_112\n      tag_37\n      jump\t// in\n    tag_112:\n        /* \"#utility.yul\":2489:2519   */\n      swap1\n      pop\n        /* \"#utility.yul\":2528:2561   */\n      tag_113\n        /* \"#utility.yul\":2556:2560   */\n      dup3\n        /* \"#utility.yul\":2548:2554   */\n      dup3\n        /* \"#utility.yul\":2528:2561   */\n      tag_50\n      jump\t// in\n    tag_113:\n        /* \"#utility.yul\":2438:2567   */\n      swap2\n      swap1\n      pop\n      jump\t// out\n        /* \"#utility.yul\":2573:2881   */\n    tag_52:\n        /* \"#utility.yul\":2635:2639   */\n      0x00\n        /* \"#utility.yul\":2725:2743   */\n      0xffffffffffffffff\n        /* \"#utility.yul\":2717:2723   */\n      dup3\n        /* \"#utility.yul\":2714:2744   */\n      gt\n        /* \"#utility.yul\":2711:2767   */\n      iszero\n      tag_115\n      jumpi\n        /* \"#utility.yul\":2747:2765   */\n      tag_116\n      tag_49\n      jump\t// in\n    tag_116:\n        /* \"#utility.yul\":2711:2767   */\n    tag_115:\n        /* \"#utility.yul\":2785:2814   */\n      tag_117\n        /* \"#utility.yul\":2807:2813   */\n      dup3\n        /* \"#utility.yul\":2785:2814   */\n      tag_48\n      jump\t// in\n    tag_117:\n        /* \"#utility.yul\":2777:2814   */\n      swap1\n      pop\n        /* \"#utility.yul\":2869:2873   */\n      0x20\n        /* \"#utility.yul\":2863:2867   */\n      dup2\n        /* \"#utility.yul\":2859:2874   */\n      add\n        /* \"#utility.yul\":2851:2874   */\n      swap1\n      pop\n        /* \"#utility.yul\":2573:2881   */\n      swap2\n      swap1\n      pop\n      jump\t// out\n        /* \"#utility.yul\":2887:3035   */\n    tag_53:\n        /* \"#utility.yul\":2985:2991   */\n      dup3\n        /* \"#utility.yul\":2980:2983   */\n      dup2\n        /* \"#utility.yul\":2975:2978   */\n      dup4\n        /* \"#utility.yul\":2962:2992   */\n      calldatacopy\n        /* \"#utility.yul\":3026:3027   */\n      0x00\n        /* \"#utility.yul\":3017:3023   */\n      dup4\n        /* \"#utility.yul\":3012:3015   */\n      dup4\n        /* \"#utility.yul\":3008:3024   */\n      add\n        /* \"#utility.yul\":3001:3028   */\n      mstore\n        /* \"#utility.yul\":2887:3035   */\n      pop\n      pop\n      pop\n      jump\t// out\n        /* \"#utility.yul\":3041:3466   */\n    tag_54:\n        /* \"#utility.yul\":3119:3124   */\n      0x00\n        /* \"#utility.yul\":3144:3210   */\n      tag_120\n        /* \"#utility.yul\":3160:3209   */\n      tag_121\n        /* \"#utility.yul\":3202:3208   */\n      dup5\n        /* \"#utility.yul\":3160:3209   */\n      tag_52\n      jump\t// in\n    tag_121:\n        /* \"#utility.yul\":3144:3210   */\n      tag_51\n      jump\t// in\n    tag_120:\n        /* \"#utility.yul\":3135:3210   */\n      swap1\n      pop\n        /* \"#utility.yul\":3233:3239   */\n      dup3\n        /* \"#utility.yul\":3226:3231   */\n      dup2\n        /* \"#utility.yul\":3219:3240   */\n      mstore\n        /* \"#utility.yul\":3271:3275   */\n      0x20\n        /* \"#utility.yul\":3264:3269   */\n      dup2\n        /* \"#utility.yul\":3260:3276   */\n      add\n        /* \"#utility.yul\":3309:3312   */\n      dup5\n        /* \"#utility.yul\":3300:3306   */\n      dup5\n        /* \"#utility.yul\":3295:3298   */\n      dup5\n        /* \"#utility.yul\":3291:3307   */\n      add\n        /* \"#utility.yul\":3288:3313   */\n      gt\n        /* \"#utility.yul\":3285:3397   */\n      iszero\n      tag_122\n      jumpi\n        /* \"#utility.yul\":3316:3395   */\n      tag_123\n      tag_47\n      jump\t// in\n    tag_123:\n        /* \"#utility.yul\":3285:3397   */\n    tag_122:\n        /* \"#utility.yul\":3406:3460   */\n      tag_124\n        /* \"#utility.yul\":3453:3459   */\n      dup5\n        /* \"#utility.yul\":3448:3451   */\n      dup3\n        /* \"#utility.yul\":3443:3446   */\n      dup6\n        /* \"#utility.yul\":3406:3460   */\n      tag_53\n      jump\t// in\n    tag_124:\n        /* \"#utility.yul\":3125:3466   */\n      pop\n        /* \"#utility.yul\":3041:3466   */\n      swap4\n      swap3\n      pop\n      pop\n      pop\n      jump\t// out\n        /* \"#utility.yul\":3486:3826   */\n    tag_55:\n        /* \"#utility.yul\":3542:3547   */\n      0x00\n        /* \"#utility.yul\":3591:3594   */\n      dup3\n        /* \"#utility.yul\":3584:3588   */\n      0x1f\n        /* \"#utility.yul\":3576:3582   */\n      dup4\n        /* \"#utility.yul\":3572:3589   */\n      add\n        /* \"#utility.yul\":3568:3595   */\n      slt\n        /* \"#utility.yul\":3558:3680   */\n      tag_126\n      jumpi\n        /* \"#utility.yul\":3599:3678   */\n      tag_127\n      tag_46\n      jump\t// in\n    tag_127:\n        /* \"#utility.yul\":3558:3680   */\n    tag_126:\n        /* \"#utility.yul\":3716:3722   */\n      dup2\n        /* \"#utility.yul\":3703:3723   */\n      calldataload\n        /* \"#utility.yul\":3741:3820   */\n      tag_128\n        /* \"#utility.yul\":3816:3819   */\n      dup5\n        /* \"#utility.yul\":3808:3814   */\n      dup3\n        /* \"#utility.yul\":3801:3805   */\n      0x20\n        /* \"#utility.yul\":3793:3799   */\n      dup7\n        /* \"#utility.yul\":3789:3806   */\n      add\n        /* \"#utility.yul\":3741:3820   */\n      tag_54\n      jump\t// in\n    tag_128:\n        /* \"#utility.yul\":3732:3820   */\n      swap2\n      pop\n        /* \"#utility.yul\":3548:3826   */\n      pop\n        /* \"#utility.yul\":3486:3826   */\n      swap3\n      swap2\n      pop\n      pop\n      jump\t// out\n        /* \"#utility.yul\":3832:4341   */\n    tag_14:\n        /* \"#utility.yul\":3901:3907   */\n      0x00\n        /* \"#utility.yul\":3950:3952   */\n      0x20\n        /* \"#utility.yul\":3938:3947   */\n      dup3\n        /* \"#utility.yul\":3929:3936   */\n      dup5\n        /* \"#utility.yul\":3925:3948   */\n      sub\n        /* \"#utility.yul\":3921:3953   */\n      slt\n        /* \"#utility.yul\":3918:4037   */\n      iszero\n      tag_130\n      jumpi\n        /* \"#utility.yul\":3956:4035   */\n      tag_131\n      tag_38\n      jump\t// in\n    tag_131:\n        /* \"#utility.yul\":3918:4037   */\n    tag_130:\n        /* \"#utility.yul\":4104:4105   */\n      0x00\n        /* \"#utility.yul\":4093:4102   */\n      dup3\n        /* \"#utility.yul\":4089:4106   */\n      add\n        /* \"#utility.yul\":4076:4107   */\n      calldataload\n        /* \"#utility.yul\":4134:4152   */\n      0xffffffffffffffff\n        /* \"#utility.yul\":4126:4132   */\n      dup2\n        /* \"#utility.yul\":4123:4153   */\n      gt\n        /* \"#utility.yul\":4120:4237   */\n      iszero\n      tag_132\n      jumpi\n        /* \"#utility.yul\":4156:4235   */\n      tag_133\n      tag_39\n      jump\t// in\n    tag_133:\n        /* \"#utility.yul\":4120:4237   */\n    tag_132:\n        /* \"#utility.yul\":4261:4324   */\n      tag_134\n        /* \"#utility.yul\":4316:4323   */\n      dup5\n        /* \"#utility.yul\":4307:4313   */\n      dup3\n        /* \"#utility.yul\":4296:4305   */\n      dup6\n        /* \"#utility.yul\":4292:4314   */\n      add\n        /* \"#utility.yul\":4261:4324   */\n      tag_55\n      jump\t// in\n    tag_134:\n        /* \"#utility.yul\":4251:4324   */\n      swap2\n      pop\n        /* \"#utility.yul\":4047:4334   */\n      pop\n        /* \"#utility.yul\":3832:4341   */\n      swap3\n      swap2\n      pop\n      pop\n      jump\t// out\n        /* \"#utility.yul\":4347:4469   */\n    tag_56:\n        /* \"#utility.yul\":4420:4444   */\n      tag_136\n        /* \"#utility.yul\":4438:4443   */\n      dup2\n        /* \"#utility.yul\":4420:4444   */\n      tag_44\n      jump\t// in\n    tag_136:\n        /* \"#utility.yul\":4413:4418   */\n      dup2\n        /* \"#utility.yul\":4410:4445   */\n      eq\n        /* \"#utility.yul\":4400:4463   */\n      tag_137\n      jumpi\n        /* \"#utility.yul\":4459:4460   */\n      0x00\n        /* \"#utility.yul\":4456:4457   */\n      0x00\n        /* \"#utility.yul\":4449:4461   */\n      revert\n        /* \"#utility.yul\":4400:4463   */\n    tag_137:\n        /* \"#utility.yul\":4347:4469   */\n      pop\n      jump\t// out\n        /* \"#utility.yul\":4475:4614   */\n    tag_57:\n        /* \"#utility.yul\":4521:4526   */\n      0x00\n        /* \"#utility.yul\":4559:4565   */\n      dup2\n        /* \"#utility.yul\":4546:4566   */\n      calldataload\n        /* \"#utility.yul\":4537:4566   */\n      swap1\n      pop\n        /* \"#utility.yul\":4575:4608   */\n      tag_139\n        /* \"#utility.yul\":4602:4607   */\n      dup2\n        /* \"#utility.yul\":4575:4608   */\n      tag_56\n      jump\t// in\n    tag_139:\n        /* \"#utility.yul\":4475:4614   */\n      swap3\n      swap2\n      pop\n      pop\n      jump\t// out\n        /* \"#utility.yul\":4620:5094   */\n    tag_19:\n        /* \"#utility.yul\":4688:4694   */\n      0x00\n        /* \"#utility.yul\":4696:4702   */\n      0x00\n        /* \"#utility.yul\":4745:4747   */\n      0x40\n        /* \"#utility.yul\":4733:4742   */\n      dup4\n        /* \"#utility.yul\":4724:4731   */\n      dup6\n        /* \"#utility.yul\":4720:4743   */\n      sub\n        /* \"#utility.yul\":4716:4748   */\n      slt\n        /* \"#utility.yul\":4713:4832   */\n      iszero\n      tag_141\n      jumpi\n        /* \"#utility.yul\":4751:4830   */\n      tag_142\n      tag_38\n      jump\t// in\n    tag_142:\n        /* \"#utility.yul\":4713:4832   */\n    tag_141:\n        /* \"#utility.yul\":4871:4872   */\n      0x00\n        /* \"#utility.yul\":4896:4949   */\n      tag_143\n        /* \"#utility.yul\":4941:4948   */\n      dup6\n        /* \"#utility.yul\":4932:4938   */\n      dup3\n        /* \"#utility.yul\":4921:4930   */\n      dup7\n        /* \"#utility.yul\":4917:4939   */\n      add\n        /* \"#utility.yul\":4896:4949   */\n      tag_43\n      jump\t// in\n    tag_143:\n        /* \"#utility.yul\":4886:4949   */\n      swap3\n      pop\n        /* \"#utility.yul\":4842:4959   */\n      pop\n        /* \"#utility.yul\":4998:5000   */\n      0x20\n        /* \"#utility.yul\":5024:5077   */\n      tag_144\n        /* \"#utility.yul\":5069:5076   */\n      dup6\n        /* \"#utility.yul\":5060:5066   */\n      dup3\n        /* \"#utility.yul\":5049:5058   */\n      dup7\n        /* \"#utility.yul\":5045:5067   */\n      add\n        /* \"#utility.yul\":5024:5077   */\n      tag_57\n      jump\t// in\n    tag_144:\n        /* \"#utility.yul\":5014:5077   */\n      swap2\n      pop\n        /* \"#utility.yul\":4969:5087   */\n      pop\n        /* \"#utility.yul\":4620:5094   */\n      swap3\n      pop\n      swap3\n      swap1\n      pop\n      jump\t// out\n        /* \"#utility.yul\":5100:5208   */\n    tag_58:\n        /* \"#utility.yul\":5177:5201   */\n      tag_146\n        /* \"#utility.yul\":5195:5200   */\n      dup2\n        /* \"#utility.yul\":5177:5201   */\n      tag_44\n      jump\t// in\n    tag_146:\n        /* \"#utility.yul\":5172:5175   */\n      dup3\n        /* \"#utility.yul\":5165:5202   */\n      mstore\n        /* \"#utility.yul\":5100:5208   */\n      pop\n      pop\n      jump\t// out\n        /* \"#utility.yul\":5214:5322   */\n    tag_59:\n        /* \"#utility.yul\":5291:5315   */\n      tag_148\n        /* \"#utility.yul\":5309:5314   */\n      dup2\n        /* \"#utility.yul\":5291:5315   */\n      tag_41\n      jump\t// in\n    tag_148:\n        /* \"#utility.yul\":5286:5289   */\n      dup3\n        /* \"#utility.yul\":5279:5316   */\n      mstore\n        /* \"#utility.yul\":5214:5322   */\n      pop\n      pop\n      jump\t// out\n        /* \"#utility.yul\":5328:5427   */\n    tag_60:\n        /* \"#utility.yul\":5380:5386   */\n      0x00\n        /* \"#utility.yul\":5414:5419   */\n      dup2\n        /* \"#utility.yul\":5408:5420   */\n      mload\n        /* \"#utility.yul\":5398:5420   */\n      swap1\n      pop\n        /* \"#utility.yul\":5328:5427   */\n      swap2\n      swap1\n      pop\n      jump\t// out\n        /* \"#utility.yul\":5433:5592   */\n    tag_61:\n        /* \"#utility.yul\":5507:5518   */\n      0x00\n        /* \"#utility.yul\":5541:5547   */\n      dup3\n        /* \"#utility.yul\":5536:5539   */\n      dup3\n        /* \"#utility.yul\":5529:5548   */\n      mstore\n        /* \"#utility.yul\":5581:5585   */\n      0x20\n        /* \"#utility.yul\":5576:5579   */\n      dup3\n        /* \"#utility.yul\":5572:5586   */\n      add\n        /* \"#utility.yul\":5557:5586   */\n      swap1\n      pop\n        /* \"#utility.yul\":5433:5592   */\n      swap3\n      swap2\n      pop\n      pop\n      jump\t// out\n        /* \"#utility.yul\":5598:5737   */\n    tag_62:\n        /* \"#utility.yul\":5687:5693   */\n      dup3\n        /* \"#utility.yul\":5682:5685   */\n      dup2\n        /* \"#utility.yul\":5677:5680   */\n      dup4\n        /* \"#utility.yul\":5671:5694   */\n      mcopy\n        /* \"#utility.yul\":5728:5729   */\n      0x00\n        /* \"#utility.yul\":5719:5725   */\n      dup4\n        /* \"#utility.yul\":5714:5717   */\n      dup4\n        /* \"#utility.yul\":5710:5726   */\n      add\n        /* \"#utility.yul\":5703:5730   */\n      mstore\n        /* \"#utility.yul\":5598:5737   */\n      pop\n      pop\n      pop\n      jump\t// out\n        /* \"#utility.yul\":5743:6100   */\n    tag_63:\n        /* \"#utility.yul\":5821:5824   */\n      0x00\n        /* \"#utility.yul\":5849:5888   */\n      tag_153\n        /* \"#utility.yul\":5882:5887   */\n      dup3\n        /* \"#utility.yul\":5849:5888   */\n      tag_60\n      jump\t// in\n    tag_153:\n        /* \"#utility.yul\":5904:5965   */\n      tag_154\n        /* \"#utility.yul\":5958:5964   */\n      dup2\n        /* \"#utility.yul\":5953:5956   */\n      dup6\n        /* \"#utility.yul\":5904:5965   */\n      tag_61\n      jump\t// in\n    tag_154:\n        /* \"#utility.yul\":5897:5965   */\n      swap4\n      pop\n        /* \"#utility.yul\":5974:6039   */\n      tag_155\n        /* \"#utility.yul\":6032:6038   */\n      dup2\n        /* \"#utility.yul\":6027:6030   */\n      dup6\n        /* \"#utility.yul\":6020:6024   */\n      0x20\n        /* \"#utility.yul\":6013:6018   */\n      dup7\n        /* \"#utility.yul\":6009:6025   */\n      add\n        /* \"#utility.yul\":5974:6039   */\n      tag_62\n      jump\t// in\n    tag_155:\n        /* \"#utility.yul\":6064:6093   */\n      tag_156\n        /* \"#utility.yul\":6086:6092   */\n      dup2\n        /* \"#utility.yul\":6064:6093   */\n      tag_48\n      jump\t// in\n    tag_156:\n        /* \"#utility.yul\":6059:6062   */\n      dup5\n        /* \"#utility.yul\":6055:6094   */\n      add\n        /* \"#utility.yul\":6048:6094   */\n      swap2\n      pop\n        /* \"#utility.yul\":5825:6100   */\n      pop\n        /* \"#utility.yul\":5743:6100   */\n      swap3\n      swap2\n      pop\n      pop\n      jump\t// out\n        /* \"#utility.yul\":6164:7124   */\n    tag_64:\n        /* \"#utility.yul\":6279:6282   */\n      0x00\n        /* \"#utility.yul\":6315:6319   */\n      0x80\n        /* \"#utility.yul\":6310:6313   */\n      dup4\n        /* \"#utility.yul\":6306:6320   */\n      add\n        /* \"#utility.yul\":6404:6408   */\n      0x00\n        /* \"#utility.yul\":6397:6402   */\n      dup4\n        /* \"#utility.yul\":6393:6409   */\n      add\n        /* \"#utility.yul\":6387:6410   */\n      mload\n        /* \"#utility.yul\":6423:6486   */\n      tag_158\n        /* \"#utility.yul\":6480:6484   */\n      0x00\n        /* \"#utility.yul\":6475:6478   */\n      dup7\n        /* \"#utility.yul\":6471:6485   */\n      add\n        /* \"#utility.yul\":6457:6469   */\n      dup3\n        /* \"#utility.yul\":6423:6486   */\n      tag_58\n      jump\t// in\n    tag_158:\n        /* \"#utility.yul\":6330:6496   */\n      pop\n        /* \"#utility.yul\":6583:6587   */\n      0x20\n        /* \"#utility.yul\":6576:6581   */\n      dup4\n        /* \"#utility.yul\":6572:6588   */\n      add\n        /* \"#utility.yul\":6566:6589   */\n      mload\n        /* \"#utility.yul\":6602:6665   */\n      tag_159\n        /* \"#utility.yul\":6659:6663   */\n      0x20\n        /* \"#utility.yul\":6654:6657   */\n      dup7\n        /* \"#utility.yul\":6650:6664   */\n      add\n        /* \"#utility.yul\":6636:6648   */\n      dup3\n        /* \"#utility.yul\":6602:6665   */\n      tag_58\n      jump\t// in\n    tag_159:\n        /* \"#utility.yul\":6506:6675   */\n      pop\n        /* \"#utility.yul\":6757:6761   */\n      0x40\n        /* \"#utility.yul\":6750:6755   */\n      dup4\n        /* \"#utility.yul\":6746:6762   */\n      add\n        /* \"#utility.yul\":6740:6763   */\n      mload\n        /* \"#utility.yul\":6776:6839   */\n      tag_160\n        /* \"#utility.yul\":6833:6837   */\n      0x40\n        /* \"#utility.yul\":6828:6831   */\n      dup7\n        /* \"#utility.yul\":6824:6838   */\n      add\n        /* \"#utility.yul\":6810:6822   */\n      dup3\n        /* \"#utility.yul\":6776:6839   */\n      tag_59\n      jump\t// in\n    tag_160:\n        /* \"#utility.yul\":6685:6849   */\n      pop\n        /* \"#utility.yul\":6934:6938   */\n      0x60\n        /* \"#utility.yul\":6927:6932   */\n      dup4\n        /* \"#utility.yul\":6923:6939   */\n      add\n        /* \"#utility.yul\":6917:6940   */\n      mload\n        /* \"#utility.yul\":6987:6990   */\n      dup5\n        /* \"#utility.yul\":6981:6985   */\n      dup3\n        /* \"#utility.yul\":6977:6991   */\n      sub\n        /* \"#utility.yul\":6970:6974   */\n      0x60\n        /* \"#utility.yul\":6965:6968   */\n      dup7\n        /* \"#utility.yul\":6961:6975   */\n      add\n        /* \"#utility.yul\":6954:6992   */\n      mstore\n        /* \"#utility.yul\":7013:7086   */\n      tag_161\n        /* \"#utility.yul\":7081:7085   */\n      dup3\n        /* \"#utility.yul\":7067:7079   */\n      dup3\n        /* \"#utility.yul\":7013:7086   */\n      tag_63\n      jump\t// in\n    tag_161:\n        /* \"#utility.yul\":7005:7086   */\n      swap2\n      pop\n        /* \"#utility.yul\":6859:7097   */\n      pop\n        /* \"#utility.yul\":7114:7118   */\n      dup1\n        /* \"#utility.yul\":7107:7118   */\n      swap2\n      pop\n        /* \"#utility.yul\":6284:7124   */\n      pop\n        /* \"#utility.yul\":6164:7124   */\n      swap3\n      swap2\n      pop\n      pop\n      jump\t// out\n        /* \"#utility.yul\":7130:7495   */\n    tag_22:\n        /* \"#utility.yul\":7269:7273   */\n      0x00\n        /* \"#utility.yul\":7307:7309   */\n      0x20\n        /* \"#utility.yul\":7296:7305   */\n      dup3\n        /* \"#utility.yul\":7292:7310   */\n      add\n        /* \"#utility.yul\":7284:7310   */\n      swap1\n      pop\n        /* \"#utility.yul\":7356:7365   */\n      dup2\n        /* \"#utility.yul\":7350:7354   */\n      dup2\n        /* \"#utility.yul\":7346:7366   */\n      sub\n        /* \"#utility.yul\":7342:7343   */\n      0x00\n        /* \"#utility.yul\":7331:7340   */\n      dup4\n        /* \"#utility.yul\":7327:7344   */\n      add\n        /* \"#utility.yul\":7320:7367   */\n      mstore\n        /* \"#utility.yul\":7384:7488   */\n      tag_163\n        /* \"#utility.yul\":7483:7487   */\n      dup2\n        /* \"#utility.yul\":7474:7480   */\n      dup5\n        /* \"#utility.yul\":7384:7488   */\n      tag_64\n      jump\t// in\n    tag_163:\n        /* \"#utility.yul\":7376:7488   */\n      swap1\n      pop\n        /* \"#utility.yul\":7130:7495   */\n      swap3\n      swap2\n      pop\n      pop\n      jump\t// out\n        /* \"#utility.yul\":7501:7681   */\n    tag_65:\n        /* \"#utility.yul\":7549:7626   */\n      0x4e487b7100000000000000000000000000000000000000000000000000000000\n        /* \"#utility.yul\":7546:7547   */\n      0x00\n        /* \"#utility.yul\":7539:7627   */\n      mstore\n        /* \"#utility.yul\":7646:7650   */\n      0x11\n        /* \"#utility.yul\":7643:7644   */\n      0x04\n        /* \"#utility.yul\":7636:7651   */\n      mstore\n        /* \"#utility.yul\":7670:7674   */\n      0x24\n        /* \"#utility.yul\":7667:7668   */\n      0x00\n        /* \"#utility.yul\":7660:7675   */\n      revert\n        /* \"#utility.yul\":7687:7920   */\n    tag_25:\n        /* \"#utility.yul\":7726:7729   */\n      0x00\n        /* \"#utility.yul\":7749:7773   */\n      tag_166\n        /* \"#utility.yul\":7767:7772   */\n      dup3\n        /* \"#utility.yul\":7749:7773   */\n      tag_44\n      jump\t// in\n    tag_166:\n        /* \"#utility.yul\":7740:7773   */\n      swap2\n      pop\n        /* \"#utility.yul\":7795:7861   */\n      0xffffffffffffffffffffffffffffffffffffffffffffffffffffffffffffffff\n        /* \"#utility.yul\":7788:7793   */\n      dup3\n        /* \"#utility.yul\":7785:7862   */\n      sub\n        /* \"#utility.yul\":7782:7885   */\n      tag_167\n      jumpi\n        /* \"#utility.yul\":7865:7883   */\n      tag_168\n      tag_65\n      jump\t// in\n    tag_168:\n        /* \"#utility.yul\":7782:7885   */\n    tag_167:\n        /* \"#utility.yul\":7912:7913   */\n      0x01\n        /* \"#utility.yul\":7905:7910   */\n      dup3\n        /* \"#utility.yul\":7901:7914   */\n      add\n        /* \"#utility.yul\":7894:7914   */\n      swap1\n      pop\n        /* \"#utility.yul\":7687:7920   */\n      swap2\n      swap1\n      pop\n      jump\t// out\n        /* \"#utility.yul\":7926:8106   */\n    tag_66:\n        /* \"#utility.yul\":7974:8051   */\n      0x4e487b7100000000000000000000000000000000000000000000000000000000\n        /* \"#utility.yul\":7971:7972   */\n      0x00\n        /* \"#utility.yul\":7964:8052   */\n      mstore\n        /* \"#utility.yul\":8071:8075   */\n      0x22\n        /* \"#utility.yul\":8068:8069   */\n      0x04\n        /* \"#utility.yul\":8061:8076   */\n      mstore\n        /* \"#utility.yul\":8095:8099   */\n      0x24\n        /* \"#utility.yul\":8092:8093   */\n      0x00\n        /* \"#utility.yul\":8085:8100   */\n      revert\n        /* \"#utility.yul\":8112:8432   */\n    tag_32:\n        /* \"#utility.yul\":8156:8162   */\n      0x00\n        /* \"#utility.yul\":8193:8194   */\n      0x02\n        /* \"#utility.yul\":8187:8191   */\n      dup3\n        /* \"#utility.yul\":8183:8195   */\n      div\n        /* \"#utility.yul\":8173:8195   */\n      swap1\n      pop\n        /* \"#utility.yul\":8240:8241   */\n      0x01\n        /* \"#utility.yul\":8234:8238   */\n      dup3\n        /* \"#utility.yul\":8230:8242   */\n      and\n        /* \"#utility.yul\":8261:8279   */\n      dup1\n        /* \"#utility.yul\":8251:8332   */\n      tag_171\n      jumpi\n        /* \"#utility.yul\":8317:8321   */\n      0x7f\n        /* \"#utility.yul\":8309:8315   */\n      dup3\n        /* \"#utility.yul\":8305:8322   */\n      and\n        /* \"#utility.yul\":8295:8322   */\n      swap2\n      pop\n        /* \"#utility.yul\":8251:8332   */\n    tag_171:\n        /* \"#utility.yul\":8379:8381   */\n      0x20\n        /* \"#utility.yul\":8371:8377   */\n      dup3\n        /* \"#utility.yul\":8368:8382   */\n      lt\n        /* \"#utility.yul\":8348:8366   */\n      dup2\n        /* \"#utility.yul\":8345:8383   */\n      sub\n        /* \"#utility.yul\":8342:8426   */\n      tag_172\n      jumpi\n        /* \"#utility.yul\":8398:8416   */\n      tag_173\n      tag_66\n      jump\t// in\n    tag_173:\n        /* \"#utility.yul\":8342:8426   */\n    tag_172:\n        /* \"#utility.yul\":8163:8432   */\n      pop\n        /* \"#utility.yul\":8112:8432   */\n      swap2\n      swap1\n      pop\n      jump\t// out\n        /* \"#utility.yul\":8438:8579   */\n    tag_67:\n        /* \"#utility.yul\":8487:8491   */\n      0x00\n        /* \"#utility.yul\":8510:8513   */\n      dup2\n        /* \"#utility.yul\":8502:8513   */\n      swap1\n      pop\n        /* \"#utility.yul\":8533:8536   */\n      dup2\n        /* \"#utility.yul\":8530:8531   */\n      0x00\n        /* \"#utility.yul\":8523:8537   */\n      mstore\n        /* \"#utility.yul\":8567:8571   */\n      0x20\n        /* \"#utility.yul\":8564:8565   */\n      0x00\n        /* \"#utility.yul\":8554:8572   */\n      keccak256\n        /* \"#utility.yul\":8546:8572   */\n      swap1\n      pop\n        /* \"#utility.yul\":8438:8579   */\n      swap2\n      swap1\n      pop\n      jump\t// out\n        /* \"#utility.yul\":8585:8678   */\n    tag_68:\n        /* \"#utility.yul\":8622:8628   */\n      0x00\n        /* \"#utility.yul\":8669:8671   */\n      0x20\n        /* \"#utility.yul\":8664:8666   */\n      0x1f\n        /* \"#utility.yul\":8657:8662   */\n      dup4\n        /* \"#utility.yul\":8653:8667   */\n      add\n        /* \"#utility.yul\":8649:8672   */\n      div\n        /* \"#utility.yul\":8639:8672   */\n      swap1\n      pop\n        /* \"#utility.yul\":8585:8678   */\n      swap2\n      swap1\n      pop\n      jump\t// out\n        /* \"#utility.yul\":8684:8791   */\n    tag_69:\n        /* \"#utility.yul\":8728:8736   */\n      0x00\n        /* \"#utility.yul\":8778:8783   */\n      dup3\n        /* \"#utility.yul\":8772:8776   */\n      dup3\n        /* \"#utility.yul\":8768:8784   */\n      shl\n        /* \"#utility.yul\":8747:8784   */\n      swap1\n      pop\n        /* \"#utility.yul\":8684:8791   */\n      swap3\n      swap2\n      pop\n      pop\n      jump\t// out\n        /* \"#utility.yul\":8797:9190   */\n    tag_70:\n        /* \"#utility.yul\":8866:8872   */\n      0x00\n        /* \"#utility.yul\":8916:8917   */\n      0x08\n        /* \"#utility.yul\":8904:8914   */\n      dup4\n        /* \"#utility.yul\":8900:8918   */\n      mul\n        /* \"#utility.yul\":8939:9036   */\n      tag_178\n        /* \"#utility.yul\":8969:9035   */\n      0xffffffffffffffffffffffffffffffffffffffffffffffffffffffffffffffff\n        /* \"#utility.yul\":8958:8967   */\n      dup3\n        /* \"#utility.yul\":8939:9036   */\n      tag_69\n      jump\t// in\n    tag_178:\n        /* \"#utility.yul\":9057:9096   */\n      tag_179\n        /* \"#utility.yul\":9087:9095   */\n      dup7\n        /* \"#utility.yul\":9076:9085   */\n      dup4\n        /* \"#utility.yul\":9057:9096   */\n      tag_69\n      jump\t// in\n    tag_179:\n        /* \"#utility.yul\":9045:9096   */\n      swap6\n      pop\n        /* \"#utility.yul\":9129:9133   */\n      dup1\n        /* \"#utility.yul\":9125:9134   */\n      not\n        /* \"#utility.yul\":9118:9123   */\n      dup5\n        /* \"#utility.yul\":9114:9135   */\n      and\n        /* \"#utility.yul\":9105:9135   */\n      swap4\n      pop\n        /* \"#utility.yul\":9178:9182   */\n      dup1\n        /* \"#utility.yul\":9168:9176   */\n      dup7\n        /* \"#utility.yul\":9164:9183   */\n      and\n        /* \"#utility.yul\":9157:9162   */\n      dup5\n        /* \"#utility.yul\":9154:9184   */\n      or\n        /* \"#utility.yul\":9144:9184   */\n      swap3\n      pop\n        /* \"#utility.yul\":8873:9190   */\n      pop\n      pop\n        /* \"#utility.yul\":8797:9190   */\n      swap4\n      swap3\n      pop\n      pop\n      pop\n      jump\t// out\n        /* \"#utility.yul\":9196:9256   */\n    tag_71:\n        /* \"#utility.yul\":9224:9227   */\n      0x00\n        /* \"#utility.yul\":9245:9250   */\n      dup2\n        /* \"#utility.yul\":9238:9250   */\n      swap1\n      pop\n        /* \"#utility.yul\":9196:9256   */\n      swap2\n      swap1\n      pop\n      jump\t// out\n        /* \"#utility.yul\":9262:9404   */\n    tag_72:\n        /* \"#utility.yul\":9312:9321   */\n      0x00\n        /* \"#utility.yul\":9345:9398   */\n      tag_182\n        /* \"#utility.yul\":9363:9397   */\n      tag_183\n        /* \"#utility.yul\":9372:9396   */\n      tag_184\n        /* \"#utility.yul\":9390:9395   */\n      dup5\n        /* \"#utility.yul\":9372:9396   */\n      tag_44\n      jump\t// in\n    tag_184:\n        /* \"#utility.yul\":9363:9397   */\n      tag_71\n      jump\t// in\n    tag_183:\n        /* \"#utility.yul\":9345:9398   */\n      tag_44\n      jump\t// in\n    tag_182:\n        /* \"#utility.yul\":9332:9398   */\n      swap1\n      pop\n        /* \"#utility.yul\":9262:9404   */\n      swap2\n      swap1\n      pop\n      jump\t// out\n        /* \"#utility.yul\":9410:9485   */\n    tag_73:\n        /* \"#utility.yul\":9453:9456   */\n      0x00\n        /* \"#utility.yul\":9474:9479   */\n      dup2\n        /* \"#utility.yul\":9467:9479   */\n      swap1\n      pop\n        /* \"#utility.yul\":9410:9485   */\n      swap2\n      swap1\n      pop\n      jump\t// out\n        /* \"#utility.yul\":9491:9760   */\n    tag_74:\n        /* \"#utility.yul\":9601:9640   */\n      tag_187\n        /* \"#utility.yul\":9632:9639   */\n      dup4\n        /* \"#utility.yul\":9601:9640   */\n      tag_72\n      jump\t// in\n    tag_187:\n        /* \"#utility.yul\":9662:9753   */\n      tag_188\n        /* \"#utility.yul\":9711:9752   */\n      tag_189\n        /* \"#utility.yul\":9735:9751   */\n      dup3\n        /* \"#utility.yul\":9711:9752   */\n      tag_73\n      jump\t// in\n    tag_189:\n        /* \"#utility.yul\":9703:9709   */\n      dup5\n        /* \"#utility.yul\":9696:9700   */\n      dup5\n        /* \"#utility.yul\":9690:9701   */\n      sload\n        /* \"#utility.yul\":9662:9753   */\n      tag_70\n      jump\t// in\n    tag_188:\n        /* \"#utility.yul\":9656:9660   */\n      dup3\n        /* \"#utility.yul\":9649:9754   */\n      sstore\n        /* \"#utility.yul\":9567:9760   */\n      pop\n        /* \"#utility.yul\":9491:9760   */\n      pop\n      pop\n      pop\n      jump\t// out\n        /* \"#utility.yul\":9766:9839   */\n    tag_75:\n        /* \"#utility.yul\":9811:9814   */\n      0x00\n        /* \"#utility.yul\":9832:9833   */\n      0x00\n        /* \"#utility.yul\":9825:9833   */\n      swap1\n      pop\n        /* \"#utility.yul\":9766:9839   */\n      swap1\n      jump\t// out\n        /* \"#utility.yul\":9845:10034   */\n    tag_76:\n        /* \"#utility.yul\":9922:9954   */\n      tag_192\n      tag_75\n      jump\t// in\n    tag_192:\n        /* \"#utility.yul\":9963:10028   */\n      tag_193\n        /* \"#utility.yul\":10021:10027   */\n      dup2\n        /* \"#utility.yul\":10013:10019   */\n      dup5\n        /* \"#utility.yul\":10007:10011   */\n      dup5\n        /* \"#utility.yul\":9963:10028   */\n      tag_74\n      jump\t// in\n    tag_193:\n        /* \"#utility.yul\":9898:10034   */\n      pop\n        /* \"#utility.yul\":9845:10034   */\n      pop\n      pop\n      jump\t// out\n        /* \"#utility.yul\":10040:10226   */\n    tag_77:\n        /* \"#utility.yul\":10100:10220   */\n    tag_195:\n        /* \"#utility.yul\":10117:10120   */\n      dup2\n        /* \"#utility.yul\":10110:10115   */\n      dup2\n        /* \"#utility.yul\":10107:10121   */\n      lt\n        /* \"#utility.yul\":10100:10220   */\n      iszero\n      tag_197\n      jumpi\n        /* \"#utility.yul\":10171:10210   */\n      tag_198\n        /* \"#utility.yul\":10208:10209   */\n      0x00\n        /* \"#utility.yul\":10201:10206   */\n      dup3\n        /* \"#utility.yul\":10171:10210   */\n      tag_76\n      jump\t// in\n    tag_198:\n        /* \"#utility.yul\":10144:10145   */\n      0x01\n        /* \"#utility.yul\":10137:10142   */\n      dup2\n        /* \"#utility.yul\":10133:10146   */\n      add\n        /* \"#utility.yul\":10124:10146   */\n      swap1\n      pop\n        /* \"#utility.yul\":10100:10220   */\n      jump(tag_195)\n    tag_197:\n        /* \"#utility.yul\":10040:10226   */\n      pop\n      pop\n      jump\t// out\n        /* \"#utility.yul\":10232:10775   */\n    tag_78:\n        /* \"#utility.yul\":10333:10335   */\n      0x1f\n        /* \"#utility.yul\":10328:10331   */\n      dup3\n        /* \"#utility.yul\":10325:10336   */\n      gt\n        /* \"#utility.yul\":10322:10768   */\n      iszero\n      tag_200\n      jumpi\n        /* \"#utility.yul\":10367:10405   */\n      tag_201\n        /* \"#utility.yul\":10399:10404   */\n      dup2\n        /* \"#utility.yul\":10367:10405   */\n      tag_67\n      jump\t// in\n    tag_201:\n        /* \"#utility.yul\":10451:10480   */\n      tag_202\n        /* \"#utility.yul\":10469:10479   */\n      dup5\n        /* \"#utility.yul\":10451:10480   */\n      tag_68\n      jump\t// in\n    tag_202:\n        /* \"#utility.yul\":10441:10449   */\n      dup2\n        /* \"#utility.yul\":10437:10481   */\n      add\n        /* \"#utility.yul\":10634:10636   */\n      0x20\n        /* \"#utility.yul\":10622:10632   */\n      dup6\n        /* \"#utility.yul\":10619:10637   */\n      lt\n        /* \"#utility.yul\":10616:10665   */\n      iszero\n      tag_203\n      jumpi\n        /* \"#utility.yul\":10655:10663   */\n      dup2\n        /* \"#utility.yul\":10640:10663   */\n      swap1\n      pop\n        /* \"#utility.yul\":10616:10665   */\n    tag_203:\n        /* \"#utility.yul\":10678:10758   */\n      tag_204\n        /* \"#utility.yul\":10734:10756   */\n      tag_205\n        /* \"#utility.yul\":10752:10755   */\n      dup6\n        /* \"#utility.yul\":10734:10756   */\n      tag_68\n      jump\t// in\n    tag_205:\n        /* \"#utility.yul\":10724:10732   */\n      dup4\n        /* \"#utility.yul\":10720:10757   */\n      add\n        /* \"#utility.yul\":10707:10718   */\n      dup3\n        /* \"#utility.yul\":10678:10758   */\n      tag_77\n      jump\t// in\n    tag_204:\n        /* \"#utility.yul\":10337:10768   */\n      pop\n      pop\n        /* \"#utility.yul\":10322:10768   */\n    tag_200:\n        /* \"#utility.yul\":10232:10775   */\n      pop\n      pop\n      pop\n      jump\t// out\n        /* \"#utility.yul\":10781:10898   */\n    tag_79:\n        /* \"#utility.yul\":10835:10843   */\n      0x00\n        /* \"#utility.yul\":10885:10890   */\n      dup3\n        /* \"#utility.yul\":10879:10883   */\n      dup3\n        /* \"#utility.yul\":10875:10891   */\n      shr\n        /* \"#utility.yul\":10854:10891   */\n      swap1\n      pop\n        /* \"#utility.yul\":10781:10898   */\n      swap3\n      swap2\n      pop\n      pop\n      jump\t// out\n        /* \"#utility.yul\":10904:11073   */\n    tag_80:\n        /* \"#utility.yul\":10948:10954   */\n      0x00\n        /* \"#utility.yul\":10981:11032   */\n      tag_208\n        /* \"#utility.yul\":11029:11030   */\n      0x00\n        /* \"#utility.yul\":11025:11031   */\n      not\n        /* \"#utility.yul\":11017:11022   */\n      dup5\n        /* \"#utility.yul\":11014:11015   */\n      0x08\n        /* \"#utility.yul\":11010:11023   */\n      mul\n        /* \"#utility.yul\":10981:11032   */\n      tag_79\n      jump\t// in\n    tag_208:\n        /* \"#utility.yul\":10977:11033   */\n      not\n        /* \"#utility.yul\":11062:11066   */\n      dup1\n        /* \"#utility.yul\":11056:11060   */\n      dup4\n        /* \"#utility.yul\":11052:11067   */\n      and\n        /* \"#utility.yul\":11042:11067   */\n      swap2\n      pop\n        /* \"#utility.yul\":10955:11073   */\n      pop\n        /* \"#utility.yul\":10904:11073   */\n      swap3\n      swap2\n      pop\n      pop\n      jump\t// out\n        /* \"#utility.yul\":11078:11373   */\n    tag_81:\n        /* \"#utility.yul\":11154:11158   */\n      0x00\n        /* \"#utility.yul\":11300:11329   */\n      tag_210\n        /* \"#utility.yul\":11325:11328   */\n      dup4\n        /* \"#utility.yul\":11319:11323   */\n      dup4\n        /* \"#utility.yul\":11300:11329   */\n      tag_80\n      jump\t// in\n    tag_210:\n        /* \"#utility.yul\":11292:11329   */\n      swap2\n      pop\n        /* \"#utility.yul\":11362:11365   */\n      dup3\n        /* \"#utility.yul\":11359:11360   */\n      0x02\n        /* \"#utility.yul\":11355:11366   */\n      mul\n        /* \"#utility.yul\":11349:11353   */\n      dup3\n        /* \"#utility.yul\":11346:11367   */\n      or\n        /* \"#utility.yul\":11338:11367   */\n      swap1\n      pop\n        /* \"#utility.yul\":11078:11373   */\n      swap3\n      swap2\n      pop\n      pop\n      jump\t// out\n        /* \"#utility.yul\":11378:12773   */\n    tag_27:\n        /* \"#utility.yul\":11495:11532   */\n      tag_212\n        /* \"#utility.yul\":11528:11531   */\n      dup3\n        /* \"#utility.yul\":11495:11532   */\n      tag_60\n      jump\t// in\n    tag_212:\n        /* \"#utility.yul\":11597:11615   */\n      0xffffffffffffffff\n        /* \"#utility.yul\":11589:11595   */\n      dup2\n        /* \"#utility.yul\":11586:11616   */\n      gt\n        /* \"#utility.yul\":11583:11639   */\n      iszero\n      tag_213\n      jumpi\n        /* \"#utility.yul\":11619:11637   */\n      tag_214\n      tag_49\n      jump\t// in\n    tag_214:\n        /* \"#utility.yul\":11583:11639   */\n    tag_213:\n        /* \"#utility.yul\":11663:11701   */\n      tag_215\n        /* \"#utility.yul\":11695:11699   */\n      dup3\n        /* \"#utility.yul\":11689:11700   */\n      sload\n        /* \"#utility.yul\":11663:11701   */\n      tag_32\n      jump\t// in\n    tag_215:\n        /* \"#utility.yul\":11748:11815   */\n      tag_216\n        /* \"#utility.yul\":11808:11814   */\n      dup3\n        /* \"#utility.yul\":11800:11806   */\n      dup3\n        /* \"#utility.yul\":11794:11798   */\n      dup6\n        /* \"#utility.yul\":11748:11815   */\n      tag_78\n      jump\t// in\n    tag_216:\n        /* \"#utility.yul\":11842:11843   */\n      0x00\n        /* \"#utility.yul\":11866:11870   */\n      0x20\n        /* \"#utility.yul\":11853:11870   */\n      swap1\n      pop\n        /* \"#utility.yul\":11898:11900   */\n      0x1f\n        /* \"#utility.yul\":11890:11896   */\n      dup4\n        /* \"#utility.yul\":11887:11901   */\n      gt\n        /* \"#utility.yul\":11915:11916   */\n      0x01\n        /* \"#utility.yul\":11910:12528   */\n      dup2\n      eq\n      tag_218\n      jumpi\n        /* \"#utility.yul\":12572:12573   */\n      0x00\n        /* \"#utility.yul\":12589:12595   */\n      dup5\n        /* \"#utility.yul\":12586:12663   */\n      iszero\n      tag_219\n      jumpi\n        /* \"#utility.yul\":12638:12647   */\n      dup3\n        /* \"#utility.yul\":12633:12636   */\n      dup8\n        /* \"#utility.yul\":12629:12648   */\n      add\n        /* \"#utility.yul\":12623:12649   */\n      mload\n        /* \"#utility.yul\":12614:12649   */\n      swap1\n      pop\n        /* \"#utility.yul\":12586:12663   */\n    tag_219:\n        /* \"#utility.yul\":12689:12756   */\n      tag_220\n        /* \"#utility.yul\":12749:12755   */\n      dup6\n        /* \"#utility.yul\":12742:12747   */\n      dup3\n        /* \"#utility.yul\":12689:12756   */\n      tag_81\n      jump\t// in\n    tag_220:\n        /* \"#utility.yul\":12683:12687   */\n      dup7\n        /* \"#utility.yul\":12676:12757   */\n      sstore\n        /* \"#utility.yul\":12545:12767   */\n      pop\n        /* \"#utility.yul\":11880:12767   */\n      jump(tag_217)\n        /* \"#utility.yul\":11910:12528   */\n    tag_218:\n        /* \"#utility.yul\":11962:11966   */\n      0x1f\n        /* \"#utility.yul\":11958:11967   */\n      not\n        /* \"#utility.yul\":11950:11956   */\n      dup5\n        /* \"#utility.yul\":11946:11968   */\n      and\n        /* \"#utility.yul\":11996:12033   */\n      tag_221\n        /* \"#utility.yul\":12028:12032   */\n      dup7\n        /* \"#utility.yul\":11996:12033   */\n      tag_67\n      jump\t// in\n    tag_221:\n        /* \"#utility.yul\":12055:12056   */\n      0x00\n        /* \"#utility.yul\":12069:12277   */\n    tag_222:\n        /* \"#utility.yul\":12083:12090   */\n      dup3\n        /* \"#utility.yul\":12080:12081   */\n      dup2\n        /* \"#utility.yul\":12077:12091   */\n      lt\n        /* \"#utility.yul\":12069:12277   */\n      iszero\n      tag_224\n      jumpi\n        /* \"#utility.yul\":12162:12171   */\n      dup5\n        /* \"#utility.yul\":12157:12160   */\n      dup10\n        /* \"#utility.yul\":12153:12172   */\n      add\n        /* \"#utility.yul\":12147:12173   */\n      mload\n        /* \"#utility.yul\":12139:12145   */\n      dup3\n        /* \"#utility.yul\":12132:12174   */\n      sstore\n        /* \"#utility.yul\":12213:12214   */\n      0x01\n        /* \"#utility.yul\":12205:12211   */\n      dup3\n        /* \"#utility.yul\":12201:12215   */\n      add\n        /* \"#utility.yul\":12191:12215   */\n      swap2\n      pop\n        /* \"#utility.yul\":12260:12262   */\n      0x20\n        /* \"#utility.yul\":12249:12258   */\n      dup6\n        /* \"#utility.yul\":12245:12263   */\n      add\n        /* \"#utility.yul\":12232:12263   */\n      swap5\n      pop\n        /* \"#utility.yul\":12106:12110   */\n      0x20\n        /* \"#utility.yul\":12103:12104   */\n      dup2\n        /* \"#utility.yul\":12099:12111   */\n      add\n        /* \"#utility.yul\":12094:12111   */\n      swap1\n      pop\n        /* \"#utility.yul\":12069:12277   */\n      jump(tag_222)\n    tag_224:\n        /* \"#utility.yul\":12305:12311   */\n      dup7\n        /* \"#utility.yul\":12296:12303   */\n      dup4\n        /* \"#utility.yul\":12293:12312   */\n      lt\n        /* \"#utility.yul\":12290:12469   */\n      iszero\n      tag_225\n      jumpi\n        /* \"#utility.yul\":12363:12372   */\n      dup5\n        /* \"#utility.yul\":12358:12361   */\n      dup10\n        /* \"#utility.yul\":12354:12373   */\n      add\n        /* \"#utility.yul\":12348:12374   */\n      mload\n        /* \"#utility.yul\":12406:12454   */\n      tag_226\n        /* \"#utility.yul\":12448:12452   */\n      0x1f\n        /* \"#utility.yul\":12440:12446   */\n      dup10\n        /* \"#utility.yul\":12436:12453   */\n      and\n        /* \"#utility.yul\":12425:12434   */\n      dup3\n        /* \"#utility.yul\":12406:12454   */\n      tag_80\n      jump\t// in\n    tag_226:\n        /* \"#utility.yul\":12398:12404   */\n      dup4\n        /* \"#utility.yul\":12391:12455   */\n      sstore\n        /* \"#utility.yul\":12313:12469   */\n      pop\n        /* \"#utility.yul\":12290:12469   */\n    tag_225:\n        /* \"#utility.yul\":12515:12516   */\n      0x01\n        /* \"#utility.yul\":12511:12512   */\n      0x02\n        /* \"#utility.yul\":12503:12509   */\n      dup9\n        /* \"#utility.yul\":12499:12513   */\n      mul\n        /* \"#utility.yul\":12495:12517   */\n      add\n        /* \"#utility.yul\":12489:12493   */\n      dup9\n        /* \"#utility.yul\":12482:12518   */\n      sstore\n        /* \"#utility.yul\":11917:12528   */\n      pop\n      pop\n      pop\n        /* \"#utility.yul\":11880:12767   */\n    tag_217:\n      pop\n        /* \"#utility.yul\":11470:12773   */\n      pop\n      pop\n      pop\n        /* \"#utility.yul\":11378:12773   */\n      pop\n      pop\n      jump\t// out\n\n    auxdata: 0xa26469706673582212205511d919849f3575f686f5ee44b19f52c414e87bdf64951f214f035232548b9d64736f6c634300081e0033\n}\n",
				"bytecode": {
					"linkReferences": {},
					"object": "6080604052348015600e575f5ffd5b50610b3a8061001c5f395ff3fe608060405260043610610033575f3560e01c806327e235e3146100375780632b66d72e14610073578063977a767c1461008f575b5f5ffd5b348015610042575f5ffd5b5061005d6004803603810190610058919061047f565b6100cb565b60405161006a91906104c2565b60405180910390f35b61008d60048036038101906100889190610617565b6100e4565b005b34801561009a575f5ffd5b506100b560048036038101906100b09190610688565b610278565b6040516100c291906107a4565b60405180910390f35b5f602052805f5260405f205f91509050805f0154905081565b5f5f5f3373ffffffffffffffffffffffffffffffffffffffff1673ffffffffffffffffffffffffffffffffffffffff1681526020019081526020015f205f015490505f5f3373ffffffffffffffffffffffffffffffffffffffff1673ffffffffffffffffffffffffffffffffffffffff1681526020019081526020015f205f015f815480929190610174906107f1565b91905055505f60405180608001604052803481526020014281526020013373ffffffffffffffffffffffffffffffffffffffff168152602001848152509050805f5f3373ffffffffffffffffffffffffffffffffffffffff1673ffffffffffffffffffffffffffffffffffffffff1681526020019081526020015f206001015f8481526020019081526020015f205f820151815f0155602082015181600101556040820151816002015f6101000a81548173ffffffffffffffffffffffffffffffffffffffff021916908373ffffffffffffffffffffffffffffffffffffffff160217905550606082015181600301908161026f9190610a35565b50905050505050565b6102806103d9565b5f5f8473ffffffffffffffffffffffffffffffffffffffff1673ffffffffffffffffffffffffffffffffffffffff1681526020019081526020015f206001015f8381526020019081526020015f206040518060800160405290815f820154815260200160018201548152602001600282015f9054906101000a900473ffffffffffffffffffffffffffffffffffffffff1673ffffffffffffffffffffffffffffffffffffffff1673ffffffffffffffffffffffffffffffffffffffff16815260200160038201805461035190610865565b80601f016020809104026020016040519081016040528092919081815260200182805461037d90610865565b80156103c85780601f1061039f576101008083540402835291602001916103c8565b820191905f5260205f20905b8154815290600101906020018083116103ab57829003601f168201915b505050505081525050905092915050565b60405180608001604052805f81526020015f81526020015f73ffffffffffffffffffffffffffffffffffffffff168152602001606081525090565b5f604051905090565b5f5ffd5b5f5ffd5b5f73ffffffffffffffffffffffffffffffffffffffff82169050919050565b5f61044e82610425565b9050919050565b61045e81610444565b8114610468575f5ffd5b50565b5f8135905061047981610455565b92915050565b5f602082840312156104945761049361041d565b5b5f6104a18482850161046b565b91505092915050565b5f819050919050565b6104bc816104aa565b82525050565b5f6020820190506104d55f8301846104b3565b92915050565b5f5ffd5b5f5ffd5b5f601f19601f8301169050919050565b7f4e487b71000000000000000000000000000000000000000000000000000000005f52604160045260245ffd5b610529826104e3565b810181811067ffffffffffffffff82111715610548576105476104f3565b5b80604052505050565b5f61055a610414565b90506105668282610520565b919050565b5f67ffffffffffffffff821115610585576105846104f3565b5b61058e826104e3565b9050602081019050919050565b828183375f83830152505050565b5f6105bb6105b68461056b565b610551565b9050828152602081018484840111156105d7576105d66104df565b5b6105e284828561059b565b509392505050565b5f82601f8301126105fe576105fd6104db565b5b813561060e8482602086016105a9565b91505092915050565b5f6020828403121561062c5761062b61041d565b5b5f82013567ffffffffffffffff81111561064957610648610421565b5b610655848285016105ea565b91505092915050565b610667816104aa565b8114610671575f5ffd5b50565b5f813590506106828161065e565b92915050565b5f5f6040838503121561069e5761069d61041d565b5b5f6106ab8582860161046b565b92505060206106bc85828601610674565b9150509250929050565b6106cf816104aa565b82525050565b6106de81610444565b82525050565b5f81519050919050565b5f82825260208201905092915050565b8281835e5f83830152505050565b5f610716826106e4565b61072081856106ee565b93506107308185602086016106fe565b610739816104e3565b840191505092915050565b5f608083015f8301516107595f8601826106c6565b50602083015161076c60208601826106c6565b50604083015161077f60408601826106d5565b5060608301518482036060860152610797828261070c565b9150508091505092915050565b5f6020820190508181035f8301526107bc8184610744565b905092915050565b7f4e487b71000000000000000000000000000000000000000000000000000000005f52601160045260245ffd5b5f6107fb826104aa565b91507fffffffffffffffffffffffffffffffffffffffffffffffffffffffffffffffff820361082d5761082c6107c4565b5b600182019050919050565b7f4e487b71000000000000000000000000000000000000000000000000000000005f52602260045260245ffd5b5f600282049050600182168061087c57607f821691505b60208210810361088f5761088e610838565b5b50919050565b5f819050815f5260205f209050919050565b5f6020601f8301049050919050565b5f82821b905092915050565b5f600883026108f17fffffffffffffffffffffffffffffffffffffffffffffffffffffffffffffffff826108b6565b6108fb86836108b6565b95508019841693508086168417925050509392505050565b5f819050919050565b5f61093661093161092c846104aa565b610913565b6104aa565b9050919050565b5f819050919050565b61094f8361091c565b61096361095b8261093d565b8484546108c2565b825550505050565b5f5f905090565b61097a61096b565b610985818484610946565b505050565b5b818110156109a85761099d5f82610972565b60018101905061098b565b5050565b601f8211156109ed576109be81610895565b6109c7846108a7565b810160208510156109d6578190505b6109ea6109e2856108a7565b83018261098a565b50505b505050565b5f82821c905092915050565b5f610a0d5f19846008026109f2565b1980831691505092915050565b5f610a2583836109fe565b9150826002028217905092915050565b610a3e826106e4565b67ffffffffffffffff811115610a5757610a566104f3565b5b610a618254610865565b610a6c8282856109ac565b5f60209050601f831160018114610a9d575f8415610a8b578287015190505b610a958582610a1a565b865550610afc565b601f198416610aab86610895565b5f5b82811015610ad257848901518255600182019150602085019450602081019050610aad565b86831015610aef5784890151610aeb601f8916826109fe565b8355505b6001600288020188555050505b50505050505056fea26469706673582212205511d919849f3575f686f5ee44b19f52c414e87bdf64951f214f035232548b9d64736f6c634300081e0033",
					"opcodes": "PUSH1 0x80 PUSH1 0x40 MSTORE CALLVALUE DUP1 ISZERO PUSH1 0xE JUMPI PUSH0 PUSH0 REVERT JUMPDEST POP PUSH2 0xB3A DUP1 PUSH2 0x1C PUSH0 CODECOPY PUSH0 RETURN INVALID PUSH1 0x80 PUSH1 0x40 MSTORE PUSH1 0x4 CALLDATASIZE LT PUSH2 0x33 JUMPI PUSH0 CALLDATALOAD PUSH1 0xE0 SHR DUP1 PUSH4 0x27E235E3 EQ PUSH2 0x37 JUMPI DUP1 PUSH4 0x2B66D72E EQ PUSH2 0x73 JUMPI DUP1 PUSH4 0x977A767C EQ PUSH2 0x8F JUMPI JUMPDEST PUSH0 PUSH0 REVERT JUMPDEST CALLVALUE DUP1 ISZERO PUSH2 0x42 JUMPI PUSH0 PUSH0 REVERT JUMPDEST POP PUSH2 0x5D PUSH1 0x4 DUP1 CALLDATASIZE SUB DUP2 ADD SWAP1 PUSH2 0x58 SWAP2 SWAP1 PUSH2 0x47F JUMP JUMPDEST PUSH2 0xCB JUMP JUMPDEST PUSH1 0x40 MLOAD PUSH2 0x6A SWAP2 SWAP1 PUSH2 0x4C2 JUMP JUMPDEST PUSH1 0x40 MLOAD DUP1 SWAP2 SUB SWAP1 RETURN JUMPDEST PUSH2 0x8D PUSH1 0x4 DUP1 CALLDATASIZE SUB DUP2 ADD SWAP1 PUSH2 0x88 SWAP2 SWAP1 PUSH2 0x617 JUMP JUMPDEST PUSH2 0xE4 JUMP JUMPDEST STOP JUMPDEST CALLVALUE DUP1 ISZERO PUSH2 0x9A JUMPI PUSH0 PUSH0 REVERT JUMPDEST POP PUSH2 0xB5 PUSH1 0x4 DUP1 CALLDATASIZE SUB DUP2 ADD SWAP1 PUSH2 0xB0 SWAP2 SWAP1 PUSH2 0x688 JUMP JUMPDEST PUSH2 0x278 JUMP JUMPDEST PUSH1 0x40 MLOAD PUSH2 0xC2 SWAP2 SWAP1 PUSH2 0x7A4 JUMP JUMPDEST PUSH1 0x40 MLOAD DUP1 SWAP2 SUB SWAP1 RETURN JUMPDEST PUSH0 PUSH1 0x20 MSTORE DUP1 PUSH0 MSTORE PUSH1 0x40 PUSH0 KECCAK256 PUSH0 SWAP2 POP SWAP1 POP DUP1 PUSH0 ADD SLOAD SWAP1 POP DUP2 JUMP JUMPDEST PUSH0 PUSH0 PUSH0 CALLER PUSH20 0xFFFFFFFFFFFFFFFFFFFFFFFFFFFFFFFFFFFFFFFF AND PUSH20 0xFFFFFFFFFFFFFFFFFFFFFFFFFFFFFFFFFFFFFFFF AND DUP2 MSTORE PUSH1 0x20 ADD SWAP1 DUP2 MSTORE PUSH1 0x20 ADD PUSH0 KECCAK256 PUSH0 ADD SLOAD SWAP1 POP PUSH0 PUSH0 CALLER PUSH20 0xFFFFFFFFFFFFFFFFFFFFFFFFFFFFFFFFFFFFFFFF AND PUSH20 0xFFFFFFFFFFFFFFFFFFFFFFFFFFFFFFFFFFFFFFFF AND DUP2 MSTORE PUSH1 0x20 ADD SWAP1 DUP2 MSTORE PUSH1 0x20 ADD PUSH0 KECCAK256 PUSH0 ADD PUSH0 DUP2 SLOAD DUP1 SWAP3 SWAP2 SWAP1 PUSH2 0x174 SWAP1 PUSH2 0x7F1 JUMP JUMPDEST SWAP2 SWAP1 POP SSTORE POP PUSH0 PUSH1 0x40 MLOAD DUP1 PUSH1 0x80 ADD PUSH1 0x40 MSTORE DUP1 CALLVALUE DUP2 MSTORE PUSH1 0x20 ADD TIMESTAMP DUP2 MSTORE PUSH1 0x20 ADD CALLER PUSH20 0xFFFFFFFFFFFFFFFFFFFFFFFFFFFFFFFFFFFFFFFF AND DUP2 MSTORE PUSH1 0x20 ADD DUP5 DUP2 MSTORE POP SWAP1 POP DUP1 PUSH0 PUSH0 CALLER PUSH20 0xFFFFFFFFFFFFFFFFFFFFFFFFFFFFFFFFFFFFFFFF AND PUSH20 0xFFFFFFFFFFFFFFFFFFFFFFFFFFFFFFFFFFFFFFFF AND DUP2 MSTORE PUSH1 0x20 ADD SWAP1 DUP2 MSTORE PUSH1 0x20 ADD PUSH0 KECCAK256 PUSH1 0x1 ADD PUSH0 DUP5 DUP2 MSTORE PUSH1 0x20 ADD SWAP1 DUP2 MSTORE PUSH1 0x20 ADD PUSH0 KECCAK256 PUSH0 DUP3 ADD MLOAD DUP2 PUSH0 ADD SSTORE PUSH1 0x20 DUP3 ADD MLOAD DUP2 PUSH1 0x1 ADD SSTORE PUSH1 0x40 DUP3 ADD MLOAD DUP2 PUSH1 0x2 ADD PUSH0 PUSH2 0x100 EXP DUP2 SLOAD DUP2 PUSH20 0xFFFFFFFFFFFFFFFFFFFFFFFFFFFFFFFFFFFFFFFF MUL NOT AND SWAP1 DUP4 PUSH20 0xFFFFFFFFFFFFFFFFFFFFFFFFFFFFFFFFFFFFFFFF AND MUL OR SWAP1 SSTORE POP PUSH1 0x60 DUP3 ADD MLOAD DUP2 PUSH1 0x3 ADD SWAP1 DUP2 PUSH2 0x26F SWAP2 SWAP1 PUSH2 0xA35 JUMP JUMPDEST POP SWAP1 POP POP POP POP POP JUMP JUMPDEST PUSH2 0x280 PUSH2 0x3D9 JUMP JUMPDEST PUSH0 PUSH0 DUP5 PUSH20 0xFFFFFFFFFFFFFFFFFFFFFFFFFFFFFFFFFFFFFFFF AND PUSH20 0xFFFFFFFFFFFFFFFFFFFFFFFFFFFFFFFFFFFFFFFF AND DUP2 MSTORE PUSH1 0x20 ADD SWAP1 DUP2 MSTORE PUSH1 0x20 ADD PUSH0 KECCAK256 PUSH1 0x1 ADD PUSH0 DUP4 DUP2 MSTORE PUSH1 0x20 ADD SWAP1 DUP2 MSTORE PUSH1 0x20 ADD PUSH0 KECCAK256 PUSH1 0x40 MLOAD DUP1 PUSH1 0x80 ADD PUSH1 0x40 MSTORE SWAP1 DUP2 PUSH0 DUP3 ADD SLOAD DUP2 MSTORE PUSH1 0x20 ADD PUSH1 0x1 DUP3 ADD SLOAD DUP2 MSTORE PUSH1 0x20 ADD PUSH1 0x2 DUP3 ADD PUSH0 SWAP1 SLOAD SWAP1 PUSH2 0x100 EXP SWAP1 DIV PUSH20 0xFFFFFFFFFFFFFFFFFFFFFFFFFFFFFFFFFFFFFFFF AND PUSH20 0xFFFFFFFFFFFFFFFFFFFFFFFFFFFFFFFFFFFFFFFF AND PUSH20 0xFFFFFFFFFFFFFFFFFFFFFFFFFFFFFFFFFFFFFFFF AND DUP2 MSTORE PUSH1 0x20 ADD PUSH1 0x3 DUP3 ADD DUP1 SLOAD PUSH2 0x351 SWAP1 PUSH2 0x865 JUMP JUMPDEST DUP1 PUSH1 0x1F ADD PUSH1 0x20 DUP1 SWAP2 DIV MUL PUSH1 0x20 ADD PUSH1 0x40 MLOAD SWAP1 DUP2 ADD PUSH1 0x40 MSTORE DUP1 SWAP3 SWAP2 SWAP1 DUP2 DUP2 MSTORE PUSH1 0x20 ADD DUP3 DUP1 SLOAD PUSH2 0x37D SWAP1 PUSH2 0x865 JUMP JUMPDEST DUP1 ISZERO PUSH2 0x3C8 JUMPI DUP1 PUSH1 0x1F LT PUSH2 0x39F JUMPI PUSH2 0x100 DUP1 DUP4 SLOAD DIV MUL DUP4 MSTORE SWAP2 PUSH1 0x20 ADD SWAP2 PUSH2 0x3C8 JUMP JUMPDEST DUP3 ADD SWAP2 SWAP1 PUSH0 MSTORE PUSH1 0x20 PUSH0 KECCAK256 SWAP1 JUMPDEST DUP2 SLOAD DUP2 MSTORE SWAP1 PUSH1 0x1 ADD SWAP1 PUSH1 0x20 ADD DUP1 DUP4 GT PUSH2 0x3AB JUMPI DUP3 SWAP1 SUB PUSH1 0x1F AND DUP3 ADD SWAP2 JUMPDEST POP POP POP POP POP DUP2 MSTORE POP POP SWAP1 POP SWAP3 SWAP2 POP POP JUMP JUMPDEST PUSH1 0x40 MLOAD DUP1 PUSH1 0x80 ADD PUSH1 0x40 MSTORE DUP1 PUSH0 DUP2 MSTORE PUSH1 0x20 ADD PUSH0 DUP2 MSTORE PUSH1 0x20 ADD PUSH0 PUSH20 0xFFFFFFFFFFFFFFFFFFFFFFFFFFFFFFFFFFFFFFFF AND DUP2 MSTORE PUSH1 0x20 ADD PUSH1 0x60 DUP2 MSTORE POP SWAP1 JUMP JUMPDEST PUSH0 PUSH1 0x40 MLOAD SWAP1 POP SWAP1 JUMP JUMPDEST PUSH0 PUSH0 REVERT JUMPDEST PUSH0 PUSH0 REVERT JUMPDEST PUSH0 PUSH20 0xFFFFFFFFFFFFFFFFFFFFFFFFFFFFFFFFFFFFFFFF DUP3 AND SWAP1 POP SWAP2 SWAP1 POP JUMP JUMPDEST PUSH0 PUSH2 0x44E DUP3 PUSH2 0x425 JUMP JUMPDEST SWAP1 POP SWAP2 SWAP1 POP JUMP JUMPDEST PUSH2 0x45E DUP2 PUSH2 0x444 JUMP JUMPDEST DUP2 EQ PUSH2 0x468 JUMPI PUSH0 PUSH0 REVERT JUMPDEST POP JUMP JUMPDEST PUSH0 DUP2 CALLDATALOAD SWAP1 POP PUSH2 0x479 DUP2 PUSH2 0x455 JUMP JUMPDEST SWAP3 SWAP2 POP POP JUMP JUMPDEST PUSH0 PUSH1 0x20 DUP3 DUP5 SUB SLT ISZERO PUSH2 0x494 JUMPI PUSH2 0x493 PUSH2 0x41D JUMP JUMPDEST JUMPDEST PUSH0 PUSH2 0x4A1 DUP5 DUP3 DUP6 ADD PUSH2 0x46B JUMP JUMPDEST SWAP2 POP POP SWAP3 SWAP2 POP POP JUMP JUMPDEST PUSH0 DUP2 SWAP1 POP SWAP2 SWAP1 POP JUMP JUMPDEST PUSH2 0x4BC DUP2 PUSH2 0x4AA JUMP JUMPDEST DUP3 MSTORE POP POP JUMP JUMPDEST PUSH0 PUSH1 0x20 DUP3 ADD SWAP1 POP PUSH2 0x4D5 PUSH0 DUP4 ADD DUP5 PUSH2 0x4B3 JUMP JUMPDEST SWAP3 SWAP2 POP POP JUMP JUMPDEST PUSH0 PUSH0 REVERT JUMPDEST PUSH0 PUSH0 REVERT JUMPDEST PUSH0 PUSH1 0x1F NOT PUSH1 0x1F DUP4 ADD AND SWAP1 POP SWAP2 SWAP1 POP JUMP JUMPDEST PUSH32 0x4E487B7100000000000000000000000000000000000000000000000000000000 PUSH0 MSTORE PUSH1 0x41 PUSH1 0x4 MSTORE PUSH1 0x24 PUSH0 REVERT JUMPDEST PUSH2 0x529 DUP3 PUSH2 0x4E3 JUMP JUMPDEST DUP2 ADD DUP2 DUP2 LT PUSH8 0xFFFFFFFFFFFFFFFF DUP3 GT OR ISZERO PUSH2 0x548 JUMPI PUSH2 0x547 PUSH2 0x4F3 JUMP JUMPDEST JUMPDEST DUP1 PUSH1 0x40 MSTORE POP POP POP JUMP JUMPDEST PUSH0 PUSH2 0x55A PUSH2 0x414 JUMP JUMPDEST SWAP1 POP PUSH2 0x566 DUP3 DUP3 PUSH2 0x520 JUMP JUMPDEST SWAP2 SWAP1 POP JUMP JUMPDEST PUSH0 PUSH8 0xFFFFFFFFFFFFFFFF DUP3 GT ISZERO PUSH2 0x585 JUMPI PUSH2 0x584 PUSH2 0x4F3 JUMP JUMPDEST JUMPDEST PUSH2 0x58E DUP3 PUSH2 0x4E3 JUMP JUMPDEST SWAP1 POP PUSH1 0x20 DUP2 ADD SWAP1 POP SWAP2 SWAP1 POP JUMP JUMPDEST DUP3 DUP2 DUP4 CALLDATACOPY PUSH0 DUP4 DUP4 ADD MSTORE POP POP POP JUMP JUMPDEST PUSH0 PUSH2 0x5BB PUSH2 0x5B6 DUP5 PUSH2 0x56B JUMP JUMPDEST PUSH2 0x551 JUMP JUMPDEST SWAP1 POP DUP3 DUP2 MSTORE PUSH1 0x20 DUP2 ADD DUP5 DUP5 DUP5 ADD GT ISZERO PUSH2 0x5D7 JUMPI PUSH2 0x5D6 PUSH2 0x4DF JUMP JUMPDEST JUMPDEST PUSH2 0x5E2 DUP5 DUP3 DUP6 PUSH2 0x59B JUMP JUMPDEST POP SWAP4 SWAP3 POP POP POP JUMP JUMPDEST PUSH0 DUP3 PUSH1 0x1F DUP4 ADD SLT PUSH2 0x5FE JUMPI PUSH2 0x5FD PUSH2 0x4DB JUMP JUMPDEST JUMPDEST DUP2 CALLDATALOAD PUSH2 0x60E DUP5 DUP3 PUSH1 0x20 DUP7 ADD PUSH2 0x5A9 JUMP JUMPDEST SWAP2 POP POP SWAP3 SWAP2 POP POP JUMP JUMPDEST PUSH0 PUSH1 0x20 DUP3 DUP5 SUB SLT ISZERO PUSH2 0x62C JUMPI PUSH2 0x62B PUSH2 0x41D JUMP JUMPDEST JUMPDEST PUSH0 DUP3 ADD CALLDATALOAD PUSH8 0xFFFFFFFFFFFFFFFF DUP2 GT ISZERO PUSH2 0x649 JUMPI PUSH2 0x648 PUSH2 0x421 JUMP JUMPDEST JUMPDEST PUSH2 0x655 DUP5 DUP3 DUP6 ADD PUSH2 0x5EA JUMP JUMPDEST SWAP2 POP POP SWAP3 SWAP2 POP POP JUMP JUMPDEST PUSH2 0x667 DUP2 PUSH2 0x4AA JUMP JUMPDEST DUP2 EQ PUSH2 0x671 JUMPI PUSH0 PUSH0 REVERT JUMPDEST POP JUMP JUMPDEST PUSH0 DUP2 CALLDATALOAD SWAP1 POP PUSH2 0x682 DUP2 PUSH2 0x65E JUMP JUMPDEST SWAP3 SWAP2 POP POP JUMP JUMPDEST PUSH0 PUSH0 PUSH1 0x40 DUP4 DUP6 SUB SLT ISZERO PUSH2 0x69E JUMPI PUSH2 0x69D PUSH2 0x41D JUMP JUMPDEST JUMPDEST PUSH0 PUSH2 0x6AB DUP6 DUP3 DUP7 ADD PUSH2 0x46B JUMP JUMPDEST SWAP3 POP POP PUSH1 0x20 PUSH2 0x6BC DUP6 DUP3 DUP7 ADD PUSH2 0x674 JUMP JUMPDEST SWAP2 POP POP SWAP3 POP SWAP3 SWAP1 POP JUMP JUMPDEST PUSH2 0x6CF DUP2 PUSH2 0x4AA JUMP JUMPDEST DUP3 MSTORE POP POP JUMP JUMPDEST PUSH2 0x6DE DUP2 PUSH2 0x444 JUMP JUMPDEST DUP3 MSTORE POP POP JUMP JUMPDEST PUSH0 DUP2 MLOAD SWAP1 POP SWAP2 SWAP1 POP JUMP JUMPDEST PUSH0 DUP3 DUP3 MSTORE PUSH1 0x20 DUP3 ADD SWAP1 POP SWAP3 SWAP2 POP POP JUMP JUMPDEST DUP3 DUP2 DUP4 MCOPY PUSH0 DUP4 DUP4 ADD MSTORE POP POP POP JUMP JUMPDEST PUSH0 PUSH2 0x716 DUP3 PUSH2 0x6E4 JUMP JUMPDEST PUSH2 0x720 DUP2 DUP6 PUSH2 0x6EE JUMP JUMPDEST SWAP4 POP PUSH2 0x730 DUP2 DUP6 PUSH1 0x20 DUP7 ADD PUSH2 0x6FE JUMP JUMPDEST PUSH2 0x739 DUP2 PUSH2 0x4E3 JUMP JUMPDEST DUP5 ADD SWAP2 POP POP SWAP3 SWAP2 POP POP JUMP JUMPDEST PUSH0 PUSH1 0x80 DUP4 ADD PUSH0 DUP4 ADD MLOAD PUSH2 0x759 PUSH0 DUP7 ADD DUP3 PUSH2 0x6C6 JUMP JUMPDEST POP PUSH1 0x20 DUP4 ADD MLOAD PUSH2 0x76C PUSH1 0x20 DUP7 ADD DUP3 PUSH2 0x6C6 JUMP JUMPDEST POP PUSH1 0x40 DUP4 ADD MLOAD PUSH2 0x77F PUSH1 0x40 DUP7 ADD DUP3 PUSH2 0x6D5 JUMP JUMPDEST POP PUSH1 0x60 DUP4 ADD MLOAD DUP5 DUP3 SUB PUSH1 0x60 DUP7 ADD MSTORE PUSH2 0x797 DUP3 DUP3 PUSH2 0x70C JUMP JUMPDEST SWAP2 POP POP DUP1 SWAP2 POP POP SWAP3 SWAP2 POP POP JUMP JUMPDEST PUSH0 PUSH1 0x20 DUP3 ADD SWAP1 POP DUP2 DUP2 SUB PUSH0 DUP4 ADD MSTORE PUSH2 0x7BC DUP2 DUP5 PUSH2 0x744 JUMP JUMPDEST SWAP1 POP SWAP3 SWAP2 POP POP JUMP JUMPDEST PUSH32 0x4E487B7100000000000000000000000000000000000000000000000000000000 PUSH0 MSTORE PUSH1 0x11 PUSH1 0x4 MSTORE PUSH1 0x24 PUSH0 REVERT JUMPDEST PUSH0 PUSH2 0x7FB DUP3 PUSH2 0x4AA JUMP JUMPDEST SWAP2 POP PUSH32 0xFFFFFFFFFFFFFFFFFFFFFFFFFFFFFFFFFFFFFFFFFFFFFFFFFFFFFFFFFFFFFFFF DUP3 SUB PUSH2 0x82D JUMPI PUSH2 0x82C PUSH2 0x7C4 JUMP JUMPDEST JUMPDEST PUSH1 0x1 DUP3 ADD SWAP1 POP SWAP2 SWAP1 POP JUMP JUMPDEST PUSH32 0x4E487B7100000000000000000000000000000000000000000000000000000000 PUSH0 MSTORE PUSH1 0x22 PUSH1 0x4 MSTORE PUSH1 0x24 PUSH0 REVERT JUMPDEST PUSH0 PUSH1 0x2 DUP3 DIV SWAP1 POP PUSH1 0x1 DUP3 AND DUP1 PUSH2 0x87C JUMPI PUSH1 0x7F DUP3 AND SWAP2 POP JUMPDEST PUSH1 0x20 DUP3 LT DUP2 SUB PUSH2 0x88F JUMPI PUSH2 0x88E PUSH2 0x838 JUMP JUMPDEST JUMPDEST POP SWAP2 SWAP1 POP JUMP JUMPDEST PUSH0 DUP2 SWAP1 POP DUP2 PUSH0 MSTORE PUSH1 0x20 PUSH0 KECCAK256 SWAP1 POP SWAP2 SWAP1 POP JUMP JUMPDEST PUSH0 PUSH1 0x20 PUSH1 0x1F DUP4 ADD DIV SWAP1 POP SWAP2 SWAP1 POP JUMP JUMPDEST PUSH0 DUP3 DUP3 SHL SWAP1 POP SWAP3 SWAP2 POP POP JUMP JUMPDEST PUSH0 PUSH1 0x8 DUP4 MUL PUSH2 0x8F1 PUSH32 0xFFFFFFFFFFFFFFFFFFFFFFFFFFFFFFFFFFFFFFFFFFFFFFFFFFFFFFFFFFFFFFFF DUP3 PUSH2 0x8B6 JUMP JUMPDEST PUSH2 0x8FB DUP7 DUP4 PUSH2 0x8B6 JUMP JUMPDEST SWAP6 POP DUP1 NOT DUP5 AND SWAP4 POP DUP1 DUP7 AND DUP5 OR SWAP3 POP POP POP SWAP4 SWAP3 POP POP POP JUMP JUMPDEST PUSH0 DUP2 SWAP1 POP SWAP2 SWAP1 POP JUMP JUMPDEST PUSH0 PUSH2 0x936 PUSH2 0x931 PUSH2 0x92C DUP5 PUSH2 0x4AA JUMP JUMPDEST PUSH2 0x913 JUMP JUMPDEST PUSH2 0x4AA JUMP JUMPDEST SWAP1 POP SWAP2 SWAP1 POP JUMP JUMPDEST PUSH0 DUP2 SWAP1 POP SWAP2 SWAP1 POP JUMP JUMPDEST PUSH2 0x94F DUP4 PUSH2 0x91C JUMP JUMPDEST PUSH2 0x963 PUSH2 0x95B DUP3 PUSH2 0x93D JUMP JUMPDEST DUP5 DUP5 SLOAD PUSH2 0x8C2 JUMP JUMPDEST DUP3 SSTORE POP POP POP POP JUMP JUMPDEST PUSH0 PUSH0 SWAP1 POP SWAP1 JUMP JUMPDEST PUSH2 0x97A PUSH2 0x96B JUMP JUMPDEST PUSH2 0x985 DUP2 DUP5 DUP5 PUSH2 0x946 JUMP JUMPDEST POP POP POP JUMP JUMPDEST JUMPDEST DUP2 DUP2 LT ISZERO PUSH2 0x9A8 JUMPI PUSH2 0x99D PUSH0 DUP3 PUSH2 0x972 JUMP JUMPDEST PUSH1 0x1 DUP2 ADD SWAP1 POP PUSH2 0x98B JUMP JUMPDEST POP POP JUMP JUMPDEST PUSH1 0x1F DUP3 GT ISZERO PUSH2 0x9ED JUMPI PUSH2 0x9BE DUP2 PUSH2 0x895 JUMP JUMPDEST PUSH2 0x9C7 DUP5 PUSH2 0x8A7 JUMP JUMPDEST DUP2 ADD PUSH1 0x20 DUP6 LT ISZERO PUSH2 0x9D6 JUMPI DUP2 SWAP1 POP JUMPDEST PUSH2 0x9EA PUSH2 0x9E2 DUP6 PUSH2 0x8A7 JUMP JUMPDEST DUP4 ADD DUP3 PUSH2 0x98A JUMP JUMPDEST POP POP JUMPDEST POP POP POP JUMP JUMPDEST PUSH0 DUP3 DUP3 SHR SWAP1 POP SWAP3 SWAP2 POP POP JUMP JUMPDEST PUSH0 PUSH2 0xA0D PUSH0 NOT DUP5 PUSH1 0x8 MUL PUSH2 0x9F2 JUMP JUMPDEST NOT DUP1 DUP4 AND SWAP2 POP POP SWAP3 SWAP2 POP POP JUMP JUMPDEST PUSH0 PUSH2 0xA25 DUP4 DUP4 PUSH2 0x9FE JUMP JUMPDEST SWAP2 POP DUP3 PUSH1 0x2 MUL DUP3 OR SWAP1 POP SWAP3 SWAP2 POP POP JUMP JUMPDEST PUSH2 0xA3E DUP3 PUSH2 0x6E4 JUMP JUMPDEST PUSH8 0xFFFFFFFFFFFFFFFF DUP2 GT ISZERO PUSH2 0xA57 JUMPI PUSH2 0xA56 PUSH2 0x4F3 JUMP JUMPDEST JUMPDEST PUSH2 0xA61 DUP3 SLOAD PUSH2 0x865 JUMP JUMPDEST PUSH2 0xA6C DUP3 DUP3 DUP6 PUSH2 0x9AC JUMP JUMPDEST PUSH0 PUSH1 0x20 SWAP1 POP PUSH1 0x1F DUP4 GT PUSH1 0x1 DUP2 EQ PUSH2 0xA9D JUMPI PUSH0 DUP5 ISZERO PUSH2 0xA8B JUMPI DUP3 DUP8 ADD MLOAD SWAP1 POP JUMPDEST PUSH2 0xA95 DUP6 DUP3 PUSH2 0xA1A JUMP JUMPDEST DUP7 SSTORE POP PUSH2 0xAFC JUMP JUMPDEST PUSH1 0x1F NOT DUP5 AND PUSH2 0xAAB DUP7 PUSH2 0x895 JUMP JUMPDEST PUSH0 JUMPDEST DUP3 DUP2 LT ISZERO PUSH2 0xAD2 JUMPI DUP5 DUP10 ADD MLOAD DUP3 SSTORE PUSH1 0x1 DUP3 ADD SWAP2 POP PUSH1 0x20 DUP6 ADD SWAP5 POP PUSH1 0x20 DUP2 ADD SWAP1 POP PUSH2 0xAAD JUMP JUMPDEST DUP7 DUP4 LT ISZERO PUSH2 0xAEF JUMPI DUP5 DUP10 ADD MLOAD PUSH2 0xAEB PUSH1 0x1F DUP10 AND DUP3 PUSH2 0x9FE JUMP JUMPDEST DUP4 SSTORE POP JUMPDEST PUSH1 0x1 PUSH1 0x2 DUP9 MUL ADD DUP9 SSTORE POP POP POP JUMPDEST POP POP POP POP POP POP JUMP INVALID LOG2 PUSH5 0x6970667358 0x22 SLT KECCAK256 SSTORE GT 0xD9 NOT DUP5 SWAP16 CALLDATALOAD PUSH22 0xF686F5EE44B19F52C414E87BDF64951F214F03523254 DUP12 SWAP14 PUSH5 0x736F6C6343 STOP ADDMOD 0x1E STOP CALLER "
				},
				"gasEstimates": {
					"creation": {
						"codeDepositCost": "574800",
						"executionCost": "604",
						"totalCost": "575404"
					},
					"external": {
						"balances(address)": "2792",
						"getPayment(address,uint256)": "infinite",
						"pay(string)": "infinite"
					}
				},
				"methodIdentifiers": {
					"balances(address)": "27e235e3",
					"getPayment(address,uint256)": "977a767c",
					"pay(string)": "2b66d72e"
				}
			},
			"storageLayout": {
				"storage": [
					{
						"astId": 23,
						"contract": "urok5.sol:ToDoList",
						"label": "balances",
						"offset": 0,
						"slot": "0",
						"type": "t_mapping(t_address,t_struct(Balance)18_storage)"
					}
				],
				"types": {
					"t_address": {
						"encoding": "inplace",
						"label": "address",
						"numberOfBytes": "20"
					},
					"t_mapping(t_address,t_struct(Balance)18_storage)": {
						"encoding": "mapping",
						"key": "t_address",
						"label": "mapping(address => struct ToDoList.Balance)",
						"numberOfBytes": "32",
						"value": "t_struct(Balance)18_storage"
					},
					"t_mapping(t_uint256,t_struct(Payment)10_storage)": {
						"encoding": "mapping",
						"key": "t_uint256",
						"label": "mapping(uint256 => struct ToDoList.Payment)",
						"numberOfBytes": "32",
						"value": "t_struct(Payment)10_storage"
					},
					"t_string_storage": {
						"encoding": "bytes",
						"label": "string",
						"numberOfBytes": "32"
					},
					"t_struct(Balance)18_storage": {
						"encoding": "inplace",
						"label": "struct ToDoList.Balance",
						"members": [
							{
								"astId": 12,
								"contract": "urok5.sol:ToDoList",
								"label": "totalPayments",
								"offset": 0,
								"slot": "0",
								"type": "t_uint256"
							},
							{
								"astId": 17,
								"contract": "urok5.sol:ToDoList",
								"label": "payments",
								"offset": 0,
								"slot": "1",
								"type": "t_mapping(t_uint256,t_struct(Payment)10_storage)"
							}
						],
						"numberOfBytes": "64"
					},
					"t_struct(Payment)10_storage": {
						"encoding": "inplace",
						"label": "struct ToDoList.Payment",
						"members": [
							{
								"astId": 3,
								"contract": "urok5.sol:ToDoList",
								"label": "amount",
								"offset": 0,
								"slot": "0",
								"type": "t_uint256"
							},
							{
								"astId": 5,
								"contract": "urok5.sol:ToDoList",
								"label": "timestamp",
								"offset": 0,
								"slot": "1",
								"type": "t_uint256"
							},
							{
								"astId": 7,
								"contract": "urok5.sol:ToDoList",
								"label": "from",
								"offset": 0,
								"slot": "2",
								"type": "t_address"
							},
							{
								"astId": 9,
								"contract": "urok5.sol:ToDoList",
								"label": "message",
								"offset": 0,
								"slot": "3",
								"type": "t_string_storage"
							}
						],
						"numberOfBytes": "128"
					},
					"t_uint256": {
						"encoding": "inplace",
						"label": "uint256",
						"numberOfBytes": "32"
					}
				}
			},
			"userdoc": {
				"kind": "user",
				"methods": {},
				"version": 1
			}
		}
	}
}