{
	"StudentDiary1.sol": {
		"StudentDiary": {
			"abi": [
				{
					"inputs": [],
					"stateMutability": "nonpayable",
					"type": "constructor"
				},
				{
					"inputs": [
						{
							"internalType": "address",
							"name": "",
							"type": "address"
						}
					],
					"name": "addressStudent",
					"outputs": [
						{
							"internalType": "uint256",
							"name": "",
							"type": "uint256"
						}
					],
					"stateMutability": "view",
					"type": "function"
				},
				{
					"inputs": [],
					"name": "completeUrok",
					"outputs": [],
					"stateMutability": "nonpayable",
					"type": "function"
				},
				{
					"inputs": [
						{
							"internalType": "string",
							"name": "",
							"type": "string"
						}
					],
					"name": "egoLesson",
					"outputs": [
						{
							"internalType": "int256",
							"name": "",
							"type": "int256"
						}
					],
					"stateMutability": "view",
					"type": "function"
				},
				{
					"inputs": [],
					"name": "lesson",
					"outputs": [
						{
							"internalType": "string",
							"name": "",
							"type": "string"
						}
					],
					"stateMutability": "view",
					"type": "function"
				},
				{
					"inputs": [],
					"name": "nameStudent",
					"outputs": [
						{
							"internalType": "string",
							"name": "",
							"type": "string"
						}
					],
					"stateMutability": "view",
					"type": "function"
				},
				{
					"inputs": [],
					"name": "number",
					"outputs": [
						{
							"internalType": "int256",
							"name": "",
							"type": "int256"
						}
					],
					"stateMutability": "view",
					"type": "function"
				},
				{
					"inputs": [],
					"name": "ocenkaMath",
					"outputs": [
						{
							"internalType": "int256",
							"name": "",
							"type": "int256"
						}
					],
					"stateMutability": "view",
					"type": "function"
				},
				{
					"inputs": [],
					"name": "replace",
					"outputs": [],
					"stateMutability": "nonpayable",
					"type": "function"
				},
				{
					"inputs": [
						{
							"internalType": "int256",
							"name": "newOcenka",
							"type": "int256"
						}
					],
					"name": "setOcenkaMath",
					"outputs": [
						{
							"internalType": "int256",
							"name": "",
							"type": "int256"
						}
					],
					"stateMutability": "nonpayable",
					"type": "function"
				},
				{
					"inputs": [],
					"name": "statusStudent",
					"outputs": [
						{
							"internalType": "bool",
							"name": "",
							"type": "bool"
						}
					],
					"stateMutability": "view",
					"type": "function"
				},
				{
					"inputs": [],
					"name": "student",
					"outputs": [
						{
							"internalType": "address",
							"name": "",
							"type": "address"
						}
					],
					"stateMutability": "view",
					"type": "function"
				},
				{
					"inputs": [],
					"name": "swapStatusActive",
					"outputs": [],
					"stateMutability": "nonpayable",
					"type": "function"
				},
				{
					"inputs": [],
					"name": "swapStatusInactive",
					"outputs": [],
					"stateMutability": "nonpayable",
					"type": "function"
				},
				{
					"inputs": [
						{
							"internalType": "int256",
							"name": "newNumber",
							"type": "int256"
						}
					],
					"name": "umnozhenie",
					"outputs": [
						{
							"internalType": "int256",
							"name": "",
							"type": "int256"
						}
					],
					"stateMutability": "nonpayable",
					"type": "function"
				},
				{
					"inputs": [],
					"name": "urok",
					"outputs": [
						{
							"internalType": "int256",
							"name": "",
							"type": "int256"
						}
					],
					"stateMutability": "view",
					"type": "function"
				}
			],
			"devdoc": {
				"kind": "dev",
				"methods": {},
				"version": 1
			},
			"evm": {
				"assembly": "    /* \"StudentDiary1.sol\":61:1033  contract StudentDiary {... */\n  mstore(0x40, 0x80)\n    /* \"StudentDiary1.sol\":119:154  string public nameStudent = \"Misha\" */\n  mload(0x40)\n  dup1\n  0x40\n  add\n  0x40\n  mstore\n  dup1\n  0x05\n  dup2\n  mstore\n  0x20\n  add\n  0x4d69736861000000000000000000000000000000000000000000000000000000\n  dup2\n  mstore\n  pop\n  0x01\n  swap1\n  dup2\n  tag_1\n  swap2\n  swap1\n  tag_2\n  jump\t// in\ntag_1:\n  pop\n    /* \"StudentDiary1.sol\":395:448  constructor() {... */\n  callvalue\n  dup1\n  iszero\n  tag_3\n  jumpi\n  revert(0x00, 0x00)\ntag_3:\n  pop\n    /* \"StudentDiary1.sol\":430:440  msg.sender */\n  caller\n    /* \"StudentDiary1.sol\":420:427  student */\n  0x00\n  0x00\n    /* \"StudentDiary1.sol\":420:440  student = msg.sender */\n  0x0100\n  exp\n  dup2\n  sload\n  dup2\n  0xffffffffffffffffffffffffffffffffffffffff\n  mul\n  not\n  and\n  swap1\n  dup4\n  0xffffffffffffffffffffffffffffffffffffffff\n  and\n  mul\n  or\n  swap1\n  sstore\n  pop\n    /* \"StudentDiary1.sol\":61:1033  contract StudentDiary {... */\n  jump(tag_6)\n    /* \"#utility.yul\":7:106   */\ntag_7:\n    /* \"#utility.yul\":59:65   */\n  0x00\n    /* \"#utility.yul\":93:98   */\n  dup2\n    /* \"#utility.yul\":87:99   */\n  mload\n    /* \"#utility.yul\":77:99   */\n  swap1\n  pop\n    /* \"#utility.yul\":7:106   */\n  swap2\n  swap1\n  pop\n  jump\t// out\n    /* \"#utility.yul\":112:292   */\ntag_8:\n    /* \"#utility.yul\":160:237   */\n  0x4e487b7100000000000000000000000000000000000000000000000000000000\n    /* \"#utility.yul\":157:158   */\n  0x00\n    /* \"#utility.yul\":150:238   */\n  mstore\n    /* \"#utility.yul\":257:261   */\n  0x41\n    /* \"#utility.yul\":254:255   */\n  0x04\n    /* \"#utility.yul\":247:262   */\n  mstore\n    /* \"#utility.yul\":281:285   */\n  0x24\n    /* \"#utility.yul\":278:279   */\n  0x00\n    /* \"#utility.yul\":271:286   */\n  revert\n    /* \"#utility.yul\":298:478   */\ntag_9:\n    /* \"#utility.yul\":346:423   */\n  0x4e487b7100000000000000000000000000000000000000000000000000000000\n    /* \"#utility.yul\":343:344   */\n  0x00\n    /* \"#utility.yul\":336:424   */\n  mstore\n    /* \"#utility.yul\":443:447   */\n  0x22\n    /* \"#utility.yul\":440:441   */\n  0x04\n    /* \"#utility.yul\":433:448   */\n  mstore\n    /* \"#utility.yul\":467:471   */\n  0x24\n    /* \"#utility.yul\":464:465   */\n  0x00\n    /* \"#utility.yul\":457:472   */\n  revert\n    /* \"#utility.yul\":484:804   */\ntag_10:\n    /* \"#utility.yul\":528:534   */\n  0x00\n    /* \"#utility.yul\":565:566   */\n  0x02\n    /* \"#utility.yul\":559:563   */\n  dup3\n    /* \"#utility.yul\":555:567   */\n  div\n    /* \"#utility.yul\":545:567   */\n  swap1\n  pop\n    /* \"#utility.yul\":612:613   */\n  0x01\n    /* \"#utility.yul\":606:610   */\n  dup3\n    /* \"#utility.yul\":602:614   */\n  and\n    /* \"#utility.yul\":633:651   */\n  dup1\n    /* \"#utility.yul\":623:704   */\n  tag_32\n  jumpi\n    /* \"#utility.yul\":689:693   */\n  0x7f\n    /* \"#utility.yul\":681:687   */\n  dup3\n    /* \"#utility.yul\":677:694   */\n  and\n    /* \"#utility.yul\":667:694   */\n  swap2\n  pop\n    /* \"#utility.yul\":623:704   */\ntag_32:\n    /* \"#utility.yul\":751:753   */\n  0x20\n    /* \"#utility.yul\":743:749   */\n  dup3\n    /* \"#utility.yul\":740:754   */\n  lt\n    /* \"#utility.yul\":720:738   */\n  dup2\n    /* \"#utility.yul\":717:755   */\n  sub\n    /* \"#utility.yul\":714:798   */\n  tag_33\n  jumpi\n    /* \"#utility.yul\":770:788   */\n  tag_34\n  tag_9\n  jump\t// in\ntag_34:\n    /* \"#utility.yul\":714:798   */\ntag_33:\n    /* \"#utility.yul\":535:804   */\n  pop\n    /* \"#utility.yul\":484:804   */\n  swap2\n  swap1\n  pop\n  jump\t// out\n    /* \"#utility.yul\":810:951   */\ntag_11:\n    /* \"#utility.yul\":859:863   */\n  0x00\n    /* \"#utility.yul\":882:885   */\n  dup2\n    /* \"#utility.yul\":874:885   */\n  swap1\n  pop\n    /* \"#utility.yul\":905:908   */\n  dup2\n    /* \"#utility.yul\":902:903   */\n  0x00\n    /* \"#utility.yul\":895:909   */\n  mstore\n    /* \"#utility.yul\":939:943   */\n  0x20\n    /* \"#utility.yul\":936:937   */\n  0x00\n    /* \"#utility.yul\":926:944   */\n  keccak256\n    /* \"#utility.yul\":918:944   */\n  swap1\n  pop\n    /* \"#utility.yul\":810:951   */\n  swap2\n  swap1\n  pop\n  jump\t// out\n    /* \"#utility.yul\":957:1050   */\ntag_12:\n    /* \"#utility.yul\":994:1000   */\n  0x00\n    /* \"#utility.yul\":1041:1043   */\n  0x20\n    /* \"#utility.yul\":1036:1038   */\n  0x1f\n    /* \"#utility.yul\":1029:1034   */\n  dup4\n    /* \"#utility.yul\":1025:1039   */\n  add\n    /* \"#utility.yul\":1021:1044   */\n  div\n    /* \"#utility.yul\":1011:1044   */\n  swap1\n  pop\n    /* \"#utility.yul\":957:1050   */\n  swap2\n  swap1\n  pop\n  jump\t// out\n    /* \"#utility.yul\":1056:1163   */\ntag_13:\n    /* \"#utility.yul\":1100:1108   */\n  0x00\n    /* \"#utility.yul\":1150:1155   */\n  dup3\n    /* \"#utility.yul\":1144:1148   */\n  dup3\n    /* \"#utility.yul\":1140:1156   */\n  shl\n    /* \"#utility.yul\":1119:1156   */\n  swap1\n  pop\n    /* \"#utility.yul\":1056:1163   */\n  swap3\n  swap2\n  pop\n  pop\n  jump\t// out\n    /* \"#utility.yul\":1169:1562   */\ntag_14:\n    /* \"#utility.yul\":1238:1244   */\n  0x00\n    /* \"#utility.yul\":1288:1289   */\n  0x08\n    /* \"#utility.yul\":1276:1286   */\n  dup4\n    /* \"#utility.yul\":1272:1290   */\n  mul\n    /* \"#utility.yul\":1311:1408   */\n  tag_39\n    /* \"#utility.yul\":1341:1407   */\n  0xffffffffffffffffffffffffffffffffffffffffffffffffffffffffffffffff\n    /* \"#utility.yul\":1330:1339   */\n  dup3\n    /* \"#utility.yul\":1311:1408   */\n  tag_13\n  jump\t// in\ntag_39:\n    /* \"#utility.yul\":1429:1468   */\n  tag_40\n    /* \"#utility.yul\":1459:1467   */\n  dup7\n    /* \"#utility.yul\":1448:1457   */\n  dup4\n    /* \"#utility.yul\":1429:1468   */\n  tag_13\n  jump\t// in\ntag_40:\n    /* \"#utility.yul\":1417:1468   */\n  swap6\n  pop\n    /* \"#utility.yul\":1501:1505   */\n  dup1\n    /* \"#utility.yul\":1497:1506   */\n  not\n    /* \"#utility.yul\":1490:1495   */\n  dup5\n    /* \"#utility.yul\":1486:1507   */\n  and\n    /* \"#utility.yul\":1477:1507   */\n  swap4\n  pop\n    /* \"#utility.yul\":1550:1554   */\n  dup1\n    /* \"#utility.yul\":1540:1548   */\n  dup7\n    /* \"#utility.yul\":1536:1555   */\n  and\n    /* \"#utility.yul\":1529:1534   */\n  dup5\n    /* \"#utility.yul\":1526:1556   */\n  or\n    /* \"#utility.yul\":1516:1556   */\n  swap3\n  pop\n    /* \"#utility.yul\":1245:1562   */\n  pop\n  pop\n    /* \"#utility.yul\":1169:1562   */\n  swap4\n  swap3\n  pop\n  pop\n  pop\n  jump\t// out\n    /* \"#utility.yul\":1568:1645   */\ntag_15:\n    /* \"#utility.yul\":1605:1612   */\n  0x00\n    /* \"#utility.yul\":1634:1639   */\n  dup2\n    /* \"#utility.yul\":1623:1639   */\n  swap1\n  pop\n    /* \"#utility.yul\":1568:1645   */\n  swap2\n  swap1\n  pop\n  jump\t// out\n    /* \"#utility.yul\":1651:1711   */\ntag_16:\n    /* \"#utility.yul\":1679:1682   */\n  0x00\n    /* \"#utility.yul\":1700:1705   */\n  dup2\n    /* \"#utility.yul\":1693:1705   */\n  swap1\n  pop\n    /* \"#utility.yul\":1651:1711   */\n  swap2\n  swap1\n  pop\n  jump\t// out\n    /* \"#utility.yul\":1717:1859   */\ntag_17:\n    /* \"#utility.yul\":1767:1776   */\n  0x00\n    /* \"#utility.yul\":1800:1853   */\n  tag_44\n    /* \"#utility.yul\":1818:1852   */\n  tag_45\n    /* \"#utility.yul\":1827:1851   */\n  tag_46\n    /* \"#utility.yul\":1845:1850   */\n  dup5\n    /* \"#utility.yul\":1827:1851   */\n  tag_15\n  jump\t// in\ntag_46:\n    /* \"#utility.yul\":1818:1852   */\n  tag_16\n  jump\t// in\ntag_45:\n    /* \"#utility.yul\":1800:1853   */\n  tag_15\n  jump\t// in\ntag_44:\n    /* \"#utility.yul\":1787:1853   */\n  swap1\n  pop\n    /* \"#utility.yul\":1717:1859   */\n  swap2\n  swap1\n  pop\n  jump\t// out\n    /* \"#utility.yul\":1865:1940   */\ntag_18:\n    /* \"#utility.yul\":1908:1911   */\n  0x00\n    /* \"#utility.yul\":1929:1934   */\n  dup2\n    /* \"#utility.yul\":1922:1934   */\n  swap1\n  pop\n    /* \"#utility.yul\":1865:1940   */\n  swap2\n  swap1\n  pop\n  jump\t// out\n    /* \"#utility.yul\":1946:2215   */\ntag_19:\n    /* \"#utility.yul\":2056:2095   */\n  tag_49\n    /* \"#utility.yul\":2087:2094   */\n  dup4\n    /* \"#utility.yul\":2056:2095   */\n  tag_17\n  jump\t// in\ntag_49:\n    /* \"#utility.yul\":2117:2208   */\n  tag_50\n    /* \"#utility.yul\":2166:2207   */\n  tag_51\n    /* \"#utility.yul\":2190:2206   */\n  dup3\n    /* \"#utility.yul\":2166:2207   */\n  tag_18\n  jump\t// in\ntag_51:\n    /* \"#utility.yul\":2158:2164   */\n  dup5\n    /* \"#utility.yul\":2151:2155   */\n  dup5\n    /* \"#utility.yul\":2145:2156   */\n  sload\n    /* \"#utility.yul\":2117:2208   */\n  tag_14\n  jump\t// in\ntag_50:\n    /* \"#utility.yul\":2111:2115   */\n  dup3\n    /* \"#utility.yul\":2104:2209   */\n  sstore\n    /* \"#utility.yul\":2022:2215   */\n  pop\n    /* \"#utility.yul\":1946:2215   */\n  pop\n  pop\n  pop\n  jump\t// out\n    /* \"#utility.yul\":2221:2294   */\ntag_20:\n    /* \"#utility.yul\":2266:2269   */\n  0x00\n    /* \"#utility.yul\":2287:2288   */\n  0x00\n    /* \"#utility.yul\":2280:2288   */\n  swap1\n  pop\n    /* \"#utility.yul\":2221:2294   */\n  swap1\n  jump\t// out\n    /* \"#utility.yul\":2300:2489   */\ntag_21:\n    /* \"#utility.yul\":2377:2409   */\n  tag_54\n  tag_20\n  jump\t// in\ntag_54:\n    /* \"#utility.yul\":2418:2483   */\n  tag_55\n    /* \"#utility.yul\":2476:2482   */\n  dup2\n    /* \"#utility.yul\":2468:2474   */\n  dup5\n    /* \"#utility.yul\":2462:2466   */\n  dup5\n    /* \"#utility.yul\":2418:2483   */\n  tag_19\n  jump\t// in\ntag_55:\n    /* \"#utility.yul\":2353:2489   */\n  pop\n    /* \"#utility.yul\":2300:2489   */\n  pop\n  pop\n  jump\t// out\n    /* \"#utility.yul\":2495:2709   */\ntag_22:\n    /* \"#utility.yul\":2580:2581   */\n  0x00\n    /* \"#utility.yul\":2565:2703   */\ntag_57:\n    /* \"#utility.yul\":2590:2599   */\n  dup3\n    /* \"#utility.yul\":2587:2588   */\n  dup2\n    /* \"#utility.yul\":2584:2600   */\n  lt\n    /* \"#utility.yul\":2565:2703   */\n  iszero\n  tag_59\n  jumpi\n    /* \"#utility.yul\":2642:2693   */\n  tag_60\n    /* \"#utility.yul\":2691:2692   */\n  0x00\n    /* \"#utility.yul\":2687:2688   */\n  dup3\n    /* \"#utility.yul\":2676:2685   */\n  dup5\n    /* \"#utility.yul\":2672:2689   */\n  add\n    /* \"#utility.yul\":2642:2693   */\n  tag_21\n  jump\t// in\ntag_60:\n    /* \"#utility.yul\":2615:2616   */\n  0x01\n    /* \"#utility.yul\":2612:2613   */\n  dup2\n    /* \"#utility.yul\":2608:2617   */\n  add\n    /* \"#utility.yul\":2603:2617   */\n  swap1\n  pop\n    /* \"#utility.yul\":2565:2703   */\n  jump(tag_57)\ntag_59:\n    /* \"#utility.yul\":2569:2583   */\n  pop\n    /* \"#utility.yul\":2495:2709   */\n  pop\n  pop\n  jump\t// out\n    /* \"#utility.yul\":2715:3461   */\ntag_23:\n    /* \"#utility.yul\":2816:2818   */\n  0x1f\n    /* \"#utility.yul\":2811:2814   */\n  dup3\n    /* \"#utility.yul\":2808:2819   */\n  gt\n    /* \"#utility.yul\":2805:3454   */\n  iszero\n  tag_62\n  jumpi\n    /* \"#utility.yul\":2845:2855   */\n  dup3\n    /* \"#utility.yul\":2840:2843   */\n  dup3\n    /* \"#utility.yul\":2837:2856   */\n  gt\n    /* \"#utility.yul\":2834:3444   */\n  iszero\n  tag_63\n  jumpi\n    /* \"#utility.yul\":2891:2929   */\n  tag_64\n    /* \"#utility.yul\":2923:2928   */\n  dup2\n    /* \"#utility.yul\":2891:2929   */\n  tag_11\n  jump\t// in\ntag_64:\n    /* \"#utility.yul\":2966:2988   */\n  tag_65\n    /* \"#utility.yul\":2984:2987   */\n  dup4\n    /* \"#utility.yul\":2966:2988   */\n  tag_12\n  jump\t// in\ntag_65:\n    /* \"#utility.yul\":3025:3054   */\n  tag_66\n    /* \"#utility.yul\":3043:3053   */\n  dup6\n    /* \"#utility.yul\":3025:3054   */\n  tag_12\n  jump\t// in\ntag_66:\n    /* \"#utility.yul\":3215:3217   */\n  0x20\n    /* \"#utility.yul\":3203:3213   */\n  dup7\n    /* \"#utility.yul\":3200:3218   */\n  lt\n    /* \"#utility.yul\":3197:3276   */\n  iszero\n  tag_67\n  jumpi\n    /* \"#utility.yul\":3257:3258   */\n  0x00\n    /* \"#utility.yul\":3241:3258   */\n  swap1\n  pop\n    /* \"#utility.yul\":3197:3276   */\ntag_67:\n    /* \"#utility.yul\":3326:3338   */\n  dup1\n    /* \"#utility.yul\":3316:3324   */\n  dup4\n    /* \"#utility.yul\":3312:3339   */\n  add\n    /* \"#utility.yul\":3356:3430   */\n  tag_68\n    /* \"#utility.yul\":3416:3428   */\n  dup3\n    /* \"#utility.yul\":3402:3414   */\n  dup5\n    /* \"#utility.yul\":3398:3429   */\n  sub\n    /* \"#utility.yul\":3385:3396   */\n  dup3\n    /* \"#utility.yul\":3356:3430   */\n  tag_22\n  jump\t// in\ntag_68:\n    /* \"#utility.yul\":2857:3444   */\n  pop\n  pop\n  pop\n  pop\n    /* \"#utility.yul\":2834:3444   */\ntag_63:\n    /* \"#utility.yul\":2805:3454   */\ntag_62:\n    /* \"#utility.yul\":2715:3461   */\n  pop\n  pop\n  pop\n  jump\t// out\n    /* \"#utility.yul\":3467:3584   */\ntag_24:\n    /* \"#utility.yul\":3521:3529   */\n  0x00\n    /* \"#utility.yul\":3571:3576   */\n  dup3\n    /* \"#utility.yul\":3565:3569   */\n  dup3\n    /* \"#utility.yul\":3561:3577   */\n  shr\n    /* \"#utility.yul\":3540:3577   */\n  swap1\n  pop\n    /* \"#utility.yul\":3467:3584   */\n  swap3\n  swap2\n  pop\n  pop\n  jump\t// out\n    /* \"#utility.yul\":3590:3759   */\ntag_25:\n    /* \"#utility.yul\":3634:3640   */\n  0x00\n    /* \"#utility.yul\":3667:3718   */\n  tag_71\n    /* \"#utility.yul\":3715:3716   */\n  0x00\n    /* \"#utility.yul\":3711:3717   */\n  not\n    /* \"#utility.yul\":3703:3708   */\n  dup5\n    /* \"#utility.yul\":3700:3701   */\n  0x08\n    /* \"#utility.yul\":3696:3709   */\n  mul\n    /* \"#utility.yul\":3667:3718   */\n  tag_24\n  jump\t// in\ntag_71:\n    /* \"#utility.yul\":3663:3719   */\n  not\n    /* \"#utility.yul\":3748:3752   */\n  dup1\n    /* \"#utility.yul\":3742:3746   */\n  dup4\n    /* \"#utility.yul\":3738:3753   */\n  and\n    /* \"#utility.yul\":3728:3753   */\n  swap2\n  pop\n    /* \"#utility.yul\":3641:3759   */\n  pop\n    /* \"#utility.yul\":3590:3759   */\n  swap3\n  swap2\n  pop\n  pop\n  jump\t// out\n    /* \"#utility.yul\":3764:4059   */\ntag_26:\n    /* \"#utility.yul\":3840:3844   */\n  0x00\n    /* \"#utility.yul\":3986:4015   */\n  tag_73\n    /* \"#utility.yul\":4011:4014   */\n  dup4\n    /* \"#utility.yul\":4005:4009   */\n  dup4\n    /* \"#utility.yul\":3986:4015   */\n  tag_25\n  jump\t// in\ntag_73:\n    /* \"#utility.yul\":3978:4015   */\n  swap2\n  pop\n    /* \"#utility.yul\":4048:4051   */\n  dup3\n    /* \"#utility.yul\":4045:4046   */\n  0x02\n    /* \"#utility.yul\":4041:4052   */\n  mul\n    /* \"#utility.yul\":4035:4039   */\n  dup3\n    /* \"#utility.yul\":4032:4053   */\n  or\n    /* \"#utility.yul\":4024:4053   */\n  swap1\n  pop\n    /* \"#utility.yul\":3764:4059   */\n  swap3\n  swap2\n  pop\n  pop\n  jump\t// out\n    /* \"#utility.yul\":4064:5459   */\ntag_2:\n    /* \"#utility.yul\":4181:4218   */\n  tag_75\n    /* \"#utility.yul\":4214:4217   */\n  dup3\n    /* \"#utility.yul\":4181:4218   */\n  tag_7\n  jump\t// in\ntag_75:\n    /* \"#utility.yul\":4283:4301   */\n  0xffffffffffffffff\n    /* \"#utility.yul\":4275:4281   */\n  dup2\n    /* \"#utility.yul\":4272:4302   */\n  gt\n    /* \"#utility.yul\":4269:4325   */\n  iszero\n  tag_76\n  jumpi\n    /* \"#utility.yul\":4305:4323   */\n  tag_77\n  tag_8\n  jump\t// in\ntag_77:\n    /* \"#utility.yul\":4269:4325   */\ntag_76:\n    /* \"#utility.yul\":4349:4387   */\n  tag_78\n    /* \"#utility.yul\":4381:4385   */\n  dup3\n    /* \"#utility.yul\":4375:4386   */\n  sload\n    /* \"#utility.yul\":4349:4387   */\n  tag_10\n  jump\t// in\ntag_78:\n    /* \"#utility.yul\":4434:4501   */\n  tag_79\n    /* \"#utility.yul\":4494:4500   */\n  dup3\n    /* \"#utility.yul\":4486:4492   */\n  dup3\n    /* \"#utility.yul\":4480:4484   */\n  dup6\n    /* \"#utility.yul\":4434:4501   */\n  tag_23\n  jump\t// in\ntag_79:\n    /* \"#utility.yul\":4528:4529   */\n  0x00\n    /* \"#utility.yul\":4552:4556   */\n  0x20\n    /* \"#utility.yul\":4539:4556   */\n  swap1\n  pop\n    /* \"#utility.yul\":4584:4586   */\n  0x1f\n    /* \"#utility.yul\":4576:4582   */\n  dup4\n    /* \"#utility.yul\":4573:4587   */\n  gt\n    /* \"#utility.yul\":4601:4602   */\n  0x01\n    /* \"#utility.yul\":4596:5214   */\n  dup2\n  eq\n  tag_81\n  jumpi\n    /* \"#utility.yul\":5258:5259   */\n  0x00\n    /* \"#utility.yul\":5275:5281   */\n  dup5\n    /* \"#utility.yul\":5272:5349   */\n  iszero\n  tag_82\n  jumpi\n    /* \"#utility.yul\":5324:5333   */\n  dup3\n    /* \"#utility.yul\":5319:5322   */\n  dup8\n    /* \"#utility.yul\":5315:5334   */\n  add\n    /* \"#utility.yul\":5309:5335   */\n  mload\n    /* \"#utility.yul\":5300:5335   */\n  swap1\n  pop\n    /* \"#utility.yul\":5272:5349   */\ntag_82:\n    /* \"#utility.yul\":5375:5442   */\n  tag_83\n    /* \"#utility.yul\":5435:5441   */\n  dup6\n    /* \"#utility.yul\":5428:5433   */\n  dup3\n    /* \"#utility.yul\":5375:5442   */\n  tag_26\n  jump\t// in\ntag_83:\n    /* \"#utility.yul\":5369:5373   */\n  dup7\n    /* \"#utility.yul\":5362:5443   */\n  sstore\n    /* \"#utility.yul\":5231:5453   */\n  pop\n    /* \"#utility.yul\":4566:5453   */\n  jump(tag_80)\n    /* \"#utility.yul\":4596:5214   */\ntag_81:\n    /* \"#utility.yul\":4648:4652   */\n  0x1f\n    /* \"#utility.yul\":4644:4653   */\n  not\n    /* \"#utility.yul\":4636:4642   */\n  dup5\n    /* \"#utility.yul\":4632:4654   */\n  and\n    /* \"#utility.yul\":4682:4719   */\n  tag_84\n    /* \"#utility.yul\":4714:4718   */\n  dup7\n    /* \"#utility.yul\":4682:4719   */\n  tag_11\n  jump\t// in\ntag_84:\n    /* \"#utility.yul\":4741:4742   */\n  0x00\n    /* \"#utility.yul\":4755:4963   */\ntag_85:\n    /* \"#utility.yul\":4769:4776   */\n  dup3\n    /* \"#utility.yul\":4766:4767   */\n  dup2\n    /* \"#utility.yul\":4763:4777   */\n  lt\n    /* \"#utility.yul\":4755:4963   */\n  iszero\n  tag_87\n  jumpi\n    /* \"#utility.yul\":4848:4857   */\n  dup5\n    /* \"#utility.yul\":4843:4846   */\n  dup10\n    /* \"#utility.yul\":4839:4858   */\n  add\n    /* \"#utility.yul\":4833:4859   */\n  mload\n    /* \"#utility.yul\":4825:4831   */\n  dup3\n    /* \"#utility.yul\":4818:4860   */\n  sstore\n    /* \"#utility.yul\":4899:4900   */\n  0x01\n    /* \"#utility.yul\":4891:4897   */\n  dup3\n    /* \"#utility.yul\":4887:4901   */\n  add\n    /* \"#utility.yul\":4877:4901   */\n  swap2\n  pop\n    /* \"#utility.yul\":4946:4948   */\n  0x20\n    /* \"#utility.yul\":4935:4944   */\n  dup6\n    /* \"#utility.yul\":4931:4949   */\n  add\n    /* \"#utility.yul\":4918:4949   */\n  swap5\n  pop\n    /* \"#utility.yul\":4792:4796   */\n  0x20\n    /* \"#utility.yul\":4789:4790   */\n  dup2\n    /* \"#utility.yul\":4785:4797   */\n  add\n    /* \"#utility.yul\":4780:4797   */\n  swap1\n  pop\n    /* \"#utility.yul\":4755:4963   */\n  jump(tag_85)\ntag_87:\n    /* \"#utility.yul\":4991:4997   */\n  dup7\n    /* \"#utility.yul\":4982:4989   */\n  dup4\n    /* \"#utility.yul\":4979:4998   */\n  lt\n    /* \"#utility.yul\":4976:5155   */\n  iszero\n  tag_88\n  jumpi\n    /* \"#utility.yul\":5049:5058   */\n  dup5\n    /* \"#utility.yul\":5044:5047   */\n  dup10\n    /* \"#utility.yul\":5040:5059   */\n  add\n    /* \"#utility.yul\":5034:5060   */\n  mload\n    /* \"#utility.yul\":5092:5140   */\n  tag_89\n    /* \"#utility.yul\":5134:5138   */\n  0x1f\n    /* \"#utility.yul\":5126:5132   */\n  dup10\n    /* \"#utility.yul\":5122:5139   */\n  and\n    /* \"#utility.yul\":5111:5120   */\n  dup3\n    /* \"#utility.yul\":5092:5140   */\n  tag_25\n  jump\t// in\ntag_89:\n    /* \"#utility.yul\":5084:5090   */\n  dup4\n    /* \"#utility.yul\":5077:5141   */\n  sstore\n    /* \"#utility.yul\":4999:5155   */\n  pop\n    /* \"#utility.yul\":4976:5155   */\ntag_88:\n    /* \"#utility.yul\":5201:5202   */\n  0x01\n    /* \"#utility.yul\":5197:5198   */\n  0x02\n    /* \"#utility.yul\":5189:5195   */\n  dup9\n    /* \"#utility.yul\":5185:5199   */\n  mul\n    /* \"#utility.yul\":5181:5203   */\n  add\n    /* \"#utility.yul\":5175:5179   */\n  dup9\n    /* \"#utility.yul\":5168:5204   */\n  sstore\n    /* \"#utility.yul\":4603:5214   */\n  pop\n  pop\n  pop\n    /* \"#utility.yul\":4566:5453   */\ntag_80:\n  pop\n    /* \"#utility.yul\":4156:5459   */\n  pop\n  pop\n  pop\n    /* \"#utility.yul\":4064:5459   */\n  pop\n  pop\n  jump\t// out\n    /* \"StudentDiary1.sol\":61:1033  contract StudentDiary {... */\ntag_6:\n  dataSize(sub_0)\n  dup1\n  dataOffset(sub_0)\n  0x00\n  codecopy\n  0x00\n  return\nstop\n\nsub_0: assembly {\n        /* \"StudentDiary1.sol\":61:1033  contract StudentDiary {... */\n      mstore(0x40, 0x80)\n      callvalue\n      dup1\n      iszero\n      tag_1\n      jumpi\n      revert(0x00, 0x00)\n    tag_1:\n      pop\n      jumpi(tag_2, lt(calldatasize, 0x04))\n      shr(0xe0, calldataload(0x00))\n      dup1\n      0x80e8d626\n      gt\n      tag_18\n      jumpi\n      dup1\n      0xb182b083\n      gt\n      tag_19\n      jumpi\n      dup1\n      0xb182b083\n      eq\n      tag_14\n      jumpi\n      dup1\n      0xb774884a\n      eq\n      tag_15\n      jumpi\n      dup1\n      0xc5b0cb3b\n      eq\n      tag_16\n      jumpi\n      dup1\n      0xdf02163b\n      eq\n      tag_17\n      jumpi\n      jump(tag_2)\n    tag_19:\n      dup1\n      0x80e8d626\n      eq\n      tag_10\n      jumpi\n      dup1\n      0x8381f58a\n      eq\n      tag_11\n      jumpi\n      dup1\n      0x88e7cc08\n      eq\n      tag_12\n      jumpi\n      dup1\n      0xa830e15f\n      eq\n      tag_13\n      jumpi\n      jump(tag_2)\n    tag_18:\n      dup1\n      0x699450e8\n      gt\n      tag_20\n      jumpi\n      dup1\n      0x699450e8\n      eq\n      tag_6\n      jumpi\n      dup1\n      0x6c5f5966\n      eq\n      tag_7\n      jumpi\n      dup1\n      0x6d76b926\n      eq\n      tag_8\n      jumpi\n      dup1\n      0x75c7fef7\n      eq\n      tag_9\n      jumpi\n      jump(tag_2)\n    tag_20:\n      dup1\n      0x0f91d842\n      eq\n      tag_3\n      jumpi\n      dup1\n      0x497c69b1\n      eq\n      tag_4\n      jumpi\n      dup1\n      0x59212064\n      eq\n      tag_5\n      jumpi\n    tag_2:\n      revert(0x00, 0x00)\n        /* \"StudentDiary1.sol\":266:281  int public urok */\n    tag_3:\n      tag_21\n      tag_22\n      jump\t// in\n    tag_21:\n      mload(0x40)\n      tag_23\n      swap2\n      swap1\n      tag_24\n      jump\t// in\n    tag_23:\n      mload(0x40)\n      dup1\n      swap2\n      sub\n      swap1\n      return\n        /* \"StudentDiary1.sol\":614:668  function replace() public {... */\n    tag_4:\n      tag_25\n      tag_26\n      jump\t// in\n    tag_25:\n      stop\n        /* \"StudentDiary1.sol\":758:835  function swapStatusInactive() public {... */\n    tag_5:\n      tag_27\n      tag_28\n      jump\t// in\n    tag_27:\n      stop\n        /* \"StudentDiary1.sol\":90:112  address public student */\n    tag_6:\n      tag_29\n      tag_30\n      jump\t// in\n    tag_29:\n      mload(0x40)\n      tag_31\n      swap2\n      swap1\n      tag_32\n      jump\t// in\n    tag_31:\n      mload(0x40)\n      dup1\n      swap2\n      sub\n      swap1\n      return\n        /* \"StudentDiary1.sol\":347:386  mapping(string => int) public egoLesson */\n    tag_7:\n      tag_33\n      0x04\n      dup1\n      calldatasize\n      sub\n      dup2\n      add\n      swap1\n      tag_34\n      swap2\n      swap1\n      tag_35\n      jump\t// in\n    tag_34:\n      tag_36\n      jump\t// in\n    tag_33:\n      mload(0x40)\n      tag_37\n      swap2\n      swap1\n      tag_24\n      jump\t// in\n    tag_37:\n      mload(0x40)\n      dup1\n      swap2\n      sub\n      swap1\n      return\n        /* \"StudentDiary1.sol\":161:207  mapping(address => uint) public addressStudent */\n    tag_8:\n      tag_38\n      0x04\n      dup1\n      calldatasize\n      sub\n      dup2\n      add\n      swap1\n      tag_39\n      swap2\n      swap1\n      tag_40\n      jump\t// in\n    tag_39:\n      tag_41\n      jump\t// in\n    tag_38:\n      mload(0x40)\n      tag_42\n      swap2\n      swap1\n      tag_43\n      jump\t// in\n    tag_42:\n      mload(0x40)\n      dup1\n      swap2\n      sub\n      swap1\n      return\n        /* \"StudentDiary1.sol\":214:235  int public ocenkaMath */\n    tag_9:\n      tag_44\n      tag_45\n      jump\t// in\n    tag_44:\n      mload(0x40)\n      tag_46\n      swap2\n      swap1\n      tag_24\n      jump\t// in\n    tag_46:\n      mload(0x40)\n      dup1\n      swap2\n      sub\n      swap1\n      return\n        /* \"StudentDiary1.sol\":288:313  bool public statusStudent */\n    tag_10:\n      tag_47\n      tag_48\n      jump\t// in\n    tag_47:\n      mload(0x40)\n      tag_49\n      swap2\n      swap1\n      tag_50\n      jump\t// in\n    tag_49:\n      mload(0x40)\n      dup1\n      swap2\n      sub\n      swap1\n      return\n        /* \"StudentDiary1.sol\":242:259  int public number */\n    tag_11:\n      tag_51\n      tag_52\n      jump\t// in\n    tag_51:\n      mload(0x40)\n      tag_53\n      swap2\n      swap1\n      tag_24\n      jump\t// in\n    tag_53:\n      mload(0x40)\n      dup1\n      swap2\n      sub\n      swap1\n      return\n        /* \"StudentDiary1.sol\":907:1030  function umnozhenie(int newNumber) external returns (int) {... */\n    tag_12:\n      tag_54\n      0x04\n      dup1\n      calldatasize\n      sub\n      dup2\n      add\n      swap1\n      tag_55\n      swap2\n      swap1\n      tag_56\n      jump\t// in\n    tag_55:\n      tag_57\n      jump\t// in\n    tag_54:\n      mload(0x40)\n      tag_58\n      swap2\n      swap1\n      tag_24\n      jump\t// in\n    tag_58:\n      mload(0x40)\n      dup1\n      swap2\n      sub\n      swap1\n      return\n        /* \"StudentDiary1.sol\":119:154  string public nameStudent = \"Misha\" */\n    tag_13:\n      tag_59\n      tag_60\n      jump\t// in\n    tag_59:\n      mload(0x40)\n      tag_61\n      swap2\n      swap1\n      tag_62\n      jump\t// in\n    tag_61:\n      mload(0x40)\n      dup1\n      swap2\n      sub\n      swap1\n      return\n        /* \"StudentDiary1.sol\":843:899  function completeUrok() public {... */\n    tag_14:\n      tag_63\n      tag_64\n      jump\t// in\n    tag_63:\n      stop\n        /* \"StudentDiary1.sol\":676:750  function swapStatusActive() public {... */\n    tag_15:\n      tag_65\n      tag_66\n      jump\t// in\n    tag_65:\n      stop\n        /* \"StudentDiary1.sol\":320:340  string public lesson */\n    tag_16:\n      tag_67\n      tag_68\n      jump\t// in\n    tag_67:\n      mload(0x40)\n      tag_69\n      swap2\n      swap1\n      tag_62\n      jump\t// in\n    tag_69:\n      mload(0x40)\n      dup1\n      swap2\n      sub\n      swap1\n      return\n        /* \"StudentDiary1.sol\":460:606  function setOcenkaMath(... */\n    tag_17:\n      tag_70\n      0x04\n      dup1\n      calldatasize\n      sub\n      dup2\n      add\n      swap1\n      tag_71\n      swap2\n      swap1\n      tag_56\n      jump\t// in\n    tag_71:\n      tag_72\n      jump\t// in\n    tag_70:\n      mload(0x40)\n      tag_73\n      swap2\n      swap1\n      tag_24\n      jump\t// in\n    tag_73:\n      mload(0x40)\n      dup1\n      swap2\n      sub\n      swap1\n      return\n        /* \"StudentDiary1.sol\":266:281  int public urok */\n    tag_22:\n      sload(0x05)\n      dup2\n      jump\t// out\n        /* \"StudentDiary1.sol\":614:668  function replace() public {... */\n    tag_26:\n      jump\t// out\n        /* \"StudentDiary1.sol\":758:835  function swapStatusInactive() public {... */\n    tag_28:\n        /* \"StudentDiary1.sol\":822:827  false */\n      0x00\n        /* \"StudentDiary1.sol\":806:819  statusStudent */\n      0x06\n      0x00\n        /* \"StudentDiary1.sol\":806:827  statusStudent = false */\n      0x0100\n      exp\n      dup2\n      sload\n      dup2\n      0xff\n      mul\n      not\n      and\n      swap1\n      dup4\n      iszero\n      iszero\n      mul\n      or\n      swap1\n      sstore\n      pop\n        /* \"StudentDiary1.sol\":758:835  function swapStatusInactive() public {... */\n      jump\t// out\n        /* \"StudentDiary1.sol\":90:112  address public student */\n    tag_30:\n      0x00\n      0x00\n      swap1\n      sload\n      swap1\n      0x0100\n      exp\n      swap1\n      div\n      0xffffffffffffffffffffffffffffffffffffffff\n      and\n      dup2\n      jump\t// out\n        /* \"StudentDiary1.sol\":347:386  mapping(string => int) public egoLesson */\n    tag_36:\n      0x08\n      dup2\n      dup1\n      mload\n      0x20\n      dup2\n      add\n      dup3\n      add\n      dup1\n      mload\n      dup5\n      dup3\n      mstore\n      0x20\n      dup4\n      add\n      0x20\n      dup6\n      add\n      keccak256\n      dup2\n      dup4\n      mstore\n      dup1\n      swap6\n      pop\n      pop\n      pop\n      pop\n      pop\n      pop\n      0x00\n      swap2\n      pop\n      swap1\n      pop\n      sload\n      dup2\n      jump\t// out\n        /* \"StudentDiary1.sol\":161:207  mapping(address => uint) public addressStudent */\n    tag_41:\n      mstore(0x20, 0x02)\n      dup1\n      0x00\n      mstore\n      keccak256(0x00, 0x40)\n      0x00\n      swap2\n      pop\n      swap1\n      pop\n      sload\n      dup2\n      jump\t// out\n        /* \"StudentDiary1.sol\":214:235  int public ocenkaMath */\n    tag_45:\n      sload(0x03)\n      dup2\n      jump\t// out\n        /* \"StudentDiary1.sol\":288:313  bool public statusStudent */\n    tag_48:\n      0x06\n      0x00\n      swap1\n      sload\n      swap1\n      0x0100\n      exp\n      swap1\n      div\n      0xff\n      and\n      dup2\n      jump\t// out\n        /* \"StudentDiary1.sol\":242:259  int public number */\n    tag_52:\n      sload(0x04)\n      dup2\n      jump\t// out\n        /* \"StudentDiary1.sol\":907:1030  function umnozhenie(int newNumber) external returns (int) {... */\n    tag_57:\n        /* \"StudentDiary1.sol\":960:963  int */\n      0x00\n        /* \"StudentDiary1.sol\":997:998  2 */\n      0x02\n        /* \"StudentDiary1.sol\":985:994  newNumber */\n      dup3\n        /* \"StudentDiary1.sol\":985:998  newNumber * 2 */\n      tag_77\n      swap2\n      swap1\n      tag_78\n      jump\t// in\n    tag_77:\n        /* \"StudentDiary1.sol\":976:982  number */\n      0x04\n        /* \"StudentDiary1.sol\":976:998  number = newNumber * 2 */\n      dup2\n      swap1\n      sstore\n      pop\n        /* \"StudentDiary1.sol\":1016:1022  number */\n      sload(0x04)\n        /* \"StudentDiary1.sol\":1009:1022  return number */\n      swap1\n      pop\n        /* \"StudentDiary1.sol\":907:1030  function umnozhenie(int newNumber) external returns (int) {... */\n      swap2\n      swap1\n      pop\n      jump\t// out\n        /* \"StudentDiary1.sol\":119:154  string public nameStudent = \"Misha\" */\n    tag_60:\n      0x01\n      dup1\n      sload\n      tag_79\n      swap1\n      tag_80\n      jump\t// in\n    tag_79:\n      dup1\n      0x1f\n      add\n      0x20\n      dup1\n      swap2\n      div\n      mul\n      0x20\n      add\n      mload(0x40)\n      swap1\n      dup2\n      add\n      0x40\n      mstore\n      dup1\n      swap3\n      swap2\n      swap1\n      dup2\n      dup2\n      mstore\n      0x20\n      add\n      dup3\n      dup1\n      sload\n      tag_81\n      swap1\n      tag_80\n      jump\t// in\n    tag_81:\n      dup1\n      iszero\n      tag_82\n      jumpi\n      dup1\n      0x1f\n      lt\n      tag_83\n      jumpi\n      0x0100\n      dup1\n      dup4\n      sload\n      div\n      mul\n      dup4\n      mstore\n      swap2\n      0x20\n      add\n      swap2\n      jump(tag_82)\n    tag_83:\n      dup3\n      add\n      swap2\n      swap1\n      0x00\n      mstore\n      keccak256(0x00, 0x20)\n      swap1\n    tag_84:\n      dup2\n      sload\n      dup2\n      mstore\n      swap1\n      0x01\n      add\n      swap1\n      0x20\n      add\n      dup1\n      dup4\n      gt\n      tag_84\n      jumpi\n      dup3\n      swap1\n      sub\n      0x1f\n      and\n      dup3\n      add\n      swap2\n    tag_82:\n      pop\n      pop\n      pop\n      pop\n      pop\n      dup2\n      jump\t// out\n        /* \"StudentDiary1.sol\":843:899  function completeUrok() public {... */\n    tag_64:\n        /* \"StudentDiary1.sol\":885:889  urok */\n      0x05\n      0x00\n        /* \"StudentDiary1.sol\":885:891  urok++ */\n      dup2\n      sload\n      dup1\n      swap3\n      swap2\n      swap1\n      tag_86\n      swap1\n      tag_87\n      jump\t// in\n    tag_86:\n      swap2\n      swap1\n      pop\n      sstore\n      pop\n        /* \"StudentDiary1.sol\":843:899  function completeUrok() public {... */\n      jump\t// out\n        /* \"StudentDiary1.sol\":676:750  function swapStatusActive() public {... */\n    tag_66:\n        /* \"StudentDiary1.sol\":738:742  true */\n      0x01\n        /* \"StudentDiary1.sol\":722:735  statusStudent */\n      0x06\n      0x00\n        /* \"StudentDiary1.sol\":722:742  statusStudent = true */\n      0x0100\n      exp\n      dup2\n      sload\n      dup2\n      0xff\n      mul\n      not\n      and\n      swap1\n      dup4\n      iszero\n      iszero\n      mul\n      or\n      swap1\n      sstore\n      pop\n        /* \"StudentDiary1.sol\":676:750  function swapStatusActive() public {... */\n      jump\t// out\n        /* \"StudentDiary1.sol\":320:340  string public lesson */\n    tag_68:\n      0x07\n      dup1\n      sload\n      tag_89\n      swap1\n      tag_80\n      jump\t// in\n    tag_89:\n      dup1\n      0x1f\n      add\n      0x20\n      dup1\n      swap2\n      div\n      mul\n      0x20\n      add\n      mload(0x40)\n      swap1\n      dup2\n      add\n      0x40\n      mstore\n      dup1\n      swap3\n      swap2\n      swap1\n      dup2\n      dup2\n      mstore\n      0x20\n      add\n      dup3\n      dup1\n      sload\n      tag_90\n      swap1\n      tag_80\n      jump\t// in\n    tag_90:\n      dup1\n      iszero\n      tag_91\n      jumpi\n      dup1\n      0x1f\n      lt\n      tag_92\n      jumpi\n      0x0100\n      dup1\n      dup4\n      sload\n      div\n      mul\n      dup4\n      mstore\n      swap2\n      0x20\n      add\n      swap2\n      jump(tag_91)\n    tag_92:\n      dup3\n      add\n      swap2\n      swap1\n      0x00\n      mstore\n      keccak256(0x00, 0x20)\n      swap1\n    tag_93:\n      dup2\n      sload\n      dup2\n      mstore\n      swap1\n      0x01\n      add\n      swap1\n      0x20\n      add\n      dup1\n      dup4\n      gt\n      tag_93\n      jumpi\n      dup3\n      swap1\n      sub\n      0x1f\n      and\n      dup3\n      add\n      swap2\n    tag_91:\n      pop\n      pop\n      pop\n      pop\n      pop\n      dup2\n      jump\t// out\n        /* \"StudentDiary1.sol\":460:606  function setOcenkaMath(... */\n    tag_72:\n        /* \"StudentDiary1.sol\":532:535  int */\n      0x00\n        /* \"StudentDiary1.sol\":561:570  newOcenka */\n      dup2\n        /* \"StudentDiary1.sol\":548:558  ocenkaMath */\n      0x03\n        /* \"StudentDiary1.sol\":548:570  ocenkaMath = newOcenka */\n      dup2\n      swap1\n      sstore\n      pop\n        /* \"StudentDiary1.sol\":588:598  ocenkaMath */\n      sload(0x03)\n        /* \"StudentDiary1.sol\":581:598  return ocenkaMath */\n      swap1\n      pop\n        /* \"StudentDiary1.sol\":460:606  function setOcenkaMath(... */\n      swap2\n      swap1\n      pop\n      jump\t// out\n        /* \"#utility.yul\":7:83   */\n    tag_95:\n        /* \"#utility.yul\":43:50   */\n      0x00\n        /* \"#utility.yul\":72:77   */\n      dup2\n        /* \"#utility.yul\":61:77   */\n      swap1\n      pop\n        /* \"#utility.yul\":7:83   */\n      swap2\n      swap1\n      pop\n      jump\t// out\n        /* \"#utility.yul\":89:204   */\n    tag_96:\n        /* \"#utility.yul\":174:197   */\n      tag_130\n        /* \"#utility.yul\":191:196   */\n      dup2\n        /* \"#utility.yul\":174:197   */\n      tag_95\n      jump\t// in\n    tag_130:\n        /* \"#utility.yul\":169:172   */\n      dup3\n        /* \"#utility.yul\":162:198   */\n      mstore\n        /* \"#utility.yul\":89:204   */\n      pop\n      pop\n      jump\t// out\n        /* \"#utility.yul\":210:428   */\n    tag_24:\n        /* \"#utility.yul\":301:305   */\n      0x00\n        /* \"#utility.yul\":339:341   */\n      0x20\n        /* \"#utility.yul\":328:337   */\n      dup3\n        /* \"#utility.yul\":324:342   */\n      add\n        /* \"#utility.yul\":316:342   */\n      swap1\n      pop\n        /* \"#utility.yul\":352:421   */\n      tag_132\n        /* \"#utility.yul\":418:419   */\n      0x00\n        /* \"#utility.yul\":407:416   */\n      dup4\n        /* \"#utility.yul\":403:420   */\n      add\n        /* \"#utility.yul\":394:400   */\n      dup5\n        /* \"#utility.yul\":352:421   */\n      tag_96\n      jump\t// in\n    tag_132:\n        /* \"#utility.yul\":210:428   */\n      swap3\n      swap2\n      pop\n      pop\n      jump\t// out\n        /* \"#utility.yul\":434:560   */\n    tag_97:\n        /* \"#utility.yul\":471:478   */\n      0x00\n        /* \"#utility.yul\":511:553   */\n      0xffffffffffffffffffffffffffffffffffffffff\n        /* \"#utility.yul\":504:509   */\n      dup3\n        /* \"#utility.yul\":500:554   */\n      and\n        /* \"#utility.yul\":489:554   */\n      swap1\n      pop\n        /* \"#utility.yul\":434:560   */\n      swap2\n      swap1\n      pop\n      jump\t// out\n        /* \"#utility.yul\":566:662   */\n    tag_98:\n        /* \"#utility.yul\":603:610   */\n      0x00\n        /* \"#utility.yul\":632:656   */\n      tag_135\n        /* \"#utility.yul\":650:655   */\n      dup3\n        /* \"#utility.yul\":632:656   */\n      tag_97\n      jump\t// in\n    tag_135:\n        /* \"#utility.yul\":621:656   */\n      swap1\n      pop\n        /* \"#utility.yul\":566:662   */\n      swap2\n      swap1\n      pop\n      jump\t// out\n        /* \"#utility.yul\":668:786   */\n    tag_99:\n        /* \"#utility.yul\":755:779   */\n      tag_137\n        /* \"#utility.yul\":773:778   */\n      dup2\n        /* \"#utility.yul\":755:779   */\n      tag_98\n      jump\t// in\n    tag_137:\n        /* \"#utility.yul\":750:753   */\n      dup3\n        /* \"#utility.yul\":743:780   */\n      mstore\n        /* \"#utility.yul\":668:786   */\n      pop\n      pop\n      jump\t// out\n        /* \"#utility.yul\":792:1014   */\n    tag_32:\n        /* \"#utility.yul\":885:889   */\n      0x00\n        /* \"#utility.yul\":923:925   */\n      0x20\n        /* \"#utility.yul\":912:921   */\n      dup3\n        /* \"#utility.yul\":908:926   */\n      add\n        /* \"#utility.yul\":900:926   */\n      swap1\n      pop\n        /* \"#utility.yul\":936:1007   */\n      tag_139\n        /* \"#utility.yul\":1004:1005   */\n      0x00\n        /* \"#utility.yul\":993:1002   */\n      dup4\n        /* \"#utility.yul\":989:1006   */\n      add\n        /* \"#utility.yul\":980:986   */\n      dup5\n        /* \"#utility.yul\":936:1007   */\n      tag_99\n      jump\t// in\n    tag_139:\n        /* \"#utility.yul\":792:1014   */\n      swap3\n      swap2\n      pop\n      pop\n      jump\t// out\n        /* \"#utility.yul\":1020:1095   */\n    tag_100:\n        /* \"#utility.yul\":1053:1059   */\n      0x00\n        /* \"#utility.yul\":1086:1088   */\n      0x40\n        /* \"#utility.yul\":1080:1089   */\n      mload\n        /* \"#utility.yul\":1070:1089   */\n      swap1\n      pop\n        /* \"#utility.yul\":1020:1095   */\n      swap1\n      jump\t// out\n        /* \"#utility.yul\":1101:1218   */\n    tag_101:\n        /* \"#utility.yul\":1210:1211   */\n      0x00\n        /* \"#utility.yul\":1207:1208   */\n      0x00\n        /* \"#utility.yul\":1200:1212   */\n      revert\n        /* \"#utility.yul\":1224:1341   */\n    tag_102:\n        /* \"#utility.yul\":1333:1334   */\n      0x00\n        /* \"#utility.yul\":1330:1331   */\n      0x00\n        /* \"#utility.yul\":1323:1335   */\n      revert\n        /* \"#utility.yul\":1347:1464   */\n    tag_103:\n        /* \"#utility.yul\":1456:1457   */\n      0x00\n        /* \"#utility.yul\":1453:1454   */\n      0x00\n        /* \"#utility.yul\":1446:1458   */\n      revert\n        /* \"#utility.yul\":1470:1587   */\n    tag_104:\n        /* \"#utility.yul\":1579:1580   */\n      0x00\n        /* \"#utility.yul\":1576:1577   */\n      0x00\n        /* \"#utility.yul\":1569:1581   */\n      revert\n        /* \"#utility.yul\":1593:1695   */\n    tag_105:\n        /* \"#utility.yul\":1634:1640   */\n      0x00\n        /* \"#utility.yul\":1685:1687   */\n      0x1f\n        /* \"#utility.yul\":1681:1688   */\n      not\n        /* \"#utility.yul\":1676:1678   */\n      0x1f\n        /* \"#utility.yul\":1669:1674   */\n      dup4\n        /* \"#utility.yul\":1665:1679   */\n      add\n        /* \"#utility.yul\":1661:1689   */\n      and\n        /* \"#utility.yul\":1651:1689   */\n      swap1\n      pop\n        /* \"#utility.yul\":1593:1695   */\n      swap2\n      swap1\n      pop\n      jump\t// out\n        /* \"#utility.yul\":1701:1881   */\n    tag_106:\n        /* \"#utility.yul\":1749:1826   */\n      0x4e487b7100000000000000000000000000000000000000000000000000000000\n        /* \"#utility.yul\":1746:1747   */\n      0x00\n        /* \"#utility.yul\":1739:1827   */\n      mstore\n        /* \"#utility.yul\":1846:1850   */\n      0x41\n        /* \"#utility.yul\":1843:1844   */\n      0x04\n        /* \"#utility.yul\":1836:1851   */\n      mstore\n        /* \"#utility.yul\":1870:1874   */\n      0x24\n        /* \"#utility.yul\":1867:1868   */\n      0x00\n        /* \"#utility.yul\":1860:1875   */\n      revert\n        /* \"#utility.yul\":1887:2168   */\n    tag_107:\n        /* \"#utility.yul\":1970:1997   */\n      tag_148\n        /* \"#utility.yul\":1992:1996   */\n      dup3\n        /* \"#utility.yul\":1970:1997   */\n      tag_105\n      jump\t// in\n    tag_148:\n        /* \"#utility.yul\":1962:1968   */\n      dup2\n        /* \"#utility.yul\":1958:1998   */\n      add\n        /* \"#utility.yul\":2100:2106   */\n      dup2\n        /* \"#utility.yul\":2088:2098   */\n      dup2\n        /* \"#utility.yul\":2085:2107   */\n      lt\n        /* \"#utility.yul\":2064:2082   */\n      0xffffffffffffffff\n        /* \"#utility.yul\":2052:2062   */\n      dup3\n        /* \"#utility.yul\":2049:2083   */\n      gt\n        /* \"#utility.yul\":2046:2108   */\n      or\n        /* \"#utility.yul\":2043:2131   */\n      iszero\n      tag_149\n      jumpi\n        /* \"#utility.yul\":2111:2129   */\n      tag_150\n      tag_106\n      jump\t// in\n    tag_150:\n        /* \"#utility.yul\":2043:2131   */\n    tag_149:\n        /* \"#utility.yul\":2151:2161   */\n      dup1\n        /* \"#utility.yul\":2147:2149   */\n      0x40\n        /* \"#utility.yul\":2140:2162   */\n      mstore\n        /* \"#utility.yul\":1930:2168   */\n      pop\n        /* \"#utility.yul\":1887:2168   */\n      pop\n      pop\n      jump\t// out\n        /* \"#utility.yul\":2174:2303   */\n    tag_108:\n        /* \"#utility.yul\":2208:2214   */\n      0x00\n        /* \"#utility.yul\":2235:2255   */\n      tag_152\n      tag_100\n      jump\t// in\n    tag_152:\n        /* \"#utility.yul\":2225:2255   */\n      swap1\n      pop\n        /* \"#utility.yul\":2264:2297   */\n      tag_153\n        /* \"#utility.yul\":2292:2296   */\n      dup3\n        /* \"#utility.yul\":2284:2290   */\n      dup3\n        /* \"#utility.yul\":2264:2297   */\n      tag_107\n      jump\t// in\n    tag_153:\n        /* \"#utility.yul\":2174:2303   */\n      swap2\n      swap1\n      pop\n      jump\t// out\n        /* \"#utility.yul\":2309:2617   */\n    tag_109:\n        /* \"#utility.yul\":2371:2375   */\n      0x00\n        /* \"#utility.yul\":2461:2479   */\n      0xffffffffffffffff\n        /* \"#utility.yul\":2453:2459   */\n      dup3\n        /* \"#utility.yul\":2450:2480   */\n      gt\n        /* \"#utility.yul\":2447:2503   */\n      iszero\n      tag_155\n      jumpi\n        /* \"#utility.yul\":2483:2501   */\n      tag_156\n      tag_106\n      jump\t// in\n    tag_156:\n        /* \"#utility.yul\":2447:2503   */\n    tag_155:\n        /* \"#utility.yul\":2521:2550   */\n      tag_157\n        /* \"#utility.yul\":2543:2549   */\n      dup3\n        /* \"#utility.yul\":2521:2550   */\n      tag_105\n      jump\t// in\n    tag_157:\n        /* \"#utility.yul\":2513:2550   */\n      swap1\n      pop\n        /* \"#utility.yul\":2605:2609   */\n      0x20\n        /* \"#utility.yul\":2599:2603   */\n      dup2\n        /* \"#utility.yul\":2595:2610   */\n      add\n        /* \"#utility.yul\":2587:2610   */\n      swap1\n      pop\n        /* \"#utility.yul\":2309:2617   */\n      swap2\n      swap1\n      pop\n      jump\t// out\n        /* \"#utility.yul\":2623:2771   */\n    tag_110:\n        /* \"#utility.yul\":2721:2727   */\n      dup3\n        /* \"#utility.yul\":2716:2719   */\n      dup2\n        /* \"#utility.yul\":2711:2714   */\n      dup4\n        /* \"#utility.yul\":2698:2728   */\n      calldatacopy\n        /* \"#utility.yul\":2762:2763   */\n      0x00\n        /* \"#utility.yul\":2753:2759   */\n      dup4\n        /* \"#utility.yul\":2748:2751   */\n      dup4\n        /* \"#utility.yul\":2744:2760   */\n      add\n        /* \"#utility.yul\":2737:2764   */\n      mstore\n        /* \"#utility.yul\":2623:2771   */\n      pop\n      pop\n      pop\n      jump\t// out\n        /* \"#utility.yul\":2777:3202   */\n    tag_111:\n        /* \"#utility.yul\":2855:2860   */\n      0x00\n        /* \"#utility.yul\":2880:2946   */\n      tag_160\n        /* \"#utility.yul\":2896:2945   */\n      tag_161\n        /* \"#utility.yul\":2938:2944   */\n      dup5\n        /* \"#utility.yul\":2896:2945   */\n      tag_109\n      jump\t// in\n    tag_161:\n        /* \"#utility.yul\":2880:2946   */\n      tag_108\n      jump\t// in\n    tag_160:\n        /* \"#utility.yul\":2871:2946   */\n      swap1\n      pop\n        /* \"#utility.yul\":2969:2975   */\n      dup3\n        /* \"#utility.yul\":2962:2967   */\n      dup2\n        /* \"#utility.yul\":2955:2976   */\n      mstore\n        /* \"#utility.yul\":3007:3011   */\n      0x20\n        /* \"#utility.yul\":3000:3005   */\n      dup2\n        /* \"#utility.yul\":2996:3012   */\n      add\n        /* \"#utility.yul\":3045:3048   */\n      dup5\n        /* \"#utility.yul\":3036:3042   */\n      dup5\n        /* \"#utility.yul\":3031:3034   */\n      dup5\n        /* \"#utility.yul\":3027:3043   */\n      add\n        /* \"#utility.yul\":3024:3049   */\n      gt\n        /* \"#utility.yul\":3021:3133   */\n      iszero\n      tag_162\n      jumpi\n        /* \"#utility.yul\":3052:3131   */\n      tag_163\n      tag_104\n      jump\t// in\n    tag_163:\n        /* \"#utility.yul\":3021:3133   */\n    tag_162:\n        /* \"#utility.yul\":3142:3196   */\n      tag_164\n        /* \"#utility.yul\":3189:3195   */\n      dup5\n        /* \"#utility.yul\":3184:3187   */\n      dup3\n        /* \"#utility.yul\":3179:3182   */\n      dup6\n        /* \"#utility.yul\":3142:3196   */\n      tag_110\n      jump\t// in\n    tag_164:\n        /* \"#utility.yul\":2861:3202   */\n      pop\n        /* \"#utility.yul\":2777:3202   */\n      swap4\n      swap3\n      pop\n      pop\n      pop\n      jump\t// out\n        /* \"#utility.yul\":3222:3562   */\n    tag_112:\n        /* \"#utility.yul\":3278:3283   */\n      0x00\n        /* \"#utility.yul\":3327:3330   */\n      dup3\n        /* \"#utility.yul\":3320:3324   */\n      0x1f\n        /* \"#utility.yul\":3312:3318   */\n      dup4\n        /* \"#utility.yul\":3308:3325   */\n      add\n        /* \"#utility.yul\":3304:3331   */\n      slt\n        /* \"#utility.yul\":3294:3416   */\n      tag_166\n      jumpi\n        /* \"#utility.yul\":3335:3414   */\n      tag_167\n      tag_103\n      jump\t// in\n    tag_167:\n        /* \"#utility.yul\":3294:3416   */\n    tag_166:\n        /* \"#utility.yul\":3452:3458   */\n      dup2\n        /* \"#utility.yul\":3439:3459   */\n      calldataload\n        /* \"#utility.yul\":3477:3556   */\n      tag_168\n        /* \"#utility.yul\":3552:3555   */\n      dup5\n        /* \"#utility.yul\":3544:3550   */\n      dup3\n        /* \"#utility.yul\":3537:3541   */\n      0x20\n        /* \"#utility.yul\":3529:3535   */\n      dup7\n        /* \"#utility.yul\":3525:3542   */\n      add\n        /* \"#utility.yul\":3477:3556   */\n      tag_111\n      jump\t// in\n    tag_168:\n        /* \"#utility.yul\":3468:3556   */\n      swap2\n      pop\n        /* \"#utility.yul\":3284:3562   */\n      pop\n        /* \"#utility.yul\":3222:3562   */\n      swap3\n      swap2\n      pop\n      pop\n      jump\t// out\n        /* \"#utility.yul\":3568:4077   */\n    tag_35:\n        /* \"#utility.yul\":3637:3643   */\n      0x00\n        /* \"#utility.yul\":3686:3688   */\n      0x20\n        /* \"#utility.yul\":3674:3683   */\n      dup3\n        /* \"#utility.yul\":3665:3672   */\n      dup5\n        /* \"#utility.yul\":3661:3684   */\n      sub\n        /* \"#utility.yul\":3657:3689   */\n      slt\n        /* \"#utility.yul\":3654:3773   */\n      iszero\n      tag_170\n      jumpi\n        /* \"#utility.yul\":3692:3771   */\n      tag_171\n      tag_101\n      jump\t// in\n    tag_171:\n        /* \"#utility.yul\":3654:3773   */\n    tag_170:\n        /* \"#utility.yul\":3840:3841   */\n      0x00\n        /* \"#utility.yul\":3829:3838   */\n      dup3\n        /* \"#utility.yul\":3825:3842   */\n      add\n        /* \"#utility.yul\":3812:3843   */\n      calldataload\n        /* \"#utility.yul\":3870:3888   */\n      0xffffffffffffffff\n        /* \"#utility.yul\":3862:3868   */\n      dup2\n        /* \"#utility.yul\":3859:3889   */\n      gt\n        /* \"#utility.yul\":3856:3973   */\n      iszero\n      tag_172\n      jumpi\n        /* \"#utility.yul\":3892:3971   */\n      tag_173\n      tag_102\n      jump\t// in\n    tag_173:\n        /* \"#utility.yul\":3856:3973   */\n    tag_172:\n        /* \"#utility.yul\":3997:4060   */\n      tag_174\n        /* \"#utility.yul\":4052:4059   */\n      dup5\n        /* \"#utility.yul\":4043:4049   */\n      dup3\n        /* \"#utility.yul\":4032:4041   */\n      dup6\n        /* \"#utility.yul\":4028:4050   */\n      add\n        /* \"#utility.yul\":3997:4060   */\n      tag_112\n      jump\t// in\n    tag_174:\n        /* \"#utility.yul\":3987:4060   */\n      swap2\n      pop\n        /* \"#utility.yul\":3783:4070   */\n      pop\n        /* \"#utility.yul\":3568:4077   */\n      swap3\n      swap2\n      pop\n      pop\n      jump\t// out\n        /* \"#utility.yul\":4083:4205   */\n    tag_113:\n        /* \"#utility.yul\":4156:4180   */\n      tag_176\n        /* \"#utility.yul\":4174:4179   */\n      dup2\n        /* \"#utility.yul\":4156:4180   */\n      tag_98\n      jump\t// in\n    tag_176:\n        /* \"#utility.yul\":4149:4154   */\n      dup2\n        /* \"#utility.yul\":4146:4181   */\n      eq\n        /* \"#utility.yul\":4136:4199   */\n      tag_177\n      jumpi\n        /* \"#utility.yul\":4195:4196   */\n      0x00\n        /* \"#utility.yul\":4192:4193   */\n      0x00\n        /* \"#utility.yul\":4185:4197   */\n      revert\n        /* \"#utility.yul\":4136:4199   */\n    tag_177:\n        /* \"#utility.yul\":4083:4205   */\n      pop\n      jump\t// out\n        /* \"#utility.yul\":4211:4350   */\n    tag_114:\n        /* \"#utility.yul\":4257:4262   */\n      0x00\n        /* \"#utility.yul\":4295:4301   */\n      dup2\n        /* \"#utility.yul\":4282:4302   */\n      calldataload\n        /* \"#utility.yul\":4273:4302   */\n      swap1\n      pop\n        /* \"#utility.yul\":4311:4344   */\n      tag_179\n        /* \"#utility.yul\":4338:4343   */\n      dup2\n        /* \"#utility.yul\":4311:4344   */\n      tag_113\n      jump\t// in\n    tag_179:\n        /* \"#utility.yul\":4211:4350   */\n      swap3\n      swap2\n      pop\n      pop\n      jump\t// out\n        /* \"#utility.yul\":4356:4685   */\n    tag_40:\n        /* \"#utility.yul\":4415:4421   */\n      0x00\n        /* \"#utility.yul\":4464:4466   */\n      0x20\n        /* \"#utility.yul\":4452:4461   */\n      dup3\n        /* \"#utility.yul\":4443:4450   */\n      dup5\n        /* \"#utility.yul\":4439:4462   */\n      sub\n        /* \"#utility.yul\":4435:4467   */\n      slt\n        /* \"#utility.yul\":4432:4551   */\n      iszero\n      tag_181\n      jumpi\n        /* \"#utility.yul\":4470:4549   */\n      tag_182\n      tag_101\n      jump\t// in\n    tag_182:\n        /* \"#utility.yul\":4432:4551   */\n    tag_181:\n        /* \"#utility.yul\":4590:4591   */\n      0x00\n        /* \"#utility.yul\":4615:4668   */\n      tag_183\n        /* \"#utility.yul\":4660:4667   */\n      dup5\n        /* \"#utility.yul\":4651:4657   */\n      dup3\n        /* \"#utility.yul\":4640:4649   */\n      dup6\n        /* \"#utility.yul\":4636:4658   */\n      add\n        /* \"#utility.yul\":4615:4668   */\n      tag_114\n      jump\t// in\n    tag_183:\n        /* \"#utility.yul\":4605:4668   */\n      swap2\n      pop\n        /* \"#utility.yul\":4561:4678   */\n      pop\n        /* \"#utility.yul\":4356:4685   */\n      swap3\n      swap2\n      pop\n      pop\n      jump\t// out\n        /* \"#utility.yul\":4691:4768   */\n    tag_115:\n        /* \"#utility.yul\":4728:4735   */\n      0x00\n        /* \"#utility.yul\":4757:4762   */\n      dup2\n        /* \"#utility.yul\":4746:4762   */\n      swap1\n      pop\n        /* \"#utility.yul\":4691:4768   */\n      swap2\n      swap1\n      pop\n      jump\t// out\n        /* \"#utility.yul\":4774:4892   */\n    tag_116:\n        /* \"#utility.yul\":4861:4885   */\n      tag_186\n        /* \"#utility.yul\":4879:4884   */\n      dup2\n        /* \"#utility.yul\":4861:4885   */\n      tag_115\n      jump\t// in\n    tag_186:\n        /* \"#utility.yul\":4856:4859   */\n      dup3\n        /* \"#utility.yul\":4849:4886   */\n      mstore\n        /* \"#utility.yul\":4774:4892   */\n      pop\n      pop\n      jump\t// out\n        /* \"#utility.yul\":4898:5120   */\n    tag_43:\n        /* \"#utility.yul\":4991:4995   */\n      0x00\n        /* \"#utility.yul\":5029:5031   */\n      0x20\n        /* \"#utility.yul\":5018:5027   */\n      dup3\n        /* \"#utility.yul\":5014:5032   */\n      add\n        /* \"#utility.yul\":5006:5032   */\n      swap1\n      pop\n        /* \"#utility.yul\":5042:5113   */\n      tag_188\n        /* \"#utility.yul\":5110:5111   */\n      0x00\n        /* \"#utility.yul\":5099:5108   */\n      dup4\n        /* \"#utility.yul\":5095:5112   */\n      add\n        /* \"#utility.yul\":5086:5092   */\n      dup5\n        /* \"#utility.yul\":5042:5113   */\n      tag_116\n      jump\t// in\n    tag_188:\n        /* \"#utility.yul\":4898:5120   */\n      swap3\n      swap2\n      pop\n      pop\n      jump\t// out\n        /* \"#utility.yul\":5126:5216   */\n    tag_117:\n        /* \"#utility.yul\":5160:5167   */\n      0x00\n        /* \"#utility.yul\":5203:5208   */\n      dup2\n        /* \"#utility.yul\":5196:5209   */\n      iszero\n        /* \"#utility.yul\":5189:5210   */\n      iszero\n        /* \"#utility.yul\":5178:5210   */\n      swap1\n      pop\n        /* \"#utility.yul\":5126:5216   */\n      swap2\n      swap1\n      pop\n      jump\t// out\n        /* \"#utility.yul\":5222:5331   */\n    tag_118:\n        /* \"#utility.yul\":5303:5324   */\n      tag_191\n        /* \"#utility.yul\":5318:5323   */\n      dup2\n        /* \"#utility.yul\":5303:5324   */\n      tag_117\n      jump\t// in\n    tag_191:\n        /* \"#utility.yul\":5298:5301   */\n      dup3\n        /* \"#utility.yul\":5291:5325   */\n      mstore\n        /* \"#utility.yul\":5222:5331   */\n      pop\n      pop\n      jump\t// out\n        /* \"#utility.yul\":5337:5547   */\n    tag_50:\n        /* \"#utility.yul\":5424:5428   */\n      0x00\n        /* \"#utility.yul\":5462:5464   */\n      0x20\n        /* \"#utility.yul\":5451:5460   */\n      dup3\n        /* \"#utility.yul\":5447:5465   */\n      add\n        /* \"#utility.yul\":5439:5465   */\n      swap1\n      pop\n        /* \"#utility.yul\":5475:5540   */\n      tag_193\n        /* \"#utility.yul\":5537:5538   */\n      0x00\n        /* \"#utility.yul\":5526:5535   */\n      dup4\n        /* \"#utility.yul\":5522:5539   */\n      add\n        /* \"#utility.yul\":5513:5519   */\n      dup5\n        /* \"#utility.yul\":5475:5540   */\n      tag_118\n      jump\t// in\n    tag_193:\n        /* \"#utility.yul\":5337:5547   */\n      swap3\n      swap2\n      pop\n      pop\n      jump\t// out\n        /* \"#utility.yul\":5553:5673   */\n    tag_119:\n        /* \"#utility.yul\":5625:5648   */\n      tag_195\n        /* \"#utility.yul\":5642:5647   */\n      dup2\n        /* \"#utility.yul\":5625:5648   */\n      tag_95\n      jump\t// in\n    tag_195:\n        /* \"#utility.yul\":5618:5623   */\n      dup2\n        /* \"#utility.yul\":5615:5649   */\n      eq\n        /* \"#utility.yul\":5605:5667   */\n      tag_196\n      jumpi\n        /* \"#utility.yul\":5663:5664   */\n      0x00\n        /* \"#utility.yul\":5660:5661   */\n      0x00\n        /* \"#utility.yul\":5653:5665   */\n      revert\n        /* \"#utility.yul\":5605:5667   */\n    tag_196:\n        /* \"#utility.yul\":5553:5673   */\n      pop\n      jump\t// out\n        /* \"#utility.yul\":5679:5816   */\n    tag_120:\n        /* \"#utility.yul\":5724:5729   */\n      0x00\n        /* \"#utility.yul\":5762:5768   */\n      dup2\n        /* \"#utility.yul\":5749:5769   */\n      calldataload\n        /* \"#utility.yul\":5740:5769   */\n      swap1\n      pop\n        /* \"#utility.yul\":5778:5810   */\n      tag_198\n        /* \"#utility.yul\":5804:5809   */\n      dup2\n        /* \"#utility.yul\":5778:5810   */\n      tag_119\n      jump\t// in\n    tag_198:\n        /* \"#utility.yul\":5679:5816   */\n      swap3\n      swap2\n      pop\n      pop\n      jump\t// out\n        /* \"#utility.yul\":5822:6149   */\n    tag_56:\n        /* \"#utility.yul\":5880:5886   */\n      0x00\n        /* \"#utility.yul\":5929:5931   */\n      0x20\n        /* \"#utility.yul\":5917:5926   */\n      dup3\n        /* \"#utility.yul\":5908:5915   */\n      dup5\n        /* \"#utility.yul\":5904:5927   */\n      sub\n        /* \"#utility.yul\":5900:5932   */\n      slt\n        /* \"#utility.yul\":5897:6016   */\n      iszero\n      tag_200\n      jumpi\n        /* \"#utility.yul\":5935:6014   */\n      tag_201\n      tag_101\n      jump\t// in\n    tag_201:\n        /* \"#utility.yul\":5897:6016   */\n    tag_200:\n        /* \"#utility.yul\":6055:6056   */\n      0x00\n        /* \"#utility.yul\":6080:6132   */\n      tag_202\n        /* \"#utility.yul\":6124:6131   */\n      dup5\n        /* \"#utility.yul\":6115:6121   */\n      dup3\n        /* \"#utility.yul\":6104:6113   */\n      dup6\n        /* \"#utility.yul\":6100:6122   */\n      add\n        /* \"#utility.yul\":6080:6132   */\n      tag_120\n      jump\t// in\n    tag_202:\n        /* \"#utility.yul\":6070:6132   */\n      swap2\n      pop\n        /* \"#utility.yul\":6026:6142   */\n      pop\n        /* \"#utility.yul\":5822:6149   */\n      swap3\n      swap2\n      pop\n      pop\n      jump\t// out\n        /* \"#utility.yul\":6155:6254   */\n    tag_121:\n        /* \"#utility.yul\":6207:6213   */\n      0x00\n        /* \"#utility.yul\":6241:6246   */\n      dup2\n        /* \"#utility.yul\":6235:6247   */\n      mload\n        /* \"#utility.yul\":6225:6247   */\n      swap1\n      pop\n        /* \"#utility.yul\":6155:6254   */\n      swap2\n      swap1\n      pop\n      jump\t// out\n        /* \"#utility.yul\":6260:6429   */\n    tag_122:\n        /* \"#utility.yul\":6344:6355   */\n      0x00\n        /* \"#utility.yul\":6378:6384   */\n      dup3\n        /* \"#utility.yul\":6373:6376   */\n      dup3\n        /* \"#utility.yul\":6366:6385   */\n      mstore\n        /* \"#utility.yul\":6418:6422   */\n      0x20\n        /* \"#utility.yul\":6413:6416   */\n      dup3\n        /* \"#utility.yul\":6409:6423   */\n      add\n        /* \"#utility.yul\":6394:6423   */\n      swap1\n      pop\n        /* \"#utility.yul\":6260:6429   */\n      swap3\n      swap2\n      pop\n      pop\n      jump\t// out\n        /* \"#utility.yul\":6435:6574   */\n    tag_123:\n        /* \"#utility.yul\":6524:6530   */\n      dup3\n        /* \"#utility.yul\":6519:6522   */\n      dup2\n        /* \"#utility.yul\":6514:6517   */\n      dup4\n        /* \"#utility.yul\":6508:6531   */\n      mcopy\n        /* \"#utility.yul\":6565:6566   */\n      0x00\n        /* \"#utility.yul\":6556:6562   */\n      dup4\n        /* \"#utility.yul\":6551:6554   */\n      dup4\n        /* \"#utility.yul\":6547:6563   */\n      add\n        /* \"#utility.yul\":6540:6567   */\n      mstore\n        /* \"#utility.yul\":6435:6574   */\n      pop\n      pop\n      pop\n      jump\t// out\n        /* \"#utility.yul\":6580:6957   */\n    tag_124:\n        /* \"#utility.yul\":6668:6671   */\n      0x00\n        /* \"#utility.yul\":6696:6735   */\n      tag_207\n        /* \"#utility.yul\":6729:6734   */\n      dup3\n        /* \"#utility.yul\":6696:6735   */\n      tag_121\n      jump\t// in\n    tag_207:\n        /* \"#utility.yul\":6751:6822   */\n      tag_208\n        /* \"#utility.yul\":6815:6821   */\n      dup2\n        /* \"#utility.yul\":6810:6813   */\n      dup6\n        /* \"#utility.yul\":6751:6822   */\n      tag_122\n      jump\t// in\n    tag_208:\n        /* \"#utility.yul\":6744:6822   */\n      swap4\n      pop\n        /* \"#utility.yul\":6831:6896   */\n      tag_209\n        /* \"#utility.yul\":6889:6895   */\n      dup2\n        /* \"#utility.yul\":6884:6887   */\n      dup6\n        /* \"#utility.yul\":6877:6881   */\n      0x20\n        /* \"#utility.yul\":6870:6875   */\n      dup7\n        /* \"#utility.yul\":6866:6882   */\n      add\n        /* \"#utility.yul\":6831:6896   */\n      tag_123\n      jump\t// in\n    tag_209:\n        /* \"#utility.yul\":6921:6950   */\n      tag_210\n        /* \"#utility.yul\":6943:6949   */\n      dup2\n        /* \"#utility.yul\":6921:6950   */\n      tag_105\n      jump\t// in\n    tag_210:\n        /* \"#utility.yul\":6916:6919   */\n      dup5\n        /* \"#utility.yul\":6912:6951   */\n      add\n        /* \"#utility.yul\":6905:6951   */\n      swap2\n      pop\n        /* \"#utility.yul\":6672:6957   */\n      pop\n        /* \"#utility.yul\":6580:6957   */\n      swap3\n      swap2\n      pop\n      pop\n      jump\t// out\n        /* \"#utility.yul\":6963:7276   */\n    tag_62:\n        /* \"#utility.yul\":7076:7080   */\n      0x00\n        /* \"#utility.yul\":7114:7116   */\n      0x20\n        /* \"#utility.yul\":7103:7112   */\n      dup3\n        /* \"#utility.yul\":7099:7117   */\n      add\n        /* \"#utility.yul\":7091:7117   */\n      swap1\n      pop\n        /* \"#utility.yul\":7163:7172   */\n      dup2\n        /* \"#utility.yul\":7157:7161   */\n      dup2\n        /* \"#utility.yul\":7153:7173   */\n      sub\n        /* \"#utility.yul\":7149:7150   */\n      0x00\n        /* \"#utility.yul\":7138:7147   */\n      dup4\n        /* \"#utility.yul\":7134:7151   */\n      add\n        /* \"#utility.yul\":7127:7174   */\n      mstore\n        /* \"#utility.yul\":7191:7269   */\n      tag_212\n        /* \"#utility.yul\":7264:7268   */\n      dup2\n        /* \"#utility.yul\":7255:7261   */\n      dup5\n        /* \"#utility.yul\":7191:7269   */\n      tag_124\n      jump\t// in\n    tag_212:\n        /* \"#utility.yul\":7183:7269   */\n      swap1\n      pop\n        /* \"#utility.yul\":6963:7276   */\n      swap3\n      swap2\n      pop\n      pop\n      jump\t// out\n        /* \"#utility.yul\":7282:7462   */\n    tag_125:\n        /* \"#utility.yul\":7330:7407   */\n      0x4e487b7100000000000000000000000000000000000000000000000000000000\n        /* \"#utility.yul\":7327:7328   */\n      0x00\n        /* \"#utility.yul\":7320:7408   */\n      mstore\n        /* \"#utility.yul\":7427:7431   */\n      0x11\n        /* \"#utility.yul\":7424:7425   */\n      0x04\n        /* \"#utility.yul\":7417:7432   */\n      mstore\n        /* \"#utility.yul\":7451:7455   */\n      0x24\n        /* \"#utility.yul\":7448:7449   */\n      0x00\n        /* \"#utility.yul\":7441:7456   */\n      revert\n        /* \"#utility.yul\":7468:8024   */\n    tag_78:\n        /* \"#utility.yul\":7507:7514   */\n      0x00\n        /* \"#utility.yul\":7530:7549   */\n      tag_215\n        /* \"#utility.yul\":7547:7548   */\n      dup3\n        /* \"#utility.yul\":7530:7549   */\n      tag_95\n      jump\t// in\n    tag_215:\n        /* \"#utility.yul\":7525:7549   */\n      swap2\n      pop\n        /* \"#utility.yul\":7563:7582   */\n      tag_216\n        /* \"#utility.yul\":7580:7581   */\n      dup4\n        /* \"#utility.yul\":7563:7582   */\n      tag_95\n      jump\t// in\n    tag_216:\n        /* \"#utility.yul\":7558:7582   */\n      swap3\n      pop\n        /* \"#utility.yul\":7617:7618   */\n      dup3\n        /* \"#utility.yul\":7614:7615   */\n      dup3\n        /* \"#utility.yul\":7610:7619   */\n      mul\n        /* \"#utility.yul\":7639:7668   */\n      tag_217\n        /* \"#utility.yul\":7656:7667   */\n      dup2\n        /* \"#utility.yul\":7639:7668   */\n      tag_95\n      jump\t// in\n    tag_217:\n        /* \"#utility.yul\":7628:7668   */\n      swap2\n      pop\n        /* \"#utility.yul\":7726:7792   */\n      0x8000000000000000000000000000000000000000000000000000000000000000\n        /* \"#utility.yul\":7723:7724   */\n      dup5\n        /* \"#utility.yul\":7720:7793   */\n      eq\n        /* \"#utility.yul\":7716:7717   */\n      0x00\n        /* \"#utility.yul\":7713:7714   */\n      dup5\n        /* \"#utility.yul\":7709:7718   */\n      slt\n        /* \"#utility.yul\":7705:7794   */\n      and\n        /* \"#utility.yul\":7702:7817   */\n      iszero\n      tag_218\n      jumpi\n        /* \"#utility.yul\":7797:7815   */\n      tag_219\n      tag_125\n      jump\t// in\n    tag_219:\n        /* \"#utility.yul\":7702:7817   */\n    tag_218:\n        /* \"#utility.yul\":7967:7968   */\n      dup3\n        /* \"#utility.yul\":7958:7965   */\n      dup3\n        /* \"#utility.yul\":7953:7969   */\n      sdiv\n        /* \"#utility.yul\":7950:7951   */\n      dup5\n        /* \"#utility.yul\":7947:7970   */\n      eq\n        /* \"#utility.yul\":7927:7928   */\n      dup4\n        /* \"#utility.yul\":7920:7929   */\n      iszero\n        /* \"#utility.yul\":7900:7984   */\n      or\n        /* \"#utility.yul\":7877:8017   */\n      tag_220\n      jumpi\n        /* \"#utility.yul\":7997:8015   */\n      tag_221\n      tag_125\n      jump\t// in\n    tag_221:\n        /* \"#utility.yul\":7877:8017   */\n    tag_220:\n        /* \"#utility.yul\":7515:8024   */\n      pop\n        /* \"#utility.yul\":7468:8024   */\n      swap3\n      swap2\n      pop\n      pop\n      jump\t// out\n        /* \"#utility.yul\":8030:8210   */\n    tag_126:\n        /* \"#utility.yul\":8078:8155   */\n      0x4e487b7100000000000000000000000000000000000000000000000000000000\n        /* \"#utility.yul\":8075:8076   */\n      0x00\n        /* \"#utility.yul\":8068:8156   */\n      mstore\n        /* \"#utility.yul\":8175:8179   */\n      0x22\n        /* \"#utility.yul\":8172:8173   */\n      0x04\n        /* \"#utility.yul\":8165:8180   */\n      mstore\n        /* \"#utility.yul\":8199:8203   */\n      0x24\n        /* \"#utility.yul\":8196:8197   */\n      0x00\n        /* \"#utility.yul\":8189:8204   */\n      revert\n        /* \"#utility.yul\":8216:8536   */\n    tag_80:\n        /* \"#utility.yul\":8260:8266   */\n      0x00\n        /* \"#utility.yul\":8297:8298   */\n      0x02\n        /* \"#utility.yul\":8291:8295   */\n      dup3\n        /* \"#utility.yul\":8287:8299   */\n      div\n        /* \"#utility.yul\":8277:8299   */\n      swap1\n      pop\n        /* \"#utility.yul\":8344:8345   */\n      0x01\n        /* \"#utility.yul\":8338:8342   */\n      dup3\n        /* \"#utility.yul\":8334:8346   */\n      and\n        /* \"#utility.yul\":8365:8383   */\n      dup1\n        /* \"#utility.yul\":8355:8436   */\n      tag_224\n      jumpi\n        /* \"#utility.yul\":8421:8425   */\n      0x7f\n        /* \"#utility.yul\":8413:8419   */\n      dup3\n        /* \"#utility.yul\":8409:8426   */\n      and\n        /* \"#utility.yul\":8399:8426   */\n      swap2\n      pop\n        /* \"#utility.yul\":8355:8436   */\n    tag_224:\n        /* \"#utility.yul\":8483:8485   */\n      0x20\n        /* \"#utility.yul\":8475:8481   */\n      dup3\n        /* \"#utility.yul\":8472:8486   */\n      lt\n        /* \"#utility.yul\":8452:8470   */\n      dup2\n        /* \"#utility.yul\":8449:8487   */\n      sub\n        /* \"#utility.yul\":8446:8530   */\n      tag_225\n      jumpi\n        /* \"#utility.yul\":8502:8520   */\n      tag_226\n      tag_126\n      jump\t// in\n    tag_226:\n        /* \"#utility.yul\":8446:8530   */\n    tag_225:\n        /* \"#utility.yul\":8267:8536   */\n      pop\n        /* \"#utility.yul\":8216:8536   */\n      swap2\n      swap1\n      pop\n      jump\t// out\n        /* \"#utility.yul\":8542:8773   */\n    tag_87:\n        /* \"#utility.yul\":8580:8583   */\n      0x00\n        /* \"#utility.yul\":8603:8626   */\n      tag_228\n        /* \"#utility.yul\":8620:8625   */\n      dup3\n        /* \"#utility.yul\":8603:8626   */\n      tag_95\n      jump\t// in\n    tag_228:\n        /* \"#utility.yul\":8594:8626   */\n      swap2\n      pop\n        /* \"#utility.yul\":8648:8714   */\n      0x7fffffffffffffffffffffffffffffffffffffffffffffffffffffffffffffff\n        /* \"#utility.yul\":8641:8646   */\n      dup3\n        /* \"#utility.yul\":8638:8715   */\n      sub\n        /* \"#utility.yul\":8635:8738   */\n      tag_229\n      jumpi\n        /* \"#utility.yul\":8718:8736   */\n      tag_230\n      tag_125\n      jump\t// in\n    tag_230:\n        /* \"#utility.yul\":8635:8738   */\n    tag_229:\n        /* \"#utility.yul\":8765:8766   */\n      0x01\n        /* \"#utility.yul\":8758:8763   */\n      dup3\n        /* \"#utility.yul\":8754:8767   */\n      add\n        /* \"#utility.yul\":8747:8767   */\n      swap1\n      pop\n        /* \"#utility.yul\":8542:8773   */\n      swap2\n      swap1\n      pop\n      jump\t// out\n\n    auxdata: 0xa2646970667358221220fb6db4ea9b535be2c8f3d4d904dcf737df4f1ee30d9008e1cdf6f6cd894d434b64736f6c63430008230033\n}\n",
				"bytecode": {
					"linkReferences": {},
					"object": "60806040526040518060400160405280600581526020017f4d697368610000000000000000000000000000000000000000000000000000008152506001908161004891906102e7565b50348015610054575f5ffd5b50335f5f6101000a81548173ffffffffffffffffffffffffffffffffffffffff021916908373ffffffffffffffffffffffffffffffffffffffff1602179055506103b6565b5f81519050919050565b7f4e487b71000000000000000000000000000000000000000000000000000000005f52604160045260245ffd5b7f4e487b71000000000000000000000000000000000000000000000000000000005f52602260045260245ffd5b5f600282049050600182168061011457607f821691505b602082108103610127576101266100d0565b5b50919050565b5f819050815f5260205f209050919050565b5f6020601f8301049050919050565b5f82821b905092915050565b5f600883026101897fffffffffffffffffffffffffffffffffffffffffffffffffffffffffffffffff8261014e565b610193868361014e565b95508019841693508086168417925050509392505050565b5f819050919050565b5f819050919050565b5f6101d76101d26101cd846101ab565b6101b4565b6101ab565b9050919050565b5f819050919050565b6101f0836101bd565b6102046101fc826101de565b84845461015a565b825550505050565b5f5f905090565b61021b61020c565b6102268184846101e7565b505050565b5f5b8281101561024c576102415f828401610213565b60018101905061022d565b505050565b601f82111561029f578282111561029e5761026b8161012d565b6102748361013f565b61027d8561013f565b602086101561028a575f90505b8083016102998284038261022b565b505050505b5b505050565b5f82821c905092915050565b5f6102bf5f19846008026102a4565b1980831691505092915050565b5f6102d783836102b0565b9150826002028217905092915050565b6102f082610099565b67ffffffffffffffff811115610309576103086100a3565b5b61031382546100fd565b61031e828285610251565b5f60209050601f83116001811461034f575f841561033d578287015190505b61034785826102cc565b8655506103ae565b601f19841661035d8661012d565b5f5b828110156103845784890151825560018201915060208501945060208101905061035f565b868310156103a1578489015161039d601f8916826102b0565b8355505b6001600288020188555050505b505050505050565b6109fd806103c35f395ff3fe608060405234801561000f575f5ffd5b50600436106100f3575f3560e01c806380e8d62611610095578063b182b08311610064578063b182b0831461024f578063b774884a14610259578063c5b0cb3b14610263578063df02163b14610281576100f3565b806380e8d626146101c55780638381f58a146101e357806388e7cc0814610201578063a830e15f14610231576100f3565b8063699450e8116100d1578063699450e8146101295780636c5f5966146101475780636d76b9261461017757806375c7fef7146101a7576100f3565b80630f91d842146100f7578063497c69b114610115578063592120641461011f575b5f5ffd5b6100ff6102b1565b60405161010c91906104ed565b60405180910390f35b61011d6102b7565b005b6101276102b9565b005b6101316102d4565b60405161013e9190610545565b60405180910390f35b610161600480360381019061015c91906106ab565b6102f8565b60405161016e91906104ed565b60405180910390f35b610191600480360381019061018c919061071c565b610325565b60405161019e919061075f565b60405180910390f35b6101af61033a565b6040516101bc91906104ed565b60405180910390f35b6101cd610340565b6040516101da9190610792565b60405180910390f35b6101eb610352565b6040516101f891906104ed565b60405180910390f35b61021b600480360381019061021691906107d5565b610358565b60405161022891906104ed565b60405180910390f35b610239610376565b6040516102469190610860565b60405180910390f35b610257610402565b005b61026161041b565b005b61026b610437565b6040516102789190610860565b60405180910390f35b61029b600480360381019061029691906107d5565b6104c3565b6040516102a891906104ed565b60405180910390f35b60055481565b565b5f60065f6101000a81548160ff021916908315150217905550565b5f5f9054906101000a900473ffffffffffffffffffffffffffffffffffffffff1681565b6008818051602081018201805184825260208301602085012081835280955050505050505f915090505481565b6002602052805f5260405f205f915090505481565b60035481565b60065f9054906101000a900460ff1681565b60045481565b5f60028261036691906108ad565b6004819055506004549050919050565b6001805461038390610950565b80601f01602080910402602001604051908101604052809291908181526020018280546103af90610950565b80156103fa5780601f106103d1576101008083540402835291602001916103fa565b820191905f5260205f20905b8154815290600101906020018083116103dd57829003601f168201915b505050505081565b60055f81548092919061041490610980565b9190505550565b600160065f6101000a81548160ff021916908315150217905550565b6007805461044490610950565b80601f016020809104026020016040519081016040528092919081815260200182805461047090610950565b80156104bb5780601f10610492576101008083540402835291602001916104bb565b820191905f5260205f20905b81548152906001019060200180831161049e57829003601f168201915b505050505081565b5f816003819055506003549050919050565b5f819050919050565b6104e7816104d5565b82525050565b5f6020820190506105005f8301846104de565b92915050565b5f73ffffffffffffffffffffffffffffffffffffffff82169050919050565b5f61052f82610506565b9050919050565b61053f81610525565b82525050565b5f6020820190506105585f830184610536565b92915050565b5f604051905090565b5f5ffd5b5f5ffd5b5f5ffd5b5f5ffd5b5f601f19601f8301169050919050565b7f4e487b71000000000000000000000000000000000000000000000000000000005f52604160045260245ffd5b6105bd82610577565b810181811067ffffffffffffffff821117156105dc576105db610587565b5b80604052505050565b5f6105ee61055e565b90506105fa82826105b4565b919050565b5f67ffffffffffffffff82111561061957610618610587565b5b61062282610577565b9050602081019050919050565b828183375f83830152505050565b5f61064f61064a846105ff565b6105e5565b90508281526020810184848401111561066b5761066a610573565b5b61067684828561062f565b509392505050565b5f82601f8301126106925761069161056f565b5b81356106a284826020860161063d565b91505092915050565b5f602082840312156106c0576106bf610567565b5b5f82013567ffffffffffffffff8111156106dd576106dc61056b565b5b6106e98482850161067e565b91505092915050565b6106fb81610525565b8114610705575f5ffd5b50565b5f81359050610716816106f2565b92915050565b5f6020828403121561073157610730610567565b5b5f61073e84828501610708565b91505092915050565b5f819050919050565b61075981610747565b82525050565b5f6020820190506107725f830184610750565b92915050565b5f8115159050919050565b61078c81610778565b82525050565b5f6020820190506107a55f830184610783565b92915050565b6107b4816104d5565b81146107be575f5ffd5b50565b5f813590506107cf816107ab565b92915050565b5f602082840312156107ea576107e9610567565b5b5f6107f7848285016107c1565b91505092915050565b5f81519050919050565b5f82825260208201905092915050565b8281835e5f83830152505050565b5f61083282610800565b61083c818561080a565b935061084c81856020860161081a565b61085581610577565b840191505092915050565b5f6020820190508181035f8301526108788184610828565b905092915050565b7f4e487b71000000000000000000000000000000000000000000000000000000005f52601160045260245ffd5b5f6108b7826104d5565b91506108c2836104d5565b92508282026108d0816104d5565b91507f800000000000000000000000000000000000000000000000000000000000000084145f8412161561090757610906610880565b5b828205841483151761091c5761091b610880565b5b5092915050565b7f4e487b71000000000000000000000000000000000000000000000000000000005f52602260045260245ffd5b5f600282049050600182168061096757607f821691505b60208210810361097a57610979610923565b5b50919050565b5f61098a826104d5565b91507f7fffffffffffffffffffffffffffffffffffffffffffffffffffffffffffffff82036109bc576109bb610880565b5b60018201905091905056fea2646970667358221220fb6db4ea9b535be2c8f3d4d904dcf737df4f1ee30d9008e1cdf6f6cd894d434b64736f6c63430008230033",
					"opcodes": "PUSH1 0x80 PUSH1 0x40 MSTORE PUSH1 0x40 MLOAD DUP1 PUSH1 0x40 ADD PUSH1 0x40 MSTORE DUP1 PUSH1 0x5 DUP2 MSTORE PUSH1 0x20 ADD PUSH32 0x4D69736861000000000000000000000000000000000000000000000000000000 DUP2 MSTORE POP PUSH1 0x1 SWAP1 DUP2 PUSH2 0x48 SWAP2 SWAP1 PUSH2 0x2E7 JUMP JUMPDEST POP CALLVALUE DUP1 ISZERO PUSH2 0x54 JUMPI PUSH0 PUSH0 REVERT JUMPDEST POP CALLER PUSH0 PUSH0 PUSH2 0x100 EXP DUP2 SLOAD DUP2 PUSH20 0xFFFFFFFFFFFFFFFFFFFFFFFFFFFFFFFFFFFFFFFF MUL NOT AND SWAP1 DUP4 PUSH20 0xFFFFFFFFFFFFFFFFFFFFFFFFFFFFFFFFFFFFFFFF AND MUL OR SWAP1 SSTORE POP PUSH2 0x3B6 JUMP JUMPDEST PUSH0 DUP2 MLOAD SWAP1 POP SWAP2 SWAP1 POP JUMP JUMPDEST PUSH32 0x4E487B7100000000000000000000000000000000000000000000000000000000 PUSH0 MSTORE PUSH1 0x41 PUSH1 0x4 MSTORE PUSH1 0x24 PUSH0 REVERT JUMPDEST PUSH32 0x4E487B7100000000000000000000000000000000000000000000000000000000 PUSH0 MSTORE PUSH1 0x22 PUSH1 0x4 MSTORE PUSH1 0x24 PUSH0 REVERT JUMPDEST PUSH0 PUSH1 0x2 DUP3 DIV SWAP1 POP PUSH1 0x1 DUP3 AND DUP1 PUSH2 0x114 JUMPI PUSH1 0x7F DUP3 AND SWAP2 POP JUMPDEST PUSH1 0x20 DUP3 LT DUP2 SUB PUSH2 0x127 JUMPI PUSH2 0x126 PUSH2 0xD0 JUMP JUMPDEST JUMPDEST POP SWAP2 SWAP1 POP JUMP JUMPDEST PUSH0 DUP2 SWAP1 POP DUP2 PUSH0 MSTORE PUSH1 0x20 PUSH0 KECCAK256 SWAP1 POP SWAP2 SWAP1 POP JUMP JUMPDEST PUSH0 PUSH1 0x20 PUSH1 0x1F DUP4 ADD DIV SWAP1 POP SWAP2 SWAP1 POP JUMP JUMPDEST PUSH0 DUP3 DUP3 SHL SWAP1 POP SWAP3 SWAP2 POP POP JUMP JUMPDEST PUSH0 PUSH1 0x8 DUP4 MUL PUSH2 0x189 PUSH32 0xFFFFFFFFFFFFFFFFFFFFFFFFFFFFFFFFFFFFFFFFFFFFFFFFFFFFFFFFFFFFFFFF DUP3 PUSH2 0x14E JUMP JUMPDEST PUSH2 0x193 DUP7 DUP4 PUSH2 0x14E JUMP JUMPDEST SWAP6 POP DUP1 NOT DUP5 AND SWAP4 POP DUP1 DUP7 AND DUP5 OR SWAP3 POP POP POP SWAP4 SWAP3 POP POP POP JUMP JUMPDEST PUSH0 DUP2 SWAP1 POP SWAP2 SWAP1 POP JUMP JUMPDEST PUSH0 DUP2 SWAP1 POP SWAP2 SWAP1 POP JUMP JUMPDEST PUSH0 PUSH2 0x1D7 PUSH2 0x1D2 PUSH2 0x1CD DUP5 PUSH2 0x1AB JUMP JUMPDEST PUSH2 0x1B4 JUMP JUMPDEST PUSH2 0x1AB JUMP JUMPDEST SWAP1 POP SWAP2 SWAP1 POP JUMP JUMPDEST PUSH0 DUP2 SWAP1 POP SWAP2 SWAP1 POP JUMP JUMPDEST PUSH2 0x1F0 DUP4 PUSH2 0x1BD JUMP JUMPDEST PUSH2 0x204 PUSH2 0x1FC DUP3 PUSH2 0x1DE JUMP JUMPDEST DUP5 DUP5 SLOAD PUSH2 0x15A JUMP JUMPDEST DUP3 SSTORE POP POP POP POP JUMP JUMPDEST PUSH0 PUSH0 SWAP1 POP SWAP1 JUMP JUMPDEST PUSH2 0x21B PUSH2 0x20C JUMP JUMPDEST PUSH2 0x226 DUP2 DUP5 DUP5 PUSH2 0x1E7 JUMP JUMPDEST POP POP POP JUMP JUMPDEST PUSH0 JUMPDEST DUP3 DUP2 LT ISZERO PUSH2 0x24C JUMPI PUSH2 0x241 PUSH0 DUP3 DUP5 ADD PUSH2 0x213 JUMP JUMPDEST PUSH1 0x1 DUP2 ADD SWAP1 POP PUSH2 0x22D JUMP JUMPDEST POP POP POP JUMP JUMPDEST PUSH1 0x1F DUP3 GT ISZERO PUSH2 0x29F JUMPI DUP3 DUP3 GT ISZERO PUSH2 0x29E JUMPI PUSH2 0x26B DUP2 PUSH2 0x12D JUMP JUMPDEST PUSH2 0x274 DUP4 PUSH2 0x13F JUMP JUMPDEST PUSH2 0x27D DUP6 PUSH2 0x13F JUMP JUMPDEST PUSH1 0x20 DUP7 LT ISZERO PUSH2 0x28A JUMPI PUSH0 SWAP1 POP JUMPDEST DUP1 DUP4 ADD PUSH2 0x299 DUP3 DUP5 SUB DUP3 PUSH2 0x22B JUMP JUMPDEST POP POP POP POP JUMPDEST JUMPDEST POP POP POP JUMP JUMPDEST PUSH0 DUP3 DUP3 SHR SWAP1 POP SWAP3 SWAP2 POP POP JUMP JUMPDEST PUSH0 PUSH2 0x2BF PUSH0 NOT DUP5 PUSH1 0x8 MUL PUSH2 0x2A4 JUMP JUMPDEST NOT DUP1 DUP4 AND SWAP2 POP POP SWAP3 SWAP2 POP POP JUMP JUMPDEST PUSH0 PUSH2 0x2D7 DUP4 DUP4 PUSH2 0x2B0 JUMP JUMPDEST SWAP2 POP DUP3 PUSH1 0x2 MUL DUP3 OR SWAP1 POP SWAP3 SWAP2 POP POP JUMP JUMPDEST PUSH2 0x2F0 DUP3 PUSH2 0x99 JUMP JUMPDEST PUSH8 0xFFFFFFFFFFFFFFFF DUP2 GT ISZERO PUSH2 0x309 JUMPI PUSH2 0x308 PUSH2 0xA3 JUMP JUMPDEST JUMPDEST PUSH2 0x313 DUP3 SLOAD PUSH2 0xFD JUMP JUMPDEST PUSH2 0x31E DUP3 DUP3 DUP6 PUSH2 0x251 JUMP JUMPDEST PUSH0 PUSH1 0x20 SWAP1 POP PUSH1 0x1F DUP4 GT PUSH1 0x1 DUP2 EQ PUSH2 0x34F JUMPI PUSH0 DUP5 ISZERO PUSH2 0x33D JUMPI DUP3 DUP8 ADD MLOAD SWAP1 POP JUMPDEST PUSH2 0x347 DUP6 DUP3 PUSH2 0x2CC JUMP JUMPDEST DUP7 SSTORE POP PUSH2 0x3AE JUMP JUMPDEST PUSH1 0x1F NOT DUP5 AND PUSH2 0x35D DUP7 PUSH2 0x12D JUMP JUMPDEST PUSH0 JUMPDEST DUP3 DUP2 LT ISZERO PUSH2 0x384 JUMPI DUP5 DUP10 ADD MLOAD DUP3 SSTORE PUSH1 0x1 DUP3 ADD SWAP2 POP PUSH1 0x20 DUP6 ADD SWAP5 POP PUSH1 0x20 DUP2 ADD SWAP1 POP PUSH2 0x35F JUMP JUMPDEST DUP7 DUP4 LT ISZERO PUSH2 0x3A1 JUMPI DUP5 DUP10 ADD MLOAD PUSH2 0x39D PUSH1 0x1F DUP10 AND DUP3 PUSH2 0x2B0 JUMP JUMPDEST DUP4 SSTORE POP JUMPDEST PUSH1 0x1 PUSH1 0x2 DUP9 MUL ADD DUP9 SSTORE POP POP POP JUMPDEST POP POP POP POP POP POP JUMP JUMPDEST PUSH2 0x9FD DUP1 PUSH2 0x3C3 PUSH0 CODECOPY PUSH0 RETURN INVALID PUSH1 0x80 PUSH1 0x40 MSTORE CALLVALUE DUP1 ISZERO PUSH2 0xF JUMPI PUSH0 PUSH0 REVERT JUMPDEST POP PUSH1 0x4 CALLDATASIZE LT PUSH2 0xF3 JUMPI PUSH0 CALLDATALOAD PUSH1 0xE0 SHR DUP1 PUSH4 0x80E8D626 GT PUSH2 0x95 JUMPI DUP1 PUSH4 0xB182B083 GT PUSH2 0x64 JUMPI DUP1 PUSH4 0xB182B083 EQ PUSH2 0x24F JUMPI DUP1 PUSH4 0xB774884A EQ PUSH2 0x259 JUMPI DUP1 PUSH4 0xC5B0CB3B EQ PUSH2 0x263 JUMPI DUP1 PUSH4 0xDF02163B EQ PUSH2 0x281 JUMPI PUSH2 0xF3 JUMP JUMPDEST DUP1 PUSH4 0x80E8D626 EQ PUSH2 0x1C5 JUMPI DUP1 PUSH4 0x8381F58A EQ PUSH2 0x1E3 JUMPI DUP1 PUSH4 0x88E7CC08 EQ PUSH2 0x201 JUMPI DUP1 PUSH4 0xA830E15F EQ PUSH2 0x231 JUMPI PUSH2 0xF3 JUMP JUMPDEST DUP1 PUSH4 0x699450E8 GT PUSH2 0xD1 JUMPI DUP1 PUSH4 0x699450E8 EQ PUSH2 0x129 JUMPI DUP1 PUSH4 0x6C5F5966 EQ PUSH2 0x147 JUMPI DUP1 PUSH4 0x6D76B926 EQ PUSH2 0x177 JUMPI DUP1 PUSH4 0x75C7FEF7 EQ PUSH2 0x1A7 JUMPI PUSH2 0xF3 JUMP JUMPDEST DUP1 PUSH4 0xF91D842 EQ PUSH2 0xF7 JUMPI DUP1 PUSH4 0x497C69B1 EQ PUSH2 0x115 JUMPI DUP1 PUSH4 0x59212064 EQ PUSH2 0x11F JUMPI JUMPDEST PUSH0 PUSH0 REVERT JUMPDEST PUSH2 0xFF PUSH2 0x2B1 JUMP JUMPDEST PUSH1 0x40 MLOAD PUSH2 0x10C SWAP2 SWAP1 PUSH2 0x4ED JUMP JUMPDEST PUSH1 0x40 MLOAD DUP1 SWAP2 SUB SWAP1 RETURN JUMPDEST PUSH2 0x11D PUSH2 0x2B7 JUMP JUMPDEST STOP JUMPDEST PUSH2 0x127 PUSH2 0x2B9 JUMP JUMPDEST STOP JUMPDEST PUSH2 0x131 PUSH2 0x2D4 JUMP JUMPDEST PUSH1 0x40 MLOAD PUSH2 0x13E SWAP2 SWAP1 PUSH2 0x545 JUMP JUMPDEST PUSH1 0x40 MLOAD DUP1 SWAP2 SUB SWAP1 RETURN JUMPDEST PUSH2 0x161 PUSH1 0x4 DUP1 CALLDATASIZE SUB DUP2 ADD SWAP1 PUSH2 0x15C SWAP2 SWAP1 PUSH2 0x6AB JUMP JUMPDEST PUSH2 0x2F8 JUMP JUMPDEST PUSH1 0x40 MLOAD PUSH2 0x16E SWAP2 SWAP1 PUSH2 0x4ED JUMP JUMPDEST PUSH1 0x40 MLOAD DUP1 SWAP2 SUB SWAP1 RETURN JUMPDEST PUSH2 0x191 PUSH1 0x4 DUP1 CALLDATASIZE SUB DUP2 ADD SWAP1 PUSH2 0x18C SWAP2 SWAP1 PUSH2 0x71C JUMP JUMPDEST PUSH2 0x325 JUMP JUMPDEST PUSH1 0x40 MLOAD PUSH2 0x19E SWAP2 SWAP1 PUSH2 0x75F JUMP JUMPDEST PUSH1 0x40 MLOAD DUP1 SWAP2 SUB SWAP1 RETURN JUMPDEST PUSH2 0x1AF PUSH2 0x33A JUMP JUMPDEST PUSH1 0x40 MLOAD PUSH2 0x1BC SWAP2 SWAP1 PUSH2 0x4ED JUMP JUMPDEST PUSH1 0x40 MLOAD DUP1 SWAP2 SUB SWAP1 RETURN JUMPDEST PUSH2 0x1CD PUSH2 0x340 JUMP JUMPDEST PUSH1 0x40 MLOAD PUSH2 0x1DA SWAP2 SWAP1 PUSH2 0x792 JUMP JUMPDEST PUSH1 0x40 MLOAD DUP1 SWAP2 SUB SWAP1 RETURN JUMPDEST PUSH2 0x1EB PUSH2 0x352 JUMP JUMPDEST PUSH1 0x40 MLOAD PUSH2 0x1F8 SWAP2 SWAP1 PUSH2 0x4ED JUMP JUMPDEST PUSH1 0x40 MLOAD DUP1 SWAP2 SUB SWAP1 RETURN JUMPDEST PUSH2 0x21B PUSH1 0x4 DUP1 CALLDATASIZE SUB DUP2 ADD SWAP1 PUSH2 0x216 SWAP2 SWAP1 PUSH2 0x7D5 JUMP JUMPDEST PUSH2 0x358 JUMP JUMPDEST PUSH1 0x40 MLOAD PUSH2 0x228 SWAP2 SWAP1 PUSH2 0x4ED JUMP JUMPDEST PUSH1 0x40 MLOAD DUP1 SWAP2 SUB SWAP1 RETURN JUMPDEST PUSH2 0x239 PUSH2 0x376 JUMP JUMPDEST PUSH1 0x40 MLOAD PUSH2 0x246 SWAP2 SWAP1 PUSH2 0x860 JUMP JUMPDEST PUSH1 0x40 MLOAD DUP1 SWAP2 SUB SWAP1 RETURN JUMPDEST PUSH2 0x257 PUSH2 0x402 JUMP JUMPDEST STOP JUMPDEST PUSH2 0x261 PUSH2 0x41B JUMP JUMPDEST STOP JUMPDEST PUSH2 0x26B PUSH2 0x437 JUMP JUMPDEST PUSH1 0x40 MLOAD PUSH2 0x278 SWAP2 SWAP1 PUSH2 0x860 JUMP JUMPDEST PUSH1 0x40 MLOAD DUP1 SWAP2 SUB SWAP1 RETURN JUMPDEST PUSH2 0x29B PUSH1 0x4 DUP1 CALLDATASIZE SUB DUP2 ADD SWAP1 PUSH2 0x296 SWAP2 SWAP1 PUSH2 0x7D5 JUMP JUMPDEST PUSH2 0x4C3 JUMP JUMPDEST PUSH1 0x40 MLOAD PUSH2 0x2A8 SWAP2 SWAP1 PUSH2 0x4ED JUMP JUMPDEST PUSH1 0x40 MLOAD DUP1 SWAP2 SUB SWAP1 RETURN JUMPDEST PUSH1 0x5 SLOAD DUP2 JUMP JUMPDEST JUMP JUMPDEST PUSH0 PUSH1 0x6 PUSH0 PUSH2 0x100 EXP DUP2 SLOAD DUP2 PUSH1 0xFF MUL NOT AND SWAP1 DUP4 ISZERO ISZERO MUL OR SWAP1 SSTORE POP JUMP JUMPDEST PUSH0 PUSH0 SWAP1 SLOAD SWAP1 PUSH2 0x100 EXP SWAP1 DIV PUSH20 0xFFFFFFFFFFFFFFFFFFFFFFFFFFFFFFFFFFFFFFFF AND DUP2 JUMP JUMPDEST PUSH1 0x8 DUP2 DUP1 MLOAD PUSH1 0x20 DUP2 ADD DUP3 ADD DUP1 MLOAD DUP5 DUP3 MSTORE PUSH1 0x20 DUP4 ADD PUSH1 0x20 DUP6 ADD KECCAK256 DUP2 DUP4 MSTORE DUP1 SWAP6 POP POP POP POP POP POP PUSH0 SWAP2 POP SWAP1 POP SLOAD DUP2 JUMP JUMPDEST PUSH1 0x2 PUSH1 0x20 MSTORE DUP1 PUSH0 MSTORE PUSH1 0x40 PUSH0 KECCAK256 PUSH0 SWAP2 POP SWAP1 POP SLOAD DUP2 JUMP JUMPDEST PUSH1 0x3 SLOAD DUP2 JUMP JUMPDEST PUSH1 0x6 PUSH0 SWAP1 SLOAD SWAP1 PUSH2 0x100 EXP SWAP1 DIV PUSH1 0xFF AND DUP2 JUMP JUMPDEST PUSH1 0x4 SLOAD DUP2 JUMP JUMPDEST PUSH0 PUSH1 0x2 DUP3 PUSH2 0x366 SWAP2 SWAP1 PUSH2 0x8AD JUMP JUMPDEST PUSH1 0x4 DUP2 SWAP1 SSTORE POP PUSH1 0x4 SLOAD SWAP1 POP SWAP2 SWAP1 POP JUMP JUMPDEST PUSH1 0x1 DUP1 SLOAD PUSH2 0x383 SWAP1 PUSH2 0x950 JUMP JUMPDEST DUP1 PUSH1 0x1F ADD PUSH1 0x20 DUP1 SWAP2 DIV MUL PUSH1 0x20 ADD PUSH1 0x40 MLOAD SWAP1 DUP2 ADD PUSH1 0x40 MSTORE DUP1 SWAP3 SWAP2 SWAP1 DUP2 DUP2 MSTORE PUSH1 0x20 ADD DUP3 DUP1 SLOAD PUSH2 0x3AF SWAP1 PUSH2 0x950 JUMP JUMPDEST DUP1 ISZERO PUSH2 0x3FA JUMPI DUP1 PUSH1 0x1F LT PUSH2 0x3D1 JUMPI PUSH2 0x100 DUP1 DUP4 SLOAD DIV MUL DUP4 MSTORE SWAP2 PUSH1 0x20 ADD SWAP2 PUSH2 0x3FA JUMP JUMPDEST DUP3 ADD SWAP2 SWAP1 PUSH0 MSTORE PUSH1 0x20 PUSH0 KECCAK256 SWAP1 JUMPDEST DUP2 SLOAD DUP2 MSTORE SWAP1 PUSH1 0x1 ADD SWAP1 PUSH1 0x20 ADD DUP1 DUP4 GT PUSH2 0x3DD JUMPI DUP3 SWAP1 SUB PUSH1 0x1F AND DUP3 ADD SWAP2 JUMPDEST POP POP POP POP POP DUP2 JUMP JUMPDEST PUSH1 0x5 PUSH0 DUP2 SLOAD DUP1 SWAP3 SWAP2 SWAP1 PUSH2 0x414 SWAP1 PUSH2 0x980 JUMP JUMPDEST SWAP2 SWAP1 POP SSTORE POP JUMP JUMPDEST PUSH1 0x1 PUSH1 0x6 PUSH0 PUSH2 0x100 EXP DUP2 SLOAD DUP2 PUSH1 0xFF MUL NOT AND SWAP1 DUP4 ISZERO ISZERO MUL OR SWAP1 SSTORE POP JUMP JUMPDEST PUSH1 0x7 DUP1 SLOAD PUSH2 0x444 SWAP1 PUSH2 0x950 JUMP JUMPDEST DUP1 PUSH1 0x1F ADD PUSH1 0x20 DUP1 SWAP2 DIV MUL PUSH1 0x20 ADD PUSH1 0x40 MLOAD SWAP1 DUP2 ADD PUSH1 0x40 MSTORE DUP1 SWAP3 SWAP2 SWAP1 DUP2 DUP2 MSTORE PUSH1 0x20 ADD DUP3 DUP1 SLOAD PUSH2 0x470 SWAP1 PUSH2 0x950 JUMP JUMPDEST DUP1 ISZERO PUSH2 0x4BB JUMPI DUP1 PUSH1 0x1F LT PUSH2 0x492 JUMPI PUSH2 0x100 DUP1 DUP4 SLOAD DIV MUL DUP4 MSTORE SWAP2 PUSH1 0x20 ADD SWAP2 PUSH2 0x4BB JUMP JUMPDEST DUP3 ADD SWAP2 SWAP1 PUSH0 MSTORE PUSH1 0x20 PUSH0 KECCAK256 SWAP1 JUMPDEST DUP2 SLOAD DUP2 MSTORE SWAP1 PUSH1 0x1 ADD SWAP1 PUSH1 0x20 ADD DUP1 DUP4 GT PUSH2 0x49E JUMPI DUP3 SWAP1 SUB PUSH1 0x1F AND DUP3 ADD SWAP2 JUMPDEST POP POP POP POP POP DUP2 JUMP JUMPDEST PUSH0 DUP2 PUSH1 0x3 DUP2 SWAP1 SSTORE POP PUSH1 0x3 SLOAD SWAP1 POP SWAP2 SWAP1 POP JUMP JUMPDEST PUSH0 DUP2 SWAP1 POP SWAP2 SWAP1 POP JUMP JUMPDEST PUSH2 0x4E7 DUP2 PUSH2 0x4D5 JUMP JUMPDEST DUP3 MSTORE POP POP JUMP JUMPDEST PUSH0 PUSH1 0x20 DUP3 ADD SWAP1 POP PUSH2 0x500 PUSH0 DUP4 ADD DUP5 PUSH2 0x4DE JUMP JUMPDEST SWAP3 SWAP2 POP POP JUMP JUMPDEST PUSH0 PUSH20 0xFFFFFFFFFFFFFFFFFFFFFFFFFFFFFFFFFFFFFFFF DUP3 AND SWAP1 POP SWAP2 SWAP1 POP JUMP JUMPDEST PUSH0 PUSH2 0x52F DUP3 PUSH2 0x506 JUMP JUMPDEST SWAP1 POP SWAP2 SWAP1 POP JUMP JUMPDEST PUSH2 0x53F DUP2 PUSH2 0x525 JUMP JUMPDEST DUP3 MSTORE POP POP JUMP JUMPDEST PUSH0 PUSH1 0x20 DUP3 ADD SWAP1 POP PUSH2 0x558 PUSH0 DUP4 ADD DUP5 PUSH2 0x536 JUMP JUMPDEST SWAP3 SWAP2 POP POP JUMP JUMPDEST PUSH0 PUSH1 0x40 MLOAD SWAP1 POP SWAP1 JUMP JUMPDEST PUSH0 PUSH0 REVERT JUMPDEST PUSH0 PUSH0 REVERT JUMPDEST PUSH0 PUSH0 REVERT JUMPDEST PUSH0 PUSH0 REVERT JUMPDEST PUSH0 PUSH1 0x1F NOT PUSH1 0x1F DUP4 ADD AND SWAP1 POP SWAP2 SWAP1 POP JUMP JUMPDEST PUSH32 0x4E487B7100000000000000000000000000000000000000000000000000000000 PUSH0 MSTORE PUSH1 0x41 PUSH1 0x4 MSTORE PUSH1 0x24 PUSH0 REVERT JUMPDEST PUSH2 0x5BD DUP3 PUSH2 0x577 JUMP JUMPDEST DUP2 ADD DUP2 DUP2 LT PUSH8 0xFFFFFFFFFFFFFFFF DUP3 GT OR ISZERO PUSH2 0x5DC JUMPI PUSH2 0x5DB PUSH2 0x587 JUMP JUMPDEST JUMPDEST DUP1 PUSH1 0x40 MSTORE POP POP POP JUMP JUMPDEST PUSH0 PUSH2 0x5EE PUSH2 0x55E JUMP JUMPDEST SWAP1 POP PUSH2 0x5FA DUP3 DUP3 PUSH2 0x5B4 JUMP JUMPDEST SWAP2 SWAP1 POP JUMP JUMPDEST PUSH0 PUSH8 0xFFFFFFFFFFFFFFFF DUP3 GT ISZERO PUSH2 0x619 JUMPI PUSH2 0x618 PUSH2 0x587 JUMP JUMPDEST JUMPDEST PUSH2 0x622 DUP3 PUSH2 0x577 JUMP JUMPDEST SWAP1 POP PUSH1 0x20 DUP2 ADD SWAP1 POP SWAP2 SWAP1 POP JUMP JUMPDEST DUP3 DUP2 DUP4 CALLDATACOPY PUSH0 DUP4 DUP4 ADD MSTORE POP POP POP JUMP JUMPDEST PUSH0 PUSH2 0x64F PUSH2 0x64A DUP5 PUSH2 0x5FF JUMP JUMPDEST PUSH2 0x5E5 JUMP JUMPDEST SWAP1 POP DUP3 DUP2 MSTORE PUSH1 0x20 DUP2 ADD DUP5 DUP5 DUP5 ADD GT ISZERO PUSH2 0x66B JUMPI PUSH2 0x66A PUSH2 0x573 JUMP JUMPDEST JUMPDEST PUSH2 0x676 DUP5 DUP3 DUP6 PUSH2 0x62F JUMP JUMPDEST POP SWAP4 SWAP3 POP POP POP JUMP JUMPDEST PUSH0 DUP3 PUSH1 0x1F DUP4 ADD SLT PUSH2 0x692 JUMPI PUSH2 0x691 PUSH2 0x56F JUMP JUMPDEST JUMPDEST DUP2 CALLDATALOAD PUSH2 0x6A2 DUP5 DUP3 PUSH1 0x20 DUP7 ADD PUSH2 0x63D JUMP JUMPDEST SWAP2 POP POP SWAP3 SWAP2 POP POP JUMP JUMPDEST PUSH0 PUSH1 0x20 DUP3 DUP5 SUB SLT ISZERO PUSH2 0x6C0 JUMPI PUSH2 0x6BF PUSH2 0x567 JUMP JUMPDEST JUMPDEST PUSH0 DUP3 ADD CALLDATALOAD PUSH8 0xFFFFFFFFFFFFFFFF DUP2 GT ISZERO PUSH2 0x6DD JUMPI PUSH2 0x6DC PUSH2 0x56B JUMP JUMPDEST JUMPDEST PUSH2 0x6E9 DUP5 DUP3 DUP6 ADD PUSH2 0x67E JUMP JUMPDEST SWAP2 POP POP SWAP3 SWAP2 POP POP JUMP JUMPDEST PUSH2 0x6FB DUP2 PUSH2 0x525 JUMP JUMPDEST DUP2 EQ PUSH2 0x705 JUMPI PUSH0 PUSH0 REVERT JUMPDEST POP JUMP JUMPDEST PUSH0 DUP2 CALLDATALOAD SWAP1 POP PUSH2 0x716 DUP2 PUSH2 0x6F2 JUMP JUMPDEST SWAP3 SWAP2 POP POP JUMP JUMPDEST PUSH0 PUSH1 0x20 DUP3 DUP5 SUB SLT ISZERO PUSH2 0x731 JUMPI PUSH2 0x730 PUSH2 0x567 JUMP JUMPDEST JUMPDEST PUSH0 PUSH2 0x73E DUP5 DUP3 DUP6 ADD PUSH2 0x708 JUMP JUMPDEST SWAP2 POP POP SWAP3 SWAP2 POP POP JUMP JUMPDEST PUSH0 DUP2 SWAP1 POP SWAP2 SWAP1 POP JUMP JUMPDEST PUSH2 0x759 DUP2 PUSH2 0x747 JUMP JUMPDEST DUP3 MSTORE POP POP JUMP JUMPDEST PUSH0 PUSH1 0x20 DUP3 ADD SWAP1 POP PUSH2 0x772 PUSH0 DUP4 ADD DUP5 PUSH2 0x750 JUMP JUMPDEST SWAP3 SWAP2 POP POP JUMP JUMPDEST PUSH0 DUP2 ISZERO ISZERO SWAP1 POP SWAP2 SWAP1 POP JUMP JUMPDEST PUSH2 0x78C DUP2 PUSH2 0x778 JUMP JUMPDEST DUP3 MSTORE POP POP JUMP JUMPDEST PUSH0 PUSH1 0x20 DUP3 ADD SWAP1 POP PUSH2 0x7A5 PUSH0 DUP4 ADD DUP5 PUSH2 0x783 JUMP JUMPDEST SWAP3 SWAP2 POP POP JUMP JUMPDEST PUSH2 0x7B4 DUP2 PUSH2 0x4D5 JUMP JUMPDEST DUP2 EQ PUSH2 0x7BE JUMPI PUSH0 PUSH0 REVERT JUMPDEST POP JUMP JUMPDEST PUSH0 DUP2 CALLDATALOAD SWAP1 POP PUSH2 0x7CF DUP2 PUSH2 0x7AB JUMP JUMPDEST SWAP3 SWAP2 POP POP JUMP JUMPDEST PUSH0 PUSH1 0x20 DUP3 DUP5 SUB SLT ISZERO PUSH2 0x7EA JUMPI PUSH2 0x7E9 PUSH2 0x567 JUMP JUMPDEST JUMPDEST PUSH0 PUSH2 0x7F7 DUP5 DUP3 DUP6 ADD PUSH2 0x7C1 JUMP JUMPDEST SWAP2 POP POP SWAP3 SWAP2 POP POP JUMP JUMPDEST PUSH0 DUP2 MLOAD SWAP1 POP SWAP2 SWAP1 POP JUMP JUMPDEST PUSH0 DUP3 DUP3 MSTORE PUSH1 0x20 DUP3 ADD SWAP1 POP SWAP3 SWAP2 POP POP JUMP JUMPDEST DUP3 DUP2 DUP4 MCOPY PUSH0 DUP4 DUP4 ADD MSTORE POP POP POP JUMP JUMPDEST PUSH0 PUSH2 0x832 DUP3 PUSH2 0x800 JUMP JUMPDEST PUSH2 0x83C DUP2 DUP6 PUSH2 0x80A JUMP JUMPDEST SWAP4 POP PUSH2 0x84C DUP2 DUP6 PUSH1 0x20 DUP7 ADD PUSH2 0x81A JUMP JUMPDEST PUSH2 0x855 DUP2 PUSH2 0x577 JUMP JUMPDEST DUP5 ADD SWAP2 POP POP SWAP3 SWAP2 POP POP JUMP JUMPDEST PUSH0 PUSH1 0x20 DUP3 ADD SWAP1 POP DUP2 DUP2 SUB PUSH0 DUP4 ADD MSTORE PUSH2 0x878 DUP2 DUP5 PUSH2 0x828 JUMP JUMPDEST SWAP1 POP SWAP3 SWAP2 POP POP JUMP JUMPDEST PUSH32 0x4E487B7100000000000000000000000000000000000000000000000000000000 PUSH0 MSTORE PUSH1 0x11 PUSH1 0x4 MSTORE PUSH1 0x24 PUSH0 REVERT JUMPDEST PUSH0 PUSH2 0x8B7 DUP3 PUSH2 0x4D5 JUMP JUMPDEST SWAP2 POP PUSH2 0x8C2 DUP4 PUSH2 0x4D5 JUMP JUMPDEST SWAP3 POP DUP3 DUP3 MUL PUSH2 0x8D0 DUP2 PUSH2 0x4D5 JUMP JUMPDEST SWAP2 POP PUSH32 0x8000000000000000000000000000000000000000000000000000000000000000 DUP5 EQ PUSH0 DUP5 SLT AND ISZERO PUSH2 0x907 JUMPI PUSH2 0x906 PUSH2 0x880 JUMP JUMPDEST JUMPDEST DUP3 DUP3 SDIV DUP5 EQ DUP4 ISZERO OR PUSH2 0x91C JUMPI PUSH2 0x91B PUSH2 0x880 JUMP JUMPDEST JUMPDEST POP SWAP3 SWAP2 POP POP JUMP JUMPDEST PUSH32 0x4E487B7100000000000000000000000000000000000000000000000000000000 PUSH0 MSTORE PUSH1 0x22 PUSH1 0x4 MSTORE PUSH1 0x24 PUSH0 REVERT JUMPDEST PUSH0 PUSH1 0x2 DUP3 DIV SWAP1 POP PUSH1 0x1 DUP3 AND DUP1 PUSH2 0x967 JUMPI PUSH1 0x7F DUP3 AND SWAP2 POP JUMPDEST PUSH1 0x20 DUP3 LT DUP2 SUB PUSH2 0x97A JUMPI PUSH2 0x979 PUSH2 0x923 JUMP JUMPDEST JUMPDEST POP SWAP2 SWAP1 POP JUMP JUMPDEST PUSH0 PUSH2 0x98A DUP3 PUSH2 0x4D5 JUMP JUMPDEST SWAP2 POP PUSH32 0x7FFFFFFFFFFFFFFFFFFFFFFFFFFFFFFFFFFFFFFFFFFFFFFFFFFFFFFFFFFFFFFF DUP3 SUB PUSH2 0x9BC JUMPI PUSH2 0x9BB PUSH2 0x880 JUMP JUMPDEST JUMPDEST PUSH1 0x1 DUP3 ADD SWAP1 POP SWAP2 SWAP1 POP JUMP INVALID LOG2 PUSH5 0x6970667358 0x22 SLT KECCAK256 EXTSTATICCALL PUSH14 0xB4EA9B535BE2C8F3D4D904DCF737 0xDF 0x4F CLZ CALLF 0xD90 ADDMOD RJUMPI 0xCDF6 0xF6 0xCD DUP10 0x4D NUMBER 0x4B PUSH5 0x736F6C6343 STOP ADDMOD 0x23 STOP CALLER "
				},
				"gasEstimates": {
					"creation": {
						"codeDepositCost": "511400",
						"executionCost": "infinite",
						"totalCost": "infinite"
					},
					"external": {
						"addressStudent(address)": "2869",
						"completeUrok()": "24519",
						"egoLesson(string)": "infinite",
						"lesson()": "infinite",
						"nameStudent()": "infinite",
						"number()": "2470",
						"ocenkaMath()": "2514",
						"replace()": "189",
						"setOcenkaMath(int256)": "infinite",
						"statusStudent()": "2489",
						"student()": "2530",
						"swapStatusActive()": "24453",
						"swapStatusInactive()": "24476",
						"umnozhenie(int256)": "infinite",
						"urok()": "2449"
					}
				},
				"methodIdentifiers": {
					"addressStudent(address)": "6d76b926",
					"completeUrok()": "b182b083",
					"egoLesson(string)": "6c5f5966",
					"lesson()": "c5b0cb3b",
					"nameStudent()": "a830e15f",
					"number()": "8381f58a",
					"ocenkaMath()": "75c7fef7",
					"replace()": "497c69b1",
					"setOcenkaMath(int256)": "df02163b",
					"statusStudent()": "80e8d626",
					"student()": "699450e8",
					"swapStatusActive()": "b774884a",
					"swapStatusInactive()": "59212064",
					"umnozhenie(int256)": "88e7cc08",
					"urok()": "0f91d842"
				}
			},
			"storageLayout": {
				"storage": [
					{
						"astId": 3,
						"contract": "StudentDiary1.sol:StudentDiary",
						"label": "student",
						"offset": 0,
						"slot": "0",
						"type": "t_address"
					},
					{
						"astId": 6,
						"contract": "StudentDiary1.sol:StudentDiary",
						"label": "nameStudent",
						"offset": 0,
						"slot": "1",
						"type": "t_string_storage"
					},
					{
						"astId": 10,
						"contract": "StudentDiary1.sol:StudentDiary",
						"label": "addressStudent",
						"offset": 0,
						"slot": "2",
						"type": "t_mapping(t_address,t_uint256)"
					},
					{
						"astId": 12,
						"contract": "StudentDiary1.sol:StudentDiary",
						"label": "ocenkaMath",
						"offset": 0,
						"slot": "3",
						"type": "t_int256"
					},
					{
						"astId": 14,
						"contract": "StudentDiary1.sol:StudentDiary",
						"label": "number",
						"offset": 0,
						"slot": "4",
						"type": "t_int256"
					},
					{
						"astId": 16,
						"contract": "StudentDiary1.sol:StudentDiary",
						"label": "urok",
						"offset": 0,
						"slot": "5",
						"type": "t_int256"
					},
					{
						"astId": 18,
						"contract": "StudentDiary1.sol:StudentDiary",
						"label": "statusStudent",
						"offset": 0,
						"slot": "6",
						"type": "t_bool"
					},
					{
						"astId": 20,
						"contract": "StudentDiary1.sol:StudentDiary",
						"label": "lesson",
						"offset": 0,
						"slot": "7",
						"type": "t_string_storage"
					},
					{
						"astId": 24,
						"contract": "StudentDiary1.sol:StudentDiary",
						"label": "egoLesson",
						"offset": 0,
						"slot": "8",
						"type": "t_mapping(t_string_memory_ptr,t_int256)"
					}
				],
				"types": {
					"t_address": {
						"encoding": "inplace",
						"label": "address",
						"numberOfBytes": "20"
					},
					"t_bool": {
						"encoding": "inplace",
						"label": "bool",
						"numberOfBytes": "1"
					},
					"t_int256": {
						"encoding": "inplace",
						"label": "int256",
						"numberOfBytes": "32"
					},
					"t_mapping(t_address,t_uint256)": {
						"encoding": "mapping",
						"key": "t_address",
						"label": "mapping(address => uint256)",
						"numberOfBytes": "32",
						"value": "t_uint256"
					},
					"t_mapping(t_string_memory_ptr,t_int256)": {
						"encoding": "mapping",
						"key": "t_string_memory_ptr",
						"label": "mapping(string => int256)",
						"numberOfBytes": "32",
						"value": "t_int256"
					},
					"t_string_memory_ptr": {
						"encoding": "bytes",
						"label": "string",
						"numberOfBytes": "32"
					},
					"t_string_storage": {
						"encoding": "bytes",
						"label": "string",
						"numberOfBytes": "32"
					},
					"t_uint256": {
						"encoding": "inplace",
						"label": "uint256",
						"numberOfBytes": "32"
					}
				}
			},
			"userdoc": {
				"kind": "user",
				"methods": {},
				"version": 1
			}
		}
	}
}