{
	"DAO.sol": {
		"DAO": {
			"abi": [
				{
					"inputs": [
						{
							"internalType": "address",
							"name": "token",
							"type": "address"
						},
						{
							"internalType": "address[]",
							"name": "_members",
							"type": "address[]"
						}
					],
					"stateMutability": "nonpayable",
					"type": "constructor"
				},
				{
					"anonymous": false,
					"inputs": [
						{
							"indexed": false,
							"internalType": "uint256",
							"name": "id",
							"type": "uint256"
						},
						{
							"indexed": false,
							"internalType": "address",
							"name": "creator",
							"type": "address"
						},
						{
							"indexed": false,
							"internalType": "enum DAO.TypeProposal",
							"name": "ProposalType",
							"type": "uint8"
						}
					],
					"name": "ProposalCreated",
					"type": "event"
				},
				{
					"anonymous": false,
					"inputs": [
						{
							"indexed": false,
							"internalType": "uint256",
							"name": "id",
							"type": "uint256"
						},
						{
							"indexed": false,
							"internalType": "address",
							"name": "creator",
							"type": "address"
						}
					],
					"name": "ProposalDeleted",
					"type": "event"
				},
				{
					"anonymous": false,
					"inputs": [
						{
							"indexed": false,
							"internalType": "uint256",
							"name": "id",
							"type": "uint256"
						},
						{
							"indexed": false,
							"internalType": "address",
							"name": "creator",
							"type": "address"
						}
					],
					"name": "ProposalExecuted",
					"type": "event"
				},
				{
					"anonymous": false,
					"inputs": [
						{
							"indexed": false,
							"internalType": "uint256",
							"name": "id",
							"type": "uint256"
						},
						{
							"indexed": false,
							"internalType": "address",
							"name": "voter",
							"type": "address"
						},
						{
							"indexed": false,
							"internalType": "bool",
							"name": "vote",
							"type": "bool"
						}
					],
					"name": "Voted",
					"type": "event"
				},
				{
					"inputs": [],
					"name": "PROFI",
					"outputs": [
						{
							"internalType": "contract Professional",
							"name": "",
							"type": "address"
						}
					],
					"stateMutability": "view",
					"type": "function"
				},
				{
					"inputs": [
						{
							"internalType": "enum DAO.TypeProposal",
							"name": "_proposalType",
							"type": "uint8"
						},
						{
							"internalType": "uint256",
							"name": "votingDuration",
							"type": "uint256"
						},
						{
							"internalType": "string",
							"name": "_description",
							"type": "string"
						}
					],
					"name": "createProposal",
					"outputs": [],
					"stateMutability": "nonpayable",
					"type": "function"
				},
				{
					"inputs": [
						{
							"internalType": "uint256",
							"name": "proposalId",
							"type": "uint256"
						}
					],
					"name": "deleteProposal",
					"outputs": [],
					"stateMutability": "nonpayable",
					"type": "function"
				},
				{
					"inputs": [
						{
							"internalType": "uint256",
							"name": "proposalId",
							"type": "uint256"
						}
					],
					"name": "executeProposal",
					"outputs": [],
					"stateMutability": "nonpayable",
					"type": "function"
				},
				{
					"inputs": [
						{
							"internalType": "uint256",
							"name": "",
							"type": "uint256"
						},
						{
							"internalType": "address",
							"name": "",
							"type": "address"
						}
					],
					"name": "hasVoted",
					"outputs": [
						{
							"internalType": "bool",
							"name": "",
							"type": "bool"
						}
					],
					"stateMutability": "view",
					"type": "function"
				},
				{
					"inputs": [
						{
							"internalType": "address",
							"name": "",
							"type": "address"
						}
					],
					"name": "legalMember",
					"outputs": [
						{
							"internalType": "bool",
							"name": "",
							"type": "bool"
						}
					],
					"stateMutability": "view",
					"type": "function"
				},
				{
					"inputs": [
						{
							"internalType": "uint256",
							"name": "",
							"type": "uint256"
						}
					],
					"name": "members",
					"outputs": [
						{
							"internalType": "address",
							"name": "",
							"type": "address"
						}
					],
					"stateMutability": "view",
					"type": "function"
				},
				{
					"inputs": [
						{
							"internalType": "uint256",
							"name": "",
							"type": "uint256"
						}
					],
					"name": "proposal",
					"outputs": [
						{
							"internalType": "uint256",
							"name": "idProposal",
							"type": "uint256"
						},
						{
							"internalType": "enum DAO.TypeProposal",
							"name": "proposalType",
							"type": "uint8"
						},
						{
							"internalType": "address",
							"name": "creator",
							"type": "address"
						},
						{
							"internalType": "string",
							"name": "description",
							"type": "string"
						},
						{
							"internalType": "uint256",
							"name": "timeStartProposal",
							"type": "uint256"
						},
						{
							"internalType": "uint256",
							"name": "timeEndProposal",
							"type": "uint256"
						},
						{
							"internalType": "uint256",
							"name": "amountVoteYES",
							"type": "uint256"
						},
						{
							"internalType": "uint256",
							"name": "amountVoteNO",
							"type": "uint256"
						},
						{
							"internalType": "bool",
							"name": "executed",
							"type": "bool"
						},
						{
							"internalType": "bool",
							"name": "deleted",
							"type": "bool"
						},
						{
							"internalType": "bool",
							"name": "accepted",
							"type": "bool"
						}
					],
					"stateMutability": "view",
					"type": "function"
				},
				{
					"inputs": [],
					"name": "proposalsCounter",
					"outputs": [
						{
							"internalType": "uint256",
							"name": "",
							"type": "uint256"
						}
					],
					"stateMutability": "view",
					"type": "function"
				},
				{
					"inputs": [],
					"name": "showMembers",
					"outputs": [
						{
							"internalType": "address[]",
							"name": "",
							"type": "address[]"
						}
					],
					"stateMutability": "view",
					"type": "function"
				},
				{
					"inputs": [
						{
							"internalType": "uint256",
							"name": "proposalId",
							"type": "uint256"
						},
						{
							"internalType": "bool",
							"name": "_vote",
							"type": "bool"
						}
					],
					"name": "vote",
					"outputs": [],
					"stateMutability": "nonpayable",
					"type": "function"
				}
			],
			"devdoc": {
				"kind": "dev",
				"methods": {},
				"version": 1
			},
			"evm": {
				"assembly": "    /* \"DAO.sol\":86:5618  contract DAO {... */\n  mstore(0x40, 0x80)\n    /* \"DAO.sol\":806:807  0 */\n  0x00\n    /* \"DAO.sol\":775:807  uint public proposalsCounter = 0 */\n  0x05\n  sstore\n    /* \"DAO.sol\":1061:1479  constructor(address token, address[] memory _members) {... */\n  callvalue\n  dup1\n  iszero\n  tag_1\n  jumpi\n  revert(0x00, 0x00)\ntag_1:\n  pop\n  mload(0x40)\n  sub(codesize, bytecodeSize)\n  dup1\n  bytecodeSize\n  dup4\n  codecopy\n  dup2\n  add\n  0x40\n  dup2\n  swap1\n  mstore\n  tag_2\n  swap2\n  tag_3\n  jump\t// in\ntag_2:\n  sub(shl(0xa0, 0x01), 0x01)\n    /* \"DAO.sol\":1135:1154  token != address(0) */\n  dup3\n  and\n    /* \"DAO.sol\":1126:1208  require (token != address(0), unicode\"Адрес токена не указан!\") */\n  tag_6\n  jumpi\n  mload(0x40)\n  shl(0xe5, 0x461bcd)\n  dup2\n  mstore\n    /* \"#utility.yul\":1755:1757   */\n  0x20\n    /* \"DAO.sol\":1126:1208  require (token != address(0), unicode\"Адрес токена не указан!\") */\n  0x04\n  dup3\n  add\n    /* \"#utility.yul\":1737:1758   */\n  mstore\n    /* \"#utility.yul\":1794:1796   */\n  0x2a\n    /* \"#utility.yul\":1774:1792   */\n  0x24\n  dup3\n  add\n    /* \"#utility.yul\":1767:1797   */\n  mstore\n    /* \"#utility.yul\":1833:1899   */\n  0xd090d0b4d180d0b5d18120d182d0bed0bad0b5d0bdd0b020d0bdd0b520d183d0\n    /* \"#utility.yul\":1813:1831   */\n  0x44\n  dup3\n  add\n    /* \"#utility.yul\":1806:1900   */\n  mstore\n  shl(0xb0, 0xbad0b0d0b7d0b0d0bd21)\n    /* \"#utility.yul\":1916:1934   */\n  0x64\n  dup3\n  add\n    /* \"#utility.yul\":1909:1969   */\n  mstore\n    /* \"#utility.yul\":1986:2005   */\n  0x84\n  add\n    /* \"DAO.sol\":1126:1208  require (token != address(0), unicode\"Адрес токена не указан!\") */\n  mload(0x40)\n  dup1\n  swap2\n  sub\n  swap1\n  revert\ntag_6:\n    /* \"DAO.sol\":1219:1224  PROFI */\n  0x00\n    /* \"DAO.sol\":1219:1246  PROFI = Professional(token) */\n  dup1\n  sload\n  not(sub(shl(0xa0, 0x01), 0x01))\n  and\n  sub(shl(0xa0, 0x01), 0x01)\n  dup5\n  and\n  or\n  dup2\n  sstore\n    /* \"DAO.sol\":1259:1472  for (uint256 i = 0; i < _members.length; i++) {... */\ntag_9:\n    /* \"DAO.sol\":1283:1291  _members */\n  dup2\n    /* \"DAO.sol\":1283:1298  _members.length */\n  mload\n    /* \"DAO.sol\":1279:1280  i */\n  dup2\n    /* \"DAO.sol\":1279:1298  i < _members.length */\n  lt\n    /* \"DAO.sol\":1259:1472  for (uint256 i = 0; i < _members.length; i++) {... */\n  iszero\n  tag_10\n  jumpi\n    /* \"DAO.sol\":1325:1336  legalMember */\n  0x01\n    /* \"DAO.sol\":1325:1349  legalMember[_members[i]] */\n  0x00\n    /* \"DAO.sol\":1337:1345  _members */\n  dup4\n    /* \"DAO.sol\":1346:1347  i */\n  dup4\n    /* \"DAO.sol\":1337:1348  _members[i] */\n  dup2\n  mload\n  dup2\n  lt\n  tag_13\n  jumpi\n  tag_13\n  tag_14\n  jump\t// in\ntag_13:\n  0x20\n  swap1\n  dup2\n  mul\n  swap2\n  swap1\n  swap2\n  add\n  dup2\n  add\n  mload\n  sub(shl(0xa0, 0x01), 0x01)\n    /* \"DAO.sol\":1325:1349  legalMember[_members[i]] */\n  and\n  dup3\n  mstore\n  dup2\n  add\n  swap2\n  swap1\n  swap2\n  mstore\n  0x40\n  add\n  0x00\n  keccak256\n  sload\n  0xff\n  and\n    /* \"DAO.sol\":1320:1461  if (!legalMember[_members[i]]) {... */\n  tag_15\n  jumpi\n    /* \"DAO.sol\":1397:1401  true */\n  0x01\n    /* \"DAO.sol\":1370:1381  legalMember */\n  dup1\n    /* \"DAO.sol\":1370:1394  legalMember[_members[i]] */\n  0x00\n    /* \"DAO.sol\":1382:1390  _members */\n  dup5\n    /* \"DAO.sol\":1391:1392  i */\n  dup5\n    /* \"DAO.sol\":1382:1393  _members[i] */\n  dup2\n  mload\n  dup2\n  lt\n  tag_17\n  jumpi\n  tag_17\n  tag_14\n  jump\t// in\ntag_17:\n  0x20\n  mul\n  0x20\n  add\n  add\n  mload\n  sub(shl(0xa0, 0x01), 0x01)\n    /* \"DAO.sol\":1370:1394  legalMember[_members[i]] */\n  and\n  sub(shl(0xa0, 0x01), 0x01)\n  and\n  dup2\n  mstore\n  0x20\n  add\n  swap1\n  dup2\n  mstore\n  0x20\n  add\n  0x00\n  keccak256\n  0x00\n    /* \"DAO.sol\":1370:1401  legalMember[_members[i]] = true */\n  0x0100\n  exp\n  dup2\n  sload\n  dup2\n  0xff\n  mul\n  not\n  and\n  swap1\n  dup4\n  iszero\n  iszero\n  mul\n  or\n  swap1\n  sstore\n  pop\n    /* \"DAO.sol\":1420:1427  members */\n  0x04\n    /* \"DAO.sol\":1433:1441  _members */\n  dup3\n    /* \"DAO.sol\":1442:1443  i */\n  dup3\n    /* \"DAO.sol\":1433:1444  _members[i] */\n  dup2\n  mload\n  dup2\n  lt\n  tag_19\n  jumpi\n  tag_19\n  tag_14\n  jump\t// in\ntag_19:\n  0x20\n  swap1\n  dup2\n  mul\n  swap2\n  swap1\n  swap2\n  add\n  dup2\n  add\n  mload\n    /* \"DAO.sol\":1420:1445  members.push(_members[i]) */\n  dup3\n  sload\n  0x01\n  dup2\n  add\n  dup5\n  sstore\n  0x00\n  swap4\n  dup5\n  mstore\n  swap2\n  swap1\n  swap3\n  keccak256\n  add\n  dup1\n  sload\n  not(sub(shl(0xa0, 0x01), 0x01))\n  and\n  sub(shl(0xa0, 0x01), 0x01)\n  swap1\n  swap3\n  and\n  swap2\n  swap1\n  swap2\n  or\n  swap1\n  sstore\n    /* \"DAO.sol\":1320:1461  if (!legalMember[_members[i]]) {... */\ntag_15:\n    /* \"DAO.sol\":1300:1303  i++ */\n  0x01\n  add\n    /* \"DAO.sol\":1259:1472  for (uint256 i = 0; i < _members.length; i++) {... */\n  jump(tag_9)\ntag_10:\n  pop\n    /* \"DAO.sol\":1061:1479  constructor(address token, address[] memory _members) {... */\n  pop\n  pop\n    /* \"DAO.sol\":86:5618  contract DAO {... */\n  jump(tag_24)\n    /* \"#utility.yul\":14:191   */\ntag_22:\n    /* \"#utility.yul\":93:106   */\n  dup1\n  mload\n  sub(shl(0xa0, 0x01), 0x01)\n    /* \"#utility.yul\":135:166   */\n  dup2\n  and\n    /* \"#utility.yul\":125:167   */\n  dup2\n  eq\n    /* \"#utility.yul\":115:185   */\n  tag_26\n  jumpi\n    /* \"#utility.yul\":181:182   */\n  0x00\n    /* \"#utility.yul\":178:179   */\n  0x00\n    /* \"#utility.yul\":171:183   */\n  revert\n    /* \"#utility.yul\":115:185   */\ntag_26:\n    /* \"#utility.yul\":14:191   */\n  swap2\n  swap1\n  pop\n  jump\t// out\n    /* \"#utility.yul\":196:323   */\ntag_23:\n    /* \"#utility.yul\":257:267   */\n  0x4e487b71\n    /* \"#utility.yul\":252:255   */\n  0xe0\n    /* \"#utility.yul\":248:268   */\n  shl\n    /* \"#utility.yul\":245:246   */\n  0x00\n    /* \"#utility.yul\":238:269   */\n  mstore\n    /* \"#utility.yul\":288:292   */\n  0x41\n    /* \"#utility.yul\":285:286   */\n  0x04\n    /* \"#utility.yul\":278:293   */\n  mstore\n    /* \"#utility.yul\":312:316   */\n  0x24\n    /* \"#utility.yul\":309:310   */\n  0x00\n    /* \"#utility.yul\":302:317   */\n  revert\n    /* \"#utility.yul\":328:1548   */\ntag_3:\n    /* \"#utility.yul\":432:438   */\n  0x00\n    /* \"#utility.yul\":440:446   */\n  0x00\n    /* \"#utility.yul\":493:495   */\n  0x40\n    /* \"#utility.yul\":481:490   */\n  dup4\n    /* \"#utility.yul\":472:479   */\n  dup6\n    /* \"#utility.yul\":468:491   */\n  sub\n    /* \"#utility.yul\":464:496   */\n  slt\n    /* \"#utility.yul\":461:513   */\n  iszero\n  tag_29\n  jumpi\n    /* \"#utility.yul\":509:510   */\n  0x00\n    /* \"#utility.yul\":506:507   */\n  0x00\n    /* \"#utility.yul\":499:511   */\n  revert\n    /* \"#utility.yul\":461:513   */\ntag_29:\n    /* \"#utility.yul\":532:572   */\n  tag_30\n    /* \"#utility.yul\":562:571   */\n  dup4\n    /* \"#utility.yul\":532:572   */\n  tag_22\n  jump\t// in\ntag_30:\n    /* \"#utility.yul\":616:618   */\n  0x20\n    /* \"#utility.yul\":601:619   */\n  dup5\n  add\n    /* \"#utility.yul\":595:620   */\n  mload\n    /* \"#utility.yul\":522:572   */\n  swap1\n  swap3\n  pop\n  sub(shl(0x40, 0x01), 0x01)\n    /* \"#utility.yul\":632:662   */\n  dup2\n  gt\n    /* \"#utility.yul\":629:679   */\n  iszero\n  tag_31\n  jumpi\n    /* \"#utility.yul\":675:676   */\n  0x00\n    /* \"#utility.yul\":672:673   */\n  0x00\n    /* \"#utility.yul\":665:677   */\n  revert\n    /* \"#utility.yul\":629:679   */\ntag_31:\n    /* \"#utility.yul\":698:720   */\n  dup4\n  add\n    /* \"#utility.yul\":751:755   */\n  0x1f\n    /* \"#utility.yul\":743:756   */\n  dup2\n  add\n    /* \"#utility.yul\":739:766   */\n  dup6\n  sgt\n    /* \"#utility.yul\":729:784   */\n  tag_32\n  jumpi\n    /* \"#utility.yul\":780:781   */\n  0x00\n    /* \"#utility.yul\":777:778   */\n  0x00\n    /* \"#utility.yul\":770:782   */\n  revert\n    /* \"#utility.yul\":729:784   */\ntag_32:\n    /* \"#utility.yul\":807:816   */\n  dup1\n  mload\n  sub(shl(0x40, 0x01), 0x01)\n    /* \"#utility.yul\":828:858   */\n  dup2\n  gt\n    /* \"#utility.yul\":825:881   */\n  iszero\n  tag_34\n  jumpi\n    /* \"#utility.yul\":861:879   */\n  tag_34\n  tag_23\n  jump\t// in\ntag_34:\n    /* \"#utility.yul\":943:945   */\n  0x40\n    /* \"#utility.yul\":937:946   */\n  mload\n    /* \"#utility.yul\":904:905   */\n  0x05\n    /* \"#utility.yul\":900:914   */\n  dup3\n  swap1\n  shl\n  swap1\n    /* \"#utility.yul\":997:999   */\n  0x3f\n    /* \"#utility.yul\":989:1000   */\n  dup3\n  add\n  not(0x1f)\n    /* \"#utility.yul\":985:1010   */\n  and\n    /* \"#utility.yul\":973:1011   */\n  dup2\n  add\n  sub(shl(0x40, 0x01), 0x01)\n    /* \"#utility.yul\":1026:1060   */\n  dup2\n  gt\n    /* \"#utility.yul\":1062:1084   */\n  dup3\n  dup3\n  lt\n    /* \"#utility.yul\":1023:1085   */\n  or\n    /* \"#utility.yul\":1020:1108   */\n  iszero\n  tag_36\n  jumpi\n    /* \"#utility.yul\":1088:1106   */\n  tag_36\n  tag_23\n  jump\t// in\ntag_36:\n    /* \"#utility.yul\":1124:1126   */\n  0x40\n    /* \"#utility.yul\":1117:1139   */\n  mstore\n    /* \"#utility.yul\":1174:1196   */\n  swap2\n  dup3\n  mstore\n    /* \"#utility.yul\":1224:1226   */\n  0x20\n    /* \"#utility.yul\":1254:1265   */\n  dup2\n  dup5\n  add\n    /* \"#utility.yul\":1250:1270   */\n  dup2\n  add\n  swap3\n    /* \"#utility.yul\":1174:1196   */\n  swap1\n    /* \"#utility.yul\":1212:1227   */\n  dup2\n  add\n    /* \"#utility.yul\":1282:1301   */\n  dup9\n  dup5\n  gt\n    /* \"#utility.yul\":1279:1318   */\n  iszero\n  tag_37\n  jumpi\n    /* \"#utility.yul\":1314:1315   */\n  0x00\n    /* \"#utility.yul\":1311:1312   */\n  0x00\n    /* \"#utility.yul\":1304:1316   */\n  revert\n    /* \"#utility.yul\":1279:1318   */\ntag_37:\n    /* \"#utility.yul\":1346:1348   */\n  0x20\n    /* \"#utility.yul\":1342:1344   */\n  dup6\n    /* \"#utility.yul\":1338:1349   */\n  add\n    /* \"#utility.yul\":1327:1349   */\n  swap5\n  pop\n    /* \"#utility.yul\":1358:1517   */\ntag_38:\n    /* \"#utility.yul\":1374:1380   */\n  dup4\n    /* \"#utility.yul\":1369:1372   */\n  dup6\n    /* \"#utility.yul\":1366:1381   */\n  lt\n    /* \"#utility.yul\":1358:1517   */\n  iszero\n  tag_40\n  jumpi\n    /* \"#utility.yul\":1440:1474   */\n  tag_41\n    /* \"#utility.yul\":1470:1473   */\n  dup6\n    /* \"#utility.yul\":1440:1474   */\n  tag_22\n  jump\t// in\ntag_41:\n    /* \"#utility.yul\":1428:1475   */\n  dup2\n  mstore\n    /* \"#utility.yul\":1504:1506   */\n  0x20\n    /* \"#utility.yul\":1391:1403   */\n  swap5\n  dup6\n  add\n  swap5\n    /* \"#utility.yul\":1495:1507   */\n  add\n    /* \"#utility.yul\":1358:1517   */\n  jump(tag_38)\ntag_40:\n    /* \"#utility.yul\":1362:1365   */\n  pop\n    /* \"#utility.yul\":1536:1542   */\n  dup1\n    /* \"#utility.yul\":1526:1542   */\n  swap5\n  pop\n  pop\n  pop\n  pop\n  pop\n    /* \"#utility.yul\":328:1548   */\n  swap3\n  pop\n  swap3\n  swap1\n  pop\n  jump\t// out\n    /* \"#utility.yul\":2016:2143   */\ntag_14:\n    /* \"#utility.yul\":2077:2087   */\n  0x4e487b71\n    /* \"#utility.yul\":2072:2075   */\n  0xe0\n    /* \"#utility.yul\":2068:2088   */\n  shl\n    /* \"#utility.yul\":2065:2066   */\n  0x00\n    /* \"#utility.yul\":2058:2089   */\n  mstore\n    /* \"#utility.yul\":2108:2112   */\n  0x32\n    /* \"#utility.yul\":2105:2106   */\n  0x04\n    /* \"#utility.yul\":2098:2113   */\n  mstore\n    /* \"#utility.yul\":2132:2136   */\n  0x24\n    /* \"#utility.yul\":2129:2130   */\n  0x00\n    /* \"#utility.yul\":2122:2137   */\n  revert\n    /* \"#utility.yul\":2016:2143   */\ntag_24:\n    /* \"DAO.sol\":86:5618  contract DAO {... */\n  dataSize(sub_0)\n  dup1\n  dataOffset(sub_0)\n  0x00\n  codecopy\n  0x00\n  return\nstop\n\nsub_0: assembly {\n        /* \"DAO.sol\":86:5618  contract DAO {... */\n      mstore(0x40, 0x80)\n      callvalue\n      dup1\n      iszero\n      tag_1\n      jumpi\n      revert(0x00, 0x00)\n    tag_1:\n      pop\n      jumpi(tag_2, lt(calldatasize, 0x04))\n      shr(0xe0, calldataload(0x00))\n      dup1\n      0x5daf08ca\n      gt\n      tag_14\n      jumpi\n      dup1\n      0x5daf08ca\n      eq\n      tag_8\n      jumpi\n      dup1\n      0x8259d553\n      eq\n      tag_9\n      jumpi\n      dup1\n      0xa5ec87e4\n      eq\n      tag_10\n      jumpi\n      dup1\n      0xbca510db\n      eq\n      tag_11\n      jumpi\n      dup1\n      0xc9d27afe\n      eq\n      tag_12\n      jumpi\n      dup1\n      0xd567897f\n      eq\n      tag_13\n      jumpi\n      revert(0x00, 0x00)\n    tag_14:\n      dup1\n      0x0d61b519\n      eq\n      tag_3\n      jumpi\n      dup1\n      0x28bbea69\n      eq\n      tag_4\n      jumpi\n      dup1\n      0x30326c17\n      eq\n      tag_5\n      jumpi\n      dup1\n      0x43859632\n      eq\n      tag_6\n      jumpi\n      dup1\n      0x4bf92a9f\n      eq\n      tag_7\n      jumpi\n    tag_2:\n      revert(0x00, 0x00)\n        /* \"DAO.sol\":4409:5377  function executeProposal(uint proposalId) external {... */\n    tag_3:\n      tag_15\n      tag_16\n      calldatasize\n      0x04\n      tag_17\n      jump\t// in\n    tag_16:\n      tag_18\n      jump\t// in\n    tag_15:\n      stop\n        /* \"DAO.sol\":578:622  mapping (address => bool) public legalMember */\n    tag_4:\n      tag_19\n      tag_20\n      calldatasize\n      0x04\n      tag_21\n      jump\t// in\n    tag_20:\n      mstore(0x20, 0x01)\n      0x00\n      swap1\n      dup2\n      mstore\n      0x40\n      swap1\n      keccak256\n      sload\n      0xff\n      and\n      dup2\n      jump\n    tag_19:\n      mload(0x40)\n        /* \"#utility.yul\":875:889   */\n      swap1\n      iszero\n        /* \"#utility.yul\":868:890   */\n      iszero\n        /* \"#utility.yul\":850:891   */\n      dup2\n      mstore\n        /* \"#utility.yul\":838:840   */\n      0x20\n        /* \"#utility.yul\":823:841   */\n      add\n        /* \"DAO.sol\":578:622  mapping (address => bool) public legalMember */\n    tag_23:\n      mload(0x40)\n      dup1\n      swap2\n      sub\n      swap1\n      return\n        /* \"DAO.sol\":629:671  mapping (uint => Proposal) public proposal */\n    tag_5:\n      tag_25\n      tag_26\n      calldatasize\n      0x04\n      tag_17\n      jump\t// in\n    tag_26:\n      tag_27\n      jump\t// in\n    tag_25:\n      mload(0x40)\n      tag_23\n      swap12\n      swap11\n      swap10\n      swap9\n      swap8\n      swap7\n      swap6\n      swap5\n      swap4\n      swap3\n      swap2\n      swap1\n      tag_29\n      jump\t// in\n        /* \"DAO.sol\":678:737  mapping (uint => mapping (address => bool)) public hasVoted */\n    tag_6:\n      tag_19\n      tag_31\n      calldatasize\n      0x04\n      tag_32\n      jump\t// in\n    tag_31:\n      0x03\n      0x20\n      swap1\n      dup2\n      mstore\n      0x00\n      swap3\n      dup4\n      mstore\n      0x40\n      dup1\n      dup5\n      keccak256\n      swap1\n      swap2\n      mstore\n      swap1\n      dup3\n      mstore\n      swap1\n      keccak256\n      sload\n      0xff\n      and\n      dup2\n      jump\n        /* \"DAO.sol\":546:571  Professional public PROFI */\n    tag_7:\n      sload(0x00)\n      tag_35\n      swap1\n      sub(shl(0xa0, 0x01), 0x01)\n      and\n      dup2\n      jump\n    tag_35:\n      mload(0x40)\n      sub(shl(0xa0, 0x01), 0x01)\n        /* \"#utility.yul\":2984:3016   */\n      swap1\n      swap2\n      and\n        /* \"#utility.yul\":2966:3017   */\n      dup2\n      mstore\n        /* \"#utility.yul\":2954:2956   */\n      0x20\n        /* \"#utility.yul\":2939:2957   */\n      add\n        /* \"DAO.sol\":546:571  Professional public PROFI */\n      tag_23\n        /* \"#utility.yul\":2800:3023   */\n      jump\n        /* \"DAO.sol\":744:768  address[] public members */\n    tag_8:\n      tag_35\n      tag_40\n      calldatasize\n      0x04\n      tag_17\n      jump\t// in\n    tag_40:\n      tag_41\n      jump\t// in\n        /* \"DAO.sol\":3581:4401  function deleteProposal(uint proposalId) external {... */\n    tag_9:\n      tag_15\n      tag_45\n      calldatasize\n      0x04\n      tag_17\n      jump\t// in\n    tag_45:\n      tag_46\n      jump\t// in\n        /* \"DAO.sol\":775:807  uint public proposalsCounter = 0 */\n    tag_10:\n      tag_47\n      sload(0x05)\n      dup2\n      jump\n    tag_47:\n      mload(0x40)\n        /* \"#utility.yul\":3382:3407   */\n      swap1\n      dup2\n      mstore\n        /* \"#utility.yul\":3370:3372   */\n      0x20\n        /* \"#utility.yul\":3355:3373   */\n      add\n        /* \"DAO.sol\":775:807  uint public proposalsCounter = 0 */\n      tag_23\n        /* \"#utility.yul\":3236:3413   */\n      jump\n        /* \"DAO.sol\":1491:2344  function createProposal(TypeProposal _proposalType, uint votingDuration, string memory _description) external {... */\n    tag_11:\n      tag_15\n      tag_52\n      calldatasize\n      0x04\n      tag_53\n      jump\t// in\n    tag_52:\n      tag_54\n      jump\t// in\n        /* \"DAO.sol\":2352:3573  function vote(uint proposalId, bool _vote) external {... */\n    tag_12:\n      tag_15\n      tag_56\n      calldatasize\n      0x04\n      tag_57\n      jump\t// in\n    tag_56:\n      tag_58\n      jump\t// in\n        /* \"DAO.sol\":5385:5615  function showMembers() public view returns (address[] memory) {... */\n    tag_13:\n      tag_59\n      tag_60\n      jump\t// in\n    tag_59:\n      mload(0x40)\n      tag_23\n      swap2\n      swap1\n      tag_62\n      jump\t// in\n        /* \"DAO.sol\":4409:5377  function executeProposal(uint proposalId) external {... */\n    tag_18:\n        /* \"DAO.sol\":4520:4521  0 */\n      0x00\n        /* \"DAO.sol\":4480:4500  proposal[proposalId] */\n      dup2\n      dup2\n      mstore\n        /* \"DAO.sol\":4480:4488  proposal */\n      0x02\n        /* \"DAO.sol\":4480:4500  proposal[proposalId] */\n      0x20\n      mstore\n      0x40\n      swap1\n      keccak256\n        /* \"DAO.sol\":4480:4508  proposal[proposalId].creator */\n      0x01\n      add\n      sload\n      0x0100\n      swap1\n      div\n      sub(shl(0xa0, 0x01), 0x01)\n      and\n        /* \"DAO.sol\":4471:4583  require (proposal[proposalId].creator != address(0), unicode\"Голосования не существует!\") */\n      tag_64\n      jumpi\n      mload(0x40)\n      shl(0xe5, 0x461bcd)\n      dup2\n      mstore\n      0x04\n      add\n      tag_65\n      swap1\n      tag_66\n      jump\t// in\n    tag_65:\n      mload(0x40)\n      dup1\n      swap2\n      sub\n      swap1\n      revert\n    tag_64:\n        /* \"DAO.sol\":4603:4623  proposal[proposalId] */\n      0x00\n      dup2\n      dup2\n      mstore\n        /* \"DAO.sol\":4603:4611  proposal */\n      0x02\n        /* \"DAO.sol\":4603:4623  proposal[proposalId] */\n      0x20\n      mstore\n      0x40\n      swap1\n      keccak256\n        /* \"DAO.sol\":4603:4631  proposal[proposalId].creator */\n      0x01\n      add\n      sload\n      0x0100\n      swap1\n      div\n      sub(shl(0xa0, 0x01), 0x01)\n      and\n        /* \"DAO.sol\":4635:4645  msg.sender */\n      caller\n        /* \"DAO.sol\":4603:4645  proposal[proposalId].creator == msg.sender */\n      eq\n        /* \"DAO.sol\":4594:4709  require (proposal[proposalId].creator == msg.sender, unicode\"Вы не создатель голосования!\") */\n      tag_67\n      jumpi\n      mload(0x40)\n      shl(0xe5, 0x461bcd)\n      dup2\n      mstore\n      0x04\n      add\n      tag_65\n      swap1\n      tag_69\n      jump\t// in\n    tag_67:\n        /* \"DAO.sol\":4722:4740  Proposal storage p */\n      0x00\n        /* \"DAO.sol\":4743:4763  proposal[proposalId] */\n      dup2\n      dup2\n      mstore\n        /* \"DAO.sol\":4743:4751  proposal */\n      0x02\n        /* \"DAO.sol\":4743:4763  proposal[proposalId] */\n      0x20\n      mstore\n      0x40\n      swap1\n      keccak256\n        /* \"DAO.sol\":4786:4796  p.executed */\n      0x07\n      dup2\n      add\n      sload\n      0xff\n      and\n        /* \"DAO.sol\":4785:4796  !p.executed */\n      iszero\n        /* \"DAO.sol\":4776:4850  require (!p.executed, unicode\"Голосование завершено!\") */\n      tag_70\n      jumpi\n      mload(0x40)\n      shl(0xe5, 0x461bcd)\n      dup2\n      mstore\n      0x04\n      add\n      tag_65\n      swap1\n      tag_72\n      jump\t// in\n    tag_70:\n        /* \"DAO.sol\":4871:4880  p.deleted */\n      0x07\n      dup2\n      add\n      sload\n      0x0100\n      swap1\n      div\n      0xff\n      and\n        /* \"DAO.sol\":4870:4880  !p.deleted */\n      iszero\n        /* \"DAO.sol\":4861:4930  require (!p.deleted, unicode\"Голосование удалено!\") */\n      tag_73\n      jumpi\n      mload(0x40)\n      shl(0xe5, 0x461bcd)\n      dup2\n      mstore\n      0x04\n      add\n      tag_65\n      swap1\n      tag_75\n      jump\t// in\n    tag_73:\n        /* \"DAO.sol\":4962:4972  msg.sender */\n      caller\n        /* \"DAO.sol\":4950:4973  legalMember[msg.sender] */\n      0x00\n      swap1\n      dup2\n      mstore\n        /* \"DAO.sol\":4950:4961  legalMember */\n      0x01\n        /* \"DAO.sol\":4950:4973  legalMember[msg.sender] */\n      0x20\n      mstore\n      0x40\n      swap1\n      keccak256\n      sload\n      0xff\n      and\n        /* \"DAO.sol\":4941:5016  require (legalMember[msg.sender], unicode\"Вы не участник DAO!\") */\n      tag_76\n      jumpi\n      mload(0x40)\n      shl(0xe5, 0x461bcd)\n      dup2\n      mstore\n      0x04\n      add\n      tag_65\n      swap1\n      tag_78\n      jump\t// in\n    tag_76:\n        /* \"DAO.sol\":5054:5055  p */\n      dup1\n        /* \"DAO.sol\":5054:5071  p.timeEndProposal */\n      0x04\n      add\n      sload\n        /* \"DAO.sol\":5036:5051  block.timestamp */\n      timestamp\n        /* \"DAO.sol\":5036:5071  block.timestamp < p.timeEndProposal */\n      lt\n        /* \"DAO.sol\":5027:5135  require (block.timestamp < p.timeEndProposal, unicode\"Голосование подошло к концу!\") */\n      tag_79\n      jumpi\n      mload(0x40)\n      shl(0xe5, 0x461bcd)\n      dup2\n      mstore\n      0x04\n      add\n      tag_65\n      swap1\n      tag_81\n      jump\t// in\n    tag_79:\n        /* \"DAO.sol\":5170:5171  p */\n      dup1\n        /* \"DAO.sol\":5170:5184  p.amountVoteNO */\n      0x06\n      add\n      sload\n        /* \"DAO.sol\":5152:5153  p */\n      dup2\n        /* \"DAO.sol\":5152:5167  p.amountVoteYES */\n      0x05\n      add\n      sload\n        /* \"DAO.sol\":5152:5184  p.amountVoteYES > p.amountVoteNO */\n      gt\n        /* \"DAO.sol\":5148:5281  if (p.amountVoteYES > p.amountVoteNO) {... */\n      iszero\n      tag_82\n      jumpi\n        /* \"DAO.sol\":5201:5211  p.accepted */\n      0x07\n      dup2\n      add\n        /* \"DAO.sol\":5201:5218  p.accepted = true */\n      dup1\n      sload\n      not(0xff0000)\n      and\n      0x010000\n      or\n      swap1\n      sstore\n        /* \"DAO.sol\":5148:5281  if (p.amountVoteYES > p.amountVoteNO) {... */\n      jump(tag_83)\n    tag_82:\n        /* \"DAO.sol\":5251:5261  p.accepted */\n      0x07\n      dup2\n      add\n        /* \"DAO.sol\":5251:5269  p.accepted = false */\n      dup1\n      sload\n      not(0xff0000)\n      and\n      swap1\n      sstore\n        /* \"DAO.sol\":5148:5281  if (p.amountVoteYES > p.amountVoteNO) {... */\n    tag_83:\n        /* \"DAO.sol\":5293:5303  p.executed */\n      0x07\n      dup2\n      add\n        /* \"DAO.sol\":5293:5310  p.executed = true */\n      dup1\n      sload\n      not(0xff)\n      and\n        /* \"DAO.sol\":5306:5310  true */\n      0x01\n        /* \"DAO.sol\":5293:5310  p.executed = true */\n      or\n      swap1\n      sstore\n        /* \"DAO.sol\":5328:5369  ProposalExecuted (proposalId, msg.sender) */\n      0x40\n      dup1\n      mload\n        /* \"#utility.yul\":8835:8860   */\n      dup4\n      dup2\n      mstore\n        /* \"DAO.sol\":5358:5368  msg.sender */\n      caller\n        /* \"#utility.yul\":8891:8893   */\n      0x20\n        /* \"#utility.yul\":8876:8894   */\n      dup3\n      add\n        /* \"#utility.yul\":8869:8929   */\n      mstore\n        /* \"DAO.sol\":5328:5369  ProposalExecuted (proposalId, msg.sender) */\n      0x9c85b616f29fca57a17eafe71cf9ff82ffef41766e2cf01ea7f8f7878dd3ec24\n      swap2\n        /* \"#utility.yul\":8808:8826   */\n      add\n        /* \"DAO.sol\":5328:5369  ProposalExecuted (proposalId, msg.sender) */\n    tag_84:\n      mload(0x40)\n      dup1\n      swap2\n      sub\n      swap1\n      log1\n        /* \"DAO.sol\":4460:5377  {... */\n      pop\n        /* \"DAO.sol\":4409:5377  function executeProposal(uint proposalId) external {... */\n      pop\n      jump\t// out\n        /* \"DAO.sol\":629:671  mapping (uint => Proposal) public proposal */\n    tag_27:\n      0x02\n      0x20\n      dup2\n      swap1\n      mstore\n      0x00\n      swap2\n      dup3\n      mstore\n      0x40\n      swap1\n      swap2\n      keccak256\n      dup1\n      sload\n      0x01\n      dup3\n      add\n      sload\n      swap3\n      dup3\n      add\n      dup1\n      sload\n      swap2\n      swap4\n      0xff\n      dup2\n      and\n      swap4\n      0x0100\n      swap1\n      swap2\n      div\n      sub(shl(0xa0, 0x01), 0x01)\n      and\n      swap3\n      swap1\n      swap2\n      swap1\n      tag_86\n      swap1\n      tag_87\n      jump\t// in\n    tag_86:\n      dup1\n      0x1f\n      add\n      0x20\n      dup1\n      swap2\n      div\n      mul\n      0x20\n      add\n      mload(0x40)\n      swap1\n      dup2\n      add\n      0x40\n      mstore\n      dup1\n      swap3\n      swap2\n      swap1\n      dup2\n      dup2\n      mstore\n      0x20\n      add\n      dup3\n      dup1\n      sload\n      tag_88\n      swap1\n      tag_87\n      jump\t// in\n    tag_88:\n      dup1\n      iszero\n      tag_89\n      jumpi\n      dup1\n      0x1f\n      lt\n      tag_90\n      jumpi\n      0x0100\n      dup1\n      dup4\n      sload\n      div\n      mul\n      dup4\n      mstore\n      swap2\n      0x20\n      add\n      swap2\n      jump(tag_89)\n    tag_90:\n      dup3\n      add\n      swap2\n      swap1\n      0x00\n      mstore\n      keccak256(0x00, 0x20)\n      swap1\n    tag_91:\n      dup2\n      sload\n      dup2\n      mstore\n      swap1\n      0x01\n      add\n      swap1\n      0x20\n      add\n      dup1\n      dup4\n      gt\n      tag_91\n      jumpi\n      dup3\n      swap1\n      sub\n      0x1f\n      and\n      dup3\n      add\n      swap2\n    tag_89:\n      pop\n      pop\n      pop\n      0x03\n      dup5\n      add\n      sload\n      0x04\n      dup6\n      add\n      sload\n      0x05\n      dup7\n      add\n      sload\n      0x06\n      dup8\n      add\n      sload\n      0x07\n      swap1\n      swap8\n      add\n      sload\n      swap6\n      swap7\n      swap3\n      swap6\n      swap2\n      swap5\n      pop\n      swap3\n      pop\n      0xff\n      dup1\n      dup3\n      and\n      swap2\n      0x0100\n      dup2\n      div\n      dup3\n      and\n      swap2\n      0x010000\n      swap1\n      swap2\n      div\n      and\n      dup12\n      jump\t// out\n        /* \"DAO.sol\":744:768  address[] public members */\n    tag_41:\n      0x04\n      dup2\n      dup2\n      sload\n      dup2\n      lt\n      tag_92\n      jumpi\n      0x00\n      dup1\n      revert\n    tag_92:\n      0x00\n      swap2\n      dup3\n      mstore\n      0x20\n      swap1\n      swap2\n      keccak256\n      add\n      sload\n      sub(shl(0xa0, 0x01), 0x01)\n      and\n      swap1\n      pop\n      dup2\n      jump\t// out\n        /* \"DAO.sol\":3581:4401  function deleteProposal(uint proposalId) external {... */\n    tag_46:\n        /* \"DAO.sol\":3691:3692  0 */\n      0x00\n        /* \"DAO.sol\":3651:3671  proposal[proposalId] */\n      dup2\n      dup2\n      mstore\n        /* \"DAO.sol\":3651:3659  proposal */\n      0x02\n        /* \"DAO.sol\":3651:3671  proposal[proposalId] */\n      0x20\n      mstore\n      0x40\n      swap1\n      keccak256\n        /* \"DAO.sol\":3651:3679  proposal[proposalId].creator */\n      0x01\n      add\n      sload\n      0x0100\n      swap1\n      div\n      sub(shl(0xa0, 0x01), 0x01)\n      and\n        /* \"DAO.sol\":3642:3754  require (proposal[proposalId].creator != address(0), unicode\"Голосования не существует!\") */\n      tag_95\n      jumpi\n      mload(0x40)\n      shl(0xe5, 0x461bcd)\n      dup2\n      mstore\n      0x04\n      add\n      tag_65\n      swap1\n      tag_66\n      jump\t// in\n    tag_95:\n        /* \"DAO.sol\":3774:3794  proposal[proposalId] */\n      0x00\n      dup2\n      dup2\n      mstore\n        /* \"DAO.sol\":3774:3782  proposal */\n      0x02\n        /* \"DAO.sol\":3774:3794  proposal[proposalId] */\n      0x20\n      mstore\n      0x40\n      swap1\n      keccak256\n        /* \"DAO.sol\":3774:3802  proposal[proposalId].creator */\n      0x01\n      add\n      sload\n      0x0100\n      swap1\n      div\n      sub(shl(0xa0, 0x01), 0x01)\n      and\n        /* \"DAO.sol\":3806:3816  msg.sender */\n      caller\n        /* \"DAO.sol\":3774:3816  proposal[proposalId].creator == msg.sender */\n      eq\n        /* \"DAO.sol\":3765:3880  require (proposal[proposalId].creator == msg.sender, unicode\"Вы не создатель голосования!\") */\n      tag_97\n      jumpi\n      mload(0x40)\n      shl(0xe5, 0x461bcd)\n      dup2\n      mstore\n      0x04\n      add\n      tag_65\n      swap1\n      tag_69\n      jump\t// in\n    tag_97:\n        /* \"DAO.sol\":3893:3911  Proposal storage p */\n      0x00\n        /* \"DAO.sol\":3914:3934  proposal[proposalId] */\n      dup2\n      dup2\n      mstore\n        /* \"DAO.sol\":3914:3922  proposal */\n      0x02\n        /* \"DAO.sol\":3914:3934  proposal[proposalId] */\n      0x20\n      mstore\n      0x40\n      swap1\n      keccak256\n        /* \"DAO.sol\":3957:3967  p.executed */\n      0x07\n      dup2\n      add\n      sload\n      0xff\n      and\n        /* \"DAO.sol\":3956:3967  !p.executed */\n      iszero\n        /* \"DAO.sol\":3947:4021  require (!p.executed, unicode\"Голосование завершено!\") */\n      tag_99\n      jumpi\n      mload(0x40)\n      shl(0xe5, 0x461bcd)\n      dup2\n      mstore\n      0x04\n      add\n      tag_65\n      swap1\n      tag_72\n      jump\t// in\n    tag_99:\n        /* \"DAO.sol\":4042:4051  p.deleted */\n      0x07\n      dup2\n      add\n      sload\n      0x0100\n      swap1\n      div\n      0xff\n      and\n        /* \"DAO.sol\":4041:4051  !p.deleted */\n      iszero\n        /* \"DAO.sol\":4032:4101  require (!p.deleted, unicode\"Голосование удалено!\") */\n      tag_101\n      jumpi\n      mload(0x40)\n      shl(0xe5, 0x461bcd)\n      dup2\n      mstore\n      0x04\n      add\n      tag_65\n      swap1\n      tag_75\n      jump\t// in\n    tag_101:\n        /* \"DAO.sol\":4133:4143  msg.sender */\n      caller\n        /* \"DAO.sol\":4121:4144  legalMember[msg.sender] */\n      0x00\n      swap1\n      dup2\n      mstore\n        /* \"DAO.sol\":4121:4132  legalMember */\n      0x01\n        /* \"DAO.sol\":4121:4144  legalMember[msg.sender] */\n      0x20\n      mstore\n      0x40\n      swap1\n      keccak256\n      sload\n      0xff\n      and\n        /* \"DAO.sol\":4112:4187  require (legalMember[msg.sender], unicode\"Вы не участник DAO!\") */\n      tag_103\n      jumpi\n      mload(0x40)\n      shl(0xe5, 0x461bcd)\n      dup2\n      mstore\n      0x04\n      add\n      tag_65\n      swap1\n      tag_78\n      jump\t// in\n    tag_103:\n        /* \"DAO.sol\":4225:4226  p */\n      dup1\n        /* \"DAO.sol\":4225:4242  p.timeEndProposal */\n      0x04\n      add\n      sload\n        /* \"DAO.sol\":4207:4222  block.timestamp */\n      timestamp\n        /* \"DAO.sol\":4207:4242  block.timestamp < p.timeEndProposal */\n      lt\n        /* \"DAO.sol\":4198:4306  require (block.timestamp < p.timeEndProposal, unicode\"Голосование подошло к концу!\") */\n      tag_105\n      jumpi\n      mload(0x40)\n      shl(0xe5, 0x461bcd)\n      dup2\n      mstore\n      0x04\n      add\n      tag_65\n      swap1\n      tag_81\n      jump\t// in\n    tag_105:\n        /* \"DAO.sol\":4319:4328  p.deleted */\n      0x07\n      dup2\n      add\n        /* \"DAO.sol\":4319:4335  p.deleted = true */\n      dup1\n      sload\n      not(0xff00)\n      and\n      0x0100\n      or\n      swap1\n      sstore\n        /* \"DAO.sol\":4353:4393  ProposalDeleted (proposalId, msg.sender) */\n      0x40\n      dup1\n      mload\n        /* \"#utility.yul\":8835:8860   */\n      dup4\n      dup2\n      mstore\n        /* \"DAO.sol\":4382:4392  msg.sender */\n      caller\n        /* \"#utility.yul\":8891:8893   */\n      0x20\n        /* \"#utility.yul\":8876:8894   */\n      dup3\n      add\n        /* \"#utility.yul\":8869:8929   */\n      mstore\n        /* \"DAO.sol\":4353:4393  ProposalDeleted (proposalId, msg.sender) */\n      0x1cc72b66a90edbd83fa35ab712a40da76a0c42a438f11122f8f9fc7fa0f07a15\n      swap2\n        /* \"#utility.yul\":8808:8826   */\n      add\n        /* \"DAO.sol\":4353:4393  ProposalDeleted (proposalId, msg.sender) */\n      tag_84\n        /* \"#utility.yul\":8661:8935   */\n      jump\n        /* \"DAO.sol\":1491:2344  function createProposal(TypeProposal _proposalType, uint votingDuration, string memory _description) external {... */\n    tag_54:\n        /* \"DAO.sol\":1633:1643  msg.sender */\n      caller\n        /* \"DAO.sol\":1621:1644  legalMember[msg.sender] */\n      0x00\n      swap1\n      dup2\n      mstore\n        /* \"DAO.sol\":1621:1632  legalMember */\n      0x01\n        /* \"DAO.sol\":1621:1644  legalMember[msg.sender] */\n      0x20\n      mstore\n      0x40\n      swap1\n      keccak256\n      sload\n      0xff\n      and\n        /* \"DAO.sol\":1612:1687  require (legalMember[msg.sender], unicode\"Вы не участник DAO!\") */\n      tag_109\n      jumpi\n      mload(0x40)\n      shl(0xe5, 0x461bcd)\n      dup2\n      mstore\n      0x04\n      add\n      tag_65\n      swap1\n      tag_78\n      jump\t// in\n    tag_109:\n        /* \"DAO.sol\":1721:1736  block.timestamp */\n      timestamp\n        /* \"DAO.sol\":1700:1718  uint startProposal */\n      0x00\n        /* \"DAO.sol\":1766:1796  startProposal + votingDuration */\n      tag_111\n        /* \"DAO.sol\":1782:1796  votingDuration */\n      dup5\n        /* \"DAO.sol\":1721:1736  block.timestamp */\n      dup4\n        /* \"DAO.sol\":1766:1796  startProposal + votingDuration */\n      tag_112\n      jump\t// in\n    tag_111:\n        /* \"DAO.sol\":1819:1835  proposalsCounter */\n      0x05\n        /* \"DAO.sol\":1819:1837  proposalsCounter++ */\n      dup1\n      sload\n        /* \"DAO.sol\":1747:1796  uint endProposal = startProposal + votingDuration */\n      swap2\n      swap3\n      pop\n        /* \"DAO.sol\":1809:1816  uint id */\n      0x00\n      swap2\n        /* \"DAO.sol\":1819:1837  proposalsCounter++ */\n      swap1\n        /* \"DAO.sol\":1809:1816  uint id */\n      dup3\n        /* \"DAO.sol\":1819:1837  proposalsCounter++ */\n      tag_113\n      dup4\n      tag_114\n      jump\t// in\n    tag_113:\n      swap2\n      swap1\n      pop\n      sstore\n        /* \"DAO.sol\":1809:1837  uint id = proposalsCounter++ */\n      swap1\n      pop\n        /* \"DAO.sol\":1865:2271  Proposal({... */\n      mload(0x40)\n      dup1\n      0x0160\n      add\n      0x40\n      mstore\n      dup1\n        /* \"DAO.sol\":1901:1903  id */\n      dup3\n        /* \"DAO.sol\":1865:2271  Proposal({... */\n      dup2\n      mstore\n      0x20\n      add\n        /* \"DAO.sol\":1932:1945  _proposalType */\n      dup8\n        /* \"DAO.sol\":1865:2271  Proposal({... */\n      0x04\n      dup2\n      gt\n      iszero\n      tag_116\n      jumpi\n      tag_116\n      tag_117\n      jump\t// in\n    tag_116:\n      dup2\n      mstore\n        /* \"DAO.sol\":1969:1979  msg.sender */\n      caller\n        /* \"DAO.sol\":1865:2271  Proposal({... */\n      0x20\n      dup1\n      dup4\n      add\n      swap2\n      swap1\n      swap2\n      mstore\n      0x40\n      dup1\n      dup4\n      add\n      dup9\n      swap1\n      mstore\n      0x60\n      dup4\n      add\n      dup8\n      swap1\n      mstore\n      0x80\n      dup4\n      add\n      dup7\n      swap1\n      mstore\n      0x00\n      0xa0\n      dup5\n      add\n      dup2\n      swap1\n      mstore\n      0xc0\n      dup5\n      add\n      dup2\n      swap1\n      mstore\n      0xe0\n      dup5\n      add\n      dup2\n      swap1\n      mstore\n      0x0100\n      dup5\n      add\n      dup2\n      swap1\n      mstore\n      0x0120\n      swap1\n      swap4\n      add\n      dup4\n      swap1\n      mstore\n        /* \"DAO.sol\":1850:1862  proposal[id] */\n      dup5\n      dup4\n      mstore\n        /* \"DAO.sol\":1850:1858  proposal */\n      0x02\n        /* \"DAO.sol\":1850:1862  proposal[id] */\n      dup3\n      mstore\n      swap1\n      swap2\n      keccak256\n        /* \"DAO.sol\":1850:2271  proposal[id] = Proposal({... */\n      dup3\n      mload\n      dup2\n      sstore\n      swap1\n      dup3\n      add\n      mload\n        /* \"DAO.sol\":1865:2271  Proposal({... */\n      0x01\n        /* \"DAO.sol\":1850:2271  proposal[id] = Proposal({... */\n      dup3\n      dup2\n      add\n      dup1\n      sload\n      swap1\n      swap2\n      not(0xff)\n      swap2\n      swap1\n      swap2\n      and\n      swap1\n      dup4\n      0x04\n      dup2\n      gt\n      iszero\n      tag_119\n      jumpi\n      tag_119\n      tag_117\n      jump\t// in\n    tag_119:\n      mul\n      or\n      swap1\n      sstore\n      pop\n      0x40\n      dup3\n      add\n      mload\n      0x01\n      dup3\n      add\n      dup1\n      sload\n      sub(shl(0xa0, 0x01), 0x01)\n      swap1\n      swap3\n      and\n      0x0100\n      mul\n      not(sub(shl(0xa8, 0x01), 0x0100))\n      swap1\n      swap3\n      and\n      swap2\n      swap1\n      swap2\n      or\n      swap1\n      sstore\n      0x60\n      dup3\n      add\n      mload\n      0x02\n      dup3\n      add\n      swap1\n      tag_120\n      swap1\n      dup3\n      tag_121\n      jump\t// in\n    tag_120:\n      pop\n      0x80\n      dup3\n      add\n      mload\n      0x03\n      dup3\n      add\n      sstore\n      0xa0\n      dup3\n      add\n      mload\n      0x04\n      dup3\n      add\n      sstore\n      0xc0\n      dup3\n      add\n      mload\n      0x05\n      dup3\n      add\n      sstore\n      0xe0\n      dup3\n      add\n      mload\n      0x06\n      dup3\n      add\n      sstore\n      0x0100\n      dup1\n      dup4\n      add\n      mload\n      0x07\n      swap1\n      swap3\n      add\n      dup1\n      sload\n      0x0120\n      dup6\n      add\n      mload\n      0x0140\n      swap1\n      swap6\n      add\n      mload\n      not(0xffff)\n      swap1\n      swap2\n      and\n      swap4\n      iszero\n      iszero\n      not(0xff00)\n      and\n      swap4\n      swap1\n      swap4\n      or\n      swap4\n      iszero\n      iszero\n      swap1\n      swap2\n      mul\n      swap3\n      swap1\n      swap3\n      or\n      not(0xff0000)\n      and\n      0x010000\n      swap2\n      iszero\n      iszero\n      swap2\n      swap1\n      swap2\n      mul\n      or\n      swap1\n      sstore\n        /* \"DAO.sol\":2289:2336  ProposalCreated (id, msg.sender, _proposalType) */\n      mload(0x40)\n      0x876b000c101c27e7aaff6a3254ea503d0e9bf516112d43803bd82989b1355235\n      swap1\n      tag_122\n      swap1\n        /* \"DAO.sol\":2306:2308  id */\n      dup4\n      swap1\n        /* \"DAO.sol\":2310:2320  msg.sender */\n      caller\n      swap1\n        /* \"DAO.sol\":2322:2335  _proposalType */\n      dup11\n      swap1\n        /* \"DAO.sol\":2289:2336  ProposalCreated (id, msg.sender, _proposalType) */\n      tag_123\n      jump\t// in\n    tag_122:\n      mload(0x40)\n      dup1\n      swap2\n      sub\n      swap1\n      log1\n        /* \"DAO.sol\":1601:2344  {... */\n      pop\n      pop\n      pop\n        /* \"DAO.sol\":1491:2344  function createProposal(TypeProposal _proposalType, uint votingDuration, string memory _description) external {... */\n      pop\n      pop\n      pop\n      jump\t// out\n        /* \"DAO.sol\":2352:3573  function vote(uint proposalId, bool _vote) external {... */\n    tag_58:\n        /* \"DAO.sol\":2464:2465  0 */\n      0x00\n        /* \"DAO.sol\":2424:2444  proposal[proposalId] */\n      dup3\n      dup2\n      mstore\n        /* \"DAO.sol\":2424:2432  proposal */\n      0x02\n        /* \"DAO.sol\":2424:2444  proposal[proposalId] */\n      0x20\n      mstore\n      0x40\n      swap1\n      keccak256\n        /* \"DAO.sol\":2424:2452  proposal[proposalId].creator */\n      0x01\n      add\n      sload\n      0x0100\n      swap1\n      div\n      sub(shl(0xa0, 0x01), 0x01)\n      and\n        /* \"DAO.sol\":2415:2527  require (proposal[proposalId].creator != address(0), unicode\"Голосования не существует!\") */\n      tag_125\n      jumpi\n      mload(0x40)\n      shl(0xe5, 0x461bcd)\n      dup2\n      mstore\n      0x04\n      add\n      tag_65\n      swap1\n      tag_66\n      jump\t// in\n    tag_125:\n        /* \"DAO.sol\":2540:2558  Proposal storage p */\n      0x00\n        /* \"DAO.sol\":2561:2581  proposal[proposalId] */\n      dup3\n      dup2\n      mstore\n        /* \"DAO.sol\":2561:2569  proposal */\n      0x02\n        /* \"DAO.sol\":2561:2581  proposal[proposalId] */\n      0x20\n      mstore\n      0x40\n      swap1\n      keccak256\n        /* \"DAO.sol\":2604:2614  p.executed */\n      0x07\n      dup2\n      add\n      sload\n      0xff\n      and\n        /* \"DAO.sol\":2603:2614  !p.executed */\n      iszero\n        /* \"DAO.sol\":2594:2668  require (!p.executed, unicode\"Голосование завершено!\") */\n      tag_127\n      jumpi\n      mload(0x40)\n      shl(0xe5, 0x461bcd)\n      dup2\n      mstore\n      0x04\n      add\n      tag_65\n      swap1\n      tag_72\n      jump\t// in\n    tag_127:\n        /* \"DAO.sol\":2689:2698  p.deleted */\n      0x07\n      dup2\n      add\n      sload\n      0x0100\n      swap1\n      div\n      0xff\n      and\n        /* \"DAO.sol\":2688:2698  !p.deleted */\n      iszero\n        /* \"DAO.sol\":2679:2748  require (!p.deleted, unicode\"Голосование удалено!\") */\n      tag_129\n      jumpi\n      mload(0x40)\n      shl(0xe5, 0x461bcd)\n      dup2\n      mstore\n      0x04\n      add\n      tag_65\n      swap1\n      tag_75\n      jump\t// in\n    tag_129:\n        /* \"DAO.sol\":2769:2789  hasVoted[proposalId] */\n      0x00\n      dup4\n      dup2\n      mstore\n        /* \"DAO.sol\":2769:2777  hasVoted */\n      0x03\n        /* \"DAO.sol\":2769:2789  hasVoted[proposalId] */\n      0x20\n      swap1\n      dup2\n      mstore\n      0x40\n      dup1\n      dup4\n      keccak256\n        /* \"DAO.sol\":2790:2800  msg.sender */\n      caller\n        /* \"DAO.sol\":2769:2801  hasVoted[proposalId][msg.sender] */\n      dup5\n      mstore\n      swap1\n      swap2\n      mstore\n      swap1\n      keccak256\n      sload\n      0xff\n      and\n        /* \"DAO.sol\":2768:2801  !hasVoted[proposalId][msg.sender] */\n      iszero\n        /* \"DAO.sol\":2759:2849  require (!hasVoted[proposalId][msg.sender], unicode\"Ваш голос уже учтен!\") */\n      tag_131\n      jumpi\n      mload(0x40)\n      shl(0xe5, 0x461bcd)\n      dup2\n      mstore\n        /* \"#utility.yul\":12437:12439   */\n      0x20\n        /* \"DAO.sol\":2759:2849  require (!hasVoted[proposalId][msg.sender], unicode\"Ваш голос уже учтен!\") */\n      0x04\n      dup3\n      add\n        /* \"#utility.yul\":12419:12440   */\n      mstore\n        /* \"#utility.yul\":12476:12478   */\n      0x24\n        /* \"#utility.yul\":12456:12474   */\n      dup1\n      dup3\n      add\n        /* \"#utility.yul\":12449:12479   */\n      mstore\n        /* \"#utility.yul\":12515:12581   */\n      0xd092d0b0d18820d0b3d0bed0bbd0bed18120d183d0b6d0b520d183d187d182d0\n        /* \"#utility.yul\":12495:12513   */\n      0x44\n      dup3\n      add\n        /* \"#utility.yul\":12488:12582   */\n      mstore\n      shl(0xe0, 0xb5d0bd21)\n        /* \"#utility.yul\":12598:12616   */\n      0x64\n      dup3\n      add\n        /* \"#utility.yul\":12591:12639   */\n      mstore\n        /* \"#utility.yul\":12656:12675   */\n      0x84\n      add\n        /* \"DAO.sol\":2759:2849  require (!hasVoted[proposalId][msg.sender], unicode\"Ваш голос уже учтен!\") */\n      tag_65\n        /* \"#utility.yul\":12235:12681   */\n      jump\n        /* \"DAO.sol\":2759:2849  require (!hasVoted[proposalId][msg.sender], unicode\"Ваш голос уже учтен!\") */\n    tag_131:\n        /* \"DAO.sol\":2881:2891  msg.sender */\n      caller\n        /* \"DAO.sol\":2869:2892  legalMember[msg.sender] */\n      0x00\n      swap1\n      dup2\n      mstore\n        /* \"DAO.sol\":2869:2880  legalMember */\n      0x01\n        /* \"DAO.sol\":2869:2892  legalMember[msg.sender] */\n      0x20\n      mstore\n      0x40\n      swap1\n      keccak256\n      sload\n      0xff\n      and\n        /* \"DAO.sol\":2860:2935  require (legalMember[msg.sender], unicode\"Вы не участник DAO!\") */\n      tag_134\n      jumpi\n      mload(0x40)\n      shl(0xe5, 0x461bcd)\n      dup2\n      mstore\n      0x04\n      add\n      tag_65\n      swap1\n      tag_78\n      jump\t// in\n    tag_134:\n        /* \"DAO.sol\":2973:2974  p */\n      dup1\n        /* \"DAO.sol\":2973:2990  p.timeEndProposal */\n      0x04\n      add\n      sload\n        /* \"DAO.sol\":2955:2970  block.timestamp */\n      timestamp\n        /* \"DAO.sol\":2955:2990  block.timestamp < p.timeEndProposal */\n      lt\n        /* \"DAO.sol\":2946:3054  require (block.timestamp < p.timeEndProposal, unicode\"Голосование подошло к концу!\") */\n      tag_136\n      jumpi\n      mload(0x40)\n      shl(0xe5, 0x461bcd)\n      dup2\n      mstore\n      0x04\n      add\n      tag_65\n      swap1\n      tag_81\n      jump\t// in\n    tag_136:\n        /* \"DAO.sol\":3067:3083  uint userBalance */\n      0x00\n        /* \"DAO.sol\":3086:3091  PROFI */\n      dup1\n      sload\n        /* \"DAO.sol\":3086:3113  PROFI.balanceOf(msg.sender) */\n      mload(0x40)\n      shl(0xe0, 0x70a08231)\n      dup2\n      mstore\n        /* \"DAO.sol\":3102:3112  msg.sender */\n      caller\n        /* \"DAO.sol\":3086:3113  PROFI.balanceOf(msg.sender) */\n      0x04\n      dup3\n      add\n        /* \"#utility.yul\":2966:3017   */\n      mstore\n      sub(shl(0xa0, 0x01), 0x01)\n        /* \"DAO.sol\":3086:3091  PROFI */\n      swap1\n      swap2\n      and\n      swap1\n        /* \"DAO.sol\":3086:3101  PROFI.balanceOf */\n      0x70a08231\n      swap1\n        /* \"#utility.yul\":2939:2957   */\n      0x24\n      add\n        /* \"DAO.sol\":3086:3113  PROFI.balanceOf(msg.sender) */\n      0x20\n      mload(0x40)\n      dup1\n      dup4\n      sub\n      dup2\n      dup7\n      gas\n      staticcall\n      iszero\n      dup1\n      iszero\n      tag_140\n      jumpi\n      returndatacopy(0x00, 0x00, returndatasize)\n      revert(0x00, returndatasize)\n    tag_140:\n      pop\n      pop\n      pop\n      pop\n      mload(0x40)\n      returndatasize\n      not(0x1f)\n      0x1f\n      dup3\n      add\n      and\n      dup3\n      add\n      dup1\n      0x40\n      mstore\n      pop\n      dup2\n      add\n      swap1\n      tag_141\n      swap2\n      swap1\n      tag_142\n      jump\t// in\n    tag_141:\n        /* \"DAO.sol\":3067:3113  uint userBalance = PROFI.balanceOf(msg.sender) */\n      swap1\n      pop\n        /* \"DAO.sol\":3147:3148  0 */\n      0x00\n        /* \"DAO.sol\":3133:3144  userBalance */\n      dup2\n        /* \"DAO.sol\":3133:3148  userBalance > 0 */\n      gt\n        /* \"DAO.sol\":3124:3210  require (userBalance > 0, unicode\"У вас недостаточно токенов!\") */\n      tag_143\n      jumpi\n      mload(0x40)\n      shl(0xe5, 0x461bcd)\n      dup2\n      mstore\n        /* \"#utility.yul\":13077:13079   */\n      0x20\n        /* \"DAO.sol\":3124:3210  require (userBalance > 0, unicode\"У вас недостаточно токенов!\") */\n      0x04\n      dup3\n      add\n        /* \"#utility.yul\":13059:13080   */\n      mstore\n        /* \"#utility.yul\":13116:13118   */\n      0x32\n        /* \"#utility.yul\":13096:13114   */\n      0x24\n      dup3\n      add\n        /* \"#utility.yul\":13089:13119   */\n      mstore\n        /* \"#utility.yul\":13155:13221   */\n      0xd0a320d0b2d0b0d18120d0bdd0b5d0b4d0bed181d182d0b0d182d0bed187d0bd\n        /* \"#utility.yul\":13135:13153   */\n      0x44\n      dup3\n      add\n        /* \"#utility.yul\":13128:13222   */\n      mstore\n      shl(0x70, 0xd0be20d182d0bed0bad0b5d0bdd0bed0b221)\n        /* \"#utility.yul\":13238:13256   */\n      0x64\n      dup3\n      add\n        /* \"#utility.yul\":13231:13307   */\n      mstore\n        /* \"#utility.yul\":13324:13343   */\n      0x84\n      add\n        /* \"DAO.sol\":3124:3210  require (userBalance > 0, unicode\"У вас недостаточно токенов!\") */\n      tag_65\n        /* \"#utility.yul\":12875:13349   */\n      jump\n        /* \"DAO.sol\":3124:3210  require (userBalance > 0, unicode\"У вас недостаточно токенов!\") */\n    tag_143:\n        /* \"DAO.sol\":3231:3236  PROFI */\n      sload(0x00)\n        /* \"DAO.sol\":3231:3275  PROFI.transfer(address(this), 1000000000000) */\n      mload(0x40)\n      shl(0xe0, 0xa9059cbb)\n      dup2\n      mstore\n        /* \"DAO.sol\":3254:3258  this */\n      address\n        /* \"DAO.sol\":3231:3275  PROFI.transfer(address(this), 1000000000000) */\n      0x04\n      dup3\n      add\n        /* \"#utility.yul\":13548:13599   */\n      mstore\n        /* \"DAO.sol\":3261:3274  1000000000000 */\n      0xe8d4a51000\n        /* \"#utility.yul\":13615:13633   */\n      0x24\n      dup3\n      add\n        /* \"#utility.yul\":13608:13642   */\n      mstore\n      sub(shl(0xa0, 0x01), 0x01)\n        /* \"DAO.sol\":3231:3236  PROFI */\n      swap1\n      swap2\n      and\n      swap1\n        /* \"DAO.sol\":3231:3245  PROFI.transfer */\n      0xa9059cbb\n      swap1\n        /* \"#utility.yul\":13521:13539   */\n      0x44\n      add\n        /* \"DAO.sol\":3231:3275  PROFI.transfer(address(this), 1000000000000) */\n      0x20\n      mload(0x40)\n      dup1\n      dup4\n      sub\n      dup2\n      0x00\n      dup8\n      gas\n      call\n      iszero\n      dup1\n      iszero\n      tag_149\n      jumpi\n      returndatacopy(0x00, 0x00, returndatasize)\n      revert(0x00, returndatasize)\n    tag_149:\n      pop\n      pop\n      pop\n      pop\n      mload(0x40)\n      returndatasize\n      not(0x1f)\n      0x1f\n      dup3\n      add\n      and\n      dup3\n      add\n      dup1\n      0x40\n      mstore\n      pop\n      dup2\n      add\n      swap1\n      tag_150\n      swap2\n      swap1\n      tag_151\n      jump\t// in\n    tag_150:\n        /* \"DAO.sol\":3223:3332  require(PROFI.transfer(address(this), 1000000000000), unicode\"Ошибка списания токенов!\") */\n      tag_152\n      jumpi\n      mload(0x40)\n      shl(0xe5, 0x461bcd)\n      dup2\n      mstore\n        /* \"#utility.yul\":14105:14107   */\n      0x20\n        /* \"DAO.sol\":3223:3332  require(PROFI.transfer(address(this), 1000000000000), unicode\"Ошибка списания токенов!\") */\n      0x04\n      dup3\n      add\n        /* \"#utility.yul\":14087:14108   */\n      mstore\n        /* \"#utility.yul\":14144:14146   */\n      0x2d\n        /* \"#utility.yul\":14124:14142   */\n      0x24\n      dup3\n      add\n        /* \"#utility.yul\":14117:14147   */\n      mstore\n        /* \"#utility.yul\":14183:14249   */\n      0xd09ed188d0b8d0b1d0bad0b020d181d0bfd0b8d181d0b0d0bdd0b8d18f20d182\n        /* \"#utility.yul\":14163:14181   */\n      0x44\n      dup3\n      add\n        /* \"#utility.yul\":14156:14250   */\n      mstore\n      shl(0x98, 0xd0bed0bad0b5d0bdd0bed0b221)\n        /* \"#utility.yul\":14266:14284   */\n      0x64\n      dup3\n      add\n        /* \"#utility.yul\":14259:14325   */\n      mstore\n        /* \"#utility.yul\":14342:14361   */\n      0x84\n      add\n        /* \"DAO.sol\":3223:3332  require(PROFI.transfer(address(this), 1000000000000), unicode\"Ошибка списания токенов!\") */\n      tag_65\n        /* \"#utility.yul\":13903:14367   */\n      jump\n        /* \"DAO.sol\":3223:3332  require(PROFI.transfer(address(this), 1000000000000), unicode\"Ошибка списания токенов!\") */\n    tag_152:\n        /* \"DAO.sol\":3349:3354  _vote */\n      dup3\n        /* \"DAO.sol\":3345:3451  if (_vote) {... */\n      iszero\n      tag_155\n      jumpi\n        /* \"DAO.sol\":3371:3386  p.amountVoteYES */\n      0x05\n      dup3\n      add\n        /* \"DAO.sol\":3371:3389  p.amountVoteYES ++ */\n      dup1\n      sload\n      swap1\n        /* \"DAO.sol\":3371:3386  p.amountVoteYES */\n      0x00\n        /* \"DAO.sol\":3371:3389  p.amountVoteYES ++ */\n      tag_156\n      dup4\n      tag_114\n      jump\t// in\n    tag_156:\n      swap2\n      swap1\n      pop\n      sstore\n      pop\n        /* \"DAO.sol\":3345:3451  if (_vote) {... */\n      jump(tag_157)\n    tag_155:\n        /* \"DAO.sol\":3422:3436  p.amountVoteNO */\n      0x06\n      dup3\n      add\n        /* \"DAO.sol\":3422:3439  p.amountVoteNO ++ */\n      dup1\n      sload\n      swap1\n        /* \"DAO.sol\":3422:3436  p.amountVoteNO */\n      0x00\n        /* \"DAO.sol\":3422:3439  p.amountVoteNO ++ */\n      tag_158\n      dup4\n      tag_114\n      jump\t// in\n    tag_158:\n      swap2\n      swap1\n      pop\n      sstore\n      pop\n        /* \"DAO.sol\":3345:3451  if (_vote) {... */\n    tag_157:\n        /* \"DAO.sol\":3463:3483  hasVoted[proposalId] */\n      0x00\n      dup5\n      dup2\n      mstore\n        /* \"DAO.sol\":3463:3471  hasVoted */\n      0x03\n        /* \"DAO.sol\":3463:3483  hasVoted[proposalId] */\n      0x20\n      swap1\n      dup2\n      mstore\n      0x40\n      dup1\n      dup4\n      keccak256\n        /* \"DAO.sol\":3484:3494  msg.sender */\n      caller\n        /* \"DAO.sol\":3463:3495  hasVoted[proposalId][msg.sender] */\n      dup1\n      dup6\n      mstore\n      swap1\n      dup4\n      mstore\n      swap3\n      dup2\n      swap1\n      keccak256\n        /* \"DAO.sol\":3463:3502  hasVoted[proposalId][msg.sender] = true */\n      dup1\n      sload\n      not(0xff)\n      and\n        /* \"DAO.sol\":3498:3502  true */\n      0x01\n        /* \"DAO.sol\":3463:3502  hasVoted[proposalId][msg.sender] = true */\n      or\n      swap1\n      sstore\n        /* \"DAO.sol\":3528:3565  Voted (proposalId, msg.sender, _vote) */\n      dup1\n      mload\n        /* \"#utility.yul\":14568:14593   */\n      dup8\n      dup2\n      mstore\n        /* \"#utility.yul\":14609:14627   */\n      swap2\n      dup3\n      add\n        /* \"#utility.yul\":14602:14662   */\n      swap3\n      swap1\n      swap3\n      mstore\n        /* \"#utility.yul\":14705:14719   */\n      dup5\n      iszero\n        /* \"#utility.yul\":14698:14720   */\n      iszero\n        /* \"#utility.yul\":14678:14696   */\n      dup2\n      dup4\n      add\n        /* \"#utility.yul\":14671:14721   */\n      mstore\n        /* \"DAO.sol\":3528:3565  Voted (proposalId, msg.sender, _vote) */\n      swap1\n      mload\n      0xf2913dbe661ee2acc4a046d8fbcdc792373bda34c41c6086484b5345e5785e5f\n      swap2\n        /* \"#utility.yul\":14556:14558   */\n      0x60\n        /* \"DAO.sol\":3528:3565  Voted (proposalId, msg.sender, _vote) */\n      swap1\n      dup3\n      swap1\n      sub\n      add\n      swap1\n      log1\n        /* \"DAO.sol\":2404:3573  {... */\n      pop\n      pop\n        /* \"DAO.sol\":2352:3573  function vote(uint proposalId, bool _vote) external {... */\n      pop\n      pop\n      jump\t// out\n        /* \"DAO.sol\":5385:5615  function showMembers() public view returns (address[] memory) {... */\n    tag_60:\n        /* \"DAO.sol\":5478:5488  msg.sender */\n      caller\n        /* \"DAO.sol\":5466:5489  legalMember[msg.sender] */\n      0x00\n      swap1\n      dup2\n      mstore\n        /* \"DAO.sol\":5466:5477  legalMember */\n      0x01\n        /* \"DAO.sol\":5466:5489  legalMember[msg.sender] */\n      0x20\n      mstore\n      0x40\n      swap1\n      keccak256\n      sload\n        /* \"DAO.sol\":5429:5445  address[] memory */\n      0x60\n      swap1\n        /* \"DAO.sol\":5466:5489  legalMember[msg.sender] */\n      0xff\n      and\n        /* \"DAO.sol\":5458:5582  require(legalMember[msg.sender], unicode\"Только участники DAO могут посмотреть список!\") */\n      tag_162\n      jumpi\n      mload(0x40)\n      shl(0xe5, 0x461bcd)\n      dup2\n      mstore\n        /* \"#utility.yul\":14934:14936   */\n      0x20\n        /* \"DAO.sol\":5458:5582  require(legalMember[msg.sender], unicode\"Только участники DAO могут посмотреть список!\") */\n      0x04\n      dup3\n      add\n        /* \"#utility.yul\":14916:14937   */\n      mstore\n        /* \"#utility.yul\":14973:14975   */\n      0x51\n        /* \"#utility.yul\":14953:14971   */\n      0x24\n      dup3\n      add\n        /* \"#utility.yul\":14946:14976   */\n      mstore\n        /* \"#utility.yul\":15012:15078   */\n      0xd0a2d0bed0bbd18cd0bad0be20d183d187d0b0d181d182d0bdd0b8d0bad0b820\n        /* \"#utility.yul\":14992:15010   */\n      0x44\n      dup3\n      add\n        /* \"#utility.yul\":14985:15079   */\n      mstore\n        /* \"#utility.yul\":15115:15181   */\n      0x44414f20d0bcd0bed0b3d183d18220d0bfd0bed181d0bcd0bed182d180d0b5d1\n        /* \"#utility.yul\":15095:15113   */\n      0x64\n      dup3\n      add\n        /* \"#utility.yul\":15088:15182   */\n      mstore\n      shl(0x78, 0x82d18c20d181d0bfd0b8d181d0bed0ba21)\n        /* \"#utility.yul\":15198:15217   */\n      0x84\n      dup3\n      add\n        /* \"#utility.yul\":15191:15266   */\n      mstore\n        /* \"#utility.yul\":15283:15302   */\n      0xa4\n      add\n        /* \"DAO.sol\":5458:5582  require(legalMember[msg.sender], unicode\"Только участники DAO могут посмотреть список!\") */\n      tag_65\n        /* \"#utility.yul\":14732:15308   */\n      jump\n        /* \"DAO.sol\":5458:5582  require(legalMember[msg.sender], unicode\"Только участники DAO могут посмотреть список!\") */\n    tag_162:\n        /* \"DAO.sol\":5600:5607  members */\n      0x04\n        /* \"DAO.sol\":5593:5607  return members */\n      dup1\n      sload\n      dup1\n      0x20\n      mul\n      0x20\n      add\n      mload(0x40)\n      swap1\n      dup2\n      add\n      0x40\n      mstore\n      dup1\n      swap3\n      swap2\n      swap1\n      dup2\n      dup2\n      mstore\n      0x20\n      add\n      dup3\n      dup1\n      sload\n      dup1\n      iszero\n      tag_165\n      jumpi\n      0x20\n      mul\n      dup3\n      add\n      swap2\n      swap1\n      0x00\n      mstore\n      keccak256(0x00, 0x20)\n      swap1\n    tag_166:\n      dup2\n      sload\n      sub(shl(0xa0, 0x01), 0x01)\n      and\n      dup2\n      mstore\n      0x01\n      swap1\n      swap2\n      add\n      swap1\n      0x20\n      add\n      dup1\n      dup4\n      gt\n      tag_166\n      jumpi\n    tag_165:\n      pop\n      pop\n      pop\n      pop\n      pop\n      swap1\n      pop\n        /* \"DAO.sol\":5385:5615  function showMembers() public view returns (address[] memory) {... */\n      swap1\n      jump\t// out\n        /* \"#utility.yul\":14:240   */\n    tag_17:\n        /* \"#utility.yul\":73:79   */\n      0x00\n        /* \"#utility.yul\":126:128   */\n      0x20\n        /* \"#utility.yul\":114:123   */\n      dup3\n        /* \"#utility.yul\":105:112   */\n      dup5\n        /* \"#utility.yul\":101:124   */\n      sub\n        /* \"#utility.yul\":97:129   */\n      slt\n        /* \"#utility.yul\":94:146   */\n      iszero\n      tag_178\n      jumpi\n        /* \"#utility.yul\":142:143   */\n      0x00\n        /* \"#utility.yul\":139:140   */\n      0x00\n        /* \"#utility.yul\":132:144   */\n      revert\n        /* \"#utility.yul\":94:146   */\n    tag_178:\n      pop\n        /* \"#utility.yul\":187:210   */\n      calldataload\n      swap2\n        /* \"#utility.yul\":14:240   */\n      swap1\n      pop\n      jump\t// out\n        /* \"#utility.yul\":245:418   */\n    tag_167:\n        /* \"#utility.yul\":313:333   */\n      dup1\n      calldataload\n      sub(shl(0xa0, 0x01), 0x01)\n        /* \"#utility.yul\":362:393   */\n      dup2\n      and\n        /* \"#utility.yul\":352:394   */\n      dup2\n      eq\n        /* \"#utility.yul\":342:412   */\n      tag_180\n      jumpi\n        /* \"#utility.yul\":408:409   */\n      0x00\n        /* \"#utility.yul\":405:406   */\n      0x00\n        /* \"#utility.yul\":398:410   */\n      revert\n        /* \"#utility.yul\":342:412   */\n    tag_180:\n        /* \"#utility.yul\":245:418   */\n      swap2\n      swap1\n      pop\n      jump\t// out\n        /* \"#utility.yul\":423:609   */\n    tag_21:\n        /* \"#utility.yul\":482:488   */\n      0x00\n        /* \"#utility.yul\":535:537   */\n      0x20\n        /* \"#utility.yul\":523:532   */\n      dup3\n        /* \"#utility.yul\":514:521   */\n      dup5\n        /* \"#utility.yul\":510:533   */\n      sub\n        /* \"#utility.yul\":506:538   */\n      slt\n        /* \"#utility.yul\":503:555   */\n      iszero\n      tag_182\n      jumpi\n        /* \"#utility.yul\":551:552   */\n      0x00\n        /* \"#utility.yul\":548:549   */\n      0x00\n        /* \"#utility.yul\":541:553   */\n      revert\n        /* \"#utility.yul\":503:555   */\n    tag_182:\n        /* \"#utility.yul\":574:603   */\n      tag_183\n        /* \"#utility.yul\":593:602   */\n      dup3\n        /* \"#utility.yul\":574:603   */\n      tag_167\n      jump\t// in\n    tag_183:\n        /* \"#utility.yul\":564:603   */\n      swap4\n        /* \"#utility.yul\":423:609   */\n      swap3\n      pop\n      pop\n      pop\n      jump\t// out\n        /* \"#utility.yul\":902:1029   */\n    tag_117:\n        /* \"#utility.yul\":963:973   */\n      0x4e487b71\n        /* \"#utility.yul\":958:961   */\n      0xe0\n        /* \"#utility.yul\":954:974   */\n      shl\n        /* \"#utility.yul\":951:952   */\n      0x00\n        /* \"#utility.yul\":944:975   */\n      mstore\n        /* \"#utility.yul\":994:998   */\n      0x21\n        /* \"#utility.yul\":991:992   */\n      0x04\n        /* \"#utility.yul\":984:999   */\n      mstore\n        /* \"#utility.yul\":1018:1022   */\n      0x24\n        /* \"#utility.yul\":1015:1016   */\n      0x00\n        /* \"#utility.yul\":1008:1023   */\n      revert\n        /* \"#utility.yul\":1034:1274   */\n    tag_169:\n        /* \"#utility.yul\":1118:1119   */\n      0x05\n        /* \"#utility.yul\":1111:1116   */\n      dup2\n        /* \"#utility.yul\":1108:1120   */\n      lt\n        /* \"#utility.yul\":1098:1241   */\n      tag_188\n      jumpi\n        /* \"#utility.yul\":1163:1173   */\n      0x4e487b71\n        /* \"#utility.yul\":1158:1161   */\n      0xe0\n        /* \"#utility.yul\":1154:1174   */\n      shl\n        /* \"#utility.yul\":1151:1152   */\n      0x00\n        /* \"#utility.yul\":1144:1175   */\n      mstore\n        /* \"#utility.yul\":1198:1202   */\n      0x21\n        /* \"#utility.yul\":1195:1196   */\n      0x04\n        /* \"#utility.yul\":1188:1203   */\n      mstore\n        /* \"#utility.yul\":1226:1230   */\n      0x24\n        /* \"#utility.yul\":1223:1224   */\n      0x00\n        /* \"#utility.yul\":1216:1231   */\n      revert\n        /* \"#utility.yul\":1098:1241   */\n    tag_188:\n        /* \"#utility.yul\":1250:1268   */\n      swap1\n      mstore\n        /* \"#utility.yul\":1034:1274   */\n      jump\t// out\n        /* \"#utility.yul\":1279:2490   */\n    tag_29:\n        /* \"#utility.yul\":1703:1709   */\n      dup12\n        /* \"#utility.yul\":1692:1701   */\n      dup2\n        /* \"#utility.yul\":1685:1710   */\n      mstore\n        /* \"#utility.yul\":1719:1775   */\n      tag_190\n        /* \"#utility.yul\":1771:1773   */\n      0x20\n        /* \"#utility.yul\":1760:1769   */\n      dup3\n        /* \"#utility.yul\":1756:1774   */\n      add\n        /* \"#utility.yul\":1748:1754   */\n      dup13\n        /* \"#utility.yul\":1719:1775   */\n      tag_169\n      jump\t// in\n    tag_190:\n        /* \"#utility.yul\":1840:1841   */\n      0x01\n        /* \"#utility.yul\":1836:1837   */\n      dup1\n        /* \"#utility.yul\":1831:1834   */\n      0xa0\n        /* \"#utility.yul\":1827:1838   */\n      shl\n        /* \"#utility.yul\":1823:1842   */\n      sub\n        /* \"#utility.yul\":1815:1821   */\n      dup11\n        /* \"#utility.yul\":1811:1843   */\n      and\n        /* \"#utility.yul\":1806:1808   */\n      0x40\n        /* \"#utility.yul\":1795:1804   */\n      dup3\n        /* \"#utility.yul\":1791:1809   */\n      add\n        /* \"#utility.yul\":1784:1844   */\n      mstore\n        /* \"#utility.yul\":1880:1883   */\n      0x0160\n        /* \"#utility.yul\":1875:1877   */\n      0x60\n        /* \"#utility.yul\":1864:1873   */\n      dup3\n        /* \"#utility.yul\":1860:1878   */\n      add\n        /* \"#utility.yul\":1853:1884   */\n      mstore\n        /* \"#utility.yul\":1666:1670   */\n      0x00\n        /* \"#utility.yul\":1913:1919   */\n      dup10\n        /* \"#utility.yul\":1907:1920   */\n      mload\n        /* \"#utility.yul\":1957:1963   */\n      dup1\n        /* \"#utility.yul\":1951:1954   */\n      0x0160\n        /* \"#utility.yul\":1940:1949   */\n      dup5\n        /* \"#utility.yul\":1936:1955   */\n      add\n        /* \"#utility.yul\":1929:1964   */\n      mstore\n        /* \"#utility.yul\":2017:2023   */\n      dup1\n        /* \"#utility.yul\":2012:2014   */\n      0x20\n        /* \"#utility.yul\":2004:2010   */\n      dup13\n        /* \"#utility.yul\":2000:2015   */\n      add\n        /* \"#utility.yul\":1994:1997   */\n      0x0180\n        /* \"#utility.yul\":1983:1992   */\n      dup6\n        /* \"#utility.yul\":1979:1998   */\n      add\n        /* \"#utility.yul\":1973:2024   */\n      mcopy\n        /* \"#utility.yul\":2074:2075   */\n      0x00\n        /* \"#utility.yul\":2068:2071   */\n      0x0180\n        /* \"#utility.yul\":2059:2065   */\n      dup3\n        /* \"#utility.yul\":2048:2057   */\n      dup6\n        /* \"#utility.yul\":2044:2066   */\n      add\n        /* \"#utility.yul\":2040:2072   */\n      add\n        /* \"#utility.yul\":2033:2076   */\n      mstore\n        /* \"#utility.yul\":2144:2147   */\n      0x0180\n        /* \"#utility.yul\":2137:2139   */\n      0x1f\n        /* \"#utility.yul\":2133:2140   */\n      not\n        /* \"#utility.yul\":2128:2130   */\n      0x1f\n        /* \"#utility.yul\":2120:2126   */\n      dup4\n        /* \"#utility.yul\":2116:2131   */\n      add\n        /* \"#utility.yul\":2112:2141   */\n      and\n        /* \"#utility.yul\":2101:2110   */\n      dup5\n        /* \"#utility.yul\":2097:2142   */\n      add\n        /* \"#utility.yul\":2093:2148   */\n      add\n        /* \"#utility.yul\":2085:2148   */\n      swap2\n      pop\n      pop\n        /* \"#utility.yul\":2185:2191   */\n      dup9\n        /* \"#utility.yul\":2179:2182   */\n      0x80\n        /* \"#utility.yul\":2168:2177   */\n      dup4\n        /* \"#utility.yul\":2164:2183   */\n      add\n        /* \"#utility.yul\":2157:2192   */\n      mstore\n        /* \"#utility.yul\":2229:2235   */\n      dup8\n        /* \"#utility.yul\":2223:2226   */\n      0xa0\n        /* \"#utility.yul\":2212:2221   */\n      dup4\n        /* \"#utility.yul\":2208:2227   */\n      add\n        /* \"#utility.yul\":2201:2236   */\n      mstore\n        /* \"#utility.yul\":2273:2279   */\n      dup7\n        /* \"#utility.yul\":2267:2270   */\n      0xc0\n        /* \"#utility.yul\":2256:2265   */\n      dup4\n        /* \"#utility.yul\":2252:2271   */\n      add\n        /* \"#utility.yul\":2245:2280   */\n      mstore\n        /* \"#utility.yul\":2317:2323   */\n      dup6\n        /* \"#utility.yul\":2311:2314   */\n      0xe0\n        /* \"#utility.yul\":2300:2309   */\n      dup4\n        /* \"#utility.yul\":2296:2315   */\n      add\n        /* \"#utility.yul\":2289:2324   */\n      mstore\n        /* \"#utility.yul\":2333:2377   */\n      tag_191\n        /* \"#utility.yul\":2372:2375   */\n      0x0100\n        /* \"#utility.yul\":2361:2370   */\n      dup4\n        /* \"#utility.yul\":2357:2376   */\n      add\n        /* \"#utility.yul\":2349:2355   */\n      dup7\n        /* \"#utility.yul\":684:697   */\n      iszero\n        /* \"#utility.yul\":677:698   */\n      iszero\n        /* \"#utility.yul\":665:699   */\n      swap1\n      mstore\n        /* \"#utility.yul\":614:705   */\n      jump\n        /* \"#utility.yul\":2333:2377   */\n    tag_191:\n        /* \"#utility.yul\":684:697   */\n      swap3\n      iszero\n        /* \"#utility.yul\":677:698   */\n      iszero\n        /* \"#utility.yul\":2425:2428   */\n      0x0120\n        /* \"#utility.yul\":2410:2429   */\n      dup3\n      add\n        /* \"#utility.yul\":665:699   */\n      mstore\n        /* \"#utility.yul\":684:697   */\n      swap1\n      iszero\n        /* \"#utility.yul\":677:698   */\n      iszero\n        /* \"#utility.yul\":2479:2482   */\n      0x0140\n        /* \"#utility.yul\":2464:2483   */\n      swap1\n      swap2\n      add\n        /* \"#utility.yul\":665:699   */\n      mstore\n        /* \"#utility.yul\":1279:2490   */\n      swap10\n      swap9\n      pop\n      pop\n      pop\n      pop\n      pop\n      pop\n      pop\n      pop\n      pop\n      jump\t// out\n        /* \"#utility.yul\":2495:2795   */\n    tag_32:\n        /* \"#utility.yul\":2563:2569   */\n      0x00\n        /* \"#utility.yul\":2571:2577   */\n      0x00\n        /* \"#utility.yul\":2624:2626   */\n      0x40\n        /* \"#utility.yul\":2612:2621   */\n      dup4\n        /* \"#utility.yul\":2603:2610   */\n      dup6\n        /* \"#utility.yul\":2599:2622   */\n      sub\n        /* \"#utility.yul\":2595:2627   */\n      slt\n        /* \"#utility.yul\":2592:2644   */\n      iszero\n      tag_195\n      jumpi\n        /* \"#utility.yul\":2640:2641   */\n      0x00\n        /* \"#utility.yul\":2637:2638   */\n      0x00\n        /* \"#utility.yul\":2630:2642   */\n      revert\n        /* \"#utility.yul\":2592:2644   */\n    tag_195:\n        /* \"#utility.yul\":2685:2708   */\n      dup3\n      calldataload\n      swap2\n      pop\n        /* \"#utility.yul\":2751:2789   */\n      tag_196\n        /* \"#utility.yul\":2785:2787   */\n      0x20\n        /* \"#utility.yul\":2770:2788   */\n      dup5\n      add\n        /* \"#utility.yul\":2751:2789   */\n      tag_167\n      jump\t// in\n    tag_196:\n        /* \"#utility.yul\":2741:2789   */\n      swap1\n      pop\n        /* \"#utility.yul\":2495:2795   */\n      swap3\n      pop\n      swap3\n      swap1\n      pop\n      jump\t// out\n        /* \"#utility.yul\":3418:3545   */\n    tag_170:\n        /* \"#utility.yul\":3479:3489   */\n      0x4e487b71\n        /* \"#utility.yul\":3474:3477   */\n      0xe0\n        /* \"#utility.yul\":3470:3490   */\n      shl\n        /* \"#utility.yul\":3467:3468   */\n      0x00\n        /* \"#utility.yul\":3460:3491   */\n      mstore\n        /* \"#utility.yul\":3510:3514   */\n      0x41\n        /* \"#utility.yul\":3507:3508   */\n      0x04\n        /* \"#utility.yul\":3500:3515   */\n      mstore\n        /* \"#utility.yul\":3534:3538   */\n      0x24\n        /* \"#utility.yul\":3531:3532   */\n      0x00\n        /* \"#utility.yul\":3524:3539   */\n      revert\n        /* \"#utility.yul\":3550:4773   */\n    tag_53:\n        /* \"#utility.yul\":3651:3657   */\n      0x00\n        /* \"#utility.yul\":3659:3665   */\n      0x00\n        /* \"#utility.yul\":3667:3673   */\n      0x00\n        /* \"#utility.yul\":3720:3722   */\n      0x60\n        /* \"#utility.yul\":3708:3717   */\n      dup5\n        /* \"#utility.yul\":3699:3706   */\n      dup7\n        /* \"#utility.yul\":3695:3718   */\n      sub\n        /* \"#utility.yul\":3691:3723   */\n      slt\n        /* \"#utility.yul\":3688:3740   */\n      iszero\n      tag_202\n      jumpi\n        /* \"#utility.yul\":3736:3737   */\n      0x00\n        /* \"#utility.yul\":3733:3734   */\n      0x00\n        /* \"#utility.yul\":3726:3738   */\n      revert\n        /* \"#utility.yul\":3688:3740   */\n    tag_202:\n        /* \"#utility.yul\":3775:3784   */\n      dup4\n        /* \"#utility.yul\":3762:3785   */\n      calldataload\n        /* \"#utility.yul\":3814:3815   */\n      0x05\n        /* \"#utility.yul\":3807:3812   */\n      dup2\n        /* \"#utility.yul\":3804:3816   */\n      lt\n        /* \"#utility.yul\":3794:3834   */\n      tag_203\n      jumpi\n        /* \"#utility.yul\":3830:3831   */\n      0x00\n        /* \"#utility.yul\":3827:3828   */\n      0x00\n        /* \"#utility.yul\":3820:3832   */\n      revert\n        /* \"#utility.yul\":3794:3834   */\n    tag_203:\n        /* \"#utility.yul\":3853:3858   */\n      swap3\n      pop\n        /* \"#utility.yul\":3931:3933   */\n      0x20\n        /* \"#utility.yul\":3916:3934   */\n      dup5\n      add\n        /* \"#utility.yul\":3903:3935   */\n      calldataload\n      swap2\n      pop\n        /* \"#utility.yul\":4012:4014   */\n      0x40\n        /* \"#utility.yul\":3997:4015   */\n      dup5\n      add\n        /* \"#utility.yul\":3984:4016   */\n      calldataload\n        /* \"#utility.yul\":4039:4057   */\n      0xffffffffffffffff\n        /* \"#utility.yul\":4028:4058   */\n      dup2\n      gt\n        /* \"#utility.yul\":4025:4075   */\n      iszero\n      tag_204\n      jumpi\n        /* \"#utility.yul\":4071:4072   */\n      0x00\n        /* \"#utility.yul\":4068:4069   */\n      0x00\n        /* \"#utility.yul\":4061:4073   */\n      revert\n        /* \"#utility.yul\":4025:4075   */\n    tag_204:\n        /* \"#utility.yul\":4094:4116   */\n      dup5\n      add\n        /* \"#utility.yul\":4147:4151   */\n      0x1f\n        /* \"#utility.yul\":4139:4152   */\n      dup2\n      add\n        /* \"#utility.yul\":4135:4162   */\n      dup7\n      sgt\n        /* \"#utility.yul\":4125:4180   */\n      tag_205\n      jumpi\n        /* \"#utility.yul\":4176:4177   */\n      0x00\n        /* \"#utility.yul\":4173:4174   */\n      0x00\n        /* \"#utility.yul\":4166:4178   */\n      revert\n        /* \"#utility.yul\":4125:4180   */\n    tag_205:\n        /* \"#utility.yul\":4216:4218   */\n      dup1\n        /* \"#utility.yul\":4203:4219   */\n      calldataload\n        /* \"#utility.yul\":4242:4260   */\n      0xffffffffffffffff\n        /* \"#utility.yul\":4234:4240   */\n      dup2\n        /* \"#utility.yul\":4231:4261   */\n      gt\n        /* \"#utility.yul\":4228:4284   */\n      iszero\n      tag_207\n      jumpi\n        /* \"#utility.yul\":4264:4282   */\n      tag_207\n      tag_170\n      jump\t// in\n    tag_207:\n        /* \"#utility.yul\":4313:4315   */\n      0x40\n        /* \"#utility.yul\":4307:4316   */\n      mload\n        /* \"#utility.yul\":4405:4407   */\n      0x1f\n        /* \"#utility.yul\":4367:4384   */\n      dup3\n      add\n      not(0x1f)\n        /* \"#utility.yul\":4363:4394   */\n      swap1\n      dup2\n      and\n        /* \"#utility.yul\":4396:4398   */\n      0x3f\n        /* \"#utility.yul\":4359:4399   */\n      add\n        /* \"#utility.yul\":4355:4409   */\n      and\n        /* \"#utility.yul\":4343:4410   */\n      dup2\n      add\n        /* \"#utility.yul\":4440:4458   */\n      0xffffffffffffffff\n        /* \"#utility.yul\":4425:4459   */\n      dup2\n      gt\n        /* \"#utility.yul\":4461:4483   */\n      dup3\n      dup3\n      lt\n        /* \"#utility.yul\":4422:4484   */\n      or\n        /* \"#utility.yul\":4419:4507   */\n      iszero\n      tag_209\n      jumpi\n        /* \"#utility.yul\":4487:4505   */\n      tag_209\n      tag_170\n      jump\t// in\n    tag_209:\n        /* \"#utility.yul\":4523:4525   */\n      0x40\n        /* \"#utility.yul\":4516:4538   */\n      mstore\n        /* \"#utility.yul\":4547:4569   */\n      dup2\n      dup2\n      mstore\n        /* \"#utility.yul\":4588:4603   */\n      dup3\n      dup3\n      add\n        /* \"#utility.yul\":4605:4607   */\n      0x20\n        /* \"#utility.yul\":4584:4608   */\n      add\n        /* \"#utility.yul\":4581:4618   */\n      dup9\n      lt\n        /* \"#utility.yul\":4578:4635   */\n      iszero\n      tag_210\n      jumpi\n        /* \"#utility.yul\":4631:4632   */\n      0x00\n        /* \"#utility.yul\":4628:4629   */\n      0x00\n        /* \"#utility.yul\":4621:4633   */\n      revert\n        /* \"#utility.yul\":4578:4635   */\n    tag_210:\n        /* \"#utility.yul\":4687:4693   */\n      dup2\n        /* \"#utility.yul\":4682:4684   */\n      0x20\n        /* \"#utility.yul\":4678:4680   */\n      dup5\n        /* \"#utility.yul\":4674:4685   */\n      add\n        /* \"#utility.yul\":4669:4671   */\n      0x20\n        /* \"#utility.yul\":4661:4667   */\n      dup4\n        /* \"#utility.yul\":4657:4672   */\n      add\n        /* \"#utility.yul\":4644:4694   */\n      calldatacopy\n        /* \"#utility.yul\":4740:4741   */\n      0x00\n        /* \"#utility.yul\":4735:4737   */\n      0x20\n        /* \"#utility.yul\":4726:4732   */\n      dup4\n        /* \"#utility.yul\":4718:4724   */\n      dup4\n        /* \"#utility.yul\":4714:4733   */\n      add\n        /* \"#utility.yul\":4710:4738   */\n      add\n        /* \"#utility.yul\":4703:4742   */\n      mstore\n        /* \"#utility.yul\":4761:4767   */\n      dup1\n        /* \"#utility.yul\":4751:4767   */\n      swap4\n      pop\n      pop\n      pop\n      pop\n        /* \"#utility.yul\":3550:4773   */\n      swap3\n      pop\n      swap3\n      pop\n      swap3\n      jump\t// out\n        /* \"#utility.yul\":4778:4896   */\n    tag_171:\n        /* \"#utility.yul\":4864:4869   */\n      dup1\n        /* \"#utility.yul\":4857:4870   */\n      iszero\n        /* \"#utility.yul\":4850:4871   */\n      iszero\n        /* \"#utility.yul\":4843:4848   */\n      dup2\n        /* \"#utility.yul\":4840:4872   */\n      eq\n        /* \"#utility.yul\":4830:4890   */\n      tag_212\n      jumpi\n        /* \"#utility.yul\":4886:4887   */\n      0x00\n        /* \"#utility.yul\":4883:4884   */\n      0x00\n        /* \"#utility.yul\":4876:4888   */\n      revert\n        /* \"#utility.yul\":4830:4890   */\n    tag_212:\n        /* \"#utility.yul\":4778:4896   */\n      pop\n      jump\t// out\n        /* \"#utility.yul\":4901:5262   */\n    tag_57:\n        /* \"#utility.yul\":4966:4972   */\n      0x00\n        /* \"#utility.yul\":4974:4980   */\n      0x00\n        /* \"#utility.yul\":5027:5029   */\n      0x40\n        /* \"#utility.yul\":5015:5024   */\n      dup4\n        /* \"#utility.yul\":5006:5013   */\n      dup6\n        /* \"#utility.yul\":5002:5025   */\n      sub\n        /* \"#utility.yul\":4998:5030   */\n      slt\n        /* \"#utility.yul\":4995:5047   */\n      iszero\n      tag_214\n      jumpi\n        /* \"#utility.yul\":5043:5044   */\n      0x00\n        /* \"#utility.yul\":5040:5041   */\n      0x00\n        /* \"#utility.yul\":5033:5045   */\n      revert\n        /* \"#utility.yul\":4995:5047   */\n    tag_214:\n        /* \"#utility.yul\":5088:5111   */\n      dup3\n      calldataload\n      swap2\n      pop\n        /* \"#utility.yul\":5187:5189   */\n      0x20\n        /* \"#utility.yul\":5172:5190   */\n      dup4\n      add\n        /* \"#utility.yul\":5159:5191   */\n      calldataload\n        /* \"#utility.yul\":5200:5230   */\n      tag_215\n        /* \"#utility.yul\":5159:5191   */\n      dup2\n        /* \"#utility.yul\":5200:5230   */\n      tag_171\n      jump\t// in\n    tag_215:\n        /* \"#utility.yul\":5249:5256   */\n      dup1\n        /* \"#utility.yul\":5239:5256   */\n      swap2\n      pop\n      pop\n        /* \"#utility.yul\":4901:5262   */\n      swap3\n      pop\n      swap3\n      swap1\n      pop\n      jump\t// out\n        /* \"#utility.yul\":5267:5904   */\n    tag_62:\n        /* \"#utility.yul\":5457:5459   */\n      0x20\n        /* \"#utility.yul\":5469:5490   */\n      dup1\n      dup3\n      mstore\n        /* \"#utility.yul\":5539:5552   */\n      dup3\n      mload\n        /* \"#utility.yul\":5442:5460   */\n      dup3\n      dup3\n      add\n        /* \"#utility.yul\":5561:5583   */\n      dup2\n      swap1\n      mstore\n        /* \"#utility.yul\":5409:5413   */\n      0x00\n      swap2\n        /* \"#utility.yul\":5640:5655   */\n      dup5\n      add\n      swap1\n        /* \"#utility.yul\":5614:5616   */\n      0x40\n        /* \"#utility.yul\":5599:5617   */\n      dup5\n      add\n      swap1\n        /* \"#utility.yul\":5409:5413   */\n      dup4\n        /* \"#utility.yul\":5683:5878   */\n    tag_217:\n        /* \"#utility.yul\":5697:5703   */\n      dup2\n        /* \"#utility.yul\":5694:5695   */\n      dup2\n        /* \"#utility.yul\":5691:5704   */\n      lt\n        /* \"#utility.yul\":5683:5878   */\n      iszero\n      tag_219\n      jumpi\n        /* \"#utility.yul\":5762:5775   */\n      dup4\n      mload\n      sub(shl(0xa0, 0x01), 0x01)\n        /* \"#utility.yul\":5758:5797   */\n      and\n        /* \"#utility.yul\":5746:5798   */\n      dup4\n      mstore\n        /* \"#utility.yul\":5827:5829   */\n      0x20\n        /* \"#utility.yul\":5853:5868   */\n      swap4\n      dup5\n      add\n      swap4\n        /* \"#utility.yul\":5818:5830   */\n      swap1\n      swap3\n      add\n      swap2\n        /* \"#utility.yul\":5794:5795   */\n      0x01\n        /* \"#utility.yul\":5712:5721   */\n      add\n        /* \"#utility.yul\":5683:5878   */\n      jump(tag_217)\n    tag_219:\n      pop\n        /* \"#utility.yul\":5895:5898   */\n      swap1\n      swap6\n        /* \"#utility.yul\":5267:5904   */\n      swap5\n      pop\n      pop\n      pop\n      pop\n      pop\n      jump\t// out\n        /* \"#utility.yul\":5909:6381   */\n    tag_66:\n        /* \"#utility.yul\":6111:6113   */\n      0x20\n        /* \"#utility.yul\":6093:6114   */\n      dup1\n      dup3\n      mstore\n        /* \"#utility.yul\":6150:6152   */\n      0x31\n        /* \"#utility.yul\":6130:6148   */\n      swap1\n      dup3\n      add\n        /* \"#utility.yul\":6123:6153   */\n      mstore\n        /* \"#utility.yul\":6189:6255   */\n      0xd093d0bed0bbd0bed181d0bed0b2d0b0d0bdd0b8d18f20d0bdd0b520d181d183\n        /* \"#utility.yul\":6184:6186   */\n      0x40\n        /* \"#utility.yul\":6169:6187   */\n      dup3\n      add\n        /* \"#utility.yul\":6162:6256   */\n      mstore\n      shl(0x78, 0xd189d0b5d181d182d0b2d183d0b5d18221)\n        /* \"#utility.yul\":6287:6289   */\n      0x60\n        /* \"#utility.yul\":6272:6290   */\n      dup3\n      add\n        /* \"#utility.yul\":6265:6339   */\n      mstore\n        /* \"#utility.yul\":6371:6374   */\n      0x80\n        /* \"#utility.yul\":6356:6375   */\n      add\n      swap1\n        /* \"#utility.yul\":5909:6381   */\n      jump\t// out\n        /* \"#utility.yul\":6386:6863   */\n    tag_69:\n        /* \"#utility.yul\":6588:6590   */\n      0x20\n        /* \"#utility.yul\":6570:6591   */\n      dup1\n      dup3\n      mstore\n        /* \"#utility.yul\":6627:6629   */\n      0x34\n        /* \"#utility.yul\":6607:6625   */\n      swap1\n      dup3\n      add\n        /* \"#utility.yul\":6600:6630   */\n      mstore\n        /* \"#utility.yul\":6666:6732   */\n      0xd092d18b20d0bdd0b520d181d0bed0b7d0b4d0b0d182d0b5d0bbd18c20d0b3d0\n        /* \"#utility.yul\":6661:6663   */\n      0x40\n        /* \"#utility.yul\":6646:6664   */\n      dup3\n      add\n        /* \"#utility.yul\":6639:6733   */\n      mstore\n      shl(0x60, 0xbed0bbd0bed181d0bed0b2d0b0d0bdd0b8d18f21)\n        /* \"#utility.yul\":6773:6775   */\n      0x60\n        /* \"#utility.yul\":6749:6767   */\n      dup3\n      add\n        /* \"#utility.yul\":6742:6821   */\n      mstore\n        /* \"#utility.yul\":6853:6856   */\n      0x80\n        /* \"#utility.yul\":6838:6857   */\n      add\n      swap1\n        /* \"#utility.yul\":6386:6863   */\n      jump\t// out\n        /* \"#utility.yul\":6868:7326   */\n    tag_72:\n        /* \"#utility.yul\":7070:7072   */\n      0x20\n        /* \"#utility.yul\":7052:7073   */\n      dup1\n      dup3\n      mstore\n        /* \"#utility.yul\":7109:7111   */\n      0x2a\n        /* \"#utility.yul\":7089:7107   */\n      swap1\n      dup3\n      add\n        /* \"#utility.yul\":7082:7112   */\n      mstore\n        /* \"#utility.yul\":7148:7214   */\n      0xd093d0bed0bbd0bed181d0bed0b2d0b0d0bdd0b8d0b520d0b7d0b0d0b2d0b5d1\n        /* \"#utility.yul\":7143:7145   */\n      0x40\n        /* \"#utility.yul\":7128:7146   */\n      dup3\n      add\n        /* \"#utility.yul\":7121:7215   */\n      mstore\n      shl(0xb0, 0x80d188d0b5d0bdd0be21)\n        /* \"#utility.yul\":7246:7248   */\n      0x60\n        /* \"#utility.yul\":7231:7249   */\n      dup3\n      add\n        /* \"#utility.yul\":7224:7284   */\n      mstore\n        /* \"#utility.yul\":7316:7319   */\n      0x80\n        /* \"#utility.yul\":7301:7320   */\n      add\n      swap1\n        /* \"#utility.yul\":6868:7326   */\n      jump\t// out\n        /* \"#utility.yul\":7331:7781   */\n    tag_75:\n        /* \"#utility.yul\":7533:7535   */\n      0x20\n        /* \"#utility.yul\":7515:7536   */\n      dup1\n      dup3\n      mstore\n        /* \"#utility.yul\":7572:7574   */\n      0x26\n        /* \"#utility.yul\":7552:7570   */\n      swap1\n      dup3\n      add\n        /* \"#utility.yul\":7545:7575   */\n      mstore\n        /* \"#utility.yul\":7611:7677   */\n      0xd093d0bed0bbd0bed181d0bed0b2d0b0d0bdd0b8d0b520d183d0b4d0b0d0bbd0\n        /* \"#utility.yul\":7606:7608   */\n      0x40\n        /* \"#utility.yul\":7591:7609   */\n      dup3\n      add\n        /* \"#utility.yul\":7584:7678   */\n      mstore\n      shl(0xd0, 0xb5d0bdd0be21)\n        /* \"#utility.yul\":7709:7711   */\n      0x60\n        /* \"#utility.yul\":7694:7712   */\n      dup3\n      add\n        /* \"#utility.yul\":7687:7739   */\n      mstore\n        /* \"#utility.yul\":7771:7774   */\n      0x80\n        /* \"#utility.yul\":7756:7775   */\n      add\n      swap1\n        /* \"#utility.yul\":7331:7781   */\n      jump\t// out\n        /* \"#utility.yul\":7786:8174   */\n    tag_78:\n        /* \"#utility.yul\":7988:7990   */\n      0x20\n        /* \"#utility.yul\":7970:7991   */\n      dup1\n      dup3\n      mstore\n        /* \"#utility.yul\":8027:8029   */\n      0x1f\n        /* \"#utility.yul\":8007:8025   */\n      swap1\n      dup3\n      add\n        /* \"#utility.yul\":8000:8030   */\n      mstore\n        /* \"#utility.yul\":8066:8132   */\n      0xd092d18b20d0bdd0b520d183d187d0b0d181d182d0bdd0b8d0ba2044414f2100\n        /* \"#utility.yul\":8061:8063   */\n      0x40\n        /* \"#utility.yul\":8046:8064   */\n      dup3\n      add\n        /* \"#utility.yul\":8039:8133   */\n      mstore\n        /* \"#utility.yul\":8165:8167   */\n      0x60\n        /* \"#utility.yul\":8150:8168   */\n      add\n      swap1\n        /* \"#utility.yul\":7786:8174   */\n      jump\t// out\n        /* \"#utility.yul\":8179:8656   */\n    tag_81:\n        /* \"#utility.yul\":8381:8383   */\n      0x20\n        /* \"#utility.yul\":8363:8384   */\n      dup1\n      dup3\n      mstore\n        /* \"#utility.yul\":8420:8422   */\n      0x34\n        /* \"#utility.yul\":8400:8418   */\n      swap1\n      dup3\n      add\n        /* \"#utility.yul\":8393:8423   */\n      mstore\n        /* \"#utility.yul\":8459:8525   */\n      0xd093d0bed0bbd0bed181d0bed0b2d0b0d0bdd0b8d0b520d0bfd0bed0b4d0bed1\n        /* \"#utility.yul\":8454:8456   */\n      0x40\n        /* \"#utility.yul\":8439:8457   */\n      dup3\n      add\n        /* \"#utility.yul\":8432:8526   */\n      mstore\n      shl(0x60, 0x88d0bbd0be20d0ba20d0bad0bed0bdd186d18321)\n        /* \"#utility.yul\":8566:8568   */\n      0x60\n        /* \"#utility.yul\":8542:8560   */\n      dup3\n      add\n        /* \"#utility.yul\":8535:8614   */\n      mstore\n        /* \"#utility.yul\":8646:8649   */\n      0x80\n        /* \"#utility.yul\":8631:8650   */\n      add\n      swap1\n        /* \"#utility.yul\":8179:8656   */\n      jump\t// out\n        /* \"#utility.yul\":8940:9320   */\n    tag_87:\n        /* \"#utility.yul\":9019:9020   */\n      0x01\n        /* \"#utility.yul\":9015:9027   */\n      dup2\n      dup2\n      shr\n      swap1\n        /* \"#utility.yul\":9062:9074   */\n      dup3\n      and\n      dup1\n        /* \"#utility.yul\":9083:9144   */\n      tag_228\n      jumpi\n        /* \"#utility.yul\":9137:9141   */\n      0x7f\n        /* \"#utility.yul\":9129:9135   */\n      dup3\n        /* \"#utility.yul\":9125:9142   */\n      and\n        /* \"#utility.yul\":9115:9142   */\n      swap2\n      pop\n        /* \"#utility.yul\":9083:9144   */\n    tag_228:\n        /* \"#utility.yul\":9190:9192   */\n      0x20\n        /* \"#utility.yul\":9182:9188   */\n      dup3\n        /* \"#utility.yul\":9179:9193   */\n      lt\n        /* \"#utility.yul\":9159:9177   */\n      dup2\n        /* \"#utility.yul\":9156:9194   */\n      sub\n        /* \"#utility.yul\":9153:9314   */\n      tag_229\n      jumpi\n        /* \"#utility.yul\":9236:9246   */\n      0x4e487b71\n        /* \"#utility.yul\":9231:9234   */\n      0xe0\n        /* \"#utility.yul\":9227:9247   */\n      shl\n        /* \"#utility.yul\":9224:9225   */\n      0x00\n        /* \"#utility.yul\":9217:9248   */\n      mstore\n        /* \"#utility.yul\":9271:9275   */\n      0x22\n        /* \"#utility.yul\":9268:9269   */\n      0x04\n        /* \"#utility.yul\":9261:9276   */\n      mstore\n        /* \"#utility.yul\":9299:9303   */\n      0x24\n        /* \"#utility.yul\":9296:9297   */\n      0x00\n        /* \"#utility.yul\":9289:9304   */\n      revert\n        /* \"#utility.yul\":9153:9314   */\n    tag_229:\n      pop\n        /* \"#utility.yul\":8940:9320   */\n      swap2\n      swap1\n      pop\n      jump\t// out\n        /* \"#utility.yul\":9325:9452   */\n    tag_172:\n        /* \"#utility.yul\":9386:9396   */\n      0x4e487b71\n        /* \"#utility.yul\":9381:9384   */\n      0xe0\n        /* \"#utility.yul\":9377:9397   */\n      shl\n        /* \"#utility.yul\":9374:9375   */\n      0x00\n        /* \"#utility.yul\":9367:9398   */\n      mstore\n        /* \"#utility.yul\":9417:9421   */\n      0x11\n        /* \"#utility.yul\":9414:9415   */\n      0x04\n        /* \"#utility.yul\":9407:9422   */\n      mstore\n        /* \"#utility.yul\":9441:9445   */\n      0x24\n        /* \"#utility.yul\":9438:9439   */\n      0x00\n        /* \"#utility.yul\":9431:9446   */\n      revert\n        /* \"#utility.yul\":9457:9582   */\n    tag_112:\n        /* \"#utility.yul\":9522:9531   */\n      dup1\n      dup3\n      add\n        /* \"#utility.yul\":9543:9553   */\n      dup1\n      dup3\n      gt\n        /* \"#utility.yul\":9540:9576   */\n      iszero\n      tag_233\n      jumpi\n        /* \"#utility.yul\":9556:9574   */\n      tag_233\n      tag_172\n      jump\t// in\n    tag_233:\n        /* \"#utility.yul\":9457:9582   */\n      swap3\n      swap2\n      pop\n      pop\n      jump\t// out\n        /* \"#utility.yul\":9587:9722   */\n    tag_114:\n        /* \"#utility.yul\":9626:9629   */\n      0x00\n        /* \"#utility.yul\":9647:9664   */\n      0x01\n      dup3\n      add\n        /* \"#utility.yul\":9644:9687   */\n      tag_236\n      jumpi\n        /* \"#utility.yul\":9667:9685   */\n      tag_236\n      tag_172\n      jump\t// in\n    tag_236:\n      pop\n        /* \"#utility.yul\":9714:9715   */\n      0x01\n        /* \"#utility.yul\":9703:9716   */\n      add\n      swap1\n        /* \"#utility.yul\":9587:9722   */\n      jump\t// out\n        /* \"#utility.yul\":9853:10371   */\n    tag_174:\n        /* \"#utility.yul\":9955:9957   */\n      0x1f\n        /* \"#utility.yul\":9950:9953   */\n      dup3\n        /* \"#utility.yul\":9947:9958   */\n      gt\n        /* \"#utility.yul\":9944:10365   */\n      iszero\n      tag_239\n      jumpi\n        /* \"#utility.yul\":9991:9996   */\n      dup1\n        /* \"#utility.yul\":9988:9989   */\n      0x00\n        /* \"#utility.yul\":9981:9997   */\n      mstore\n        /* \"#utility.yul\":10035:10039   */\n      0x20\n        /* \"#utility.yul\":10032:10033   */\n      0x00\n        /* \"#utility.yul\":10022:10040   */\n      keccak256\n        /* \"#utility.yul\":10105:10107   */\n      0x1f\n        /* \"#utility.yul\":10093:10103   */\n      dup5\n        /* \"#utility.yul\":10089:10108   */\n      add\n        /* \"#utility.yul\":10086:10087   */\n      0x05\n        /* \"#utility.yul\":10082:10109   */\n      shr\n        /* \"#utility.yul\":10076:10080   */\n      dup2\n        /* \"#utility.yul\":10072:10110   */\n      add\n        /* \"#utility.yul\":10141:10145   */\n      0x20\n        /* \"#utility.yul\":10129:10139   */\n      dup6\n        /* \"#utility.yul\":10126:10146   */\n      lt\n        /* \"#utility.yul\":10123:10170   */\n      iszero\n      tag_240\n      jumpi\n      pop\n        /* \"#utility.yul\":10164:10168   */\n      dup1\n        /* \"#utility.yul\":10123:10170   */\n    tag_240:\n        /* \"#utility.yul\":10219:10221   */\n      0x1f\n        /* \"#utility.yul\":10214:10217   */\n      dup5\n        /* \"#utility.yul\":10210:10222   */\n      add\n        /* \"#utility.yul\":10207:10208   */\n      0x05\n        /* \"#utility.yul\":10203:10223   */\n      shr\n        /* \"#utility.yul\":10197:10201   */\n      dup3\n        /* \"#utility.yul\":10193:10224   */\n      add\n        /* \"#utility.yul\":10183:10224   */\n      swap2\n      pop\n        /* \"#utility.yul\":10274:10355   */\n    tag_241:\n        /* \"#utility.yul\":10292:10294   */\n      dup2\n        /* \"#utility.yul\":10285:10290   */\n      dup2\n        /* \"#utility.yul\":10282:10295   */\n      lt\n        /* \"#utility.yul\":10274:10355   */\n      iszero\n      tag_243\n      jumpi\n        /* \"#utility.yul\":10351:10352   */\n      0x00\n        /* \"#utility.yul\":10337:10353   */\n      dup2\n      sstore\n        /* \"#utility.yul\":10318:10319   */\n      0x01\n        /* \"#utility.yul\":10307:10320   */\n      add\n        /* \"#utility.yul\":10274:10355   */\n      jump(tag_241)\n    tag_243:\n        /* \"#utility.yul\":10278:10281   */\n      pop\n      pop\n        /* \"#utility.yul\":9944:10365   */\n    tag_239:\n        /* \"#utility.yul\":9853:10371   */\n      pop\n      pop\n      pop\n      jump\t// out\n        /* \"#utility.yul\":10547:11846   */\n    tag_121:\n        /* \"#utility.yul\":10673:10676   */\n      dup2\n        /* \"#utility.yul\":10667:10677   */\n      mload\n        /* \"#utility.yul\":10700:10718   */\n      0xffffffffffffffff\n        /* \"#utility.yul\":10692:10698   */\n      dup2\n        /* \"#utility.yul\":10689:10719   */\n      gt\n        /* \"#utility.yul\":10686:10742   */\n      iszero\n      tag_247\n      jumpi\n        /* \"#utility.yul\":10722:10740   */\n      tag_247\n      tag_170\n      jump\t// in\n    tag_247:\n        /* \"#utility.yul\":10751:10848   */\n      tag_248\n        /* \"#utility.yul\":10841:10847   */\n      dup2\n        /* \"#utility.yul\":10801:10839   */\n      tag_249\n        /* \"#utility.yul\":10833:10837   */\n      dup5\n        /* \"#utility.yul\":10827:10838   */\n      sload\n        /* \"#utility.yul\":10801:10839   */\n      tag_87\n      jump\t// in\n    tag_249:\n        /* \"#utility.yul\":10795:10799   */\n      dup5\n        /* \"#utility.yul\":10751:10848   */\n      tag_174\n      jump\t// in\n    tag_248:\n        /* \"#utility.yul\":10897:10901   */\n      0x20\n        /* \"#utility.yul\":10928:10930   */\n      0x1f\n        /* \"#utility.yul\":10917:10931   */\n      dup3\n      gt\n        /* \"#utility.yul\":10945:10946   */\n      0x01\n        /* \"#utility.yul\":10940:11589   */\n      dup2\n      eq\n      tag_251\n      jumpi\n        /* \"#utility.yul\":11633:11634   */\n      0x00\n        /* \"#utility.yul\":11650:11656   */\n      dup4\n        /* \"#utility.yul\":11647:11736   */\n      iszero\n      tag_252\n      jumpi\n      pop\n        /* \"#utility.yul\":11702:11721   */\n      dup5\n      dup3\n      add\n        /* \"#utility.yul\":11696:11722   */\n      mload\n        /* \"#utility.yul\":11647:11736   */\n    tag_252:\n      not(0x00)\n        /* \"#utility.yul\":10504:10505   */\n      0x03\n        /* \"#utility.yul\":10500:10511   */\n      dup6\n      swap1\n      shl\n        /* \"#utility.yul\":10496:10520   */\n      shr\n        /* \"#utility.yul\":10492:10521   */\n      not\n        /* \"#utility.yul\":10482:10522   */\n      and\n        /* \"#utility.yul\":10528:10529   */\n      0x01\n        /* \"#utility.yul\":10524:10535   */\n      dup5\n      swap1\n      shl\n        /* \"#utility.yul\":10479:10536   */\n      or\n        /* \"#utility.yul\":11749:11830   */\n      dup5\n      sstore\n        /* \"#utility.yul\":10910:11840   */\n      jump(tag_243)\n        /* \"#utility.yul\":10940:11589   */\n    tag_251:\n        /* \"#utility.yul\":9800:9801   */\n      0x00\n        /* \"#utility.yul\":9793:9807   */\n      dup5\n      dup2\n      mstore\n        /* \"#utility.yul\":9837:9841   */\n      0x20\n        /* \"#utility.yul\":9824:9842   */\n      dup2\n      keccak256\n      not(0x1f)\n        /* \"#utility.yul\":10976:10996   */\n      dup6\n      and\n      swap2\n        /* \"#utility.yul\":11094:11316   */\n    tag_255:\n        /* \"#utility.yul\":11108:11115   */\n      dup3\n        /* \"#utility.yul\":11105:11106   */\n      dup2\n        /* \"#utility.yul\":11102:11116   */\n      lt\n        /* \"#utility.yul\":11094:11316   */\n      iszero\n      tag_257\n      jumpi\n        /* \"#utility.yul\":11190:11209   */\n      dup8\n      dup6\n      add\n        /* \"#utility.yul\":11184:11210   */\n      mload\n        /* \"#utility.yul\":11169:11211   */\n      dup3\n      sstore\n        /* \"#utility.yul\":11297:11301   */\n      0x20\n        /* \"#utility.yul\":11282:11302   */\n      swap5\n      dup6\n      add\n      swap5\n        /* \"#utility.yul\":11250:11251   */\n      0x01\n        /* \"#utility.yul\":11238:11252   */\n      swap1\n      swap3\n      add\n      swap2\n        /* \"#utility.yul\":11124:11136   */\n      add\n        /* \"#utility.yul\":11094:11316   */\n      jump(tag_255)\n    tag_257:\n        /* \"#utility.yul\":11098:11101   */\n      pop\n        /* \"#utility.yul\":11344:11350   */\n      dup5\n        /* \"#utility.yul\":11335:11342   */\n      dup3\n        /* \"#utility.yul\":11332:11351   */\n      lt\n        /* \"#utility.yul\":11329:11530   */\n      iszero\n      tag_258\n      jumpi\n        /* \"#utility.yul\":11405:11424   */\n      dup7\n      dup5\n      add\n        /* \"#utility.yul\":11399:11425   */\n      mload\n      not(0x00)\n        /* \"#utility.yul\":11488:11489   */\n      0x03\n        /* \"#utility.yul\":11484:11498   */\n      dup8\n      swap1\n      shl\n        /* \"#utility.yul\":11500:11503   */\n      0xf8\n        /* \"#utility.yul\":11480:11504   */\n      and\n        /* \"#utility.yul\":11476:11513   */\n      shr\n        /* \"#utility.yul\":11472:11514   */\n      not\n        /* \"#utility.yul\":11457:11515   */\n      and\n        /* \"#utility.yul\":11442:11516   */\n      dup2\n      sstore\n        /* \"#utility.yul\":11329:11530   */\n    tag_258:\n      pop\n      pop\n      pop\n      pop\n        /* \"#utility.yul\":11576:11577   */\n      0x01\n        /* \"#utility.yul\":11560:11574   */\n      swap1\n      dup2\n      shl\n        /* \"#utility.yul\":11556:11578   */\n      add\n        /* \"#utility.yul\":11543:11579   */\n      swap1\n      sstore\n      pop\n        /* \"#utility.yul\":10547:11846   */\n      jump\t// out\n        /* \"#utility.yul\":11851:12230   */\n    tag_123:\n        /* \"#utility.yul\":12065:12090   */\n      dup4\n      dup2\n      mstore\n      sub(shl(0xa0, 0x01), 0x01)\n        /* \"#utility.yul\":12126:12158   */\n      dup4\n      and\n        /* \"#utility.yul\":12121:12123   */\n      0x20\n        /* \"#utility.yul\":12106:12124   */\n      dup3\n      add\n        /* \"#utility.yul\":12099:12159   */\n      mstore\n        /* \"#utility.yul\":12053:12055   */\n      0x60\n        /* \"#utility.yul\":12038:12056   */\n      dup2\n      add\n        /* \"#utility.yul\":12168:12224   */\n      tag_260\n        /* \"#utility.yul\":12220:12222   */\n      0x40\n        /* \"#utility.yul\":12205:12223   */\n      dup4\n      add\n        /* \"#utility.yul\":12197:12203   */\n      dup5\n        /* \"#utility.yul\":12168:12224   */\n      tag_169\n      jump\t// in\n    tag_260:\n        /* \"#utility.yul\":11851:12230   */\n      swap5\n      swap4\n      pop\n      pop\n      pop\n      pop\n      jump\t// out\n        /* \"#utility.yul\":12686:12870   */\n    tag_142:\n        /* \"#utility.yul\":12756:12762   */\n      0x00\n        /* \"#utility.yul\":12809:12811   */\n      0x20\n        /* \"#utility.yul\":12797:12806   */\n      dup3\n        /* \"#utility.yul\":12788:12795   */\n      dup5\n        /* \"#utility.yul\":12784:12807   */\n      sub\n        /* \"#utility.yul\":12780:12812   */\n      slt\n        /* \"#utility.yul\":12777:12829   */\n      iszero\n      tag_263\n      jumpi\n        /* \"#utility.yul\":12825:12826   */\n      0x00\n        /* \"#utility.yul\":12822:12823   */\n      0x00\n        /* \"#utility.yul\":12815:12827   */\n      revert\n        /* \"#utility.yul\":12777:12829   */\n    tag_263:\n      pop\n        /* \"#utility.yul\":12848:12864   */\n      mload\n      swap2\n        /* \"#utility.yul\":12686:12870   */\n      swap1\n      pop\n      jump\t// out\n        /* \"#utility.yul\":13653:13898   */\n    tag_151:\n        /* \"#utility.yul\":13720:13726   */\n      0x00\n        /* \"#utility.yul\":13773:13775   */\n      0x20\n        /* \"#utility.yul\":13761:13770   */\n      dup3\n        /* \"#utility.yul\":13752:13759   */\n      dup5\n        /* \"#utility.yul\":13748:13771   */\n      sub\n        /* \"#utility.yul\":13744:13776   */\n      slt\n        /* \"#utility.yul\":13741:13793   */\n      iszero\n      tag_267\n      jumpi\n        /* \"#utility.yul\":13789:13790   */\n      0x00\n        /* \"#utility.yul\":13786:13787   */\n      0x00\n        /* \"#utility.yul\":13779:13791   */\n      revert\n        /* \"#utility.yul\":13741:13793   */\n    tag_267:\n        /* \"#utility.yul\":13821:13830   */\n      dup2\n        /* \"#utility.yul\":13815:13831   */\n      mload\n        /* \"#utility.yul\":13840:13868   */\n      tag_183\n        /* \"#utility.yul\":13862:13867   */\n      dup2\n        /* \"#utility.yul\":13840:13868   */\n      tag_171\n      jump\t// in\n\n    auxdata: 0xa264697066735822122035ee9c4c3d001311d0b0124c9e5d63a400fa1878079d96b25963f1ccaff293f964736f6c634300081e0033\n}\n",
				"bytecode": {
					"linkReferences": {},
					"object": "60806040525f600555348015610013575f5ffd5b5060405161163d38038061163d833981016040819052610032916101e3565b6001600160a01b03821661009f5760405162461bcd60e51b815260206004820152602a60248201527fd090d0b4d180d0b5d18120d182d0bed0bad0b5d0bdd0b020d0bdd0b520d183d0604482015269bad0b0d0b7d0b0d0bd2160b01b606482015260840160405180910390fd5b5f80546001600160a01b0319166001600160a01b0384161781555b81518110156101ac5760015f8383815181106100d8576100d86102c1565b6020908102919091018101516001600160a01b031682528101919091526040015f205460ff166101a4576001805f848481518110610118576101186102c1565b60200260200101516001600160a01b03166001600160a01b031681526020019081526020015f205f6101000a81548160ff0219169083151502179055506004828281518110610169576101696102c1565b60209081029190910181015182546001810184555f938452919092200180546001600160a01b0319166001600160a01b039092169190911790555b6001016100ba565b5050506102d5565b80516001600160a01b03811681146101ca575f5ffd5b919050565b634e487b7160e01b5f52604160045260245ffd5b5f5f604083850312156101f4575f5ffd5b6101fd836101b4565b60208401519092506001600160401b03811115610218575f5ffd5b8301601f81018513610228575f5ffd5b80516001600160401b03811115610241576102416101cf565b604051600582901b90603f8201601f191681016001600160401b038111828210171561026f5761026f6101cf565b60405291825260208184018101929081018884111561028c575f5ffd5b6020850194505b838510156102b2576102a4856101b4565b815260209485019401610293565b50809450505050509250929050565b634e487b7160e01b5f52603260045260245ffd5b61135b806102e25f395ff3fe608060405234801561000f575f5ffd5b50600436106100a6575f3560e01c80635daf08ca1161006e5780635daf08ca146101775780638259d5531461018a578063a5ec87e41461019d578063bca510db146101b4578063c9d27afe146101c7578063d567897f146101da575f5ffd5b80630d61b519146100aa57806328bbea69146100bf57806330326c17146100f657806343859632146101205780634bf92a9f1461014d575b5f5ffd5b6100bd6100b8366004610cca565b6101ef565b005b6100e16100cd366004610cfc565b60016020525f908152604090205460ff1681565b60405190151581526020015b60405180910390f35b610109610104366004610cca565b6103a0565b6040516100ed9b9a99989796959493929190610d50565b6100e161012e366004610dec565b600360209081525f928352604080842090915290825290205460ff1681565b5f5461015f906001600160a01b031681565b6040516001600160a01b0390911681526020016100ed565b61015f610185366004610cca565b610495565b6100bd610198366004610cca565b6104bd565b6101a660055481565b6040519081526020016100ed565b6100bd6101c2366004610e2a565b610628565b6100bd6101d5366004610f0b565b61081d565b6101e2610bcb565b6040516100ed9190610f39565b5f8181526002602052604090206001015461010090046001600160a01b03166102335760405162461bcd60e51b815260040161022a90610f84565b60405180910390fd5b5f8181526002602052604090206001015461010090046001600160a01b031633146102705760405162461bcd60e51b815260040161022a90610fd5565b5f818152600260205260409020600781015460ff16156102a25760405162461bcd60e51b815260040161022a90611029565b6007810154610100900460ff16156102cc5760405162461bcd60e51b815260040161022a90611073565b335f9081526001602052604090205460ff166102fa5760405162461bcd60e51b815260040161022a906110b9565b8060040154421061031d5760405162461bcd60e51b815260040161022a906110f0565b8060060154816005015411156103455760078101805462ff0000191662010000179055610354565b60078101805462ff0000191690555b60078101805460ff19166001179055604080518381523360208201527f9c85b616f29fca57a17eafe71cf9ff82ffef41766e2cf01ea7f8f7878dd3ec2491015b60405180910390a15050565b600260208190525f9182526040909120805460018201549282018054919360ff8116936101009091046001600160a01b0316929091906103df90611144565b80601f016020809104026020016040519081016040528092919081815260200182805461040b90611144565b80156104565780601f1061042d57610100808354040283529160200191610456565b820191905f5260205f20905b81548152906001019060200180831161043957829003601f168201915b505050600384015460048501546005860154600687015460079097015495969295919450925060ff80821691610100810482169162010000909104168b565b600481815481106104a4575f80fd5b5f918252602090912001546001600160a01b0316905081565b5f8181526002602052604090206001015461010090046001600160a01b03166104f85760405162461bcd60e51b815260040161022a90610f84565b5f8181526002602052604090206001015461010090046001600160a01b031633146105355760405162461bcd60e51b815260040161022a90610fd5565b5f818152600260205260409020600781015460ff16156105675760405162461bcd60e51b815260040161022a90611029565b6007810154610100900460ff16156105915760405162461bcd60e51b815260040161022a90611073565b335f9081526001602052604090205460ff166105bf5760405162461bcd60e51b815260040161022a906110b9565b806004015442106105e25760405162461bcd60e51b815260040161022a906110f0565b60078101805461ff001916610100179055604080518381523360208201527f1cc72b66a90edbd83fa35ab712a40da76a0c42a438f11122f8f9fc7fa0f07a159101610394565b335f9081526001602052604090205460ff166106565760405162461bcd60e51b815260040161022a906110b9565b425f6106628483611190565b600580549192505f919082610676836111a9565b9190505590506040518061016001604052808281526020018760048111156106a0576106a0610d1c565b815233602080830191909152604080830188905260608301879052608083018690525f60a0840181905260c0840181905260e08401819052610100840181905261012090930183905284835260028252909120825181559082015160018281018054909160ff19919091169083600481111561071e5761071e610d1c565b021790555060408201516001820180546001600160a01b0390921661010002610100600160a81b031990921691909117905560608201516002820190610764908261120d565b506080820151600382015560a0820151600482015560c0820151600582015560e0820151600682015561010080830151600790920180546101208501516101409095015161ffff1990911693151561ff001916939093179315159091029290921762ff0000191662010000911515919091021790556040517f876b000c101c27e7aaff6a3254ea503d0e9bf516112d43803bd82989b13552359061080d90839033908a906112c8565b60405180910390a1505050505050565b5f8281526002602052604090206001015461010090046001600160a01b03166108585760405162461bcd60e51b815260040161022a90610f84565b5f828152600260205260409020600781015460ff161561088a5760405162461bcd60e51b815260040161022a90611029565b6007810154610100900460ff16156108b45760405162461bcd60e51b815260040161022a90611073565b5f83815260036020908152604080832033845290915290205460ff16156109295760405162461bcd60e51b8152602060048201526024808201527fd092d0b0d18820d0b3d0bed0bbd0bed18120d183d0b6d0b520d183d187d182d0604482015263b5d0bd2160e01b606482015260840161022a565b335f9081526001602052604090205460ff166109575760405162461bcd60e51b815260040161022a906110b9565b8060040154421061097a5760405162461bcd60e51b815260040161022a906110f0565b5f80546040516370a0823160e01b81523360048201526001600160a01b03909116906370a0823190602401602060405180830381865afa1580156109c0573d5f5f3e3d5ffd5b505050506040513d601f19601f820116820180604052508101906109e491906112f3565b90505f8111610a505760405162461bcd60e51b815260206004820152603260248201527fd0a320d0b2d0b0d18120d0bdd0b5d0b4d0bed181d182d0b0d182d0bed187d0bd604482015271d0be20d182d0bed0bad0b5d0bdd0bed0b22160701b606482015260840161022a565b5f5460405163a9059cbb60e01b815230600482015264e8d4a5100060248201526001600160a01b039091169063a9059cbb906044016020604051808303815f875af1158015610aa1573d5f5f3e3d5ffd5b505050506040513d601f19601f82011682018060405250810190610ac5919061130a565b610b275760405162461bcd60e51b815260206004820152602d60248201527fd09ed188d0b8d0b1d0bad0b020d181d0bfd0b8d181d0b0d0bdd0b8d18f20d18260448201526cd0bed0bad0b5d0bdd0bed0b22160981b606482015260840161022a565b8215610b4857600582018054905f610b3e836111a9565b9190505550610b5f565b600682018054905f610b59836111a9565b91905055505b5f8481526003602090815260408083203380855290835292819020805460ff191660011790558051878152918201929092528415158183015290517ff2913dbe661ee2acc4a046d8fbcdc792373bda34c41c6086484b5345e5785e5f916060908290030190a150505050565b335f9081526001602052604090205460609060ff16610c6c5760405162461bcd60e51b815260206004820152605160248201527fd0a2d0bed0bbd18cd0bad0be20d183d187d0b0d181d182d0bdd0b8d0bad0b82060448201527f44414f20d0bcd0bed0b3d183d18220d0bfd0bed181d0bcd0bed182d180d0b5d160648201527082d18c20d181d0bfd0b8d181d0bed0ba2160781b608482015260a40161022a565b6004805480602002602001604051908101604052809291908181526020018280548015610cc057602002820191905f5260205f20905b81546001600160a01b03168152600190910190602001808311610ca2575b5050505050905090565b5f60208284031215610cda575f5ffd5b5035919050565b80356001600160a01b0381168114610cf7575f5ffd5b919050565b5f60208284031215610d0c575f5ffd5b610d1582610ce1565b9392505050565b634e487b7160e01b5f52602160045260245ffd5b60058110610d4c57634e487b7160e01b5f52602160045260245ffd5b9052565b8b8152610d60602082018c610d30565b60018060a01b038a16604082015261016060608201525f8951806101608401528060208c0161018085015e5f6101808285010152610180601f19601f8301168401019150508860808301528760a08301528660c08301528560e0830152610dcc61010083018615159052565b921515610120820152901515610140909101529998505050505050505050565b5f5f60408385031215610dfd575f5ffd5b82359150610e0d60208401610ce1565b90509250929050565b634e487b7160e01b5f52604160045260245ffd5b5f5f5f60608486031215610e3c575f5ffd5b833560058110610e4a575f5ffd5b925060208401359150604084013567ffffffffffffffff811115610e6c575f5ffd5b8401601f81018613610e7c575f5ffd5b803567ffffffffffffffff811115610e9657610e96610e16565b604051601f8201601f19908116603f0116810167ffffffffffffffff81118282101715610ec557610ec5610e16565b604052818152828201602001881015610edc575f5ffd5b816020840160208301375f602083830101528093505050509250925092565b8015158114610f08575f5ffd5b50565b5f5f60408385031215610f1c575f5ffd5b823591506020830135610f2e81610efb565b809150509250929050565b602080825282518282018190525f918401906040840190835b81811015610f795783516001600160a01b0316835260209384019390920191600101610f52565b509095945050505050565b60208082526031908201527fd093d0bed0bbd0bed181d0bed0b2d0b0d0bdd0b8d18f20d0bdd0b520d181d183604082015270d189d0b5d181d182d0b2d183d0b5d1822160781b606082015260800190565b60208082526034908201527fd092d18b20d0bdd0b520d181d0bed0b7d0b4d0b0d182d0b5d0bbd18c20d0b3d0604082015273bed0bbd0bed181d0bed0b2d0b0d0bdd0b8d18f2160601b606082015260800190565b6020808252602a908201527fd093d0bed0bbd0bed181d0bed0b2d0b0d0bdd0b8d0b520d0b7d0b0d0b2d0b5d160408201526980d188d0b5d0bdd0be2160b01b606082015260800190565b60208082526026908201527fd093d0bed0bbd0bed181d0bed0b2d0b0d0bdd0b8d0b520d183d0b4d0b0d0bbd0604082015265b5d0bdd0be2160d01b606082015260800190565b6020808252601f908201527fd092d18b20d0bdd0b520d183d187d0b0d181d182d0bdd0b8d0ba2044414f2100604082015260600190565b60208082526034908201527fd093d0bed0bbd0bed181d0bed0b2d0b0d0bdd0b8d0b520d0bfd0bed0b4d0bed160408201527388d0bbd0be20d0ba20d0bad0bed0bdd186d1832160601b606082015260800190565b600181811c9082168061115857607f821691505b60208210810361117657634e487b7160e01b5f52602260045260245ffd5b50919050565b634e487b7160e01b5f52601160045260245ffd5b808201808211156111a3576111a361117c565b92915050565b5f600182016111ba576111ba61117c565b5060010190565b601f82111561120857805f5260205f20601f840160051c810160208510156111e65750805b601f840160051c820191505b81811015611205575f81556001016111f2565b50505b505050565b815167ffffffffffffffff81111561122757611227610e16565b61123b816112358454611144565b846111c1565b6020601f82116001811461126d575f83156112565750848201515b5f19600385901b1c1916600184901b178455611205565b5f84815260208120601f198516915b8281101561129c578785015182556020948501946001909201910161127c565b50848210156112b957868401515f19600387901b60f8161c191681555b50505050600190811b01905550565b8381526001600160a01b0383166020820152606081016112eb6040830184610d30565b949350505050565b5f60208284031215611303575f5ffd5b5051919050565b5f6020828403121561131a575f5ffd5b8151610d1581610efb56fea264697066735822122035ee9c4c3d001311d0b0124c9e5d63a400fa1878079d96b25963f1ccaff293f964736f6c634300081e0033",
					"opcodes": "PUSH1 0x80 PUSH1 0x40 MSTORE PUSH0 PUSH1 0x5 SSTORE CALLVALUE DUP1 ISZERO PUSH2 0x13 JUMPI PUSH0 PUSH0 REVERT JUMPDEST POP PUSH1 0x40 MLOAD PUSH2 0x163D CODESIZE SUB DUP1 PUSH2 0x163D DUP4 CODECOPY DUP2 ADD PUSH1 0x40 DUP2 SWAP1 MSTORE PUSH2 0x32 SWAP2 PUSH2 0x1E3 JUMP JUMPDEST PUSH1 0x1 PUSH1 0x1 PUSH1 0xA0 SHL SUB DUP3 AND PUSH2 0x9F JUMPI PUSH1 0x40 MLOAD PUSH3 0x461BCD PUSH1 0xE5 SHL DUP2 MSTORE PUSH1 0x20 PUSH1 0x4 DUP3 ADD MSTORE PUSH1 0x2A PUSH1 0x24 DUP3 ADD MSTORE PUSH32 0xD090D0B4D180D0B5D18120D182D0BED0BAD0B5D0BDD0B020D0BDD0B520D183D0 PUSH1 0x44 DUP3 ADD MSTORE PUSH10 0xBAD0B0D0B7D0B0D0BD21 PUSH1 0xB0 SHL PUSH1 0x64 DUP3 ADD MSTORE PUSH1 0x84 ADD PUSH1 0x40 MLOAD DUP1 SWAP2 SUB SWAP1 REVERT JUMPDEST PUSH0 DUP1 SLOAD PUSH1 0x1 PUSH1 0x1 PUSH1 0xA0 SHL SUB NOT AND PUSH1 0x1 PUSH1 0x1 PUSH1 0xA0 SHL SUB DUP5 AND OR DUP2 SSTORE JUMPDEST DUP2 MLOAD DUP2 LT ISZERO PUSH2 0x1AC JUMPI PUSH1 0x1 PUSH0 DUP4 DUP4 DUP2 MLOAD DUP2 LT PUSH2 0xD8 JUMPI PUSH2 0xD8 PUSH2 0x2C1 JUMP JUMPDEST PUSH1 0x20 SWAP1 DUP2 MUL SWAP2 SWAP1 SWAP2 ADD DUP2 ADD MLOAD PUSH1 0x1 PUSH1 0x1 PUSH1 0xA0 SHL SUB AND DUP3 MSTORE DUP2 ADD SWAP2 SWAP1 SWAP2 MSTORE PUSH1 0x40 ADD PUSH0 KECCAK256 SLOAD PUSH1 0xFF AND PUSH2 0x1A4 JUMPI PUSH1 0x1 DUP1 PUSH0 DUP5 DUP5 DUP2 MLOAD DUP2 LT PUSH2 0x118 JUMPI PUSH2 0x118 PUSH2 0x2C1 JUMP JUMPDEST PUSH1 0x20 MUL PUSH1 0x20 ADD ADD MLOAD PUSH1 0x1 PUSH1 0x1 PUSH1 0xA0 SHL SUB AND PUSH1 0x1 PUSH1 0x1 PUSH1 0xA0 SHL SUB AND DUP2 MSTORE PUSH1 0x20 ADD SWAP1 DUP2 MSTORE PUSH1 0x20 ADD PUSH0 KECCAK256 PUSH0 PUSH2 0x100 EXP DUP2 SLOAD DUP2 PUSH1 0xFF MUL NOT AND SWAP1 DUP4 ISZERO ISZERO MUL OR SWAP1 SSTORE POP PUSH1 0x4 DUP3 DUP3 DUP2 MLOAD DUP2 LT PUSH2 0x169 JUMPI PUSH2 0x169 PUSH2 0x2C1 JUMP JUMPDEST PUSH1 0x20 SWAP1 DUP2 MUL SWAP2 SWAP1 SWAP2 ADD DUP2 ADD MLOAD DUP3 SLOAD PUSH1 0x1 DUP2 ADD DUP5 SSTORE PUSH0 SWAP4 DUP5 MSTORE SWAP2 SWAP1 SWAP3 KECCAK256 ADD DUP1 SLOAD PUSH1 0x1 PUSH1 0x1 PUSH1 0xA0 SHL SUB NOT AND PUSH1 0x1 PUSH1 0x1 PUSH1 0xA0 SHL SUB SWAP1 SWAP3 AND SWAP2 SWAP1 SWAP2 OR SWAP1 SSTORE JUMPDEST PUSH1 0x1 ADD PUSH2 0xBA JUMP JUMPDEST POP POP POP PUSH2 0x2D5 JUMP JUMPDEST DUP1 MLOAD PUSH1 0x1 PUSH1 0x1 PUSH1 0xA0 SHL SUB DUP2 AND DUP2 EQ PUSH2 0x1CA JUMPI PUSH0 PUSH0 REVERT JUMPDEST SWAP2 SWAP1 POP JUMP JUMPDEST PUSH4 0x4E487B71 PUSH1 0xE0 SHL PUSH0 MSTORE PUSH1 0x41 PUSH1 0x4 MSTORE PUSH1 0x24 PUSH0 REVERT JUMPDEST PUSH0 PUSH0 PUSH1 0x40 DUP4 DUP6 SUB SLT ISZERO PUSH2 0x1F4 JUMPI PUSH0 PUSH0 REVERT JUMPDEST PUSH2 0x1FD DUP4 PUSH2 0x1B4 JUMP JUMPDEST PUSH1 0x20 DUP5 ADD MLOAD SWAP1 SWAP3 POP PUSH1 0x1 PUSH1 0x1 PUSH1 0x40 SHL SUB DUP2 GT ISZERO PUSH2 0x218 JUMPI PUSH0 PUSH0 REVERT JUMPDEST DUP4 ADD PUSH1 0x1F DUP2 ADD DUP6 SGT PUSH2 0x228 JUMPI PUSH0 PUSH0 REVERT JUMPDEST DUP1 MLOAD PUSH1 0x1 PUSH1 0x1 PUSH1 0x40 SHL SUB DUP2 GT ISZERO PUSH2 0x241 JUMPI PUSH2 0x241 PUSH2 0x1CF JUMP JUMPDEST PUSH1 0x40 MLOAD PUSH1 0x5 DUP3 SWAP1 SHL SWAP1 PUSH1 0x3F DUP3 ADD PUSH1 0x1F NOT AND DUP2 ADD PUSH1 0x1 PUSH1 0x1 PUSH1 0x40 SHL SUB DUP2 GT DUP3 DUP3 LT OR ISZERO PUSH2 0x26F JUMPI PUSH2 0x26F PUSH2 0x1CF JUMP JUMPDEST PUSH1 0x40 MSTORE SWAP2 DUP3 MSTORE PUSH1 0x20 DUP2 DUP5 ADD DUP2 ADD SWAP3 SWAP1 DUP2 ADD DUP9 DUP5 GT ISZERO PUSH2 0x28C JUMPI PUSH0 PUSH0 REVERT JUMPDEST PUSH1 0x20 DUP6 ADD SWAP5 POP JUMPDEST DUP4 DUP6 LT ISZERO PUSH2 0x2B2 JUMPI PUSH2 0x2A4 DUP6 PUSH2 0x1B4 JUMP JUMPDEST DUP2 MSTORE PUSH1 0x20 SWAP5 DUP6 ADD SWAP5 ADD PUSH2 0x293 JUMP JUMPDEST POP DUP1 SWAP5 POP POP POP POP POP SWAP3 POP SWAP3 SWAP1 POP JUMP JUMPDEST PUSH4 0x4E487B71 PUSH1 0xE0 SHL PUSH0 MSTORE PUSH1 0x32 PUSH1 0x4 MSTORE PUSH1 0x24 PUSH0 REVERT JUMPDEST PUSH2 0x135B DUP1 PUSH2 0x2E2 PUSH0 CODECOPY PUSH0 RETURN INVALID PUSH1 0x80 PUSH1 0x40 MSTORE CALLVALUE DUP1 ISZERO PUSH2 0xF JUMPI PUSH0 PUSH0 REVERT JUMPDEST POP PUSH1 0x4 CALLDATASIZE LT PUSH2 0xA6 JUMPI PUSH0 CALLDATALOAD PUSH1 0xE0 SHR DUP1 PUSH4 0x5DAF08CA GT PUSH2 0x6E JUMPI DUP1 PUSH4 0x5DAF08CA EQ PUSH2 0x177 JUMPI DUP1 PUSH4 0x8259D553 EQ PUSH2 0x18A JUMPI DUP1 PUSH4 0xA5EC87E4 EQ PUSH2 0x19D JUMPI DUP1 PUSH4 0xBCA510DB EQ PUSH2 0x1B4 JUMPI DUP1 PUSH4 0xC9D27AFE EQ PUSH2 0x1C7 JUMPI DUP1 PUSH4 0xD567897F EQ PUSH2 0x1DA JUMPI PUSH0 PUSH0 REVERT JUMPDEST DUP1 PUSH4 0xD61B519 EQ PUSH2 0xAA JUMPI DUP1 PUSH4 0x28BBEA69 EQ PUSH2 0xBF JUMPI DUP1 PUSH4 0x30326C17 EQ PUSH2 0xF6 JUMPI DUP1 PUSH4 0x43859632 EQ PUSH2 0x120 JUMPI DUP1 PUSH4 0x4BF92A9F EQ PUSH2 0x14D JUMPI JUMPDEST PUSH0 PUSH0 REVERT JUMPDEST PUSH2 0xBD PUSH2 0xB8 CALLDATASIZE PUSH1 0x4 PUSH2 0xCCA JUMP JUMPDEST PUSH2 0x1EF JUMP JUMPDEST STOP JUMPDEST PUSH2 0xE1 PUSH2 0xCD CALLDATASIZE PUSH1 0x4 PUSH2 0xCFC JUMP JUMPDEST PUSH1 0x1 PUSH1 0x20 MSTORE PUSH0 SWAP1 DUP2 MSTORE PUSH1 0x40 SWAP1 KECCAK256 SLOAD PUSH1 0xFF AND DUP2 JUMP JUMPDEST PUSH1 0x40 MLOAD SWAP1 ISZERO ISZERO DUP2 MSTORE PUSH1 0x20 ADD JUMPDEST PUSH1 0x40 MLOAD DUP1 SWAP2 SUB SWAP1 RETURN JUMPDEST PUSH2 0x109 PUSH2 0x104 CALLDATASIZE PUSH1 0x4 PUSH2 0xCCA JUMP JUMPDEST PUSH2 0x3A0 JUMP JUMPDEST PUSH1 0x40 MLOAD PUSH2 0xED SWAP12 SWAP11 SWAP10 SWAP9 SWAP8 SWAP7 SWAP6 SWAP5 SWAP4 SWAP3 SWAP2 SWAP1 PUSH2 0xD50 JUMP JUMPDEST PUSH2 0xE1 PUSH2 0x12E CALLDATASIZE PUSH1 0x4 PUSH2 0xDEC JUMP JUMPDEST PUSH1 0x3 PUSH1 0x20 SWAP1 DUP2 MSTORE PUSH0 SWAP3 DUP4 MSTORE PUSH1 0x40 DUP1 DUP5 KECCAK256 SWAP1 SWAP2 MSTORE SWAP1 DUP3 MSTORE SWAP1 KECCAK256 SLOAD PUSH1 0xFF AND DUP2 JUMP JUMPDEST PUSH0 SLOAD PUSH2 0x15F SWAP1 PUSH1 0x1 PUSH1 0x1 PUSH1 0xA0 SHL SUB AND DUP2 JUMP JUMPDEST PUSH1 0x40 MLOAD PUSH1 0x1 PUSH1 0x1 PUSH1 0xA0 SHL SUB SWAP1 SWAP2 AND DUP2 MSTORE PUSH1 0x20 ADD PUSH2 0xED JUMP JUMPDEST PUSH2 0x15F PUSH2 0x185 CALLDATASIZE PUSH1 0x4 PUSH2 0xCCA JUMP JUMPDEST PUSH2 0x495 JUMP JUMPDEST PUSH2 0xBD PUSH2 0x198 CALLDATASIZE PUSH1 0x4 PUSH2 0xCCA JUMP JUMPDEST PUSH2 0x4BD JUMP JUMPDEST PUSH2 0x1A6 PUSH1 0x5 SLOAD DUP2 JUMP JUMPDEST PUSH1 0x40 MLOAD SWAP1 DUP2 MSTORE PUSH1 0x20 ADD PUSH2 0xED JUMP JUMPDEST PUSH2 0xBD PUSH2 0x1C2 CALLDATASIZE PUSH1 0x4 PUSH2 0xE2A JUMP JUMPDEST PUSH2 0x628 JUMP JUMPDEST PUSH2 0xBD PUSH2 0x1D5 CALLDATASIZE PUSH1 0x4 PUSH2 0xF0B JUMP JUMPDEST PUSH2 0x81D JUMP JUMPDEST PUSH2 0x1E2 PUSH2 0xBCB JUMP JUMPDEST PUSH1 0x40 MLOAD PUSH2 0xED SWAP2 SWAP1 PUSH2 0xF39 JUMP JUMPDEST PUSH0 DUP2 DUP2 MSTORE PUSH1 0x2 PUSH1 0x20 MSTORE PUSH1 0x40 SWAP1 KECCAK256 PUSH1 0x1 ADD SLOAD PUSH2 0x100 SWAP1 DIV PUSH1 0x1 PUSH1 0x1 PUSH1 0xA0 SHL SUB AND PUSH2 0x233 JUMPI PUSH1 0x40 MLOAD PUSH3 0x461BCD PUSH1 0xE5 SHL DUP2 MSTORE PUSH1 0x4 ADD PUSH2 0x22A SWAP1 PUSH2 0xF84 JUMP JUMPDEST PUSH1 0x40 MLOAD DUP1 SWAP2 SUB SWAP1 REVERT JUMPDEST PUSH0 DUP2 DUP2 MSTORE PUSH1 0x2 PUSH1 0x20 MSTORE PUSH1 0x40 SWAP1 KECCAK256 PUSH1 0x1 ADD SLOAD PUSH2 0x100 SWAP1 DIV PUSH1 0x1 PUSH1 0x1 PUSH1 0xA0 SHL SUB AND CALLER EQ PUSH2 0x270 JUMPI PUSH1 0x40 MLOAD PUSH3 0x461BCD PUSH1 0xE5 SHL DUP2 MSTORE PUSH1 0x4 ADD PUSH2 0x22A SWAP1 PUSH2 0xFD5 JUMP JUMPDEST PUSH0 DUP2 DUP2 MSTORE PUSH1 0x2 PUSH1 0x20 MSTORE PUSH1 0x40 SWAP1 KECCAK256 PUSH1 0x7 DUP2 ADD SLOAD PUSH1 0xFF AND ISZERO PUSH2 0x2A2 JUMPI PUSH1 0x40 MLOAD PUSH3 0x461BCD PUSH1 0xE5 SHL DUP2 MSTORE PUSH1 0x4 ADD PUSH2 0x22A SWAP1 PUSH2 0x1029 JUMP JUMPDEST PUSH1 0x7 DUP2 ADD SLOAD PUSH2 0x100 SWAP1 DIV PUSH1 0xFF AND ISZERO PUSH2 0x2CC JUMPI PUSH1 0x40 MLOAD PUSH3 0x461BCD PUSH1 0xE5 SHL DUP2 MSTORE PUSH1 0x4 ADD PUSH2 0x22A SWAP1 PUSH2 0x1073 JUMP JUMPDEST CALLER PUSH0 SWAP1 DUP2 MSTORE PUSH1 0x1 PUSH1 0x20 MSTORE PUSH1 0x40 SWAP1 KECCAK256 SLOAD PUSH1 0xFF AND PUSH2 0x2FA JUMPI PUSH1 0x40 MLOAD PUSH3 0x461BCD PUSH1 0xE5 SHL DUP2 MSTORE PUSH1 0x4 ADD PUSH2 0x22A SWAP1 PUSH2 0x10B9 JUMP JUMPDEST DUP1 PUSH1 0x4 ADD SLOAD TIMESTAMP LT PUSH2 0x31D JUMPI PUSH1 0x40 MLOAD PUSH3 0x461BCD PUSH1 0xE5 SHL DUP2 MSTORE PUSH1 0x4 ADD PUSH2 0x22A SWAP1 PUSH2 0x10F0 JUMP JUMPDEST DUP1 PUSH1 0x6 ADD SLOAD DUP2 PUSH1 0x5 ADD SLOAD GT ISZERO PUSH2 0x345 JUMPI PUSH1 0x7 DUP2 ADD DUP1 SLOAD PUSH3 0xFF0000 NOT AND PUSH3 0x10000 OR SWAP1 SSTORE PUSH2 0x354 JUMP JUMPDEST PUSH1 0x7 DUP2 ADD DUP1 SLOAD PUSH3 0xFF0000 NOT AND SWAP1 SSTORE JUMPDEST PUSH1 0x7 DUP2 ADD DUP1 SLOAD PUSH1 0xFF NOT AND PUSH1 0x1 OR SWAP1 SSTORE PUSH1 0x40 DUP1 MLOAD DUP4 DUP2 MSTORE CALLER PUSH1 0x20 DUP3 ADD MSTORE PUSH32 0x9C85B616F29FCA57A17EAFE71CF9FF82FFEF41766E2CF01EA7F8F7878DD3EC24 SWAP2 ADD JUMPDEST PUSH1 0x40 MLOAD DUP1 SWAP2 SUB SWAP1 LOG1 POP POP JUMP JUMPDEST PUSH1 0x2 PUSH1 0x20 DUP2 SWAP1 MSTORE PUSH0 SWAP2 DUP3 MSTORE PUSH1 0x40 SWAP1 SWAP2 KECCAK256 DUP1 SLOAD PUSH1 0x1 DUP3 ADD SLOAD SWAP3 DUP3 ADD DUP1 SLOAD SWAP2 SWAP4 PUSH1 0xFF DUP2 AND SWAP4 PUSH2 0x100 SWAP1 SWAP2 DIV PUSH1 0x1 PUSH1 0x1 PUSH1 0xA0 SHL SUB AND SWAP3 SWAP1 SWAP2 SWAP1 PUSH2 0x3DF SWAP1 PUSH2 0x1144 JUMP JUMPDEST DUP1 PUSH1 0x1F ADD PUSH1 0x20 DUP1 SWAP2 DIV MUL PUSH1 0x20 ADD PUSH1 0x40 MLOAD SWAP1 DUP2 ADD PUSH1 0x40 MSTORE DUP1 SWAP3 SWAP2 SWAP1 DUP2 DUP2 MSTORE PUSH1 0x20 ADD DUP3 DUP1 SLOAD PUSH2 0x40B SWAP1 PUSH2 0x1144 JUMP JUMPDEST DUP1 ISZERO PUSH2 0x456 JUMPI DUP1 PUSH1 0x1F LT PUSH2 0x42D JUMPI PUSH2 0x100 DUP1 DUP4 SLOAD DIV MUL DUP4 MSTORE SWAP2 PUSH1 0x20 ADD SWAP2 PUSH2 0x456 JUMP JUMPDEST DUP3 ADD SWAP2 SWAP1 PUSH0 MSTORE PUSH1 0x20 PUSH0 KECCAK256 SWAP1 JUMPDEST DUP2 SLOAD DUP2 MSTORE SWAP1 PUSH1 0x1 ADD SWAP1 PUSH1 0x20 ADD DUP1 DUP4 GT PUSH2 0x439 JUMPI DUP3 SWAP1 SUB PUSH1 0x1F AND DUP3 ADD SWAP2 JUMPDEST POP POP POP PUSH1 0x3 DUP5 ADD SLOAD PUSH1 0x4 DUP6 ADD SLOAD PUSH1 0x5 DUP7 ADD SLOAD PUSH1 0x6 DUP8 ADD SLOAD PUSH1 0x7 SWAP1 SWAP8 ADD SLOAD SWAP6 SWAP7 SWAP3 SWAP6 SWAP2 SWAP5 POP SWAP3 POP PUSH1 0xFF DUP1 DUP3 AND SWAP2 PUSH2 0x100 DUP2 DIV DUP3 AND SWAP2 PUSH3 0x10000 SWAP1 SWAP2 DIV AND DUP12 JUMP JUMPDEST PUSH1 0x4 DUP2 DUP2 SLOAD DUP2 LT PUSH2 0x4A4 JUMPI PUSH0 DUP1 REVERT JUMPDEST PUSH0 SWAP2 DUP3 MSTORE PUSH1 0x20 SWAP1 SWAP2 KECCAK256 ADD SLOAD PUSH1 0x1 PUSH1 0x1 PUSH1 0xA0 SHL SUB AND SWAP1 POP DUP2 JUMP JUMPDEST PUSH0 DUP2 DUP2 MSTORE PUSH1 0x2 PUSH1 0x20 MSTORE PUSH1 0x40 SWAP1 KECCAK256 PUSH1 0x1 ADD SLOAD PUSH2 0x100 SWAP1 DIV PUSH1 0x1 PUSH1 0x1 PUSH1 0xA0 SHL SUB AND PUSH2 0x4F8 JUMPI PUSH1 0x40 MLOAD PUSH3 0x461BCD PUSH1 0xE5 SHL DUP2 MSTORE PUSH1 0x4 ADD PUSH2 0x22A SWAP1 PUSH2 0xF84 JUMP JUMPDEST PUSH0 DUP2 DUP2 MSTORE PUSH1 0x2 PUSH1 0x20 MSTORE PUSH1 0x40 SWAP1 KECCAK256 PUSH1 0x1 ADD SLOAD PUSH2 0x100 SWAP1 DIV PUSH1 0x1 PUSH1 0x1 PUSH1 0xA0 SHL SUB AND CALLER EQ PUSH2 0x535 JUMPI PUSH1 0x40 MLOAD PUSH3 0x461BCD PUSH1 0xE5 SHL DUP2 MSTORE PUSH1 0x4 ADD PUSH2 0x22A SWAP1 PUSH2 0xFD5 JUMP JUMPDEST PUSH0 DUP2 DUP2 MSTORE PUSH1 0x2 PUSH1 0x20 MSTORE PUSH1 0x40 SWAP1 KECCAK256 PUSH1 0x7 DUP2 ADD SLOAD PUSH1 0xFF AND ISZERO PUSH2 0x567 JUMPI PUSH1 0x40 MLOAD PUSH3 0x461BCD PUSH1 0xE5 SHL DUP2 MSTORE PUSH1 0x4 ADD PUSH2 0x22A SWAP1 PUSH2 0x1029 JUMP JUMPDEST PUSH1 0x7 DUP2 ADD SLOAD PUSH2 0x100 SWAP1 DIV PUSH1 0xFF AND ISZERO PUSH2 0x591 JUMPI PUSH1 0x40 MLOAD PUSH3 0x461BCD PUSH1 0xE5 SHL DUP2 MSTORE PUSH1 0x4 ADD PUSH2 0x22A SWAP1 PUSH2 0x1073 JUMP JUMPDEST CALLER PUSH0 SWAP1 DUP2 MSTORE PUSH1 0x1 PUSH1 0x20 MSTORE PUSH1 0x40 SWAP1 KECCAK256 SLOAD PUSH1 0xFF AND PUSH2 0x5BF JUMPI PUSH1 0x40 MLOAD PUSH3 0x461BCD PUSH1 0xE5 SHL DUP2 MSTORE PUSH1 0x4 ADD PUSH2 0x22A SWAP1 PUSH2 0x10B9 JUMP JUMPDEST DUP1 PUSH1 0x4 ADD SLOAD TIMESTAMP LT PUSH2 0x5E2 JUMPI PUSH1 0x40 MLOAD PUSH3 0x461BCD PUSH1 0xE5 SHL DUP2 MSTORE PUSH1 0x4 ADD PUSH2 0x22A SWAP1 PUSH2 0x10F0 JUMP JUMPDEST PUSH1 0x7 DUP2 ADD DUP1 SLOAD PUSH2 0xFF00 NOT AND PUSH2 0x100 OR SWAP1 SSTORE PUSH1 0x40 DUP1 MLOAD DUP4 DUP2 MSTORE CALLER PUSH1 0x20 DUP3 ADD MSTORE PUSH32 0x1CC72B66A90EDBD83FA35AB712A40DA76A0C42A438F11122F8F9FC7FA0F07A15 SWAP2 ADD PUSH2 0x394 JUMP JUMPDEST CALLER PUSH0 SWAP1 DUP2 MSTORE PUSH1 0x1 PUSH1 0x20 MSTORE PUSH1 0x40 SWAP1 KECCAK256 SLOAD PUSH1 0xFF AND PUSH2 0x656 JUMPI PUSH1 0x40 MLOAD PUSH3 0x461BCD PUSH1 0xE5 SHL DUP2 MSTORE PUSH1 0x4 ADD PUSH2 0x22A SWAP1 PUSH2 0x10B9 JUMP JUMPDEST TIMESTAMP PUSH0 PUSH2 0x662 DUP5 DUP4 PUSH2 0x1190 JUMP JUMPDEST PUSH1 0x5 DUP1 SLOAD SWAP2 SWAP3 POP PUSH0 SWAP2 SWAP1 DUP3 PUSH2 0x676 DUP4 PUSH2 0x11A9 JUMP JUMPDEST SWAP2 SWAP1 POP SSTORE SWAP1 POP PUSH1 0x40 MLOAD DUP1 PUSH2 0x160 ADD PUSH1 0x40 MSTORE DUP1 DUP3 DUP2 MSTORE PUSH1 0x20 ADD DUP8 PUSH1 0x4 DUP2 GT ISZERO PUSH2 0x6A0 JUMPI PUSH2 0x6A0 PUSH2 0xD1C JUMP JUMPDEST DUP2 MSTORE CALLER PUSH1 0x20 DUP1 DUP4 ADD SWAP2 SWAP1 SWAP2 MSTORE PUSH1 0x40 DUP1 DUP4 ADD DUP9 SWAP1 MSTORE PUSH1 0x60 DUP4 ADD DUP8 SWAP1 MSTORE PUSH1 0x80 DUP4 ADD DUP7 SWAP1 MSTORE PUSH0 PUSH1 0xA0 DUP5 ADD DUP2 SWAP1 MSTORE PUSH1 0xC0 DUP5 ADD DUP2 SWAP1 MSTORE PUSH1 0xE0 DUP5 ADD DUP2 SWAP1 MSTORE PUSH2 0x100 DUP5 ADD DUP2 SWAP1 MSTORE PUSH2 0x120 SWAP1 SWAP4 ADD DUP4 SWAP1 MSTORE DUP5 DUP4 MSTORE PUSH1 0x2 DUP3 MSTORE SWAP1 SWAP2 KECCAK256 DUP3 MLOAD DUP2 SSTORE SWAP1 DUP3 ADD MLOAD PUSH1 0x1 DUP3 DUP2 ADD DUP1 SLOAD SWAP1 SWAP2 PUSH1 0xFF NOT SWAP2 SWAP1 SWAP2 AND SWAP1 DUP4 PUSH1 0x4 DUP2 GT ISZERO PUSH2 0x71E JUMPI PUSH2 0x71E PUSH2 0xD1C JUMP JUMPDEST MUL OR SWAP1 SSTORE POP PUSH1 0x40 DUP3 ADD MLOAD PUSH1 0x1 DUP3 ADD DUP1 SLOAD PUSH1 0x1 PUSH1 0x1 PUSH1 0xA0 SHL SUB SWAP1 SWAP3 AND PUSH2 0x100 MUL PUSH2 0x100 PUSH1 0x1 PUSH1 0xA8 SHL SUB NOT SWAP1 SWAP3 AND SWAP2 SWAP1 SWAP2 OR SWAP1 SSTORE PUSH1 0x60 DUP3 ADD MLOAD PUSH1 0x2 DUP3 ADD SWAP1 PUSH2 0x764 SWAP1 DUP3 PUSH2 0x120D JUMP JUMPDEST POP PUSH1 0x80 DUP3 ADD MLOAD PUSH1 0x3 DUP3 ADD SSTORE PUSH1 0xA0 DUP3 ADD MLOAD PUSH1 0x4 DUP3 ADD SSTORE PUSH1 0xC0 DUP3 ADD MLOAD PUSH1 0x5 DUP3 ADD SSTORE PUSH1 0xE0 DUP3 ADD MLOAD PUSH1 0x6 DUP3 ADD SSTORE PUSH2 0x100 DUP1 DUP4 ADD MLOAD PUSH1 0x7 SWAP1 SWAP3 ADD DUP1 SLOAD PUSH2 0x120 DUP6 ADD MLOAD PUSH2 0x140 SWAP1 SWAP6 ADD MLOAD PUSH2 0xFFFF NOT SWAP1 SWAP2 AND SWAP4 ISZERO ISZERO PUSH2 0xFF00 NOT AND SWAP4 SWAP1 SWAP4 OR SWAP4 ISZERO ISZERO SWAP1 SWAP2 MUL SWAP3 SWAP1 SWAP3 OR PUSH3 0xFF0000 NOT AND PUSH3 0x10000 SWAP2 ISZERO ISZERO SWAP2 SWAP1 SWAP2 MUL OR SWAP1 SSTORE PUSH1 0x40 MLOAD PUSH32 0x876B000C101C27E7AAFF6A3254EA503D0E9BF516112D43803BD82989B1355235 SWAP1 PUSH2 0x80D SWAP1 DUP4 SWAP1 CALLER SWAP1 DUP11 SWAP1 PUSH2 0x12C8 JUMP JUMPDEST PUSH1 0x40 MLOAD DUP1 SWAP2 SUB SWAP1 LOG1 POP POP POP POP POP POP JUMP JUMPDEST PUSH0 DUP3 DUP2 MSTORE PUSH1 0x2 PUSH1 0x20 MSTORE PUSH1 0x40 SWAP1 KECCAK256 PUSH1 0x1 ADD SLOAD PUSH2 0x100 SWAP1 DIV PUSH1 0x1 PUSH1 0x1 PUSH1 0xA0 SHL SUB AND PUSH2 0x858 JUMPI PUSH1 0x40 MLOAD PUSH3 0x461BCD PUSH1 0xE5 SHL DUP2 MSTORE PUSH1 0x4 ADD PUSH2 0x22A SWAP1 PUSH2 0xF84 JUMP JUMPDEST PUSH0 DUP3 DUP2 MSTORE PUSH1 0x2 PUSH1 0x20 MSTORE PUSH1 0x40 SWAP1 KECCAK256 PUSH1 0x7 DUP2 ADD SLOAD PUSH1 0xFF AND ISZERO PUSH2 0x88A JUMPI PUSH1 0x40 MLOAD PUSH3 0x461BCD PUSH1 0xE5 SHL DUP2 MSTORE PUSH1 0x4 ADD PUSH2 0x22A SWAP1 PUSH2 0x1029 JUMP JUMPDEST PUSH1 0x7 DUP2 ADD SLOAD PUSH2 0x100 SWAP1 DIV PUSH1 0xFF AND ISZERO PUSH2 0x8B4 JUMPI PUSH1 0x40 MLOAD PUSH3 0x461BCD PUSH1 0xE5 SHL DUP2 MSTORE PUSH1 0x4 ADD PUSH2 0x22A SWAP1 PUSH2 0x1073 JUMP JUMPDEST PUSH0 DUP4 DUP2 MSTORE PUSH1 0x3 PUSH1 0x20 SWAP1 DUP2 MSTORE PUSH1 0x40 DUP1 DUP4 KECCAK256 CALLER DUP5 MSTORE SWAP1 SWAP2 MSTORE SWAP1 KECCAK256 SLOAD PUSH1 0xFF AND ISZERO PUSH2 0x929 JUMPI PUSH1 0x40 MLOAD PUSH3 0x461BCD PUSH1 0xE5 SHL DUP2 MSTORE PUSH1 0x20 PUSH1 0x4 DUP3 ADD MSTORE PUSH1 0x24 DUP1 DUP3 ADD MSTORE PUSH32 0xD092D0B0D18820D0B3D0BED0BBD0BED18120D183D0B6D0B520D183D187D182D0 PUSH1 0x44 DUP3 ADD MSTORE PUSH4 0xB5D0BD21 PUSH1 0xE0 SHL PUSH1 0x64 DUP3 ADD MSTORE PUSH1 0x84 ADD PUSH2 0x22A JUMP JUMPDEST CALLER PUSH0 SWAP1 DUP2 MSTORE PUSH1 0x1 PUSH1 0x20 MSTORE PUSH1 0x40 SWAP1 KECCAK256 SLOAD PUSH1 0xFF AND PUSH2 0x957 JUMPI PUSH1 0x40 MLOAD PUSH3 0x461BCD PUSH1 0xE5 SHL DUP2 MSTORE PUSH1 0x4 ADD PUSH2 0x22A SWAP1 PUSH2 0x10B9 JUMP JUMPDEST DUP1 PUSH1 0x4 ADD SLOAD TIMESTAMP LT PUSH2 0x97A JUMPI PUSH1 0x40 MLOAD PUSH3 0x461BCD PUSH1 0xE5 SHL DUP2 MSTORE PUSH1 0x4 ADD PUSH2 0x22A SWAP1 PUSH2 0x10F0 JUMP JUMPDEST PUSH0 DUP1 SLOAD PUSH1 0x40 MLOAD PUSH4 0x70A08231 PUSH1 0xE0 SHL DUP2 MSTORE CALLER PUSH1 0x4 DUP3 ADD MSTORE PUSH1 0x1 PUSH1 0x1 PUSH1 0xA0 SHL SUB SWAP1 SWAP2 AND SWAP1 PUSH4 0x70A08231 SWAP1 PUSH1 0x24 ADD PUSH1 0x20 PUSH1 0x40 MLOAD DUP1 DUP4 SUB DUP2 DUP7 GAS STATICCALL ISZERO DUP1 ISZERO PUSH2 0x9C0 JUMPI RETURNDATASIZE PUSH0 PUSH0 RETURNDATACOPY RETURNDATASIZE PUSH0 REVERT JUMPDEST POP POP POP POP PUSH1 0x40 MLOAD RETURNDATASIZE PUSH1 0x1F NOT PUSH1 0x1F DUP3 ADD AND DUP3 ADD DUP1 PUSH1 0x40 MSTORE POP DUP2 ADD SWAP1 PUSH2 0x9E4 SWAP2 SWAP1 PUSH2 0x12F3 JUMP JUMPDEST SWAP1 POP PUSH0 DUP2 GT PUSH2 0xA50 JUMPI PUSH1 0x40 MLOAD PUSH3 0x461BCD PUSH1 0xE5 SHL DUP2 MSTORE PUSH1 0x20 PUSH1 0x4 DUP3 ADD MSTORE PUSH1 0x32 PUSH1 0x24 DUP3 ADD MSTORE PUSH32 0xD0A320D0B2D0B0D18120D0BDD0B5D0B4D0BED181D182D0B0D182D0BED187D0BD PUSH1 0x44 DUP3 ADD MSTORE PUSH18 0xD0BE20D182D0BED0BAD0B5D0BDD0BED0B221 PUSH1 0x70 SHL PUSH1 0x64 DUP3 ADD MSTORE PUSH1 0x84 ADD PUSH2 0x22A JUMP JUMPDEST PUSH0 SLOAD PUSH1 0x40 MLOAD PUSH4 0xA9059CBB PUSH1 0xE0 SHL DUP2 MSTORE ADDRESS PUSH1 0x4 DUP3 ADD MSTORE PUSH5 0xE8D4A51000 PUSH1 0x24 DUP3 ADD MSTORE PUSH1 0x1 PUSH1 0x1 PUSH1 0xA0 SHL SUB SWAP1 SWAP2 AND SWAP1 PUSH4 0xA9059CBB SWAP1 PUSH1 0x44 ADD PUSH1 0x20 PUSH1 0x40 MLOAD DUP1 DUP4 SUB DUP2 PUSH0 DUP8 GAS CALL ISZERO DUP1 ISZERO PUSH2 0xAA1 JUMPI RETURNDATASIZE PUSH0 PUSH0 RETURNDATACOPY RETURNDATASIZE PUSH0 REVERT JUMPDEST POP POP POP POP PUSH1 0x40 MLOAD RETURNDATASIZE PUSH1 0x1F NOT PUSH1 0x1F DUP3 ADD AND DUP3 ADD DUP1 PUSH1 0x40 MSTORE POP DUP2 ADD SWAP1 PUSH2 0xAC5 SWAP2 SWAP1 PUSH2 0x130A JUMP JUMPDEST PUSH2 0xB27 JUMPI PUSH1 0x40 MLOAD PUSH3 0x461BCD PUSH1 0xE5 SHL DUP2 MSTORE PUSH1 0x20 PUSH1 0x4 DUP3 ADD MSTORE PUSH1 0x2D PUSH1 0x24 DUP3 ADD MSTORE PUSH32 0xD09ED188D0B8D0B1D0BAD0B020D181D0BFD0B8D181D0B0D0BDD0B8D18F20D182 PUSH1 0x44 DUP3 ADD MSTORE PUSH13 0xD0BED0BAD0B5D0BDD0BED0B221 PUSH1 0x98 SHL PUSH1 0x64 DUP3 ADD MSTORE PUSH1 0x84 ADD PUSH2 0x22A JUMP JUMPDEST DUP3 ISZERO PUSH2 0xB48 JUMPI PUSH1 0x5 DUP3 ADD DUP1 SLOAD SWAP1 PUSH0 PUSH2 0xB3E DUP4 PUSH2 0x11A9 JUMP JUMPDEST SWAP2 SWAP1 POP SSTORE POP PUSH2 0xB5F JUMP JUMPDEST PUSH1 0x6 DUP3 ADD DUP1 SLOAD SWAP1 PUSH0 PUSH2 0xB59 DUP4 PUSH2 0x11A9 JUMP JUMPDEST SWAP2 SWAP1 POP SSTORE POP JUMPDEST PUSH0 DUP5 DUP2 MSTORE PUSH1 0x3 PUSH1 0x20 SWAP1 DUP2 MSTORE PUSH1 0x40 DUP1 DUP4 KECCAK256 CALLER DUP1 DUP6 MSTORE SWAP1 DUP4 MSTORE SWAP3 DUP2 SWAP1 KECCAK256 DUP1 SLOAD PUSH1 0xFF NOT AND PUSH1 0x1 OR SWAP1 SSTORE DUP1 MLOAD DUP8 DUP2 MSTORE SWAP2 DUP3 ADD SWAP3 SWAP1 SWAP3 MSTORE DUP5 ISZERO ISZERO DUP2 DUP4 ADD MSTORE SWAP1 MLOAD PUSH32 0xF2913DBE661EE2ACC4A046D8FBCDC792373BDA34C41C6086484B5345E5785E5F SWAP2 PUSH1 0x60 SWAP1 DUP3 SWAP1 SUB ADD SWAP1 LOG1 POP POP POP POP JUMP JUMPDEST CALLER PUSH0 SWAP1 DUP2 MSTORE PUSH1 0x1 PUSH1 0x20 MSTORE PUSH1 0x40 SWAP1 KECCAK256 SLOAD PUSH1 0x60 SWAP1 PUSH1 0xFF AND PUSH2 0xC6C JUMPI PUSH1 0x40 MLOAD PUSH3 0x461BCD PUSH1 0xE5 SHL DUP2 MSTORE PUSH1 0x20 PUSH1 0x4 DUP3 ADD MSTORE PUSH1 0x51 PUSH1 0x24 DUP3 ADD MSTORE PUSH32 0xD0A2D0BED0BBD18CD0BAD0BE20D183D187D0B0D181D182D0BDD0B8D0BAD0B820 PUSH1 0x44 DUP3 ADD MSTORE PUSH32 0x44414F20D0BCD0BED0B3D183D18220D0BFD0BED181D0BCD0BED182D180D0B5D1 PUSH1 0x64 DUP3 ADD MSTORE PUSH17 0x82D18C20D181D0BFD0B8D181D0BED0BA21 PUSH1 0x78 SHL PUSH1 0x84 DUP3 ADD MSTORE PUSH1 0xA4 ADD PUSH2 0x22A JUMP JUMPDEST PUSH1 0x4 DUP1 SLOAD DUP1 PUSH1 0x20 MUL PUSH1 0x20 ADD PUSH1 0x40 MLOAD SWAP1 DUP2 ADD PUSH1 0x40 MSTORE DUP1 SWAP3 SWAP2 SWAP1 DUP2 DUP2 MSTORE PUSH1 0x20 ADD DUP3 DUP1 SLOAD DUP1 ISZERO PUSH2 0xCC0 JUMPI PUSH1 0x20 MUL DUP3 ADD SWAP2 SWAP1 PUSH0 MSTORE PUSH1 0x20 PUSH0 KECCAK256 SWAP1 JUMPDEST DUP2 SLOAD PUSH1 0x1 PUSH1 0x1 PUSH1 0xA0 SHL SUB AND DUP2 MSTORE PUSH1 0x1 SWAP1 SWAP2 ADD SWAP1 PUSH1 0x20 ADD DUP1 DUP4 GT PUSH2 0xCA2 JUMPI JUMPDEST POP POP POP POP POP SWAP1 POP SWAP1 JUMP JUMPDEST PUSH0 PUSH1 0x20 DUP3 DUP5 SUB SLT ISZERO PUSH2 0xCDA JUMPI PUSH0 PUSH0 REVERT JUMPDEST POP CALLDATALOAD SWAP2 SWAP1 POP JUMP JUMPDEST DUP1 CALLDATALOAD PUSH1 0x1 PUSH1 0x1 PUSH1 0xA0 SHL SUB DUP2 AND DUP2 EQ PUSH2 0xCF7 JUMPI PUSH0 PUSH0 REVERT JUMPDEST SWAP2 SWAP1 POP JUMP JUMPDEST PUSH0 PUSH1 0x20 DUP3 DUP5 SUB SLT ISZERO PUSH2 0xD0C JUMPI PUSH0 PUSH0 REVERT JUMPDEST PUSH2 0xD15 DUP3 PUSH2 0xCE1 JUMP JUMPDEST SWAP4 SWAP3 POP POP POP JUMP JUMPDEST PUSH4 0x4E487B71 PUSH1 0xE0 SHL PUSH0 MSTORE PUSH1 0x21 PUSH1 0x4 MSTORE PUSH1 0x24 PUSH0 REVERT JUMPDEST PUSH1 0x5 DUP2 LT PUSH2 0xD4C JUMPI PUSH4 0x4E487B71 PUSH1 0xE0 SHL PUSH0 MSTORE PUSH1 0x21 PUSH1 0x4 MSTORE PUSH1 0x24 PUSH0 REVERT JUMPDEST SWAP1 MSTORE JUMP JUMPDEST DUP12 DUP2 MSTORE PUSH2 0xD60 PUSH1 0x20 DUP3 ADD DUP13 PUSH2 0xD30 JUMP JUMPDEST PUSH1 0x1 DUP1 PUSH1 0xA0 SHL SUB DUP11 AND PUSH1 0x40 DUP3 ADD MSTORE PUSH2 0x160 PUSH1 0x60 DUP3 ADD MSTORE PUSH0 DUP10 MLOAD DUP1 PUSH2 0x160 DUP5 ADD MSTORE DUP1 PUSH1 0x20 DUP13 ADD PUSH2 0x180 DUP6 ADD MCOPY PUSH0 PUSH2 0x180 DUP3 DUP6 ADD ADD MSTORE PUSH2 0x180 PUSH1 0x1F NOT PUSH1 0x1F DUP4 ADD AND DUP5 ADD ADD SWAP2 POP POP DUP9 PUSH1 0x80 DUP4 ADD MSTORE DUP8 PUSH1 0xA0 DUP4 ADD MSTORE DUP7 PUSH1 0xC0 DUP4 ADD MSTORE DUP6 PUSH1 0xE0 DUP4 ADD MSTORE PUSH2 0xDCC PUSH2 0x100 DUP4 ADD DUP7 ISZERO ISZERO SWAP1 MSTORE JUMP JUMPDEST SWAP3 ISZERO ISZERO PUSH2 0x120 DUP3 ADD MSTORE SWAP1 ISZERO ISZERO PUSH2 0x140 SWAP1 SWAP2 ADD MSTORE SWAP10 SWAP9 POP POP POP POP POP POP POP POP POP JUMP JUMPDEST PUSH0 PUSH0 PUSH1 0x40 DUP4 DUP6 SUB SLT ISZERO PUSH2 0xDFD JUMPI PUSH0 PUSH0 REVERT JUMPDEST DUP3 CALLDATALOAD SWAP2 POP PUSH2 0xE0D PUSH1 0x20 DUP5 ADD PUSH2 0xCE1 JUMP JUMPDEST SWAP1 POP SWAP3 POP SWAP3 SWAP1 POP JUMP JUMPDEST PUSH4 0x4E487B71 PUSH1 0xE0 SHL PUSH0 MSTORE PUSH1 0x41 PUSH1 0x4 MSTORE PUSH1 0x24 PUSH0 REVERT JUMPDEST PUSH0 PUSH0 PUSH0 PUSH1 0x60 DUP5 DUP7 SUB SLT ISZERO PUSH2 0xE3C JUMPI PUSH0 PUSH0 REVERT JUMPDEST DUP4 CALLDATALOAD PUSH1 0x5 DUP2 LT PUSH2 0xE4A JUMPI PUSH0 PUSH0 REVERT JUMPDEST SWAP3 POP PUSH1 0x20 DUP5 ADD CALLDATALOAD SWAP2 POP PUSH1 0x40 DUP5 ADD CALLDATALOAD PUSH8 0xFFFFFFFFFFFFFFFF DUP2 GT ISZERO PUSH2 0xE6C JUMPI PUSH0 PUSH0 REVERT JUMPDEST DUP5 ADD PUSH1 0x1F DUP2 ADD DUP7 SGT PUSH2 0xE7C JUMPI PUSH0 PUSH0 REVERT JUMPDEST DUP1 CALLDATALOAD PUSH8 0xFFFFFFFFFFFFFFFF DUP2 GT ISZERO PUSH2 0xE96 JUMPI PUSH2 0xE96 PUSH2 0xE16 JUMP JUMPDEST PUSH1 0x40 MLOAD PUSH1 0x1F DUP3 ADD PUSH1 0x1F NOT SWAP1 DUP2 AND PUSH1 0x3F ADD AND DUP2 ADD PUSH8 0xFFFFFFFFFFFFFFFF DUP2 GT DUP3 DUP3 LT OR ISZERO PUSH2 0xEC5 JUMPI PUSH2 0xEC5 PUSH2 0xE16 JUMP JUMPDEST PUSH1 0x40 MSTORE DUP2 DUP2 MSTORE DUP3 DUP3 ADD PUSH1 0x20 ADD DUP9 LT ISZERO PUSH2 0xEDC JUMPI PUSH0 PUSH0 REVERT JUMPDEST DUP2 PUSH1 0x20 DUP5 ADD PUSH1 0x20 DUP4 ADD CALLDATACOPY PUSH0 PUSH1 0x20 DUP4 DUP4 ADD ADD MSTORE DUP1 SWAP4 POP POP POP POP SWAP3 POP SWAP3 POP SWAP3 JUMP JUMPDEST DUP1 ISZERO ISZERO DUP2 EQ PUSH2 0xF08 JUMPI PUSH0 PUSH0 REVERT JUMPDEST POP JUMP JUMPDEST PUSH0 PUSH0 PUSH1 0x40 DUP4 DUP6 SUB SLT ISZERO PUSH2 0xF1C JUMPI PUSH0 PUSH0 REVERT JUMPDEST DUP3 CALLDATALOAD SWAP2 POP PUSH1 0x20 DUP4 ADD CALLDATALOAD PUSH2 0xF2E DUP2 PUSH2 0xEFB JUMP JUMPDEST DUP1 SWAP2 POP POP SWAP3 POP SWAP3 SWAP1 POP JUMP JUMPDEST PUSH1 0x20 DUP1 DUP3 MSTORE DUP3 MLOAD DUP3 DUP3 ADD DUP2 SWAP1 MSTORE PUSH0 SWAP2 DUP5 ADD SWAP1 PUSH1 0x40 DUP5 ADD SWAP1 DUP4 JUMPDEST DUP2 DUP2 LT ISZERO PUSH2 0xF79 JUMPI DUP4 MLOAD PUSH1 0x1 PUSH1 0x1 PUSH1 0xA0 SHL SUB AND DUP4 MSTORE PUSH1 0x20 SWAP4 DUP5 ADD SWAP4 SWAP1 SWAP3 ADD SWAP2 PUSH1 0x1 ADD PUSH2 0xF52 JUMP JUMPDEST POP SWAP1 SWAP6 SWAP5 POP POP POP POP POP JUMP JUMPDEST PUSH1 0x20 DUP1 DUP3 MSTORE PUSH1 0x31 SWAP1 DUP3 ADD MSTORE PUSH32 0xD093D0BED0BBD0BED181D0BED0B2D0B0D0BDD0B8D18F20D0BDD0B520D181D183 PUSH1 0x40 DUP3 ADD MSTORE PUSH17 0xD189D0B5D181D182D0B2D183D0B5D18221 PUSH1 0x78 SHL PUSH1 0x60 DUP3 ADD MSTORE PUSH1 0x80 ADD SWAP1 JUMP JUMPDEST PUSH1 0x20 DUP1 DUP3 MSTORE PUSH1 0x34 SWAP1 DUP3 ADD MSTORE PUSH32 0xD092D18B20D0BDD0B520D181D0BED0B7D0B4D0B0D182D0B5D0BBD18C20D0B3D0 PUSH1 0x40 DUP3 ADD MSTORE PUSH20 0xBED0BBD0BED181D0BED0B2D0B0D0BDD0B8D18F21 PUSH1 0x60 SHL PUSH1 0x60 DUP3 ADD MSTORE PUSH1 0x80 ADD SWAP1 JUMP JUMPDEST PUSH1 0x20 DUP1 DUP3 MSTORE PUSH1 0x2A SWAP1 DUP3 ADD MSTORE PUSH32 0xD093D0BED0BBD0BED181D0BED0B2D0B0D0BDD0B8D0B520D0B7D0B0D0B2D0B5D1 PUSH1 0x40 DUP3 ADD MSTORE PUSH10 0x80D188D0B5D0BDD0BE21 PUSH1 0xB0 SHL PUSH1 0x60 DUP3 ADD MSTORE PUSH1 0x80 ADD SWAP1 JUMP JUMPDEST PUSH1 0x20 DUP1 DUP3 MSTORE PUSH1 0x26 SWAP1 DUP3 ADD MSTORE PUSH32 0xD093D0BED0BBD0BED181D0BED0B2D0B0D0BDD0B8D0B520D183D0B4D0B0D0BBD0 PUSH1 0x40 DUP3 ADD MSTORE PUSH6 0xB5D0BDD0BE21 PUSH1 0xD0 SHL PUSH1 0x60 DUP3 ADD MSTORE PUSH1 0x80 ADD SWAP1 JUMP JUMPDEST PUSH1 0x20 DUP1 DUP3 MSTORE PUSH1 0x1F SWAP1 DUP3 ADD MSTORE PUSH32 0xD092D18B20D0BDD0B520D183D187D0B0D181D182D0BDD0B8D0BA2044414F2100 PUSH1 0x40 DUP3 ADD MSTORE PUSH1 0x60 ADD SWAP1 JUMP JUMPDEST PUSH1 0x20 DUP1 DUP3 MSTORE PUSH1 0x34 SWAP1 DUP3 ADD MSTORE PUSH32 0xD093D0BED0BBD0BED181D0BED0B2D0B0D0BDD0B8D0B520D0BFD0BED0B4D0BED1 PUSH1 0x40 DUP3 ADD MSTORE PUSH20 0x88D0BBD0BE20D0BA20D0BAD0BED0BDD186D18321 PUSH1 0x60 SHL PUSH1 0x60 DUP3 ADD MSTORE PUSH1 0x80 ADD SWAP1 JUMP JUMPDEST PUSH1 0x1 DUP2 DUP2 SHR SWAP1 DUP3 AND DUP1 PUSH2 0x1158 JUMPI PUSH1 0x7F DUP3 AND SWAP2 POP JUMPDEST PUSH1 0x20 DUP3 LT DUP2 SUB PUSH2 0x1176 JUMPI PUSH4 0x4E487B71 PUSH1 0xE0 SHL PUSH0 MSTORE PUSH1 0x22 PUSH1 0x4 MSTORE PUSH1 0x24 PUSH0 REVERT JUMPDEST POP SWAP2 SWAP1 POP JUMP JUMPDEST PUSH4 0x4E487B71 PUSH1 0xE0 SHL PUSH0 MSTORE PUSH1 0x11 PUSH1 0x4 MSTORE PUSH1 0x24 PUSH0 REVERT JUMPDEST DUP1 DUP3 ADD DUP1 DUP3 GT ISZERO PUSH2 0x11A3 JUMPI PUSH2 0x11A3 PUSH2 0x117C JUMP JUMPDEST SWAP3 SWAP2 POP POP JUMP JUMPDEST PUSH0 PUSH1 0x1 DUP3 ADD PUSH2 0x11BA JUMPI PUSH2 0x11BA PUSH2 0x117C JUMP JUMPDEST POP PUSH1 0x1 ADD SWAP1 JUMP JUMPDEST PUSH1 0x1F DUP3 GT ISZERO PUSH2 0x1208 JUMPI DUP1 PUSH0 MSTORE PUSH1 0x20 PUSH0 KECCAK256 PUSH1 0x1F DUP5 ADD PUSH1 0x5 SHR DUP2 ADD PUSH1 0x20 DUP6 LT ISZERO PUSH2 0x11E6 JUMPI POP DUP1 JUMPDEST PUSH1 0x1F DUP5 ADD PUSH1 0x5 SHR DUP3 ADD SWAP2 POP JUMPDEST DUP2 DUP2 LT ISZERO PUSH2 0x1205 JUMPI PUSH0 DUP2 SSTORE PUSH1 0x1 ADD PUSH2 0x11F2 JUMP JUMPDEST POP POP JUMPDEST POP POP POP JUMP JUMPDEST DUP2 MLOAD PUSH8 0xFFFFFFFFFFFFFFFF DUP2 GT ISZERO PUSH2 0x1227 JUMPI PUSH2 0x1227 PUSH2 0xE16 JUMP JUMPDEST PUSH2 0x123B DUP2 PUSH2 0x1235 DUP5 SLOAD PUSH2 0x1144 JUMP JUMPDEST DUP5 PUSH2 0x11C1 JUMP JUMPDEST PUSH1 0x20 PUSH1 0x1F DUP3 GT PUSH1 0x1 DUP2 EQ PUSH2 0x126D JUMPI PUSH0 DUP4 ISZERO PUSH2 0x1256 JUMPI POP DUP5 DUP3 ADD MLOAD JUMPDEST PUSH0 NOT PUSH1 0x3 DUP6 SWAP1 SHL SHR NOT AND PUSH1 0x1 DUP5 SWAP1 SHL OR DUP5 SSTORE PUSH2 0x1205 JUMP JUMPDEST PUSH0 DUP5 DUP2 MSTORE PUSH1 0x20 DUP2 KECCAK256 PUSH1 0x1F NOT DUP6 AND SWAP2 JUMPDEST DUP3 DUP2 LT ISZERO PUSH2 0x129C JUMPI DUP8 DUP6 ADD MLOAD DUP3 SSTORE PUSH1 0x20 SWAP5 DUP6 ADD SWAP5 PUSH1 0x1 SWAP1 SWAP3 ADD SWAP2 ADD PUSH2 0x127C JUMP JUMPDEST POP DUP5 DUP3 LT ISZERO PUSH2 0x12B9 JUMPI DUP7 DUP5 ADD MLOAD PUSH0 NOT PUSH1 0x3 DUP8 SWAP1 SHL PUSH1 0xF8 AND SHR NOT AND DUP2 SSTORE JUMPDEST POP POP POP POP PUSH1 0x1 SWAP1 DUP2 SHL ADD SWAP1 SSTORE POP JUMP JUMPDEST DUP4 DUP2 MSTORE PUSH1 0x1 PUSH1 0x1 PUSH1 0xA0 SHL SUB DUP4 AND PUSH1 0x20 DUP3 ADD MSTORE PUSH1 0x60 DUP2 ADD PUSH2 0x12EB PUSH1 0x40 DUP4 ADD DUP5 PUSH2 0xD30 JUMP JUMPDEST SWAP5 SWAP4 POP POP POP POP JUMP JUMPDEST PUSH0 PUSH1 0x20 DUP3 DUP5 SUB SLT ISZERO PUSH2 0x1303 JUMPI PUSH0 PUSH0 REVERT JUMPDEST POP MLOAD SWAP2 SWAP1 POP JUMP JUMPDEST PUSH0 PUSH1 0x20 DUP3 DUP5 SUB SLT ISZERO PUSH2 0x131A JUMPI PUSH0 PUSH0 REVERT JUMPDEST DUP2 MLOAD PUSH2 0xD15 DUP2 PUSH2 0xEFB JUMP INVALID LOG2 PUSH5 0x6970667358 0x22 SLT KECCAK256 CALLDATALOAD RETURNCONTRACT 0x9C 0x4C RETURNDATASIZE STOP SGT GT 0xD0 0xB0 SLT 0x4C SWAP15 TSTORE PUSH4 0xA400FA18 PUSH25 0x79D96B25963F1CCAFF293F964736F6C634300081E00330000 "
				},
				"gasEstimates": {
					"creation": {
						"codeDepositCost": "991000",
						"executionCost": "infinite",
						"totalCost": "infinite"
					},
					"external": {
						"PROFI()": "2424",
						"createProposal(uint8,uint256,string)": "infinite",
						"deleteProposal(uint256)": "38917",
						"executeProposal(uint256)": "67364",
						"hasVoted(uint256,address)": "2681",
						"legalMember(address)": "2540",
						"members(uint256)": "4611",
						"proposal(uint256)": "infinite",
						"proposalsCounter()": "2338",
						"showMembers()": "infinite",
						"vote(uint256,bool)": "infinite"
					}
				},
				"methodIdentifiers": {
					"PROFI()": "4bf92a9f",
					"createProposal(uint8,uint256,string)": "bca510db",
					"deleteProposal(uint256)": "8259d553",
					"executeProposal(uint256)": "0d61b519",
					"hasVoted(uint256,address)": "43859632",
					"legalMember(address)": "28bbea69",
					"members(uint256)": "5daf08ca",
					"proposal(uint256)": "30326c17",
					"proposalsCounter()": "a5ec87e4",
					"showMembers()": "d567897f",
					"vote(uint256,bool)": "c9d27afe"
				}
			},
			"storageLayout": {
				"storage": [
					{
						"astId": 35,
						"contract": "DAO.sol:DAO",
						"label": "PROFI",
						"offset": 0,
						"slot": "0",
						"type": "t_contract(Professional)917"
					},
					{
						"astId": 39,
						"contract": "DAO.sol:DAO",
						"label": "legalMember",
						"offset": 0,
						"slot": "1",
						"type": "t_mapping(t_address,t_bool)"
					},
					{
						"astId": 44,
						"contract": "DAO.sol:DAO",
						"label": "proposal",
						"offset": 0,
						"slot": "2",
						"type": "t_mapping(t_uint256,t_struct(Proposal)32_storage)"
					},
					{
						"astId": 50,
						"contract": "DAO.sol:DAO",
						"label": "hasVoted",
						"offset": 0,
						"slot": "3",
						"type": "t_mapping(t_uint256,t_mapping(t_address,t_bool))"
					},
					{
						"astId": 53,
						"contract": "DAO.sol:DAO",
						"label": "members",
						"offset": 0,
						"slot": "4",
						"type": "t_array(t_address)dyn_storage"
					},
					{
						"astId": 56,
						"contract": "DAO.sol:DAO",
						"label": "proposalsCounter",
						"offset": 0,
						"slot": "5",
						"type": "t_uint256"
					}
				],
				"types": {
					"t_address": {
						"encoding": "inplace",
						"label": "address",
						"numberOfBytes": "20"
					},
					"t_array(t_address)dyn_storage": {
						"base": "t_address",
						"encoding": "dynamic_array",
						"label": "address[]",
						"numberOfBytes": "32"
					},
					"t_bool": {
						"encoding": "inplace",
						"label": "bool",
						"numberOfBytes": "1"
					},
					"t_contract(Professional)917": {
						"encoding": "inplace",
						"label": "contract Professional",
						"numberOfBytes": "20"
					},
					"t_enum(TypeProposal)8": {
						"encoding": "inplace",
						"label": "enum DAO.TypeProposal",
						"numberOfBytes": "1"
					},
					"t_mapping(t_address,t_bool)": {
						"encoding": "mapping",
						"key": "t_address",
						"label": "mapping(address => bool)",
						"numberOfBytes": "32",
						"value": "t_bool"
					},
					"t_mapping(t_uint256,t_mapping(t_address,t_bool))": {
						"encoding": "mapping",
						"key": "t_uint256",
						"label": "mapping(uint256 => mapping(address => bool))",
						"numberOfBytes": "32",
						"value": "t_mapping(t_address,t_bool)"
					},
					"t_mapping(t_uint256,t_struct(Proposal)32_storage)": {
						"encoding": "mapping",
						"key": "t_uint256",
						"label": "mapping(uint256 => struct DAO.Proposal)",
						"numberOfBytes": "32",
						"value": "t_struct(Proposal)32_storage"
					},
					"t_string_storage": {
						"encoding": "bytes",
						"label": "string",
						"numberOfBytes": "32"
					},
					"t_struct(Proposal)32_storage": {
						"encoding": "inplace",
						"label": "struct DAO.Proposal",
						"members": [
							{
								"astId": 10,
								"contract": "DAO.sol:DAO",
								"label": "idProposal",
								"offset": 0,
								"slot": "0",
								"type": "t_uint256"
							},
							{
								"astId": 13,
								"contract": "DAO.sol:DAO",
								"label": "proposalType",
								"offset": 0,
								"slot": "1",
								"type": "t_enum(TypeProposal)8"
							},
							{
								"astId": 15,
								"contract": "DAO.sol:DAO",
								"label": "creator",
								"offset": 1,
								"slot": "1",
								"type": "t_address"
							},
							{
								"astId": 17,
								"contract": "DAO.sol:DAO",
								"label": "description",
								"offset": 0,
								"slot": "2",
								"type": "t_string_storage"
							},
							{
								"astId": 19,
								"contract": "DAO.sol:DAO",
								"label": "timeStartProposal",
								"offset": 0,
								"slot": "3",
								"type": "t_uint256"
							},
							{
								"astId": 21,
								"contract": "DAO.sol:DAO",
								"label": "timeEndProposal",
								"offset": 0,
								"slot": "4",
								"type": "t_uint256"
							},
							{
								"astId": 23,
								"contract": "DAO.sol:DAO",
								"label": "amountVoteYES",
								"offset": 0,
								"slot": "5",
								"type": "t_uint256"
							},
							{
								"astId": 25,
								"contract": "DAO.sol:DAO",
								"label": "amountVoteNO",
								"offset": 0,
								"slot": "6",
								"type": "t_uint256"
							},
							{
								"astId": 27,
								"contract": "DAO.sol:DAO",
								"label": "executed",
								"offset": 0,
								"slot": "7",
								"type": "t_bool"
							},
							{
								"astId": 29,
								"contract": "DAO.sol:DAO",
								"label": "deleted",
								"offset": 1,
								"slot": "7",
								"type": "t_bool"
							},
							{
								"astId": 31,
								"contract": "DAO.sol:DAO",
								"label": "accepted",
								"offset": 2,
								"slot": "7",
								"type": "t_bool"
							}
						],
						"numberOfBytes": "256"
					},
					"t_uint256": {
						"encoding": "inplace",
						"label": "uint256",
						"numberOfBytes": "32"
					}
				}
			},
			"userdoc": {
				"kind": "user",
				"methods": {},
				"version": 1
			}
		}
	}
}