{
	"TaskManager.sol": {
		"TaskManager": {
			"abi": [
				{
					"inputs": [
						{
							"internalType": "uint256",
							"name": "pointValue",
							"type": "uint256"
						}
					],
					"name": "addPoints",
					"outputs": [],
					"stateMutability": "nonpayable",
					"type": "function"
				},
				{
					"inputs": [
						{
							"internalType": "string",
							"name": "tag",
							"type": "string"
						}
					],
					"name": "addTag",
					"outputs": [],
					"stateMutability": "nonpayable",
					"type": "function"
				},
				{
					"inputs": [
						{
							"internalType": "string",
							"name": "text",
							"type": "string"
						},
						{
							"internalType": "uint256",
							"name": "point",
							"type": "uint256"
						}
					],
					"name": "addTask",
					"outputs": [],
					"stateMutability": "nonpayable",
					"type": "function"
				},
				{
					"inputs": [],
					"name": "configData",
					"outputs": [
						{
							"internalType": "bytes",
							"name": "",
							"type": "bytes"
						}
					],
					"stateMutability": "view",
					"type": "function"
				},
				{
					"inputs": [],
					"name": "deposit",
					"outputs": [],
					"stateMutability": "payable",
					"type": "function"
				},
				{
					"inputs": [],
					"name": "getBalance",
					"outputs": [
						{
							"internalType": "uint256",
							"name": "",
							"type": "uint256"
						}
					],
					"stateMutability": "view",
					"type": "function"
				},
				{
					"inputs": [],
					"name": "getPointCount",
					"outputs": [
						{
							"internalType": "uint256",
							"name": "",
							"type": "uint256"
						}
					],
					"stateMutability": "view",
					"type": "function"
				},
				{
					"inputs": [
						{
							"internalType": "uint256",
							"name": "index",
							"type": "uint256"
						}
					],
					"name": "getTask",
					"outputs": [
						{
							"internalType": "string",
							"name": "",
							"type": "string"
						},
						{
							"internalType": "bool",
							"name": "",
							"type": "bool"
						},
						{
							"internalType": "uint256",
							"name": "",
							"type": "uint256"
						}
					],
					"stateMutability": "view",
					"type": "function"
				},
				{
					"inputs": [],
					"name": "globalStatus",
					"outputs": [
						{
							"internalType": "enum TaskManager.Status",
							"name": "",
							"type": "uint8"
						}
					],
					"stateMutability": "view",
					"type": "function"
				},
				{
					"inputs": [],
					"name": "isActive",
					"outputs": [
						{
							"internalType": "bool",
							"name": "",
							"type": "bool"
						}
					],
					"stateMutability": "view",
					"type": "function"
				},
				{
					"inputs": [
						{
							"internalType": "uint256",
							"name": "",
							"type": "uint256"
						}
					],
					"name": "levels",
					"outputs": [
						{
							"internalType": "uint256",
							"name": "",
							"type": "uint256"
						}
					],
					"stateMutability": "view",
					"type": "function"
				},
				{
					"inputs": [
						{
							"internalType": "uint256",
							"name": "index",
							"type": "uint256"
						}
					],
					"name": "markDone",
					"outputs": [],
					"stateMutability": "nonpayable",
					"type": "function"
				},
				{
					"inputs": [],
					"name": "owner",
					"outputs": [
						{
							"internalType": "address",
							"name": "",
							"type": "address"
						}
					],
					"stateMutability": "view",
					"type": "function"
				},
				{
					"inputs": [],
					"name": "ownerName",
					"outputs": [
						{
							"internalType": "string",
							"name": "",
							"type": "string"
						}
					],
					"stateMutability": "view",
					"type": "function"
				},
				{
					"inputs": [
						{
							"internalType": "uint256",
							"name": "",
							"type": "uint256"
						}
					],
					"name": "points",
					"outputs": [
						{
							"internalType": "uint256",
							"name": "",
							"type": "uint256"
						}
					],
					"stateMutability": "view",
					"type": "function"
				},
				{
					"inputs": [
						{
							"internalType": "bytes",
							"name": "data",
							"type": "bytes"
						}
					],
					"name": "setConfig",
					"outputs": [],
					"stateMutability": "nonpayable",
					"type": "function"
				},
				{
					"inputs": [
						{
							"internalType": "uint256",
							"name": "index",
							"type": "uint256"
						},
						{
							"internalType": "uint256",
							"name": "value",
							"type": "uint256"
						}
					],
					"name": "setLevel",
					"outputs": [],
					"stateMutability": "nonpayable",
					"type": "function"
				},
				{
					"inputs": [
						{
							"internalType": "enum TaskManager.Status",
							"name": "newStatus",
							"type": "uint8"
						}
					],
					"name": "setStatus",
					"outputs": [],
					"stateMutability": "nonpayable",
					"type": "function"
				},
				{
					"inputs": [
						{
							"internalType": "string",
							"name": "",
							"type": "string"
						}
					],
					"name": "tagsCount",
					"outputs": [
						{
							"internalType": "uint256",
							"name": "",
							"type": "uint256"
						}
					],
					"stateMutability": "view",
					"type": "function"
				},
				{
					"inputs": [
						{
							"internalType": "uint256",
							"name": "",
							"type": "uint256"
						}
					],
					"name": "tasks",
					"outputs": [
						{
							"internalType": "string",
							"name": "text",
							"type": "string"
						},
						{
							"internalType": "bool",
							"name": "done",
							"type": "bool"
						},
						{
							"internalType": "uint256",
							"name": "points",
							"type": "uint256"
						}
					],
					"stateMutability": "view",
					"type": "function"
				},
				{
					"inputs": [
						{
							"internalType": "address",
							"name": "targetAddr",
							"type": "address"
						},
						{
							"internalType": "uint256",
							"name": "amount",
							"type": "uint256"
						}
					],
					"name": "transferTo",
					"outputs": [],
					"stateMutability": "nonpayable",
					"type": "function"
				}
			],
			"devdoc": {
				"kind": "dev",
				"methods": {},
				"version": 1
			},
			"evm": {
				"assembly": "    /* \"TaskManager.sol\":61:2380  contract TaskManager {... */\n  mstore(0x40, 0x80)\n    /* \"TaskManager.sol\":241:275  string public ownerName = \"Grisha\" */\n  mload(0x40)\n  dup1\n  0x40\n  add\n  0x40\n  mstore\n  dup1\n  0x06\n  dup2\n  mstore\n  0x20\n  add\n  0x4772697368610000000000000000000000000000000000000000000000000000\n  dup2\n  mstore\n  pop\n  0x02\n  swap1\n  dup2\n  tag_1\n  swap2\n  swap1\n  tag_2\n  jump\t// in\ntag_1:\n  pop\n    /* \"TaskManager.sol\":305:347  0x5B38Da6a701c568545dCfcB03FcB875f56beddC4 */\n  0x5b38da6a701c568545dcfcb03fcb875f56beddc4\n    /* \"TaskManager.sol\":282:347  address public owner = 0x5B38Da6a701c568545dCfcB03FcB875f56beddC4 */\n  0x03\n  exp(0x0100, 0x00)\n  dup2\n  sload\n  dup2\n  0xffffffffffffffffffffffffffffffffffffffff\n  mul\n  not\n  and\n  swap1\n  dup4\n  0xffffffffffffffffffffffffffffffffffffffff\n  and\n  mul\n  or\n  swap1\n  sstore\n  pop\n    /* \"TaskManager.sol\":377:381  true */\n  0x01\n    /* \"TaskManager.sol\":354:381  bool public isActive = true */\n  0x03\n  exp(0x0100, 0x14)\n  dup2\n  sload\n  dup2\n  0xff\n  mul\n  not\n  and\n  swap1\n  dup4\n  iszero\n  iszero\n  mul\n  or\n  swap1\n  sstore\n  pop\n    /* \"TaskManager.sol\":61:2380  contract TaskManager {... */\n  callvalue\n  dup1\n  iszero\n  tag_3\n  jumpi\n  revert(0x00, 0x00)\ntag_3:\n  pop\n  jump(tag_4)\n    /* \"#utility.yul\":7:106   */\ntag_5:\n    /* \"#utility.yul\":59:65   */\n  0x00\n    /* \"#utility.yul\":93:98   */\n  dup2\n    /* \"#utility.yul\":87:99   */\n  mload\n    /* \"#utility.yul\":77:99   */\n  swap1\n  pop\n    /* \"#utility.yul\":7:106   */\n  swap2\n  swap1\n  pop\n  jump\t// out\n    /* \"#utility.yul\":112:292   */\ntag_6:\n    /* \"#utility.yul\":160:237   */\n  0x4e487b7100000000000000000000000000000000000000000000000000000000\n    /* \"#utility.yul\":157:158   */\n  0x00\n    /* \"#utility.yul\":150:238   */\n  mstore\n    /* \"#utility.yul\":257:261   */\n  0x41\n    /* \"#utility.yul\":254:255   */\n  0x04\n    /* \"#utility.yul\":247:262   */\n  mstore\n    /* \"#utility.yul\":281:285   */\n  0x24\n    /* \"#utility.yul\":278:279   */\n  0x00\n    /* \"#utility.yul\":271:286   */\n  revert\n    /* \"#utility.yul\":298:478   */\ntag_7:\n    /* \"#utility.yul\":346:423   */\n  0x4e487b7100000000000000000000000000000000000000000000000000000000\n    /* \"#utility.yul\":343:344   */\n  0x00\n    /* \"#utility.yul\":336:424   */\n  mstore\n    /* \"#utility.yul\":443:447   */\n  0x22\n    /* \"#utility.yul\":440:441   */\n  0x04\n    /* \"#utility.yul\":433:448   */\n  mstore\n    /* \"#utility.yul\":467:471   */\n  0x24\n    /* \"#utility.yul\":464:465   */\n  0x00\n    /* \"#utility.yul\":457:472   */\n  revert\n    /* \"#utility.yul\":484:804   */\ntag_8:\n    /* \"#utility.yul\":528:534   */\n  0x00\n    /* \"#utility.yul\":565:566   */\n  0x02\n    /* \"#utility.yul\":559:563   */\n  dup3\n    /* \"#utility.yul\":555:567   */\n  div\n    /* \"#utility.yul\":545:567   */\n  swap1\n  pop\n    /* \"#utility.yul\":612:613   */\n  0x01\n    /* \"#utility.yul\":606:610   */\n  dup3\n    /* \"#utility.yul\":602:614   */\n  and\n    /* \"#utility.yul\":633:651   */\n  dup1\n    /* \"#utility.yul\":623:704   */\n  tag_30\n  jumpi\n    /* \"#utility.yul\":689:693   */\n  0x7f\n    /* \"#utility.yul\":681:687   */\n  dup3\n    /* \"#utility.yul\":677:694   */\n  and\n    /* \"#utility.yul\":667:694   */\n  swap2\n  pop\n    /* \"#utility.yul\":623:704   */\ntag_30:\n    /* \"#utility.yul\":751:753   */\n  0x20\n    /* \"#utility.yul\":743:749   */\n  dup3\n    /* \"#utility.yul\":740:754   */\n  lt\n    /* \"#utility.yul\":720:738   */\n  dup2\n    /* \"#utility.yul\":717:755   */\n  sub\n    /* \"#utility.yul\":714:798   */\n  tag_31\n  jumpi\n    /* \"#utility.yul\":770:788   */\n  tag_32\n  tag_7\n  jump\t// in\ntag_32:\n    /* \"#utility.yul\":714:798   */\ntag_31:\n    /* \"#utility.yul\":535:804   */\n  pop\n    /* \"#utility.yul\":484:804   */\n  swap2\n  swap1\n  pop\n  jump\t// out\n    /* \"#utility.yul\":810:951   */\ntag_9:\n    /* \"#utility.yul\":859:863   */\n  0x00\n    /* \"#utility.yul\":882:885   */\n  dup2\n    /* \"#utility.yul\":874:885   */\n  swap1\n  pop\n    /* \"#utility.yul\":905:908   */\n  dup2\n    /* \"#utility.yul\":902:903   */\n  0x00\n    /* \"#utility.yul\":895:909   */\n  mstore\n    /* \"#utility.yul\":939:943   */\n  0x20\n    /* \"#utility.yul\":936:937   */\n  0x00\n    /* \"#utility.yul\":926:944   */\n  keccak256\n    /* \"#utility.yul\":918:944   */\n  swap1\n  pop\n    /* \"#utility.yul\":810:951   */\n  swap2\n  swap1\n  pop\n  jump\t// out\n    /* \"#utility.yul\":957:1050   */\ntag_10:\n    /* \"#utility.yul\":994:1000   */\n  0x00\n    /* \"#utility.yul\":1041:1043   */\n  0x20\n    /* \"#utility.yul\":1036:1038   */\n  0x1f\n    /* \"#utility.yul\":1029:1034   */\n  dup4\n    /* \"#utility.yul\":1025:1039   */\n  add\n    /* \"#utility.yul\":1021:1044   */\n  div\n    /* \"#utility.yul\":1011:1044   */\n  swap1\n  pop\n    /* \"#utility.yul\":957:1050   */\n  swap2\n  swap1\n  pop\n  jump\t// out\n    /* \"#utility.yul\":1056:1163   */\ntag_11:\n    /* \"#utility.yul\":1100:1108   */\n  0x00\n    /* \"#utility.yul\":1150:1155   */\n  dup3\n    /* \"#utility.yul\":1144:1148   */\n  dup3\n    /* \"#utility.yul\":1140:1156   */\n  shl\n    /* \"#utility.yul\":1119:1156   */\n  swap1\n  pop\n    /* \"#utility.yul\":1056:1163   */\n  swap3\n  swap2\n  pop\n  pop\n  jump\t// out\n    /* \"#utility.yul\":1169:1562   */\ntag_12:\n    /* \"#utility.yul\":1238:1244   */\n  0x00\n    /* \"#utility.yul\":1288:1289   */\n  0x08\n    /* \"#utility.yul\":1276:1286   */\n  dup4\n    /* \"#utility.yul\":1272:1290   */\n  mul\n    /* \"#utility.yul\":1311:1408   */\n  tag_37\n    /* \"#utility.yul\":1341:1407   */\n  0xffffffffffffffffffffffffffffffffffffffffffffffffffffffffffffffff\n    /* \"#utility.yul\":1330:1339   */\n  dup3\n    /* \"#utility.yul\":1311:1408   */\n  tag_11\n  jump\t// in\ntag_37:\n    /* \"#utility.yul\":1429:1468   */\n  tag_38\n    /* \"#utility.yul\":1459:1467   */\n  dup7\n    /* \"#utility.yul\":1448:1457   */\n  dup4\n    /* \"#utility.yul\":1429:1468   */\n  tag_11\n  jump\t// in\ntag_38:\n    /* \"#utility.yul\":1417:1468   */\n  swap6\n  pop\n    /* \"#utility.yul\":1501:1505   */\n  dup1\n    /* \"#utility.yul\":1497:1506   */\n  not\n    /* \"#utility.yul\":1490:1495   */\n  dup5\n    /* \"#utility.yul\":1486:1507   */\n  and\n    /* \"#utility.yul\":1477:1507   */\n  swap4\n  pop\n    /* \"#utility.yul\":1550:1554   */\n  dup1\n    /* \"#utility.yul\":1540:1548   */\n  dup7\n    /* \"#utility.yul\":1536:1555   */\n  and\n    /* \"#utility.yul\":1529:1534   */\n  dup5\n    /* \"#utility.yul\":1526:1556   */\n  or\n    /* \"#utility.yul\":1516:1556   */\n  swap3\n  pop\n    /* \"#utility.yul\":1245:1562   */\n  pop\n  pop\n    /* \"#utility.yul\":1169:1562   */\n  swap4\n  swap3\n  pop\n  pop\n  pop\n  jump\t// out\n    /* \"#utility.yul\":1568:1645   */\ntag_13:\n    /* \"#utility.yul\":1605:1612   */\n  0x00\n    /* \"#utility.yul\":1634:1639   */\n  dup2\n    /* \"#utility.yul\":1623:1639   */\n  swap1\n  pop\n    /* \"#utility.yul\":1568:1645   */\n  swap2\n  swap1\n  pop\n  jump\t// out\n    /* \"#utility.yul\":1651:1711   */\ntag_14:\n    /* \"#utility.yul\":1679:1682   */\n  0x00\n    /* \"#utility.yul\":1700:1705   */\n  dup2\n    /* \"#utility.yul\":1693:1705   */\n  swap1\n  pop\n    /* \"#utility.yul\":1651:1711   */\n  swap2\n  swap1\n  pop\n  jump\t// out\n    /* \"#utility.yul\":1717:1859   */\ntag_15:\n    /* \"#utility.yul\":1767:1776   */\n  0x00\n    /* \"#utility.yul\":1800:1853   */\n  tag_42\n    /* \"#utility.yul\":1818:1852   */\n  tag_43\n    /* \"#utility.yul\":1827:1851   */\n  tag_44\n    /* \"#utility.yul\":1845:1850   */\n  dup5\n    /* \"#utility.yul\":1827:1851   */\n  tag_13\n  jump\t// in\ntag_44:\n    /* \"#utility.yul\":1818:1852   */\n  tag_14\n  jump\t// in\ntag_43:\n    /* \"#utility.yul\":1800:1853   */\n  tag_13\n  jump\t// in\ntag_42:\n    /* \"#utility.yul\":1787:1853   */\n  swap1\n  pop\n    /* \"#utility.yul\":1717:1859   */\n  swap2\n  swap1\n  pop\n  jump\t// out\n    /* \"#utility.yul\":1865:1940   */\ntag_16:\n    /* \"#utility.yul\":1908:1911   */\n  0x00\n    /* \"#utility.yul\":1929:1934   */\n  dup2\n    /* \"#utility.yul\":1922:1934   */\n  swap1\n  pop\n    /* \"#utility.yul\":1865:1940   */\n  swap2\n  swap1\n  pop\n  jump\t// out\n    /* \"#utility.yul\":1946:2215   */\ntag_17:\n    /* \"#utility.yul\":2056:2095   */\n  tag_47\n    /* \"#utility.yul\":2087:2094   */\n  dup4\n    /* \"#utility.yul\":2056:2095   */\n  tag_15\n  jump\t// in\ntag_47:\n    /* \"#utility.yul\":2117:2208   */\n  tag_48\n    /* \"#utility.yul\":2166:2207   */\n  tag_49\n    /* \"#utility.yul\":2190:2206   */\n  dup3\n    /* \"#utility.yul\":2166:2207   */\n  tag_16\n  jump\t// in\ntag_49:\n    /* \"#utility.yul\":2158:2164   */\n  dup5\n    /* \"#utility.yul\":2151:2155   */\n  dup5\n    /* \"#utility.yul\":2145:2156   */\n  sload\n    /* \"#utility.yul\":2117:2208   */\n  tag_12\n  jump\t// in\ntag_48:\n    /* \"#utility.yul\":2111:2115   */\n  dup3\n    /* \"#utility.yul\":2104:2209   */\n  sstore\n    /* \"#utility.yul\":2022:2215   */\n  pop\n    /* \"#utility.yul\":1946:2215   */\n  pop\n  pop\n  pop\n  jump\t// out\n    /* \"#utility.yul\":2221:2294   */\ntag_18:\n    /* \"#utility.yul\":2266:2269   */\n  0x00\n    /* \"#utility.yul\":2287:2288   */\n  0x00\n    /* \"#utility.yul\":2280:2288   */\n  swap1\n  pop\n    /* \"#utility.yul\":2221:2294   */\n  swap1\n  jump\t// out\n    /* \"#utility.yul\":2300:2489   */\ntag_19:\n    /* \"#utility.yul\":2377:2409   */\n  tag_52\n  tag_18\n  jump\t// in\ntag_52:\n    /* \"#utility.yul\":2418:2483   */\n  tag_53\n    /* \"#utility.yul\":2476:2482   */\n  dup2\n    /* \"#utility.yul\":2468:2474   */\n  dup5\n    /* \"#utility.yul\":2462:2466   */\n  dup5\n    /* \"#utility.yul\":2418:2483   */\n  tag_17\n  jump\t// in\ntag_53:\n    /* \"#utility.yul\":2353:2489   */\n  pop\n    /* \"#utility.yul\":2300:2489   */\n  pop\n  pop\n  jump\t// out\n    /* \"#utility.yul\":2495:2681   */\ntag_20:\n    /* \"#utility.yul\":2555:2675   */\ntag_55:\n    /* \"#utility.yul\":2572:2575   */\n  dup2\n    /* \"#utility.yul\":2565:2570   */\n  dup2\n    /* \"#utility.yul\":2562:2576   */\n  lt\n    /* \"#utility.yul\":2555:2675   */\n  iszero\n  tag_57\n  jumpi\n    /* \"#utility.yul\":2626:2665   */\n  tag_58\n    /* \"#utility.yul\":2663:2664   */\n  0x00\n    /* \"#utility.yul\":2656:2661   */\n  dup3\n    /* \"#utility.yul\":2626:2665   */\n  tag_19\n  jump\t// in\ntag_58:\n    /* \"#utility.yul\":2599:2600   */\n  0x01\n    /* \"#utility.yul\":2592:2597   */\n  dup2\n    /* \"#utility.yul\":2588:2601   */\n  add\n    /* \"#utility.yul\":2579:2601   */\n  swap1\n  pop\n    /* \"#utility.yul\":2555:2675   */\n  jump(tag_55)\ntag_57:\n    /* \"#utility.yul\":2495:2681   */\n  pop\n  pop\n  jump\t// out\n    /* \"#utility.yul\":2687:3230   */\ntag_21:\n    /* \"#utility.yul\":2788:2790   */\n  0x1f\n    /* \"#utility.yul\":2783:2786   */\n  dup3\n    /* \"#utility.yul\":2780:2791   */\n  gt\n    /* \"#utility.yul\":2777:3223   */\n  iszero\n  tag_60\n  jumpi\n    /* \"#utility.yul\":2822:2860   */\n  tag_61\n    /* \"#utility.yul\":2854:2859   */\n  dup2\n    /* \"#utility.yul\":2822:2860   */\n  tag_9\n  jump\t// in\ntag_61:\n    /* \"#utility.yul\":2906:2935   */\n  tag_62\n    /* \"#utility.yul\":2924:2934   */\n  dup5\n    /* \"#utility.yul\":2906:2935   */\n  tag_10\n  jump\t// in\ntag_62:\n    /* \"#utility.yul\":2896:2904   */\n  dup2\n    /* \"#utility.yul\":2892:2936   */\n  add\n    /* \"#utility.yul\":3089:3091   */\n  0x20\n    /* \"#utility.yul\":3077:3087   */\n  dup6\n    /* \"#utility.yul\":3074:3092   */\n  lt\n    /* \"#utility.yul\":3071:3120   */\n  iszero\n  tag_63\n  jumpi\n    /* \"#utility.yul\":3110:3118   */\n  dup2\n    /* \"#utility.yul\":3095:3118   */\n  swap1\n  pop\n    /* \"#utility.yul\":3071:3120   */\ntag_63:\n    /* \"#utility.yul\":3133:3213   */\n  tag_64\n    /* \"#utility.yul\":3189:3211   */\n  tag_65\n    /* \"#utility.yul\":3207:3210   */\n  dup6\n    /* \"#utility.yul\":3189:3211   */\n  tag_10\n  jump\t// in\ntag_65:\n    /* \"#utility.yul\":3179:3187   */\n  dup4\n    /* \"#utility.yul\":3175:3212   */\n  add\n    /* \"#utility.yul\":3162:3173   */\n  dup3\n    /* \"#utility.yul\":3133:3213   */\n  tag_20\n  jump\t// in\ntag_64:\n    /* \"#utility.yul\":2792:3223   */\n  pop\n  pop\n    /* \"#utility.yul\":2777:3223   */\ntag_60:\n    /* \"#utility.yul\":2687:3230   */\n  pop\n  pop\n  pop\n  jump\t// out\n    /* \"#utility.yul\":3236:3353   */\ntag_22:\n    /* \"#utility.yul\":3290:3298   */\n  0x00\n    /* \"#utility.yul\":3340:3345   */\n  dup3\n    /* \"#utility.yul\":3334:3338   */\n  dup3\n    /* \"#utility.yul\":3330:3346   */\n  shr\n    /* \"#utility.yul\":3309:3346   */\n  swap1\n  pop\n    /* \"#utility.yul\":3236:3353   */\n  swap3\n  swap2\n  pop\n  pop\n  jump\t// out\n    /* \"#utility.yul\":3359:3528   */\ntag_23:\n    /* \"#utility.yul\":3403:3409   */\n  0x00\n    /* \"#utility.yul\":3436:3487   */\n  tag_68\n    /* \"#utility.yul\":3484:3485   */\n  0x00\n    /* \"#utility.yul\":3480:3486   */\n  not\n    /* \"#utility.yul\":3472:3477   */\n  dup5\n    /* \"#utility.yul\":3469:3470   */\n  0x08\n    /* \"#utility.yul\":3465:3478   */\n  mul\n    /* \"#utility.yul\":3436:3487   */\n  tag_22\n  jump\t// in\ntag_68:\n    /* \"#utility.yul\":3432:3488   */\n  not\n    /* \"#utility.yul\":3517:3521   */\n  dup1\n    /* \"#utility.yul\":3511:3515   */\n  dup4\n    /* \"#utility.yul\":3507:3522   */\n  and\n    /* \"#utility.yul\":3497:3522   */\n  swap2\n  pop\n    /* \"#utility.yul\":3410:3528   */\n  pop\n    /* \"#utility.yul\":3359:3528   */\n  swap3\n  swap2\n  pop\n  pop\n  jump\t// out\n    /* \"#utility.yul\":3533:3828   */\ntag_24:\n    /* \"#utility.yul\":3609:3613   */\n  0x00\n    /* \"#utility.yul\":3755:3784   */\n  tag_70\n    /* \"#utility.yul\":3780:3783   */\n  dup4\n    /* \"#utility.yul\":3774:3778   */\n  dup4\n    /* \"#utility.yul\":3755:3784   */\n  tag_23\n  jump\t// in\ntag_70:\n    /* \"#utility.yul\":3747:3784   */\n  swap2\n  pop\n    /* \"#utility.yul\":3817:3820   */\n  dup3\n    /* \"#utility.yul\":3814:3815   */\n  0x02\n    /* \"#utility.yul\":3810:3821   */\n  mul\n    /* \"#utility.yul\":3804:3808   */\n  dup3\n    /* \"#utility.yul\":3801:3822   */\n  or\n    /* \"#utility.yul\":3793:3822   */\n  swap1\n  pop\n    /* \"#utility.yul\":3533:3828   */\n  swap3\n  swap2\n  pop\n  pop\n  jump\t// out\n    /* \"#utility.yul\":3833:5228   */\ntag_2:\n    /* \"#utility.yul\":3950:3987   */\n  tag_72\n    /* \"#utility.yul\":3983:3986   */\n  dup3\n    /* \"#utility.yul\":3950:3987   */\n  tag_5\n  jump\t// in\ntag_72:\n    /* \"#utility.yul\":4052:4070   */\n  0xffffffffffffffff\n    /* \"#utility.yul\":4044:4050   */\n  dup2\n    /* \"#utility.yul\":4041:4071   */\n  gt\n    /* \"#utility.yul\":4038:4094   */\n  iszero\n  tag_73\n  jumpi\n    /* \"#utility.yul\":4074:4092   */\n  tag_74\n  tag_6\n  jump\t// in\ntag_74:\n    /* \"#utility.yul\":4038:4094   */\ntag_73:\n    /* \"#utility.yul\":4118:4156   */\n  tag_75\n    /* \"#utility.yul\":4150:4154   */\n  dup3\n    /* \"#utility.yul\":4144:4155   */\n  sload\n    /* \"#utility.yul\":4118:4156   */\n  tag_8\n  jump\t// in\ntag_75:\n    /* \"#utility.yul\":4203:4270   */\n  tag_76\n    /* \"#utility.yul\":4263:4269   */\n  dup3\n    /* \"#utility.yul\":4255:4261   */\n  dup3\n    /* \"#utility.yul\":4249:4253   */\n  dup6\n    /* \"#utility.yul\":4203:4270   */\n  tag_21\n  jump\t// in\ntag_76:\n    /* \"#utility.yul\":4297:4298   */\n  0x00\n    /* \"#utility.yul\":4321:4325   */\n  0x20\n    /* \"#utility.yul\":4308:4325   */\n  swap1\n  pop\n    /* \"#utility.yul\":4353:4355   */\n  0x1f\n    /* \"#utility.yul\":4345:4351   */\n  dup4\n    /* \"#utility.yul\":4342:4356   */\n  gt\n    /* \"#utility.yul\":4370:4371   */\n  0x01\n    /* \"#utility.yul\":4365:4983   */\n  dup2\n  eq\n  tag_78\n  jumpi\n    /* \"#utility.yul\":5027:5028   */\n  0x00\n    /* \"#utility.yul\":5044:5050   */\n  dup5\n    /* \"#utility.yul\":5041:5118   */\n  iszero\n  tag_79\n  jumpi\n    /* \"#utility.yul\":5093:5102   */\n  dup3\n    /* \"#utility.yul\":5088:5091   */\n  dup8\n    /* \"#utility.yul\":5084:5103   */\n  add\n    /* \"#utility.yul\":5078:5104   */\n  mload\n    /* \"#utility.yul\":5069:5104   */\n  swap1\n  pop\n    /* \"#utility.yul\":5041:5118   */\ntag_79:\n    /* \"#utility.yul\":5144:5211   */\n  tag_80\n    /* \"#utility.yul\":5204:5210   */\n  dup6\n    /* \"#utility.yul\":5197:5202   */\n  dup3\n    /* \"#utility.yul\":5144:5211   */\n  tag_24\n  jump\t// in\ntag_80:\n    /* \"#utility.yul\":5138:5142   */\n  dup7\n    /* \"#utility.yul\":5131:5212   */\n  sstore\n    /* \"#utility.yul\":5000:5222   */\n  pop\n    /* \"#utility.yul\":4335:5222   */\n  jump(tag_77)\n    /* \"#utility.yul\":4365:4983   */\ntag_78:\n    /* \"#utility.yul\":4417:4421   */\n  0x1f\n    /* \"#utility.yul\":4413:4422   */\n  not\n    /* \"#utility.yul\":4405:4411   */\n  dup5\n    /* \"#utility.yul\":4401:4423   */\n  and\n    /* \"#utility.yul\":4451:4488   */\n  tag_81\n    /* \"#utility.yul\":4483:4487   */\n  dup7\n    /* \"#utility.yul\":4451:4488   */\n  tag_9\n  jump\t// in\ntag_81:\n    /* \"#utility.yul\":4510:4511   */\n  0x00\n    /* \"#utility.yul\":4524:4732   */\ntag_82:\n    /* \"#utility.yul\":4538:4545   */\n  dup3\n    /* \"#utility.yul\":4535:4536   */\n  dup2\n    /* \"#utility.yul\":4532:4546   */\n  lt\n    /* \"#utility.yul\":4524:4732   */\n  iszero\n  tag_84\n  jumpi\n    /* \"#utility.yul\":4617:4626   */\n  dup5\n    /* \"#utility.yul\":4612:4615   */\n  dup10\n    /* \"#utility.yul\":4608:4627   */\n  add\n    /* \"#utility.yul\":4602:4628   */\n  mload\n    /* \"#utility.yul\":4594:4600   */\n  dup3\n    /* \"#utility.yul\":4587:4629   */\n  sstore\n    /* \"#utility.yul\":4668:4669   */\n  0x01\n    /* \"#utility.yul\":4660:4666   */\n  dup3\n    /* \"#utility.yul\":4656:4670   */\n  add\n    /* \"#utility.yul\":4646:4670   */\n  swap2\n  pop\n    /* \"#utility.yul\":4715:4717   */\n  0x20\n    /* \"#utility.yul\":4704:4713   */\n  dup6\n    /* \"#utility.yul\":4700:4718   */\n  add\n    /* \"#utility.yul\":4687:4718   */\n  swap5\n  pop\n    /* \"#utility.yul\":4561:4565   */\n  0x20\n    /* \"#utility.yul\":4558:4559   */\n  dup2\n    /* \"#utility.yul\":4554:4566   */\n  add\n    /* \"#utility.yul\":4549:4566   */\n  swap1\n  pop\n    /* \"#utility.yul\":4524:4732   */\n  jump(tag_82)\ntag_84:\n    /* \"#utility.yul\":4760:4766   */\n  dup7\n    /* \"#utility.yul\":4751:4758   */\n  dup4\n    /* \"#utility.yul\":4748:4767   */\n  lt\n    /* \"#utility.yul\":4745:4924   */\n  iszero\n  tag_85\n  jumpi\n    /* \"#utility.yul\":4818:4827   */\n  dup5\n    /* \"#utility.yul\":4813:4816   */\n  dup10\n    /* \"#utility.yul\":4809:4828   */\n  add\n    /* \"#utility.yul\":4803:4829   */\n  mload\n    /* \"#utility.yul\":4861:4909   */\n  tag_86\n    /* \"#utility.yul\":4903:4907   */\n  0x1f\n    /* \"#utility.yul\":4895:4901   */\n  dup10\n    /* \"#utility.yul\":4891:4908   */\n  and\n    /* \"#utility.yul\":4880:4889   */\n  dup3\n    /* \"#utility.yul\":4861:4909   */\n  tag_23\n  jump\t// in\ntag_86:\n    /* \"#utility.yul\":4853:4859   */\n  dup4\n    /* \"#utility.yul\":4846:4910   */\n  sstore\n    /* \"#utility.yul\":4768:4924   */\n  pop\n    /* \"#utility.yul\":4745:4924   */\ntag_85:\n    /* \"#utility.yul\":4970:4971   */\n  0x01\n    /* \"#utility.yul\":4966:4967   */\n  0x02\n    /* \"#utility.yul\":4958:4964   */\n  dup9\n    /* \"#utility.yul\":4954:4968   */\n  mul\n    /* \"#utility.yul\":4950:4972   */\n  add\n    /* \"#utility.yul\":4944:4948   */\n  dup9\n    /* \"#utility.yul\":4937:4973   */\n  sstore\n    /* \"#utility.yul\":4372:4983   */\n  pop\n  pop\n  pop\n    /* \"#utility.yul\":4335:5222   */\ntag_77:\n  pop\n    /* \"#utility.yul\":3925:5228   */\n  pop\n  pop\n  pop\n    /* \"#utility.yul\":3833:5228   */\n  pop\n  pop\n  jump\t// out\n    /* \"TaskManager.sol\":61:2380  contract TaskManager {... */\ntag_4:\n  dataSize(sub_0)\n  dup1\n  dataOffset(sub_0)\n  0x00\n  codecopy\n  0x00\n  return\nstop\n\nsub_0: assembly {\n        /* \"TaskManager.sol\":61:2380  contract TaskManager {... */\n      mstore(0x40, 0x80)\n      jumpi(tag_1, lt(calldatasize, 0x04))\n      shr(0xe0, calldataload(0x00))\n      dup1\n      0x4ad0e590\n      gt\n      tag_23\n      jumpi\n      dup1\n      0x9799b4e7\n      gt\n      tag_24\n      jumpi\n      dup1\n      0x9799b4e7\n      eq\n      tag_17\n      jumpi\n      dup1\n      0xb2596a67\n      eq\n      tag_18\n      jumpi\n      dup1\n      0xb73f7951\n      eq\n      tag_19\n      jumpi\n      dup1\n      0xd0e30db0\n      eq\n      tag_20\n      jumpi\n      dup1\n      0xde0cc45b\n      eq\n      tag_21\n      jumpi\n      dup1\n      0xfb45373e\n      eq\n      tag_22\n      jumpi\n      jump(tag_1)\n    tag_24:\n      dup1\n      0x4ad0e590\n      eq\n      tag_12\n      jumpi\n      dup1\n      0x65ac2320\n      eq\n      tag_13\n      jumpi\n      dup1\n      0x70a93b36\n      eq\n      tag_14\n      jumpi\n      dup1\n      0x8d977672\n      eq\n      tag_15\n      jumpi\n      dup1\n      0x8da5cb5b\n      eq\n      tag_16\n      jumpi\n      jump(tag_1)\n    tag_23:\n      dup1\n      0x2ccb1b30\n      gt\n      tag_25\n      jumpi\n      dup1\n      0x2ccb1b30\n      eq\n      tag_7\n      jumpi\n      dup1\n      0x2e49d78b\n      eq\n      tag_8\n      jumpi\n      dup1\n      0x3143d082\n      eq\n      tag_9\n      jumpi\n      dup1\n      0x354497aa\n      eq\n      tag_10\n      jumpi\n      dup1\n      0x4a07a248\n      eq\n      tag_11\n      jumpi\n      jump(tag_1)\n    tag_25:\n      dup1\n      0x12065fe0\n      eq\n      tag_2\n      jumpi\n      dup1\n      0x12fb1cbd\n      eq\n      tag_3\n      jumpi\n      dup1\n      0x1d65e77e\n      eq\n      tag_4\n      jumpi\n      dup1\n      0x20e44e43\n      eq\n      tag_5\n      jumpi\n      dup1\n      0x22f3e2d4\n      eq\n      tag_6\n      jumpi\n    tag_1:\n      revert(0x00, 0x00)\n        /* \"TaskManager.sol\":2173:2377  function getBalance() public view returns(uint) { // функция для просмотра баланса любого контракта по адресу... */\n    tag_2:\n      callvalue\n      dup1\n      iszero\n      tag_26\n      jumpi\n      revert(0x00, 0x00)\n    tag_26:\n      pop\n      tag_27\n      tag_28\n      jump\t// in\n    tag_27:\n      mload(0x40)\n      tag_29\n      swap2\n      swap1\n      tag_30\n      jump\t// in\n    tag_29:\n      mload(0x40)\n      dup1\n      swap2\n      sub\n      swap1\n      return\n        /* \"TaskManager.sol\":1202:1399  function addPoints(uint pointValue) public {... */\n    tag_3:\n      callvalue\n      dup1\n      iszero\n      tag_31\n      jumpi\n      revert(0x00, 0x00)\n    tag_31:\n      pop\n      tag_32\n      0x04\n      dup1\n      calldatasize\n      sub\n      dup2\n      add\n      swap1\n      tag_33\n      swap2\n      swap1\n      tag_34\n      jump\t// in\n    tag_33:\n      tag_35\n      jump\t// in\n    tag_32:\n      stop\n        /* \"TaskManager.sol\":831:1011  function getTask(uint index) public view returns (string memory, bool, uint) {... */\n    tag_4:\n      callvalue\n      dup1\n      iszero\n      tag_36\n      jumpi\n      revert(0x00, 0x00)\n    tag_36:\n      pop\n      tag_37\n      0x04\n      dup1\n      calldatasize\n      sub\n      dup2\n      add\n      swap1\n      tag_38\n      swap2\n      swap1\n      tag_34\n      jump\t// in\n    tag_38:\n      tag_39\n      jump\t// in\n    tag_37:\n      mload(0x40)\n      tag_40\n      swap4\n      swap3\n      swap2\n      swap1\n      tag_41\n      jump\t// in\n    tag_40:\n      mload(0x40)\n      dup1\n      swap2\n      sub\n      swap1\n      return\n        /* \"TaskManager.sol\":209:232  bytes public configData */\n    tag_5:\n      callvalue\n      dup1\n      iszero\n      tag_42\n      jumpi\n      revert(0x00, 0x00)\n    tag_42:\n      pop\n      tag_43\n      tag_44\n      jump\t// in\n    tag_43:\n      mload(0x40)\n      tag_45\n      swap2\n      swap1\n      tag_46\n      jump\t// in\n    tag_45:\n      mload(0x40)\n      dup1\n      swap2\n      sub\n      swap1\n      return\n        /* \"TaskManager.sol\":354:381  bool public isActive = true */\n    tag_6:\n      callvalue\n      dup1\n      iszero\n      tag_47\n      jumpi\n      revert(0x00, 0x00)\n    tag_47:\n      pop\n      tag_48\n      tag_49\n      jump\t// in\n    tag_48:\n      mload(0x40)\n      tag_50\n      swap2\n      swap1\n      tag_51\n      jump\t// in\n    tag_50:\n      mload(0x40)\n      dup1\n      swap2\n      sub\n      swap1\n      return\n        /* \"TaskManager.sol\":1924:2165  function transferTo(address targetAddr, uint amount) public { // функция для перевода средств на любой контракт... */\n    tag_7:\n      callvalue\n      dup1\n      iszero\n      tag_52\n      jumpi\n      revert(0x00, 0x00)\n    tag_52:\n      pop\n      tag_53\n      0x04\n      dup1\n      calldatasize\n      sub\n      dup2\n      add\n      swap1\n      tag_54\n      swap2\n      swap1\n      tag_55\n      jump\t// in\n    tag_54:\n      tag_56\n      jump\t// in\n    tag_53:\n      stop\n        /* \"TaskManager.sol\":1107:1194  function setStatus(Status newStatus) public {... */\n    tag_8:\n      callvalue\n      dup1\n      iszero\n      tag_57\n      jumpi\n      revert(0x00, 0x00)\n    tag_57:\n      pop\n      tag_58\n      0x04\n      dup1\n      calldatasize\n      sub\n      dup2\n      add\n      swap1\n      tag_59\n      swap2\n      swap1\n      tag_60\n      jump\t// in\n    tag_59:\n      tag_61\n      jump\t// in\n    tag_58:\n      stop\n        /* \"TaskManager.sol\":573:823  function addTask(string memory text, uint point) public {... */\n    tag_9:\n      callvalue\n      dup1\n      iszero\n      tag_62\n      jumpi\n      revert(0x00, 0x00)\n    tag_62:\n      pop\n      tag_63\n      0x04\n      dup1\n      calldatasize\n      sub\n      dup2\n      add\n      swap1\n      tag_64\n      swap2\n      swap1\n      tag_65\n      jump\t// in\n    tag_64:\n      tag_66\n      jump\t// in\n    tag_63:\n      stop\n        /* \"TaskManager.sol\":1604:1685  function setConfig(bytes memory data) public {... */\n    tag_10:\n      callvalue\n      dup1\n      iszero\n      tag_67\n      jumpi\n      revert(0x00, 0x00)\n    tag_67:\n      pop\n      tag_68\n      0x04\n      dup1\n      calldatasize\n      sub\n      dup2\n      add\n      swap1\n      tag_69\n      swap2\n      swap1\n      tag_70\n      jump\t// in\n    tag_69:\n      tag_71\n      jump\t// in\n    tag_68:\n      stop\n        /* \"TaskManager.sol\":1407:1497  function getPointCount() public view returns(uint) {... */\n    tag_11:\n      callvalue\n      dup1\n      iszero\n      tag_72\n      jumpi\n      revert(0x00, 0x00)\n    tag_72:\n      pop\n      tag_73\n      tag_74\n      jump\t// in\n    tag_73:\n      mload(0x40)\n      tag_75\n      swap2\n      swap1\n      tag_30\n      jump\t// in\n    tag_75:\n      mload(0x40)\n      dup1\n      swap2\n      sub\n      swap1\n      return\n        /* \"TaskManager.sol\":1019:1099  function markDone(uint index) public {... */\n    tag_12:\n      callvalue\n      dup1\n      iszero\n      tag_76\n      jumpi\n      revert(0x00, 0x00)\n    tag_76:\n      pop\n      tag_77\n      0x04\n      dup1\n      calldatasize\n      sub\n      dup2\n      add\n      swap1\n      tag_78\n      swap2\n      swap1\n      tag_34\n      jump\t// in\n    tag_78:\n      tag_79\n      jump\t// in\n    tag_77:\n      stop\n        /* \"TaskManager.sol\":241:275  string public ownerName = \"Grisha\" */\n    tag_13:\n      callvalue\n      dup1\n      iszero\n      tag_80\n      jumpi\n      revert(0x00, 0x00)\n    tag_80:\n      pop\n      tag_81\n      tag_82\n      jump\t// in\n    tag_81:\n      mload(0x40)\n      tag_83\n      swap2\n      swap1\n      tag_84\n      jump\t// in\n    tag_83:\n      mload(0x40)\n      dup1\n      swap2\n      sub\n      swap1\n      return\n        /* \"TaskManager.sol\":1505:1596  function setLevel(uint index, uint value) public {... */\n    tag_14:\n      callvalue\n      dup1\n      iszero\n      tag_85\n      jumpi\n      revert(0x00, 0x00)\n    tag_85:\n      pop\n      tag_86\n      0x04\n      dup1\n      calldatasize\n      sub\n      dup2\n      add\n      swap1\n      tag_87\n      swap2\n      swap1\n      tag_88\n      jump\t// in\n    tag_87:\n      tag_89\n      jump\t// in\n    tag_86:\n      stop\n        /* \"TaskManager.sol\":181:200  Task[] public tasks */\n    tag_15:\n      callvalue\n      dup1\n      iszero\n      tag_90\n      jumpi\n      revert(0x00, 0x00)\n    tag_90:\n      pop\n      tag_91\n      0x04\n      dup1\n      calldatasize\n      sub\n      dup2\n      add\n      swap1\n      tag_92\n      swap2\n      swap1\n      tag_34\n      jump\t// in\n    tag_92:\n      tag_93\n      jump\t// in\n    tag_91:\n      mload(0x40)\n      tag_94\n      swap4\n      swap3\n      swap2\n      swap1\n      tag_41\n      jump\t// in\n    tag_94:\n      mload(0x40)\n      dup1\n      swap2\n      sub\n      swap1\n      return\n        /* \"TaskManager.sol\":282:347  address public owner = 0x5B38Da6a701c568545dCfcB03FcB875f56beddC4 */\n    tag_16:\n      callvalue\n      dup1\n      iszero\n      tag_95\n      jumpi\n      revert(0x00, 0x00)\n    tag_95:\n      pop\n      tag_96\n      tag_97\n      jump\t// in\n    tag_96:\n      mload(0x40)\n      tag_98\n      swap2\n      swap1\n      tag_99\n      jump\t// in\n    tag_98:\n      mload(0x40)\n      dup1\n      swap2\n      sub\n      swap1\n      return\n        /* \"TaskManager.sol\":465:485  uint[] public points */\n    tag_17:\n      callvalue\n      dup1\n      iszero\n      tag_100\n      jumpi\n      revert(0x00, 0x00)\n    tag_100:\n      pop\n      tag_101\n      0x04\n      dup1\n      calldatasize\n      sub\n      dup2\n      add\n      swap1\n      tag_102\n      swap2\n      swap1\n      tag_34\n      jump\t// in\n    tag_102:\n      tag_103\n      jump\t// in\n    tag_101:\n      mload(0x40)\n      tag_104\n      swap2\n      swap1\n      tag_30\n      jump\t// in\n    tag_104:\n      mload(0x40)\n      dup1\n      swap2\n      sub\n      swap1\n      return\n        /* \"TaskManager.sol\":437:458  uint[5] public levels */\n    tag_18:\n      callvalue\n      dup1\n      iszero\n      tag_105\n      jumpi\n      revert(0x00, 0x00)\n    tag_105:\n      pop\n      tag_106\n      0x04\n      dup1\n      calldatasize\n      sub\n      dup2\n      add\n      swap1\n      tag_107\n      swap2\n      swap1\n      tag_34\n      jump\t// in\n    tag_107:\n      tag_108\n      jump\t// in\n    tag_106:\n      mload(0x40)\n      tag_109\n      swap2\n      swap1\n      tag_30\n      jump\t// in\n    tag_109:\n      mload(0x40)\n      dup1\n      swap2\n      sub\n      swap1\n      return\n        /* \"TaskManager.sol\":538:564  Status public globalStatus */\n    tag_19:\n      callvalue\n      dup1\n      iszero\n      tag_110\n      jumpi\n      revert(0x00, 0x00)\n    tag_110:\n      pop\n      tag_111\n      tag_112\n      jump\t// in\n    tag_111:\n      mload(0x40)\n      tag_113\n      swap2\n      swap1\n      tag_114\n      jump\t// in\n    tag_113:\n      mload(0x40)\n      dup1\n      swap2\n      sub\n      swap1\n      return\n        /* \"TaskManager.sol\":1778:1912  function deposit() public payable { // функция для перевода средств на счет контракта... */\n    tag_20:\n      tag_115\n      tag_116\n      jump\t// in\n    tag_115:\n      stop\n        /* \"TaskManager.sol\":1693:1770  function addTag(string memory tag) public {... */\n    tag_21:\n      callvalue\n      dup1\n      iszero\n      tag_117\n      jumpi\n      revert(0x00, 0x00)\n    tag_117:\n      pop\n      tag_118\n      0x04\n      dup1\n      calldatasize\n      sub\n      dup2\n      add\n      swap1\n      tag_119\n      swap2\n      swap1\n      tag_120\n      jump\t// in\n    tag_119:\n      tag_121\n      jump\t// in\n    tag_118:\n      stop\n        /* \"TaskManager.sol\":388:428  mapping(string => uint) public tagsCount */\n    tag_22:\n      callvalue\n      dup1\n      iszero\n      tag_122\n      jumpi\n      revert(0x00, 0x00)\n    tag_122:\n      pop\n      tag_123\n      0x04\n      dup1\n      calldatasize\n      sub\n      dup2\n      add\n      swap1\n      tag_124\n      swap2\n      swap1\n      tag_120\n      jump\t// in\n    tag_124:\n      tag_125\n      jump\t// in\n    tag_123:\n      mload(0x40)\n      tag_126\n      swap2\n      swap1\n      tag_30\n      jump\t// in\n    tag_126:\n      mload(0x40)\n      dup1\n      swap2\n      sub\n      swap1\n      return\n        /* \"TaskManager.sol\":2173:2377  function getBalance() public view returns(uint) { // функция для просмотра баланса любого контракта по адресу... */\n    tag_28:\n        /* \"TaskManager.sol\":2215:2219  uint */\n      0x00\n        /* \"TaskManager.sol\":2348:2369  address(this).balance */\n      selfbalance\n        /* \"TaskManager.sol\":2341:2369  return address(this).balance */\n      swap1\n      pop\n        /* \"TaskManager.sol\":2173:2377  function getBalance() public view returns(uint) { // функция для просмотра баланса любого контракта по адресу... */\n      swap1\n      jump\t// out\n        /* \"TaskManager.sol\":1202:1399  function addPoints(uint pointValue) public {... */\n    tag_35:\n        /* \"TaskManager.sol\":1278:1281  100 */\n      0x64\n        /* \"TaskManager.sol\":1264:1274  pointValue */\n      dup2\n        /* \"TaskManager.sol\":1264:1281  pointValue <= 100 */\n      gt\n      iszero\n        /* \"TaskManager.sol\":1256:1357  require(pointValue <= 100, unicode\"Оценка не может превысить 100 баллов\") */\n      tag_129\n      jumpi\n      mload(0x40)\n      0x08c379a000000000000000000000000000000000000000000000000000000000\n      dup2\n      mstore\n      0x04\n      add\n      tag_130\n      swap1\n      tag_131\n      jump\t// in\n    tag_130:\n      mload(0x40)\n      dup1\n      swap2\n      sub\n      swap1\n      revert\n    tag_129:\n        /* \"TaskManager.sol\":1368:1374  points */\n      0x0a\n        /* \"TaskManager.sol\":1380:1390  pointValue */\n      dup2\n        /* \"TaskManager.sol\":1368:1391  points.push(pointValue) */\n      swap1\n      dup1\n      0x01\n      dup2\n      sload\n      add\n      dup1\n      dup3\n      sstore\n      dup1\n      swap2\n      pop\n      pop\n      0x01\n      swap1\n      sub\n      swap1\n      0x00\n      mstore\n      keccak256(0x00, 0x20)\n      add\n      0x00\n      swap1\n      swap2\n      swap1\n      swap2\n      swap1\n      swap2\n      pop\n      sstore\n        /* \"TaskManager.sol\":1202:1399  function addPoints(uint pointValue) public {... */\n      pop\n      jump\t// out\n        /* \"TaskManager.sol\":831:1011  function getTask(uint index) public view returns (string memory, bool, uint) {... */\n    tag_39:\n        /* \"TaskManager.sol\":881:894  string memory */\n      0x60\n        /* \"TaskManager.sol\":896:900  bool */\n      0x00\n        /* \"TaskManager.sol\":902:906  uint */\n      0x00\n        /* \"TaskManager.sol\":919:935  Task memory task */\n      0x00\n        /* \"TaskManager.sol\":938:943  tasks */\n      0x00\n        /* \"TaskManager.sol\":944:949  index */\n      dup6\n        /* \"TaskManager.sol\":938:950  tasks[index] */\n      dup2\n      sload\n      dup2\n      lt\n      tag_134\n      jumpi\n      tag_135\n      tag_136\n      jump\t// in\n    tag_135:\n    tag_134:\n      swap1\n      0x00\n      mstore\n      keccak256(0x00, 0x20)\n      swap1\n      0x03\n      mul\n      add\n        /* \"TaskManager.sol\":919:950  Task memory task = tasks[index] */\n      mload(0x40)\n      dup1\n      0x60\n      add\n      0x40\n      mstore\n      swap1\n      dup2\n      0x00\n      dup3\n      add\n      dup1\n      sload\n      tag_138\n      swap1\n      tag_139\n      jump\t// in\n    tag_138:\n      dup1\n      0x1f\n      add\n      0x20\n      dup1\n      swap2\n      div\n      mul\n      0x20\n      add\n      mload(0x40)\n      swap1\n      dup2\n      add\n      0x40\n      mstore\n      dup1\n      swap3\n      swap2\n      swap1\n      dup2\n      dup2\n      mstore\n      0x20\n      add\n      dup3\n      dup1\n      sload\n      tag_140\n      swap1\n      tag_139\n      jump\t// in\n    tag_140:\n      dup1\n      iszero\n      tag_141\n      jumpi\n      dup1\n      0x1f\n      lt\n      tag_142\n      jumpi\n      0x0100\n      dup1\n      dup4\n      sload\n      div\n      mul\n      dup4\n      mstore\n      swap2\n      0x20\n      add\n      swap2\n      jump(tag_141)\n    tag_142:\n      dup3\n      add\n      swap2\n      swap1\n      0x00\n      mstore\n      keccak256(0x00, 0x20)\n      swap1\n    tag_143:\n      dup2\n      sload\n      dup2\n      mstore\n      swap1\n      0x01\n      add\n      swap1\n      0x20\n      add\n      dup1\n      dup4\n      gt\n      tag_143\n      jumpi\n      dup3\n      swap1\n      sub\n      0x1f\n      and\n      dup3\n      add\n      swap2\n    tag_141:\n      pop\n      pop\n      pop\n      pop\n      pop\n      dup2\n      mstore\n      0x20\n      add\n      0x01\n      dup3\n      add\n      0x00\n      swap1\n      sload\n      swap1\n      0x0100\n      exp\n      swap1\n      div\n      0xff\n      and\n      iszero\n      iszero\n      iszero\n      iszero\n      dup2\n      mstore\n      0x20\n      add\n      0x02\n      dup3\n      add\n      sload\n      dup2\n      mstore\n      pop\n      pop\n      swap1\n      pop\n        /* \"TaskManager.sol\":969:973  task */\n      dup1\n        /* \"TaskManager.sol\":969:978  task.text */\n      0x00\n      add\n      mload\n        /* \"TaskManager.sol\":980:984  task */\n      dup2\n        /* \"TaskManager.sol\":980:989  task.done */\n      0x20\n      add\n      mload\n        /* \"TaskManager.sol\":991:995  task */\n      dup3\n        /* \"TaskManager.sol\":991:1002  task.points */\n      0x40\n      add\n      mload\n        /* \"TaskManager.sol\":961:1003  return (task.text, task.done, task.points) */\n      swap4\n      pop\n      swap4\n      pop\n      swap4\n      pop\n      pop\n        /* \"TaskManager.sol\":831:1011  function getTask(uint index) public view returns (string memory, bool, uint) {... */\n      swap2\n      swap4\n      swap1\n      swap3\n      pop\n      jump\t// out\n        /* \"TaskManager.sol\":209:232  bytes public configData */\n    tag_44:\n      0x01\n      dup1\n      sload\n      tag_144\n      swap1\n      tag_139\n      jump\t// in\n    tag_144:\n      dup1\n      0x1f\n      add\n      0x20\n      dup1\n      swap2\n      div\n      mul\n      0x20\n      add\n      mload(0x40)\n      swap1\n      dup2\n      add\n      0x40\n      mstore\n      dup1\n      swap3\n      swap2\n      swap1\n      dup2\n      dup2\n      mstore\n      0x20\n      add\n      dup3\n      dup1\n      sload\n      tag_145\n      swap1\n      tag_139\n      jump\t// in\n    tag_145:\n      dup1\n      iszero\n      tag_146\n      jumpi\n      dup1\n      0x1f\n      lt\n      tag_147\n      jumpi\n      0x0100\n      dup1\n      dup4\n      sload\n      div\n      mul\n      dup4\n      mstore\n      swap2\n      0x20\n      add\n      swap2\n      jump(tag_146)\n    tag_147:\n      dup3\n      add\n      swap2\n      swap1\n      0x00\n      mstore\n      keccak256(0x00, 0x20)\n      swap1\n    tag_148:\n      dup2\n      sload\n      dup2\n      mstore\n      swap1\n      0x01\n      add\n      swap1\n      0x20\n      add\n      dup1\n      dup4\n      gt\n      tag_148\n      jumpi\n      dup3\n      swap1\n      sub\n      0x1f\n      and\n      dup3\n      add\n      swap2\n    tag_146:\n      pop\n      pop\n      pop\n      pop\n      pop\n      dup2\n      jump\t// out\n        /* \"TaskManager.sol\":354:381  bool public isActive = true */\n    tag_49:\n      0x03\n      0x14\n      swap1\n      sload\n      swap1\n      0x0100\n      exp\n      swap1\n      div\n      0xff\n      and\n      dup2\n      jump\t// out\n        /* \"TaskManager.sol\":1924:2165  function transferTo(address targetAddr, uint amount) public { // функция для перевода средств на любой контракт... */\n    tag_56:\n        /* \"TaskManager.sol\":2085:2104  address payable _to */\n      0x00\n        /* \"TaskManager.sol\":2115:2125  targetAddr */\n      dup3\n        /* \"TaskManager.sol\":2085:2126  address payable _to = payable(targetAddr) */\n      swap1\n      pop\n        /* \"TaskManager.sol\":2137:2140  _to */\n      dup1\n        /* \"TaskManager.sol\":2137:2149  _to.transfer */\n      0xffffffffffffffffffffffffffffffffffffffff\n      and\n        /* \"TaskManager.sol\":2137:2157  _to.transfer(amount) */\n      0x08fc\n        /* \"TaskManager.sol\":2150:2156  amount */\n      dup4\n        /* \"TaskManager.sol\":2137:2157  _to.transfer(amount) */\n      swap1\n      dup2\n      iszero\n      mul\n      swap1\n      mload(0x40)\n      0x00\n      mload(0x40)\n      dup1\n      dup4\n      sub\n      dup2\n      dup6\n      dup9\n      dup9\n      call\n      swap4\n      pop\n      pop\n      pop\n      pop\n      iszero\n      dup1\n      iszero\n      tag_151\n      jumpi\n      returndatacopy(0x00, 0x00, returndatasize)\n      revert(0x00, returndatasize)\n    tag_151:\n      pop\n        /* \"TaskManager.sol\":1984:2165  { // функция для перевода средств на любой контракт... */\n      pop\n        /* \"TaskManager.sol\":1924:2165  function transferTo(address targetAddr, uint amount) public { // функция для перевода средств на любой контракт... */\n      pop\n      pop\n      jump\t// out\n        /* \"TaskManager.sol\":1107:1194  function setStatus(Status newStatus) public {... */\n    tag_61:\n        /* \"TaskManager.sol\":1177:1186  newStatus */\n      dup1\n        /* \"TaskManager.sol\":1162:1174  globalStatus */\n      0x0b\n      0x00\n        /* \"TaskManager.sol\":1162:1186  globalStatus = newStatus */\n      0x0100\n      exp\n      dup2\n      sload\n      dup2\n      0xff\n      mul\n      not\n      and\n      swap1\n      dup4\n      0x02\n      dup2\n      gt\n      iszero\n      tag_153\n      jumpi\n      tag_154\n      tag_155\n      jump\t// in\n    tag_154:\n    tag_153:\n      mul\n      or\n      swap1\n      sstore\n      pop\n        /* \"TaskManager.sol\":1107:1194  function setStatus(Status newStatus) public {... */\n      pop\n      jump\t// out\n        /* \"TaskManager.sol\":573:823  function addTask(string memory text, uint point) public {... */\n    tag_66:\n        /* \"TaskManager.sol\":657:660  100 */\n      0x64\n        /* \"TaskManager.sol\":648:653  point */\n      dup2\n        /* \"TaskManager.sol\":648:660  point <= 100 */\n      gt\n      iszero\n        /* \"TaskManager.sol\":640:736  require(point <= 100, unicode\"Оценка не может превысить 100 баллов\") */\n      tag_157\n      jumpi\n      mload(0x40)\n      0x08c379a000000000000000000000000000000000000000000000000000000000\n      dup2\n      mstore\n      0x04\n      add\n      tag_158\n      swap1\n      tag_131\n      jump\t// in\n    tag_158:\n      mload(0x40)\n      dup1\n      swap2\n      sub\n      swap1\n      revert\n    tag_157:\n        /* \"TaskManager.sol\":747:752  tasks */\n      0x00\n        /* \"TaskManager.sol\":758:782  Task(text, false, point) */\n      mload(0x40)\n      dup1\n      0x60\n      add\n      0x40\n      mstore\n      dup1\n        /* \"TaskManager.sol\":763:767  text */\n      dup5\n        /* \"TaskManager.sol\":758:782  Task(text, false, point) */\n      dup2\n      mstore\n      0x20\n      add\n        /* \"TaskManager.sol\":769:774  false */\n      0x00\n        /* \"TaskManager.sol\":758:782  Task(text, false, point) */\n      iszero\n      iszero\n      dup2\n      mstore\n      0x20\n      add\n        /* \"TaskManager.sol\":776:781  point */\n      dup4\n        /* \"TaskManager.sol\":758:782  Task(text, false, point) */\n      dup2\n      mstore\n      pop\n        /* \"TaskManager.sol\":747:783  tasks.push(Task(text, false, point)) */\n      swap1\n      dup1\n      0x01\n      dup2\n      sload\n      add\n      dup1\n      dup3\n      sstore\n      dup1\n      swap2\n      pop\n      pop\n      0x01\n      swap1\n      sub\n      swap1\n      0x00\n      mstore\n      keccak256(0x00, 0x20)\n      swap1\n      0x03\n      mul\n      add\n      0x00\n      swap1\n      swap2\n      swap1\n      swap2\n      swap1\n      swap2\n      pop\n      0x00\n      dup3\n      add\n      mload\n      dup2\n      0x00\n      add\n      swap1\n      dup2\n      tag_160\n      swap2\n      swap1\n      tag_161\n      jump\t// in\n    tag_160:\n      pop\n      0x20\n      dup3\n      add\n      mload\n      dup2\n      0x01\n      add\n      exp(0x0100, 0x00)\n      dup2\n      sload\n      dup2\n      0xff\n      mul\n      not\n      and\n      swap1\n      dup4\n      iszero\n      iszero\n      mul\n      or\n      swap1\n      sstore\n      pop\n      0x40\n      dup3\n      add\n      mload\n      dup2\n      0x02\n      add\n      sstore\n      pop\n      pop\n        /* \"TaskManager.sol\":573:823  function addTask(string memory text, uint point) public {... */\n      pop\n      pop\n      jump\t// out\n        /* \"TaskManager.sol\":1604:1685  function setConfig(bytes memory data) public {... */\n    tag_71:\n        /* \"TaskManager.sol\":1673:1677  data */\n      dup1\n        /* \"TaskManager.sol\":1660:1670  configData */\n      0x01\n        /* \"TaskManager.sol\":1660:1677  configData = data */\n      swap1\n      dup2\n      tag_163\n      swap2\n      swap1\n      tag_164\n      jump\t// in\n    tag_163:\n      pop\n        /* \"TaskManager.sol\":1604:1685  function setConfig(bytes memory data) public {... */\n      pop\n      jump\t// out\n        /* \"TaskManager.sol\":1407:1497  function getPointCount() public view returns(uint) {... */\n    tag_74:\n        /* \"TaskManager.sol\":1452:1456  uint */\n      0x00\n        /* \"TaskManager.sol\":1476:1482  points */\n      0x0a\n        /* \"TaskManager.sol\":1476:1489  points.length */\n      dup1\n      sload\n      swap1\n      pop\n        /* \"TaskManager.sol\":1469:1489  return points.length */\n      swap1\n      pop\n        /* \"TaskManager.sol\":1407:1497  function getPointCount() public view returns(uint) {... */\n      swap1\n      jump\t// out\n        /* \"TaskManager.sol\":1019:1099  function markDone(uint index) public {... */\n    tag_79:\n        /* \"TaskManager.sol\":1087:1091  true */\n      0x01\n        /* \"TaskManager.sol\":1067:1072  tasks */\n      0x00\n        /* \"TaskManager.sol\":1073:1078  index */\n      dup3\n        /* \"TaskManager.sol\":1067:1079  tasks[index] */\n      dup2\n      sload\n      dup2\n      lt\n      tag_167\n      jumpi\n      tag_168\n      tag_136\n      jump\t// in\n    tag_168:\n    tag_167:\n      swap1\n      0x00\n      mstore\n      keccak256(0x00, 0x20)\n      swap1\n      0x03\n      mul\n      add\n        /* \"TaskManager.sol\":1067:1084  tasks[index].done */\n      0x01\n      add\n      0x00\n        /* \"TaskManager.sol\":1067:1091  tasks[index].done = true */\n      0x0100\n      exp\n      dup2\n      sload\n      dup2\n      0xff\n      mul\n      not\n      and\n      swap1\n      dup4\n      iszero\n      iszero\n      mul\n      or\n      swap1\n      sstore\n      pop\n        /* \"TaskManager.sol\":1019:1099  function markDone(uint index) public {... */\n      pop\n      jump\t// out\n        /* \"TaskManager.sol\":241:275  string public ownerName = \"Grisha\" */\n    tag_82:\n      0x02\n      dup1\n      sload\n      tag_170\n      swap1\n      tag_139\n      jump\t// in\n    tag_170:\n      dup1\n      0x1f\n      add\n      0x20\n      dup1\n      swap2\n      div\n      mul\n      0x20\n      add\n      mload(0x40)\n      swap1\n      dup2\n      add\n      0x40\n      mstore\n      dup1\n      swap3\n      swap2\n      swap1\n      dup2\n      dup2\n      mstore\n      0x20\n      add\n      dup3\n      dup1\n      sload\n      tag_171\n      swap1\n      tag_139\n      jump\t// in\n    tag_171:\n      dup1\n      iszero\n      tag_172\n      jumpi\n      dup1\n      0x1f\n      lt\n      tag_173\n      jumpi\n      0x0100\n      dup1\n      dup4\n      sload\n      div\n      mul\n      dup4\n      mstore\n      swap2\n      0x20\n      add\n      swap2\n      jump(tag_172)\n    tag_173:\n      dup3\n      add\n      swap2\n      swap1\n      0x00\n      mstore\n      keccak256(0x00, 0x20)\n      swap1\n    tag_174:\n      dup2\n      sload\n      dup2\n      mstore\n      swap1\n      0x01\n      add\n      swap1\n      0x20\n      add\n      dup1\n      dup4\n      gt\n      tag_174\n      jumpi\n      dup3\n      swap1\n      sub\n      0x1f\n      and\n      dup3\n      add\n      swap2\n    tag_172:\n      pop\n      pop\n      pop\n      pop\n      pop\n      dup2\n      jump\t// out\n        /* \"TaskManager.sol\":1505:1596  function setLevel(uint index, uint value) public {... */\n    tag_89:\n        /* \"TaskManager.sol\":1582:1587  value */\n      dup1\n        /* \"TaskManager.sol\":1565:1571  levels */\n      0x05\n        /* \"TaskManager.sol\":1572:1577  index */\n      dup4\n        /* \"TaskManager.sol\":1565:1578  levels[index] */\n      0x05\n      dup2\n      lt\n      tag_176\n      jumpi\n      tag_177\n      tag_136\n      jump\t// in\n    tag_177:\n    tag_176:\n      add\n        /* \"TaskManager.sol\":1565:1588  levels[index] = (value) */\n      dup2\n      swap1\n      sstore\n      pop\n        /* \"TaskManager.sol\":1505:1596  function setLevel(uint index, uint value) public {... */\n      pop\n      pop\n      jump\t// out\n        /* \"TaskManager.sol\":181:200  Task[] public tasks */\n    tag_93:\n      0x00\n      dup2\n      dup2\n      sload\n      dup2\n      lt\n      tag_179\n      jumpi\n      0x00\n      dup1\n      revert\n    tag_179:\n      swap1\n      0x00\n      mstore\n      keccak256(0x00, 0x20)\n      swap1\n      0x03\n      mul\n      add\n      0x00\n      swap2\n      pop\n      swap1\n      pop\n      dup1\n      0x00\n      add\n      dup1\n      sload\n      tag_181\n      swap1\n      tag_139\n      jump\t// in\n    tag_181:\n      dup1\n      0x1f\n      add\n      0x20\n      dup1\n      swap2\n      div\n      mul\n      0x20\n      add\n      mload(0x40)\n      swap1\n      dup2\n      add\n      0x40\n      mstore\n      dup1\n      swap3\n      swap2\n      swap1\n      dup2\n      dup2\n      mstore\n      0x20\n      add\n      dup3\n      dup1\n      sload\n      tag_182\n      swap1\n      tag_139\n      jump\t// in\n    tag_182:\n      dup1\n      iszero\n      tag_183\n      jumpi\n      dup1\n      0x1f\n      lt\n      tag_184\n      jumpi\n      0x0100\n      dup1\n      dup4\n      sload\n      div\n      mul\n      dup4\n      mstore\n      swap2\n      0x20\n      add\n      swap2\n      jump(tag_183)\n    tag_184:\n      dup3\n      add\n      swap2\n      swap1\n      0x00\n      mstore\n      keccak256(0x00, 0x20)\n      swap1\n    tag_185:\n      dup2\n      sload\n      dup2\n      mstore\n      swap1\n      0x01\n      add\n      swap1\n      0x20\n      add\n      dup1\n      dup4\n      gt\n      tag_185\n      jumpi\n      dup3\n      swap1\n      sub\n      0x1f\n      and\n      dup3\n      add\n      swap2\n    tag_183:\n      pop\n      pop\n      pop\n      pop\n      pop\n      swap1\n      dup1\n      0x01\n      add\n      0x00\n      swap1\n      sload\n      swap1\n      0x0100\n      exp\n      swap1\n      div\n      0xff\n      and\n      swap1\n      dup1\n      0x02\n      add\n      sload\n      swap1\n      pop\n      dup4\n      jump\t// out\n        /* \"TaskManager.sol\":282:347  address public owner = 0x5B38Da6a701c568545dCfcB03FcB875f56beddC4 */\n    tag_97:\n      0x03\n      0x00\n      swap1\n      sload\n      swap1\n      0x0100\n      exp\n      swap1\n      div\n      0xffffffffffffffffffffffffffffffffffffffff\n      and\n      dup2\n      jump\t// out\n        /* \"TaskManager.sol\":465:485  uint[] public points */\n    tag_103:\n      0x0a\n      dup2\n      dup2\n      sload\n      dup2\n      lt\n      tag_186\n      jumpi\n      0x00\n      dup1\n      revert\n    tag_186:\n      swap1\n      0x00\n      mstore\n      keccak256(0x00, 0x20)\n      add\n      0x00\n      swap2\n      pop\n      swap1\n      pop\n      sload\n      dup2\n      jump\t// out\n        /* \"TaskManager.sol\":437:458  uint[5] public levels */\n    tag_108:\n      0x05\n      dup2\n      0x05\n      dup2\n      lt\n      tag_188\n      jumpi\n      0x00\n      dup1\n      revert\n    tag_188:\n      add\n      0x00\n      swap2\n      pop\n      swap1\n      pop\n      sload\n      dup2\n      jump\t// out\n        /* \"TaskManager.sol\":538:564  Status public globalStatus */\n    tag_112:\n      0x0b\n      0x00\n      swap1\n      sload\n      swap1\n      0x0100\n      exp\n      swap1\n      div\n      0xff\n      and\n      dup2\n      jump\t// out\n        /* \"TaskManager.sol\":1778:1912  function deposit() public payable { // функция для перевода средств на счет контракта... */\n    tag_116:\n      jump\t// out\n        /* \"TaskManager.sol\":1693:1770  function addTag(string memory tag) public {... */\n    tag_121:\n        /* \"TaskManager.sol\":1746:1755  tagsCount */\n      0x04\n        /* \"TaskManager.sol\":1756:1759  tag */\n      dup2\n        /* \"TaskManager.sol\":1746:1760  tagsCount[tag] */\n      mload(0x40)\n      tag_192\n      swap2\n      swap1\n      tag_193\n      jump\t// in\n    tag_192:\n      swap1\n      dup2\n      mstore\n      0x20\n      add\n      mload(0x40)\n      dup1\n      swap2\n      sub\n      swap1\n      keccak256\n      0x00\n        /* \"TaskManager.sol\":1746:1762  tagsCount[tag]++ */\n      dup2\n      sload\n      dup1\n      swap3\n      swap2\n      swap1\n      tag_194\n      swap1\n      tag_195\n      jump\t// in\n    tag_194:\n      swap2\n      swap1\n      pop\n      sstore\n      pop\n        /* \"TaskManager.sol\":1693:1770  function addTag(string memory tag) public {... */\n      pop\n      jump\t// out\n        /* \"TaskManager.sol\":388:428  mapping(string => uint) public tagsCount */\n    tag_125:\n      0x04\n      dup2\n      dup1\n      mload\n      0x20\n      dup2\n      add\n      dup3\n      add\n      dup1\n      mload\n      dup5\n      dup3\n      mstore\n      0x20\n      dup4\n      add\n      0x20\n      dup6\n      add\n      keccak256\n      dup2\n      dup4\n      mstore\n      dup1\n      swap6\n      pop\n      pop\n      pop\n      pop\n      pop\n      pop\n      0x00\n      swap2\n      pop\n      swap1\n      pop\n      sload\n      dup2\n      jump\t// out\n        /* \"#utility.yul\":7:84   */\n    tag_196:\n        /* \"#utility.yul\":44:51   */\n      0x00\n        /* \"#utility.yul\":73:78   */\n      dup2\n        /* \"#utility.yul\":62:78   */\n      swap1\n      pop\n        /* \"#utility.yul\":7:84   */\n      swap2\n      swap1\n      pop\n      jump\t// out\n        /* \"#utility.yul\":90:208   */\n    tag_197:\n        /* \"#utility.yul\":177:201   */\n      tag_262\n        /* \"#utility.yul\":195:200   */\n      dup2\n        /* \"#utility.yul\":177:201   */\n      tag_196\n      jump\t// in\n    tag_262:\n        /* \"#utility.yul\":172:175   */\n      dup3\n        /* \"#utility.yul\":165:202   */\n      mstore\n        /* \"#utility.yul\":90:208   */\n      pop\n      pop\n      jump\t// out\n        /* \"#utility.yul\":214:436   */\n    tag_30:\n        /* \"#utility.yul\":307:311   */\n      0x00\n        /* \"#utility.yul\":345:347   */\n      0x20\n        /* \"#utility.yul\":334:343   */\n      dup3\n        /* \"#utility.yul\":330:348   */\n      add\n        /* \"#utility.yul\":322:348   */\n      swap1\n      pop\n        /* \"#utility.yul\":358:429   */\n      tag_264\n        /* \"#utility.yul\":426:427   */\n      0x00\n        /* \"#utility.yul\":415:424   */\n      dup4\n        /* \"#utility.yul\":411:428   */\n      add\n        /* \"#utility.yul\":402:408   */\n      dup5\n        /* \"#utility.yul\":358:429   */\n      tag_197\n      jump\t// in\n    tag_264:\n        /* \"#utility.yul\":214:436   */\n      swap3\n      swap2\n      pop\n      pop\n      jump\t// out\n        /* \"#utility.yul\":442:517   */\n    tag_198:\n        /* \"#utility.yul\":475:481   */\n      0x00\n        /* \"#utility.yul\":508:510   */\n      0x40\n        /* \"#utility.yul\":502:511   */\n      mload\n        /* \"#utility.yul\":492:511   */\n      swap1\n      pop\n        /* \"#utility.yul\":442:517   */\n      swap1\n      jump\t// out\n        /* \"#utility.yul\":523:640   */\n    tag_199:\n        /* \"#utility.yul\":632:633   */\n      0x00\n        /* \"#utility.yul\":629:630   */\n      0x00\n        /* \"#utility.yul\":622:634   */\n      revert\n        /* \"#utility.yul\":646:763   */\n    tag_200:\n        /* \"#utility.yul\":755:756   */\n      0x00\n        /* \"#utility.yul\":752:753   */\n      0x00\n        /* \"#utility.yul\":745:757   */\n      revert\n        /* \"#utility.yul\":769:891   */\n    tag_201:\n        /* \"#utility.yul\":842:866   */\n      tag_269\n        /* \"#utility.yul\":860:865   */\n      dup2\n        /* \"#utility.yul\":842:866   */\n      tag_196\n      jump\t// in\n    tag_269:\n        /* \"#utility.yul\":835:840   */\n      dup2\n        /* \"#utility.yul\":832:867   */\n      eq\n        /* \"#utility.yul\":822:885   */\n      tag_270\n      jumpi\n        /* \"#utility.yul\":881:882   */\n      0x00\n        /* \"#utility.yul\":878:879   */\n      0x00\n        /* \"#utility.yul\":871:883   */\n      revert\n        /* \"#utility.yul\":822:885   */\n    tag_270:\n        /* \"#utility.yul\":769:891   */\n      pop\n      jump\t// out\n        /* \"#utility.yul\":897:1036   */\n    tag_202:\n        /* \"#utility.yul\":943:948   */\n      0x00\n        /* \"#utility.yul\":981:987   */\n      dup2\n        /* \"#utility.yul\":968:988   */\n      calldataload\n        /* \"#utility.yul\":959:988   */\n      swap1\n      pop\n        /* \"#utility.yul\":997:1030   */\n      tag_272\n        /* \"#utility.yul\":1024:1029   */\n      dup2\n        /* \"#utility.yul\":997:1030   */\n      tag_201\n      jump\t// in\n    tag_272:\n        /* \"#utility.yul\":897:1036   */\n      swap3\n      swap2\n      pop\n      pop\n      jump\t// out\n        /* \"#utility.yul\":1042:1371   */\n    tag_34:\n        /* \"#utility.yul\":1101:1107   */\n      0x00\n        /* \"#utility.yul\":1150:1152   */\n      0x20\n        /* \"#utility.yul\":1138:1147   */\n      dup3\n        /* \"#utility.yul\":1129:1136   */\n      dup5\n        /* \"#utility.yul\":1125:1148   */\n      sub\n        /* \"#utility.yul\":1121:1153   */\n      slt\n        /* \"#utility.yul\":1118:1237   */\n      iszero\n      tag_274\n      jumpi\n        /* \"#utility.yul\":1156:1235   */\n      tag_275\n      tag_199\n      jump\t// in\n    tag_275:\n        /* \"#utility.yul\":1118:1237   */\n    tag_274:\n        /* \"#utility.yul\":1276:1277   */\n      0x00\n        /* \"#utility.yul\":1301:1354   */\n      tag_276\n        /* \"#utility.yul\":1346:1353   */\n      dup5\n        /* \"#utility.yul\":1337:1343   */\n      dup3\n        /* \"#utility.yul\":1326:1335   */\n      dup6\n        /* \"#utility.yul\":1322:1344   */\n      add\n        /* \"#utility.yul\":1301:1354   */\n      tag_202\n      jump\t// in\n    tag_276:\n        /* \"#utility.yul\":1291:1354   */\n      swap2\n      pop\n        /* \"#utility.yul\":1247:1364   */\n      pop\n        /* \"#utility.yul\":1042:1371   */\n      swap3\n      swap2\n      pop\n      pop\n      jump\t// out\n        /* \"#utility.yul\":1377:1476   */\n    tag_203:\n        /* \"#utility.yul\":1429:1435   */\n      0x00\n        /* \"#utility.yul\":1463:1468   */\n      dup2\n        /* \"#utility.yul\":1457:1469   */\n      mload\n        /* \"#utility.yul\":1447:1469   */\n      swap1\n      pop\n        /* \"#utility.yul\":1377:1476   */\n      swap2\n      swap1\n      pop\n      jump\t// out\n        /* \"#utility.yul\":1482:1651   */\n    tag_204:\n        /* \"#utility.yul\":1566:1577   */\n      0x00\n        /* \"#utility.yul\":1600:1606   */\n      dup3\n        /* \"#utility.yul\":1595:1598   */\n      dup3\n        /* \"#utility.yul\":1588:1607   */\n      mstore\n        /* \"#utility.yul\":1640:1644   */\n      0x20\n        /* \"#utility.yul\":1635:1638   */\n      dup3\n        /* \"#utility.yul\":1631:1645   */\n      add\n        /* \"#utility.yul\":1616:1645   */\n      swap1\n      pop\n        /* \"#utility.yul\":1482:1651   */\n      swap3\n      swap2\n      pop\n      pop\n      jump\t// out\n        /* \"#utility.yul\":1657:1796   */\n    tag_205:\n        /* \"#utility.yul\":1746:1752   */\n      dup3\n        /* \"#utility.yul\":1741:1744   */\n      dup2\n        /* \"#utility.yul\":1736:1739   */\n      dup4\n        /* \"#utility.yul\":1730:1753   */\n      mcopy\n        /* \"#utility.yul\":1787:1788   */\n      0x00\n        /* \"#utility.yul\":1778:1784   */\n      dup4\n        /* \"#utility.yul\":1773:1776   */\n      dup4\n        /* \"#utility.yul\":1769:1785   */\n      add\n        /* \"#utility.yul\":1762:1789   */\n      mstore\n        /* \"#utility.yul\":1657:1796   */\n      pop\n      pop\n      pop\n      jump\t// out\n        /* \"#utility.yul\":1802:1904   */\n    tag_206:\n        /* \"#utility.yul\":1843:1849   */\n      0x00\n        /* \"#utility.yul\":1894:1896   */\n      0x1f\n        /* \"#utility.yul\":1890:1897   */\n      not\n        /* \"#utility.yul\":1885:1887   */\n      0x1f\n        /* \"#utility.yul\":1878:1883   */\n      dup4\n        /* \"#utility.yul\":1874:1888   */\n      add\n        /* \"#utility.yul\":1870:1898   */\n      and\n        /* \"#utility.yul\":1860:1898   */\n      swap1\n      pop\n        /* \"#utility.yul\":1802:1904   */\n      swap2\n      swap1\n      pop\n      jump\t// out\n        /* \"#utility.yul\":1910:2287   */\n    tag_207:\n        /* \"#utility.yul\":1998:2001   */\n      0x00\n        /* \"#utility.yul\":2026:2065   */\n      tag_282\n        /* \"#utility.yul\":2059:2064   */\n      dup3\n        /* \"#utility.yul\":2026:2065   */\n      tag_203\n      jump\t// in\n    tag_282:\n        /* \"#utility.yul\":2081:2152   */\n      tag_283\n        /* \"#utility.yul\":2145:2151   */\n      dup2\n        /* \"#utility.yul\":2140:2143   */\n      dup6\n        /* \"#utility.yul\":2081:2152   */\n      tag_204\n      jump\t// in\n    tag_283:\n        /* \"#utility.yul\":2074:2152   */\n      swap4\n      pop\n        /* \"#utility.yul\":2161:2226   */\n      tag_284\n        /* \"#utility.yul\":2219:2225   */\n      dup2\n        /* \"#utility.yul\":2214:2217   */\n      dup6\n        /* \"#utility.yul\":2207:2211   */\n      0x20\n        /* \"#utility.yul\":2200:2205   */\n      dup7\n        /* \"#utility.yul\":2196:2212   */\n      add\n        /* \"#utility.yul\":2161:2226   */\n      tag_205\n      jump\t// in\n    tag_284:\n        /* \"#utility.yul\":2251:2280   */\n      tag_285\n        /* \"#utility.yul\":2273:2279   */\n      dup2\n        /* \"#utility.yul\":2251:2280   */\n      tag_206\n      jump\t// in\n    tag_285:\n        /* \"#utility.yul\":2246:2249   */\n      dup5\n        /* \"#utility.yul\":2242:2281   */\n      add\n        /* \"#utility.yul\":2235:2281   */\n      swap2\n      pop\n        /* \"#utility.yul\":2002:2287   */\n      pop\n        /* \"#utility.yul\":1910:2287   */\n      swap3\n      swap2\n      pop\n      pop\n      jump\t// out\n        /* \"#utility.yul\":2293:2383   */\n    tag_208:\n        /* \"#utility.yul\":2327:2334   */\n      0x00\n        /* \"#utility.yul\":2370:2375   */\n      dup2\n        /* \"#utility.yul\":2363:2376   */\n      iszero\n        /* \"#utility.yul\":2356:2377   */\n      iszero\n        /* \"#utility.yul\":2345:2377   */\n      swap1\n      pop\n        /* \"#utility.yul\":2293:2383   */\n      swap2\n      swap1\n      pop\n      jump\t// out\n        /* \"#utility.yul\":2389:2498   */\n    tag_209:\n        /* \"#utility.yul\":2470:2491   */\n      tag_288\n        /* \"#utility.yul\":2485:2490   */\n      dup2\n        /* \"#utility.yul\":2470:2491   */\n      tag_208\n      jump\t// in\n    tag_288:\n        /* \"#utility.yul\":2465:2468   */\n      dup3\n        /* \"#utility.yul\":2458:2492   */\n      mstore\n        /* \"#utility.yul\":2389:2498   */\n      pop\n      pop\n      jump\t// out\n        /* \"#utility.yul\":2504:3025   */\n    tag_41:\n        /* \"#utility.yul\":2667:2671   */\n      0x00\n        /* \"#utility.yul\":2705:2707   */\n      0x60\n        /* \"#utility.yul\":2694:2703   */\n      dup3\n        /* \"#utility.yul\":2690:2708   */\n      add\n        /* \"#utility.yul\":2682:2708   */\n      swap1\n      pop\n        /* \"#utility.yul\":2754:2763   */\n      dup2\n        /* \"#utility.yul\":2748:2752   */\n      dup2\n        /* \"#utility.yul\":2744:2764   */\n      sub\n        /* \"#utility.yul\":2740:2741   */\n      0x00\n        /* \"#utility.yul\":2729:2738   */\n      dup4\n        /* \"#utility.yul\":2725:2742   */\n      add\n        /* \"#utility.yul\":2718:2765   */\n      mstore\n        /* \"#utility.yul\":2782:2860   */\n      tag_290\n        /* \"#utility.yul\":2855:2859   */\n      dup2\n        /* \"#utility.yul\":2846:2852   */\n      dup7\n        /* \"#utility.yul\":2782:2860   */\n      tag_207\n      jump\t// in\n    tag_290:\n        /* \"#utility.yul\":2774:2860   */\n      swap1\n      pop\n        /* \"#utility.yul\":2870:2936   */\n      tag_291\n        /* \"#utility.yul\":2932:2934   */\n      0x20\n        /* \"#utility.yul\":2921:2930   */\n      dup4\n        /* \"#utility.yul\":2917:2935   */\n      add\n        /* \"#utility.yul\":2908:2914   */\n      dup6\n        /* \"#utility.yul\":2870:2936   */\n      tag_209\n      jump\t// in\n    tag_291:\n        /* \"#utility.yul\":2946:3018   */\n      tag_292\n        /* \"#utility.yul\":3014:3016   */\n      0x40\n        /* \"#utility.yul\":3003:3012   */\n      dup4\n        /* \"#utility.yul\":2999:3017   */\n      add\n        /* \"#utility.yul\":2990:2996   */\n      dup5\n        /* \"#utility.yul\":2946:3018   */\n      tag_197\n      jump\t// in\n    tag_292:\n        /* \"#utility.yul\":2504:3025   */\n      swap5\n      swap4\n      pop\n      pop\n      pop\n      pop\n      jump\t// out\n        /* \"#utility.yul\":3031:3129   */\n    tag_210:\n        /* \"#utility.yul\":3082:3088   */\n      0x00\n        /* \"#utility.yul\":3116:3121   */\n      dup2\n        /* \"#utility.yul\":3110:3122   */\n      mload\n        /* \"#utility.yul\":3100:3122   */\n      swap1\n      pop\n        /* \"#utility.yul\":3031:3129   */\n      swap2\n      swap1\n      pop\n      jump\t// out\n        /* \"#utility.yul\":3135:3303   */\n    tag_211:\n        /* \"#utility.yul\":3218:3229   */\n      0x00\n        /* \"#utility.yul\":3252:3258   */\n      dup3\n        /* \"#utility.yul\":3247:3250   */\n      dup3\n        /* \"#utility.yul\":3240:3259   */\n      mstore\n        /* \"#utility.yul\":3292:3296   */\n      0x20\n        /* \"#utility.yul\":3287:3290   */\n      dup3\n        /* \"#utility.yul\":3283:3297   */\n      add\n        /* \"#utility.yul\":3268:3297   */\n      swap1\n      pop\n        /* \"#utility.yul\":3135:3303   */\n      swap3\n      swap2\n      pop\n      pop\n      jump\t// out\n        /* \"#utility.yul\":3309:3682   */\n    tag_212:\n        /* \"#utility.yul\":3395:3398   */\n      0x00\n        /* \"#utility.yul\":3423:3461   */\n      tag_296\n        /* \"#utility.yul\":3455:3460   */\n      dup3\n        /* \"#utility.yul\":3423:3461   */\n      tag_210\n      jump\t// in\n    tag_296:\n        /* \"#utility.yul\":3477:3547   */\n      tag_297\n        /* \"#utility.yul\":3540:3546   */\n      dup2\n        /* \"#utility.yul\":3535:3538   */\n      dup6\n        /* \"#utility.yul\":3477:3547   */\n      tag_211\n      jump\t// in\n    tag_297:\n        /* \"#utility.yul\":3470:3547   */\n      swap4\n      pop\n        /* \"#utility.yul\":3556:3621   */\n      tag_298\n        /* \"#utility.yul\":3614:3620   */\n      dup2\n        /* \"#utility.yul\":3609:3612   */\n      dup6\n        /* \"#utility.yul\":3602:3606   */\n      0x20\n        /* \"#utility.yul\":3595:3600   */\n      dup7\n        /* \"#utility.yul\":3591:3607   */\n      add\n        /* \"#utility.yul\":3556:3621   */\n      tag_205\n      jump\t// in\n    tag_298:\n        /* \"#utility.yul\":3646:3675   */\n      tag_299\n        /* \"#utility.yul\":3668:3674   */\n      dup2\n        /* \"#utility.yul\":3646:3675   */\n      tag_206\n      jump\t// in\n    tag_299:\n        /* \"#utility.yul\":3641:3644   */\n      dup5\n        /* \"#utility.yul\":3637:3676   */\n      add\n        /* \"#utility.yul\":3630:3676   */\n      swap2\n      pop\n        /* \"#utility.yul\":3399:3682   */\n      pop\n        /* \"#utility.yul\":3309:3682   */\n      swap3\n      swap2\n      pop\n      pop\n      jump\t// out\n        /* \"#utility.yul\":3688:3997   */\n    tag_46:\n        /* \"#utility.yul\":3799:3803   */\n      0x00\n        /* \"#utility.yul\":3837:3839   */\n      0x20\n        /* \"#utility.yul\":3826:3835   */\n      dup3\n        /* \"#utility.yul\":3822:3840   */\n      add\n        /* \"#utility.yul\":3814:3840   */\n      swap1\n      pop\n        /* \"#utility.yul\":3886:3895   */\n      dup2\n        /* \"#utility.yul\":3880:3884   */\n      dup2\n        /* \"#utility.yul\":3876:3896   */\n      sub\n        /* \"#utility.yul\":3872:3873   */\n      0x00\n        /* \"#utility.yul\":3861:3870   */\n      dup4\n        /* \"#utility.yul\":3857:3874   */\n      add\n        /* \"#utility.yul\":3850:3897   */\n      mstore\n        /* \"#utility.yul\":3914:3990   */\n      tag_301\n        /* \"#utility.yul\":3985:3989   */\n      dup2\n        /* \"#utility.yul\":3976:3982   */\n      dup5\n        /* \"#utility.yul\":3914:3990   */\n      tag_212\n      jump\t// in\n    tag_301:\n        /* \"#utility.yul\":3906:3990   */\n      swap1\n      pop\n        /* \"#utility.yul\":3688:3997   */\n      swap3\n      swap2\n      pop\n      pop\n      jump\t// out\n        /* \"#utility.yul\":4003:4213   */\n    tag_51:\n        /* \"#utility.yul\":4090:4094   */\n      0x00\n        /* \"#utility.yul\":4128:4130   */\n      0x20\n        /* \"#utility.yul\":4117:4126   */\n      dup3\n        /* \"#utility.yul\":4113:4131   */\n      add\n        /* \"#utility.yul\":4105:4131   */\n      swap1\n      pop\n        /* \"#utility.yul\":4141:4206   */\n      tag_303\n        /* \"#utility.yul\":4203:4204   */\n      0x00\n        /* \"#utility.yul\":4192:4201   */\n      dup4\n        /* \"#utility.yul\":4188:4205   */\n      add\n        /* \"#utility.yul\":4179:4185   */\n      dup5\n        /* \"#utility.yul\":4141:4206   */\n      tag_209\n      jump\t// in\n    tag_303:\n        /* \"#utility.yul\":4003:4213   */\n      swap3\n      swap2\n      pop\n      pop\n      jump\t// out\n        /* \"#utility.yul\":4219:4345   */\n    tag_213:\n        /* \"#utility.yul\":4256:4263   */\n      0x00\n        /* \"#utility.yul\":4296:4338   */\n      0xffffffffffffffffffffffffffffffffffffffff\n        /* \"#utility.yul\":4289:4294   */\n      dup3\n        /* \"#utility.yul\":4285:4339   */\n      and\n        /* \"#utility.yul\":4274:4339   */\n      swap1\n      pop\n        /* \"#utility.yul\":4219:4345   */\n      swap2\n      swap1\n      pop\n      jump\t// out\n        /* \"#utility.yul\":4351:4447   */\n    tag_214:\n        /* \"#utility.yul\":4388:4395   */\n      0x00\n        /* \"#utility.yul\":4417:4441   */\n      tag_306\n        /* \"#utility.yul\":4435:4440   */\n      dup3\n        /* \"#utility.yul\":4417:4441   */\n      tag_213\n      jump\t// in\n    tag_306:\n        /* \"#utility.yul\":4406:4441   */\n      swap1\n      pop\n        /* \"#utility.yul\":4351:4447   */\n      swap2\n      swap1\n      pop\n      jump\t// out\n        /* \"#utility.yul\":4453:4575   */\n    tag_215:\n        /* \"#utility.yul\":4526:4550   */\n      tag_308\n        /* \"#utility.yul\":4544:4549   */\n      dup2\n        /* \"#utility.yul\":4526:4550   */\n      tag_214\n      jump\t// in\n    tag_308:\n        /* \"#utility.yul\":4519:4524   */\n      dup2\n        /* \"#utility.yul\":4516:4551   */\n      eq\n        /* \"#utility.yul\":4506:4569   */\n      tag_309\n      jumpi\n        /* \"#utility.yul\":4565:4566   */\n      0x00\n        /* \"#utility.yul\":4562:4563   */\n      0x00\n        /* \"#utility.yul\":4555:4567   */\n      revert\n        /* \"#utility.yul\":4506:4569   */\n    tag_309:\n        /* \"#utility.yul\":4453:4575   */\n      pop\n      jump\t// out\n        /* \"#utility.yul\":4581:4720   */\n    tag_216:\n        /* \"#utility.yul\":4627:4632   */\n      0x00\n        /* \"#utility.yul\":4665:4671   */\n      dup2\n        /* \"#utility.yul\":4652:4672   */\n      calldataload\n        /* \"#utility.yul\":4643:4672   */\n      swap1\n      pop\n        /* \"#utility.yul\":4681:4714   */\n      tag_311\n        /* \"#utility.yul\":4708:4713   */\n      dup2\n        /* \"#utility.yul\":4681:4714   */\n      tag_215\n      jump\t// in\n    tag_311:\n        /* \"#utility.yul\":4581:4720   */\n      swap3\n      swap2\n      pop\n      pop\n      jump\t// out\n        /* \"#utility.yul\":4726:5200   */\n    tag_55:\n        /* \"#utility.yul\":4794:4800   */\n      0x00\n        /* \"#utility.yul\":4802:4808   */\n      0x00\n        /* \"#utility.yul\":4851:4853   */\n      0x40\n        /* \"#utility.yul\":4839:4848   */\n      dup4\n        /* \"#utility.yul\":4830:4837   */\n      dup6\n        /* \"#utility.yul\":4826:4849   */\n      sub\n        /* \"#utility.yul\":4822:4854   */\n      slt\n        /* \"#utility.yul\":4819:4938   */\n      iszero\n      tag_313\n      jumpi\n        /* \"#utility.yul\":4857:4936   */\n      tag_314\n      tag_199\n      jump\t// in\n    tag_314:\n        /* \"#utility.yul\":4819:4938   */\n    tag_313:\n        /* \"#utility.yul\":4977:4978   */\n      0x00\n        /* \"#utility.yul\":5002:5055   */\n      tag_315\n        /* \"#utility.yul\":5047:5054   */\n      dup6\n        /* \"#utility.yul\":5038:5044   */\n      dup3\n        /* \"#utility.yul\":5027:5036   */\n      dup7\n        /* \"#utility.yul\":5023:5045   */\n      add\n        /* \"#utility.yul\":5002:5055   */\n      tag_216\n      jump\t// in\n    tag_315:\n        /* \"#utility.yul\":4992:5055   */\n      swap3\n      pop\n        /* \"#utility.yul\":4948:5065   */\n      pop\n        /* \"#utility.yul\":5104:5106   */\n      0x20\n        /* \"#utility.yul\":5130:5183   */\n      tag_316\n        /* \"#utility.yul\":5175:5182   */\n      dup6\n        /* \"#utility.yul\":5166:5172   */\n      dup3\n        /* \"#utility.yul\":5155:5164   */\n      dup7\n        /* \"#utility.yul\":5151:5173   */\n      add\n        /* \"#utility.yul\":5130:5183   */\n      tag_202\n      jump\t// in\n    tag_316:\n        /* \"#utility.yul\":5120:5183   */\n      swap2\n      pop\n        /* \"#utility.yul\":5075:5193   */\n      pop\n        /* \"#utility.yul\":4726:5200   */\n      swap3\n      pop\n      swap3\n      swap1\n      pop\n      jump\t// out\n        /* \"#utility.yul\":5206:5314   */\n    tag_217:\n        /* \"#utility.yul\":5288:5289   */\n      0x03\n        /* \"#utility.yul\":5281:5286   */\n      dup2\n        /* \"#utility.yul\":5278:5290   */\n      lt\n        /* \"#utility.yul\":5268:5308   */\n      tag_318\n      jumpi\n        /* \"#utility.yul\":5304:5305   */\n      0x00\n        /* \"#utility.yul\":5301:5302   */\n      0x00\n        /* \"#utility.yul\":5294:5306   */\n      revert\n        /* \"#utility.yul\":5268:5308   */\n    tag_318:\n        /* \"#utility.yul\":5206:5314   */\n      pop\n      jump\t// out\n        /* \"#utility.yul\":5320:5477   */\n    tag_218:\n        /* \"#utility.yul\":5375:5380   */\n      0x00\n        /* \"#utility.yul\":5413:5419   */\n      dup2\n        /* \"#utility.yul\":5400:5420   */\n      calldataload\n        /* \"#utility.yul\":5391:5420   */\n      swap1\n      pop\n        /* \"#utility.yul\":5429:5471   */\n      tag_320\n        /* \"#utility.yul\":5465:5470   */\n      dup2\n        /* \"#utility.yul\":5429:5471   */\n      tag_217\n      jump\t// in\n    tag_320:\n        /* \"#utility.yul\":5320:5477   */\n      swap3\n      swap2\n      pop\n      pop\n      jump\t// out\n        /* \"#utility.yul\":5483:5830   */\n    tag_60:\n        /* \"#utility.yul\":5551:5557   */\n      0x00\n        /* \"#utility.yul\":5600:5602   */\n      0x20\n        /* \"#utility.yul\":5588:5597   */\n      dup3\n        /* \"#utility.yul\":5579:5586   */\n      dup5\n        /* \"#utility.yul\":5575:5598   */\n      sub\n        /* \"#utility.yul\":5571:5603   */\n      slt\n        /* \"#utility.yul\":5568:5687   */\n      iszero\n      tag_322\n      jumpi\n        /* \"#utility.yul\":5606:5685   */\n      tag_323\n      tag_199\n      jump\t// in\n    tag_323:\n        /* \"#utility.yul\":5568:5687   */\n    tag_322:\n        /* \"#utility.yul\":5726:5727   */\n      0x00\n        /* \"#utility.yul\":5751:5813   */\n      tag_324\n        /* \"#utility.yul\":5805:5812   */\n      dup5\n        /* \"#utility.yul\":5796:5802   */\n      dup3\n        /* \"#utility.yul\":5785:5794   */\n      dup6\n        /* \"#utility.yul\":5781:5803   */\n      add\n        /* \"#utility.yul\":5751:5813   */\n      tag_218\n      jump\t// in\n    tag_324:\n        /* \"#utility.yul\":5741:5813   */\n      swap2\n      pop\n        /* \"#utility.yul\":5697:5823   */\n      pop\n        /* \"#utility.yul\":5483:5830   */\n      swap3\n      swap2\n      pop\n      pop\n      jump\t// out\n        /* \"#utility.yul\":5836:5953   */\n    tag_219:\n        /* \"#utility.yul\":5945:5946   */\n      0x00\n        /* \"#utility.yul\":5942:5943   */\n      0x00\n        /* \"#utility.yul\":5935:5947   */\n      revert\n        /* \"#utility.yul\":5959:6076   */\n    tag_220:\n        /* \"#utility.yul\":6068:6069   */\n      0x00\n        /* \"#utility.yul\":6065:6066   */\n      0x00\n        /* \"#utility.yul\":6058:6070   */\n      revert\n        /* \"#utility.yul\":6082:6262   */\n    tag_221:\n        /* \"#utility.yul\":6130:6207   */\n      0x4e487b7100000000000000000000000000000000000000000000000000000000\n        /* \"#utility.yul\":6127:6128   */\n      0x00\n        /* \"#utility.yul\":6120:6208   */\n      mstore\n        /* \"#utility.yul\":6227:6231   */\n      0x41\n        /* \"#utility.yul\":6224:6225   */\n      0x04\n        /* \"#utility.yul\":6217:6232   */\n      mstore\n        /* \"#utility.yul\":6251:6255   */\n      0x24\n        /* \"#utility.yul\":6248:6249   */\n      0x00\n        /* \"#utility.yul\":6241:6256   */\n      revert\n        /* \"#utility.yul\":6268:6549   */\n    tag_222:\n        /* \"#utility.yul\":6351:6378   */\n      tag_329\n        /* \"#utility.yul\":6373:6377   */\n      dup3\n        /* \"#utility.yul\":6351:6378   */\n      tag_206\n      jump\t// in\n    tag_329:\n        /* \"#utility.yul\":6343:6349   */\n      dup2\n        /* \"#utility.yul\":6339:6379   */\n      add\n        /* \"#utility.yul\":6481:6487   */\n      dup2\n        /* \"#utility.yul\":6469:6479   */\n      dup2\n        /* \"#utility.yul\":6466:6488   */\n      lt\n        /* \"#utility.yul\":6445:6463   */\n      0xffffffffffffffff\n        /* \"#utility.yul\":6433:6443   */\n      dup3\n        /* \"#utility.yul\":6430:6464   */\n      gt\n        /* \"#utility.yul\":6427:6489   */\n      or\n        /* \"#utility.yul\":6424:6512   */\n      iszero\n      tag_330\n      jumpi\n        /* \"#utility.yul\":6492:6510   */\n      tag_331\n      tag_221\n      jump\t// in\n    tag_331:\n        /* \"#utility.yul\":6424:6512   */\n    tag_330:\n        /* \"#utility.yul\":6532:6542   */\n      dup1\n        /* \"#utility.yul\":6528:6530   */\n      0x40\n        /* \"#utility.yul\":6521:6543   */\n      mstore\n        /* \"#utility.yul\":6311:6549   */\n      pop\n        /* \"#utility.yul\":6268:6549   */\n      pop\n      pop\n      jump\t// out\n        /* \"#utility.yul\":6555:6684   */\n    tag_223:\n        /* \"#utility.yul\":6589:6595   */\n      0x00\n        /* \"#utility.yul\":6616:6636   */\n      tag_333\n      tag_198\n      jump\t// in\n    tag_333:\n        /* \"#utility.yul\":6606:6636   */\n      swap1\n      pop\n        /* \"#utility.yul\":6645:6678   */\n      tag_334\n        /* \"#utility.yul\":6673:6677   */\n      dup3\n        /* \"#utility.yul\":6665:6671   */\n      dup3\n        /* \"#utility.yul\":6645:6678   */\n      tag_222\n      jump\t// in\n    tag_334:\n        /* \"#utility.yul\":6555:6684   */\n      swap2\n      swap1\n      pop\n      jump\t// out\n        /* \"#utility.yul\":6690:6998   */\n    tag_224:\n        /* \"#utility.yul\":6752:6756   */\n      0x00\n        /* \"#utility.yul\":6842:6860   */\n      0xffffffffffffffff\n        /* \"#utility.yul\":6834:6840   */\n      dup3\n        /* \"#utility.yul\":6831:6861   */\n      gt\n        /* \"#utility.yul\":6828:6884   */\n      iszero\n      tag_336\n      jumpi\n        /* \"#utility.yul\":6864:6882   */\n      tag_337\n      tag_221\n      jump\t// in\n    tag_337:\n        /* \"#utility.yul\":6828:6884   */\n    tag_336:\n        /* \"#utility.yul\":6902:6931   */\n      tag_338\n        /* \"#utility.yul\":6924:6930   */\n      dup3\n        /* \"#utility.yul\":6902:6931   */\n      tag_206\n      jump\t// in\n    tag_338:\n        /* \"#utility.yul\":6894:6931   */\n      swap1\n      pop\n        /* \"#utility.yul\":6986:6990   */\n      0x20\n        /* \"#utility.yul\":6980:6984   */\n      dup2\n        /* \"#utility.yul\":6976:6991   */\n      add\n        /* \"#utility.yul\":6968:6991   */\n      swap1\n      pop\n        /* \"#utility.yul\":6690:6998   */\n      swap2\n      swap1\n      pop\n      jump\t// out\n        /* \"#utility.yul\":7004:7152   */\n    tag_225:\n        /* \"#utility.yul\":7102:7108   */\n      dup3\n        /* \"#utility.yul\":7097:7100   */\n      dup2\n        /* \"#utility.yul\":7092:7095   */\n      dup4\n        /* \"#utility.yul\":7079:7109   */\n      calldatacopy\n        /* \"#utility.yul\":7143:7144   */\n      0x00\n        /* \"#utility.yul\":7134:7140   */\n      dup4\n        /* \"#utility.yul\":7129:7132   */\n      dup4\n        /* \"#utility.yul\":7125:7141   */\n      add\n        /* \"#utility.yul\":7118:7145   */\n      mstore\n        /* \"#utility.yul\":7004:7152   */\n      pop\n      pop\n      pop\n      jump\t// out\n        /* \"#utility.yul\":7158:7583   */\n    tag_226:\n        /* \"#utility.yul\":7236:7241   */\n      0x00\n        /* \"#utility.yul\":7261:7327   */\n      tag_341\n        /* \"#utility.yul\":7277:7326   */\n      tag_342\n        /* \"#utility.yul\":7319:7325   */\n      dup5\n        /* \"#utility.yul\":7277:7326   */\n      tag_224\n      jump\t// in\n    tag_342:\n        /* \"#utility.yul\":7261:7327   */\n      tag_223\n      jump\t// in\n    tag_341:\n        /* \"#utility.yul\":7252:7327   */\n      swap1\n      pop\n        /* \"#utility.yul\":7350:7356   */\n      dup3\n        /* \"#utility.yul\":7343:7348   */\n      dup2\n        /* \"#utility.yul\":7336:7357   */\n      mstore\n        /* \"#utility.yul\":7388:7392   */\n      0x20\n        /* \"#utility.yul\":7381:7386   */\n      dup2\n        /* \"#utility.yul\":7377:7393   */\n      add\n        /* \"#utility.yul\":7426:7429   */\n      dup5\n        /* \"#utility.yul\":7417:7423   */\n      dup5\n        /* \"#utility.yul\":7412:7415   */\n      dup5\n        /* \"#utility.yul\":7408:7424   */\n      add\n        /* \"#utility.yul\":7405:7430   */\n      gt\n        /* \"#utility.yul\":7402:7514   */\n      iszero\n      tag_343\n      jumpi\n        /* \"#utility.yul\":7433:7512   */\n      tag_344\n      tag_220\n      jump\t// in\n    tag_344:\n        /* \"#utility.yul\":7402:7514   */\n    tag_343:\n        /* \"#utility.yul\":7523:7577   */\n      tag_345\n        /* \"#utility.yul\":7570:7576   */\n      dup5\n        /* \"#utility.yul\":7565:7568   */\n      dup3\n        /* \"#utility.yul\":7560:7563   */\n      dup6\n        /* \"#utility.yul\":7523:7577   */\n      tag_225\n      jump\t// in\n    tag_345:\n        /* \"#utility.yul\":7242:7583   */\n      pop\n        /* \"#utility.yul\":7158:7583   */\n      swap4\n      swap3\n      pop\n      pop\n      pop\n      jump\t// out\n        /* \"#utility.yul\":7603:7943   */\n    tag_227:\n        /* \"#utility.yul\":7659:7664   */\n      0x00\n        /* \"#utility.yul\":7708:7711   */\n      dup3\n        /* \"#utility.yul\":7701:7705   */\n      0x1f\n        /* \"#utility.yul\":7693:7699   */\n      dup4\n        /* \"#utility.yul\":7689:7706   */\n      add\n        /* \"#utility.yul\":7685:7712   */\n      slt\n        /* \"#utility.yul\":7675:7797   */\n      tag_347\n      jumpi\n        /* \"#utility.yul\":7716:7795   */\n      tag_348\n      tag_219\n      jump\t// in\n    tag_348:\n        /* \"#utility.yul\":7675:7797   */\n    tag_347:\n        /* \"#utility.yul\":7833:7839   */\n      dup2\n        /* \"#utility.yul\":7820:7840   */\n      calldataload\n        /* \"#utility.yul\":7858:7937   */\n      tag_349\n        /* \"#utility.yul\":7933:7936   */\n      dup5\n        /* \"#utility.yul\":7925:7931   */\n      dup3\n        /* \"#utility.yul\":7918:7922   */\n      0x20\n        /* \"#utility.yul\":7910:7916   */\n      dup7\n        /* \"#utility.yul\":7906:7923   */\n      add\n        /* \"#utility.yul\":7858:7937   */\n      tag_226\n      jump\t// in\n    tag_349:\n        /* \"#utility.yul\":7849:7937   */\n      swap2\n      pop\n        /* \"#utility.yul\":7665:7943   */\n      pop\n        /* \"#utility.yul\":7603:7943   */\n      swap3\n      swap2\n      pop\n      pop\n      jump\t// out\n        /* \"#utility.yul\":7949:8603   */\n    tag_65:\n        /* \"#utility.yul\":8027:8033   */\n      0x00\n        /* \"#utility.yul\":8035:8041   */\n      0x00\n        /* \"#utility.yul\":8084:8086   */\n      0x40\n        /* \"#utility.yul\":8072:8081   */\n      dup4\n        /* \"#utility.yul\":8063:8070   */\n      dup6\n        /* \"#utility.yul\":8059:8082   */\n      sub\n        /* \"#utility.yul\":8055:8087   */\n      slt\n        /* \"#utility.yul\":8052:8171   */\n      iszero\n      tag_351\n      jumpi\n        /* \"#utility.yul\":8090:8169   */\n      tag_352\n      tag_199\n      jump\t// in\n    tag_352:\n        /* \"#utility.yul\":8052:8171   */\n    tag_351:\n        /* \"#utility.yul\":8238:8239   */\n      0x00\n        /* \"#utility.yul\":8227:8236   */\n      dup4\n        /* \"#utility.yul\":8223:8240   */\n      add\n        /* \"#utility.yul\":8210:8241   */\n      calldataload\n        /* \"#utility.yul\":8268:8286   */\n      0xffffffffffffffff\n        /* \"#utility.yul\":8260:8266   */\n      dup2\n        /* \"#utility.yul\":8257:8287   */\n      gt\n        /* \"#utility.yul\":8254:8371   */\n      iszero\n      tag_353\n      jumpi\n        /* \"#utility.yul\":8290:8369   */\n      tag_354\n      tag_200\n      jump\t// in\n    tag_354:\n        /* \"#utility.yul\":8254:8371   */\n    tag_353:\n        /* \"#utility.yul\":8395:8458   */\n      tag_355\n        /* \"#utility.yul\":8450:8457   */\n      dup6\n        /* \"#utility.yul\":8441:8447   */\n      dup3\n        /* \"#utility.yul\":8430:8439   */\n      dup7\n        /* \"#utility.yul\":8426:8448   */\n      add\n        /* \"#utility.yul\":8395:8458   */\n      tag_227\n      jump\t// in\n    tag_355:\n        /* \"#utility.yul\":8385:8458   */\n      swap3\n      pop\n        /* \"#utility.yul\":8181:8468   */\n      pop\n        /* \"#utility.yul\":8507:8509   */\n      0x20\n        /* \"#utility.yul\":8533:8586   */\n      tag_356\n        /* \"#utility.yul\":8578:8585   */\n      dup6\n        /* \"#utility.yul\":8569:8575   */\n      dup3\n        /* \"#utility.yul\":8558:8567   */\n      dup7\n        /* \"#utility.yul\":8554:8576   */\n      add\n        /* \"#utility.yul\":8533:8586   */\n      tag_202\n      jump\t// in\n    tag_356:\n        /* \"#utility.yul\":8523:8586   */\n      swap2\n      pop\n        /* \"#utility.yul\":8478:8596   */\n      pop\n        /* \"#utility.yul\":7949:8603   */\n      swap3\n      pop\n      swap3\n      swap1\n      pop\n      jump\t// out\n        /* \"#utility.yul\":8609:8916   */\n    tag_228:\n        /* \"#utility.yul\":8670:8674   */\n      0x00\n        /* \"#utility.yul\":8760:8778   */\n      0xffffffffffffffff\n        /* \"#utility.yul\":8752:8758   */\n      dup3\n        /* \"#utility.yul\":8749:8779   */\n      gt\n        /* \"#utility.yul\":8746:8802   */\n      iszero\n      tag_358\n      jumpi\n        /* \"#utility.yul\":8782:8800   */\n      tag_359\n      tag_221\n      jump\t// in\n    tag_359:\n        /* \"#utility.yul\":8746:8802   */\n    tag_358:\n        /* \"#utility.yul\":8820:8849   */\n      tag_360\n        /* \"#utility.yul\":8842:8848   */\n      dup3\n        /* \"#utility.yul\":8820:8849   */\n      tag_206\n      jump\t// in\n    tag_360:\n        /* \"#utility.yul\":8812:8849   */\n      swap1\n      pop\n        /* \"#utility.yul\":8904:8908   */\n      0x20\n        /* \"#utility.yul\":8898:8902   */\n      dup2\n        /* \"#utility.yul\":8894:8909   */\n      add\n        /* \"#utility.yul\":8886:8909   */\n      swap1\n      pop\n        /* \"#utility.yul\":8609:8916   */\n      swap2\n      swap1\n      pop\n      jump\t// out\n        /* \"#utility.yul\":8922:9345   */\n    tag_229:\n        /* \"#utility.yul\":8999:9004   */\n      0x00\n        /* \"#utility.yul\":9024:9089   */\n      tag_362\n        /* \"#utility.yul\":9040:9088   */\n      tag_363\n        /* \"#utility.yul\":9081:9087   */\n      dup5\n        /* \"#utility.yul\":9040:9088   */\n      tag_228\n      jump\t// in\n    tag_363:\n        /* \"#utility.yul\":9024:9089   */\n      tag_223\n      jump\t// in\n    tag_362:\n        /* \"#utility.yul\":9015:9089   */\n      swap1\n      pop\n        /* \"#utility.yul\":9112:9118   */\n      dup3\n        /* \"#utility.yul\":9105:9110   */\n      dup2\n        /* \"#utility.yul\":9098:9119   */\n      mstore\n        /* \"#utility.yul\":9150:9154   */\n      0x20\n        /* \"#utility.yul\":9143:9148   */\n      dup2\n        /* \"#utility.yul\":9139:9155   */\n      add\n        /* \"#utility.yul\":9188:9191   */\n      dup5\n        /* \"#utility.yul\":9179:9185   */\n      dup5\n        /* \"#utility.yul\":9174:9177   */\n      dup5\n        /* \"#utility.yul\":9170:9186   */\n      add\n        /* \"#utility.yul\":9167:9192   */\n      gt\n        /* \"#utility.yul\":9164:9276   */\n      iszero\n      tag_364\n      jumpi\n        /* \"#utility.yul\":9195:9274   */\n      tag_365\n      tag_220\n      jump\t// in\n    tag_365:\n        /* \"#utility.yul\":9164:9276   */\n    tag_364:\n        /* \"#utility.yul\":9285:9339   */\n      tag_366\n        /* \"#utility.yul\":9332:9338   */\n      dup5\n        /* \"#utility.yul\":9327:9330   */\n      dup3\n        /* \"#utility.yul\":9322:9325   */\n      dup6\n        /* \"#utility.yul\":9285:9339   */\n      tag_225\n      jump\t// in\n    tag_366:\n        /* \"#utility.yul\":9005:9345   */\n      pop\n        /* \"#utility.yul\":8922:9345   */\n      swap4\n      swap3\n      pop\n      pop\n      pop\n      jump\t// out\n        /* \"#utility.yul\":9364:9702   */\n    tag_230:\n        /* \"#utility.yul\":9419:9424   */\n      0x00\n        /* \"#utility.yul\":9468:9471   */\n      dup3\n        /* \"#utility.yul\":9461:9465   */\n      0x1f\n        /* \"#utility.yul\":9453:9459   */\n      dup4\n        /* \"#utility.yul\":9449:9466   */\n      add\n        /* \"#utility.yul\":9445:9472   */\n      slt\n        /* \"#utility.yul\":9435:9557   */\n      tag_368\n      jumpi\n        /* \"#utility.yul\":9476:9555   */\n      tag_369\n      tag_219\n      jump\t// in\n    tag_369:\n        /* \"#utility.yul\":9435:9557   */\n    tag_368:\n        /* \"#utility.yul\":9593:9599   */\n      dup2\n        /* \"#utility.yul\":9580:9600   */\n      calldataload\n        /* \"#utility.yul\":9618:9696   */\n      tag_370\n        /* \"#utility.yul\":9692:9695   */\n      dup5\n        /* \"#utility.yul\":9684:9690   */\n      dup3\n        /* \"#utility.yul\":9677:9681   */\n      0x20\n        /* \"#utility.yul\":9669:9675   */\n      dup7\n        /* \"#utility.yul\":9665:9682   */\n      add\n        /* \"#utility.yul\":9618:9696   */\n      tag_229\n      jump\t// in\n    tag_370:\n        /* \"#utility.yul\":9609:9696   */\n      swap2\n      pop\n        /* \"#utility.yul\":9425:9702   */\n      pop\n        /* \"#utility.yul\":9364:9702   */\n      swap3\n      swap2\n      pop\n      pop\n      jump\t// out\n        /* \"#utility.yul\":9708:10215   */\n    tag_70:\n        /* \"#utility.yul\":9776:9782   */\n      0x00\n        /* \"#utility.yul\":9825:9827   */\n      0x20\n        /* \"#utility.yul\":9813:9822   */\n      dup3\n        /* \"#utility.yul\":9804:9811   */\n      dup5\n        /* \"#utility.yul\":9800:9823   */\n      sub\n        /* \"#utility.yul\":9796:9828   */\n      slt\n        /* \"#utility.yul\":9793:9912   */\n      iszero\n      tag_372\n      jumpi\n        /* \"#utility.yul\":9831:9910   */\n      tag_373\n      tag_199\n      jump\t// in\n    tag_373:\n        /* \"#utility.yul\":9793:9912   */\n    tag_372:\n        /* \"#utility.yul\":9979:9980   */\n      0x00\n        /* \"#utility.yul\":9968:9977   */\n      dup3\n        /* \"#utility.yul\":9964:9981   */\n      add\n        /* \"#utility.yul\":9951:9982   */\n      calldataload\n        /* \"#utility.yul\":10009:10027   */\n      0xffffffffffffffff\n        /* \"#utility.yul\":10001:10007   */\n      dup2\n        /* \"#utility.yul\":9998:10028   */\n      gt\n        /* \"#utility.yul\":9995:10112   */\n      iszero\n      tag_374\n      jumpi\n        /* \"#utility.yul\":10031:10110   */\n      tag_375\n      tag_200\n      jump\t// in\n    tag_375:\n        /* \"#utility.yul\":9995:10112   */\n    tag_374:\n        /* \"#utility.yul\":10136:10198   */\n      tag_376\n        /* \"#utility.yul\":10190:10197   */\n      dup5\n        /* \"#utility.yul\":10181:10187   */\n      dup3\n        /* \"#utility.yul\":10170:10179   */\n      dup6\n        /* \"#utility.yul\":10166:10188   */\n      add\n        /* \"#utility.yul\":10136:10198   */\n      tag_230\n      jump\t// in\n    tag_376:\n        /* \"#utility.yul\":10126:10198   */\n      swap2\n      pop\n        /* \"#utility.yul\":9922:10208   */\n      pop\n        /* \"#utility.yul\":9708:10215   */\n      swap3\n      swap2\n      pop\n      pop\n      jump\t// out\n        /* \"#utility.yul\":10221:10534   */\n    tag_84:\n        /* \"#utility.yul\":10334:10338   */\n      0x00\n        /* \"#utility.yul\":10372:10374   */\n      0x20\n        /* \"#utility.yul\":10361:10370   */\n      dup3\n        /* \"#utility.yul\":10357:10375   */\n      add\n        /* \"#utility.yul\":10349:10375   */\n      swap1\n      pop\n        /* \"#utility.yul\":10421:10430   */\n      dup2\n        /* \"#utility.yul\":10415:10419   */\n      dup2\n        /* \"#utility.yul\":10411:10431   */\n      sub\n        /* \"#utility.yul\":10407:10408   */\n      0x00\n        /* \"#utility.yul\":10396:10405   */\n      dup4\n        /* \"#utility.yul\":10392:10409   */\n      add\n        /* \"#utility.yul\":10385:10432   */\n      mstore\n        /* \"#utility.yul\":10449:10527   */\n      tag_378\n        /* \"#utility.yul\":10522:10526   */\n      dup2\n        /* \"#utility.yul\":10513:10519   */\n      dup5\n        /* \"#utility.yul\":10449:10527   */\n      tag_207\n      jump\t// in\n    tag_378:\n        /* \"#utility.yul\":10441:10527   */\n      swap1\n      pop\n        /* \"#utility.yul\":10221:10534   */\n      swap3\n      swap2\n      pop\n      pop\n      jump\t// out\n        /* \"#utility.yul\":10540:11014   */\n    tag_88:\n        /* \"#utility.yul\":10608:10614   */\n      0x00\n        /* \"#utility.yul\":10616:10622   */\n      0x00\n        /* \"#utility.yul\":10665:10667   */\n      0x40\n        /* \"#utility.yul\":10653:10662   */\n      dup4\n        /* \"#utility.yul\":10644:10651   */\n      dup6\n        /* \"#utility.yul\":10640:10663   */\n      sub\n        /* \"#utility.yul\":10636:10668   */\n      slt\n        /* \"#utility.yul\":10633:10752   */\n      iszero\n      tag_380\n      jumpi\n        /* \"#utility.yul\":10671:10750   */\n      tag_381\n      tag_199\n      jump\t// in\n    tag_381:\n        /* \"#utility.yul\":10633:10752   */\n    tag_380:\n        /* \"#utility.yul\":10791:10792   */\n      0x00\n        /* \"#utility.yul\":10816:10869   */\n      tag_382\n        /* \"#utility.yul\":10861:10868   */\n      dup6\n        /* \"#utility.yul\":10852:10858   */\n      dup3\n        /* \"#utility.yul\":10841:10850   */\n      dup7\n        /* \"#utility.yul\":10837:10859   */\n      add\n        /* \"#utility.yul\":10816:10869   */\n      tag_202\n      jump\t// in\n    tag_382:\n        /* \"#utility.yul\":10806:10869   */\n      swap3\n      pop\n        /* \"#utility.yul\":10762:10879   */\n      pop\n        /* \"#utility.yul\":10918:10920   */\n      0x20\n        /* \"#utility.yul\":10944:10997   */\n      tag_383\n        /* \"#utility.yul\":10989:10996   */\n      dup6\n        /* \"#utility.yul\":10980:10986   */\n      dup3\n        /* \"#utility.yul\":10969:10978   */\n      dup7\n        /* \"#utility.yul\":10965:10987   */\n      add\n        /* \"#utility.yul\":10944:10997   */\n      tag_202\n      jump\t// in\n    tag_383:\n        /* \"#utility.yul\":10934:10997   */\n      swap2\n      pop\n        /* \"#utility.yul\":10889:11007   */\n      pop\n        /* \"#utility.yul\":10540:11014   */\n      swap3\n      pop\n      swap3\n      swap1\n      pop\n      jump\t// out\n        /* \"#utility.yul\":11020:11138   */\n    tag_231:\n        /* \"#utility.yul\":11107:11131   */\n      tag_385\n        /* \"#utility.yul\":11125:11130   */\n      dup2\n        /* \"#utility.yul\":11107:11131   */\n      tag_214\n      jump\t// in\n    tag_385:\n        /* \"#utility.yul\":11102:11105   */\n      dup3\n        /* \"#utility.yul\":11095:11132   */\n      mstore\n        /* \"#utility.yul\":11020:11138   */\n      pop\n      pop\n      jump\t// out\n        /* \"#utility.yul\":11144:11366   */\n    tag_99:\n        /* \"#utility.yul\":11237:11241   */\n      0x00\n        /* \"#utility.yul\":11275:11277   */\n      0x20\n        /* \"#utility.yul\":11264:11273   */\n      dup3\n        /* \"#utility.yul\":11260:11278   */\n      add\n        /* \"#utility.yul\":11252:11278   */\n      swap1\n      pop\n        /* \"#utility.yul\":11288:11359   */\n      tag_387\n        /* \"#utility.yul\":11356:11357   */\n      0x00\n        /* \"#utility.yul\":11345:11354   */\n      dup4\n        /* \"#utility.yul\":11341:11358   */\n      add\n        /* \"#utility.yul\":11332:11338   */\n      dup5\n        /* \"#utility.yul\":11288:11359   */\n      tag_231\n      jump\t// in\n    tag_387:\n        /* \"#utility.yul\":11144:11366   */\n      swap3\n      swap2\n      pop\n      pop\n      jump\t// out\n        /* \"#utility.yul\":11372:11552   */\n    tag_155:\n        /* \"#utility.yul\":11420:11497   */\n      0x4e487b7100000000000000000000000000000000000000000000000000000000\n        /* \"#utility.yul\":11417:11418   */\n      0x00\n        /* \"#utility.yul\":11410:11498   */\n      mstore\n        /* \"#utility.yul\":11517:11521   */\n      0x21\n        /* \"#utility.yul\":11514:11515   */\n      0x04\n        /* \"#utility.yul\":11507:11522   */\n      mstore\n        /* \"#utility.yul\":11541:11545   */\n      0x24\n        /* \"#utility.yul\":11538:11539   */\n      0x00\n        /* \"#utility.yul\":11531:11546   */\n      revert\n        /* \"#utility.yul\":11558:11672   */\n    tag_232:\n        /* \"#utility.yul\":11640:11641   */\n      0x03\n        /* \"#utility.yul\":11633:11638   */\n      dup2\n        /* \"#utility.yul\":11630:11642   */\n      lt\n        /* \"#utility.yul\":11620:11666   */\n      tag_390\n      jumpi\n        /* \"#utility.yul\":11646:11664   */\n      tag_391\n      tag_155\n      jump\t// in\n    tag_391:\n        /* \"#utility.yul\":11620:11666   */\n    tag_390:\n        /* \"#utility.yul\":11558:11672   */\n      pop\n      jump\t// out\n        /* \"#utility.yul\":11678:11807   */\n    tag_233:\n        /* \"#utility.yul\":11724:11731   */\n      0x00\n        /* \"#utility.yul\":11753:11758   */\n      dup2\n        /* \"#utility.yul\":11742:11758   */\n      swap1\n      pop\n        /* \"#utility.yul\":11759:11801   */\n      tag_393\n        /* \"#utility.yul\":11795:11800   */\n      dup3\n        /* \"#utility.yul\":11759:11801   */\n      tag_232\n      jump\t// in\n    tag_393:\n        /* \"#utility.yul\":11678:11807   */\n      swap2\n      swap1\n      pop\n      jump\t// out\n        /* \"#utility.yul\":11813:11942   */\n    tag_234:\n        /* \"#utility.yul\":11870:11879   */\n      0x00\n        /* \"#utility.yul\":11903:11936   */\n      tag_395\n        /* \"#utility.yul\":11930:11935   */\n      dup3\n        /* \"#utility.yul\":11903:11936   */\n      tag_233\n      jump\t// in\n    tag_395:\n        /* \"#utility.yul\":11890:11936   */\n      swap1\n      pop\n        /* \"#utility.yul\":11813:11942   */\n      swap2\n      swap1\n      pop\n      jump\t// out\n        /* \"#utility.yul\":11948:12093   */\n    tag_235:\n        /* \"#utility.yul\":12042:12086   */\n      tag_397\n        /* \"#utility.yul\":12080:12085   */\n      dup2\n        /* \"#utility.yul\":12042:12086   */\n      tag_234\n      jump\t// in\n    tag_397:\n        /* \"#utility.yul\":12037:12040   */\n      dup3\n        /* \"#utility.yul\":12030:12087   */\n      mstore\n        /* \"#utility.yul\":11948:12093   */\n      pop\n      pop\n      jump\t// out\n        /* \"#utility.yul\":12099:12335   */\n    tag_114:\n        /* \"#utility.yul\":12199:12203   */\n      0x00\n        /* \"#utility.yul\":12237:12239   */\n      0x20\n        /* \"#utility.yul\":12226:12235   */\n      dup3\n        /* \"#utility.yul\":12222:12240   */\n      add\n        /* \"#utility.yul\":12214:12240   */\n      swap1\n      pop\n        /* \"#utility.yul\":12250:12328   */\n      tag_399\n        /* \"#utility.yul\":12325:12326   */\n      0x00\n        /* \"#utility.yul\":12314:12323   */\n      dup4\n        /* \"#utility.yul\":12310:12327   */\n      add\n        /* \"#utility.yul\":12301:12307   */\n      dup5\n        /* \"#utility.yul\":12250:12328   */\n      tag_235\n      jump\t// in\n    tag_399:\n        /* \"#utility.yul\":12099:12335   */\n      swap3\n      swap2\n      pop\n      pop\n      jump\t// out\n        /* \"#utility.yul\":12341:12850   */\n    tag_120:\n        /* \"#utility.yul\":12410:12416   */\n      0x00\n        /* \"#utility.yul\":12459:12461   */\n      0x20\n        /* \"#utility.yul\":12447:12456   */\n      dup3\n        /* \"#utility.yul\":12438:12445   */\n      dup5\n        /* \"#utility.yul\":12434:12457   */\n      sub\n        /* \"#utility.yul\":12430:12462   */\n      slt\n        /* \"#utility.yul\":12427:12546   */\n      iszero\n      tag_401\n      jumpi\n        /* \"#utility.yul\":12465:12544   */\n      tag_402\n      tag_199\n      jump\t// in\n    tag_402:\n        /* \"#utility.yul\":12427:12546   */\n    tag_401:\n        /* \"#utility.yul\":12613:12614   */\n      0x00\n        /* \"#utility.yul\":12602:12611   */\n      dup3\n        /* \"#utility.yul\":12598:12615   */\n      add\n        /* \"#utility.yul\":12585:12616   */\n      calldataload\n        /* \"#utility.yul\":12643:12661   */\n      0xffffffffffffffff\n        /* \"#utility.yul\":12635:12641   */\n      dup2\n        /* \"#utility.yul\":12632:12662   */\n      gt\n        /* \"#utility.yul\":12629:12746   */\n      iszero\n      tag_403\n      jumpi\n        /* \"#utility.yul\":12665:12744   */\n      tag_404\n      tag_200\n      jump\t// in\n    tag_404:\n        /* \"#utility.yul\":12629:12746   */\n    tag_403:\n        /* \"#utility.yul\":12770:12833   */\n      tag_405\n        /* \"#utility.yul\":12825:12832   */\n      dup5\n        /* \"#utility.yul\":12816:12822   */\n      dup3\n        /* \"#utility.yul\":12805:12814   */\n      dup6\n        /* \"#utility.yul\":12801:12823   */\n      add\n        /* \"#utility.yul\":12770:12833   */\n      tag_227\n      jump\t// in\n    tag_405:\n        /* \"#utility.yul\":12760:12833   */\n      swap2\n      pop\n        /* \"#utility.yul\":12556:12843   */\n      pop\n        /* \"#utility.yul\":12341:12850   */\n      swap3\n      swap2\n      pop\n      pop\n      jump\t// out\n        /* \"#utility.yul\":12856:13171   */\n    tag_236:\n        /* \"#utility.yul\":12996:13062   */\n      0xd09ed186d0b5d0bdd0bad0b020d0bdd0b520d0bcd0bed0b6d0b5d18220d0bfd1\n        /* \"#utility.yul\":12992:12993   */\n      0x00\n        /* \"#utility.yul\":12984:12990   */\n      dup3\n        /* \"#utility.yul\":12980:12994   */\n      add\n        /* \"#utility.yul\":12973:13063   */\n      mstore\n        /* \"#utility.yul\":13097:13163   */\n      0x80d0b5d0b2d18bd181d0b8d182d18c2031303020d0b1d0b0d0bbd0bbd0bed0b2\n        /* \"#utility.yul\":13092:13094   */\n      0x20\n        /* \"#utility.yul\":13084:13090   */\n      dup3\n        /* \"#utility.yul\":13080:13095   */\n      add\n        /* \"#utility.yul\":13073:13164   */\n      mstore\n        /* \"#utility.yul\":12856:13171   */\n      pop\n      jump\t// out\n        /* \"#utility.yul\":13177:13543   */\n    tag_237:\n        /* \"#utility.yul\":13319:13322   */\n      0x00\n        /* \"#utility.yul\":13340:13407   */\n      tag_408\n        /* \"#utility.yul\":13404:13406   */\n      0x40\n        /* \"#utility.yul\":13399:13402   */\n      dup4\n        /* \"#utility.yul\":13340:13407   */\n      tag_204\n      jump\t// in\n    tag_408:\n        /* \"#utility.yul\":13333:13407   */\n      swap2\n      pop\n        /* \"#utility.yul\":13416:13509   */\n      tag_409\n        /* \"#utility.yul\":13505:13508   */\n      dup3\n        /* \"#utility.yul\":13416:13509   */\n      tag_236\n      jump\t// in\n    tag_409:\n        /* \"#utility.yul\":13534:13536   */\n      0x40\n        /* \"#utility.yul\":13529:13532   */\n      dup3\n        /* \"#utility.yul\":13525:13537   */\n      add\n        /* \"#utility.yul\":13518:13537   */\n      swap1\n      pop\n        /* \"#utility.yul\":13177:13543   */\n      swap2\n      swap1\n      pop\n      jump\t// out\n        /* \"#utility.yul\":13549:13968   */\n    tag_131:\n        /* \"#utility.yul\":13715:13719   */\n      0x00\n        /* \"#utility.yul\":13753:13755   */\n      0x20\n        /* \"#utility.yul\":13742:13751   */\n      dup3\n        /* \"#utility.yul\":13738:13756   */\n      add\n        /* \"#utility.yul\":13730:13756   */\n      swap1\n      pop\n        /* \"#utility.yul\":13802:13811   */\n      dup2\n        /* \"#utility.yul\":13796:13800   */\n      dup2\n        /* \"#utility.yul\":13792:13812   */\n      sub\n        /* \"#utility.yul\":13788:13789   */\n      0x00\n        /* \"#utility.yul\":13777:13786   */\n      dup4\n        /* \"#utility.yul\":13773:13790   */\n      add\n        /* \"#utility.yul\":13766:13813   */\n      mstore\n        /* \"#utility.yul\":13830:13961   */\n      tag_411\n        /* \"#utility.yul\":13956:13960   */\n      dup2\n        /* \"#utility.yul\":13830:13961   */\n      tag_237\n      jump\t// in\n    tag_411:\n        /* \"#utility.yul\":13822:13961   */\n      swap1\n      pop\n        /* \"#utility.yul\":13549:13968   */\n      swap2\n      swap1\n      pop\n      jump\t// out\n        /* \"#utility.yul\":13974:14154   */\n    tag_136:\n        /* \"#utility.yul\":14022:14099   */\n      0x4e487b7100000000000000000000000000000000000000000000000000000000\n        /* \"#utility.yul\":14019:14020   */\n      0x00\n        /* \"#utility.yul\":14012:14100   */\n      mstore\n        /* \"#utility.yul\":14119:14123   */\n      0x32\n        /* \"#utility.yul\":14116:14117   */\n      0x04\n        /* \"#utility.yul\":14109:14124   */\n      mstore\n        /* \"#utility.yul\":14143:14147   */\n      0x24\n        /* \"#utility.yul\":14140:14141   */\n      0x00\n        /* \"#utility.yul\":14133:14148   */\n      revert\n        /* \"#utility.yul\":14160:14340   */\n    tag_238:\n        /* \"#utility.yul\":14208:14285   */\n      0x4e487b7100000000000000000000000000000000000000000000000000000000\n        /* \"#utility.yul\":14205:14206   */\n      0x00\n        /* \"#utility.yul\":14198:14286   */\n      mstore\n        /* \"#utility.yul\":14305:14309   */\n      0x22\n        /* \"#utility.yul\":14302:14303   */\n      0x04\n        /* \"#utility.yul\":14295:14310   */\n      mstore\n        /* \"#utility.yul\":14329:14333   */\n      0x24\n        /* \"#utility.yul\":14326:14327   */\n      0x00\n        /* \"#utility.yul\":14319:14334   */\n      revert\n        /* \"#utility.yul\":14346:14666   */\n    tag_139:\n        /* \"#utility.yul\":14390:14396   */\n      0x00\n        /* \"#utility.yul\":14427:14428   */\n      0x02\n        /* \"#utility.yul\":14421:14425   */\n      dup3\n        /* \"#utility.yul\":14417:14429   */\n      div\n        /* \"#utility.yul\":14407:14429   */\n      swap1\n      pop\n        /* \"#utility.yul\":14474:14475   */\n      0x01\n        /* \"#utility.yul\":14468:14472   */\n      dup3\n        /* \"#utility.yul\":14464:14476   */\n      and\n        /* \"#utility.yul\":14495:14513   */\n      dup1\n        /* \"#utility.yul\":14485:14566   */\n      tag_415\n      jumpi\n        /* \"#utility.yul\":14551:14555   */\n      0x7f\n        /* \"#utility.yul\":14543:14549   */\n      dup3\n        /* \"#utility.yul\":14539:14556   */\n      and\n        /* \"#utility.yul\":14529:14556   */\n      swap2\n      pop\n        /* \"#utility.yul\":14485:14566   */\n    tag_415:\n        /* \"#utility.yul\":14613:14615   */\n      0x20\n        /* \"#utility.yul\":14605:14611   */\n      dup3\n        /* \"#utility.yul\":14602:14616   */\n      lt\n        /* \"#utility.yul\":14582:14600   */\n      dup2\n        /* \"#utility.yul\":14579:14617   */\n      sub\n        /* \"#utility.yul\":14576:14660   */\n      tag_416\n      jumpi\n        /* \"#utility.yul\":14632:14650   */\n      tag_417\n      tag_238\n      jump\t// in\n    tag_417:\n        /* \"#utility.yul\":14576:14660   */\n    tag_416:\n        /* \"#utility.yul\":14397:14666   */\n      pop\n        /* \"#utility.yul\":14346:14666   */\n      swap2\n      swap1\n      pop\n      jump\t// out\n        /* \"#utility.yul\":14672:14813   */\n    tag_239:\n        /* \"#utility.yul\":14721:14725   */\n      0x00\n        /* \"#utility.yul\":14744:14747   */\n      dup2\n        /* \"#utility.yul\":14736:14747   */\n      swap1\n      pop\n        /* \"#utility.yul\":14767:14770   */\n      dup2\n        /* \"#utility.yul\":14764:14765   */\n      0x00\n        /* \"#utility.yul\":14757:14771   */\n      mstore\n        /* \"#utility.yul\":14801:14805   */\n      0x20\n        /* \"#utility.yul\":14798:14799   */\n      0x00\n        /* \"#utility.yul\":14788:14806   */\n      keccak256\n        /* \"#utility.yul\":14780:14806   */\n      swap1\n      pop\n        /* \"#utility.yul\":14672:14813   */\n      swap2\n      swap1\n      pop\n      jump\t// out\n        /* \"#utility.yul\":14819:14912   */\n    tag_240:\n        /* \"#utility.yul\":14856:14862   */\n      0x00\n        /* \"#utility.yul\":14903:14905   */\n      0x20\n        /* \"#utility.yul\":14898:14900   */\n      0x1f\n        /* \"#utility.yul\":14891:14896   */\n      dup4\n        /* \"#utility.yul\":14887:14901   */\n      add\n        /* \"#utility.yul\":14883:14906   */\n      div\n        /* \"#utility.yul\":14873:14906   */\n      swap1\n      pop\n        /* \"#utility.yul\":14819:14912   */\n      swap2\n      swap1\n      pop\n      jump\t// out\n        /* \"#utility.yul\":14918:15025   */\n    tag_241:\n        /* \"#utility.yul\":14962:14970   */\n      0x00\n        /* \"#utility.yul\":15012:15017   */\n      dup3\n        /* \"#utility.yul\":15006:15010   */\n      dup3\n        /* \"#utility.yul\":15002:15018   */\n      shl\n        /* \"#utility.yul\":14981:15018   */\n      swap1\n      pop\n        /* \"#utility.yul\":14918:15025   */\n      swap3\n      swap2\n      pop\n      pop\n      jump\t// out\n        /* \"#utility.yul\":15031:15424   */\n    tag_242:\n        /* \"#utility.yul\":15100:15106   */\n      0x00\n        /* \"#utility.yul\":15150:15151   */\n      0x08\n        /* \"#utility.yul\":15138:15148   */\n      dup4\n        /* \"#utility.yul\":15134:15152   */\n      mul\n        /* \"#utility.yul\":15173:15270   */\n      tag_422\n        /* \"#utility.yul\":15203:15269   */\n      0xffffffffffffffffffffffffffffffffffffffffffffffffffffffffffffffff\n        /* \"#utility.yul\":15192:15201   */\n      dup3\n        /* \"#utility.yul\":15173:15270   */\n      tag_241\n      jump\t// in\n    tag_422:\n        /* \"#utility.yul\":15291:15330   */\n      tag_423\n        /* \"#utility.yul\":15321:15329   */\n      dup7\n        /* \"#utility.yul\":15310:15319   */\n      dup4\n        /* \"#utility.yul\":15291:15330   */\n      tag_241\n      jump\t// in\n    tag_423:\n        /* \"#utility.yul\":15279:15330   */\n      swap6\n      pop\n        /* \"#utility.yul\":15363:15367   */\n      dup1\n        /* \"#utility.yul\":15359:15368   */\n      not\n        /* \"#utility.yul\":15352:15357   */\n      dup5\n        /* \"#utility.yul\":15348:15369   */\n      and\n        /* \"#utility.yul\":15339:15369   */\n      swap4\n      pop\n        /* \"#utility.yul\":15412:15416   */\n      dup1\n        /* \"#utility.yul\":15402:15410   */\n      dup7\n        /* \"#utility.yul\":15398:15417   */\n      and\n        /* \"#utility.yul\":15391:15396   */\n      dup5\n        /* \"#utility.yul\":15388:15418   */\n      or\n        /* \"#utility.yul\":15378:15418   */\n      swap3\n      pop\n        /* \"#utility.yul\":15107:15424   */\n      pop\n      pop\n        /* \"#utility.yul\":15031:15424   */\n      swap4\n      swap3\n      pop\n      pop\n      pop\n      jump\t// out\n        /* \"#utility.yul\":15430:15490   */\n    tag_243:\n        /* \"#utility.yul\":15458:15461   */\n      0x00\n        /* \"#utility.yul\":15479:15484   */\n      dup2\n        /* \"#utility.yul\":15472:15484   */\n      swap1\n      pop\n        /* \"#utility.yul\":15430:15490   */\n      swap2\n      swap1\n      pop\n      jump\t// out\n        /* \"#utility.yul\":15496:15638   */\n    tag_244:\n        /* \"#utility.yul\":15546:15555   */\n      0x00\n        /* \"#utility.yul\":15579:15632   */\n      tag_426\n        /* \"#utility.yul\":15597:15631   */\n      tag_427\n        /* \"#utility.yul\":15606:15630   */\n      tag_428\n        /* \"#utility.yul\":15624:15629   */\n      dup5\n        /* \"#utility.yul\":15606:15630   */\n      tag_196\n      jump\t// in\n    tag_428:\n        /* \"#utility.yul\":15597:15631   */\n      tag_243\n      jump\t// in\n    tag_427:\n        /* \"#utility.yul\":15579:15632   */\n      tag_196\n      jump\t// in\n    tag_426:\n        /* \"#utility.yul\":15566:15632   */\n      swap1\n      pop\n        /* \"#utility.yul\":15496:15638   */\n      swap2\n      swap1\n      pop\n      jump\t// out\n        /* \"#utility.yul\":15644:15719   */\n    tag_245:\n        /* \"#utility.yul\":15687:15690   */\n      0x00\n        /* \"#utility.yul\":15708:15713   */\n      dup2\n        /* \"#utility.yul\":15701:15713   */\n      swap1\n      pop\n        /* \"#utility.yul\":15644:15719   */\n      swap2\n      swap1\n      pop\n      jump\t// out\n        /* \"#utility.yul\":15725:15994   */\n    tag_246:\n        /* \"#utility.yul\":15835:15874   */\n      tag_431\n        /* \"#utility.yul\":15866:15873   */\n      dup4\n        /* \"#utility.yul\":15835:15874   */\n      tag_244\n      jump\t// in\n    tag_431:\n        /* \"#utility.yul\":15896:15987   */\n      tag_432\n        /* \"#utility.yul\":15945:15986   */\n      tag_433\n        /* \"#utility.yul\":15969:15985   */\n      dup3\n        /* \"#utility.yul\":15945:15986   */\n      tag_245\n      jump\t// in\n    tag_433:\n        /* \"#utility.yul\":15937:15943   */\n      dup5\n        /* \"#utility.yul\":15930:15934   */\n      dup5\n        /* \"#utility.yul\":15924:15935   */\n      sload\n        /* \"#utility.yul\":15896:15987   */\n      tag_242\n      jump\t// in\n    tag_432:\n        /* \"#utility.yul\":15890:15894   */\n      dup3\n        /* \"#utility.yul\":15883:15988   */\n      sstore\n        /* \"#utility.yul\":15801:15994   */\n      pop\n        /* \"#utility.yul\":15725:15994   */\n      pop\n      pop\n      pop\n      jump\t// out\n        /* \"#utility.yul\":16000:16073   */\n    tag_247:\n        /* \"#utility.yul\":16045:16048   */\n      0x00\n        /* \"#utility.yul\":16066:16067   */\n      0x00\n        /* \"#utility.yul\":16059:16067   */\n      swap1\n      pop\n        /* \"#utility.yul\":16000:16073   */\n      swap1\n      jump\t// out\n        /* \"#utility.yul\":16079:16268   */\n    tag_248:\n        /* \"#utility.yul\":16156:16188   */\n      tag_436\n      tag_247\n      jump\t// in\n    tag_436:\n        /* \"#utility.yul\":16197:16262   */\n      tag_437\n        /* \"#utility.yul\":16255:16261   */\n      dup2\n        /* \"#utility.yul\":16247:16253   */\n      dup5\n        /* \"#utility.yul\":16241:16245   */\n      dup5\n        /* \"#utility.yul\":16197:16262   */\n      tag_246\n      jump\t// in\n    tag_437:\n        /* \"#utility.yul\":16132:16268   */\n      pop\n        /* \"#utility.yul\":16079:16268   */\n      pop\n      pop\n      jump\t// out\n        /* \"#utility.yul\":16274:16460   */\n    tag_249:\n        /* \"#utility.yul\":16334:16454   */\n    tag_439:\n        /* \"#utility.yul\":16351:16354   */\n      dup2\n        /* \"#utility.yul\":16344:16349   */\n      dup2\n        /* \"#utility.yul\":16341:16355   */\n      lt\n        /* \"#utility.yul\":16334:16454   */\n      iszero\n      tag_441\n      jumpi\n        /* \"#utility.yul\":16405:16444   */\n      tag_442\n        /* \"#utility.yul\":16442:16443   */\n      0x00\n        /* \"#utility.yul\":16435:16440   */\n      dup3\n        /* \"#utility.yul\":16405:16444   */\n      tag_248\n      jump\t// in\n    tag_442:\n        /* \"#utility.yul\":16378:16379   */\n      0x01\n        /* \"#utility.yul\":16371:16376   */\n      dup2\n        /* \"#utility.yul\":16367:16380   */\n      add\n        /* \"#utility.yul\":16358:16380   */\n      swap1\n      pop\n        /* \"#utility.yul\":16334:16454   */\n      jump(tag_439)\n    tag_441:\n        /* \"#utility.yul\":16274:16460   */\n      pop\n      pop\n      jump\t// out\n        /* \"#utility.yul\":16466:17009   */\n    tag_250:\n        /* \"#utility.yul\":16567:16569   */\n      0x1f\n        /* \"#utility.yul\":16562:16565   */\n      dup3\n        /* \"#utility.yul\":16559:16570   */\n      gt\n        /* \"#utility.yul\":16556:17002   */\n      iszero\n      tag_444\n      jumpi\n        /* \"#utility.yul\":16601:16639   */\n      tag_445\n        /* \"#utility.yul\":16633:16638   */\n      dup2\n        /* \"#utility.yul\":16601:16639   */\n      tag_239\n      jump\t// in\n    tag_445:\n        /* \"#utility.yul\":16685:16714   */\n      tag_446\n        /* \"#utility.yul\":16703:16713   */\n      dup5\n        /* \"#utility.yul\":16685:16714   */\n      tag_240\n      jump\t// in\n    tag_446:\n        /* \"#utility.yul\":16675:16683   */\n      dup2\n        /* \"#utility.yul\":16671:16715   */\n      add\n        /* \"#utility.yul\":16868:16870   */\n      0x20\n        /* \"#utility.yul\":16856:16866   */\n      dup6\n        /* \"#utility.yul\":16853:16871   */\n      lt\n        /* \"#utility.yul\":16850:16899   */\n      iszero\n      tag_447\n      jumpi\n        /* \"#utility.yul\":16889:16897   */\n      dup2\n        /* \"#utility.yul\":16874:16897   */\n      swap1\n      pop\n        /* \"#utility.yul\":16850:16899   */\n    tag_447:\n        /* \"#utility.yul\":16912:16992   */\n      tag_448\n        /* \"#utility.yul\":16968:16990   */\n      tag_449\n        /* \"#utility.yul\":16986:16989   */\n      dup6\n        /* \"#utility.yul\":16968:16990   */\n      tag_240\n      jump\t// in\n    tag_449:\n        /* \"#utility.yul\":16958:16966   */\n      dup4\n        /* \"#utility.yul\":16954:16991   */\n      add\n        /* \"#utility.yul\":16941:16952   */\n      dup3\n        /* \"#utility.yul\":16912:16992   */\n      tag_249\n      jump\t// in\n    tag_448:\n        /* \"#utility.yul\":16571:17002   */\n      pop\n      pop\n        /* \"#utility.yul\":16556:17002   */\n    tag_444:\n        /* \"#utility.yul\":16466:17009   */\n      pop\n      pop\n      pop\n      jump\t// out\n        /* \"#utility.yul\":17015:17132   */\n    tag_251:\n        /* \"#utility.yul\":17069:17077   */\n      0x00\n        /* \"#utility.yul\":17119:17124   */\n      dup3\n        /* \"#utility.yul\":17113:17117   */\n      dup3\n        /* \"#utility.yul\":17109:17125   */\n      shr\n        /* \"#utility.yul\":17088:17125   */\n      swap1\n      pop\n        /* \"#utility.yul\":17015:17132   */\n      swap3\n      swap2\n      pop\n      pop\n      jump\t// out\n        /* \"#utility.yul\":17138:17307   */\n    tag_252:\n        /* \"#utility.yul\":17182:17188   */\n      0x00\n        /* \"#utility.yul\":17215:17266   */\n      tag_452\n        /* \"#utility.yul\":17263:17264   */\n      0x00\n        /* \"#utility.yul\":17259:17265   */\n      not\n        /* \"#utility.yul\":17251:17256   */\n      dup5\n        /* \"#utility.yul\":17248:17249   */\n      0x08\n        /* \"#utility.yul\":17244:17257   */\n      mul\n        /* \"#utility.yul\":17215:17266   */\n      tag_251\n      jump\t// in\n    tag_452:\n        /* \"#utility.yul\":17211:17267   */\n      not\n        /* \"#utility.yul\":17296:17300   */\n      dup1\n        /* \"#utility.yul\":17290:17294   */\n      dup4\n        /* \"#utility.yul\":17286:17301   */\n      and\n        /* \"#utility.yul\":17276:17301   */\n      swap2\n      pop\n        /* \"#utility.yul\":17189:17307   */\n      pop\n        /* \"#utility.yul\":17138:17307   */\n      swap3\n      swap2\n      pop\n      pop\n      jump\t// out\n        /* \"#utility.yul\":17312:17607   */\n    tag_253:\n        /* \"#utility.yul\":17388:17392   */\n      0x00\n        /* \"#utility.yul\":17534:17563   */\n      tag_454\n        /* \"#utility.yul\":17559:17562   */\n      dup4\n        /* \"#utility.yul\":17553:17557   */\n      dup4\n        /* \"#utility.yul\":17534:17563   */\n      tag_252\n      jump\t// in\n    tag_454:\n        /* \"#utility.yul\":17526:17563   */\n      swap2\n      pop\n        /* \"#utility.yul\":17596:17599   */\n      dup3\n        /* \"#utility.yul\":17593:17594   */\n      0x02\n        /* \"#utility.yul\":17589:17600   */\n      mul\n        /* \"#utility.yul\":17583:17587   */\n      dup3\n        /* \"#utility.yul\":17580:17601   */\n      or\n        /* \"#utility.yul\":17572:17601   */\n      swap1\n      pop\n        /* \"#utility.yul\":17312:17607   */\n      swap3\n      swap2\n      pop\n      pop\n      jump\t// out\n        /* \"#utility.yul\":17612:19007   */\n    tag_161:\n        /* \"#utility.yul\":17729:17766   */\n      tag_456\n        /* \"#utility.yul\":17762:17765   */\n      dup3\n        /* \"#utility.yul\":17729:17766   */\n      tag_203\n      jump\t// in\n    tag_456:\n        /* \"#utility.yul\":17831:17849   */\n      0xffffffffffffffff\n        /* \"#utility.yul\":17823:17829   */\n      dup2\n        /* \"#utility.yul\":17820:17850   */\n      gt\n        /* \"#utility.yul\":17817:17873   */\n      iszero\n      tag_457\n      jumpi\n        /* \"#utility.yul\":17853:17871   */\n      tag_458\n      tag_221\n      jump\t// in\n    tag_458:\n        /* \"#utility.yul\":17817:17873   */\n    tag_457:\n        /* \"#utility.yul\":17897:17935   */\n      tag_459\n        /* \"#utility.yul\":17929:17933   */\n      dup3\n        /* \"#utility.yul\":17923:17934   */\n      sload\n        /* \"#utility.yul\":17897:17935   */\n      tag_139\n      jump\t// in\n    tag_459:\n        /* \"#utility.yul\":17982:18049   */\n      tag_460\n        /* \"#utility.yul\":18042:18048   */\n      dup3\n        /* \"#utility.yul\":18034:18040   */\n      dup3\n        /* \"#utility.yul\":18028:18032   */\n      dup6\n        /* \"#utility.yul\":17982:18049   */\n      tag_250\n      jump\t// in\n    tag_460:\n        /* \"#utility.yul\":18076:18077   */\n      0x00\n        /* \"#utility.yul\":18100:18104   */\n      0x20\n        /* \"#utility.yul\":18087:18104   */\n      swap1\n      pop\n        /* \"#utility.yul\":18132:18134   */\n      0x1f\n        /* \"#utility.yul\":18124:18130   */\n      dup4\n        /* \"#utility.yul\":18121:18135   */\n      gt\n        /* \"#utility.yul\":18149:18150   */\n      0x01\n        /* \"#utility.yul\":18144:18762   */\n      dup2\n      eq\n      tag_462\n      jumpi\n        /* \"#utility.yul\":18806:18807   */\n      0x00\n        /* \"#utility.yul\":18823:18829   */\n      dup5\n        /* \"#utility.yul\":18820:18897   */\n      iszero\n      tag_463\n      jumpi\n        /* \"#utility.yul\":18872:18881   */\n      dup3\n        /* \"#utility.yul\":18867:18870   */\n      dup8\n        /* \"#utility.yul\":18863:18882   */\n      add\n        /* \"#utility.yul\":18857:18883   */\n      mload\n        /* \"#utility.yul\":18848:18883   */\n      swap1\n      pop\n        /* \"#utility.yul\":18820:18897   */\n    tag_463:\n        /* \"#utility.yul\":18923:18990   */\n      tag_464\n        /* \"#utility.yul\":18983:18989   */\n      dup6\n        /* \"#utility.yul\":18976:18981   */\n      dup3\n        /* \"#utility.yul\":18923:18990   */\n      tag_253\n      jump\t// in\n    tag_464:\n        /* \"#utility.yul\":18917:18921   */\n      dup7\n        /* \"#utility.yul\":18910:18991   */\n      sstore\n        /* \"#utility.yul\":18779:19001   */\n      pop\n        /* \"#utility.yul\":18114:19001   */\n      jump(tag_461)\n        /* \"#utility.yul\":18144:18762   */\n    tag_462:\n        /* \"#utility.yul\":18196:18200   */\n      0x1f\n        /* \"#utility.yul\":18192:18201   */\n      not\n        /* \"#utility.yul\":18184:18190   */\n      dup5\n        /* \"#utility.yul\":18180:18202   */\n      and\n        /* \"#utility.yul\":18230:18267   */\n      tag_465\n        /* \"#utility.yul\":18262:18266   */\n      dup7\n        /* \"#utility.yul\":18230:18267   */\n      tag_239\n      jump\t// in\n    tag_465:\n        /* \"#utility.yul\":18289:18290   */\n      0x00\n        /* \"#utility.yul\":18303:18511   */\n    tag_466:\n        /* \"#utility.yul\":18317:18324   */\n      dup3\n        /* \"#utility.yul\":18314:18315   */\n      dup2\n        /* \"#utility.yul\":18311:18325   */\n      lt\n        /* \"#utility.yul\":18303:18511   */\n      iszero\n      tag_468\n      jumpi\n        /* \"#utility.yul\":18396:18405   */\n      dup5\n        /* \"#utility.yul\":18391:18394   */\n      dup10\n        /* \"#utility.yul\":18387:18406   */\n      add\n        /* \"#utility.yul\":18381:18407   */\n      mload\n        /* \"#utility.yul\":18373:18379   */\n      dup3\n        /* \"#utility.yul\":18366:18408   */\n      sstore\n        /* \"#utility.yul\":18447:18448   */\n      0x01\n        /* \"#utility.yul\":18439:18445   */\n      dup3\n        /* \"#utility.yul\":18435:18449   */\n      add\n        /* \"#utility.yul\":18425:18449   */\n      swap2\n      pop\n        /* \"#utility.yul\":18494:18496   */\n      0x20\n        /* \"#utility.yul\":18483:18492   */\n      dup6\n        /* \"#utility.yul\":18479:18497   */\n      add\n        /* \"#utility.yul\":18466:18497   */\n      swap5\n      pop\n        /* \"#utility.yul\":18340:18344   */\n      0x20\n        /* \"#utility.yul\":18337:18338   */\n      dup2\n        /* \"#utility.yul\":18333:18345   */\n      add\n        /* \"#utility.yul\":18328:18345   */\n      swap1\n      pop\n        /* \"#utility.yul\":18303:18511   */\n      jump(tag_466)\n    tag_468:\n        /* \"#utility.yul\":18539:18545   */\n      dup7\n        /* \"#utility.yul\":18530:18537   */\n      dup4\n        /* \"#utility.yul\":18527:18546   */\n      lt\n        /* \"#utility.yul\":18524:18703   */\n      iszero\n      tag_469\n      jumpi\n        /* \"#utility.yul\":18597:18606   */\n      dup5\n        /* \"#utility.yul\":18592:18595   */\n      dup10\n        /* \"#utility.yul\":18588:18607   */\n      add\n        /* \"#utility.yul\":18582:18608   */\n      mload\n        /* \"#utility.yul\":18640:18688   */\n      tag_470\n        /* \"#utility.yul\":18682:18686   */\n      0x1f\n        /* \"#utility.yul\":18674:18680   */\n      dup10\n        /* \"#utility.yul\":18670:18687   */\n      and\n        /* \"#utility.yul\":18659:18668   */\n      dup3\n        /* \"#utility.yul\":18640:18688   */\n      tag_252\n      jump\t// in\n    tag_470:\n        /* \"#utility.yul\":18632:18638   */\n      dup4\n        /* \"#utility.yul\":18625:18689   */\n      sstore\n        /* \"#utility.yul\":18547:18703   */\n      pop\n        /* \"#utility.yul\":18524:18703   */\n    tag_469:\n        /* \"#utility.yul\":18749:18750   */\n      0x01\n        /* \"#utility.yul\":18745:18746   */\n      0x02\n        /* \"#utility.yul\":18737:18743   */\n      dup9\n        /* \"#utility.yul\":18733:18747   */\n      mul\n        /* \"#utility.yul\":18729:18751   */\n      add\n        /* \"#utility.yul\":18723:18727   */\n      dup9\n        /* \"#utility.yul\":18716:18752   */\n      sstore\n        /* \"#utility.yul\":18151:18762   */\n      pop\n      pop\n      pop\n        /* \"#utility.yul\":18114:19001   */\n    tag_461:\n      pop\n        /* \"#utility.yul\":17704:19007   */\n      pop\n      pop\n      pop\n        /* \"#utility.yul\":17612:19007   */\n      pop\n      pop\n      jump\t// out\n        /* \"#utility.yul\":19013:19153   */\n    tag_254:\n        /* \"#utility.yul\":19061:19065   */\n      0x00\n        /* \"#utility.yul\":19084:19087   */\n      dup2\n        /* \"#utility.yul\":19076:19087   */\n      swap1\n      pop\n        /* \"#utility.yul\":19107:19110   */\n      dup2\n        /* \"#utility.yul\":19104:19105   */\n      0x00\n        /* \"#utility.yul\":19097:19111   */\n      mstore\n        /* \"#utility.yul\":19141:19145   */\n      0x20\n        /* \"#utility.yul\":19138:19139   */\n      0x00\n        /* \"#utility.yul\":19128:19146   */\n      keccak256\n        /* \"#utility.yul\":19120:19146   */\n      swap1\n      pop\n        /* \"#utility.yul\":19013:19153   */\n      swap2\n      swap1\n      pop\n      jump\t// out\n        /* \"#utility.yul\":19159:19700   */\n    tag_255:\n        /* \"#utility.yul\":19259:19261   */\n      0x1f\n        /* \"#utility.yul\":19254:19257   */\n      dup3\n        /* \"#utility.yul\":19251:19262   */\n      gt\n        /* \"#utility.yul\":19248:19693   */\n      iszero\n      tag_473\n      jumpi\n        /* \"#utility.yul\":19293:19330   */\n      tag_474\n        /* \"#utility.yul\":19324:19329   */\n      dup2\n        /* \"#utility.yul\":19293:19330   */\n      tag_254\n      jump\t// in\n    tag_474:\n        /* \"#utility.yul\":19376:19405   */\n      tag_475\n        /* \"#utility.yul\":19394:19404   */\n      dup5\n        /* \"#utility.yul\":19376:19405   */\n      tag_240\n      jump\t// in\n    tag_475:\n        /* \"#utility.yul\":19366:19374   */\n      dup2\n        /* \"#utility.yul\":19362:19406   */\n      add\n        /* \"#utility.yul\":19559:19561   */\n      0x20\n        /* \"#utility.yul\":19547:19557   */\n      dup6\n        /* \"#utility.yul\":19544:19562   */\n      lt\n        /* \"#utility.yul\":19541:19590   */\n      iszero\n      tag_476\n      jumpi\n        /* \"#utility.yul\":19580:19588   */\n      dup2\n        /* \"#utility.yul\":19565:19588   */\n      swap1\n      pop\n        /* \"#utility.yul\":19541:19590   */\n    tag_476:\n        /* \"#utility.yul\":19603:19683   */\n      tag_477\n        /* \"#utility.yul\":19659:19681   */\n      tag_478\n        /* \"#utility.yul\":19677:19680   */\n      dup6\n        /* \"#utility.yul\":19659:19681   */\n      tag_240\n      jump\t// in\n    tag_478:\n        /* \"#utility.yul\":19649:19657   */\n      dup4\n        /* \"#utility.yul\":19645:19682   */\n      add\n        /* \"#utility.yul\":19632:19643   */\n      dup3\n        /* \"#utility.yul\":19603:19683   */\n      tag_249\n      jump\t// in\n    tag_477:\n        /* \"#utility.yul\":19263:19693   */\n      pop\n      pop\n        /* \"#utility.yul\":19248:19693   */\n    tag_473:\n        /* \"#utility.yul\":19159:19700   */\n      pop\n      pop\n      pop\n      jump\t// out\n        /* \"#utility.yul\":19706:21096   */\n    tag_164:\n        /* \"#utility.yul\":19821:19857   */\n      tag_480\n        /* \"#utility.yul\":19853:19856   */\n      dup3\n        /* \"#utility.yul\":19821:19857   */\n      tag_210\n      jump\t// in\n    tag_480:\n        /* \"#utility.yul\":19922:19940   */\n      0xffffffffffffffff\n        /* \"#utility.yul\":19914:19920   */\n      dup2\n        /* \"#utility.yul\":19911:19941   */\n      gt\n        /* \"#utility.yul\":19908:19964   */\n      iszero\n      tag_481\n      jumpi\n        /* \"#utility.yul\":19944:19962   */\n      tag_482\n      tag_221\n      jump\t// in\n    tag_482:\n        /* \"#utility.yul\":19908:19964   */\n    tag_481:\n        /* \"#utility.yul\":19988:20026   */\n      tag_483\n        /* \"#utility.yul\":20020:20024   */\n      dup3\n        /* \"#utility.yul\":20014:20025   */\n      sload\n        /* \"#utility.yul\":19988:20026   */\n      tag_139\n      jump\t// in\n    tag_483:\n        /* \"#utility.yul\":20073:20139   */\n      tag_484\n        /* \"#utility.yul\":20132:20138   */\n      dup3\n        /* \"#utility.yul\":20124:20130   */\n      dup3\n        /* \"#utility.yul\":20118:20122   */\n      dup6\n        /* \"#utility.yul\":20073:20139   */\n      tag_255\n      jump\t// in\n    tag_484:\n        /* \"#utility.yul\":20166:20167   */\n      0x00\n        /* \"#utility.yul\":20190:20194   */\n      0x20\n        /* \"#utility.yul\":20177:20194   */\n      swap1\n      pop\n        /* \"#utility.yul\":20222:20224   */\n      0x1f\n        /* \"#utility.yul\":20214:20220   */\n      dup4\n        /* \"#utility.yul\":20211:20225   */\n      gt\n        /* \"#utility.yul\":20239:20240   */\n      0x01\n        /* \"#utility.yul\":20234:20851   */\n      dup2\n      eq\n      tag_486\n      jumpi\n        /* \"#utility.yul\":20895:20896   */\n      0x00\n        /* \"#utility.yul\":20912:20918   */\n      dup5\n        /* \"#utility.yul\":20909:20986   */\n      iszero\n      tag_487\n      jumpi\n        /* \"#utility.yul\":20961:20970   */\n      dup3\n        /* \"#utility.yul\":20956:20959   */\n      dup8\n        /* \"#utility.yul\":20952:20971   */\n      add\n        /* \"#utility.yul\":20946:20972   */\n      mload\n        /* \"#utility.yul\":20937:20972   */\n      swap1\n      pop\n        /* \"#utility.yul\":20909:20986   */\n    tag_487:\n        /* \"#utility.yul\":21012:21079   */\n      tag_488\n        /* \"#utility.yul\":21072:21078   */\n      dup6\n        /* \"#utility.yul\":21065:21070   */\n      dup3\n        /* \"#utility.yul\":21012:21079   */\n      tag_253\n      jump\t// in\n    tag_488:\n        /* \"#utility.yul\":21006:21010   */\n      dup7\n        /* \"#utility.yul\":20999:21080   */\n      sstore\n        /* \"#utility.yul\":20868:21090   */\n      pop\n        /* \"#utility.yul\":20204:21090   */\n      jump(tag_485)\n        /* \"#utility.yul\":20234:20851   */\n    tag_486:\n        /* \"#utility.yul\":20286:20290   */\n      0x1f\n        /* \"#utility.yul\":20282:20291   */\n      not\n        /* \"#utility.yul\":20274:20280   */\n      dup5\n        /* \"#utility.yul\":20270:20292   */\n      and\n        /* \"#utility.yul\":20320:20356   */\n      tag_489\n        /* \"#utility.yul\":20351:20355   */\n      dup7\n        /* \"#utility.yul\":20320:20356   */\n      tag_254\n      jump\t// in\n    tag_489:\n        /* \"#utility.yul\":20378:20379   */\n      0x00\n        /* \"#utility.yul\":20392:20600   */\n    tag_490:\n        /* \"#utility.yul\":20406:20413   */\n      dup3\n        /* \"#utility.yul\":20403:20404   */\n      dup2\n        /* \"#utility.yul\":20400:20414   */\n      lt\n        /* \"#utility.yul\":20392:20600   */\n      iszero\n      tag_492\n      jumpi\n        /* \"#utility.yul\":20485:20494   */\n      dup5\n        /* \"#utility.yul\":20480:20483   */\n      dup10\n        /* \"#utility.yul\":20476:20495   */\n      add\n        /* \"#utility.yul\":20470:20496   */\n      mload\n        /* \"#utility.yul\":20462:20468   */\n      dup3\n        /* \"#utility.yul\":20455:20497   */\n      sstore\n        /* \"#utility.yul\":20536:20537   */\n      0x01\n        /* \"#utility.yul\":20528:20534   */\n      dup3\n        /* \"#utility.yul\":20524:20538   */\n      add\n        /* \"#utility.yul\":20514:20538   */\n      swap2\n      pop\n        /* \"#utility.yul\":20583:20585   */\n      0x20\n        /* \"#utility.yul\":20572:20581   */\n      dup6\n        /* \"#utility.yul\":20568:20586   */\n      add\n        /* \"#utility.yul\":20555:20586   */\n      swap5\n      pop\n        /* \"#utility.yul\":20429:20433   */\n      0x20\n        /* \"#utility.yul\":20426:20427   */\n      dup2\n        /* \"#utility.yul\":20422:20434   */\n      add\n        /* \"#utility.yul\":20417:20434   */\n      swap1\n      pop\n        /* \"#utility.yul\":20392:20600   */\n      jump(tag_490)\n    tag_492:\n        /* \"#utility.yul\":20628:20634   */\n      dup7\n        /* \"#utility.yul\":20619:20626   */\n      dup4\n        /* \"#utility.yul\":20616:20635   */\n      lt\n        /* \"#utility.yul\":20613:20792   */\n      iszero\n      tag_493\n      jumpi\n        /* \"#utility.yul\":20686:20695   */\n      dup5\n        /* \"#utility.yul\":20681:20684   */\n      dup10\n        /* \"#utility.yul\":20677:20696   */\n      add\n        /* \"#utility.yul\":20671:20697   */\n      mload\n        /* \"#utility.yul\":20729:20777   */\n      tag_494\n        /* \"#utility.yul\":20771:20775   */\n      0x1f\n        /* \"#utility.yul\":20763:20769   */\n      dup10\n        /* \"#utility.yul\":20759:20776   */\n      and\n        /* \"#utility.yul\":20748:20757   */\n      dup3\n        /* \"#utility.yul\":20729:20777   */\n      tag_252\n      jump\t// in\n    tag_494:\n        /* \"#utility.yul\":20721:20727   */\n      dup4\n        /* \"#utility.yul\":20714:20778   */\n      sstore\n        /* \"#utility.yul\":20636:20792   */\n      pop\n        /* \"#utility.yul\":20613:20792   */\n    tag_493:\n        /* \"#utility.yul\":20838:20839   */\n      0x01\n        /* \"#utility.yul\":20834:20835   */\n      0x02\n        /* \"#utility.yul\":20826:20832   */\n      dup9\n        /* \"#utility.yul\":20822:20836   */\n      mul\n        /* \"#utility.yul\":20818:20840   */\n      add\n        /* \"#utility.yul\":20812:20816   */\n      dup9\n        /* \"#utility.yul\":20805:20841   */\n      sstore\n        /* \"#utility.yul\":20241:20851   */\n      pop\n      pop\n      pop\n        /* \"#utility.yul\":20204:21090   */\n    tag_485:\n      pop\n        /* \"#utility.yul\":19796:21096   */\n      pop\n      pop\n      pop\n        /* \"#utility.yul\":19706:21096   */\n      pop\n      pop\n      jump\t// out\n        /* \"#utility.yul\":21102:21250   */\n    tag_256:\n        /* \"#utility.yul\":21204:21215   */\n      0x00\n        /* \"#utility.yul\":21241:21244   */\n      dup2\n        /* \"#utility.yul\":21226:21244   */\n      swap1\n      pop\n        /* \"#utility.yul\":21102:21250   */\n      swap3\n      swap2\n      pop\n      pop\n      jump\t// out\n        /* \"#utility.yul\":21256:21646   */\n    tag_257:\n        /* \"#utility.yul\":21362:21365   */\n      0x00\n        /* \"#utility.yul\":21390:21429   */\n      tag_497\n        /* \"#utility.yul\":21423:21428   */\n      dup3\n        /* \"#utility.yul\":21390:21429   */\n      tag_203\n      jump\t// in\n    tag_497:\n        /* \"#utility.yul\":21445:21534   */\n      tag_498\n        /* \"#utility.yul\":21527:21533   */\n      dup2\n        /* \"#utility.yul\":21522:21525   */\n      dup6\n        /* \"#utility.yul\":21445:21534   */\n      tag_256\n      jump\t// in\n    tag_498:\n        /* \"#utility.yul\":21438:21534   */\n      swap4\n      pop\n        /* \"#utility.yul\":21543:21608   */\n      tag_499\n        /* \"#utility.yul\":21601:21607   */\n      dup2\n        /* \"#utility.yul\":21596:21599   */\n      dup6\n        /* \"#utility.yul\":21589:21593   */\n      0x20\n        /* \"#utility.yul\":21582:21587   */\n      dup7\n        /* \"#utility.yul\":21578:21594   */\n      add\n        /* \"#utility.yul\":21543:21608   */\n      tag_205\n      jump\t// in\n    tag_499:\n        /* \"#utility.yul\":21633:21639   */\n      dup1\n        /* \"#utility.yul\":21628:21631   */\n      dup5\n        /* \"#utility.yul\":21624:21640   */\n      add\n        /* \"#utility.yul\":21617:21640   */\n      swap2\n      pop\n        /* \"#utility.yul\":21366:21646   */\n      pop\n        /* \"#utility.yul\":21256:21646   */\n      swap3\n      swap2\n      pop\n      pop\n      jump\t// out\n        /* \"#utility.yul\":21652:21927   */\n    tag_193:\n        /* \"#utility.yul\":21784:21787   */\n      0x00\n        /* \"#utility.yul\":21806:21901   */\n      tag_501\n        /* \"#utility.yul\":21897:21900   */\n      dup3\n        /* \"#utility.yul\":21888:21894   */\n      dup5\n        /* \"#utility.yul\":21806:21901   */\n      tag_257\n      jump\t// in\n    tag_501:\n        /* \"#utility.yul\":21799:21901   */\n      swap2\n      pop\n        /* \"#utility.yul\":21918:21921   */\n      dup2\n        /* \"#utility.yul\":21911:21921   */\n      swap1\n      pop\n        /* \"#utility.yul\":21652:21927   */\n      swap3\n      swap2\n      pop\n      pop\n      jump\t// out\n        /* \"#utility.yul\":21933:22113   */\n    tag_258:\n        /* \"#utility.yul\":21981:22058   */\n      0x4e487b7100000000000000000000000000000000000000000000000000000000\n        /* \"#utility.yul\":21978:21979   */\n      0x00\n        /* \"#utility.yul\":21971:22059   */\n      mstore\n        /* \"#utility.yul\":22078:22082   */\n      0x11\n        /* \"#utility.yul\":22075:22076   */\n      0x04\n        /* \"#utility.yul\":22068:22083   */\n      mstore\n        /* \"#utility.yul\":22102:22106   */\n      0x24\n        /* \"#utility.yul\":22099:22100   */\n      0x00\n        /* \"#utility.yul\":22092:22107   */\n      revert\n        /* \"#utility.yul\":22119:22352   */\n    tag_195:\n        /* \"#utility.yul\":22158:22161   */\n      0x00\n        /* \"#utility.yul\":22181:22205   */\n      tag_504\n        /* \"#utility.yul\":22199:22204   */\n      dup3\n        /* \"#utility.yul\":22181:22205   */\n      tag_196\n      jump\t// in\n    tag_504:\n        /* \"#utility.yul\":22172:22205   */\n      swap2\n      pop\n        /* \"#utility.yul\":22227:22293   */\n      0xffffffffffffffffffffffffffffffffffffffffffffffffffffffffffffffff\n        /* \"#utility.yul\":22220:22225   */\n      dup3\n        /* \"#utility.yul\":22217:22294   */\n      sub\n        /* \"#utility.yul\":22214:22317   */\n      tag_505\n      jumpi\n        /* \"#utility.yul\":22297:22315   */\n      tag_506\n      tag_258\n      jump\t// in\n    tag_506:\n        /* \"#utility.yul\":22214:22317   */\n    tag_505:\n        /* \"#utility.yul\":22344:22345   */\n      0x01\n        /* \"#utility.yul\":22337:22342   */\n      dup3\n        /* \"#utility.yul\":22333:22346   */\n      add\n        /* \"#utility.yul\":22326:22346   */\n      swap1\n      pop\n        /* \"#utility.yul\":22119:22352   */\n      swap2\n      swap1\n      pop\n      jump\t// out\n\n    auxdata: 0xa264697066735822122006ec0bf7256932495d904a1e014e20658a4a7b95194abe4f053a1c45f23a6cd564736f6c634300081e0033\n}\n",
				"bytecode": {
					"linkReferences": {},
					"object": "60806040526040518060400160405280600681526020017f4772697368610000000000000000000000000000000000000000000000000000815250600290816100489190610306565b50735b38da6a701c568545dcfcb03fcb875f56beddc460035f6101000a81548173ffffffffffffffffffffffffffffffffffffffff021916908373ffffffffffffffffffffffffffffffffffffffff1602179055506001600360146101000a81548160ff0219169083151502179055503480156100c3575f5ffd5b506103d5565b5f81519050919050565b7f4e487b71000000000000000000000000000000000000000000000000000000005f52604160045260245ffd5b7f4e487b71000000000000000000000000000000000000000000000000000000005f52602260045260245ffd5b5f600282049050600182168061014457607f821691505b60208210810361015757610156610100565b5b50919050565b5f819050815f5260205f209050919050565b5f6020601f8301049050919050565b5f82821b905092915050565b5f600883026101b97fffffffffffffffffffffffffffffffffffffffffffffffffffffffffffffffff8261017e565b6101c3868361017e565b95508019841693508086168417925050509392505050565b5f819050919050565b5f819050919050565b5f6102076102026101fd846101db565b6101e4565b6101db565b9050919050565b5f819050919050565b610220836101ed565b61023461022c8261020e565b84845461018a565b825550505050565b5f5f905090565b61024b61023c565b610256818484610217565b505050565b5b818110156102795761026e5f82610243565b60018101905061025c565b5050565b601f8211156102be5761028f8161015d565b6102988461016f565b810160208510156102a7578190505b6102bb6102b38561016f565b83018261025b565b50505b505050565b5f82821c905092915050565b5f6102de5f19846008026102c3565b1980831691505092915050565b5f6102f683836102cf565b9150826002028217905092915050565b61030f826100c9565b67ffffffffffffffff811115610328576103276100d3565b5b610332825461012d565b61033d82828561027d565b5f60209050601f83116001811461036e575f841561035c578287015190505b61036685826102eb565b8655506103cd565b601f19841661037c8661015d565b5f5b828110156103a35784890151825560018201915060208501945060208101905061037e565b868310156103c057848901516103bc601f8916826102cf565b8355505b6001600288020188555050505b505050505050565b6116ff806103e25f395ff3fe608060405260043610610129575f3560e01c80634ad0e590116100aa5780639799b4e71161006e5780639799b4e7146103bd578063b2596a67146103f9578063b73f795114610435578063d0e30db01461045f578063de0cc45b14610469578063fb45373e1461049157610129565b80634ad0e590146102db57806365ac23201461030357806370a93b361461032d5780638d977672146103555780638da5cb5b1461039357610129565b80632ccb1b30116100f15780632ccb1b30146102115780632e49d78b146102395780633143d08214610261578063354497aa146102895780634a07a248146102b157610129565b806312065fe01461012d57806312fb1cbd146101575780631d65e77e1461017f57806320e44e43146101bd57806322f3e2d4146101e7575b5f5ffd5b348015610138575f5ffd5b506101416104cd565b60405161014e9190610add565b60405180910390f35b348015610162575f5ffd5b5061017d60048036038101906101789190610b31565b6104d4565b005b34801561018a575f5ffd5b506101a560048036038101906101a09190610b31565b610541565b6040516101b493929190610be6565b60405180910390f35b3480156101c8575f5ffd5b506101d1610641565b6040516101de9190610c74565b60405180910390f35b3480156101f2575f5ffd5b506101fb6106cd565b6040516102089190610c94565b60405180910390f35b34801561021c575f5ffd5b5061023760048036038101906102329190610d07565b6106e0565b005b348015610244575f5ffd5b5061025f600480360381019061025a9190610d68565b61072d565b005b34801561026c575f5ffd5b5061028760048036038101906102829190610ebf565b610759565b005b348015610294575f5ffd5b506102af60048036038101906102aa9190610fb7565b610824565b005b3480156102bc575f5ffd5b506102c5610837565b6040516102d29190610add565b60405180910390f35b3480156102e6575f5ffd5b5061030160048036038101906102fc9190610b31565b610843565b005b34801561030e575f5ffd5b50610317610880565b6040516103249190610ffe565b60405180910390f35b348015610338575f5ffd5b50610353600480360381019061034e919061101e565b61090c565b005b348015610360575f5ffd5b5061037b60048036038101906103769190610b31565b61092a565b60405161038a93929190610be6565b60405180910390f35b34801561039e575f5ffd5b506103a76109f0565b6040516103b4919061106b565b60405180910390f35b3480156103c8575f5ffd5b506103e360048036038101906103de9190610b31565b610a15565b6040516103f09190610add565b60405180910390f35b348015610404575f5ffd5b5061041f600480360381019061041a9190610b31565b610a35565b60405161042c9190610add565b60405180910390f35b348015610440575f5ffd5b50610449610a4e565b60405161045691906110f7565b60405180910390f35b610467610a60565b005b348015610474575f5ffd5b5061048f600480360381019061048a9190611110565b610a62565b005b34801561049c575f5ffd5b506104b760048036038101906104b29190611110565b610a98565b6040516104c49190610add565b60405180910390f35b5f47905090565b6064811115610518576040517f08c379a000000000000000000000000000000000000000000000000000000000815260040161050f906111c7565b60405180910390fd5b600a81908060018154018082558091505060019003905f5260205f20015f909190919091505550565b60605f5f5f5f8581548110610559576105586111e5565b5b905f5260205f2090600302016040518060600160405290815f8201805461057f9061123f565b80601f01602080910402602001604051908101604052809291908181526020018280546105ab9061123f565b80156105f65780601f106105cd576101008083540402835291602001916105f6565b820191905f5260205f20905b8154815290600101906020018083116105d957829003601f168201915b50505050508152602001600182015f9054906101000a900460ff161515151581526020016002820154815250509050805f015181602001518260400151935093509350509193909250565b6001805461064e9061123f565b80601f016020809104026020016040519081016040528092919081815260200182805461067a9061123f565b80156106c55780601f1061069c576101008083540402835291602001916106c5565b820191905f5260205f20905b8154815290600101906020018083116106a857829003601f168201915b505050505081565b600360149054906101000a900460ff1681565b5f8290508073ffffffffffffffffffffffffffffffffffffffff166108fc8390811502906040515f60405180830381858888f19350505050158015610727573d5f5f3e3d5ffd5b50505050565b80600b5f6101000a81548160ff0219169083600281111561075157610750611084565b5b021790555050565b606481111561079d576040517f08c379a0000000000000000000000000000000000000000000000000000000008152600401610794906111c7565b60405180910390fd5b5f60405180606001604052808481526020015f1515815260200183815250908060018154018082558091505060019003905f5260205f2090600302015f909190919091505f820151815f0190816107f4919061140f565b506020820151816001015f6101000a81548160ff0219169083151502179055506040820151816002015550505050565b80600190816108339190611536565b5050565b5f600a80549050905090565b60015f8281548110610858576108576111e5565b5b905f5260205f2090600302016001015f6101000a81548160ff02191690831515021790555050565b6002805461088d9061123f565b80601f01602080910402602001604051908101604052809291908181526020018280546108b99061123f565b80156109045780601f106108db57610100808354040283529160200191610904565b820191905f5260205f20905b8154815290600101906020018083116108e757829003601f168201915b505050505081565b8060058360058110610921576109206111e5565b5b01819055505050565b5f8181548110610938575f80fd5b905f5260205f2090600302015f91509050805f0180546109579061123f565b80601f01602080910402602001604051908101604052809291908181526020018280546109839061123f565b80156109ce5780601f106109a5576101008083540402835291602001916109ce565b820191905f5260205f20905b8154815290600101906020018083116109b157829003601f168201915b505050505090806001015f9054906101000a900460ff16908060020154905083565b60035f9054906101000a900473ffffffffffffffffffffffffffffffffffffffff1681565b600a8181548110610a24575f80fd5b905f5260205f20015f915090505481565b60058160058110610a44575f80fd5b015f915090505481565b600b5f9054906101000a900460ff1681565b565b600481604051610a72919061163f565b90815260200160405180910390205f815480929190610a9090611682565b919050555050565b6004818051602081018201805184825260208301602085012081835280955050505050505f915090505481565b5f819050919050565b610ad781610ac5565b82525050565b5f602082019050610af05f830184610ace565b92915050565b5f604051905090565b5f5ffd5b5f5ffd5b610b1081610ac5565b8114610b1a575f5ffd5b50565b5f81359050610b2b81610b07565b92915050565b5f60208284031215610b4657610b45610aff565b5b5f610b5384828501610b1d565b91505092915050565b5f81519050919050565b5f82825260208201905092915050565b8281835e5f83830152505050565b5f601f19601f8301169050919050565b5f610b9e82610b5c565b610ba88185610b66565b9350610bb8818560208601610b76565b610bc181610b84565b840191505092915050565b5f8115159050919050565b610be081610bcc565b82525050565b5f6060820190508181035f830152610bfe8186610b94565b9050610c0d6020830185610bd7565b610c1a6040830184610ace565b949350505050565b5f81519050919050565b5f82825260208201905092915050565b5f610c4682610c22565b610c508185610c2c565b9350610c60818560208601610b76565b610c6981610b84565b840191505092915050565b5f6020820190508181035f830152610c8c8184610c3c565b905092915050565b5f602082019050610ca75f830184610bd7565b92915050565b5f73ffffffffffffffffffffffffffffffffffffffff82169050919050565b5f610cd682610cad565b9050919050565b610ce681610ccc565b8114610cf0575f5ffd5b50565b5f81359050610d0181610cdd565b92915050565b5f5f60408385031215610d1d57610d1c610aff565b5b5f610d2a85828601610cf3565b9250506020610d3b85828601610b1d565b9150509250929050565b60038110610d51575f5ffd5b50565b5f81359050610d6281610d45565b92915050565b5f60208284031215610d7d57610d7c610aff565b5b5f610d8a84828501610d54565b91505092915050565b5f5ffd5b5f5ffd5b7f4e487b71000000000000000000000000000000000000000000000000000000005f52604160045260245ffd5b610dd182610b84565b810181811067ffffffffffffffff82111715610df057610def610d9b565b5b80604052505050565b5f610e02610af6565b9050610e0e8282610dc8565b919050565b5f67ffffffffffffffff821115610e2d57610e2c610d9b565b5b610e3682610b84565b9050602081019050919050565b828183375f83830152505050565b5f610e63610e5e84610e13565b610df9565b905082815260208101848484011115610e7f57610e7e610d97565b5b610e8a848285610e43565b509392505050565b5f82601f830112610ea657610ea5610d93565b5b8135610eb6848260208601610e51565b91505092915050565b5f5f60408385031215610ed557610ed4610aff565b5b5f83013567ffffffffffffffff811115610ef257610ef1610b03565b5b610efe85828601610e92565b9250506020610f0f85828601610b1d565b9150509250929050565b5f67ffffffffffffffff821115610f3357610f32610d9b565b5b610f3c82610b84565b9050602081019050919050565b5f610f5b610f5684610f19565b610df9565b905082815260208101848484011115610f7757610f76610d97565b5b610f82848285610e43565b509392505050565b5f82601f830112610f9e57610f9d610d93565b5b8135610fae848260208601610f49565b91505092915050565b5f60208284031215610fcc57610fcb610aff565b5b5f82013567ffffffffffffffff811115610fe957610fe8610b03565b5b610ff584828501610f8a565b91505092915050565b5f6020820190508181035f8301526110168184610b94565b905092915050565b5f5f6040838503121561103457611033610aff565b5b5f61104185828601610b1d565b925050602061105285828601610b1d565b9150509250929050565b61106581610ccc565b82525050565b5f60208201905061107e5f83018461105c565b92915050565b7f4e487b71000000000000000000000000000000000000000000000000000000005f52602160045260245ffd5b600381106110c2576110c1611084565b5b50565b5f8190506110d2826110b1565b919050565b5f6110e1826110c5565b9050919050565b6110f1816110d7565b82525050565b5f60208201905061110a5f8301846110e8565b92915050565b5f6020828403121561112557611124610aff565b5b5f82013567ffffffffffffffff81111561114257611141610b03565b5b61114e84828501610e92565b91505092915050565b7fd09ed186d0b5d0bdd0bad0b020d0bdd0b520d0bcd0bed0b6d0b5d18220d0bfd15f8201527f80d0b5d0b2d18bd181d0b8d182d18c2031303020d0b1d0b0d0bbd0bbd0bed0b2602082015250565b5f6111b1604083610b66565b91506111bc82611157565b604082019050919050565b5f6020820190508181035f8301526111de816111a5565b9050919050565b7f4e487b71000000000000000000000000000000000000000000000000000000005f52603260045260245ffd5b7f4e487b71000000000000000000000000000000000000000000000000000000005f52602260045260245ffd5b5f600282049050600182168061125657607f821691505b60208210810361126957611268611212565b5b50919050565b5f819050815f5260205f209050919050565b5f6020601f8301049050919050565b5f82821b905092915050565b5f600883026112cb7fffffffffffffffffffffffffffffffffffffffffffffffffffffffffffffffff82611290565b6112d58683611290565b95508019841693508086168417925050509392505050565b5f819050919050565b5f61131061130b61130684610ac5565b6112ed565b610ac5565b9050919050565b5f819050919050565b611329836112f6565b61133d61133582611317565b84845461129c565b825550505050565b5f5f905090565b611354611345565b61135f818484611320565b505050565b5b81811015611382576113775f8261134c565b600181019050611365565b5050565b601f8211156113c7576113988161126f565b6113a184611281565b810160208510156113b0578190505b6113c46113bc85611281565b830182611364565b50505b505050565b5f82821c905092915050565b5f6113e75f19846008026113cc565b1980831691505092915050565b5f6113ff83836113d8565b9150826002028217905092915050565b61141882610b5c565b67ffffffffffffffff81111561143157611430610d9b565b5b61143b825461123f565b611446828285611386565b5f60209050601f831160018114611477575f8415611465578287015190505b61146f85826113f4565b8655506114d6565b601f1984166114858661126f565b5f5b828110156114ac57848901518255600182019150602085019450602081019050611487565b868310156114c957848901516114c5601f8916826113d8565b8355505b6001600288020188555050505b505050505050565b5f819050815f5260205f209050919050565b601f82111561153157611502816114de565b61150b84611281565b8101602085101561151a578190505b61152e61152685611281565b830182611364565b50505b505050565b61153f82610c22565b67ffffffffffffffff81111561155857611557610d9b565b5b611562825461123f565b61156d8282856114f0565b5f60209050601f83116001811461159e575f841561158c578287015190505b61159685826113f4565b8655506115fd565b601f1984166115ac866114de565b5f5b828110156115d3578489015182556001820191506020850194506020810190506115ae565b868310156115f057848901516115ec601f8916826113d8565b8355505b6001600288020188555050505b505050505050565b5f81905092915050565b5f61161982610b5c565b6116238185611605565b9350611633818560208601610b76565b80840191505092915050565b5f61164a828461160f565b915081905092915050565b7f4e487b71000000000000000000000000000000000000000000000000000000005f52601160045260245ffd5b5f61168c82610ac5565b91507fffffffffffffffffffffffffffffffffffffffffffffffffffffffffffffffff82036116be576116bd611655565b5b60018201905091905056fea264697066735822122006ec0bf7256932495d904a1e014e20658a4a7b95194abe4f053a1c45f23a6cd564736f6c634300081e0033",
					"opcodes": "PUSH1 0x80 PUSH1 0x40 MSTORE PUSH1 0x40 MLOAD DUP1 PUSH1 0x40 ADD PUSH1 0x40 MSTORE DUP1 PUSH1 0x6 DUP2 MSTORE PUSH1 0x20 ADD PUSH32 0x4772697368610000000000000000000000000000000000000000000000000000 DUP2 MSTORE POP PUSH1 0x2 SWAP1 DUP2 PUSH2 0x48 SWAP2 SWAP1 PUSH2 0x306 JUMP JUMPDEST POP PUSH20 0x5B38DA6A701C568545DCFCB03FCB875F56BEDDC4 PUSH1 0x3 PUSH0 PUSH2 0x100 EXP DUP2 SLOAD DUP2 PUSH20 0xFFFFFFFFFFFFFFFFFFFFFFFFFFFFFFFFFFFFFFFF MUL NOT AND SWAP1 DUP4 PUSH20 0xFFFFFFFFFFFFFFFFFFFFFFFFFFFFFFFFFFFFFFFF AND MUL OR SWAP1 SSTORE POP PUSH1 0x1 PUSH1 0x3 PUSH1 0x14 PUSH2 0x100 EXP DUP2 SLOAD DUP2 PUSH1 0xFF MUL NOT AND SWAP1 DUP4 ISZERO ISZERO MUL OR SWAP1 SSTORE POP CALLVALUE DUP1 ISZERO PUSH2 0xC3 JUMPI PUSH0 PUSH0 REVERT JUMPDEST POP PUSH2 0x3D5 JUMP JUMPDEST PUSH0 DUP2 MLOAD SWAP1 POP SWAP2 SWAP1 POP JUMP JUMPDEST PUSH32 0x4E487B7100000000000000000000000000000000000000000000000000000000 PUSH0 MSTORE PUSH1 0x41 PUSH1 0x4 MSTORE PUSH1 0x24 PUSH0 REVERT JUMPDEST PUSH32 0x4E487B7100000000000000000000000000000000000000000000000000000000 PUSH0 MSTORE PUSH1 0x22 PUSH1 0x4 MSTORE PUSH1 0x24 PUSH0 REVERT JUMPDEST PUSH0 PUSH1 0x2 DUP3 DIV SWAP1 POP PUSH1 0x1 DUP3 AND DUP1 PUSH2 0x144 JUMPI PUSH1 0x7F DUP3 AND SWAP2 POP JUMPDEST PUSH1 0x20 DUP3 LT DUP2 SUB PUSH2 0x157 JUMPI PUSH2 0x156 PUSH2 0x100 JUMP JUMPDEST JUMPDEST POP SWAP2 SWAP1 POP JUMP JUMPDEST PUSH0 DUP2 SWAP1 POP DUP2 PUSH0 MSTORE PUSH1 0x20 PUSH0 KECCAK256 SWAP1 POP SWAP2 SWAP1 POP JUMP JUMPDEST PUSH0 PUSH1 0x20 PUSH1 0x1F DUP4 ADD DIV SWAP1 POP SWAP2 SWAP1 POP JUMP JUMPDEST PUSH0 DUP3 DUP3 SHL SWAP1 POP SWAP3 SWAP2 POP POP JUMP JUMPDEST PUSH0 PUSH1 0x8 DUP4 MUL PUSH2 0x1B9 PUSH32 0xFFFFFFFFFFFFFFFFFFFFFFFFFFFFFFFFFFFFFFFFFFFFFFFFFFFFFFFFFFFFFFFF DUP3 PUSH2 0x17E JUMP JUMPDEST PUSH2 0x1C3 DUP7 DUP4 PUSH2 0x17E JUMP JUMPDEST SWAP6 POP DUP1 NOT DUP5 AND SWAP4 POP DUP1 DUP7 AND DUP5 OR SWAP3 POP POP POP SWAP4 SWAP3 POP POP POP JUMP JUMPDEST PUSH0 DUP2 SWAP1 POP SWAP2 SWAP1 POP JUMP JUMPDEST PUSH0 DUP2 SWAP1 POP SWAP2 SWAP1 POP JUMP JUMPDEST PUSH0 PUSH2 0x207 PUSH2 0x202 PUSH2 0x1FD DUP5 PUSH2 0x1DB JUMP JUMPDEST PUSH2 0x1E4 JUMP JUMPDEST PUSH2 0x1DB JUMP JUMPDEST SWAP1 POP SWAP2 SWAP1 POP JUMP JUMPDEST PUSH0 DUP2 SWAP1 POP SWAP2 SWAP1 POP JUMP JUMPDEST PUSH2 0x220 DUP4 PUSH2 0x1ED JUMP JUMPDEST PUSH2 0x234 PUSH2 0x22C DUP3 PUSH2 0x20E JUMP JUMPDEST DUP5 DUP5 SLOAD PUSH2 0x18A JUMP JUMPDEST DUP3 SSTORE POP POP POP POP JUMP JUMPDEST PUSH0 PUSH0 SWAP1 POP SWAP1 JUMP JUMPDEST PUSH2 0x24B PUSH2 0x23C JUMP JUMPDEST PUSH2 0x256 DUP2 DUP5 DUP5 PUSH2 0x217 JUMP JUMPDEST POP POP POP JUMP JUMPDEST JUMPDEST DUP2 DUP2 LT ISZERO PUSH2 0x279 JUMPI PUSH2 0x26E PUSH0 DUP3 PUSH2 0x243 JUMP JUMPDEST PUSH1 0x1 DUP2 ADD SWAP1 POP PUSH2 0x25C JUMP JUMPDEST POP POP JUMP JUMPDEST PUSH1 0x1F DUP3 GT ISZERO PUSH2 0x2BE JUMPI PUSH2 0x28F DUP2 PUSH2 0x15D JUMP JUMPDEST PUSH2 0x298 DUP5 PUSH2 0x16F JUMP JUMPDEST DUP2 ADD PUSH1 0x20 DUP6 LT ISZERO PUSH2 0x2A7 JUMPI DUP2 SWAP1 POP JUMPDEST PUSH2 0x2BB PUSH2 0x2B3 DUP6 PUSH2 0x16F JUMP JUMPDEST DUP4 ADD DUP3 PUSH2 0x25B JUMP JUMPDEST POP POP JUMPDEST POP POP POP JUMP JUMPDEST PUSH0 DUP3 DUP3 SHR SWAP1 POP SWAP3 SWAP2 POP POP JUMP JUMPDEST PUSH0 PUSH2 0x2DE PUSH0 NOT DUP5 PUSH1 0x8 MUL PUSH2 0x2C3 JUMP JUMPDEST NOT DUP1 DUP4 AND SWAP2 POP POP SWAP3 SWAP2 POP POP JUMP JUMPDEST PUSH0 PUSH2 0x2F6 DUP4 DUP4 PUSH2 0x2CF JUMP JUMPDEST SWAP2 POP DUP3 PUSH1 0x2 MUL DUP3 OR SWAP1 POP SWAP3 SWAP2 POP POP JUMP JUMPDEST PUSH2 0x30F DUP3 PUSH2 0xC9 JUMP JUMPDEST PUSH8 0xFFFFFFFFFFFFFFFF DUP2 GT ISZERO PUSH2 0x328 JUMPI PUSH2 0x327 PUSH2 0xD3 JUMP JUMPDEST JUMPDEST PUSH2 0x332 DUP3 SLOAD PUSH2 0x12D JUMP JUMPDEST PUSH2 0x33D DUP3 DUP3 DUP6 PUSH2 0x27D JUMP JUMPDEST PUSH0 PUSH1 0x20 SWAP1 POP PUSH1 0x1F DUP4 GT PUSH1 0x1 DUP2 EQ PUSH2 0x36E JUMPI PUSH0 DUP5 ISZERO PUSH2 0x35C JUMPI DUP3 DUP8 ADD MLOAD SWAP1 POP JUMPDEST PUSH2 0x366 DUP6 DUP3 PUSH2 0x2EB JUMP JUMPDEST DUP7 SSTORE POP PUSH2 0x3CD JUMP JUMPDEST PUSH1 0x1F NOT DUP5 AND PUSH2 0x37C DUP7 PUSH2 0x15D JUMP JUMPDEST PUSH0 JUMPDEST DUP3 DUP2 LT ISZERO PUSH2 0x3A3 JUMPI DUP5 DUP10 ADD MLOAD DUP3 SSTORE PUSH1 0x1 DUP3 ADD SWAP2 POP PUSH1 0x20 DUP6 ADD SWAP5 POP PUSH1 0x20 DUP2 ADD SWAP1 POP PUSH2 0x37E JUMP JUMPDEST DUP7 DUP4 LT ISZERO PUSH2 0x3C0 JUMPI DUP5 DUP10 ADD MLOAD PUSH2 0x3BC PUSH1 0x1F DUP10 AND DUP3 PUSH2 0x2CF JUMP JUMPDEST DUP4 SSTORE POP JUMPDEST PUSH1 0x1 PUSH1 0x2 DUP9 MUL ADD DUP9 SSTORE POP POP POP JUMPDEST POP POP POP POP POP POP JUMP JUMPDEST PUSH2 0x16FF DUP1 PUSH2 0x3E2 PUSH0 CODECOPY PUSH0 RETURN INVALID PUSH1 0x80 PUSH1 0x40 MSTORE PUSH1 0x4 CALLDATASIZE LT PUSH2 0x129 JUMPI PUSH0 CALLDATALOAD PUSH1 0xE0 SHR DUP1 PUSH4 0x4AD0E590 GT PUSH2 0xAA JUMPI DUP1 PUSH4 0x9799B4E7 GT PUSH2 0x6E JUMPI DUP1 PUSH4 0x9799B4E7 EQ PUSH2 0x3BD JUMPI DUP1 PUSH4 0xB2596A67 EQ PUSH2 0x3F9 JUMPI DUP1 PUSH4 0xB73F7951 EQ PUSH2 0x435 JUMPI DUP1 PUSH4 0xD0E30DB0 EQ PUSH2 0x45F JUMPI DUP1 PUSH4 0xDE0CC45B EQ PUSH2 0x469 JUMPI DUP1 PUSH4 0xFB45373E EQ PUSH2 0x491 JUMPI PUSH2 0x129 JUMP JUMPDEST DUP1 PUSH4 0x4AD0E590 EQ PUSH2 0x2DB JUMPI DUP1 PUSH4 0x65AC2320 EQ PUSH2 0x303 JUMPI DUP1 PUSH4 0x70A93B36 EQ PUSH2 0x32D JUMPI DUP1 PUSH4 0x8D977672 EQ PUSH2 0x355 JUMPI DUP1 PUSH4 0x8DA5CB5B EQ PUSH2 0x393 JUMPI PUSH2 0x129 JUMP JUMPDEST DUP1 PUSH4 0x2CCB1B30 GT PUSH2 0xF1 JUMPI DUP1 PUSH4 0x2CCB1B30 EQ PUSH2 0x211 JUMPI DUP1 PUSH4 0x2E49D78B EQ PUSH2 0x239 JUMPI DUP1 PUSH4 0x3143D082 EQ PUSH2 0x261 JUMPI DUP1 PUSH4 0x354497AA EQ PUSH2 0x289 JUMPI DUP1 PUSH4 0x4A07A248 EQ PUSH2 0x2B1 JUMPI PUSH2 0x129 JUMP JUMPDEST DUP1 PUSH4 0x12065FE0 EQ PUSH2 0x12D JUMPI DUP1 PUSH4 0x12FB1CBD EQ PUSH2 0x157 JUMPI DUP1 PUSH4 0x1D65E77E EQ PUSH2 0x17F JUMPI DUP1 PUSH4 0x20E44E43 EQ PUSH2 0x1BD JUMPI DUP1 PUSH4 0x22F3E2D4 EQ PUSH2 0x1E7 JUMPI JUMPDEST PUSH0 PUSH0 REVERT JUMPDEST CALLVALUE DUP1 ISZERO PUSH2 0x138 JUMPI PUSH0 PUSH0 REVERT JUMPDEST POP PUSH2 0x141 PUSH2 0x4CD JUMP JUMPDEST PUSH1 0x40 MLOAD PUSH2 0x14E SWAP2 SWAP1 PUSH2 0xADD JUMP JUMPDEST PUSH1 0x40 MLOAD DUP1 SWAP2 SUB SWAP1 RETURN JUMPDEST CALLVALUE DUP1 ISZERO PUSH2 0x162 JUMPI PUSH0 PUSH0 REVERT JUMPDEST POP PUSH2 0x17D PUSH1 0x4 DUP1 CALLDATASIZE SUB DUP2 ADD SWAP1 PUSH2 0x178 SWAP2 SWAP1 PUSH2 0xB31 JUMP JUMPDEST PUSH2 0x4D4 JUMP JUMPDEST STOP JUMPDEST CALLVALUE DUP1 ISZERO PUSH2 0x18A JUMPI PUSH0 PUSH0 REVERT JUMPDEST POP PUSH2 0x1A5 PUSH1 0x4 DUP1 CALLDATASIZE SUB DUP2 ADD SWAP1 PUSH2 0x1A0 SWAP2 SWAP1 PUSH2 0xB31 JUMP JUMPDEST PUSH2 0x541 JUMP JUMPDEST PUSH1 0x40 MLOAD PUSH2 0x1B4 SWAP4 SWAP3 SWAP2 SWAP1 PUSH2 0xBE6 JUMP JUMPDEST PUSH1 0x40 MLOAD DUP1 SWAP2 SUB SWAP1 RETURN JUMPDEST CALLVALUE DUP1 ISZERO PUSH2 0x1C8 JUMPI PUSH0 PUSH0 REVERT JUMPDEST POP PUSH2 0x1D1 PUSH2 0x641 JUMP JUMPDEST PUSH1 0x40 MLOAD PUSH2 0x1DE SWAP2 SWAP1 PUSH2 0xC74 JUMP JUMPDEST PUSH1 0x40 MLOAD DUP1 SWAP2 SUB SWAP1 RETURN JUMPDEST CALLVALUE DUP1 ISZERO PUSH2 0x1F2 JUMPI PUSH0 PUSH0 REVERT JUMPDEST POP PUSH2 0x1FB PUSH2 0x6CD JUMP JUMPDEST PUSH1 0x40 MLOAD PUSH2 0x208 SWAP2 SWAP1 PUSH2 0xC94 JUMP JUMPDEST PUSH1 0x40 MLOAD DUP1 SWAP2 SUB SWAP1 RETURN JUMPDEST CALLVALUE DUP1 ISZERO PUSH2 0x21C JUMPI PUSH0 PUSH0 REVERT JUMPDEST POP PUSH2 0x237 PUSH1 0x4 DUP1 CALLDATASIZE SUB DUP2 ADD SWAP1 PUSH2 0x232 SWAP2 SWAP1 PUSH2 0xD07 JUMP JUMPDEST PUSH2 0x6E0 JUMP JUMPDEST STOP JUMPDEST CALLVALUE DUP1 ISZERO PUSH2 0x244 JUMPI PUSH0 PUSH0 REVERT JUMPDEST POP PUSH2 0x25F PUSH1 0x4 DUP1 CALLDATASIZE SUB DUP2 ADD SWAP1 PUSH2 0x25A SWAP2 SWAP1 PUSH2 0xD68 JUMP JUMPDEST PUSH2 0x72D JUMP JUMPDEST STOP JUMPDEST CALLVALUE DUP1 ISZERO PUSH2 0x26C JUMPI PUSH0 PUSH0 REVERT JUMPDEST POP PUSH2 0x287 PUSH1 0x4 DUP1 CALLDATASIZE SUB DUP2 ADD SWAP1 PUSH2 0x282 SWAP2 SWAP1 PUSH2 0xEBF JUMP JUMPDEST PUSH2 0x759 JUMP JUMPDEST STOP JUMPDEST CALLVALUE DUP1 ISZERO PUSH2 0x294 JUMPI PUSH0 PUSH0 REVERT JUMPDEST POP PUSH2 0x2AF PUSH1 0x4 DUP1 CALLDATASIZE SUB DUP2 ADD SWAP1 PUSH2 0x2AA SWAP2 SWAP1 PUSH2 0xFB7 JUMP JUMPDEST PUSH2 0x824 JUMP JUMPDEST STOP JUMPDEST CALLVALUE DUP1 ISZERO PUSH2 0x2BC JUMPI PUSH0 PUSH0 REVERT JUMPDEST POP PUSH2 0x2C5 PUSH2 0x837 JUMP JUMPDEST PUSH1 0x40 MLOAD PUSH2 0x2D2 SWAP2 SWAP1 PUSH2 0xADD JUMP JUMPDEST PUSH1 0x40 MLOAD DUP1 SWAP2 SUB SWAP1 RETURN JUMPDEST CALLVALUE DUP1 ISZERO PUSH2 0x2E6 JUMPI PUSH0 PUSH0 REVERT JUMPDEST POP PUSH2 0x301 PUSH1 0x4 DUP1 CALLDATASIZE SUB DUP2 ADD SWAP1 PUSH2 0x2FC SWAP2 SWAP1 PUSH2 0xB31 JUMP JUMPDEST PUSH2 0x843 JUMP JUMPDEST STOP JUMPDEST CALLVALUE DUP1 ISZERO PUSH2 0x30E JUMPI PUSH0 PUSH0 REVERT JUMPDEST POP PUSH2 0x317 PUSH2 0x880 JUMP JUMPDEST PUSH1 0x40 MLOAD PUSH2 0x324 SWAP2 SWAP1 PUSH2 0xFFE JUMP JUMPDEST PUSH1 0x40 MLOAD DUP1 SWAP2 SUB SWAP1 RETURN JUMPDEST CALLVALUE DUP1 ISZERO PUSH2 0x338 JUMPI PUSH0 PUSH0 REVERT JUMPDEST POP PUSH2 0x353 PUSH1 0x4 DUP1 CALLDATASIZE SUB DUP2 ADD SWAP1 PUSH2 0x34E SWAP2 SWAP1 PUSH2 0x101E JUMP JUMPDEST PUSH2 0x90C JUMP JUMPDEST STOP JUMPDEST CALLVALUE DUP1 ISZERO PUSH2 0x360 JUMPI PUSH0 PUSH0 REVERT JUMPDEST POP PUSH2 0x37B PUSH1 0x4 DUP1 CALLDATASIZE SUB DUP2 ADD SWAP1 PUSH2 0x376 SWAP2 SWAP1 PUSH2 0xB31 JUMP JUMPDEST PUSH2 0x92A JUMP JUMPDEST PUSH1 0x40 MLOAD PUSH2 0x38A SWAP4 SWAP3 SWAP2 SWAP1 PUSH2 0xBE6 JUMP JUMPDEST PUSH1 0x40 MLOAD DUP1 SWAP2 SUB SWAP1 RETURN JUMPDEST CALLVALUE DUP1 ISZERO PUSH2 0x39E JUMPI PUSH0 PUSH0 REVERT JUMPDEST POP PUSH2 0x3A7 PUSH2 0x9F0 JUMP JUMPDEST PUSH1 0x40 MLOAD PUSH2 0x3B4 SWAP2 SWAP1 PUSH2 0x106B JUMP JUMPDEST PUSH1 0x40 MLOAD DUP1 SWAP2 SUB SWAP1 RETURN JUMPDEST CALLVALUE DUP1 ISZERO PUSH2 0x3C8 JUMPI PUSH0 PUSH0 REVERT JUMPDEST POP PUSH2 0x3E3 PUSH1 0x4 DUP1 CALLDATASIZE SUB DUP2 ADD SWAP1 PUSH2 0x3DE SWAP2 SWAP1 PUSH2 0xB31 JUMP JUMPDEST PUSH2 0xA15 JUMP JUMPDEST PUSH1 0x40 MLOAD PUSH2 0x3F0 SWAP2 SWAP1 PUSH2 0xADD JUMP JUMPDEST PUSH1 0x40 MLOAD DUP1 SWAP2 SUB SWAP1 RETURN JUMPDEST CALLVALUE DUP1 ISZERO PUSH2 0x404 JUMPI PUSH0 PUSH0 REVERT JUMPDEST POP PUSH2 0x41F PUSH1 0x4 DUP1 CALLDATASIZE SUB DUP2 ADD SWAP1 PUSH2 0x41A SWAP2 SWAP1 PUSH2 0xB31 JUMP JUMPDEST PUSH2 0xA35 JUMP JUMPDEST PUSH1 0x40 MLOAD PUSH2 0x42C SWAP2 SWAP1 PUSH2 0xADD JUMP JUMPDEST PUSH1 0x40 MLOAD DUP1 SWAP2 SUB SWAP1 RETURN JUMPDEST CALLVALUE DUP1 ISZERO PUSH2 0x440 JUMPI PUSH0 PUSH0 REVERT JUMPDEST POP PUSH2 0x449 PUSH2 0xA4E JUMP JUMPDEST PUSH1 0x40 MLOAD PUSH2 0x456 SWAP2 SWAP1 PUSH2 0x10F7 JUMP JUMPDEST PUSH1 0x40 MLOAD DUP1 SWAP2 SUB SWAP1 RETURN JUMPDEST PUSH2 0x467 PUSH2 0xA60 JUMP JUMPDEST STOP JUMPDEST CALLVALUE DUP1 ISZERO PUSH2 0x474 JUMPI PUSH0 PUSH0 REVERT JUMPDEST POP PUSH2 0x48F PUSH1 0x4 DUP1 CALLDATASIZE SUB DUP2 ADD SWAP1 PUSH2 0x48A SWAP2 SWAP1 PUSH2 0x1110 JUMP JUMPDEST PUSH2 0xA62 JUMP JUMPDEST STOP JUMPDEST CALLVALUE DUP1 ISZERO PUSH2 0x49C JUMPI PUSH0 PUSH0 REVERT JUMPDEST POP PUSH2 0x4B7 PUSH1 0x4 DUP1 CALLDATASIZE SUB DUP2 ADD SWAP1 PUSH2 0x4B2 SWAP2 SWAP1 PUSH2 0x1110 JUMP JUMPDEST PUSH2 0xA98 JUMP JUMPDEST PUSH1 0x40 MLOAD PUSH2 0x4C4 SWAP2 SWAP1 PUSH2 0xADD JUMP JUMPDEST PUSH1 0x40 MLOAD DUP1 SWAP2 SUB SWAP1 RETURN JUMPDEST PUSH0 SELFBALANCE SWAP1 POP SWAP1 JUMP JUMPDEST PUSH1 0x64 DUP2 GT ISZERO PUSH2 0x518 JUMPI PUSH1 0x40 MLOAD PUSH32 0x8C379A000000000000000000000000000000000000000000000000000000000 DUP2 MSTORE PUSH1 0x4 ADD PUSH2 0x50F SWAP1 PUSH2 0x11C7 JUMP JUMPDEST PUSH1 0x40 MLOAD DUP1 SWAP2 SUB SWAP1 REVERT JUMPDEST PUSH1 0xA DUP2 SWAP1 DUP1 PUSH1 0x1 DUP2 SLOAD ADD DUP1 DUP3 SSTORE DUP1 SWAP2 POP POP PUSH1 0x1 SWAP1 SUB SWAP1 PUSH0 MSTORE PUSH1 0x20 PUSH0 KECCAK256 ADD PUSH0 SWAP1 SWAP2 SWAP1 SWAP2 SWAP1 SWAP2 POP SSTORE POP JUMP JUMPDEST PUSH1 0x60 PUSH0 PUSH0 PUSH0 PUSH0 DUP6 DUP2 SLOAD DUP2 LT PUSH2 0x559 JUMPI PUSH2 0x558 PUSH2 0x11E5 JUMP JUMPDEST JUMPDEST SWAP1 PUSH0 MSTORE PUSH1 0x20 PUSH0 KECCAK256 SWAP1 PUSH1 0x3 MUL ADD PUSH1 0x40 MLOAD DUP1 PUSH1 0x60 ADD PUSH1 0x40 MSTORE SWAP1 DUP2 PUSH0 DUP3 ADD DUP1 SLOAD PUSH2 0x57F SWAP1 PUSH2 0x123F JUMP JUMPDEST DUP1 PUSH1 0x1F ADD PUSH1 0x20 DUP1 SWAP2 DIV MUL PUSH1 0x20 ADD PUSH1 0x40 MLOAD SWAP1 DUP2 ADD PUSH1 0x40 MSTORE DUP1 SWAP3 SWAP2 SWAP1 DUP2 DUP2 MSTORE PUSH1 0x20 ADD DUP3 DUP1 SLOAD PUSH2 0x5AB SWAP1 PUSH2 0x123F JUMP JUMPDEST DUP1 ISZERO PUSH2 0x5F6 JUMPI DUP1 PUSH1 0x1F LT PUSH2 0x5CD JUMPI PUSH2 0x100 DUP1 DUP4 SLOAD DIV MUL DUP4 MSTORE SWAP2 PUSH1 0x20 ADD SWAP2 PUSH2 0x5F6 JUMP JUMPDEST DUP3 ADD SWAP2 SWAP1 PUSH0 MSTORE PUSH1 0x20 PUSH0 KECCAK256 SWAP1 JUMPDEST DUP2 SLOAD DUP2 MSTORE SWAP1 PUSH1 0x1 ADD SWAP1 PUSH1 0x20 ADD DUP1 DUP4 GT PUSH2 0x5D9 JUMPI DUP3 SWAP1 SUB PUSH1 0x1F AND DUP3 ADD SWAP2 JUMPDEST POP POP POP POP POP DUP2 MSTORE PUSH1 0x20 ADD PUSH1 0x1 DUP3 ADD PUSH0 SWAP1 SLOAD SWAP1 PUSH2 0x100 EXP SWAP1 DIV PUSH1 0xFF AND ISZERO ISZERO ISZERO ISZERO DUP2 MSTORE PUSH1 0x20 ADD PUSH1 0x2 DUP3 ADD SLOAD DUP2 MSTORE POP POP SWAP1 POP DUP1 PUSH0 ADD MLOAD DUP2 PUSH1 0x20 ADD MLOAD DUP3 PUSH1 0x40 ADD MLOAD SWAP4 POP SWAP4 POP SWAP4 POP POP SWAP2 SWAP4 SWAP1 SWAP3 POP JUMP JUMPDEST PUSH1 0x1 DUP1 SLOAD PUSH2 0x64E SWAP1 PUSH2 0x123F JUMP JUMPDEST DUP1 PUSH1 0x1F ADD PUSH1 0x20 DUP1 SWAP2 DIV MUL PUSH1 0x20 ADD PUSH1 0x40 MLOAD SWAP1 DUP2 ADD PUSH1 0x40 MSTORE DUP1 SWAP3 SWAP2 SWAP1 DUP2 DUP2 MSTORE PUSH1 0x20 ADD DUP3 DUP1 SLOAD PUSH2 0x67A SWAP1 PUSH2 0x123F JUMP JUMPDEST DUP1 ISZERO PUSH2 0x6C5 JUMPI DUP1 PUSH1 0x1F LT PUSH2 0x69C JUMPI PUSH2 0x100 DUP1 DUP4 SLOAD DIV MUL DUP4 MSTORE SWAP2 PUSH1 0x20 ADD SWAP2 PUSH2 0x6C5 JUMP JUMPDEST DUP3 ADD SWAP2 SWAP1 PUSH0 MSTORE PUSH1 0x20 PUSH0 KECCAK256 SWAP1 JUMPDEST DUP2 SLOAD DUP2 MSTORE SWAP1 PUSH1 0x1 ADD SWAP1 PUSH1 0x20 ADD DUP1 DUP4 GT PUSH2 0x6A8 JUMPI DUP3 SWAP1 SUB PUSH1 0x1F AND DUP3 ADD SWAP2 JUMPDEST POP POP POP POP POP DUP2 JUMP JUMPDEST PUSH1 0x3 PUSH1 0x14 SWAP1 SLOAD SWAP1 PUSH2 0x100 EXP SWAP1 DIV PUSH1 0xFF AND DUP2 JUMP JUMPDEST PUSH0 DUP3 SWAP1 POP DUP1 PUSH20 0xFFFFFFFFFFFFFFFFFFFFFFFFFFFFFFFFFFFFFFFF AND PUSH2 0x8FC DUP4 SWAP1 DUP2 ISZERO MUL SWAP1 PUSH1 0x40 MLOAD PUSH0 PUSH1 0x40 MLOAD DUP1 DUP4 SUB DUP2 DUP6 DUP9 DUP9 CALL SWAP4 POP POP POP POP ISZERO DUP1 ISZERO PUSH2 0x727 JUMPI RETURNDATASIZE PUSH0 PUSH0 RETURNDATACOPY RETURNDATASIZE PUSH0 REVERT JUMPDEST POP POP POP POP JUMP JUMPDEST DUP1 PUSH1 0xB PUSH0 PUSH2 0x100 EXP DUP2 SLOAD DUP2 PUSH1 0xFF MUL NOT AND SWAP1 DUP4 PUSH1 0x2 DUP2 GT ISZERO PUSH2 0x751 JUMPI PUSH2 0x750 PUSH2 0x1084 JUMP JUMPDEST JUMPDEST MUL OR SWAP1 SSTORE POP POP JUMP JUMPDEST PUSH1 0x64 DUP2 GT ISZERO PUSH2 0x79D JUMPI PUSH1 0x40 MLOAD PUSH32 0x8C379A000000000000000000000000000000000000000000000000000000000 DUP2 MSTORE PUSH1 0x4 ADD PUSH2 0x794 SWAP1 PUSH2 0x11C7 JUMP JUMPDEST PUSH1 0x40 MLOAD DUP1 SWAP2 SUB SWAP1 REVERT JUMPDEST PUSH0 PUSH1 0x40 MLOAD DUP1 PUSH1 0x60 ADD PUSH1 0x40 MSTORE DUP1 DUP5 DUP2 MSTORE PUSH1 0x20 ADD PUSH0 ISZERO ISZERO DUP2 MSTORE PUSH1 0x20 ADD DUP4 DUP2 MSTORE POP SWAP1 DUP1 PUSH1 0x1 DUP2 SLOAD ADD DUP1 DUP3 SSTORE DUP1 SWAP2 POP POP PUSH1 0x1 SWAP1 SUB SWAP1 PUSH0 MSTORE PUSH1 0x20 PUSH0 KECCAK256 SWAP1 PUSH1 0x3 MUL ADD PUSH0 SWAP1 SWAP2 SWAP1 SWAP2 SWAP1 SWAP2 POP PUSH0 DUP3 ADD MLOAD DUP2 PUSH0 ADD SWAP1 DUP2 PUSH2 0x7F4 SWAP2 SWAP1 PUSH2 0x140F JUMP JUMPDEST POP PUSH1 0x20 DUP3 ADD MLOAD DUP2 PUSH1 0x1 ADD PUSH0 PUSH2 0x100 EXP DUP2 SLOAD DUP2 PUSH1 0xFF MUL NOT AND SWAP1 DUP4 ISZERO ISZERO MUL OR SWAP1 SSTORE POP PUSH1 0x40 DUP3 ADD MLOAD DUP2 PUSH1 0x2 ADD SSTORE POP POP POP POP JUMP JUMPDEST DUP1 PUSH1 0x1 SWAP1 DUP2 PUSH2 0x833 SWAP2 SWAP1 PUSH2 0x1536 JUMP JUMPDEST POP POP JUMP JUMPDEST PUSH0 PUSH1 0xA DUP1 SLOAD SWAP1 POP SWAP1 POP SWAP1 JUMP JUMPDEST PUSH1 0x1 PUSH0 DUP3 DUP2 SLOAD DUP2 LT PUSH2 0x858 JUMPI PUSH2 0x857 PUSH2 0x11E5 JUMP JUMPDEST JUMPDEST SWAP1 PUSH0 MSTORE PUSH1 0x20 PUSH0 KECCAK256 SWAP1 PUSH1 0x3 MUL ADD PUSH1 0x1 ADD PUSH0 PUSH2 0x100 EXP DUP2 SLOAD DUP2 PUSH1 0xFF MUL NOT AND SWAP1 DUP4 ISZERO ISZERO MUL OR SWAP1 SSTORE POP POP JUMP JUMPDEST PUSH1 0x2 DUP1 SLOAD PUSH2 0x88D SWAP1 PUSH2 0x123F JUMP JUMPDEST DUP1 PUSH1 0x1F ADD PUSH1 0x20 DUP1 SWAP2 DIV MUL PUSH1 0x20 ADD PUSH1 0x40 MLOAD SWAP1 DUP2 ADD PUSH1 0x40 MSTORE DUP1 SWAP3 SWAP2 SWAP1 DUP2 DUP2 MSTORE PUSH1 0x20 ADD DUP3 DUP1 SLOAD PUSH2 0x8B9 SWAP1 PUSH2 0x123F JUMP JUMPDEST DUP1 ISZERO PUSH2 0x904 JUMPI DUP1 PUSH1 0x1F LT PUSH2 0x8DB JUMPI PUSH2 0x100 DUP1 DUP4 SLOAD DIV MUL DUP4 MSTORE SWAP2 PUSH1 0x20 ADD SWAP2 PUSH2 0x904 JUMP JUMPDEST DUP3 ADD SWAP2 SWAP1 PUSH0 MSTORE PUSH1 0x20 PUSH0 KECCAK256 SWAP1 JUMPDEST DUP2 SLOAD DUP2 MSTORE SWAP1 PUSH1 0x1 ADD SWAP1 PUSH1 0x20 ADD DUP1 DUP4 GT PUSH2 0x8E7 JUMPI DUP3 SWAP1 SUB PUSH1 0x1F AND DUP3 ADD SWAP2 JUMPDEST POP POP POP POP POP DUP2 JUMP JUMPDEST DUP1 PUSH1 0x5 DUP4 PUSH1 0x5 DUP2 LT PUSH2 0x921 JUMPI PUSH2 0x920 PUSH2 0x11E5 JUMP JUMPDEST JUMPDEST ADD DUP2 SWAP1 SSTORE POP POP POP JUMP JUMPDEST PUSH0 DUP2 DUP2 SLOAD DUP2 LT PUSH2 0x938 JUMPI PUSH0 DUP1 REVERT JUMPDEST SWAP1 PUSH0 MSTORE PUSH1 0x20 PUSH0 KECCAK256 SWAP1 PUSH1 0x3 MUL ADD PUSH0 SWAP2 POP SWAP1 POP DUP1 PUSH0 ADD DUP1 SLOAD PUSH2 0x957 SWAP1 PUSH2 0x123F JUMP JUMPDEST DUP1 PUSH1 0x1F ADD PUSH1 0x20 DUP1 SWAP2 DIV MUL PUSH1 0x20 ADD PUSH1 0x40 MLOAD SWAP1 DUP2 ADD PUSH1 0x40 MSTORE DUP1 SWAP3 SWAP2 SWAP1 DUP2 DUP2 MSTORE PUSH1 0x20 ADD DUP3 DUP1 SLOAD PUSH2 0x983 SWAP1 PUSH2 0x123F JUMP JUMPDEST DUP1 ISZERO PUSH2 0x9CE JUMPI DUP1 PUSH1 0x1F LT PUSH2 0x9A5 JUMPI PUSH2 0x100 DUP1 DUP4 SLOAD DIV MUL DUP4 MSTORE SWAP2 PUSH1 0x20 ADD SWAP2 PUSH2 0x9CE JUMP JUMPDEST DUP3 ADD SWAP2 SWAP1 PUSH0 MSTORE PUSH1 0x20 PUSH0 KECCAK256 SWAP1 JUMPDEST DUP2 SLOAD DUP2 MSTORE SWAP1 PUSH1 0x1 ADD SWAP1 PUSH1 0x20 ADD DUP1 DUP4 GT PUSH2 0x9B1 JUMPI DUP3 SWAP1 SUB PUSH1 0x1F AND DUP3 ADD SWAP2 JUMPDEST POP POP POP POP POP SWAP1 DUP1 PUSH1 0x1 ADD PUSH0 SWAP1 SLOAD SWAP1 PUSH2 0x100 EXP SWAP1 DIV PUSH1 0xFF AND SWAP1 DUP1 PUSH1 0x2 ADD SLOAD SWAP1 POP DUP4 JUMP JUMPDEST PUSH1 0x3 PUSH0 SWAP1 SLOAD SWAP1 PUSH2 0x100 EXP SWAP1 DIV PUSH20 0xFFFFFFFFFFFFFFFFFFFFFFFFFFFFFFFFFFFFFFFF AND DUP2 JUMP JUMPDEST PUSH1 0xA DUP2 DUP2 SLOAD DUP2 LT PUSH2 0xA24 JUMPI PUSH0 DUP1 REVERT JUMPDEST SWAP1 PUSH0 MSTORE PUSH1 0x20 PUSH0 KECCAK256 ADD PUSH0 SWAP2 POP SWAP1 POP SLOAD DUP2 JUMP JUMPDEST PUSH1 0x5 DUP2 PUSH1 0x5 DUP2 LT PUSH2 0xA44 JUMPI PUSH0 DUP1 REVERT JUMPDEST ADD PUSH0 SWAP2 POP SWAP1 POP SLOAD DUP2 JUMP JUMPDEST PUSH1 0xB PUSH0 SWAP1 SLOAD SWAP1 PUSH2 0x100 EXP SWAP1 DIV PUSH1 0xFF AND DUP2 JUMP JUMPDEST JUMP JUMPDEST PUSH1 0x4 DUP2 PUSH1 0x40 MLOAD PUSH2 0xA72 SWAP2 SWAP1 PUSH2 0x163F JUMP JUMPDEST SWAP1 DUP2 MSTORE PUSH1 0x20 ADD PUSH1 0x40 MLOAD DUP1 SWAP2 SUB SWAP1 KECCAK256 PUSH0 DUP2 SLOAD DUP1 SWAP3 SWAP2 SWAP1 PUSH2 0xA90 SWAP1 PUSH2 0x1682 JUMP JUMPDEST SWAP2 SWAP1 POP SSTORE POP POP JUMP JUMPDEST PUSH1 0x4 DUP2 DUP1 MLOAD PUSH1 0x20 DUP2 ADD DUP3 ADD DUP1 MLOAD DUP5 DUP3 MSTORE PUSH1 0x20 DUP4 ADD PUSH1 0x20 DUP6 ADD KECCAK256 DUP2 DUP4 MSTORE DUP1 SWAP6 POP POP POP POP POP POP PUSH0 SWAP2 POP SWAP1 POP SLOAD DUP2 JUMP JUMPDEST PUSH0 DUP2 SWAP1 POP SWAP2 SWAP1 POP JUMP JUMPDEST PUSH2 0xAD7 DUP2 PUSH2 0xAC5 JUMP JUMPDEST DUP3 MSTORE POP POP JUMP JUMPDEST PUSH0 PUSH1 0x20 DUP3 ADD SWAP1 POP PUSH2 0xAF0 PUSH0 DUP4 ADD DUP5 PUSH2 0xACE JUMP JUMPDEST SWAP3 SWAP2 POP POP JUMP JUMPDEST PUSH0 PUSH1 0x40 MLOAD SWAP1 POP SWAP1 JUMP JUMPDEST PUSH0 PUSH0 REVERT JUMPDEST PUSH0 PUSH0 REVERT JUMPDEST PUSH2 0xB10 DUP2 PUSH2 0xAC5 JUMP JUMPDEST DUP2 EQ PUSH2 0xB1A JUMPI PUSH0 PUSH0 REVERT JUMPDEST POP JUMP JUMPDEST PUSH0 DUP2 CALLDATALOAD SWAP1 POP PUSH2 0xB2B DUP2 PUSH2 0xB07 JUMP JUMPDEST SWAP3 SWAP2 POP POP JUMP JUMPDEST PUSH0 PUSH1 0x20 DUP3 DUP5 SUB SLT ISZERO PUSH2 0xB46 JUMPI PUSH2 0xB45 PUSH2 0xAFF JUMP JUMPDEST JUMPDEST PUSH0 PUSH2 0xB53 DUP5 DUP3 DUP6 ADD PUSH2 0xB1D JUMP JUMPDEST SWAP2 POP POP SWAP3 SWAP2 POP POP JUMP JUMPDEST PUSH0 DUP2 MLOAD SWAP1 POP SWAP2 SWAP1 POP JUMP JUMPDEST PUSH0 DUP3 DUP3 MSTORE PUSH1 0x20 DUP3 ADD SWAP1 POP SWAP3 SWAP2 POP POP JUMP JUMPDEST DUP3 DUP2 DUP4 MCOPY PUSH0 DUP4 DUP4 ADD MSTORE POP POP POP JUMP JUMPDEST PUSH0 PUSH1 0x1F NOT PUSH1 0x1F DUP4 ADD AND SWAP1 POP SWAP2 SWAP1 POP JUMP JUMPDEST PUSH0 PUSH2 0xB9E DUP3 PUSH2 0xB5C JUMP JUMPDEST PUSH2 0xBA8 DUP2 DUP6 PUSH2 0xB66 JUMP JUMPDEST SWAP4 POP PUSH2 0xBB8 DUP2 DUP6 PUSH1 0x20 DUP7 ADD PUSH2 0xB76 JUMP JUMPDEST PUSH2 0xBC1 DUP2 PUSH2 0xB84 JUMP JUMPDEST DUP5 ADD SWAP2 POP POP SWAP3 SWAP2 POP POP JUMP JUMPDEST PUSH0 DUP2 ISZERO ISZERO SWAP1 POP SWAP2 SWAP1 POP JUMP JUMPDEST PUSH2 0xBE0 DUP2 PUSH2 0xBCC JUMP JUMPDEST DUP3 MSTORE POP POP JUMP JUMPDEST PUSH0 PUSH1 0x60 DUP3 ADD SWAP1 POP DUP2 DUP2 SUB PUSH0 DUP4 ADD MSTORE PUSH2 0xBFE DUP2 DUP7 PUSH2 0xB94 JUMP JUMPDEST SWAP1 POP PUSH2 0xC0D PUSH1 0x20 DUP4 ADD DUP6 PUSH2 0xBD7 JUMP JUMPDEST PUSH2 0xC1A PUSH1 0x40 DUP4 ADD DUP5 PUSH2 0xACE JUMP JUMPDEST SWAP5 SWAP4 POP POP POP POP JUMP JUMPDEST PUSH0 DUP2 MLOAD SWAP1 POP SWAP2 SWAP1 POP JUMP JUMPDEST PUSH0 DUP3 DUP3 MSTORE PUSH1 0x20 DUP3 ADD SWAP1 POP SWAP3 SWAP2 POP POP JUMP JUMPDEST PUSH0 PUSH2 0xC46 DUP3 PUSH2 0xC22 JUMP JUMPDEST PUSH2 0xC50 DUP2 DUP6 PUSH2 0xC2C JUMP JUMPDEST SWAP4 POP PUSH2 0xC60 DUP2 DUP6 PUSH1 0x20 DUP7 ADD PUSH2 0xB76 JUMP JUMPDEST PUSH2 0xC69 DUP2 PUSH2 0xB84 JUMP JUMPDEST DUP5 ADD SWAP2 POP POP SWAP3 SWAP2 POP POP JUMP JUMPDEST PUSH0 PUSH1 0x20 DUP3 ADD SWAP1 POP DUP2 DUP2 SUB PUSH0 DUP4 ADD MSTORE PUSH2 0xC8C DUP2 DUP5 PUSH2 0xC3C JUMP JUMPDEST SWAP1 POP SWAP3 SWAP2 POP POP JUMP JUMPDEST PUSH0 PUSH1 0x20 DUP3 ADD SWAP1 POP PUSH2 0xCA7 PUSH0 DUP4 ADD DUP5 PUSH2 0xBD7 JUMP JUMPDEST SWAP3 SWAP2 POP POP JUMP JUMPDEST PUSH0 PUSH20 0xFFFFFFFFFFFFFFFFFFFFFFFFFFFFFFFFFFFFFFFF DUP3 AND SWAP1 POP SWAP2 SWAP1 POP JUMP JUMPDEST PUSH0 PUSH2 0xCD6 DUP3 PUSH2 0xCAD JUMP JUMPDEST SWAP1 POP SWAP2 SWAP1 POP JUMP JUMPDEST PUSH2 0xCE6 DUP2 PUSH2 0xCCC JUMP JUMPDEST DUP2 EQ PUSH2 0xCF0 JUMPI PUSH0 PUSH0 REVERT JUMPDEST POP JUMP JUMPDEST PUSH0 DUP2 CALLDATALOAD SWAP1 POP PUSH2 0xD01 DUP2 PUSH2 0xCDD JUMP JUMPDEST SWAP3 SWAP2 POP POP JUMP JUMPDEST PUSH0 PUSH0 PUSH1 0x40 DUP4 DUP6 SUB SLT ISZERO PUSH2 0xD1D JUMPI PUSH2 0xD1C PUSH2 0xAFF JUMP JUMPDEST JUMPDEST PUSH0 PUSH2 0xD2A DUP6 DUP3 DUP7 ADD PUSH2 0xCF3 JUMP JUMPDEST SWAP3 POP POP PUSH1 0x20 PUSH2 0xD3B DUP6 DUP3 DUP7 ADD PUSH2 0xB1D JUMP JUMPDEST SWAP2 POP POP SWAP3 POP SWAP3 SWAP1 POP JUMP JUMPDEST PUSH1 0x3 DUP2 LT PUSH2 0xD51 JUMPI PUSH0 PUSH0 REVERT JUMPDEST POP JUMP JUMPDEST PUSH0 DUP2 CALLDATALOAD SWAP1 POP PUSH2 0xD62 DUP2 PUSH2 0xD45 JUMP JUMPDEST SWAP3 SWAP2 POP POP JUMP JUMPDEST PUSH0 PUSH1 0x20 DUP3 DUP5 SUB SLT ISZERO PUSH2 0xD7D JUMPI PUSH2 0xD7C PUSH2 0xAFF JUMP JUMPDEST JUMPDEST PUSH0 PUSH2 0xD8A DUP5 DUP3 DUP6 ADD PUSH2 0xD54 JUMP JUMPDEST SWAP2 POP POP SWAP3 SWAP2 POP POP JUMP JUMPDEST PUSH0 PUSH0 REVERT JUMPDEST PUSH0 PUSH0 REVERT JUMPDEST PUSH32 0x4E487B7100000000000000000000000000000000000000000000000000000000 PUSH0 MSTORE PUSH1 0x41 PUSH1 0x4 MSTORE PUSH1 0x24 PUSH0 REVERT JUMPDEST PUSH2 0xDD1 DUP3 PUSH2 0xB84 JUMP JUMPDEST DUP2 ADD DUP2 DUP2 LT PUSH8 0xFFFFFFFFFFFFFFFF DUP3 GT OR ISZERO PUSH2 0xDF0 JUMPI PUSH2 0xDEF PUSH2 0xD9B JUMP JUMPDEST JUMPDEST DUP1 PUSH1 0x40 MSTORE POP POP POP JUMP JUMPDEST PUSH0 PUSH2 0xE02 PUSH2 0xAF6 JUMP JUMPDEST SWAP1 POP PUSH2 0xE0E DUP3 DUP3 PUSH2 0xDC8 JUMP JUMPDEST SWAP2 SWAP1 POP JUMP JUMPDEST PUSH0 PUSH8 0xFFFFFFFFFFFFFFFF DUP3 GT ISZERO PUSH2 0xE2D JUMPI PUSH2 0xE2C PUSH2 0xD9B JUMP JUMPDEST JUMPDEST PUSH2 0xE36 DUP3 PUSH2 0xB84 JUMP JUMPDEST SWAP1 POP PUSH1 0x20 DUP2 ADD SWAP1 POP SWAP2 SWAP1 POP JUMP JUMPDEST DUP3 DUP2 DUP4 CALLDATACOPY PUSH0 DUP4 DUP4 ADD MSTORE POP POP POP JUMP JUMPDEST PUSH0 PUSH2 0xE63 PUSH2 0xE5E DUP5 PUSH2 0xE13 JUMP JUMPDEST PUSH2 0xDF9 JUMP JUMPDEST SWAP1 POP DUP3 DUP2 MSTORE PUSH1 0x20 DUP2 ADD DUP5 DUP5 DUP5 ADD GT ISZERO PUSH2 0xE7F JUMPI PUSH2 0xE7E PUSH2 0xD97 JUMP JUMPDEST JUMPDEST PUSH2 0xE8A DUP5 DUP3 DUP6 PUSH2 0xE43 JUMP JUMPDEST POP SWAP4 SWAP3 POP POP POP JUMP JUMPDEST PUSH0 DUP3 PUSH1 0x1F DUP4 ADD SLT PUSH2 0xEA6 JUMPI PUSH2 0xEA5 PUSH2 0xD93 JUMP JUMPDEST JUMPDEST DUP2 CALLDATALOAD PUSH2 0xEB6 DUP5 DUP3 PUSH1 0x20 DUP7 ADD PUSH2 0xE51 JUMP JUMPDEST SWAP2 POP POP SWAP3 SWAP2 POP POP JUMP JUMPDEST PUSH0 PUSH0 PUSH1 0x40 DUP4 DUP6 SUB SLT ISZERO PUSH2 0xED5 JUMPI PUSH2 0xED4 PUSH2 0xAFF JUMP JUMPDEST JUMPDEST PUSH0 DUP4 ADD CALLDATALOAD PUSH8 0xFFFFFFFFFFFFFFFF DUP2 GT ISZERO PUSH2 0xEF2 JUMPI PUSH2 0xEF1 PUSH2 0xB03 JUMP JUMPDEST JUMPDEST PUSH2 0xEFE DUP6 DUP3 DUP7 ADD PUSH2 0xE92 JUMP JUMPDEST SWAP3 POP POP PUSH1 0x20 PUSH2 0xF0F DUP6 DUP3 DUP7 ADD PUSH2 0xB1D JUMP JUMPDEST SWAP2 POP POP SWAP3 POP SWAP3 SWAP1 POP JUMP JUMPDEST PUSH0 PUSH8 0xFFFFFFFFFFFFFFFF DUP3 GT ISZERO PUSH2 0xF33 JUMPI PUSH2 0xF32 PUSH2 0xD9B JUMP JUMPDEST JUMPDEST PUSH2 0xF3C DUP3 PUSH2 0xB84 JUMP JUMPDEST SWAP1 POP PUSH1 0x20 DUP2 ADD SWAP1 POP SWAP2 SWAP1 POP JUMP JUMPDEST PUSH0 PUSH2 0xF5B PUSH2 0xF56 DUP5 PUSH2 0xF19 JUMP JUMPDEST PUSH2 0xDF9 JUMP JUMPDEST SWAP1 POP DUP3 DUP2 MSTORE PUSH1 0x20 DUP2 ADD DUP5 DUP5 DUP5 ADD GT ISZERO PUSH2 0xF77 JUMPI PUSH2 0xF76 PUSH2 0xD97 JUMP JUMPDEST JUMPDEST PUSH2 0xF82 DUP5 DUP3 DUP6 PUSH2 0xE43 JUMP JUMPDEST POP SWAP4 SWAP3 POP POP POP JUMP JUMPDEST PUSH0 DUP3 PUSH1 0x1F DUP4 ADD SLT PUSH2 0xF9E JUMPI PUSH2 0xF9D PUSH2 0xD93 JUMP JUMPDEST JUMPDEST DUP2 CALLDATALOAD PUSH2 0xFAE DUP5 DUP3 PUSH1 0x20 DUP7 ADD PUSH2 0xF49 JUMP JUMPDEST SWAP2 POP POP SWAP3 SWAP2 POP POP JUMP JUMPDEST PUSH0 PUSH1 0x20 DUP3 DUP5 SUB SLT ISZERO PUSH2 0xFCC JUMPI PUSH2 0xFCB PUSH2 0xAFF JUMP JUMPDEST JUMPDEST PUSH0 DUP3 ADD CALLDATALOAD PUSH8 0xFFFFFFFFFFFFFFFF DUP2 GT ISZERO PUSH2 0xFE9 JUMPI PUSH2 0xFE8 PUSH2 0xB03 JUMP JUMPDEST JUMPDEST PUSH2 0xFF5 DUP5 DUP3 DUP6 ADD PUSH2 0xF8A JUMP JUMPDEST SWAP2 POP POP SWAP3 SWAP2 POP POP JUMP JUMPDEST PUSH0 PUSH1 0x20 DUP3 ADD SWAP1 POP DUP2 DUP2 SUB PUSH0 DUP4 ADD MSTORE PUSH2 0x1016 DUP2 DUP5 PUSH2 0xB94 JUMP JUMPDEST SWAP1 POP SWAP3 SWAP2 POP POP JUMP JUMPDEST PUSH0 PUSH0 PUSH1 0x40 DUP4 DUP6 SUB SLT ISZERO PUSH2 0x1034 JUMPI PUSH2 0x1033 PUSH2 0xAFF JUMP JUMPDEST JUMPDEST PUSH0 PUSH2 0x1041 DUP6 DUP3 DUP7 ADD PUSH2 0xB1D JUMP JUMPDEST SWAP3 POP POP PUSH1 0x20 PUSH2 0x1052 DUP6 DUP3 DUP7 ADD PUSH2 0xB1D JUMP JUMPDEST SWAP2 POP POP SWAP3 POP SWAP3 SWAP1 POP JUMP JUMPDEST PUSH2 0x1065 DUP2 PUSH2 0xCCC JUMP JUMPDEST DUP3 MSTORE POP POP JUMP JUMPDEST PUSH0 PUSH1 0x20 DUP3 ADD SWAP1 POP PUSH2 0x107E PUSH0 DUP4 ADD DUP5 PUSH2 0x105C JUMP JUMPDEST SWAP3 SWAP2 POP POP JUMP JUMPDEST PUSH32 0x4E487B7100000000000000000000000000000000000000000000000000000000 PUSH0 MSTORE PUSH1 0x21 PUSH1 0x4 MSTORE PUSH1 0x24 PUSH0 REVERT JUMPDEST PUSH1 0x3 DUP2 LT PUSH2 0x10C2 JUMPI PUSH2 0x10C1 PUSH2 0x1084 JUMP JUMPDEST JUMPDEST POP JUMP JUMPDEST PUSH0 DUP2 SWAP1 POP PUSH2 0x10D2 DUP3 PUSH2 0x10B1 JUMP JUMPDEST SWAP2 SWAP1 POP JUMP JUMPDEST PUSH0 PUSH2 0x10E1 DUP3 PUSH2 0x10C5 JUMP JUMPDEST SWAP1 POP SWAP2 SWAP1 POP JUMP JUMPDEST PUSH2 0x10F1 DUP2 PUSH2 0x10D7 JUMP JUMPDEST DUP3 MSTORE POP POP JUMP JUMPDEST PUSH0 PUSH1 0x20 DUP3 ADD SWAP1 POP PUSH2 0x110A PUSH0 DUP4 ADD DUP5 PUSH2 0x10E8 JUMP JUMPDEST SWAP3 SWAP2 POP POP JUMP JUMPDEST PUSH0 PUSH1 0x20 DUP3 DUP5 SUB SLT ISZERO PUSH2 0x1125 JUMPI PUSH2 0x1124 PUSH2 0xAFF JUMP JUMPDEST JUMPDEST PUSH0 DUP3 ADD CALLDATALOAD PUSH8 0xFFFFFFFFFFFFFFFF DUP2 GT ISZERO PUSH2 0x1142 JUMPI PUSH2 0x1141 PUSH2 0xB03 JUMP JUMPDEST JUMPDEST PUSH2 0x114E DUP5 DUP3 DUP6 ADD PUSH2 0xE92 JUMP JUMPDEST SWAP2 POP POP SWAP3 SWAP2 POP POP JUMP JUMPDEST PUSH32 0xD09ED186D0B5D0BDD0BAD0B020D0BDD0B520D0BCD0BED0B6D0B5D18220D0BFD1 PUSH0 DUP3 ADD MSTORE PUSH32 0x80D0B5D0B2D18BD181D0B8D182D18C2031303020D0B1D0B0D0BBD0BBD0BED0B2 PUSH1 0x20 DUP3 ADD MSTORE POP JUMP JUMPDEST PUSH0 PUSH2 0x11B1 PUSH1 0x40 DUP4 PUSH2 0xB66 JUMP JUMPDEST SWAP2 POP PUSH2 0x11BC DUP3 PUSH2 0x1157 JUMP JUMPDEST PUSH1 0x40 DUP3 ADD SWAP1 POP SWAP2 SWAP1 POP JUMP JUMPDEST PUSH0 PUSH1 0x20 DUP3 ADD SWAP1 POP DUP2 DUP2 SUB PUSH0 DUP4 ADD MSTORE PUSH2 0x11DE DUP2 PUSH2 0x11A5 JUMP JUMPDEST SWAP1 POP SWAP2 SWAP1 POP JUMP JUMPDEST PUSH32 0x4E487B7100000000000000000000000000000000000000000000000000000000 PUSH0 MSTORE PUSH1 0x32 PUSH1 0x4 MSTORE PUSH1 0x24 PUSH0 REVERT JUMPDEST PUSH32 0x4E487B7100000000000000000000000000000000000000000000000000000000 PUSH0 MSTORE PUSH1 0x22 PUSH1 0x4 MSTORE PUSH1 0x24 PUSH0 REVERT JUMPDEST PUSH0 PUSH1 0x2 DUP3 DIV SWAP1 POP PUSH1 0x1 DUP3 AND DUP1 PUSH2 0x1256 JUMPI PUSH1 0x7F DUP3 AND SWAP2 POP JUMPDEST PUSH1 0x20 DUP3 LT DUP2 SUB PUSH2 0x1269 JUMPI PUSH2 0x1268 PUSH2 0x1212 JUMP JUMPDEST JUMPDEST POP SWAP2 SWAP1 POP JUMP JUMPDEST PUSH0 DUP2 SWAP1 POP DUP2 PUSH0 MSTORE PUSH1 0x20 PUSH0 KECCAK256 SWAP1 POP SWAP2 SWAP1 POP JUMP JUMPDEST PUSH0 PUSH1 0x20 PUSH1 0x1F DUP4 ADD DIV SWAP1 POP SWAP2 SWAP1 POP JUMP JUMPDEST PUSH0 DUP3 DUP3 SHL SWAP1 POP SWAP3 SWAP2 POP POP JUMP JUMPDEST PUSH0 PUSH1 0x8 DUP4 MUL PUSH2 0x12CB PUSH32 0xFFFFFFFFFFFFFFFFFFFFFFFFFFFFFFFFFFFFFFFFFFFFFFFFFFFFFFFFFFFFFFFF DUP3 PUSH2 0x1290 JUMP JUMPDEST PUSH2 0x12D5 DUP7 DUP4 PUSH2 0x1290 JUMP JUMPDEST SWAP6 POP DUP1 NOT DUP5 AND SWAP4 POP DUP1 DUP7 AND DUP5 OR SWAP3 POP POP POP SWAP4 SWAP3 POP POP POP JUMP JUMPDEST PUSH0 DUP2 SWAP1 POP SWAP2 SWAP1 POP JUMP JUMPDEST PUSH0 PUSH2 0x1310 PUSH2 0x130B PUSH2 0x1306 DUP5 PUSH2 0xAC5 JUMP JUMPDEST PUSH2 0x12ED JUMP JUMPDEST PUSH2 0xAC5 JUMP JUMPDEST SWAP1 POP SWAP2 SWAP1 POP JUMP JUMPDEST PUSH0 DUP2 SWAP1 POP SWAP2 SWAP1 POP JUMP JUMPDEST PUSH2 0x1329 DUP4 PUSH2 0x12F6 JUMP JUMPDEST PUSH2 0x133D PUSH2 0x1335 DUP3 PUSH2 0x1317 JUMP JUMPDEST DUP5 DUP5 SLOAD PUSH2 0x129C JUMP JUMPDEST DUP3 SSTORE POP POP POP POP JUMP JUMPDEST PUSH0 PUSH0 SWAP1 POP SWAP1 JUMP JUMPDEST PUSH2 0x1354 PUSH2 0x1345 JUMP JUMPDEST PUSH2 0x135F DUP2 DUP5 DUP5 PUSH2 0x1320 JUMP JUMPDEST POP POP POP JUMP JUMPDEST JUMPDEST DUP2 DUP2 LT ISZERO PUSH2 0x1382 JUMPI PUSH2 0x1377 PUSH0 DUP3 PUSH2 0x134C JUMP JUMPDEST PUSH1 0x1 DUP2 ADD SWAP1 POP PUSH2 0x1365 JUMP JUMPDEST POP POP JUMP JUMPDEST PUSH1 0x1F DUP3 GT ISZERO PUSH2 0x13C7 JUMPI PUSH2 0x1398 DUP2 PUSH2 0x126F JUMP JUMPDEST PUSH2 0x13A1 DUP5 PUSH2 0x1281 JUMP JUMPDEST DUP2 ADD PUSH1 0x20 DUP6 LT ISZERO PUSH2 0x13B0 JUMPI DUP2 SWAP1 POP JUMPDEST PUSH2 0x13C4 PUSH2 0x13BC DUP6 PUSH2 0x1281 JUMP JUMPDEST DUP4 ADD DUP3 PUSH2 0x1364 JUMP JUMPDEST POP POP JUMPDEST POP POP POP JUMP JUMPDEST PUSH0 DUP3 DUP3 SHR SWAP1 POP SWAP3 SWAP2 POP POP JUMP JUMPDEST PUSH0 PUSH2 0x13E7 PUSH0 NOT DUP5 PUSH1 0x8 MUL PUSH2 0x13CC JUMP JUMPDEST NOT DUP1 DUP4 AND SWAP2 POP POP SWAP3 SWAP2 POP POP JUMP JUMPDEST PUSH0 PUSH2 0x13FF DUP4 DUP4 PUSH2 0x13D8 JUMP JUMPDEST SWAP2 POP DUP3 PUSH1 0x2 MUL DUP3 OR SWAP1 POP SWAP3 SWAP2 POP POP JUMP JUMPDEST PUSH2 0x1418 DUP3 PUSH2 0xB5C JUMP JUMPDEST PUSH8 0xFFFFFFFFFFFFFFFF DUP2 GT ISZERO PUSH2 0x1431 JUMPI PUSH2 0x1430 PUSH2 0xD9B JUMP JUMPDEST JUMPDEST PUSH2 0x143B DUP3 SLOAD PUSH2 0x123F JUMP JUMPDEST PUSH2 0x1446 DUP3 DUP3 DUP6 PUSH2 0x1386 JUMP JUMPDEST PUSH0 PUSH1 0x20 SWAP1 POP PUSH1 0x1F DUP4 GT PUSH1 0x1 DUP2 EQ PUSH2 0x1477 JUMPI PUSH0 DUP5 ISZERO PUSH2 0x1465 JUMPI DUP3 DUP8 ADD MLOAD SWAP1 POP JUMPDEST PUSH2 0x146F DUP6 DUP3 PUSH2 0x13F4 JUMP JUMPDEST DUP7 SSTORE POP PUSH2 0x14D6 JUMP JUMPDEST PUSH1 0x1F NOT DUP5 AND PUSH2 0x1485 DUP7 PUSH2 0x126F JUMP JUMPDEST PUSH0 JUMPDEST DUP3 DUP2 LT ISZERO PUSH2 0x14AC JUMPI DUP5 DUP10 ADD MLOAD DUP3 SSTORE PUSH1 0x1 DUP3 ADD SWAP2 POP PUSH1 0x20 DUP6 ADD SWAP5 POP PUSH1 0x20 DUP2 ADD SWAP1 POP PUSH2 0x1487 JUMP JUMPDEST DUP7 DUP4 LT ISZERO PUSH2 0x14C9 JUMPI DUP5 DUP10 ADD MLOAD PUSH2 0x14C5 PUSH1 0x1F DUP10 AND DUP3 PUSH2 0x13D8 JUMP JUMPDEST DUP4 SSTORE POP JUMPDEST PUSH1 0x1 PUSH1 0x2 DUP9 MUL ADD DUP9 SSTORE POP POP POP JUMPDEST POP POP POP POP POP POP JUMP JUMPDEST PUSH0 DUP2 SWAP1 POP DUP2 PUSH0 MSTORE PUSH1 0x20 PUSH0 KECCAK256 SWAP1 POP SWAP2 SWAP1 POP JUMP JUMPDEST PUSH1 0x1F DUP3 GT ISZERO PUSH2 0x1531 JUMPI PUSH2 0x1502 DUP2 PUSH2 0x14DE JUMP JUMPDEST PUSH2 0x150B DUP5 PUSH2 0x1281 JUMP JUMPDEST DUP2 ADD PUSH1 0x20 DUP6 LT ISZERO PUSH2 0x151A JUMPI DUP2 SWAP1 POP JUMPDEST PUSH2 0x152E PUSH2 0x1526 DUP6 PUSH2 0x1281 JUMP JUMPDEST DUP4 ADD DUP3 PUSH2 0x1364 JUMP JUMPDEST POP POP JUMPDEST POP POP POP JUMP JUMPDEST PUSH2 0x153F DUP3 PUSH2 0xC22 JUMP JUMPDEST PUSH8 0xFFFFFFFFFFFFFFFF DUP2 GT ISZERO PUSH2 0x1558 JUMPI PUSH2 0x1557 PUSH2 0xD9B JUMP JUMPDEST JUMPDEST PUSH2 0x1562 DUP3 SLOAD PUSH2 0x123F JUMP JUMPDEST PUSH2 0x156D DUP3 DUP3 DUP6 PUSH2 0x14F0 JUMP JUMPDEST PUSH0 PUSH1 0x20 SWAP1 POP PUSH1 0x1F DUP4 GT PUSH1 0x1 DUP2 EQ PUSH2 0x159E JUMPI PUSH0 DUP5 ISZERO PUSH2 0x158C JUMPI DUP3 DUP8 ADD MLOAD SWAP1 POP JUMPDEST PUSH2 0x1596 DUP6 DUP3 PUSH2 0x13F4 JUMP JUMPDEST DUP7 SSTORE POP PUSH2 0x15FD JUMP JUMPDEST PUSH1 0x1F NOT DUP5 AND PUSH2 0x15AC DUP7 PUSH2 0x14DE JUMP JUMPDEST PUSH0 JUMPDEST DUP3 DUP2 LT ISZERO PUSH2 0x15D3 JUMPI DUP5 DUP10 ADD MLOAD DUP3 SSTORE PUSH1 0x1 DUP3 ADD SWAP2 POP PUSH1 0x20 DUP6 ADD SWAP5 POP PUSH1 0x20 DUP2 ADD SWAP1 POP PUSH2 0x15AE JUMP JUMPDEST DUP7 DUP4 LT ISZERO PUSH2 0x15F0 JUMPI DUP5 DUP10 ADD MLOAD PUSH2 0x15EC PUSH1 0x1F DUP10 AND DUP3 PUSH2 0x13D8 JUMP JUMPDEST DUP4 SSTORE POP JUMPDEST PUSH1 0x1 PUSH1 0x2 DUP9 MUL ADD DUP9 SSTORE POP POP POP JUMPDEST POP POP POP POP POP POP JUMP JUMPDEST PUSH0 DUP2 SWAP1 POP SWAP3 SWAP2 POP POP JUMP JUMPDEST PUSH0 PUSH2 0x1619 DUP3 PUSH2 0xB5C JUMP JUMPDEST PUSH2 0x1623 DUP2 DUP6 PUSH2 0x1605 JUMP JUMPDEST SWAP4 POP PUSH2 0x1633 DUP2 DUP6 PUSH1 0x20 DUP7 ADD PUSH2 0xB76 JUMP JUMPDEST DUP1 DUP5 ADD SWAP2 POP POP SWAP3 SWAP2 POP POP JUMP JUMPDEST PUSH0 PUSH2 0x164A DUP3 DUP5 PUSH2 0x160F JUMP JUMPDEST SWAP2 POP DUP2 SWAP1 POP SWAP3 SWAP2 POP POP JUMP JUMPDEST PUSH32 0x4E487B7100000000000000000000000000000000000000000000000000000000 PUSH0 MSTORE PUSH1 0x11 PUSH1 0x4 MSTORE PUSH1 0x24 PUSH0 REVERT JUMPDEST PUSH0 PUSH2 0x168C DUP3 PUSH2 0xAC5 JUMP JUMPDEST SWAP2 POP PUSH32 0xFFFFFFFFFFFFFFFFFFFFFFFFFFFFFFFFFFFFFFFFFFFFFFFFFFFFFFFFFFFFFFFF DUP3 SUB PUSH2 0x16BE JUMPI PUSH2 0x16BD PUSH2 0x1655 JUMP JUMPDEST JUMPDEST PUSH1 0x1 DUP3 ADD SWAP1 POP SWAP2 SWAP1 POP JUMP INVALID LOG2 PUSH5 0x6970667358 0x22 SLT KECCAK256 MOD EOFCREATE 0xB 0xF7 0x25 PUSH10 0x32495D904A1E014E2065 DUP11 BLOBBASEFEE PUSH28 0x95194ABE4F053A1C45F23A6CD564736F6C634300081E003300000000 "
				},
				"gasEstimates": {
					"creation": {
						"codeDepositCost": "1177400",
						"executionCost": "infinite",
						"totalCost": "infinite"
					},
					"external": {
						"addPoints(uint256)": "46893",
						"addTag(string)": "infinite",
						"addTask(string,uint256)": "infinite",
						"configData()": "infinite",
						"deposit()": "207",
						"getBalance()": "358",
						"getPointCount()": "2551",
						"getTask(uint256)": "infinite",
						"globalStatus()": "2620",
						"isActive()": "2629",
						"levels(uint256)": "infinite",
						"markDone(uint256)": "26884",
						"owner()": "2619",
						"ownerName()": "infinite",
						"points(uint256)": "infinite",
						"setConfig(bytes)": "infinite",
						"setLevel(uint256,uint256)": "infinite",
						"setStatus(uint8)": "24690",
						"tagsCount(string)": "infinite",
						"tasks(uint256)": "infinite",
						"transferTo(address,uint256)": "infinite"
					}
				},
				"methodIdentifiers": {
					"addPoints(uint256)": "12fb1cbd",
					"addTag(string)": "de0cc45b",
					"addTask(string,uint256)": "3143d082",
					"configData()": "20e44e43",
					"deposit()": "d0e30db0",
					"getBalance()": "12065fe0",
					"getPointCount()": "4a07a248",
					"getTask(uint256)": "1d65e77e",
					"globalStatus()": "b73f7951",
					"isActive()": "22f3e2d4",
					"levels(uint256)": "b2596a67",
					"markDone(uint256)": "4ad0e590",
					"owner()": "8da5cb5b",
					"ownerName()": "65ac2320",
					"points(uint256)": "9799b4e7",
					"setConfig(bytes)": "354497aa",
					"setLevel(uint256,uint256)": "70a93b36",
					"setStatus(uint8)": "2e49d78b",
					"tagsCount(string)": "fb45373e",
					"tasks(uint256)": "8d977672",
					"transferTo(address,uint256)": "2ccb1b30"
				}
			},
			"storageLayout": {
				"storage": [
					{
						"astId": 12,
						"contract": "TaskManager.sol:TaskManager",
						"label": "tasks",
						"offset": 0,
						"slot": "0",
						"type": "t_array(t_struct(Task)8_storage)dyn_storage"
					},
					{
						"astId": 14,
						"contract": "TaskManager.sol:TaskManager",
						"label": "configData",
						"offset": 0,
						"slot": "1",
						"type": "t_bytes_storage"
					},
					{
						"astId": 17,
						"contract": "TaskManager.sol:TaskManager",
						"label": "ownerName",
						"offset": 0,
						"slot": "2",
						"type": "t_string_storage"
					},
					{
						"astId": 20,
						"contract": "TaskManager.sol:TaskManager",
						"label": "owner",
						"offset": 0,
						"slot": "3",
						"type": "t_address"
					},
					{
						"astId": 23,
						"contract": "TaskManager.sol:TaskManager",
						"label": "isActive",
						"offset": 20,
						"slot": "3",
						"type": "t_bool"
					},
					{
						"astId": 27,
						"contract": "TaskManager.sol:TaskManager",
						"label": "tagsCount",
						"offset": 0,
						"slot": "4",
						"type": "t_mapping(t_string_memory_ptr,t_uint256)"
					},
					{
						"astId": 31,
						"contract": "TaskManager.sol:TaskManager",
						"label": "levels",
						"offset": 0,
						"slot": "5",
						"type": "t_array(t_uint256)5_storage"
					},
					{
						"astId": 34,
						"contract": "TaskManager.sol:TaskManager",
						"label": "points",
						"offset": 0,
						"slot": "10",
						"type": "t_array(t_uint256)dyn_storage"
					},
					{
						"astId": 41,
						"contract": "TaskManager.sol:TaskManager",
						"label": "globalStatus",
						"offset": 0,
						"slot": "11",
						"type": "t_enum(Status)38"
					}
				],
				"types": {
					"t_address": {
						"encoding": "inplace",
						"label": "address",
						"numberOfBytes": "20"
					},
					"t_array(t_struct(Task)8_storage)dyn_storage": {
						"base": "t_struct(Task)8_storage",
						"encoding": "dynamic_array",
						"label": "struct TaskManager.Task[]",
						"numberOfBytes": "32"
					},
					"t_array(t_uint256)5_storage": {
						"base": "t_uint256",
						"encoding": "inplace",
						"label": "uint256[5]",
						"numberOfBytes": "160"
					},
					"t_array(t_uint256)dyn_storage": {
						"base": "t_uint256",
						"encoding": "dynamic_array",
						"label": "uint256[]",
						"numberOfBytes": "32"
					},
					"t_bool": {
						"encoding": "inplace",
						"label": "bool",
						"numberOfBytes": "1"
					},
					"t_bytes_storage": {
						"encoding": "bytes",
						"label": "bytes",
						"numberOfBytes": "32"
					},
					"t_enum(Status)38": {
						"encoding": "inplace",
						"label": "enum TaskManager.Status",
						"numberOfBytes": "1"
					},
					"t_mapping(t_string_memory_ptr,t_uint256)": {
						"encoding": "mapping",
						"key": "t_string_memory_ptr",
						"label": "mapping(string => uint256)",
						"numberOfBytes": "32",
						"value": "t_uint256"
					},
					"t_string_memory_ptr": {
						"encoding": "bytes",
						"label": "string",
						"numberOfBytes": "32"
					},
					"t_string_storage": {
						"encoding": "bytes",
						"label": "string",
						"numberOfBytes": "32"
					},
					"t_struct(Task)8_storage": {
						"encoding": "inplace",
						"label": "struct TaskManager.Task",
						"members": [
							{
								"astId": 3,
								"contract": "TaskManager.sol:TaskManager",
								"label": "text",
								"offset": 0,
								"slot": "0",
								"type": "t_string_storage"
							},
							{
								"astId": 5,
								"contract": "TaskManager.sol:TaskManager",
								"label": "done",
								"offset": 0,
								"slot": "1",
								"type": "t_bool"
							},
							{
								"astId": 7,
								"contract": "TaskManager.sol:TaskManager",
								"label": "points",
								"offset": 0,
								"slot": "2",
								"type": "t_uint256"
							}
						],
						"numberOfBytes": "96"
					},
					"t_uint256": {
						"encoding": "inplace",
						"label": "uint256",
						"numberOfBytes": "32"
					}
				}
			},
			"userdoc": {
				"kind": "user",
				"methods": {},
				"version": 1
			}
		}
	}
}