{
	"StudentDiary.sol": {
		"StudentDiary": {
			"abi": [
				{
					"inputs": [],
					"stateMutability": "nonpayable",
					"type": "constructor"
				},
				{
					"inputs": [],
					"name": "completeUrok",
					"outputs": [],
					"stateMutability": "nonpayable",
					"type": "function"
				},
				{
					"inputs": [
						{
							"internalType": "string",
							"name": "",
							"type": "string"
						}
					],
					"name": "egoLesson",
					"outputs": [
						{
							"internalType": "uint256",
							"name": "",
							"type": "uint256"
						}
					],
					"stateMutability": "view",
					"type": "function"
				},
				{
					"inputs": [],
					"name": "nameStudent",
					"outputs": [
						{
							"internalType": "string",
							"name": "",
							"type": "string"
						}
					],
					"stateMutability": "view",
					"type": "function"
				},
				{
					"inputs": [],
					"name": "payForItem",
					"outputs": [
						{
							"internalType": "uint256",
							"name": "",
							"type": "uint256"
						}
					],
					"stateMutability": "payable",
					"type": "function"
				},
				{
					"inputs": [
						{
							"internalType": "address",
							"name": "",
							"type": "address"
						}
					],
					"name": "payments",
					"outputs": [
						{
							"internalType": "uint256",
							"name": "",
							"type": "uint256"
						}
					],
					"stateMutability": "view",
					"type": "function"
				},
				{
					"inputs": [
						{
							"internalType": "string",
							"name": "bulba",
							"type": "string"
						},
						{
							"internalType": "uint256",
							"name": "ocenka",
							"type": "uint256"
						}
					],
					"name": "replace",
					"outputs": [],
					"stateMutability": "nonpayable",
					"type": "function"
				},
				{
					"inputs": [],
					"name": "statusStudent",
					"outputs": [
						{
							"internalType": "bool",
							"name": "",
							"type": "bool"
						}
					],
					"stateMutability": "view",
					"type": "function"
				},
				{
					"inputs": [],
					"name": "student",
					"outputs": [
						{
							"internalType": "address",
							"name": "",
							"type": "address"
						}
					],
					"stateMutability": "view",
					"type": "function"
				},
				{
					"inputs": [],
					"name": "swapStatusActive",
					"outputs": [],
					"stateMutability": "nonpayable",
					"type": "function"
				},
				{
					"inputs": [],
					"name": "swapStatusInactive",
					"outputs": [],
					"stateMutability": "nonpayable",
					"type": "function"
				},
				{
					"inputs": [
						{
							"internalType": "int256",
							"name": "newNumber",
							"type": "int256"
						}
					],
					"name": "umnozhenie",
					"outputs": [
						{
							"internalType": "int256",
							"name": "",
							"type": "int256"
						}
					],
					"stateMutability": "pure",
					"type": "function"
				},
				{
					"inputs": [],
					"name": "urok",
					"outputs": [
						{
							"internalType": "int256",
							"name": "",
							"type": "int256"
						}
					],
					"stateMutability": "view",
					"type": "function"
				},
				{
					"inputs": [],
					"name": "withdrawAll",
					"outputs": [],
					"stateMutability": "nonpayable",
					"type": "function"
				}
			],
			"devdoc": {
				"kind": "dev",
				"methods": {},
				"version": 1
			},
			"evm": {
				"assembly": "    /* \"StudentDiary.sol\":61:1224  contract StudentDiary {... */\n  mstore(0x40, 0x80)\n    /* \"StudentDiary.sol\":119:154  string public nameStudent = \"Misha\" */\n  mload(0x40)\n  dup1\n  0x40\n  add\n  0x40\n  mstore\n  dup1\n  0x05\n  dup2\n  mstore\n  0x20\n  add\n  0x4d69736861000000000000000000000000000000000000000000000000000000\n  dup2\n  mstore\n  pop\n  0x01\n  swap1\n  dup2\n  tag_1\n  swap2\n  swap1\n  tag_2\n  jump\t// in\ntag_1:\n  pop\n    /* \"StudentDiary.sol\":313:366  constructor() {... */\n  callvalue\n  dup1\n  iszero\n  tag_3\n  jumpi\n  revert(0x00, 0x00)\ntag_3:\n  pop\n    /* \"StudentDiary.sol\":348:358  msg.sender */\n  caller\n    /* \"StudentDiary.sol\":338:345  student */\n  0x00\n  0x00\n    /* \"StudentDiary.sol\":338:358  student = msg.sender */\n  0x0100\n  exp\n  dup2\n  sload\n  dup2\n  0xffffffffffffffffffffffffffffffffffffffff\n  mul\n  not\n  and\n  swap1\n  dup4\n  0xffffffffffffffffffffffffffffffffffffffff\n  and\n  mul\n  or\n  swap1\n  sstore\n  pop\n    /* \"StudentDiary.sol\":61:1224  contract StudentDiary {... */\n  jump(tag_6)\n    /* \"#utility.yul\":7:106   */\ntag_7:\n    /* \"#utility.yul\":59:65   */\n  0x00\n    /* \"#utility.yul\":93:98   */\n  dup2\n    /* \"#utility.yul\":87:99   */\n  mload\n    /* \"#utility.yul\":77:99   */\n  swap1\n  pop\n    /* \"#utility.yul\":7:106   */\n  swap2\n  swap1\n  pop\n  jump\t// out\n    /* \"#utility.yul\":112:292   */\ntag_8:\n    /* \"#utility.yul\":160:237   */\n  0x4e487b7100000000000000000000000000000000000000000000000000000000\n    /* \"#utility.yul\":157:158   */\n  0x00\n    /* \"#utility.yul\":150:238   */\n  mstore\n    /* \"#utility.yul\":257:261   */\n  0x41\n    /* \"#utility.yul\":254:255   */\n  0x04\n    /* \"#utility.yul\":247:262   */\n  mstore\n    /* \"#utility.yul\":281:285   */\n  0x24\n    /* \"#utility.yul\":278:279   */\n  0x00\n    /* \"#utility.yul\":271:286   */\n  revert\n    /* \"#utility.yul\":298:478   */\ntag_9:\n    /* \"#utility.yul\":346:423   */\n  0x4e487b7100000000000000000000000000000000000000000000000000000000\n    /* \"#utility.yul\":343:344   */\n  0x00\n    /* \"#utility.yul\":336:424   */\n  mstore\n    /* \"#utility.yul\":443:447   */\n  0x22\n    /* \"#utility.yul\":440:441   */\n  0x04\n    /* \"#utility.yul\":433:448   */\n  mstore\n    /* \"#utility.yul\":467:471   */\n  0x24\n    /* \"#utility.yul\":464:465   */\n  0x00\n    /* \"#utility.yul\":457:472   */\n  revert\n    /* \"#utility.yul\":484:804   */\ntag_10:\n    /* \"#utility.yul\":528:534   */\n  0x00\n    /* \"#utility.yul\":565:566   */\n  0x02\n    /* \"#utility.yul\":559:563   */\n  dup3\n    /* \"#utility.yul\":555:567   */\n  div\n    /* \"#utility.yul\":545:567   */\n  swap1\n  pop\n    /* \"#utility.yul\":612:613   */\n  0x01\n    /* \"#utility.yul\":606:610   */\n  dup3\n    /* \"#utility.yul\":602:614   */\n  and\n    /* \"#utility.yul\":633:651   */\n  dup1\n    /* \"#utility.yul\":623:704   */\n  tag_32\n  jumpi\n    /* \"#utility.yul\":689:693   */\n  0x7f\n    /* \"#utility.yul\":681:687   */\n  dup3\n    /* \"#utility.yul\":677:694   */\n  and\n    /* \"#utility.yul\":667:694   */\n  swap2\n  pop\n    /* \"#utility.yul\":623:704   */\ntag_32:\n    /* \"#utility.yul\":751:753   */\n  0x20\n    /* \"#utility.yul\":743:749   */\n  dup3\n    /* \"#utility.yul\":740:754   */\n  lt\n    /* \"#utility.yul\":720:738   */\n  dup2\n    /* \"#utility.yul\":717:755   */\n  sub\n    /* \"#utility.yul\":714:798   */\n  tag_33\n  jumpi\n    /* \"#utility.yul\":770:788   */\n  tag_34\n  tag_9\n  jump\t// in\ntag_34:\n    /* \"#utility.yul\":714:798   */\ntag_33:\n    /* \"#utility.yul\":535:804   */\n  pop\n    /* \"#utility.yul\":484:804   */\n  swap2\n  swap1\n  pop\n  jump\t// out\n    /* \"#utility.yul\":810:951   */\ntag_11:\n    /* \"#utility.yul\":859:863   */\n  0x00\n    /* \"#utility.yul\":882:885   */\n  dup2\n    /* \"#utility.yul\":874:885   */\n  swap1\n  pop\n    /* \"#utility.yul\":905:908   */\n  dup2\n    /* \"#utility.yul\":902:903   */\n  0x00\n    /* \"#utility.yul\":895:909   */\n  mstore\n    /* \"#utility.yul\":939:943   */\n  0x20\n    /* \"#utility.yul\":936:937   */\n  0x00\n    /* \"#utility.yul\":926:944   */\n  keccak256\n    /* \"#utility.yul\":918:944   */\n  swap1\n  pop\n    /* \"#utility.yul\":810:951   */\n  swap2\n  swap1\n  pop\n  jump\t// out\n    /* \"#utility.yul\":957:1050   */\ntag_12:\n    /* \"#utility.yul\":994:1000   */\n  0x00\n    /* \"#utility.yul\":1041:1043   */\n  0x20\n    /* \"#utility.yul\":1036:1038   */\n  0x1f\n    /* \"#utility.yul\":1029:1034   */\n  dup4\n    /* \"#utility.yul\":1025:1039   */\n  add\n    /* \"#utility.yul\":1021:1044   */\n  div\n    /* \"#utility.yul\":1011:1044   */\n  swap1\n  pop\n    /* \"#utility.yul\":957:1050   */\n  swap2\n  swap1\n  pop\n  jump\t// out\n    /* \"#utility.yul\":1056:1163   */\ntag_13:\n    /* \"#utility.yul\":1100:1108   */\n  0x00\n    /* \"#utility.yul\":1150:1155   */\n  dup3\n    /* \"#utility.yul\":1144:1148   */\n  dup3\n    /* \"#utility.yul\":1140:1156   */\n  shl\n    /* \"#utility.yul\":1119:1156   */\n  swap1\n  pop\n    /* \"#utility.yul\":1056:1163   */\n  swap3\n  swap2\n  pop\n  pop\n  jump\t// out\n    /* \"#utility.yul\":1169:1562   */\ntag_14:\n    /* \"#utility.yul\":1238:1244   */\n  0x00\n    /* \"#utility.yul\":1288:1289   */\n  0x08\n    /* \"#utility.yul\":1276:1286   */\n  dup4\n    /* \"#utility.yul\":1272:1290   */\n  mul\n    /* \"#utility.yul\":1311:1408   */\n  tag_39\n    /* \"#utility.yul\":1341:1407   */\n  0xffffffffffffffffffffffffffffffffffffffffffffffffffffffffffffffff\n    /* \"#utility.yul\":1330:1339   */\n  dup3\n    /* \"#utility.yul\":1311:1408   */\n  tag_13\n  jump\t// in\ntag_39:\n    /* \"#utility.yul\":1429:1468   */\n  tag_40\n    /* \"#utility.yul\":1459:1467   */\n  dup7\n    /* \"#utility.yul\":1448:1457   */\n  dup4\n    /* \"#utility.yul\":1429:1468   */\n  tag_13\n  jump\t// in\ntag_40:\n    /* \"#utility.yul\":1417:1468   */\n  swap6\n  pop\n    /* \"#utility.yul\":1501:1505   */\n  dup1\n    /* \"#utility.yul\":1497:1506   */\n  not\n    /* \"#utility.yul\":1490:1495   */\n  dup5\n    /* \"#utility.yul\":1486:1507   */\n  and\n    /* \"#utility.yul\":1477:1507   */\n  swap4\n  pop\n    /* \"#utility.yul\":1550:1554   */\n  dup1\n    /* \"#utility.yul\":1540:1548   */\n  dup7\n    /* \"#utility.yul\":1536:1555   */\n  and\n    /* \"#utility.yul\":1529:1534   */\n  dup5\n    /* \"#utility.yul\":1526:1556   */\n  or\n    /* \"#utility.yul\":1516:1556   */\n  swap3\n  pop\n    /* \"#utility.yul\":1245:1562   */\n  pop\n  pop\n    /* \"#utility.yul\":1169:1562   */\n  swap4\n  swap3\n  pop\n  pop\n  pop\n  jump\t// out\n    /* \"#utility.yul\":1568:1645   */\ntag_15:\n    /* \"#utility.yul\":1605:1612   */\n  0x00\n    /* \"#utility.yul\":1634:1639   */\n  dup2\n    /* \"#utility.yul\":1623:1639   */\n  swap1\n  pop\n    /* \"#utility.yul\":1568:1645   */\n  swap2\n  swap1\n  pop\n  jump\t// out\n    /* \"#utility.yul\":1651:1711   */\ntag_16:\n    /* \"#utility.yul\":1679:1682   */\n  0x00\n    /* \"#utility.yul\":1700:1705   */\n  dup2\n    /* \"#utility.yul\":1693:1705   */\n  swap1\n  pop\n    /* \"#utility.yul\":1651:1711   */\n  swap2\n  swap1\n  pop\n  jump\t// out\n    /* \"#utility.yul\":1717:1859   */\ntag_17:\n    /* \"#utility.yul\":1767:1776   */\n  0x00\n    /* \"#utility.yul\":1800:1853   */\n  tag_44\n    /* \"#utility.yul\":1818:1852   */\n  tag_45\n    /* \"#utility.yul\":1827:1851   */\n  tag_46\n    /* \"#utility.yul\":1845:1850   */\n  dup5\n    /* \"#utility.yul\":1827:1851   */\n  tag_15\n  jump\t// in\ntag_46:\n    /* \"#utility.yul\":1818:1852   */\n  tag_16\n  jump\t// in\ntag_45:\n    /* \"#utility.yul\":1800:1853   */\n  tag_15\n  jump\t// in\ntag_44:\n    /* \"#utility.yul\":1787:1853   */\n  swap1\n  pop\n    /* \"#utility.yul\":1717:1859   */\n  swap2\n  swap1\n  pop\n  jump\t// out\n    /* \"#utility.yul\":1865:1940   */\ntag_18:\n    /* \"#utility.yul\":1908:1911   */\n  0x00\n    /* \"#utility.yul\":1929:1934   */\n  dup2\n    /* \"#utility.yul\":1922:1934   */\n  swap1\n  pop\n    /* \"#utility.yul\":1865:1940   */\n  swap2\n  swap1\n  pop\n  jump\t// out\n    /* \"#utility.yul\":1946:2215   */\ntag_19:\n    /* \"#utility.yul\":2056:2095   */\n  tag_49\n    /* \"#utility.yul\":2087:2094   */\n  dup4\n    /* \"#utility.yul\":2056:2095   */\n  tag_17\n  jump\t// in\ntag_49:\n    /* \"#utility.yul\":2117:2208   */\n  tag_50\n    /* \"#utility.yul\":2166:2207   */\n  tag_51\n    /* \"#utility.yul\":2190:2206   */\n  dup3\n    /* \"#utility.yul\":2166:2207   */\n  tag_18\n  jump\t// in\ntag_51:\n    /* \"#utility.yul\":2158:2164   */\n  dup5\n    /* \"#utility.yul\":2151:2155   */\n  dup5\n    /* \"#utility.yul\":2145:2156   */\n  sload\n    /* \"#utility.yul\":2117:2208   */\n  tag_14\n  jump\t// in\ntag_50:\n    /* \"#utility.yul\":2111:2115   */\n  dup3\n    /* \"#utility.yul\":2104:2209   */\n  sstore\n    /* \"#utility.yul\":2022:2215   */\n  pop\n    /* \"#utility.yul\":1946:2215   */\n  pop\n  pop\n  pop\n  jump\t// out\n    /* \"#utility.yul\":2221:2294   */\ntag_20:\n    /* \"#utility.yul\":2266:2269   */\n  0x00\n    /* \"#utility.yul\":2287:2288   */\n  0x00\n    /* \"#utility.yul\":2280:2288   */\n  swap1\n  pop\n    /* \"#utility.yul\":2221:2294   */\n  swap1\n  jump\t// out\n    /* \"#utility.yul\":2300:2489   */\ntag_21:\n    /* \"#utility.yul\":2377:2409   */\n  tag_54\n  tag_20\n  jump\t// in\ntag_54:\n    /* \"#utility.yul\":2418:2483   */\n  tag_55\n    /* \"#utility.yul\":2476:2482   */\n  dup2\n    /* \"#utility.yul\":2468:2474   */\n  dup5\n    /* \"#utility.yul\":2462:2466   */\n  dup5\n    /* \"#utility.yul\":2418:2483   */\n  tag_19\n  jump\t// in\ntag_55:\n    /* \"#utility.yul\":2353:2489   */\n  pop\n    /* \"#utility.yul\":2300:2489   */\n  pop\n  pop\n  jump\t// out\n    /* \"#utility.yul\":2495:2681   */\ntag_22:\n    /* \"#utility.yul\":2555:2675   */\ntag_57:\n    /* \"#utility.yul\":2572:2575   */\n  dup2\n    /* \"#utility.yul\":2565:2570   */\n  dup2\n    /* \"#utility.yul\":2562:2576   */\n  lt\n    /* \"#utility.yul\":2555:2675   */\n  iszero\n  tag_59\n  jumpi\n    /* \"#utility.yul\":2626:2665   */\n  tag_60\n    /* \"#utility.yul\":2663:2664   */\n  0x00\n    /* \"#utility.yul\":2656:2661   */\n  dup3\n    /* \"#utility.yul\":2626:2665   */\n  tag_21\n  jump\t// in\ntag_60:\n    /* \"#utility.yul\":2599:2600   */\n  0x01\n    /* \"#utility.yul\":2592:2597   */\n  dup2\n    /* \"#utility.yul\":2588:2601   */\n  add\n    /* \"#utility.yul\":2579:2601   */\n  swap1\n  pop\n    /* \"#utility.yul\":2555:2675   */\n  jump(tag_57)\ntag_59:\n    /* \"#utility.yul\":2495:2681   */\n  pop\n  pop\n  jump\t// out\n    /* \"#utility.yul\":2687:3230   */\ntag_23:\n    /* \"#utility.yul\":2788:2790   */\n  0x1f\n    /* \"#utility.yul\":2783:2786   */\n  dup3\n    /* \"#utility.yul\":2780:2791   */\n  gt\n    /* \"#utility.yul\":2777:3223   */\n  iszero\n  tag_62\n  jumpi\n    /* \"#utility.yul\":2822:2860   */\n  tag_63\n    /* \"#utility.yul\":2854:2859   */\n  dup2\n    /* \"#utility.yul\":2822:2860   */\n  tag_11\n  jump\t// in\ntag_63:\n    /* \"#utility.yul\":2906:2935   */\n  tag_64\n    /* \"#utility.yul\":2924:2934   */\n  dup5\n    /* \"#utility.yul\":2906:2935   */\n  tag_12\n  jump\t// in\ntag_64:\n    /* \"#utility.yul\":2896:2904   */\n  dup2\n    /* \"#utility.yul\":2892:2936   */\n  add\n    /* \"#utility.yul\":3089:3091   */\n  0x20\n    /* \"#utility.yul\":3077:3087   */\n  dup6\n    /* \"#utility.yul\":3074:3092   */\n  lt\n    /* \"#utility.yul\":3071:3120   */\n  iszero\n  tag_65\n  jumpi\n    /* \"#utility.yul\":3110:3118   */\n  dup2\n    /* \"#utility.yul\":3095:3118   */\n  swap1\n  pop\n    /* \"#utility.yul\":3071:3120   */\ntag_65:\n    /* \"#utility.yul\":3133:3213   */\n  tag_66\n    /* \"#utility.yul\":3189:3211   */\n  tag_67\n    /* \"#utility.yul\":3207:3210   */\n  dup6\n    /* \"#utility.yul\":3189:3211   */\n  tag_12\n  jump\t// in\ntag_67:\n    /* \"#utility.yul\":3179:3187   */\n  dup4\n    /* \"#utility.yul\":3175:3212   */\n  add\n    /* \"#utility.yul\":3162:3173   */\n  dup3\n    /* \"#utility.yul\":3133:3213   */\n  tag_22\n  jump\t// in\ntag_66:\n    /* \"#utility.yul\":2792:3223   */\n  pop\n  pop\n    /* \"#utility.yul\":2777:3223   */\ntag_62:\n    /* \"#utility.yul\":2687:3230   */\n  pop\n  pop\n  pop\n  jump\t// out\n    /* \"#utility.yul\":3236:3353   */\ntag_24:\n    /* \"#utility.yul\":3290:3298   */\n  0x00\n    /* \"#utility.yul\":3340:3345   */\n  dup3\n    /* \"#utility.yul\":3334:3338   */\n  dup3\n    /* \"#utility.yul\":3330:3346   */\n  shr\n    /* \"#utility.yul\":3309:3346   */\n  swap1\n  pop\n    /* \"#utility.yul\":3236:3353   */\n  swap3\n  swap2\n  pop\n  pop\n  jump\t// out\n    /* \"#utility.yul\":3359:3528   */\ntag_25:\n    /* \"#utility.yul\":3403:3409   */\n  0x00\n    /* \"#utility.yul\":3436:3487   */\n  tag_70\n    /* \"#utility.yul\":3484:3485   */\n  0x00\n    /* \"#utility.yul\":3480:3486   */\n  not\n    /* \"#utility.yul\":3472:3477   */\n  dup5\n    /* \"#utility.yul\":3469:3470   */\n  0x08\n    /* \"#utility.yul\":3465:3478   */\n  mul\n    /* \"#utility.yul\":3436:3487   */\n  tag_24\n  jump\t// in\ntag_70:\n    /* \"#utility.yul\":3432:3488   */\n  not\n    /* \"#utility.yul\":3517:3521   */\n  dup1\n    /* \"#utility.yul\":3511:3515   */\n  dup4\n    /* \"#utility.yul\":3507:3522   */\n  and\n    /* \"#utility.yul\":3497:3522   */\n  swap2\n  pop\n    /* \"#utility.yul\":3410:3528   */\n  pop\n    /* \"#utility.yul\":3359:3528   */\n  swap3\n  swap2\n  pop\n  pop\n  jump\t// out\n    /* \"#utility.yul\":3533:3828   */\ntag_26:\n    /* \"#utility.yul\":3609:3613   */\n  0x00\n    /* \"#utility.yul\":3755:3784   */\n  tag_72\n    /* \"#utility.yul\":3780:3783   */\n  dup4\n    /* \"#utility.yul\":3774:3778   */\n  dup4\n    /* \"#utility.yul\":3755:3784   */\n  tag_25\n  jump\t// in\ntag_72:\n    /* \"#utility.yul\":3747:3784   */\n  swap2\n  pop\n    /* \"#utility.yul\":3817:3820   */\n  dup3\n    /* \"#utility.yul\":3814:3815   */\n  0x02\n    /* \"#utility.yul\":3810:3821   */\n  mul\n    /* \"#utility.yul\":3804:3808   */\n  dup3\n    /* \"#utility.yul\":3801:3822   */\n  or\n    /* \"#utility.yul\":3793:3822   */\n  swap1\n  pop\n    /* \"#utility.yul\":3533:3828   */\n  swap3\n  swap2\n  pop\n  pop\n  jump\t// out\n    /* \"#utility.yul\":3833:5228   */\ntag_2:\n    /* \"#utility.yul\":3950:3987   */\n  tag_74\n    /* \"#utility.yul\":3983:3986   */\n  dup3\n    /* \"#utility.yul\":3950:3987   */\n  tag_7\n  jump\t// in\ntag_74:\n    /* \"#utility.yul\":4052:4070   */\n  0xffffffffffffffff\n    /* \"#utility.yul\":4044:4050   */\n  dup2\n    /* \"#utility.yul\":4041:4071   */\n  gt\n    /* \"#utility.yul\":4038:4094   */\n  iszero\n  tag_75\n  jumpi\n    /* \"#utility.yul\":4074:4092   */\n  tag_76\n  tag_8\n  jump\t// in\ntag_76:\n    /* \"#utility.yul\":4038:4094   */\ntag_75:\n    /* \"#utility.yul\":4118:4156   */\n  tag_77\n    /* \"#utility.yul\":4150:4154   */\n  dup3\n    /* \"#utility.yul\":4144:4155   */\n  sload\n    /* \"#utility.yul\":4118:4156   */\n  tag_10\n  jump\t// in\ntag_77:\n    /* \"#utility.yul\":4203:4270   */\n  tag_78\n    /* \"#utility.yul\":4263:4269   */\n  dup3\n    /* \"#utility.yul\":4255:4261   */\n  dup3\n    /* \"#utility.yul\":4249:4253   */\n  dup6\n    /* \"#utility.yul\":4203:4270   */\n  tag_23\n  jump\t// in\ntag_78:\n    /* \"#utility.yul\":4297:4298   */\n  0x00\n    /* \"#utility.yul\":4321:4325   */\n  0x20\n    /* \"#utility.yul\":4308:4325   */\n  swap1\n  pop\n    /* \"#utility.yul\":4353:4355   */\n  0x1f\n    /* \"#utility.yul\":4345:4351   */\n  dup4\n    /* \"#utility.yul\":4342:4356   */\n  gt\n    /* \"#utility.yul\":4370:4371   */\n  0x01\n    /* \"#utility.yul\":4365:4983   */\n  dup2\n  eq\n  tag_80\n  jumpi\n    /* \"#utility.yul\":5027:5028   */\n  0x00\n    /* \"#utility.yul\":5044:5050   */\n  dup5\n    /* \"#utility.yul\":5041:5118   */\n  iszero\n  tag_81\n  jumpi\n    /* \"#utility.yul\":5093:5102   */\n  dup3\n    /* \"#utility.yul\":5088:5091   */\n  dup8\n    /* \"#utility.yul\":5084:5103   */\n  add\n    /* \"#utility.yul\":5078:5104   */\n  mload\n    /* \"#utility.yul\":5069:5104   */\n  swap1\n  pop\n    /* \"#utility.yul\":5041:5118   */\ntag_81:\n    /* \"#utility.yul\":5144:5211   */\n  tag_82\n    /* \"#utility.yul\":5204:5210   */\n  dup6\n    /* \"#utility.yul\":5197:5202   */\n  dup3\n    /* \"#utility.yul\":5144:5211   */\n  tag_26\n  jump\t// in\ntag_82:\n    /* \"#utility.yul\":5138:5142   */\n  dup7\n    /* \"#utility.yul\":5131:5212   */\n  sstore\n    /* \"#utility.yul\":5000:5222   */\n  pop\n    /* \"#utility.yul\":4335:5222   */\n  jump(tag_79)\n    /* \"#utility.yul\":4365:4983   */\ntag_80:\n    /* \"#utility.yul\":4417:4421   */\n  0x1f\n    /* \"#utility.yul\":4413:4422   */\n  not\n    /* \"#utility.yul\":4405:4411   */\n  dup5\n    /* \"#utility.yul\":4401:4423   */\n  and\n    /* \"#utility.yul\":4451:4488   */\n  tag_83\n    /* \"#utility.yul\":4483:4487   */\n  dup7\n    /* \"#utility.yul\":4451:4488   */\n  tag_11\n  jump\t// in\ntag_83:\n    /* \"#utility.yul\":4510:4511   */\n  0x00\n    /* \"#utility.yul\":4524:4732   */\ntag_84:\n    /* \"#utility.yul\":4538:4545   */\n  dup3\n    /* \"#utility.yul\":4535:4536   */\n  dup2\n    /* \"#utility.yul\":4532:4546   */\n  lt\n    /* \"#utility.yul\":4524:4732   */\n  iszero\n  tag_86\n  jumpi\n    /* \"#utility.yul\":4617:4626   */\n  dup5\n    /* \"#utility.yul\":4612:4615   */\n  dup10\n    /* \"#utility.yul\":4608:4627   */\n  add\n    /* \"#utility.yul\":4602:4628   */\n  mload\n    /* \"#utility.yul\":4594:4600   */\n  dup3\n    /* \"#utility.yul\":4587:4629   */\n  sstore\n    /* \"#utility.yul\":4668:4669   */\n  0x01\n    /* \"#utility.yul\":4660:4666   */\n  dup3\n    /* \"#utility.yul\":4656:4670   */\n  add\n    /* \"#utility.yul\":4646:4670   */\n  swap2\n  pop\n    /* \"#utility.yul\":4715:4717   */\n  0x20\n    /* \"#utility.yul\":4704:4713   */\n  dup6\n    /* \"#utility.yul\":4700:4718   */\n  add\n    /* \"#utility.yul\":4687:4718   */\n  swap5\n  pop\n    /* \"#utility.yul\":4561:4565   */\n  0x20\n    /* \"#utility.yul\":4558:4559   */\n  dup2\n    /* \"#utility.yul\":4554:4566   */\n  add\n    /* \"#utility.yul\":4549:4566   */\n  swap1\n  pop\n    /* \"#utility.yul\":4524:4732   */\n  jump(tag_84)\ntag_86:\n    /* \"#utility.yul\":4760:4766   */\n  dup7\n    /* \"#utility.yul\":4751:4758   */\n  dup4\n    /* \"#utility.yul\":4748:4767   */\n  lt\n    /* \"#utility.yul\":4745:4924   */\n  iszero\n  tag_87\n  jumpi\n    /* \"#utility.yul\":4818:4827   */\n  dup5\n    /* \"#utility.yul\":4813:4816   */\n  dup10\n    /* \"#utility.yul\":4809:4828   */\n  add\n    /* \"#utility.yul\":4803:4829   */\n  mload\n    /* \"#utility.yul\":4861:4909   */\n  tag_88\n    /* \"#utility.yul\":4903:4907   */\n  0x1f\n    /* \"#utility.yul\":4895:4901   */\n  dup10\n    /* \"#utility.yul\":4891:4908   */\n  and\n    /* \"#utility.yul\":4880:4889   */\n  dup3\n    /* \"#utility.yul\":4861:4909   */\n  tag_25\n  jump\t// in\ntag_88:\n    /* \"#utility.yul\":4853:4859   */\n  dup4\n    /* \"#utility.yul\":4846:4910   */\n  sstore\n    /* \"#utility.yul\":4768:4924   */\n  pop\n    /* \"#utility.yul\":4745:4924   */\ntag_87:\n    /* \"#utility.yul\":4970:4971   */\n  0x01\n    /* \"#utility.yul\":4966:4967   */\n  0x02\n    /* \"#utility.yul\":4958:4964   */\n  dup9\n    /* \"#utility.yul\":4954:4968   */\n  mul\n    /* \"#utility.yul\":4950:4972   */\n  add\n    /* \"#utility.yul\":4944:4948   */\n  dup9\n    /* \"#utility.yul\":4937:4973   */\n  sstore\n    /* \"#utility.yul\":4372:4983   */\n  pop\n  pop\n  pop\n    /* \"#utility.yul\":4335:5222   */\ntag_79:\n  pop\n    /* \"#utility.yul\":3925:5228   */\n  pop\n  pop\n  pop\n    /* \"#utility.yul\":3833:5228   */\n  pop\n  pop\n  jump\t// out\n    /* \"StudentDiary.sol\":61:1224  contract StudentDiary {... */\ntag_6:\n  dataSize(sub_0)\n  dup1\n  dataOffset(sub_0)\n  0x00\n  codecopy\n  0x00\n  return\nstop\n\nsub_0: assembly {\n        /* \"StudentDiary.sol\":61:1224  contract StudentDiary {... */\n      mstore(0x40, 0x80)\n      jumpi(tag_1, lt(calldatasize, 0x04))\n      shr(0xe0, calldataload(0x00))\n      dup1\n      0x80e8d626\n      gt\n      tag_15\n      jumpi\n      dup1\n      0xa830e15f\n      gt\n      tag_16\n      jumpi\n      dup1\n      0xa830e15f\n      eq\n      tag_11\n      jumpi\n      dup1\n      0xb182b083\n      eq\n      tag_12\n      jumpi\n      dup1\n      0xb774884a\n      eq\n      tag_13\n      jumpi\n      dup1\n      0xe2982c21\n      eq\n      tag_14\n      jumpi\n      jump(tag_1)\n    tag_16:\n      dup1\n      0x80e8d626\n      eq\n      tag_8\n      jumpi\n      dup1\n      0x853828b6\n      eq\n      tag_9\n      jumpi\n      dup1\n      0x88e7cc08\n      eq\n      tag_10\n      jumpi\n      jump(tag_1)\n    tag_15:\n      dup1\n      0x0f91d842\n      eq\n      tag_2\n      jumpi\n      dup1\n      0x13bea460\n      eq\n      tag_3\n      jumpi\n      dup1\n      0x25073a49\n      eq\n      tag_4\n      jumpi\n      dup1\n      0x59212064\n      eq\n      tag_5\n      jumpi\n      dup1\n      0x699450e8\n      eq\n      tag_6\n      jumpi\n      dup1\n      0x6c5f5966\n      eq\n      tag_7\n      jumpi\n    tag_1:\n      revert(0x00, 0x00)\n        /* \"StudentDiary.sol\":161:176  int public urok */\n    tag_2:\n      callvalue\n      dup1\n      iszero\n      tag_17\n      jumpi\n      revert(0x00, 0x00)\n    tag_17:\n      pop\n      tag_18\n      tag_19\n      jump\t// in\n    tag_18:\n      mload(0x40)\n      tag_20\n      swap2\n      swap1\n      tag_21\n      jump\t// in\n    tag_20:\n      mload(0x40)\n      dup1\n      swap2\n      sub\n      swap1\n      return\n        /* \"StudentDiary.sol\":865:997  function payForItem() external payable returns(uint) {... */\n    tag_3:\n      tag_22\n      tag_23\n      jump\t// in\n    tag_22:\n      mload(0x40)\n      tag_24\n      swap2\n      swap1\n      tag_25\n      jump\t// in\n    tag_24:\n      mload(0x40)\n      dup1\n      swap2\n      sub\n      swap1\n      return\n        /* \"StudentDiary.sol\":374:518  function replace(string memory bulba, uint ocenka) public {... */\n    tag_4:\n      callvalue\n      dup1\n      iszero\n      tag_26\n      jumpi\n      revert(0x00, 0x00)\n    tag_26:\n      pop\n      tag_27\n      0x04\n      dup1\n      calldatasize\n      sub\n      dup2\n      add\n      swap1\n      tag_28\n      swap2\n      swap1\n      tag_29\n      jump\t// in\n    tag_28:\n      tag_30\n      jump\t// in\n    tag_27:\n      stop\n        /* \"StudentDiary.sol\":608:685  function swapStatusInactive() public {... */\n    tag_5:\n      callvalue\n      dup1\n      iszero\n      tag_31\n      jumpi\n      revert(0x00, 0x00)\n    tag_31:\n      pop\n      tag_32\n      tag_33\n      jump\t// in\n    tag_32:\n      stop\n        /* \"StudentDiary.sol\":90:112  address public student */\n    tag_6:\n      callvalue\n      dup1\n      iszero\n      tag_34\n      jumpi\n      revert(0x00, 0x00)\n    tag_34:\n      pop\n      tag_35\n      tag_36\n      jump\t// in\n    tag_35:\n      mload(0x40)\n      tag_37\n      swap2\n      swap1\n      tag_38\n      jump\t// in\n    tag_37:\n      mload(0x40)\n      dup1\n      swap2\n      sub\n      swap1\n      return\n        /* \"StudentDiary.sol\":215:256  mapping (string => uint) public egoLesson */\n    tag_7:\n      callvalue\n      dup1\n      iszero\n      tag_39\n      jumpi\n      revert(0x00, 0x00)\n    tag_39:\n      pop\n      tag_40\n      0x04\n      dup1\n      calldatasize\n      sub\n      dup2\n      add\n      swap1\n      tag_41\n      swap2\n      swap1\n      tag_42\n      jump\t// in\n    tag_41:\n      tag_43\n      jump\t// in\n    tag_40:\n      mload(0x40)\n      tag_44\n      swap2\n      swap1\n      tag_25\n      jump\t// in\n    tag_44:\n      mload(0x40)\n      dup1\n      swap2\n      sub\n      swap1\n      return\n        /* \"StudentDiary.sol\":183:208  bool public statusStudent */\n    tag_8:\n      callvalue\n      dup1\n      iszero\n      tag_45\n      jumpi\n      revert(0x00, 0x00)\n    tag_45:\n      pop\n      tag_46\n      tag_47\n      jump\t// in\n    tag_46:\n      mload(0x40)\n      tag_48\n      swap2\n      swap1\n      tag_49\n      jump\t// in\n    tag_48:\n      mload(0x40)\n      dup1\n      swap2\n      sub\n      swap1\n      return\n        /* \"StudentDiary.sol\":1005:1221  function withdrawAll() public {... */\n    tag_9:\n      callvalue\n      dup1\n      iszero\n      tag_50\n      jumpi\n      revert(0x00, 0x00)\n    tag_50:\n      pop\n      tag_51\n      tag_52\n      jump\t// in\n    tag_51:\n      stop\n        /* \"StudentDiary.sol\":757:857  function umnozhenie(int newNumber) public pure returns (int) {... */\n    tag_10:\n      callvalue\n      dup1\n      iszero\n      tag_53\n      jumpi\n      revert(0x00, 0x00)\n    tag_53:\n      pop\n      tag_54\n      0x04\n      dup1\n      calldatasize\n      sub\n      dup2\n      add\n      swap1\n      tag_55\n      swap2\n      swap1\n      tag_56\n      jump\t// in\n    tag_55:\n      tag_57\n      jump\t// in\n    tag_54:\n      mload(0x40)\n      tag_58\n      swap2\n      swap1\n      tag_21\n      jump\t// in\n    tag_58:\n      mload(0x40)\n      dup1\n      swap2\n      sub\n      swap1\n      return\n        /* \"StudentDiary.sol\":119:154  string public nameStudent = \"Misha\" */\n    tag_11:\n      callvalue\n      dup1\n      iszero\n      tag_59\n      jumpi\n      revert(0x00, 0x00)\n    tag_59:\n      pop\n      tag_60\n      tag_61\n      jump\t// in\n    tag_60:\n      mload(0x40)\n      tag_62\n      swap2\n      swap1\n      tag_63\n      jump\t// in\n    tag_62:\n      mload(0x40)\n      dup1\n      swap2\n      sub\n      swap1\n      return\n        /* \"StudentDiary.sol\":693:749  function completeUrok() public {... */\n    tag_12:\n      callvalue\n      dup1\n      iszero\n      tag_64\n      jumpi\n      revert(0x00, 0x00)\n    tag_64:\n      pop\n      tag_65\n      tag_66\n      jump\t// in\n    tag_65:\n      stop\n        /* \"StudentDiary.sol\":526:600  function swapStatusActive() public {... */\n    tag_13:\n      callvalue\n      dup1\n      iszero\n      tag_67\n      jumpi\n      revert(0x00, 0x00)\n    tag_67:\n      pop\n      tag_68\n      tag_69\n      jump\t// in\n    tag_68:\n      stop\n        /* \"StudentDiary.sol\":263:304  mapping (address => uint) public payments */\n    tag_14:\n      callvalue\n      dup1\n      iszero\n      tag_70\n      jumpi\n      revert(0x00, 0x00)\n    tag_70:\n      pop\n      tag_71\n      0x04\n      dup1\n      calldatasize\n      sub\n      dup2\n      add\n      swap1\n      tag_72\n      swap2\n      swap1\n      tag_73\n      jump\t// in\n    tag_72:\n      tag_74\n      jump\t// in\n    tag_71:\n      mload(0x40)\n      tag_75\n      swap2\n      swap1\n      tag_25\n      jump\t// in\n    tag_75:\n      mload(0x40)\n      dup1\n      swap2\n      sub\n      swap1\n      return\n        /* \"StudentDiary.sol\":161:176  int public urok */\n    tag_19:\n      sload(0x02)\n      dup2\n      jump\t// out\n        /* \"StudentDiary.sol\":865:997  function payForItem() external payable returns(uint) {... */\n    tag_23:\n        /* \"StudentDiary.sol\":912:916  uint */\n      0x00\n        /* \"StudentDiary.sol\":953:962  msg.value */\n      callvalue\n        /* \"StudentDiary.sol\":929:937  payments */\n      0x05\n        /* \"StudentDiary.sol\":929:949  payments[msg.sender] */\n      0x00\n        /* \"StudentDiary.sol\":938:948  msg.sender */\n      caller\n        /* \"StudentDiary.sol\":929:949  payments[msg.sender] */\n      0xffffffffffffffffffffffffffffffffffffffff\n      and\n      0xffffffffffffffffffffffffffffffffffffffff\n      and\n      dup2\n      mstore\n      0x20\n      add\n      swap1\n      dup2\n      mstore\n      0x20\n      add\n      0x00\n      keccak256\n      0x00\n        /* \"StudentDiary.sol\":929:962  payments[msg.sender] += msg.value */\n      dup3\n      dup3\n      sload\n      tag_77\n      swap2\n      swap1\n      tag_78\n      jump\t// in\n    tag_77:\n      swap3\n      pop\n      pop\n      dup2\n      swap1\n      sstore\n      pop\n        /* \"StudentDiary.sol\":980:989  msg.value */\n      callvalue\n        /* \"StudentDiary.sol\":973:989  return msg.value */\n      swap1\n      pop\n        /* \"StudentDiary.sol\":865:997  function payForItem() external payable returns(uint) {... */\n      swap1\n      jump\t// out\n        /* \"StudentDiary.sol\":374:518  function replace(string memory bulba, uint ocenka) public {... */\n    tag_30:\n        /* \"StudentDiary.sol\":461:462  5 */\n      0x05\n        /* \"StudentDiary.sol\":451:457  ocenka */\n      dup2\n        /* \"StudentDiary.sol\":451:462  ocenka <= 5 */\n      gt\n      iszero\n        /* \"StudentDiary.sol\":443:474  require(ocenka <= 5, \"oshibka\") */\n      tag_80\n      jumpi\n      mload(0x40)\n      0x08c379a000000000000000000000000000000000000000000000000000000000\n      dup2\n      mstore\n      0x04\n      add\n      tag_81\n      swap1\n      tag_82\n      jump\t// in\n    tag_81:\n      mload(0x40)\n      dup1\n      swap2\n      sub\n      swap1\n      revert\n    tag_80:\n        /* \"StudentDiary.sol\":504:510  ocenka */\n      dup1\n        /* \"StudentDiary.sol\":485:494  egoLesson */\n      0x04\n        /* \"StudentDiary.sol\":495:500  bulba */\n      dup4\n        /* \"StudentDiary.sol\":485:501  egoLesson[bulba] */\n      mload(0x40)\n      tag_83\n      swap2\n      swap1\n      tag_84\n      jump\t// in\n    tag_83:\n      swap1\n      dup2\n      mstore\n      0x20\n      add\n      mload(0x40)\n      dup1\n      swap2\n      sub\n      swap1\n      keccak256\n        /* \"StudentDiary.sol\":485:510  egoLesson[bulba] = ocenka */\n      dup2\n      swap1\n      sstore\n      pop\n        /* \"StudentDiary.sol\":374:518  function replace(string memory bulba, uint ocenka) public {... */\n      pop\n      pop\n      jump\t// out\n        /* \"StudentDiary.sol\":608:685  function swapStatusInactive() public {... */\n    tag_33:\n        /* \"StudentDiary.sol\":672:677  false */\n      0x00\n        /* \"StudentDiary.sol\":656:669  statusStudent */\n      0x03\n      0x00\n        /* \"StudentDiary.sol\":656:677  statusStudent = false */\n      0x0100\n      exp\n      dup2\n      sload\n      dup2\n      0xff\n      mul\n      not\n      and\n      swap1\n      dup4\n      iszero\n      iszero\n      mul\n      or\n      swap1\n      sstore\n      pop\n        /* \"StudentDiary.sol\":608:685  function swapStatusInactive() public {... */\n      jump\t// out\n        /* \"StudentDiary.sol\":90:112  address public student */\n    tag_36:\n      0x00\n      0x00\n      swap1\n      sload\n      swap1\n      0x0100\n      exp\n      swap1\n      div\n      0xffffffffffffffffffffffffffffffffffffffff\n      and\n      dup2\n      jump\t// out\n        /* \"StudentDiary.sol\":215:256  mapping (string => uint) public egoLesson */\n    tag_43:\n      0x04\n      dup2\n      dup1\n      mload\n      0x20\n      dup2\n      add\n      dup3\n      add\n      dup1\n      mload\n      dup5\n      dup3\n      mstore\n      0x20\n      dup4\n      add\n      0x20\n      dup6\n      add\n      keccak256\n      dup2\n      dup4\n      mstore\n      dup1\n      swap6\n      pop\n      pop\n      pop\n      pop\n      pop\n      pop\n      0x00\n      swap2\n      pop\n      swap1\n      pop\n      sload\n      dup2\n      jump\t// out\n        /* \"StudentDiary.sol\":183:208  bool public statusStudent */\n    tag_47:\n      0x03\n      0x00\n      swap1\n      sload\n      swap1\n      0x0100\n      exp\n      swap1\n      div\n      0xff\n      and\n      dup2\n      jump\t// out\n        /* \"StudentDiary.sol\":1005:1221  function withdrawAll() public {... */\n    tag_52:\n        /* \"StudentDiary.sol\":1046:1065  address payable _to */\n      0x00\n        /* \"StudentDiary.sol\":1076:1083  student */\n      0x00\n      0x00\n      swap1\n      sload\n      swap1\n      0x0100\n      exp\n      swap1\n      div\n      0xffffffffffffffffffffffffffffffffffffffff\n      and\n        /* \"StudentDiary.sol\":1046:1084  address payable _to = payable(student) */\n      swap1\n      pop\n        /* \"StudentDiary.sol\":1095:1116  address _thisContract */\n      0x00\n        /* \"StudentDiary.sol\":1127:1131  this */\n      address\n        /* \"StudentDiary.sol\":1095:1132  address _thisContract = address(this) */\n      swap1\n      pop\n        /* \"StudentDiary.sol\":1143:1146  _to */\n      dup2\n        /* \"StudentDiary.sol\":1143:1155  _to.transfer */\n      0xffffffffffffffffffffffffffffffffffffffff\n      and\n        /* \"StudentDiary.sol\":1143:1178  _to.transfer(_thisContract.balance) */\n      0x08fc\n        /* \"StudentDiary.sol\":1156:1169  _thisContract */\n      dup3\n        /* \"StudentDiary.sol\":1156:1177  _thisContract.balance */\n      0xffffffffffffffffffffffffffffffffffffffff\n      and\n      balance\n        /* \"StudentDiary.sol\":1143:1178  _to.transfer(_thisContract.balance) */\n      swap1\n      dup2\n      iszero\n      mul\n      swap1\n      mload(0x40)\n      0x00\n      mload(0x40)\n      dup1\n      dup4\n      sub\n      dup2\n      dup6\n      dup9\n      dup9\n      call\n      swap4\n      pop\n      pop\n      pop\n      pop\n      iszero\n      dup1\n      iszero\n      tag_88\n      jumpi\n      returndatacopy(0x00, 0x00, returndatasize)\n      revert(0x00, returndatasize)\n    tag_88:\n      pop\n        /* \"StudentDiary.sol\":1212:1213  0 */\n      0x00\n        /* \"StudentDiary.sol\":1189:1197  payments */\n      0x05\n        /* \"StudentDiary.sol\":1189:1209  payments[msg.sender] */\n      0x00\n        /* \"StudentDiary.sol\":1198:1208  msg.sender */\n      caller\n        /* \"StudentDiary.sol\":1189:1209  payments[msg.sender] */\n      0xffffffffffffffffffffffffffffffffffffffff\n      and\n      0xffffffffffffffffffffffffffffffffffffffff\n      and\n      dup2\n      mstore\n      0x20\n      add\n      swap1\n      dup2\n      mstore\n      0x20\n      add\n      0x00\n      keccak256\n        /* \"StudentDiary.sol\":1189:1213  payments[msg.sender] = 0 */\n      dup2\n      swap1\n      sstore\n      pop\n        /* \"StudentDiary.sol\":1035:1221  {... */\n      pop\n      pop\n        /* \"StudentDiary.sol\":1005:1221  function withdrawAll() public {... */\n      jump\t// out\n        /* \"StudentDiary.sol\":757:857  function umnozhenie(int newNumber) public pure returns (int) {... */\n    tag_57:\n        /* \"StudentDiary.sol\":813:816  int */\n      0x00\n        /* \"StudentDiary.sol\":848:849  2 */\n      0x02\n        /* \"StudentDiary.sol\":836:845  newNumber */\n      dup3\n        /* \"StudentDiary.sol\":836:849  newNumber * 2 */\n      tag_90\n      swap2\n      swap1\n      tag_91\n      jump\t// in\n    tag_90:\n        /* \"StudentDiary.sol\":829:849  return newNumber * 2 */\n      swap1\n      pop\n        /* \"StudentDiary.sol\":757:857  function umnozhenie(int newNumber) public pure returns (int) {... */\n      swap2\n      swap1\n      pop\n      jump\t// out\n        /* \"StudentDiary.sol\":119:154  string public nameStudent = \"Misha\" */\n    tag_61:\n      0x01\n      dup1\n      sload\n      tag_92\n      swap1\n      tag_93\n      jump\t// in\n    tag_92:\n      dup1\n      0x1f\n      add\n      0x20\n      dup1\n      swap2\n      div\n      mul\n      0x20\n      add\n      mload(0x40)\n      swap1\n      dup2\n      add\n      0x40\n      mstore\n      dup1\n      swap3\n      swap2\n      swap1\n      dup2\n      dup2\n      mstore\n      0x20\n      add\n      dup3\n      dup1\n      sload\n      tag_94\n      swap1\n      tag_93\n      jump\t// in\n    tag_94:\n      dup1\n      iszero\n      tag_95\n      jumpi\n      dup1\n      0x1f\n      lt\n      tag_96\n      jumpi\n      0x0100\n      dup1\n      dup4\n      sload\n      div\n      mul\n      dup4\n      mstore\n      swap2\n      0x20\n      add\n      swap2\n      jump(tag_95)\n    tag_96:\n      dup3\n      add\n      swap2\n      swap1\n      0x00\n      mstore\n      keccak256(0x00, 0x20)\n      swap1\n    tag_97:\n      dup2\n      sload\n      dup2\n      mstore\n      swap1\n      0x01\n      add\n      swap1\n      0x20\n      add\n      dup1\n      dup4\n      gt\n      tag_97\n      jumpi\n      dup3\n      swap1\n      sub\n      0x1f\n      and\n      dup3\n      add\n      swap2\n    tag_95:\n      pop\n      pop\n      pop\n      pop\n      pop\n      dup2\n      jump\t// out\n        /* \"StudentDiary.sol\":693:749  function completeUrok() public {... */\n    tag_66:\n        /* \"StudentDiary.sol\":735:739  urok */\n      0x02\n      0x00\n        /* \"StudentDiary.sol\":735:741  urok++ */\n      dup2\n      sload\n      dup1\n      swap3\n      swap2\n      swap1\n      tag_99\n      swap1\n      tag_100\n      jump\t// in\n    tag_99:\n      swap2\n      swap1\n      pop\n      sstore\n      pop\n        /* \"StudentDiary.sol\":693:749  function completeUrok() public {... */\n      jump\t// out\n        /* \"StudentDiary.sol\":526:600  function swapStatusActive() public {... */\n    tag_69:\n        /* \"StudentDiary.sol\":588:592  true */\n      0x01\n        /* \"StudentDiary.sol\":572:585  statusStudent */\n      0x03\n      0x00\n        /* \"StudentDiary.sol\":572:592  statusStudent = true */\n      0x0100\n      exp\n      dup2\n      sload\n      dup2\n      0xff\n      mul\n      not\n      and\n      swap1\n      dup4\n      iszero\n      iszero\n      mul\n      or\n      swap1\n      sstore\n      pop\n        /* \"StudentDiary.sol\":526:600  function swapStatusActive() public {... */\n      jump\t// out\n        /* \"StudentDiary.sol\":263:304  mapping (address => uint) public payments */\n    tag_74:\n      mstore(0x20, 0x05)\n      dup1\n      0x00\n      mstore\n      keccak256(0x00, 0x40)\n      0x00\n      swap2\n      pop\n      swap1\n      pop\n      sload\n      dup2\n      jump\t// out\n        /* \"#utility.yul\":7:83   */\n    tag_102:\n        /* \"#utility.yul\":43:50   */\n      0x00\n        /* \"#utility.yul\":72:77   */\n      dup2\n        /* \"#utility.yul\":61:77   */\n      swap1\n      pop\n        /* \"#utility.yul\":7:83   */\n      swap2\n      swap1\n      pop\n      jump\t// out\n        /* \"#utility.yul\":89:204   */\n    tag_103:\n        /* \"#utility.yul\":174:197   */\n      tag_143\n        /* \"#utility.yul\":191:196   */\n      dup2\n        /* \"#utility.yul\":174:197   */\n      tag_102\n      jump\t// in\n    tag_143:\n        /* \"#utility.yul\":169:172   */\n      dup3\n        /* \"#utility.yul\":162:198   */\n      mstore\n        /* \"#utility.yul\":89:204   */\n      pop\n      pop\n      jump\t// out\n        /* \"#utility.yul\":210:428   */\n    tag_21:\n        /* \"#utility.yul\":301:305   */\n      0x00\n        /* \"#utility.yul\":339:341   */\n      0x20\n        /* \"#utility.yul\":328:337   */\n      dup3\n        /* \"#utility.yul\":324:342   */\n      add\n        /* \"#utility.yul\":316:342   */\n      swap1\n      pop\n        /* \"#utility.yul\":352:421   */\n      tag_145\n        /* \"#utility.yul\":418:419   */\n      0x00\n        /* \"#utility.yul\":407:416   */\n      dup4\n        /* \"#utility.yul\":403:420   */\n      add\n        /* \"#utility.yul\":394:400   */\n      dup5\n        /* \"#utility.yul\":352:421   */\n      tag_103\n      jump\t// in\n    tag_145:\n        /* \"#utility.yul\":210:428   */\n      swap3\n      swap2\n      pop\n      pop\n      jump\t// out\n        /* \"#utility.yul\":434:511   */\n    tag_104:\n        /* \"#utility.yul\":471:478   */\n      0x00\n        /* \"#utility.yul\":500:505   */\n      dup2\n        /* \"#utility.yul\":489:505   */\n      swap1\n      pop\n        /* \"#utility.yul\":434:511   */\n      swap2\n      swap1\n      pop\n      jump\t// out\n        /* \"#utility.yul\":517:635   */\n    tag_105:\n        /* \"#utility.yul\":604:628   */\n      tag_148\n        /* \"#utility.yul\":622:627   */\n      dup2\n        /* \"#utility.yul\":604:628   */\n      tag_104\n      jump\t// in\n    tag_148:\n        /* \"#utility.yul\":599:602   */\n      dup3\n        /* \"#utility.yul\":592:629   */\n      mstore\n        /* \"#utility.yul\":517:635   */\n      pop\n      pop\n      jump\t// out\n        /* \"#utility.yul\":641:863   */\n    tag_25:\n        /* \"#utility.yul\":734:738   */\n      0x00\n        /* \"#utility.yul\":772:774   */\n      0x20\n        /* \"#utility.yul\":761:770   */\n      dup3\n        /* \"#utility.yul\":757:775   */\n      add\n        /* \"#utility.yul\":749:775   */\n      swap1\n      pop\n        /* \"#utility.yul\":785:856   */\n      tag_150\n        /* \"#utility.yul\":853:854   */\n      0x00\n        /* \"#utility.yul\":842:851   */\n      dup4\n        /* \"#utility.yul\":838:855   */\n      add\n        /* \"#utility.yul\":829:835   */\n      dup5\n        /* \"#utility.yul\":785:856   */\n      tag_105\n      jump\t// in\n    tag_150:\n        /* \"#utility.yul\":641:863   */\n      swap3\n      swap2\n      pop\n      pop\n      jump\t// out\n        /* \"#utility.yul\":869:944   */\n    tag_106:\n        /* \"#utility.yul\":902:908   */\n      0x00\n        /* \"#utility.yul\":935:937   */\n      0x40\n        /* \"#utility.yul\":929:938   */\n      mload\n        /* \"#utility.yul\":919:938   */\n      swap1\n      pop\n        /* \"#utility.yul\":869:944   */\n      swap1\n      jump\t// out\n        /* \"#utility.yul\":950:1067   */\n    tag_107:\n        /* \"#utility.yul\":1059:1060   */\n      0x00\n        /* \"#utility.yul\":1056:1057   */\n      0x00\n        /* \"#utility.yul\":1049:1061   */\n      revert\n        /* \"#utility.yul\":1073:1190   */\n    tag_108:\n        /* \"#utility.yul\":1182:1183   */\n      0x00\n        /* \"#utility.yul\":1179:1180   */\n      0x00\n        /* \"#utility.yul\":1172:1184   */\n      revert\n        /* \"#utility.yul\":1196:1313   */\n    tag_109:\n        /* \"#utility.yul\":1305:1306   */\n      0x00\n        /* \"#utility.yul\":1302:1303   */\n      0x00\n        /* \"#utility.yul\":1295:1307   */\n      revert\n        /* \"#utility.yul\":1319:1436   */\n    tag_110:\n        /* \"#utility.yul\":1428:1429   */\n      0x00\n        /* \"#utility.yul\":1425:1426   */\n      0x00\n        /* \"#utility.yul\":1418:1430   */\n      revert\n        /* \"#utility.yul\":1442:1544   */\n    tag_111:\n        /* \"#utility.yul\":1483:1489   */\n      0x00\n        /* \"#utility.yul\":1534:1536   */\n      0x1f\n        /* \"#utility.yul\":1530:1537   */\n      not\n        /* \"#utility.yul\":1525:1527   */\n      0x1f\n        /* \"#utility.yul\":1518:1523   */\n      dup4\n        /* \"#utility.yul\":1514:1528   */\n      add\n        /* \"#utility.yul\":1510:1538   */\n      and\n        /* \"#utility.yul\":1500:1538   */\n      swap1\n      pop\n        /* \"#utility.yul\":1442:1544   */\n      swap2\n      swap1\n      pop\n      jump\t// out\n        /* \"#utility.yul\":1550:1730   */\n    tag_112:\n        /* \"#utility.yul\":1598:1675   */\n      0x4e487b7100000000000000000000000000000000000000000000000000000000\n        /* \"#utility.yul\":1595:1596   */\n      0x00\n        /* \"#utility.yul\":1588:1676   */\n      mstore\n        /* \"#utility.yul\":1695:1699   */\n      0x41\n        /* \"#utility.yul\":1692:1693   */\n      0x04\n        /* \"#utility.yul\":1685:1700   */\n      mstore\n        /* \"#utility.yul\":1719:1723   */\n      0x24\n        /* \"#utility.yul\":1716:1717   */\n      0x00\n        /* \"#utility.yul\":1709:1724   */\n      revert\n        /* \"#utility.yul\":1736:2017   */\n    tag_113:\n        /* \"#utility.yul\":1819:1846   */\n      tag_159\n        /* \"#utility.yul\":1841:1845   */\n      dup3\n        /* \"#utility.yul\":1819:1846   */\n      tag_111\n      jump\t// in\n    tag_159:\n        /* \"#utility.yul\":1811:1817   */\n      dup2\n        /* \"#utility.yul\":1807:1847   */\n      add\n        /* \"#utility.yul\":1949:1955   */\n      dup2\n        /* \"#utility.yul\":1937:1947   */\n      dup2\n        /* \"#utility.yul\":1934:1956   */\n      lt\n        /* \"#utility.yul\":1913:1931   */\n      0xffffffffffffffff\n        /* \"#utility.yul\":1901:1911   */\n      dup3\n        /* \"#utility.yul\":1898:1932   */\n      gt\n        /* \"#utility.yul\":1895:1957   */\n      or\n        /* \"#utility.yul\":1892:1980   */\n      iszero\n      tag_160\n      jumpi\n        /* \"#utility.yul\":1960:1978   */\n      tag_161\n      tag_112\n      jump\t// in\n    tag_161:\n        /* \"#utility.yul\":1892:1980   */\n    tag_160:\n        /* \"#utility.yul\":2000:2010   */\n      dup1\n        /* \"#utility.yul\":1996:1998   */\n      0x40\n        /* \"#utility.yul\":1989:2011   */\n      mstore\n        /* \"#utility.yul\":1779:2017   */\n      pop\n        /* \"#utility.yul\":1736:2017   */\n      pop\n      pop\n      jump\t// out\n        /* \"#utility.yul\":2023:2152   */\n    tag_114:\n        /* \"#utility.yul\":2057:2063   */\n      0x00\n        /* \"#utility.yul\":2084:2104   */\n      tag_163\n      tag_106\n      jump\t// in\n    tag_163:\n        /* \"#utility.yul\":2074:2104   */\n      swap1\n      pop\n        /* \"#utility.yul\":2113:2146   */\n      tag_164\n        /* \"#utility.yul\":2141:2145   */\n      dup3\n        /* \"#utility.yul\":2133:2139   */\n      dup3\n        /* \"#utility.yul\":2113:2146   */\n      tag_113\n      jump\t// in\n    tag_164:\n        /* \"#utility.yul\":2023:2152   */\n      swap2\n      swap1\n      pop\n      jump\t// out\n        /* \"#utility.yul\":2158:2466   */\n    tag_115:\n        /* \"#utility.yul\":2220:2224   */\n      0x00\n        /* \"#utility.yul\":2310:2328   */\n      0xffffffffffffffff\n        /* \"#utility.yul\":2302:2308   */\n      dup3\n        /* \"#utility.yul\":2299:2329   */\n      gt\n        /* \"#utility.yul\":2296:2352   */\n      iszero\n      tag_166\n      jumpi\n        /* \"#utility.yul\":2332:2350   */\n      tag_167\n      tag_112\n      jump\t// in\n    tag_167:\n        /* \"#utility.yul\":2296:2352   */\n    tag_166:\n        /* \"#utility.yul\":2370:2399   */\n      tag_168\n        /* \"#utility.yul\":2392:2398   */\n      dup3\n        /* \"#utility.yul\":2370:2399   */\n      tag_111\n      jump\t// in\n    tag_168:\n        /* \"#utility.yul\":2362:2399   */\n      swap1\n      pop\n        /* \"#utility.yul\":2454:2458   */\n      0x20\n        /* \"#utility.yul\":2448:2452   */\n      dup2\n        /* \"#utility.yul\":2444:2459   */\n      add\n        /* \"#utility.yul\":2436:2459   */\n      swap1\n      pop\n        /* \"#utility.yul\":2158:2466   */\n      swap2\n      swap1\n      pop\n      jump\t// out\n        /* \"#utility.yul\":2472:2620   */\n    tag_116:\n        /* \"#utility.yul\":2570:2576   */\n      dup3\n        /* \"#utility.yul\":2565:2568   */\n      dup2\n        /* \"#utility.yul\":2560:2563   */\n      dup4\n        /* \"#utility.yul\":2547:2577   */\n      calldatacopy\n        /* \"#utility.yul\":2611:2612   */\n      0x00\n        /* \"#utility.yul\":2602:2608   */\n      dup4\n        /* \"#utility.yul\":2597:2600   */\n      dup4\n        /* \"#utility.yul\":2593:2609   */\n      add\n        /* \"#utility.yul\":2586:2613   */\n      mstore\n        /* \"#utility.yul\":2472:2620   */\n      pop\n      pop\n      pop\n      jump\t// out\n        /* \"#utility.yul\":2626:3051   */\n    tag_117:\n        /* \"#utility.yul\":2704:2709   */\n      0x00\n        /* \"#utility.yul\":2729:2795   */\n      tag_171\n        /* \"#utility.yul\":2745:2794   */\n      tag_172\n        /* \"#utility.yul\":2787:2793   */\n      dup5\n        /* \"#utility.yul\":2745:2794   */\n      tag_115\n      jump\t// in\n    tag_172:\n        /* \"#utility.yul\":2729:2795   */\n      tag_114\n      jump\t// in\n    tag_171:\n        /* \"#utility.yul\":2720:2795   */\n      swap1\n      pop\n        /* \"#utility.yul\":2818:2824   */\n      dup3\n        /* \"#utility.yul\":2811:2816   */\n      dup2\n        /* \"#utility.yul\":2804:2825   */\n      mstore\n        /* \"#utility.yul\":2856:2860   */\n      0x20\n        /* \"#utility.yul\":2849:2854   */\n      dup2\n        /* \"#utility.yul\":2845:2861   */\n      add\n        /* \"#utility.yul\":2894:2897   */\n      dup5\n        /* \"#utility.yul\":2885:2891   */\n      dup5\n        /* \"#utility.yul\":2880:2883   */\n      dup5\n        /* \"#utility.yul\":2876:2892   */\n      add\n        /* \"#utility.yul\":2873:2898   */\n      gt\n        /* \"#utility.yul\":2870:2982   */\n      iszero\n      tag_173\n      jumpi\n        /* \"#utility.yul\":2901:2980   */\n      tag_174\n      tag_110\n      jump\t// in\n    tag_174:\n        /* \"#utility.yul\":2870:2982   */\n    tag_173:\n        /* \"#utility.yul\":2991:3045   */\n      tag_175\n        /* \"#utility.yul\":3038:3044   */\n      dup5\n        /* \"#utility.yul\":3033:3036   */\n      dup3\n        /* \"#utility.yul\":3028:3031   */\n      dup6\n        /* \"#utility.yul\":2991:3045   */\n      tag_116\n      jump\t// in\n    tag_175:\n        /* \"#utility.yul\":2710:3051   */\n      pop\n        /* \"#utility.yul\":2626:3051   */\n      swap4\n      swap3\n      pop\n      pop\n      pop\n      jump\t// out\n        /* \"#utility.yul\":3071:3411   */\n    tag_118:\n        /* \"#utility.yul\":3127:3132   */\n      0x00\n        /* \"#utility.yul\":3176:3179   */\n      dup3\n        /* \"#utility.yul\":3169:3173   */\n      0x1f\n        /* \"#utility.yul\":3161:3167   */\n      dup4\n        /* \"#utility.yul\":3157:3174   */\n      add\n        /* \"#utility.yul\":3153:3180   */\n      slt\n        /* \"#utility.yul\":3143:3265   */\n      tag_177\n      jumpi\n        /* \"#utility.yul\":3184:3263   */\n      tag_178\n      tag_109\n      jump\t// in\n    tag_178:\n        /* \"#utility.yul\":3143:3265   */\n    tag_177:\n        /* \"#utility.yul\":3301:3307   */\n      dup2\n        /* \"#utility.yul\":3288:3308   */\n      calldataload\n        /* \"#utility.yul\":3326:3405   */\n      tag_179\n        /* \"#utility.yul\":3401:3404   */\n      dup5\n        /* \"#utility.yul\":3393:3399   */\n      dup3\n        /* \"#utility.yul\":3386:3390   */\n      0x20\n        /* \"#utility.yul\":3378:3384   */\n      dup7\n        /* \"#utility.yul\":3374:3391   */\n      add\n        /* \"#utility.yul\":3326:3405   */\n      tag_117\n      jump\t// in\n    tag_179:\n        /* \"#utility.yul\":3317:3405   */\n      swap2\n      pop\n        /* \"#utility.yul\":3133:3411   */\n      pop\n        /* \"#utility.yul\":3071:3411   */\n      swap3\n      swap2\n      pop\n      pop\n      jump\t// out\n        /* \"#utility.yul\":3417:3539   */\n    tag_119:\n        /* \"#utility.yul\":3490:3514   */\n      tag_181\n        /* \"#utility.yul\":3508:3513   */\n      dup2\n        /* \"#utility.yul\":3490:3514   */\n      tag_104\n      jump\t// in\n    tag_181:\n        /* \"#utility.yul\":3483:3488   */\n      dup2\n        /* \"#utility.yul\":3480:3515   */\n      eq\n        /* \"#utility.yul\":3470:3533   */\n      tag_182\n      jumpi\n        /* \"#utility.yul\":3529:3530   */\n      0x00\n        /* \"#utility.yul\":3526:3527   */\n      0x00\n        /* \"#utility.yul\":3519:3531   */\n      revert\n        /* \"#utility.yul\":3470:3533   */\n    tag_182:\n        /* \"#utility.yul\":3417:3539   */\n      pop\n      jump\t// out\n        /* \"#utility.yul\":3545:3684   */\n    tag_120:\n        /* \"#utility.yul\":3591:3596   */\n      0x00\n        /* \"#utility.yul\":3629:3635   */\n      dup2\n        /* \"#utility.yul\":3616:3636   */\n      calldataload\n        /* \"#utility.yul\":3607:3636   */\n      swap1\n      pop\n        /* \"#utility.yul\":3645:3678   */\n      tag_184\n        /* \"#utility.yul\":3672:3677   */\n      dup2\n        /* \"#utility.yul\":3645:3678   */\n      tag_119\n      jump\t// in\n    tag_184:\n        /* \"#utility.yul\":3545:3684   */\n      swap3\n      swap2\n      pop\n      pop\n      jump\t// out\n        /* \"#utility.yul\":3690:4344   */\n    tag_29:\n        /* \"#utility.yul\":3768:3774   */\n      0x00\n        /* \"#utility.yul\":3776:3782   */\n      0x00\n        /* \"#utility.yul\":3825:3827   */\n      0x40\n        /* \"#utility.yul\":3813:3822   */\n      dup4\n        /* \"#utility.yul\":3804:3811   */\n      dup6\n        /* \"#utility.yul\":3800:3823   */\n      sub\n        /* \"#utility.yul\":3796:3828   */\n      slt\n        /* \"#utility.yul\":3793:3912   */\n      iszero\n      tag_186\n      jumpi\n        /* \"#utility.yul\":3831:3910   */\n      tag_187\n      tag_107\n      jump\t// in\n    tag_187:\n        /* \"#utility.yul\":3793:3912   */\n    tag_186:\n        /* \"#utility.yul\":3979:3980   */\n      0x00\n        /* \"#utility.yul\":3968:3977   */\n      dup4\n        /* \"#utility.yul\":3964:3981   */\n      add\n        /* \"#utility.yul\":3951:3982   */\n      calldataload\n        /* \"#utility.yul\":4009:4027   */\n      0xffffffffffffffff\n        /* \"#utility.yul\":4001:4007   */\n      dup2\n        /* \"#utility.yul\":3998:4028   */\n      gt\n        /* \"#utility.yul\":3995:4112   */\n      iszero\n      tag_188\n      jumpi\n        /* \"#utility.yul\":4031:4110   */\n      tag_189\n      tag_108\n      jump\t// in\n    tag_189:\n        /* \"#utility.yul\":3995:4112   */\n    tag_188:\n        /* \"#utility.yul\":4136:4199   */\n      tag_190\n        /* \"#utility.yul\":4191:4198   */\n      dup6\n        /* \"#utility.yul\":4182:4188   */\n      dup3\n        /* \"#utility.yul\":4171:4180   */\n      dup7\n        /* \"#utility.yul\":4167:4189   */\n      add\n        /* \"#utility.yul\":4136:4199   */\n      tag_118\n      jump\t// in\n    tag_190:\n        /* \"#utility.yul\":4126:4199   */\n      swap3\n      pop\n        /* \"#utility.yul\":3922:4209   */\n      pop\n        /* \"#utility.yul\":4248:4250   */\n      0x20\n        /* \"#utility.yul\":4274:4327   */\n      tag_191\n        /* \"#utility.yul\":4319:4326   */\n      dup6\n        /* \"#utility.yul\":4310:4316   */\n      dup3\n        /* \"#utility.yul\":4299:4308   */\n      dup7\n        /* \"#utility.yul\":4295:4317   */\n      add\n        /* \"#utility.yul\":4274:4327   */\n      tag_120\n      jump\t// in\n    tag_191:\n        /* \"#utility.yul\":4264:4327   */\n      swap2\n      pop\n        /* \"#utility.yul\":4219:4337   */\n      pop\n        /* \"#utility.yul\":3690:4344   */\n      swap3\n      pop\n      swap3\n      swap1\n      pop\n      jump\t// out\n        /* \"#utility.yul\":4350:4476   */\n    tag_121:\n        /* \"#utility.yul\":4387:4394   */\n      0x00\n        /* \"#utility.yul\":4427:4469   */\n      0xffffffffffffffffffffffffffffffffffffffff\n        /* \"#utility.yul\":4420:4425   */\n      dup3\n        /* \"#utility.yul\":4416:4470   */\n      and\n        /* \"#utility.yul\":4405:4470   */\n      swap1\n      pop\n        /* \"#utility.yul\":4350:4476   */\n      swap2\n      swap1\n      pop\n      jump\t// out\n        /* \"#utility.yul\":4482:4578   */\n    tag_122:\n        /* \"#utility.yul\":4519:4526   */\n      0x00\n        /* \"#utility.yul\":4548:4572   */\n      tag_194\n        /* \"#utility.yul\":4566:4571   */\n      dup3\n        /* \"#utility.yul\":4548:4572   */\n      tag_121\n      jump\t// in\n    tag_194:\n        /* \"#utility.yul\":4537:4572   */\n      swap1\n      pop\n        /* \"#utility.yul\":4482:4578   */\n      swap2\n      swap1\n      pop\n      jump\t// out\n        /* \"#utility.yul\":4584:4702   */\n    tag_123:\n        /* \"#utility.yul\":4671:4695   */\n      tag_196\n        /* \"#utility.yul\":4689:4694   */\n      dup2\n        /* \"#utility.yul\":4671:4695   */\n      tag_122\n      jump\t// in\n    tag_196:\n        /* \"#utility.yul\":4666:4669   */\n      dup3\n        /* \"#utility.yul\":4659:4696   */\n      mstore\n        /* \"#utility.yul\":4584:4702   */\n      pop\n      pop\n      jump\t// out\n        /* \"#utility.yul\":4708:4930   */\n    tag_38:\n        /* \"#utility.yul\":4801:4805   */\n      0x00\n        /* \"#utility.yul\":4839:4841   */\n      0x20\n        /* \"#utility.yul\":4828:4837   */\n      dup3\n        /* \"#utility.yul\":4824:4842   */\n      add\n        /* \"#utility.yul\":4816:4842   */\n      swap1\n      pop\n        /* \"#utility.yul\":4852:4923   */\n      tag_198\n        /* \"#utility.yul\":4920:4921   */\n      0x00\n        /* \"#utility.yul\":4909:4918   */\n      dup4\n        /* \"#utility.yul\":4905:4922   */\n      add\n        /* \"#utility.yul\":4896:4902   */\n      dup5\n        /* \"#utility.yul\":4852:4923   */\n      tag_123\n      jump\t// in\n    tag_198:\n        /* \"#utility.yul\":4708:4930   */\n      swap3\n      swap2\n      pop\n      pop\n      jump\t// out\n        /* \"#utility.yul\":4936:5445   */\n    tag_42:\n        /* \"#utility.yul\":5005:5011   */\n      0x00\n        /* \"#utility.yul\":5054:5056   */\n      0x20\n        /* \"#utility.yul\":5042:5051   */\n      dup3\n        /* \"#utility.yul\":5033:5040   */\n      dup5\n        /* \"#utility.yul\":5029:5052   */\n      sub\n        /* \"#utility.yul\":5025:5057   */\n      slt\n        /* \"#utility.yul\":5022:5141   */\n      iszero\n      tag_200\n      jumpi\n        /* \"#utility.yul\":5060:5139   */\n      tag_201\n      tag_107\n      jump\t// in\n    tag_201:\n        /* \"#utility.yul\":5022:5141   */\n    tag_200:\n        /* \"#utility.yul\":5208:5209   */\n      0x00\n        /* \"#utility.yul\":5197:5206   */\n      dup3\n        /* \"#utility.yul\":5193:5210   */\n      add\n        /* \"#utility.yul\":5180:5211   */\n      calldataload\n        /* \"#utility.yul\":5238:5256   */\n      0xffffffffffffffff\n        /* \"#utility.yul\":5230:5236   */\n      dup2\n        /* \"#utility.yul\":5227:5257   */\n      gt\n        /* \"#utility.yul\":5224:5341   */\n      iszero\n      tag_202\n      jumpi\n        /* \"#utility.yul\":5260:5339   */\n      tag_203\n      tag_108\n      jump\t// in\n    tag_203:\n        /* \"#utility.yul\":5224:5341   */\n    tag_202:\n        /* \"#utility.yul\":5365:5428   */\n      tag_204\n        /* \"#utility.yul\":5420:5427   */\n      dup5\n        /* \"#utility.yul\":5411:5417   */\n      dup3\n        /* \"#utility.yul\":5400:5409   */\n      dup6\n        /* \"#utility.yul\":5396:5418   */\n      add\n        /* \"#utility.yul\":5365:5428   */\n      tag_118\n      jump\t// in\n    tag_204:\n        /* \"#utility.yul\":5355:5428   */\n      swap2\n      pop\n        /* \"#utility.yul\":5151:5438   */\n      pop\n        /* \"#utility.yul\":4936:5445   */\n      swap3\n      swap2\n      pop\n      pop\n      jump\t// out\n        /* \"#utility.yul\":5451:5541   */\n    tag_124:\n        /* \"#utility.yul\":5485:5492   */\n      0x00\n        /* \"#utility.yul\":5528:5533   */\n      dup2\n        /* \"#utility.yul\":5521:5534   */\n      iszero\n        /* \"#utility.yul\":5514:5535   */\n      iszero\n        /* \"#utility.yul\":5503:5535   */\n      swap1\n      pop\n        /* \"#utility.yul\":5451:5541   */\n      swap2\n      swap1\n      pop\n      jump\t// out\n        /* \"#utility.yul\":5547:5656   */\n    tag_125:\n        /* \"#utility.yul\":5628:5649   */\n      tag_207\n        /* \"#utility.yul\":5643:5648   */\n      dup2\n        /* \"#utility.yul\":5628:5649   */\n      tag_124\n      jump\t// in\n    tag_207:\n        /* \"#utility.yul\":5623:5626   */\n      dup3\n        /* \"#utility.yul\":5616:5650   */\n      mstore\n        /* \"#utility.yul\":5547:5656   */\n      pop\n      pop\n      jump\t// out\n        /* \"#utility.yul\":5662:5872   */\n    tag_49:\n        /* \"#utility.yul\":5749:5753   */\n      0x00\n        /* \"#utility.yul\":5787:5789   */\n      0x20\n        /* \"#utility.yul\":5776:5785   */\n      dup3\n        /* \"#utility.yul\":5772:5790   */\n      add\n        /* \"#utility.yul\":5764:5790   */\n      swap1\n      pop\n        /* \"#utility.yul\":5800:5865   */\n      tag_209\n        /* \"#utility.yul\":5862:5863   */\n      0x00\n        /* \"#utility.yul\":5851:5860   */\n      dup4\n        /* \"#utility.yul\":5847:5864   */\n      add\n        /* \"#utility.yul\":5838:5844   */\n      dup5\n        /* \"#utility.yul\":5800:5865   */\n      tag_125\n      jump\t// in\n    tag_209:\n        /* \"#utility.yul\":5662:5872   */\n      swap3\n      swap2\n      pop\n      pop\n      jump\t// out\n        /* \"#utility.yul\":5878:5998   */\n    tag_126:\n        /* \"#utility.yul\":5950:5973   */\n      tag_211\n        /* \"#utility.yul\":5967:5972   */\n      dup2\n        /* \"#utility.yul\":5950:5973   */\n      tag_102\n      jump\t// in\n    tag_211:\n        /* \"#utility.yul\":5943:5948   */\n      dup2\n        /* \"#utility.yul\":5940:5974   */\n      eq\n        /* \"#utility.yul\":5930:5992   */\n      tag_212\n      jumpi\n        /* \"#utility.yul\":5988:5989   */\n      0x00\n        /* \"#utility.yul\":5985:5986   */\n      0x00\n        /* \"#utility.yul\":5978:5990   */\n      revert\n        /* \"#utility.yul\":5930:5992   */\n    tag_212:\n        /* \"#utility.yul\":5878:5998   */\n      pop\n      jump\t// out\n        /* \"#utility.yul\":6004:6141   */\n    tag_127:\n        /* \"#utility.yul\":6049:6054   */\n      0x00\n        /* \"#utility.yul\":6087:6093   */\n      dup2\n        /* \"#utility.yul\":6074:6094   */\n      calldataload\n        /* \"#utility.yul\":6065:6094   */\n      swap1\n      pop\n        /* \"#utility.yul\":6103:6135   */\n      tag_214\n        /* \"#utility.yul\":6129:6134   */\n      dup2\n        /* \"#utility.yul\":6103:6135   */\n      tag_126\n      jump\t// in\n    tag_214:\n        /* \"#utility.yul\":6004:6141   */\n      swap3\n      swap2\n      pop\n      pop\n      jump\t// out\n        /* \"#utility.yul\":6147:6474   */\n    tag_56:\n        /* \"#utility.yul\":6205:6211   */\n      0x00\n        /* \"#utility.yul\":6254:6256   */\n      0x20\n        /* \"#utility.yul\":6242:6251   */\n      dup3\n        /* \"#utility.yul\":6233:6240   */\n      dup5\n        /* \"#utility.yul\":6229:6252   */\n      sub\n        /* \"#utility.yul\":6225:6257   */\n      slt\n        /* \"#utility.yul\":6222:6341   */\n      iszero\n      tag_216\n      jumpi\n        /* \"#utility.yul\":6260:6339   */\n      tag_217\n      tag_107\n      jump\t// in\n    tag_217:\n        /* \"#utility.yul\":6222:6341   */\n    tag_216:\n        /* \"#utility.yul\":6380:6381   */\n      0x00\n        /* \"#utility.yul\":6405:6457   */\n      tag_218\n        /* \"#utility.yul\":6449:6456   */\n      dup5\n        /* \"#utility.yul\":6440:6446   */\n      dup3\n        /* \"#utility.yul\":6429:6438   */\n      dup6\n        /* \"#utility.yul\":6425:6447   */\n      add\n        /* \"#utility.yul\":6405:6457   */\n      tag_127\n      jump\t// in\n    tag_218:\n        /* \"#utility.yul\":6395:6457   */\n      swap2\n      pop\n        /* \"#utility.yul\":6351:6467   */\n      pop\n        /* \"#utility.yul\":6147:6474   */\n      swap3\n      swap2\n      pop\n      pop\n      jump\t// out\n        /* \"#utility.yul\":6480:6579   */\n    tag_128:\n        /* \"#utility.yul\":6532:6538   */\n      0x00\n        /* \"#utility.yul\":6566:6571   */\n      dup2\n        /* \"#utility.yul\":6560:6572   */\n      mload\n        /* \"#utility.yul\":6550:6572   */\n      swap1\n      pop\n        /* \"#utility.yul\":6480:6579   */\n      swap2\n      swap1\n      pop\n      jump\t// out\n        /* \"#utility.yul\":6585:6754   */\n    tag_129:\n        /* \"#utility.yul\":6669:6680   */\n      0x00\n        /* \"#utility.yul\":6703:6709   */\n      dup3\n        /* \"#utility.yul\":6698:6701   */\n      dup3\n        /* \"#utility.yul\":6691:6710   */\n      mstore\n        /* \"#utility.yul\":6743:6747   */\n      0x20\n        /* \"#utility.yul\":6738:6741   */\n      dup3\n        /* \"#utility.yul\":6734:6748   */\n      add\n        /* \"#utility.yul\":6719:6748   */\n      swap1\n      pop\n        /* \"#utility.yul\":6585:6754   */\n      swap3\n      swap2\n      pop\n      pop\n      jump\t// out\n        /* \"#utility.yul\":6760:6899   */\n    tag_130:\n        /* \"#utility.yul\":6849:6855   */\n      dup3\n        /* \"#utility.yul\":6844:6847   */\n      dup2\n        /* \"#utility.yul\":6839:6842   */\n      dup4\n        /* \"#utility.yul\":6833:6856   */\n      mcopy\n        /* \"#utility.yul\":6890:6891   */\n      0x00\n        /* \"#utility.yul\":6881:6887   */\n      dup4\n        /* \"#utility.yul\":6876:6879   */\n      dup4\n        /* \"#utility.yul\":6872:6888   */\n      add\n        /* \"#utility.yul\":6865:6892   */\n      mstore\n        /* \"#utility.yul\":6760:6899   */\n      pop\n      pop\n      pop\n      jump\t// out\n        /* \"#utility.yul\":6905:7282   */\n    tag_131:\n        /* \"#utility.yul\":6993:6996   */\n      0x00\n        /* \"#utility.yul\":7021:7060   */\n      tag_223\n        /* \"#utility.yul\":7054:7059   */\n      dup3\n        /* \"#utility.yul\":7021:7060   */\n      tag_128\n      jump\t// in\n    tag_223:\n        /* \"#utility.yul\":7076:7147   */\n      tag_224\n        /* \"#utility.yul\":7140:7146   */\n      dup2\n        /* \"#utility.yul\":7135:7138   */\n      dup6\n        /* \"#utility.yul\":7076:7147   */\n      tag_129\n      jump\t// in\n    tag_224:\n        /* \"#utility.yul\":7069:7147   */\n      swap4\n      pop\n        /* \"#utility.yul\":7156:7221   */\n      tag_225\n        /* \"#utility.yul\":7214:7220   */\n      dup2\n        /* \"#utility.yul\":7209:7212   */\n      dup6\n        /* \"#utility.yul\":7202:7206   */\n      0x20\n        /* \"#utility.yul\":7195:7200   */\n      dup7\n        /* \"#utility.yul\":7191:7207   */\n      add\n        /* \"#utility.yul\":7156:7221   */\n      tag_130\n      jump\t// in\n    tag_225:\n        /* \"#utility.yul\":7246:7275   */\n      tag_226\n        /* \"#utility.yul\":7268:7274   */\n      dup2\n        /* \"#utility.yul\":7246:7275   */\n      tag_111\n      jump\t// in\n    tag_226:\n        /* \"#utility.yul\":7241:7244   */\n      dup5\n        /* \"#utility.yul\":7237:7276   */\n      add\n        /* \"#utility.yul\":7230:7276   */\n      swap2\n      pop\n        /* \"#utility.yul\":6997:7282   */\n      pop\n        /* \"#utility.yul\":6905:7282   */\n      swap3\n      swap2\n      pop\n      pop\n      jump\t// out\n        /* \"#utility.yul\":7288:7601   */\n    tag_63:\n        /* \"#utility.yul\":7401:7405   */\n      0x00\n        /* \"#utility.yul\":7439:7441   */\n      0x20\n        /* \"#utility.yul\":7428:7437   */\n      dup3\n        /* \"#utility.yul\":7424:7442   */\n      add\n        /* \"#utility.yul\":7416:7442   */\n      swap1\n      pop\n        /* \"#utility.yul\":7488:7497   */\n      dup2\n        /* \"#utility.yul\":7482:7486   */\n      dup2\n        /* \"#utility.yul\":7478:7498   */\n      sub\n        /* \"#utility.yul\":7474:7475   */\n      0x00\n        /* \"#utility.yul\":7463:7472   */\n      dup4\n        /* \"#utility.yul\":7459:7476   */\n      add\n        /* \"#utility.yul\":7452:7499   */\n      mstore\n        /* \"#utility.yul\":7516:7594   */\n      tag_228\n        /* \"#utility.yul\":7589:7593   */\n      dup2\n        /* \"#utility.yul\":7580:7586   */\n      dup5\n        /* \"#utility.yul\":7516:7594   */\n      tag_131\n      jump\t// in\n    tag_228:\n        /* \"#utility.yul\":7508:7594   */\n      swap1\n      pop\n        /* \"#utility.yul\":7288:7601   */\n      swap3\n      swap2\n      pop\n      pop\n      jump\t// out\n        /* \"#utility.yul\":7607:7729   */\n    tag_132:\n        /* \"#utility.yul\":7680:7704   */\n      tag_230\n        /* \"#utility.yul\":7698:7703   */\n      dup2\n        /* \"#utility.yul\":7680:7704   */\n      tag_122\n      jump\t// in\n    tag_230:\n        /* \"#utility.yul\":7673:7678   */\n      dup2\n        /* \"#utility.yul\":7670:7705   */\n      eq\n        /* \"#utility.yul\":7660:7723   */\n      tag_231\n      jumpi\n        /* \"#utility.yul\":7719:7720   */\n      0x00\n        /* \"#utility.yul\":7716:7717   */\n      0x00\n        /* \"#utility.yul\":7709:7721   */\n      revert\n        /* \"#utility.yul\":7660:7723   */\n    tag_231:\n        /* \"#utility.yul\":7607:7729   */\n      pop\n      jump\t// out\n        /* \"#utility.yul\":7735:7874   */\n    tag_133:\n        /* \"#utility.yul\":7781:7786   */\n      0x00\n        /* \"#utility.yul\":7819:7825   */\n      dup2\n        /* \"#utility.yul\":7806:7826   */\n      calldataload\n        /* \"#utility.yul\":7797:7826   */\n      swap1\n      pop\n        /* \"#utility.yul\":7835:7868   */\n      tag_233\n        /* \"#utility.yul\":7862:7867   */\n      dup2\n        /* \"#utility.yul\":7835:7868   */\n      tag_132\n      jump\t// in\n    tag_233:\n        /* \"#utility.yul\":7735:7874   */\n      swap3\n      swap2\n      pop\n      pop\n      jump\t// out\n        /* \"#utility.yul\":7880:8209   */\n    tag_73:\n        /* \"#utility.yul\":7939:7945   */\n      0x00\n        /* \"#utility.yul\":7988:7990   */\n      0x20\n        /* \"#utility.yul\":7976:7985   */\n      dup3\n        /* \"#utility.yul\":7967:7974   */\n      dup5\n        /* \"#utility.yul\":7963:7986   */\n      sub\n        /* \"#utility.yul\":7959:7991   */\n      slt\n        /* \"#utility.yul\":7956:8075   */\n      iszero\n      tag_235\n      jumpi\n        /* \"#utility.yul\":7994:8073   */\n      tag_236\n      tag_107\n      jump\t// in\n    tag_236:\n        /* \"#utility.yul\":7956:8075   */\n    tag_235:\n        /* \"#utility.yul\":8114:8115   */\n      0x00\n        /* \"#utility.yul\":8139:8192   */\n      tag_237\n        /* \"#utility.yul\":8184:8191   */\n      dup5\n        /* \"#utility.yul\":8175:8181   */\n      dup3\n        /* \"#utility.yul\":8164:8173   */\n      dup6\n        /* \"#utility.yul\":8160:8182   */\n      add\n        /* \"#utility.yul\":8139:8192   */\n      tag_133\n      jump\t// in\n    tag_237:\n        /* \"#utility.yul\":8129:8192   */\n      swap2\n      pop\n        /* \"#utility.yul\":8085:8202   */\n      pop\n        /* \"#utility.yul\":7880:8209   */\n      swap3\n      swap2\n      pop\n      pop\n      jump\t// out\n        /* \"#utility.yul\":8215:8395   */\n    tag_134:\n        /* \"#utility.yul\":8263:8340   */\n      0x4e487b7100000000000000000000000000000000000000000000000000000000\n        /* \"#utility.yul\":8260:8261   */\n      0x00\n        /* \"#utility.yul\":8253:8341   */\n      mstore\n        /* \"#utility.yul\":8360:8364   */\n      0x11\n        /* \"#utility.yul\":8357:8358   */\n      0x04\n        /* \"#utility.yul\":8350:8365   */\n      mstore\n        /* \"#utility.yul\":8384:8388   */\n      0x24\n        /* \"#utility.yul\":8381:8382   */\n      0x00\n        /* \"#utility.yul\":8374:8389   */\n      revert\n        /* \"#utility.yul\":8401:8592   */\n    tag_78:\n        /* \"#utility.yul\":8441:8444   */\n      0x00\n        /* \"#utility.yul\":8460:8480   */\n      tag_240\n        /* \"#utility.yul\":8478:8479   */\n      dup3\n        /* \"#utility.yul\":8460:8480   */\n      tag_104\n      jump\t// in\n    tag_240:\n        /* \"#utility.yul\":8455:8480   */\n      swap2\n      pop\n        /* \"#utility.yul\":8494:8514   */\n      tag_241\n        /* \"#utility.yul\":8512:8513   */\n      dup4\n        /* \"#utility.yul\":8494:8514   */\n      tag_104\n      jump\t// in\n    tag_241:\n        /* \"#utility.yul\":8489:8514   */\n      swap3\n      pop\n        /* \"#utility.yul\":8537:8538   */\n      dup3\n        /* \"#utility.yul\":8534:8535   */\n      dup3\n        /* \"#utility.yul\":8530:8539   */\n      add\n        /* \"#utility.yul\":8523:8539   */\n      swap1\n      pop\n        /* \"#utility.yul\":8558:8561   */\n      dup1\n        /* \"#utility.yul\":8555:8556   */\n      dup3\n        /* \"#utility.yul\":8552:8562   */\n      gt\n        /* \"#utility.yul\":8549:8585   */\n      iszero\n      tag_242\n      jumpi\n        /* \"#utility.yul\":8565:8583   */\n      tag_243\n      tag_134\n      jump\t// in\n    tag_243:\n        /* \"#utility.yul\":8549:8585   */\n    tag_242:\n        /* \"#utility.yul\":8401:8592   */\n      swap3\n      swap2\n      pop\n      pop\n      jump\t// out\n        /* \"#utility.yul\":8598:8755   */\n    tag_135:\n        /* \"#utility.yul\":8738:8747   */\n      0x6f736869626b6100000000000000000000000000000000000000000000000000\n        /* \"#utility.yul\":8734:8735   */\n      0x00\n        /* \"#utility.yul\":8726:8732   */\n      dup3\n        /* \"#utility.yul\":8722:8736   */\n      add\n        /* \"#utility.yul\":8715:8748   */\n      mstore\n        /* \"#utility.yul\":8598:8755   */\n      pop\n      jump\t// out\n        /* \"#utility.yul\":8761:9126   */\n    tag_136:\n        /* \"#utility.yul\":8903:8906   */\n      0x00\n        /* \"#utility.yul\":8924:8990   */\n      tag_246\n        /* \"#utility.yul\":8988:8989   */\n      0x07\n        /* \"#utility.yul\":8983:8986   */\n      dup4\n        /* \"#utility.yul\":8924:8990   */\n      tag_129\n      jump\t// in\n    tag_246:\n        /* \"#utility.yul\":8917:8990   */\n      swap2\n      pop\n        /* \"#utility.yul\":8999:9092   */\n      tag_247\n        /* \"#utility.yul\":9088:9091   */\n      dup3\n        /* \"#utility.yul\":8999:9092   */\n      tag_135\n      jump\t// in\n    tag_247:\n        /* \"#utility.yul\":9117:9119   */\n      0x20\n        /* \"#utility.yul\":9112:9115   */\n      dup3\n        /* \"#utility.yul\":9108:9120   */\n      add\n        /* \"#utility.yul\":9101:9120   */\n      swap1\n      pop\n        /* \"#utility.yul\":8761:9126   */\n      swap2\n      swap1\n      pop\n      jump\t// out\n        /* \"#utility.yul\":9132:9551   */\n    tag_82:\n        /* \"#utility.yul\":9298:9302   */\n      0x00\n        /* \"#utility.yul\":9336:9338   */\n      0x20\n        /* \"#utility.yul\":9325:9334   */\n      dup3\n        /* \"#utility.yul\":9321:9339   */\n      add\n        /* \"#utility.yul\":9313:9339   */\n      swap1\n      pop\n        /* \"#utility.yul\":9385:9394   */\n      dup2\n        /* \"#utility.yul\":9379:9383   */\n      dup2\n        /* \"#utility.yul\":9375:9395   */\n      sub\n        /* \"#utility.yul\":9371:9372   */\n      0x00\n        /* \"#utility.yul\":9360:9369   */\n      dup4\n        /* \"#utility.yul\":9356:9373   */\n      add\n        /* \"#utility.yul\":9349:9396   */\n      mstore\n        /* \"#utility.yul\":9413:9544   */\n      tag_249\n        /* \"#utility.yul\":9539:9543   */\n      dup2\n        /* \"#utility.yul\":9413:9544   */\n      tag_136\n      jump\t// in\n    tag_249:\n        /* \"#utility.yul\":9405:9544   */\n      swap1\n      pop\n        /* \"#utility.yul\":9132:9551   */\n      swap2\n      swap1\n      pop\n      jump\t// out\n        /* \"#utility.yul\":9557:9705   */\n    tag_137:\n        /* \"#utility.yul\":9659:9670   */\n      0x00\n        /* \"#utility.yul\":9696:9699   */\n      dup2\n        /* \"#utility.yul\":9681:9699   */\n      swap1\n      pop\n        /* \"#utility.yul\":9557:9705   */\n      swap3\n      swap2\n      pop\n      pop\n      jump\t// out\n        /* \"#utility.yul\":9711:10101   */\n    tag_138:\n        /* \"#utility.yul\":9817:9820   */\n      0x00\n        /* \"#utility.yul\":9845:9884   */\n      tag_252\n        /* \"#utility.yul\":9878:9883   */\n      dup3\n        /* \"#utility.yul\":9845:9884   */\n      tag_128\n      jump\t// in\n    tag_252:\n        /* \"#utility.yul\":9900:9989   */\n      tag_253\n        /* \"#utility.yul\":9982:9988   */\n      dup2\n        /* \"#utility.yul\":9977:9980   */\n      dup6\n        /* \"#utility.yul\":9900:9989   */\n      tag_137\n      jump\t// in\n    tag_253:\n        /* \"#utility.yul\":9893:9989   */\n      swap4\n      pop\n        /* \"#utility.yul\":9998:10063   */\n      tag_254\n        /* \"#utility.yul\":10056:10062   */\n      dup2\n        /* \"#utility.yul\":10051:10054   */\n      dup6\n        /* \"#utility.yul\":10044:10048   */\n      0x20\n        /* \"#utility.yul\":10037:10042   */\n      dup7\n        /* \"#utility.yul\":10033:10049   */\n      add\n        /* \"#utility.yul\":9998:10063   */\n      tag_130\n      jump\t// in\n    tag_254:\n        /* \"#utility.yul\":10088:10094   */\n      dup1\n        /* \"#utility.yul\":10083:10086   */\n      dup5\n        /* \"#utility.yul\":10079:10095   */\n      add\n        /* \"#utility.yul\":10072:10095   */\n      swap2\n      pop\n        /* \"#utility.yul\":9821:10101   */\n      pop\n        /* \"#utility.yul\":9711:10101   */\n      swap3\n      swap2\n      pop\n      pop\n      jump\t// out\n        /* \"#utility.yul\":10107:10382   */\n    tag_84:\n        /* \"#utility.yul\":10239:10242   */\n      0x00\n        /* \"#utility.yul\":10261:10356   */\n      tag_256\n        /* \"#utility.yul\":10352:10355   */\n      dup3\n        /* \"#utility.yul\":10343:10349   */\n      dup5\n        /* \"#utility.yul\":10261:10356   */\n      tag_138\n      jump\t// in\n    tag_256:\n        /* \"#utility.yul\":10254:10356   */\n      swap2\n      pop\n        /* \"#utility.yul\":10373:10376   */\n      dup2\n        /* \"#utility.yul\":10366:10376   */\n      swap1\n      pop\n        /* \"#utility.yul\":10107:10382   */\n      swap3\n      swap2\n      pop\n      pop\n      jump\t// out\n        /* \"#utility.yul\":10388:10944   */\n    tag_91:\n        /* \"#utility.yul\":10427:10434   */\n      0x00\n        /* \"#utility.yul\":10450:10469   */\n      tag_258\n        /* \"#utility.yul\":10467:10468   */\n      dup3\n        /* \"#utility.yul\":10450:10469   */\n      tag_102\n      jump\t// in\n    tag_258:\n        /* \"#utility.yul\":10445:10469   */\n      swap2\n      pop\n        /* \"#utility.yul\":10483:10502   */\n      tag_259\n        /* \"#utility.yul\":10500:10501   */\n      dup4\n        /* \"#utility.yul\":10483:10502   */\n      tag_102\n      jump\t// in\n    tag_259:\n        /* \"#utility.yul\":10478:10502   */\n      swap3\n      pop\n        /* \"#utility.yul\":10537:10538   */\n      dup3\n        /* \"#utility.yul\":10534:10535   */\n      dup3\n        /* \"#utility.yul\":10530:10539   */\n      mul\n        /* \"#utility.yul\":10559:10588   */\n      tag_260\n        /* \"#utility.yul\":10576:10587   */\n      dup2\n        /* \"#utility.yul\":10559:10588   */\n      tag_102\n      jump\t// in\n    tag_260:\n        /* \"#utility.yul\":10548:10588   */\n      swap2\n      pop\n        /* \"#utility.yul\":10646:10712   */\n      0x8000000000000000000000000000000000000000000000000000000000000000\n        /* \"#utility.yul\":10643:10644   */\n      dup5\n        /* \"#utility.yul\":10640:10713   */\n      eq\n        /* \"#utility.yul\":10636:10637   */\n      0x00\n        /* \"#utility.yul\":10633:10634   */\n      dup5\n        /* \"#utility.yul\":10629:10638   */\n      slt\n        /* \"#utility.yul\":10625:10714   */\n      and\n        /* \"#utility.yul\":10622:10737   */\n      iszero\n      tag_261\n      jumpi\n        /* \"#utility.yul\":10717:10735   */\n      tag_262\n      tag_134\n      jump\t// in\n    tag_262:\n        /* \"#utility.yul\":10622:10737   */\n    tag_261:\n        /* \"#utility.yul\":10887:10888   */\n      dup3\n        /* \"#utility.yul\":10878:10885   */\n      dup3\n        /* \"#utility.yul\":10873:10889   */\n      sdiv\n        /* \"#utility.yul\":10870:10871   */\n      dup5\n        /* \"#utility.yul\":10867:10890   */\n      eq\n        /* \"#utility.yul\":10847:10848   */\n      dup4\n        /* \"#utility.yul\":10840:10849   */\n      iszero\n        /* \"#utility.yul\":10820:10904   */\n      or\n        /* \"#utility.yul\":10797:10937   */\n      tag_263\n      jumpi\n        /* \"#utility.yul\":10917:10935   */\n      tag_264\n      tag_134\n      jump\t// in\n    tag_264:\n        /* \"#utility.yul\":10797:10937   */\n    tag_263:\n        /* \"#utility.yul\":10435:10944   */\n      pop\n        /* \"#utility.yul\":10388:10944   */\n      swap3\n      swap2\n      pop\n      pop\n      jump\t// out\n        /* \"#utility.yul\":10950:11130   */\n    tag_139:\n        /* \"#utility.yul\":10998:11075   */\n      0x4e487b7100000000000000000000000000000000000000000000000000000000\n        /* \"#utility.yul\":10995:10996   */\n      0x00\n        /* \"#utility.yul\":10988:11076   */\n      mstore\n        /* \"#utility.yul\":11095:11099   */\n      0x22\n        /* \"#utility.yul\":11092:11093   */\n      0x04\n        /* \"#utility.yul\":11085:11100   */\n      mstore\n        /* \"#utility.yul\":11119:11123   */\n      0x24\n        /* \"#utility.yul\":11116:11117   */\n      0x00\n        /* \"#utility.yul\":11109:11124   */\n      revert\n        /* \"#utility.yul\":11136:11456   */\n    tag_93:\n        /* \"#utility.yul\":11180:11186   */\n      0x00\n        /* \"#utility.yul\":11217:11218   */\n      0x02\n        /* \"#utility.yul\":11211:11215   */\n      dup3\n        /* \"#utility.yul\":11207:11219   */\n      div\n        /* \"#utility.yul\":11197:11219   */\n      swap1\n      pop\n        /* \"#utility.yul\":11264:11265   */\n      0x01\n        /* \"#utility.yul\":11258:11262   */\n      dup3\n        /* \"#utility.yul\":11254:11266   */\n      and\n        /* \"#utility.yul\":11285:11303   */\n      dup1\n        /* \"#utility.yul\":11275:11356   */\n      tag_267\n      jumpi\n        /* \"#utility.yul\":11341:11345   */\n      0x7f\n        /* \"#utility.yul\":11333:11339   */\n      dup3\n        /* \"#utility.yul\":11329:11346   */\n      and\n        /* \"#utility.yul\":11319:11346   */\n      swap2\n      pop\n        /* \"#utility.yul\":11275:11356   */\n    tag_267:\n        /* \"#utility.yul\":11403:11405   */\n      0x20\n        /* \"#utility.yul\":11395:11401   */\n      dup3\n        /* \"#utility.yul\":11392:11406   */\n      lt\n        /* \"#utility.yul\":11372:11390   */\n      dup2\n        /* \"#utility.yul\":11369:11407   */\n      sub\n        /* \"#utility.yul\":11366:11450   */\n      tag_268\n      jumpi\n        /* \"#utility.yul\":11422:11440   */\n      tag_269\n      tag_139\n      jump\t// in\n    tag_269:\n        /* \"#utility.yul\":11366:11450   */\n    tag_268:\n        /* \"#utility.yul\":11187:11456   */\n      pop\n        /* \"#utility.yul\":11136:11456   */\n      swap2\n      swap1\n      pop\n      jump\t// out\n        /* \"#utility.yul\":11462:11693   */\n    tag_100:\n        /* \"#utility.yul\":11500:11503   */\n      0x00\n        /* \"#utility.yul\":11523:11546   */\n      tag_271\n        /* \"#utility.yul\":11540:11545   */\n      dup3\n        /* \"#utility.yul\":11523:11546   */\n      tag_102\n      jump\t// in\n    tag_271:\n        /* \"#utility.yul\":11514:11546   */\n      swap2\n      pop\n        /* \"#utility.yul\":11568:11634   */\n      0x7fffffffffffffffffffffffffffffffffffffffffffffffffffffffffffffff\n        /* \"#utility.yul\":11561:11566   */\n      dup3\n        /* \"#utility.yul\":11558:11635   */\n      sub\n        /* \"#utility.yul\":11555:11658   */\n      tag_272\n      jumpi\n        /* \"#utility.yul\":11638:11656   */\n      tag_273\n      tag_134\n      jump\t// in\n    tag_273:\n        /* \"#utility.yul\":11555:11658   */\n    tag_272:\n        /* \"#utility.yul\":11685:11686   */\n      0x01\n        /* \"#utility.yul\":11678:11683   */\n      dup3\n        /* \"#utility.yul\":11674:11687   */\n      add\n        /* \"#utility.yul\":11667:11687   */\n      swap1\n      pop\n        /* \"#utility.yul\":11462:11693   */\n      swap2\n      swap1\n      pop\n      jump\t// out\n\n    auxdata: 0xa264697066735822122038c11f8a3f24f193c0cffd3b67b997acc6da33748801511f0e621cc28dbfccaa64736f6c634300081e0033\n}\n",
				"bytecode": {
					"linkReferences": {},
					"object": "60806040526040518060400160405280600581526020017f4d697368610000000000000000000000000000000000000000000000000000008152506001908161004891906102d6565b50348015610054575f5ffd5b50335f5f6101000a81548173ffffffffffffffffffffffffffffffffffffffff021916908373ffffffffffffffffffffffffffffffffffffffff1602179055506103a5565b5f81519050919050565b7f4e487b71000000000000000000000000000000000000000000000000000000005f52604160045260245ffd5b7f4e487b71000000000000000000000000000000000000000000000000000000005f52602260045260245ffd5b5f600282049050600182168061011457607f821691505b602082108103610127576101266100d0565b5b50919050565b5f819050815f5260205f209050919050565b5f6020601f8301049050919050565b5f82821b905092915050565b5f600883026101897fffffffffffffffffffffffffffffffffffffffffffffffffffffffffffffffff8261014e565b610193868361014e565b95508019841693508086168417925050509392505050565b5f819050919050565b5f819050919050565b5f6101d76101d26101cd846101ab565b6101b4565b6101ab565b9050919050565b5f819050919050565b6101f0836101bd565b6102046101fc826101de565b84845461015a565b825550505050565b5f5f905090565b61021b61020c565b6102268184846101e7565b505050565b5b818110156102495761023e5f82610213565b60018101905061022c565b5050565b601f82111561028e5761025f8161012d565b6102688461013f565b81016020851015610277578190505b61028b6102838561013f565b83018261022b565b50505b505050565b5f82821c905092915050565b5f6102ae5f1984600802610293565b1980831691505092915050565b5f6102c6838361029f565b9150826002028217905092915050565b6102df82610099565b67ffffffffffffffff8111156102f8576102f76100a3565b5b61030282546100fd565b61030d82828561024d565b5f60209050601f83116001811461033e575f841561032c578287015190505b61033685826102bb565b86555061039d565b601f19841661034c8661012d565b5f5b828110156103735784890151825560018201915060208501945060208101905061034e565b86831015610390578489015161038c601f89168261029f565b8355505b6001600288020188555050505b505050505050565b610c53806103b25f395ff3fe6080604052600436106100c1575f3560e01c806380e8d6261161007e578063a830e15f11610058578063a830e15f1461022d578063b182b08314610257578063b774884a1461026d578063e2982c2114610283576100c1565b806380e8d626146101b1578063853828b6146101db57806388e7cc08146101f1576100c1565b80630f91d842146100c557806313bea460146100ef57806325073a491461010d5780635921206414610135578063699450e81461014b5780636c5f596614610175575b5f5ffd5b3480156100d0575f5ffd5b506100d96102bf565b6040516100e691906105d4565b60405180910390f35b6100f76102c5565b6040516101049190610605565b60405180910390f35b348015610118575f5ffd5b50610133600480360381019061012e9190610795565b61031f565b005b348015610140575f5ffd5b5061014961038a565b005b348015610156575f5ffd5b5061015f6103a5565b60405161016c919061082e565b60405180910390f35b348015610180575f5ffd5b5061019b60048036038101906101969190610847565b6103c9565b6040516101a89190610605565b60405180910390f35b3480156101bc575f5ffd5b506101c56103f6565b6040516101d291906108a8565b60405180910390f35b3480156101e6575f5ffd5b506101ef610408565b005b3480156101fc575f5ffd5b50610217600480360381019061021291906108eb565b6104d1565b60405161022491906105d4565b60405180910390f35b348015610238575f5ffd5b506102416104e6565b60405161024e9190610976565b60405180910390f35b348015610262575f5ffd5b5061026b610572565b005b348015610278575f5ffd5b5061028161058b565b005b34801561028e575f5ffd5b506102a960048036038101906102a491906109c0565b6105a7565b6040516102b69190610605565b60405180910390f35b60025481565b5f3460055f3373ffffffffffffffffffffffffffffffffffffffff1673ffffffffffffffffffffffffffffffffffffffff1681526020019081526020015f205f8282546103129190610a18565b9250508190555034905090565b6005811115610363576040517f08c379a000000000000000000000000000000000000000000000000000000000815260040161035a90610a95565b60405180910390fd5b806004836040516103749190610aed565b9081526020016040518091039020819055505050565b5f60035f6101000a81548160ff021916908315150217905550565b5f5f9054906101000a900473ffffffffffffffffffffffffffffffffffffffff1681565b6004818051602081018201805184825260208301602085012081835280955050505050505f915090505481565b60035f9054906101000a900460ff1681565b5f5f5f9054906101000a900473ffffffffffffffffffffffffffffffffffffffff1690505f3090508173ffffffffffffffffffffffffffffffffffffffff166108fc8273ffffffffffffffffffffffffffffffffffffffff163190811502906040515f60405180830381858888f1935050505015801561048a573d5f5f3e3d5ffd5b505f60055f3373ffffffffffffffffffffffffffffffffffffffff1673ffffffffffffffffffffffffffffffffffffffff1681526020019081526020015f20819055505050565b5f6002826104df9190610b03565b9050919050565b600180546104f390610ba6565b80601f016020809104026020016040519081016040528092919081815260200182805461051f90610ba6565b801561056a5780601f106105415761010080835404028352916020019161056a565b820191905f5260205f20905b81548152906001019060200180831161054d57829003601f168201915b505050505081565b60025f81548092919061058490610bd6565b9190505550565b600160035f6101000a81548160ff021916908315150217905550565b6005602052805f5260405f205f915090505481565b5f819050919050565b6105ce816105bc565b82525050565b5f6020820190506105e75f8301846105c5565b92915050565b5f819050919050565b6105ff816105ed565b82525050565b5f6020820190506106185f8301846105f6565b92915050565b5f604051905090565b5f5ffd5b5f5ffd5b5f5ffd5b5f5ffd5b5f601f19601f8301169050919050565b7f4e487b71000000000000000000000000000000000000000000000000000000005f52604160045260245ffd5b61067d82610637565b810181811067ffffffffffffffff8211171561069c5761069b610647565b5b80604052505050565b5f6106ae61061e565b90506106ba8282610674565b919050565b5f67ffffffffffffffff8211156106d9576106d8610647565b5b6106e282610637565b9050602081019050919050565b828183375f83830152505050565b5f61070f61070a846106bf565b6106a5565b90508281526020810184848401111561072b5761072a610633565b5b6107368482856106ef565b509392505050565b5f82601f8301126107525761075161062f565b5b81356107628482602086016106fd565b91505092915050565b610774816105ed565b811461077e575f5ffd5b50565b5f8135905061078f8161076b565b92915050565b5f5f604083850312156107ab576107aa610627565b5b5f83013567ffffffffffffffff8111156107c8576107c761062b565b5b6107d48582860161073e565b92505060206107e585828601610781565b9150509250929050565b5f73ffffffffffffffffffffffffffffffffffffffff82169050919050565b5f610818826107ef565b9050919050565b6108288161080e565b82525050565b5f6020820190506108415f83018461081f565b92915050565b5f6020828403121561085c5761085b610627565b5b5f82013567ffffffffffffffff8111156108795761087861062b565b5b6108858482850161073e565b91505092915050565b5f8115159050919050565b6108a28161088e565b82525050565b5f6020820190506108bb5f830184610899565b92915050565b6108ca816105bc565b81146108d4575f5ffd5b50565b5f813590506108e5816108c1565b92915050565b5f60208284031215610900576108ff610627565b5b5f61090d848285016108d7565b91505092915050565b5f81519050919050565b5f82825260208201905092915050565b8281835e5f83830152505050565b5f61094882610916565b6109528185610920565b9350610962818560208601610930565b61096b81610637565b840191505092915050565b5f6020820190508181035f83015261098e818461093e565b905092915050565b61099f8161080e565b81146109a9575f5ffd5b50565b5f813590506109ba81610996565b92915050565b5f602082840312156109d5576109d4610627565b5b5f6109e2848285016109ac565b91505092915050565b7f4e487b71000000000000000000000000000000000000000000000000000000005f52601160045260245ffd5b5f610a22826105ed565b9150610a2d836105ed565b9250828201905080821115610a4557610a446109eb565b5b92915050565b7f6f736869626b61000000000000000000000000000000000000000000000000005f82015250565b5f610a7f600783610920565b9150610a8a82610a4b565b602082019050919050565b5f6020820190508181035f830152610aac81610a73565b9050919050565b5f81905092915050565b5f610ac782610916565b610ad18185610ab3565b9350610ae1818560208601610930565b80840191505092915050565b5f610af88284610abd565b915081905092915050565b5f610b0d826105bc565b9150610b18836105bc565b9250828202610b26816105bc565b91507f800000000000000000000000000000000000000000000000000000000000000084145f84121615610b5d57610b5c6109eb565b5b8282058414831517610b7257610b716109eb565b5b5092915050565b7f4e487b71000000000000000000000000000000000000000000000000000000005f52602260045260245ffd5b5f6002820490506001821680610bbd57607f821691505b602082108103610bd057610bcf610b79565b5b50919050565b5f610be0826105bc565b91507f7fffffffffffffffffffffffffffffffffffffffffffffffffffffffffffffff8203610c1257610c116109eb565b5b60018201905091905056fea264697066735822122038c11f8a3f24f193c0cffd3b67b997acc6da33748801511f0e621cc28dbfccaa64736f6c634300081e0033",
					"opcodes": "PUSH1 0x80 PUSH1 0x40 MSTORE PUSH1 0x40 MLOAD DUP1 PUSH1 0x40 ADD PUSH1 0x40 MSTORE DUP1 PUSH1 0x5 DUP2 MSTORE PUSH1 0x20 ADD PUSH32 0x4D69736861000000000000000000000000000000000000000000000000000000 DUP2 MSTORE POP PUSH1 0x1 SWAP1 DUP2 PUSH2 0x48 SWAP2 SWAP1 PUSH2 0x2D6 JUMP JUMPDEST POP CALLVALUE DUP1 ISZERO PUSH2 0x54 JUMPI PUSH0 PUSH0 REVERT JUMPDEST POP CALLER PUSH0 PUSH0 PUSH2 0x100 EXP DUP2 SLOAD DUP2 PUSH20 0xFFFFFFFFFFFFFFFFFFFFFFFFFFFFFFFFFFFFFFFF MUL NOT AND SWAP1 DUP4 PUSH20 0xFFFFFFFFFFFFFFFFFFFFFFFFFFFFFFFFFFFFFFFF AND MUL OR SWAP1 SSTORE POP PUSH2 0x3A5 JUMP JUMPDEST PUSH0 DUP2 MLOAD SWAP1 POP SWAP2 SWAP1 POP JUMP JUMPDEST PUSH32 0x4E487B7100000000000000000000000000000000000000000000000000000000 PUSH0 MSTORE PUSH1 0x41 PUSH1 0x4 MSTORE PUSH1 0x24 PUSH0 REVERT JUMPDEST PUSH32 0x4E487B7100000000000000000000000000000000000000000000000000000000 PUSH0 MSTORE PUSH1 0x22 PUSH1 0x4 MSTORE PUSH1 0x24 PUSH0 REVERT JUMPDEST PUSH0 PUSH1 0x2 DUP3 DIV SWAP1 POP PUSH1 0x1 DUP3 AND DUP1 PUSH2 0x114 JUMPI PUSH1 0x7F DUP3 AND SWAP2 POP JUMPDEST PUSH1 0x20 DUP3 LT DUP2 SUB PUSH2 0x127 JUMPI PUSH2 0x126 PUSH2 0xD0 JUMP JUMPDEST JUMPDEST POP SWAP2 SWAP1 POP JUMP JUMPDEST PUSH0 DUP2 SWAP1 POP DUP2 PUSH0 MSTORE PUSH1 0x20 PUSH0 KECCAK256 SWAP1 POP SWAP2 SWAP1 POP JUMP JUMPDEST PUSH0 PUSH1 0x20 PUSH1 0x1F DUP4 ADD DIV SWAP1 POP SWAP2 SWAP1 POP JUMP JUMPDEST PUSH0 DUP3 DUP3 SHL SWAP1 POP SWAP3 SWAP2 POP POP JUMP JUMPDEST PUSH0 PUSH1 0x8 DUP4 MUL PUSH2 0x189 PUSH32 0xFFFFFFFFFFFFFFFFFFFFFFFFFFFFFFFFFFFFFFFFFFFFFFFFFFFFFFFFFFFFFFFF DUP3 PUSH2 0x14E JUMP JUMPDEST PUSH2 0x193 DUP7 DUP4 PUSH2 0x14E JUMP JUMPDEST SWAP6 POP DUP1 NOT DUP5 AND SWAP4 POP DUP1 DUP7 AND DUP5 OR SWAP3 POP POP POP SWAP4 SWAP3 POP POP POP JUMP JUMPDEST PUSH0 DUP2 SWAP1 POP SWAP2 SWAP1 POP JUMP JUMPDEST PUSH0 DUP2 SWAP1 POP SWAP2 SWAP1 POP JUMP JUMPDEST PUSH0 PUSH2 0x1D7 PUSH2 0x1D2 PUSH2 0x1CD DUP5 PUSH2 0x1AB JUMP JUMPDEST PUSH2 0x1B4 JUMP JUMPDEST PUSH2 0x1AB JUMP JUMPDEST SWAP1 POP SWAP2 SWAP1 POP JUMP JUMPDEST PUSH0 DUP2 SWAP1 POP SWAP2 SWAP1 POP JUMP JUMPDEST PUSH2 0x1F0 DUP4 PUSH2 0x1BD JUMP JUMPDEST PUSH2 0x204 PUSH2 0x1FC DUP3 PUSH2 0x1DE JUMP JUMPDEST DUP5 DUP5 SLOAD PUSH2 0x15A JUMP JUMPDEST DUP3 SSTORE POP POP POP POP JUMP JUMPDEST PUSH0 PUSH0 SWAP1 POP SWAP1 JUMP JUMPDEST PUSH2 0x21B PUSH2 0x20C JUMP JUMPDEST PUSH2 0x226 DUP2 DUP5 DUP5 PUSH2 0x1E7 JUMP JUMPDEST POP POP POP JUMP JUMPDEST JUMPDEST DUP2 DUP2 LT ISZERO PUSH2 0x249 JUMPI PUSH2 0x23E PUSH0 DUP3 PUSH2 0x213 JUMP JUMPDEST PUSH1 0x1 DUP2 ADD SWAP1 POP PUSH2 0x22C JUMP JUMPDEST POP POP JUMP JUMPDEST PUSH1 0x1F DUP3 GT ISZERO PUSH2 0x28E JUMPI PUSH2 0x25F DUP2 PUSH2 0x12D JUMP JUMPDEST PUSH2 0x268 DUP5 PUSH2 0x13F JUMP JUMPDEST DUP2 ADD PUSH1 0x20 DUP6 LT ISZERO PUSH2 0x277 JUMPI DUP2 SWAP1 POP JUMPDEST PUSH2 0x28B PUSH2 0x283 DUP6 PUSH2 0x13F JUMP JUMPDEST DUP4 ADD DUP3 PUSH2 0x22B JUMP JUMPDEST POP POP JUMPDEST POP POP POP JUMP JUMPDEST PUSH0 DUP3 DUP3 SHR SWAP1 POP SWAP3 SWAP2 POP POP JUMP JUMPDEST PUSH0 PUSH2 0x2AE PUSH0 NOT DUP5 PUSH1 0x8 MUL PUSH2 0x293 JUMP JUMPDEST NOT DUP1 DUP4 AND SWAP2 POP POP SWAP3 SWAP2 POP POP JUMP JUMPDEST PUSH0 PUSH2 0x2C6 DUP4 DUP4 PUSH2 0x29F JUMP JUMPDEST SWAP2 POP DUP3 PUSH1 0x2 MUL DUP3 OR SWAP1 POP SWAP3 SWAP2 POP POP JUMP JUMPDEST PUSH2 0x2DF DUP3 PUSH2 0x99 JUMP JUMPDEST PUSH8 0xFFFFFFFFFFFFFFFF DUP2 GT ISZERO PUSH2 0x2F8 JUMPI PUSH2 0x2F7 PUSH2 0xA3 JUMP JUMPDEST JUMPDEST PUSH2 0x302 DUP3 SLOAD PUSH2 0xFD JUMP JUMPDEST PUSH2 0x30D DUP3 DUP3 DUP6 PUSH2 0x24D JUMP JUMPDEST PUSH0 PUSH1 0x20 SWAP1 POP PUSH1 0x1F DUP4 GT PUSH1 0x1 DUP2 EQ PUSH2 0x33E JUMPI PUSH0 DUP5 ISZERO PUSH2 0x32C JUMPI DUP3 DUP8 ADD MLOAD SWAP1 POP JUMPDEST PUSH2 0x336 DUP6 DUP3 PUSH2 0x2BB JUMP JUMPDEST DUP7 SSTORE POP PUSH2 0x39D JUMP JUMPDEST PUSH1 0x1F NOT DUP5 AND PUSH2 0x34C DUP7 PUSH2 0x12D JUMP JUMPDEST PUSH0 JUMPDEST DUP3 DUP2 LT ISZERO PUSH2 0x373 JUMPI DUP5 DUP10 ADD MLOAD DUP3 SSTORE PUSH1 0x1 DUP3 ADD SWAP2 POP PUSH1 0x20 DUP6 ADD SWAP5 POP PUSH1 0x20 DUP2 ADD SWAP1 POP PUSH2 0x34E JUMP JUMPDEST DUP7 DUP4 LT ISZERO PUSH2 0x390 JUMPI DUP5 DUP10 ADD MLOAD PUSH2 0x38C PUSH1 0x1F DUP10 AND DUP3 PUSH2 0x29F JUMP JUMPDEST DUP4 SSTORE POP JUMPDEST PUSH1 0x1 PUSH1 0x2 DUP9 MUL ADD DUP9 SSTORE POP POP POP JUMPDEST POP POP POP POP POP POP JUMP JUMPDEST PUSH2 0xC53 DUP1 PUSH2 0x3B2 PUSH0 CODECOPY PUSH0 RETURN INVALID PUSH1 0x80 PUSH1 0x40 MSTORE PUSH1 0x4 CALLDATASIZE LT PUSH2 0xC1 JUMPI PUSH0 CALLDATALOAD PUSH1 0xE0 SHR DUP1 PUSH4 0x80E8D626 GT PUSH2 0x7E JUMPI DUP1 PUSH4 0xA830E15F GT PUSH2 0x58 JUMPI DUP1 PUSH4 0xA830E15F EQ PUSH2 0x22D JUMPI DUP1 PUSH4 0xB182B083 EQ PUSH2 0x257 JUMPI DUP1 PUSH4 0xB774884A EQ PUSH2 0x26D JUMPI DUP1 PUSH4 0xE2982C21 EQ PUSH2 0x283 JUMPI PUSH2 0xC1 JUMP JUMPDEST DUP1 PUSH4 0x80E8D626 EQ PUSH2 0x1B1 JUMPI DUP1 PUSH4 0x853828B6 EQ PUSH2 0x1DB JUMPI DUP1 PUSH4 0x88E7CC08 EQ PUSH2 0x1F1 JUMPI PUSH2 0xC1 JUMP JUMPDEST DUP1 PUSH4 0xF91D842 EQ PUSH2 0xC5 JUMPI DUP1 PUSH4 0x13BEA460 EQ PUSH2 0xEF JUMPI DUP1 PUSH4 0x25073A49 EQ PUSH2 0x10D JUMPI DUP1 PUSH4 0x59212064 EQ PUSH2 0x135 JUMPI DUP1 PUSH4 0x699450E8 EQ PUSH2 0x14B JUMPI DUP1 PUSH4 0x6C5F5966 EQ PUSH2 0x175 JUMPI JUMPDEST PUSH0 PUSH0 REVERT JUMPDEST CALLVALUE DUP1 ISZERO PUSH2 0xD0 JUMPI PUSH0 PUSH0 REVERT JUMPDEST POP PUSH2 0xD9 PUSH2 0x2BF JUMP JUMPDEST PUSH1 0x40 MLOAD PUSH2 0xE6 SWAP2 SWAP1 PUSH2 0x5D4 JUMP JUMPDEST PUSH1 0x40 MLOAD DUP1 SWAP2 SUB SWAP1 RETURN JUMPDEST PUSH2 0xF7 PUSH2 0x2C5 JUMP JUMPDEST PUSH1 0x40 MLOAD PUSH2 0x104 SWAP2 SWAP1 PUSH2 0x605 JUMP JUMPDEST PUSH1 0x40 MLOAD DUP1 SWAP2 SUB SWAP1 RETURN JUMPDEST CALLVALUE DUP1 ISZERO PUSH2 0x118 JUMPI PUSH0 PUSH0 REVERT JUMPDEST POP PUSH2 0x133 PUSH1 0x4 DUP1 CALLDATASIZE SUB DUP2 ADD SWAP1 PUSH2 0x12E SWAP2 SWAP1 PUSH2 0x795 JUMP JUMPDEST PUSH2 0x31F JUMP JUMPDEST STOP JUMPDEST CALLVALUE DUP1 ISZERO PUSH2 0x140 JUMPI PUSH0 PUSH0 REVERT JUMPDEST POP PUSH2 0x149 PUSH2 0x38A JUMP JUMPDEST STOP JUMPDEST CALLVALUE DUP1 ISZERO PUSH2 0x156 JUMPI PUSH0 PUSH0 REVERT JUMPDEST POP PUSH2 0x15F PUSH2 0x3A5 JUMP JUMPDEST PUSH1 0x40 MLOAD PUSH2 0x16C SWAP2 SWAP1 PUSH2 0x82E JUMP JUMPDEST PUSH1 0x40 MLOAD DUP1 SWAP2 SUB SWAP1 RETURN JUMPDEST CALLVALUE DUP1 ISZERO PUSH2 0x180 JUMPI PUSH0 PUSH0 REVERT JUMPDEST POP PUSH2 0x19B PUSH1 0x4 DUP1 CALLDATASIZE SUB DUP2 ADD SWAP1 PUSH2 0x196 SWAP2 SWAP1 PUSH2 0x847 JUMP JUMPDEST PUSH2 0x3C9 JUMP JUMPDEST PUSH1 0x40 MLOAD PUSH2 0x1A8 SWAP2 SWAP1 PUSH2 0x605 JUMP JUMPDEST PUSH1 0x40 MLOAD DUP1 SWAP2 SUB SWAP1 RETURN JUMPDEST CALLVALUE DUP1 ISZERO PUSH2 0x1BC JUMPI PUSH0 PUSH0 REVERT JUMPDEST POP PUSH2 0x1C5 PUSH2 0x3F6 JUMP JUMPDEST PUSH1 0x40 MLOAD PUSH2 0x1D2 SWAP2 SWAP1 PUSH2 0x8A8 JUMP JUMPDEST PUSH1 0x40 MLOAD DUP1 SWAP2 SUB SWAP1 RETURN JUMPDEST CALLVALUE DUP1 ISZERO PUSH2 0x1E6 JUMPI PUSH0 PUSH0 REVERT JUMPDEST POP PUSH2 0x1EF PUSH2 0x408 JUMP JUMPDEST STOP JUMPDEST CALLVALUE DUP1 ISZERO PUSH2 0x1FC JUMPI PUSH0 PUSH0 REVERT JUMPDEST POP PUSH2 0x217 PUSH1 0x4 DUP1 CALLDATASIZE SUB DUP2 ADD SWAP1 PUSH2 0x212 SWAP2 SWAP1 PUSH2 0x8EB JUMP JUMPDEST PUSH2 0x4D1 JUMP JUMPDEST PUSH1 0x40 MLOAD PUSH2 0x224 SWAP2 SWAP1 PUSH2 0x5D4 JUMP JUMPDEST PUSH1 0x40 MLOAD DUP1 SWAP2 SUB SWAP1 RETURN JUMPDEST CALLVALUE DUP1 ISZERO PUSH2 0x238 JUMPI PUSH0 PUSH0 REVERT JUMPDEST POP PUSH2 0x241 PUSH2 0x4E6 JUMP JUMPDEST PUSH1 0x40 MLOAD PUSH2 0x24E SWAP2 SWAP1 PUSH2 0x976 JUMP JUMPDEST PUSH1 0x40 MLOAD DUP1 SWAP2 SUB SWAP1 RETURN JUMPDEST CALLVALUE DUP1 ISZERO PUSH2 0x262 JUMPI PUSH0 PUSH0 REVERT JUMPDEST POP PUSH2 0x26B PUSH2 0x572 JUMP JUMPDEST STOP JUMPDEST CALLVALUE DUP1 ISZERO PUSH2 0x278 JUMPI PUSH0 PUSH0 REVERT JUMPDEST POP PUSH2 0x281 PUSH2 0x58B JUMP JUMPDEST STOP JUMPDEST CALLVALUE DUP1 ISZERO PUSH2 0x28E JUMPI PUSH0 PUSH0 REVERT JUMPDEST POP PUSH2 0x2A9 PUSH1 0x4 DUP1 CALLDATASIZE SUB DUP2 ADD SWAP1 PUSH2 0x2A4 SWAP2 SWAP1 PUSH2 0x9C0 JUMP JUMPDEST PUSH2 0x5A7 JUMP JUMPDEST PUSH1 0x40 MLOAD PUSH2 0x2B6 SWAP2 SWAP1 PUSH2 0x605 JUMP JUMPDEST PUSH1 0x40 MLOAD DUP1 SWAP2 SUB SWAP1 RETURN JUMPDEST PUSH1 0x2 SLOAD DUP2 JUMP JUMPDEST PUSH0 CALLVALUE PUSH1 0x5 PUSH0 CALLER PUSH20 0xFFFFFFFFFFFFFFFFFFFFFFFFFFFFFFFFFFFFFFFF AND PUSH20 0xFFFFFFFFFFFFFFFFFFFFFFFFFFFFFFFFFFFFFFFF AND DUP2 MSTORE PUSH1 0x20 ADD SWAP1 DUP2 MSTORE PUSH1 0x20 ADD PUSH0 KECCAK256 PUSH0 DUP3 DUP3 SLOAD PUSH2 0x312 SWAP2 SWAP1 PUSH2 0xA18 JUMP JUMPDEST SWAP3 POP POP DUP2 SWAP1 SSTORE POP CALLVALUE SWAP1 POP SWAP1 JUMP JUMPDEST PUSH1 0x5 DUP2 GT ISZERO PUSH2 0x363 JUMPI PUSH1 0x40 MLOAD PUSH32 0x8C379A000000000000000000000000000000000000000000000000000000000 DUP2 MSTORE PUSH1 0x4 ADD PUSH2 0x35A SWAP1 PUSH2 0xA95 JUMP JUMPDEST PUSH1 0x40 MLOAD DUP1 SWAP2 SUB SWAP1 REVERT JUMPDEST DUP1 PUSH1 0x4 DUP4 PUSH1 0x40 MLOAD PUSH2 0x374 SWAP2 SWAP1 PUSH2 0xAED JUMP JUMPDEST SWAP1 DUP2 MSTORE PUSH1 0x20 ADD PUSH1 0x40 MLOAD DUP1 SWAP2 SUB SWAP1 KECCAK256 DUP2 SWAP1 SSTORE POP POP POP JUMP JUMPDEST PUSH0 PUSH1 0x3 PUSH0 PUSH2 0x100 EXP DUP2 SLOAD DUP2 PUSH1 0xFF MUL NOT AND SWAP1 DUP4 ISZERO ISZERO MUL OR SWAP1 SSTORE POP JUMP JUMPDEST PUSH0 PUSH0 SWAP1 SLOAD SWAP1 PUSH2 0x100 EXP SWAP1 DIV PUSH20 0xFFFFFFFFFFFFFFFFFFFFFFFFFFFFFFFFFFFFFFFF AND DUP2 JUMP JUMPDEST PUSH1 0x4 DUP2 DUP1 MLOAD PUSH1 0x20 DUP2 ADD DUP3 ADD DUP1 MLOAD DUP5 DUP3 MSTORE PUSH1 0x20 DUP4 ADD PUSH1 0x20 DUP6 ADD KECCAK256 DUP2 DUP4 MSTORE DUP1 SWAP6 POP POP POP POP POP POP PUSH0 SWAP2 POP SWAP1 POP SLOAD DUP2 JUMP JUMPDEST PUSH1 0x3 PUSH0 SWAP1 SLOAD SWAP1 PUSH2 0x100 EXP SWAP1 DIV PUSH1 0xFF AND DUP2 JUMP JUMPDEST PUSH0 PUSH0 PUSH0 SWAP1 SLOAD SWAP1 PUSH2 0x100 EXP SWAP1 DIV PUSH20 0xFFFFFFFFFFFFFFFFFFFFFFFFFFFFFFFFFFFFFFFF AND SWAP1 POP PUSH0 ADDRESS SWAP1 POP DUP2 PUSH20 0xFFFFFFFFFFFFFFFFFFFFFFFFFFFFFFFFFFFFFFFF AND PUSH2 0x8FC DUP3 PUSH20 0xFFFFFFFFFFFFFFFFFFFFFFFFFFFFFFFFFFFFFFFF AND BALANCE SWAP1 DUP2 ISZERO MUL SWAP1 PUSH1 0x40 MLOAD PUSH0 PUSH1 0x40 MLOAD DUP1 DUP4 SUB DUP2 DUP6 DUP9 DUP9 CALL SWAP4 POP POP POP POP ISZERO DUP1 ISZERO PUSH2 0x48A JUMPI RETURNDATASIZE PUSH0 PUSH0 RETURNDATACOPY RETURNDATASIZE PUSH0 REVERT JUMPDEST POP PUSH0 PUSH1 0x5 PUSH0 CALLER PUSH20 0xFFFFFFFFFFFFFFFFFFFFFFFFFFFFFFFFFFFFFFFF AND PUSH20 0xFFFFFFFFFFFFFFFFFFFFFFFFFFFFFFFFFFFFFFFF AND DUP2 MSTORE PUSH1 0x20 ADD SWAP1 DUP2 MSTORE PUSH1 0x20 ADD PUSH0 KECCAK256 DUP2 SWAP1 SSTORE POP POP POP JUMP JUMPDEST PUSH0 PUSH1 0x2 DUP3 PUSH2 0x4DF SWAP2 SWAP1 PUSH2 0xB03 JUMP JUMPDEST SWAP1 POP SWAP2 SWAP1 POP JUMP JUMPDEST PUSH1 0x1 DUP1 SLOAD PUSH2 0x4F3 SWAP1 PUSH2 0xBA6 JUMP JUMPDEST DUP1 PUSH1 0x1F ADD PUSH1 0x20 DUP1 SWAP2 DIV MUL PUSH1 0x20 ADD PUSH1 0x40 MLOAD SWAP1 DUP2 ADD PUSH1 0x40 MSTORE DUP1 SWAP3 SWAP2 SWAP1 DUP2 DUP2 MSTORE PUSH1 0x20 ADD DUP3 DUP1 SLOAD PUSH2 0x51F SWAP1 PUSH2 0xBA6 JUMP JUMPDEST DUP1 ISZERO PUSH2 0x56A JUMPI DUP1 PUSH1 0x1F LT PUSH2 0x541 JUMPI PUSH2 0x100 DUP1 DUP4 SLOAD DIV MUL DUP4 MSTORE SWAP2 PUSH1 0x20 ADD SWAP2 PUSH2 0x56A JUMP JUMPDEST DUP3 ADD SWAP2 SWAP1 PUSH0 MSTORE PUSH1 0x20 PUSH0 KECCAK256 SWAP1 JUMPDEST DUP2 SLOAD DUP2 MSTORE SWAP1 PUSH1 0x1 ADD SWAP1 PUSH1 0x20 ADD DUP1 DUP4 GT PUSH2 0x54D JUMPI DUP3 SWAP1 SUB PUSH1 0x1F AND DUP3 ADD SWAP2 JUMPDEST POP POP POP POP POP DUP2 JUMP JUMPDEST PUSH1 0x2 PUSH0 DUP2 SLOAD DUP1 SWAP3 SWAP2 SWAP1 PUSH2 0x584 SWAP1 PUSH2 0xBD6 JUMP JUMPDEST SWAP2 SWAP1 POP SSTORE POP JUMP JUMPDEST PUSH1 0x1 PUSH1 0x3 PUSH0 PUSH2 0x100 EXP DUP2 SLOAD DUP2 PUSH1 0xFF MUL NOT AND SWAP1 DUP4 ISZERO ISZERO MUL OR SWAP1 SSTORE POP JUMP JUMPDEST PUSH1 0x5 PUSH1 0x20 MSTORE DUP1 PUSH0 MSTORE PUSH1 0x40 PUSH0 KECCAK256 PUSH0 SWAP2 POP SWAP1 POP SLOAD DUP2 JUMP JUMPDEST PUSH0 DUP2 SWAP1 POP SWAP2 SWAP1 POP JUMP JUMPDEST PUSH2 0x5CE DUP2 PUSH2 0x5BC JUMP JUMPDEST DUP3 MSTORE POP POP JUMP JUMPDEST PUSH0 PUSH1 0x20 DUP3 ADD SWAP1 POP PUSH2 0x5E7 PUSH0 DUP4 ADD DUP5 PUSH2 0x5C5 JUMP JUMPDEST SWAP3 SWAP2 POP POP JUMP JUMPDEST PUSH0 DUP2 SWAP1 POP SWAP2 SWAP1 POP JUMP JUMPDEST PUSH2 0x5FF DUP2 PUSH2 0x5ED JUMP JUMPDEST DUP3 MSTORE POP POP JUMP JUMPDEST PUSH0 PUSH1 0x20 DUP3 ADD SWAP1 POP PUSH2 0x618 PUSH0 DUP4 ADD DUP5 PUSH2 0x5F6 JUMP JUMPDEST SWAP3 SWAP2 POP POP JUMP JUMPDEST PUSH0 PUSH1 0x40 MLOAD SWAP1 POP SWAP1 JUMP JUMPDEST PUSH0 PUSH0 REVERT JUMPDEST PUSH0 PUSH0 REVERT JUMPDEST PUSH0 PUSH0 REVERT JUMPDEST PUSH0 PUSH0 REVERT JUMPDEST PUSH0 PUSH1 0x1F NOT PUSH1 0x1F DUP4 ADD AND SWAP1 POP SWAP2 SWAP1 POP JUMP JUMPDEST PUSH32 0x4E487B7100000000000000000000000000000000000000000000000000000000 PUSH0 MSTORE PUSH1 0x41 PUSH1 0x4 MSTORE PUSH1 0x24 PUSH0 REVERT JUMPDEST PUSH2 0x67D DUP3 PUSH2 0x637 JUMP JUMPDEST DUP2 ADD DUP2 DUP2 LT PUSH8 0xFFFFFFFFFFFFFFFF DUP3 GT OR ISZERO PUSH2 0x69C JUMPI PUSH2 0x69B PUSH2 0x647 JUMP JUMPDEST JUMPDEST DUP1 PUSH1 0x40 MSTORE POP POP POP JUMP JUMPDEST PUSH0 PUSH2 0x6AE PUSH2 0x61E JUMP JUMPDEST SWAP1 POP PUSH2 0x6BA DUP3 DUP3 PUSH2 0x674 JUMP JUMPDEST SWAP2 SWAP1 POP JUMP JUMPDEST PUSH0 PUSH8 0xFFFFFFFFFFFFFFFF DUP3 GT ISZERO PUSH2 0x6D9 JUMPI PUSH2 0x6D8 PUSH2 0x647 JUMP JUMPDEST JUMPDEST PUSH2 0x6E2 DUP3 PUSH2 0x637 JUMP JUMPDEST SWAP1 POP PUSH1 0x20 DUP2 ADD SWAP1 POP SWAP2 SWAP1 POP JUMP JUMPDEST DUP3 DUP2 DUP4 CALLDATACOPY PUSH0 DUP4 DUP4 ADD MSTORE POP POP POP JUMP JUMPDEST PUSH0 PUSH2 0x70F PUSH2 0x70A DUP5 PUSH2 0x6BF JUMP JUMPDEST PUSH2 0x6A5 JUMP JUMPDEST SWAP1 POP DUP3 DUP2 MSTORE PUSH1 0x20 DUP2 ADD DUP5 DUP5 DUP5 ADD GT ISZERO PUSH2 0x72B JUMPI PUSH2 0x72A PUSH2 0x633 JUMP JUMPDEST JUMPDEST PUSH2 0x736 DUP5 DUP3 DUP6 PUSH2 0x6EF JUMP JUMPDEST POP SWAP4 SWAP3 POP POP POP JUMP JUMPDEST PUSH0 DUP3 PUSH1 0x1F DUP4 ADD SLT PUSH2 0x752 JUMPI PUSH2 0x751 PUSH2 0x62F JUMP JUMPDEST JUMPDEST DUP2 CALLDATALOAD PUSH2 0x762 DUP5 DUP3 PUSH1 0x20 DUP7 ADD PUSH2 0x6FD JUMP JUMPDEST SWAP2 POP POP SWAP3 SWAP2 POP POP JUMP JUMPDEST PUSH2 0x774 DUP2 PUSH2 0x5ED JUMP JUMPDEST DUP2 EQ PUSH2 0x77E JUMPI PUSH0 PUSH0 REVERT JUMPDEST POP JUMP JUMPDEST PUSH0 DUP2 CALLDATALOAD SWAP1 POP PUSH2 0x78F DUP2 PUSH2 0x76B JUMP JUMPDEST SWAP3 SWAP2 POP POP JUMP JUMPDEST PUSH0 PUSH0 PUSH1 0x40 DUP4 DUP6 SUB SLT ISZERO PUSH2 0x7AB JUMPI PUSH2 0x7AA PUSH2 0x627 JUMP JUMPDEST JUMPDEST PUSH0 DUP4 ADD CALLDATALOAD PUSH8 0xFFFFFFFFFFFFFFFF DUP2 GT ISZERO PUSH2 0x7C8 JUMPI PUSH2 0x7C7 PUSH2 0x62B JUMP JUMPDEST JUMPDEST PUSH2 0x7D4 DUP6 DUP3 DUP7 ADD PUSH2 0x73E JUMP JUMPDEST SWAP3 POP POP PUSH1 0x20 PUSH2 0x7E5 DUP6 DUP3 DUP7 ADD PUSH2 0x781 JUMP JUMPDEST SWAP2 POP POP SWAP3 POP SWAP3 SWAP1 POP JUMP JUMPDEST PUSH0 PUSH20 0xFFFFFFFFFFFFFFFFFFFFFFFFFFFFFFFFFFFFFFFF DUP3 AND SWAP1 POP SWAP2 SWAP1 POP JUMP JUMPDEST PUSH0 PUSH2 0x818 DUP3 PUSH2 0x7EF JUMP JUMPDEST SWAP1 POP SWAP2 SWAP1 POP JUMP JUMPDEST PUSH2 0x828 DUP2 PUSH2 0x80E JUMP JUMPDEST DUP3 MSTORE POP POP JUMP JUMPDEST PUSH0 PUSH1 0x20 DUP3 ADD SWAP1 POP PUSH2 0x841 PUSH0 DUP4 ADD DUP5 PUSH2 0x81F JUMP JUMPDEST SWAP3 SWAP2 POP POP JUMP JUMPDEST PUSH0 PUSH1 0x20 DUP3 DUP5 SUB SLT ISZERO PUSH2 0x85C JUMPI PUSH2 0x85B PUSH2 0x627 JUMP JUMPDEST JUMPDEST PUSH0 DUP3 ADD CALLDATALOAD PUSH8 0xFFFFFFFFFFFFFFFF DUP2 GT ISZERO PUSH2 0x879 JUMPI PUSH2 0x878 PUSH2 0x62B JUMP JUMPDEST JUMPDEST PUSH2 0x885 DUP5 DUP3 DUP6 ADD PUSH2 0x73E JUMP JUMPDEST SWAP2 POP POP SWAP3 SWAP2 POP POP JUMP JUMPDEST PUSH0 DUP2 ISZERO ISZERO SWAP1 POP SWAP2 SWAP1 POP JUMP JUMPDEST PUSH2 0x8A2 DUP2 PUSH2 0x88E JUMP JUMPDEST DUP3 MSTORE POP POP JUMP JUMPDEST PUSH0 PUSH1 0x20 DUP3 ADD SWAP1 POP PUSH2 0x8BB PUSH0 DUP4 ADD DUP5 PUSH2 0x899 JUMP JUMPDEST SWAP3 SWAP2 POP POP JUMP JUMPDEST PUSH2 0x8CA DUP2 PUSH2 0x5BC JUMP JUMPDEST DUP2 EQ PUSH2 0x8D4 JUMPI PUSH0 PUSH0 REVERT JUMPDEST POP JUMP JUMPDEST PUSH0 DUP2 CALLDATALOAD SWAP1 POP PUSH2 0x8E5 DUP2 PUSH2 0x8C1 JUMP JUMPDEST SWAP3 SWAP2 POP POP JUMP JUMPDEST PUSH0 PUSH1 0x20 DUP3 DUP5 SUB SLT ISZERO PUSH2 0x900 JUMPI PUSH2 0x8FF PUSH2 0x627 JUMP JUMPDEST JUMPDEST PUSH0 PUSH2 0x90D DUP5 DUP3 DUP6 ADD PUSH2 0x8D7 JUMP JUMPDEST SWAP2 POP POP SWAP3 SWAP2 POP POP JUMP JUMPDEST PUSH0 DUP2 MLOAD SWAP1 POP SWAP2 SWAP1 POP JUMP JUMPDEST PUSH0 DUP3 DUP3 MSTORE PUSH1 0x20 DUP3 ADD SWAP1 POP SWAP3 SWAP2 POP POP JUMP JUMPDEST DUP3 DUP2 DUP4 MCOPY PUSH0 DUP4 DUP4 ADD MSTORE POP POP POP JUMP JUMPDEST PUSH0 PUSH2 0x948 DUP3 PUSH2 0x916 JUMP JUMPDEST PUSH2 0x952 DUP2 DUP6 PUSH2 0x920 JUMP JUMPDEST SWAP4 POP PUSH2 0x962 DUP2 DUP6 PUSH1 0x20 DUP7 ADD PUSH2 0x930 JUMP JUMPDEST PUSH2 0x96B DUP2 PUSH2 0x637 JUMP JUMPDEST DUP5 ADD SWAP2 POP POP SWAP3 SWAP2 POP POP JUMP JUMPDEST PUSH0 PUSH1 0x20 DUP3 ADD SWAP1 POP DUP2 DUP2 SUB PUSH0 DUP4 ADD MSTORE PUSH2 0x98E DUP2 DUP5 PUSH2 0x93E JUMP JUMPDEST SWAP1 POP SWAP3 SWAP2 POP POP JUMP JUMPDEST PUSH2 0x99F DUP2 PUSH2 0x80E JUMP JUMPDEST DUP2 EQ PUSH2 0x9A9 JUMPI PUSH0 PUSH0 REVERT JUMPDEST POP JUMP JUMPDEST PUSH0 DUP2 CALLDATALOAD SWAP1 POP PUSH2 0x9BA DUP2 PUSH2 0x996 JUMP JUMPDEST SWAP3 SWAP2 POP POP JUMP JUMPDEST PUSH0 PUSH1 0x20 DUP3 DUP5 SUB SLT ISZERO PUSH2 0x9D5 JUMPI PUSH2 0x9D4 PUSH2 0x627 JUMP JUMPDEST JUMPDEST PUSH0 PUSH2 0x9E2 DUP5 DUP3 DUP6 ADD PUSH2 0x9AC JUMP JUMPDEST SWAP2 POP POP SWAP3 SWAP2 POP POP JUMP JUMPDEST PUSH32 0x4E487B7100000000000000000000000000000000000000000000000000000000 PUSH0 MSTORE PUSH1 0x11 PUSH1 0x4 MSTORE PUSH1 0x24 PUSH0 REVERT JUMPDEST PUSH0 PUSH2 0xA22 DUP3 PUSH2 0x5ED JUMP JUMPDEST SWAP2 POP PUSH2 0xA2D DUP4 PUSH2 0x5ED JUMP JUMPDEST SWAP3 POP DUP3 DUP3 ADD SWAP1 POP DUP1 DUP3 GT ISZERO PUSH2 0xA45 JUMPI PUSH2 0xA44 PUSH2 0x9EB JUMP JUMPDEST JUMPDEST SWAP3 SWAP2 POP POP JUMP JUMPDEST PUSH32 0x6F736869626B6100000000000000000000000000000000000000000000000000 PUSH0 DUP3 ADD MSTORE POP JUMP JUMPDEST PUSH0 PUSH2 0xA7F PUSH1 0x7 DUP4 PUSH2 0x920 JUMP JUMPDEST SWAP2 POP PUSH2 0xA8A DUP3 PUSH2 0xA4B JUMP JUMPDEST PUSH1 0x20 DUP3 ADD SWAP1 POP SWAP2 SWAP1 POP JUMP JUMPDEST PUSH0 PUSH1 0x20 DUP3 ADD SWAP1 POP DUP2 DUP2 SUB PUSH0 DUP4 ADD MSTORE PUSH2 0xAAC DUP2 PUSH2 0xA73 JUMP JUMPDEST SWAP1 POP SWAP2 SWAP1 POP JUMP JUMPDEST PUSH0 DUP2 SWAP1 POP SWAP3 SWAP2 POP POP JUMP JUMPDEST PUSH0 PUSH2 0xAC7 DUP3 PUSH2 0x916 JUMP JUMPDEST PUSH2 0xAD1 DUP2 DUP6 PUSH2 0xAB3 JUMP JUMPDEST SWAP4 POP PUSH2 0xAE1 DUP2 DUP6 PUSH1 0x20 DUP7 ADD PUSH2 0x930 JUMP JUMPDEST DUP1 DUP5 ADD SWAP2 POP POP SWAP3 SWAP2 POP POP JUMP JUMPDEST PUSH0 PUSH2 0xAF8 DUP3 DUP5 PUSH2 0xABD JUMP JUMPDEST SWAP2 POP DUP2 SWAP1 POP SWAP3 SWAP2 POP POP JUMP JUMPDEST PUSH0 PUSH2 0xB0D DUP3 PUSH2 0x5BC JUMP JUMPDEST SWAP2 POP PUSH2 0xB18 DUP4 PUSH2 0x5BC JUMP JUMPDEST SWAP3 POP DUP3 DUP3 MUL PUSH2 0xB26 DUP2 PUSH2 0x5BC JUMP JUMPDEST SWAP2 POP PUSH32 0x8000000000000000000000000000000000000000000000000000000000000000 DUP5 EQ PUSH0 DUP5 SLT AND ISZERO PUSH2 0xB5D JUMPI PUSH2 0xB5C PUSH2 0x9EB JUMP JUMPDEST JUMPDEST DUP3 DUP3 SDIV DUP5 EQ DUP4 ISZERO OR PUSH2 0xB72 JUMPI PUSH2 0xB71 PUSH2 0x9EB JUMP JUMPDEST JUMPDEST POP SWAP3 SWAP2 POP POP JUMP JUMPDEST PUSH32 0x4E487B7100000000000000000000000000000000000000000000000000000000 PUSH0 MSTORE PUSH1 0x22 PUSH1 0x4 MSTORE PUSH1 0x24 PUSH0 REVERT JUMPDEST PUSH0 PUSH1 0x2 DUP3 DIV SWAP1 POP PUSH1 0x1 DUP3 AND DUP1 PUSH2 0xBBD JUMPI PUSH1 0x7F DUP3 AND SWAP2 POP JUMPDEST PUSH1 0x20 DUP3 LT DUP2 SUB PUSH2 0xBD0 JUMPI PUSH2 0xBCF PUSH2 0xB79 JUMP JUMPDEST JUMPDEST POP SWAP2 SWAP1 POP JUMP JUMPDEST PUSH0 PUSH2 0xBE0 DUP3 PUSH2 0x5BC JUMP JUMPDEST SWAP2 POP PUSH32 0x7FFFFFFFFFFFFFFFFFFFFFFFFFFFFFFFFFFFFFFFFFFFFFFFFFFFFFFFFFFFFFFF DUP3 SUB PUSH2 0xC12 JUMPI PUSH2 0xC11 PUSH2 0x9EB JUMP JUMPDEST JUMPDEST PUSH1 0x1 DUP3 ADD SWAP1 POP SWAP2 SWAP1 POP JUMP INVALID LOG2 PUSH5 0x6970667358 0x22 SLT KECCAK256 CODESIZE 0xC1 0x1F DUP11 EXTCODEHASH 0x24 CALL SWAP4 0xC0 0xCF REVERT EXTCODESIZE PUSH8 0xB997ACC6DA337488 ADD MLOAD 0x1F 0xE PUSH3 0x1CC28D 0xBF 0xCC 0xAA PUSH5 0x736F6C6343 STOP ADDMOD 0x1E STOP CALLER "
				},
				"gasEstimates": {
					"creation": {
						"codeDepositCost": "631000",
						"executionCost": "infinite",
						"totalCost": "infinite"
					},
					"external": {
						"completeUrok()": "24541",
						"egoLesson(string)": "infinite",
						"nameStudent()": "infinite",
						"payForItem()": "infinite",
						"payments(address)": "2890",
						"replace(string,uint256)": "infinite",
						"statusStudent()": "2489",
						"student()": "2596",
						"swapStatusActive()": "24475",
						"swapStatusInactive()": "24475",
						"umnozhenie(int256)": "infinite",
						"urok()": "2426",
						"withdrawAll()": "infinite"
					}
				},
				"methodIdentifiers": {
					"completeUrok()": "b182b083",
					"egoLesson(string)": "6c5f5966",
					"nameStudent()": "a830e15f",
					"payForItem()": "13bea460",
					"payments(address)": "e2982c21",
					"replace(string,uint256)": "25073a49",
					"statusStudent()": "80e8d626",
					"student()": "699450e8",
					"swapStatusActive()": "b774884a",
					"swapStatusInactive()": "59212064",
					"umnozhenie(int256)": "88e7cc08",
					"urok()": "0f91d842",
					"withdrawAll()": "853828b6"
				}
			},
			"storageLayout": {
				"storage": [
					{
						"astId": 3,
						"contract": "StudentDiary.sol:StudentDiary",
						"label": "student",
						"offset": 0,
						"slot": "0",
						"type": "t_address"
					},
					{
						"astId": 6,
						"contract": "StudentDiary.sol:StudentDiary",
						"label": "nameStudent",
						"offset": 0,
						"slot": "1",
						"type": "t_string_storage"
					},
					{
						"astId": 8,
						"contract": "StudentDiary.sol:StudentDiary",
						"label": "urok",
						"offset": 0,
						"slot": "2",
						"type": "t_int256"
					},
					{
						"astId": 10,
						"contract": "StudentDiary.sol:StudentDiary",
						"label": "statusStudent",
						"offset": 0,
						"slot": "3",
						"type": "t_bool"
					},
					{
						"astId": 14,
						"contract": "StudentDiary.sol:StudentDiary",
						"label": "egoLesson",
						"offset": 0,
						"slot": "4",
						"type": "t_mapping(t_string_memory_ptr,t_uint256)"
					},
					{
						"astId": 18,
						"contract": "StudentDiary.sol:StudentDiary",
						"label": "payments",
						"offset": 0,
						"slot": "5",
						"type": "t_mapping(t_address,t_uint256)"
					}
				],
				"types": {
					"t_address": {
						"encoding": "inplace",
						"label": "address",
						"numberOfBytes": "20"
					},
					"t_bool": {
						"encoding": "inplace",
						"label": "bool",
						"numberOfBytes": "1"
					},
					"t_int256": {
						"encoding": "inplace",
						"label": "int256",
						"numberOfBytes": "32"
					},
					"t_mapping(t_address,t_uint256)": {
						"encoding": "mapping",
						"key": "t_address",
						"label": "mapping(address => uint256)",
						"numberOfBytes": "32",
						"value": "t_uint256"
					},
					"t_mapping(t_string_memory_ptr,t_uint256)": {
						"encoding": "mapping",
						"key": "t_string_memory_ptr",
						"label": "mapping(string => uint256)",
						"numberOfBytes": "32",
						"value": "t_uint256"
					},
					"t_string_memory_ptr": {
						"encoding": "bytes",
						"label": "string",
						"numberOfBytes": "32"
					},
					"t_string_storage": {
						"encoding": "bytes",
						"label": "string",
						"numberOfBytes": "32"
					},
					"t_uint256": {
						"encoding": "inplace",
						"label": "uint256",
						"numberOfBytes": "32"
					}
				}
			},
			"userdoc": {
				"kind": "user",
				"methods": {},
				"version": 1
			}
		}
	}
}