{
	"ToDoList.sol": {
		"ToDoList": {
			"abi": [
				{
					"inputs": [
						{
							"internalType": "int256",
							"name": "number",
							"type": "int256"
						}
					],
					"name": "addNumber",
					"outputs": [],
					"stateMutability": "nonpayable",
					"type": "function"
				},
				{
					"inputs": [
						{
							"internalType": "string",
							"name": "text",
							"type": "string"
						}
					],
					"name": "addTask",
					"outputs": [],
					"stateMutability": "nonpayable",
					"type": "function"
				},
				{
					"inputs": [],
					"name": "currentStatus",
					"outputs": [
						{
							"internalType": "enum ToDoList.Status",
							"name": "",
							"type": "uint8"
						}
					],
					"stateMutability": "view",
					"type": "function"
				},
				{
					"inputs": [],
					"name": "data",
					"outputs": [
						{
							"internalType": "bytes",
							"name": "",
							"type": "bytes"
						}
					],
					"stateMutability": "view",
					"type": "function"
				},
				{
					"inputs": [
						{
							"internalType": "address",
							"name": "targetAddress",
							"type": "address"
						}
					],
					"name": "getBalance",
					"outputs": [
						{
							"internalType": "uint256",
							"name": "",
							"type": "uint256"
						}
					],
					"stateMutability": "view",
					"type": "function"
				},
				{
					"inputs": [
						{
							"internalType": "uint256",
							"name": "index",
							"type": "uint256"
						}
					],
					"name": "getNumber",
					"outputs": [
						{
							"internalType": "int256",
							"name": "",
							"type": "int256"
						}
					],
					"stateMutability": "view",
					"type": "function"
				},
				{
					"inputs": [
						{
							"internalType": "uint256",
							"name": "index",
							"type": "uint256"
						}
					],
					"name": "getTask",
					"outputs": [
						{
							"internalType": "string",
							"name": "",
							"type": "string"
						},
						{
							"internalType": "bool",
							"name": "",
							"type": "bool"
						}
					],
					"stateMutability": "view",
					"type": "function"
				},
				{
					"inputs": [],
					"name": "len",
					"outputs": [
						{
							"internalType": "uint256",
							"name": "",
							"type": "uint256"
						}
					],
					"stateMutability": "view",
					"type": "function"
				},
				{
					"inputs": [
						{
							"internalType": "uint256",
							"name": "index",
							"type": "uint256"
						}
					],
					"name": "markDone",
					"outputs": [],
					"stateMutability": "nonpayable",
					"type": "function"
				},
				{
					"inputs": [
						{
							"internalType": "uint256",
							"name": "",
							"type": "uint256"
						}
					],
					"name": "numbers",
					"outputs": [
						{
							"internalType": "int256",
							"name": "",
							"type": "int256"
						}
					],
					"stateMutability": "view",
					"type": "function"
				},
				{
					"inputs": [],
					"name": "receiveFunds",
					"outputs": [],
					"stateMutability": "payable",
					"type": "function"
				},
				{
					"inputs": [
						{
							"internalType": "bytes",
							"name": "_data",
							"type": "bytes"
						}
					],
					"name": "setData",
					"outputs": [],
					"stateMutability": "nonpayable",
					"type": "function"
				},
				{
					"inputs": [
						{
							"internalType": "enum ToDoList.Status",
							"name": "newStatus",
							"type": "uint8"
						}
					],
					"name": "setStatus",
					"outputs": [],
					"stateMutability": "nonpayable",
					"type": "function"
				},
				{
					"inputs": [
						{
							"internalType": "uint256",
							"name": "",
							"type": "uint256"
						}
					],
					"name": "tasks",
					"outputs": [
						{
							"internalType": "string",
							"name": "textTask",
							"type": "string"
						},
						{
							"internalType": "bool",
							"name": "completeTask",
							"type": "bool"
						}
					],
					"stateMutability": "view",
					"type": "function"
				},
				{
					"inputs": [
						{
							"internalType": "address",
							"name": "targetAddr",
							"type": "address"
						},
						{
							"internalType": "uint256",
							"name": "amount",
							"type": "uint256"
						}
					],
					"name": "transferTo",
					"outputs": [],
					"stateMutability": "nonpayable",
					"type": "function"
				}
			],
			"devdoc": {
				"kind": "dev",
				"methods": {},
				"version": 1
			},
			"evm": {
				"assembly": "    /* \"ToDoList.sol\":61:2467  contract ToDoList { // контракт :D... */\n  mstore(0x40, 0x80)\n  callvalue\n  dup1\n  iszero\n  tag_1\n  jumpi\n  revert(0x00, 0x00)\ntag_1:\n  pop\n  dataSize(sub_0)\n  dup1\n  dataOffset(sub_0)\n  0x00\n  codecopy\n  0x00\n  return\nstop\n\nsub_0: assembly {\n        /* \"ToDoList.sol\":61:2467  contract ToDoList { // контракт :D... */\n      mstore(0x40, 0x80)\n      jumpi(tag_1, lt(calldatasize, 0x04))\n      shr(0xe0, calldataload(0x00))\n      dup1\n      0x67238562\n      gt\n      tag_17\n      jumpi\n      dup1\n      0xd39fa233\n      gt\n      tag_18\n      jumpi\n      dup1\n      0xd39fa233\n      eq\n      tag_13\n      jumpi\n      dup1\n      0xef8a9235\n      eq\n      tag_14\n      jumpi\n      dup1\n      0xf8b2cb4f\n      eq\n      tag_15\n      jumpi\n      dup1\n      0xfc563658\n      eq\n      tag_16\n      jumpi\n      jump(tag_1)\n    tag_18:\n      dup1\n      0x67238562\n      eq\n      tag_9\n      jumpi\n      dup1\n      0x73d4a13a\n      eq\n      tag_10\n      jumpi\n      dup1\n      0x8d977672\n      eq\n      tag_11\n      jumpi\n      dup1\n      0xab62f0e1\n      eq\n      tag_12\n      jumpi\n      jump(tag_1)\n    tag_17:\n      dup1\n      0x2e49d78b\n      gt\n      tag_19\n      jumpi\n      dup1\n      0x2e49d78b\n      eq\n      tag_5\n      jumpi\n      dup1\n      0x4ad0e590\n      eq\n      tag_6\n      jumpi\n      dup1\n      0x56d88e27\n      eq\n      tag_7\n      jumpi\n      dup1\n      0x63893d17\n      eq\n      tag_8\n      jumpi\n      jump(tag_1)\n    tag_19:\n      dup1\n      0x5c33e1\n      eq\n      tag_2\n      jumpi\n      dup1\n      0x1d65e77e\n      eq\n      tag_3\n      jumpi\n      dup1\n      0x2ccb1b30\n      eq\n      tag_4\n      jumpi\n    tag_1:\n      revert(0x00, 0x00)\n        /* \"ToDoList.sol\":1839:1978  function receiveFunds() public payable { // функция для перевода средств на счет контракта... */\n    tag_2:\n      tag_20\n      tag_21\n      jump\t// in\n    tag_20:\n      stop\n        /* \"ToDoList.sol\":1235:1478  function getTask(uint index) public view returns(string memory, bool) { // функция для вывода задачи по индексу... */\n    tag_3:\n      callvalue\n      dup1\n      iszero\n      tag_22\n      jumpi\n      revert(0x00, 0x00)\n    tag_22:\n      pop\n      tag_23\n      0x04\n      dup1\n      calldatasize\n      sub\n      dup2\n      add\n      swap1\n      tag_24\n      swap2\n      swap1\n      tag_25\n      jump\t// in\n    tag_24:\n      tag_26\n      jump\t// in\n    tag_23:\n      mload(0x40)\n      tag_27\n      swap3\n      swap2\n      swap1\n      tag_28\n      jump\t// in\n    tag_27:\n      mload(0x40)\n      dup1\n      swap2\n      sub\n      swap1\n      return\n        /* \"ToDoList.sol\":1990:2231  function transferTo(address targetAddr, uint amount) public { // функция для перевода средств на любой контракт... */\n    tag_4:\n      callvalue\n      dup1\n      iszero\n      tag_29\n      jumpi\n      revert(0x00, 0x00)\n    tag_29:\n      pop\n      tag_30\n      0x04\n      dup1\n      calldatasize\n      sub\n      dup2\n      add\n      swap1\n      tag_31\n      swap2\n      swap1\n      tag_32\n      jump\t// in\n    tag_31:\n      tag_33\n      jump\t// in\n    tag_30:\n      stop\n        /* \"ToDoList.sol\":1665:1831  function setStatus(Status newStatus) public { // функция для изменения статуса контракта... */\n    tag_5:\n      callvalue\n      dup1\n      iszero\n      tag_34\n      jumpi\n      revert(0x00, 0x00)\n    tag_34:\n      pop\n      tag_35\n      0x04\n      dup1\n      calldatasize\n      sub\n      dup2\n      add\n      swap1\n      tag_36\n      swap2\n      swap1\n      tag_37\n      jump\t// in\n    tag_36:\n      tag_38\n      jump\t// in\n    tag_35:\n      stop\n        /* \"ToDoList.sol\":1486:1657  function markDone(uint index) public { // функция для пометки задачи как выполненная... */\n    tag_6:\n      callvalue\n      dup1\n      iszero\n      tag_39\n      jumpi\n      revert(0x00, 0x00)\n    tag_39:\n      pop\n      tag_40\n      0x04\n      dup1\n      calldatasize\n      sub\n      dup2\n      add\n      swap1\n      tag_41\n      swap2\n      swap1\n      tag_25\n      jump\t// in\n    tag_41:\n      tag_42\n      jump\t// in\n    tag_40:\n      stop\n        /* \"ToDoList.sol\":453:468  uint public len */\n    tag_7:\n      callvalue\n      dup1\n      iszero\n      tag_43\n      jumpi\n      revert(0x00, 0x00)\n    tag_43:\n      pop\n      tag_44\n      tag_45\n      jump\t// in\n    tag_44:\n      mload(0x40)\n      tag_46\n      swap2\n      swap1\n      tag_47\n      jump\t// in\n    tag_46:\n      mload(0x40)\n      dup1\n      swap2\n      sub\n      swap1\n      return\n        /* \"ToDoList.sol\":714:864  function addNumber(int number) public { // функция для добавления чисел в массив... */\n    tag_8:\n      callvalue\n      dup1\n      iszero\n      tag_48\n      jumpi\n      revert(0x00, 0x00)\n    tag_48:\n      pop\n      tag_49\n      0x04\n      dup1\n      calldatasize\n      sub\n      dup2\n      add\n      swap1\n      tag_50\n      swap2\n      swap1\n      tag_51\n      jump\t// in\n    tag_50:\n      tag_52\n      jump\t// in\n    tag_49:\n      stop\n        /* \"ToDoList.sol\":1065:1227  function addTask(string memory text) public { // функция для добавления новой задачи... */\n    tag_9:\n      callvalue\n      dup1\n      iszero\n      tag_53\n      jumpi\n      revert(0x00, 0x00)\n    tag_53:\n      pop\n      tag_54\n      0x04\n      dup1\n      calldatasize\n      sub\n      dup2\n      add\n      swap1\n      tag_55\n      swap2\n      swap1\n      tag_56\n      jump\t// in\n    tag_55:\n      tag_57\n      jump\t// in\n    tag_54:\n      stop\n        /* \"ToDoList.sol\":371:388  bytes public data */\n    tag_10:\n      callvalue\n      dup1\n      iszero\n      tag_58\n      jumpi\n      revert(0x00, 0x00)\n    tag_58:\n      pop\n      tag_59\n      tag_60\n      jump\t// in\n    tag_59:\n      mload(0x40)\n      tag_61\n      swap2\n      swap1\n      tag_62\n      jump\t// in\n    tag_61:\n      mload(0x40)\n      dup1\n      swap2\n      sub\n      swap1\n      return\n        /* \"ToDoList.sol\":475:494  Task[] public tasks */\n    tag_11:\n      callvalue\n      dup1\n      iszero\n      tag_63\n      jumpi\n      revert(0x00, 0x00)\n    tag_63:\n      pop\n      tag_64\n      0x04\n      dup1\n      calldatasize\n      sub\n      dup2\n      add\n      swap1\n      tag_65\n      swap2\n      swap1\n      tag_25\n      jump\t// in\n    tag_65:\n      tag_66\n      jump\t// in\n    tag_64:\n      mload(0x40)\n      tag_67\n      swap3\n      swap2\n      swap1\n      tag_28\n      jump\t// in\n    tag_67:\n      mload(0x40)\n      dup1\n      swap2\n      sub\n      swap1\n      return\n        /* \"ToDoList.sol\":530:706  function setData(bytes memory _data) public { // функция для хранения байтовых данных в переменной data... */\n    tag_12:\n      callvalue\n      dup1\n      iszero\n      tag_68\n      jumpi\n      revert(0x00, 0x00)\n    tag_68:\n      pop\n      tag_69\n      0x04\n      dup1\n      calldatasize\n      sub\n      dup2\n      add\n      swap1\n      tag_70\n      swap2\n      swap1\n      tag_71\n      jump\t// in\n    tag_70:\n      tag_72\n      jump\t// in\n    tag_69:\n      stop\n        /* \"ToDoList.sol\":397:417  int[] public numbers */\n    tag_13:\n      callvalue\n      dup1\n      iszero\n      tag_73\n      jumpi\n      revert(0x00, 0x00)\n    tag_73:\n      pop\n      tag_74\n      0x04\n      dup1\n      calldatasize\n      sub\n      dup2\n      add\n      swap1\n      tag_75\n      swap2\n      swap1\n      tag_25\n      jump\t// in\n    tag_75:\n      tag_76\n      jump\t// in\n    tag_74:\n      mload(0x40)\n      tag_77\n      swap2\n      swap1\n      tag_78\n      jump\t// in\n    tag_77:\n      mload(0x40)\n      dup1\n      swap2\n      sub\n      swap1\n      return\n        /* \"ToDoList.sol\":279:306  Status public currentStatus */\n    tag_14:\n      callvalue\n      dup1\n      iszero\n      tag_79\n      jumpi\n      revert(0x00, 0x00)\n    tag_79:\n      pop\n      tag_80\n      tag_81\n      jump\t// in\n    tag_80:\n      mload(0x40)\n      tag_82\n      swap2\n      swap1\n      tag_83\n      jump\t// in\n    tag_82:\n      mload(0x40)\n      dup1\n      swap2\n      sub\n      swap1\n      return\n        /* \"ToDoList.sol\":2239:2464  function getBalance(address targetAddress) public view returns(uint) { // функция для просмотра баланса любого контракта по адресу... */\n    tag_15:\n      callvalue\n      dup1\n      iszero\n      tag_84\n      jumpi\n      revert(0x00, 0x00)\n    tag_84:\n      pop\n      tag_85\n      0x04\n      dup1\n      calldatasize\n      sub\n      dup2\n      add\n      swap1\n      tag_86\n      swap2\n      swap1\n      tag_87\n      jump\t// in\n    tag_86:\n      tag_88\n      jump\t// in\n    tag_85:\n      mload(0x40)\n      tag_89\n      swap2\n      swap1\n      tag_47\n      jump\t// in\n    tag_89:\n      mload(0x40)\n      dup1\n      swap2\n      sub\n      swap1\n      return\n        /* \"ToDoList.sol\":872:1057  function getNumber(uint index) public view returns(int) { // функция для вывода чисел из массива по индексу... */\n    tag_16:\n      callvalue\n      dup1\n      iszero\n      tag_90\n      jumpi\n      revert(0x00, 0x00)\n    tag_90:\n      pop\n      tag_91\n      0x04\n      dup1\n      calldatasize\n      sub\n      dup2\n      add\n      swap1\n      tag_92\n      swap2\n      swap1\n      tag_25\n      jump\t// in\n    tag_92:\n      tag_93\n      jump\t// in\n    tag_91:\n      mload(0x40)\n      tag_94\n      swap2\n      swap1\n      tag_78\n      jump\t// in\n    tag_94:\n      mload(0x40)\n      dup1\n      swap2\n      sub\n      swap1\n      return\n        /* \"ToDoList.sol\":1839:1978  function receiveFunds() public payable { // функция для перевода средств на счет контракта... */\n    tag_21:\n      jump\t// out\n        /* \"ToDoList.sol\":1235:1478  function getTask(uint index) public view returns(string memory, bool) { // функция для вывода задачи по индексу... */\n    tag_26:\n        /* \"ToDoList.sol\":1284:1297  string memory */\n      0x60\n        /* \"ToDoList.sol\":1299:1303  bool */\n      0x00\n        /* \"ToDoList.sol\":1387:1403  Task memory task */\n      0x00\n        /* \"ToDoList.sol\":1406:1411  tasks */\n      0x04\n        /* \"ToDoList.sol\":1412:1417  index */\n      dup5\n        /* \"ToDoList.sol\":1406:1418  tasks[index] */\n      dup2\n      sload\n      dup2\n      lt\n      tag_97\n      jumpi\n      tag_98\n      tag_99\n      jump\t// in\n    tag_98:\n    tag_97:\n      swap1\n      0x00\n      mstore\n      keccak256(0x00, 0x20)\n      swap1\n      0x02\n      mul\n      add\n        /* \"ToDoList.sol\":1387:1418  Task memory task = tasks[index] */\n      mload(0x40)\n      dup1\n      0x40\n      add\n      0x40\n      mstore\n      swap1\n      dup2\n      0x00\n      dup3\n      add\n      dup1\n      sload\n      tag_101\n      swap1\n      tag_102\n      jump\t// in\n    tag_101:\n      dup1\n      0x1f\n      add\n      0x20\n      dup1\n      swap2\n      div\n      mul\n      0x20\n      add\n      mload(0x40)\n      swap1\n      dup2\n      add\n      0x40\n      mstore\n      dup1\n      swap3\n      swap2\n      swap1\n      dup2\n      dup2\n      mstore\n      0x20\n      add\n      dup3\n      dup1\n      sload\n      tag_103\n      swap1\n      tag_102\n      jump\t// in\n    tag_103:\n      dup1\n      iszero\n      tag_104\n      jumpi\n      dup1\n      0x1f\n      lt\n      tag_105\n      jumpi\n      0x0100\n      dup1\n      dup4\n      sload\n      div\n      mul\n      dup4\n      mstore\n      swap2\n      0x20\n      add\n      swap2\n      jump(tag_104)\n    tag_105:\n      dup3\n      add\n      swap2\n      swap1\n      0x00\n      mstore\n      keccak256(0x00, 0x20)\n      swap1\n    tag_106:\n      dup2\n      sload\n      dup2\n      mstore\n      swap1\n      0x01\n      add\n      swap1\n      0x20\n      add\n      dup1\n      dup4\n      gt\n      tag_106\n      jumpi\n      dup3\n      swap1\n      sub\n      0x1f\n      and\n      dup3\n      add\n      swap2\n    tag_104:\n      pop\n      pop\n      pop\n      pop\n      pop\n      dup2\n      mstore\n      0x20\n      add\n      0x01\n      dup3\n      add\n      0x00\n      swap1\n      sload\n      swap1\n      0x0100\n      exp\n      swap1\n      div\n      0xff\n      and\n      iszero\n      iszero\n      iszero\n      iszero\n      dup2\n      mstore\n      pop\n      pop\n      swap1\n      pop\n        /* \"ToDoList.sol\":1437:1441  task */\n      dup1\n        /* \"ToDoList.sol\":1437:1450  task.textTask */\n      0x00\n      add\n      mload\n        /* \"ToDoList.sol\":1452:1456  task */\n      dup2\n        /* \"ToDoList.sol\":1452:1469  task.completeTask */\n      0x20\n      add\n      mload\n        /* \"ToDoList.sol\":1429:1470  return (task.textTask, task.completeTask) */\n      swap3\n      pop\n      swap3\n      pop\n      pop\n        /* \"ToDoList.sol\":1235:1478  function getTask(uint index) public view returns(string memory, bool) { // функция для вывода задачи по индексу... */\n      swap2\n      pop\n      swap2\n      jump\t// out\n        /* \"ToDoList.sol\":1990:2231  function transferTo(address targetAddr, uint amount) public { // функция для перевода средств на любой контракт... */\n    tag_33:\n        /* \"ToDoList.sol\":2151:2170  address payable _to */\n      0x00\n        /* \"ToDoList.sol\":2181:2191  targetAddr */\n      dup3\n        /* \"ToDoList.sol\":2151:2192  address payable _to = payable(targetAddr) */\n      swap1\n      pop\n        /* \"ToDoList.sol\":2203:2206  _to */\n      dup1\n        /* \"ToDoList.sol\":2203:2215  _to.transfer */\n      0xffffffffffffffffffffffffffffffffffffffff\n      and\n        /* \"ToDoList.sol\":2203:2223  _to.transfer(amount) */\n      0x08fc\n        /* \"ToDoList.sol\":2216:2222  amount */\n      dup4\n        /* \"ToDoList.sol\":2203:2223  _to.transfer(amount) */\n      swap1\n      dup2\n      iszero\n      mul\n      swap1\n      mload(0x40)\n      0x00\n      mload(0x40)\n      dup1\n      dup4\n      sub\n      dup2\n      dup6\n      dup9\n      dup9\n      call\n      swap4\n      pop\n      pop\n      pop\n      pop\n      iszero\n      dup1\n      iszero\n      tag_109\n      jumpi\n      returndatacopy(0x00, 0x00, returndatasize)\n      revert(0x00, returndatasize)\n    tag_109:\n      pop\n        /* \"ToDoList.sol\":2050:2231  { // функция для перевода средств на любой контракт... */\n      pop\n        /* \"ToDoList.sol\":1990:2231  function transferTo(address targetAddr, uint amount) public { // функция для перевода средств на любой контракт... */\n      pop\n      pop\n      jump\t// out\n        /* \"ToDoList.sol\":1665:1831  function setStatus(Status newStatus) public { // функция для изменения статуса контракта... */\n    tag_38:\n        /* \"ToDoList.sol\":1814:1823  newStatus */\n      dup1\n        /* \"ToDoList.sol\":1798:1811  currentStatus */\n      0x00\n      0x00\n        /* \"ToDoList.sol\":1798:1823  currentStatus = newStatus */\n      0x0100\n      exp\n      dup2\n      sload\n      dup2\n      0xff\n      mul\n      not\n      and\n      swap1\n      dup4\n      0x02\n      dup2\n      gt\n      iszero\n      tag_111\n      jumpi\n      tag_112\n      tag_113\n      jump\t// in\n    tag_112:\n    tag_111:\n      mul\n      or\n      swap1\n      sstore\n      pop\n        /* \"ToDoList.sol\":1665:1831  function setStatus(Status newStatus) public { // функция для изменения статуса контракта... */\n      pop\n      jump\t// out\n        /* \"ToDoList.sol\":1486:1657  function markDone(uint index) public { // функция для пометки задачи как выполненная... */\n    tag_42:\n        /* \"ToDoList.sol\":1645:1649  true */\n      0x01\n        /* \"ToDoList.sol\":1617:1622  tasks */\n      0x04\n        /* \"ToDoList.sol\":1623:1628  index */\n      dup3\n        /* \"ToDoList.sol\":1617:1629  tasks[index] */\n      dup2\n      sload\n      dup2\n      lt\n      tag_115\n      jumpi\n      tag_116\n      tag_99\n      jump\t// in\n    tag_116:\n    tag_115:\n      swap1\n      0x00\n      mstore\n      keccak256(0x00, 0x20)\n      swap1\n      0x02\n      mul\n      add\n        /* \"ToDoList.sol\":1617:1642  tasks[index].completeTask */\n      0x01\n      add\n      0x00\n        /* \"ToDoList.sol\":1617:1649  tasks[index].completeTask = true */\n      0x0100\n      exp\n      dup2\n      sload\n      dup2\n      0xff\n      mul\n      not\n      and\n      swap1\n      dup4\n      iszero\n      iszero\n      mul\n      or\n      swap1\n      sstore\n      pop\n        /* \"ToDoList.sol\":1486:1657  function markDone(uint index) public { // функция для пометки задачи как выполненная... */\n      pop\n      jump\t// out\n        /* \"ToDoList.sol\":453:468  uint public len */\n    tag_45:\n      sload(0x03)\n      dup2\n      jump\t// out\n        /* \"ToDoList.sol\":714:864  function addNumber(int number) public { // функция для добавления чисел в массив... */\n    tag_52:\n        /* \"ToDoList.sol\":836:843  numbers */\n      0x02\n        /* \"ToDoList.sol\":849:855  number */\n      dup2\n        /* \"ToDoList.sol\":836:856  numbers.push(number) */\n      swap1\n      dup1\n      0x01\n      dup2\n      sload\n      add\n      dup1\n      dup3\n      sstore\n      dup1\n      swap2\n      pop\n      pop\n      0x01\n      swap1\n      sub\n      swap1\n      0x00\n      mstore\n      keccak256(0x00, 0x20)\n      add\n      0x00\n      swap1\n      swap2\n      swap1\n      swap2\n      swap1\n      swap2\n      pop\n      sstore\n        /* \"ToDoList.sol\":714:864  function addNumber(int number) public { // функция для добавления чисел в массив... */\n      pop\n      jump\t// out\n        /* \"ToDoList.sol\":1065:1227  function addTask(string memory text) public { // функция для добавления новой задачи... */\n    tag_57:\n        /* \"ToDoList.sol\":1190:1195  tasks */\n      0x04\n        /* \"ToDoList.sol\":1201:1218  Task(text, false) */\n      mload(0x40)\n      dup1\n      0x40\n      add\n      0x40\n      mstore\n      dup1\n        /* \"ToDoList.sol\":1206:1210  text */\n      dup4\n        /* \"ToDoList.sol\":1201:1218  Task(text, false) */\n      dup2\n      mstore\n      0x20\n      add\n        /* \"ToDoList.sol\":1212:1217  false */\n      0x00\n        /* \"ToDoList.sol\":1201:1218  Task(text, false) */\n      iszero\n      iszero\n      dup2\n      mstore\n      pop\n        /* \"ToDoList.sol\":1190:1219  tasks.push(Task(text, false)) */\n      swap1\n      dup1\n      0x01\n      dup2\n      sload\n      add\n      dup1\n      dup3\n      sstore\n      dup1\n      swap2\n      pop\n      pop\n      0x01\n      swap1\n      sub\n      swap1\n      0x00\n      mstore\n      keccak256(0x00, 0x20)\n      swap1\n      0x02\n      mul\n      add\n      0x00\n      swap1\n      swap2\n      swap1\n      swap2\n      swap1\n      swap2\n      pop\n      0x00\n      dup3\n      add\n      mload\n      dup2\n      0x00\n      add\n      swap1\n      dup2\n      tag_122\n      swap2\n      swap1\n      tag_123\n      jump\t// in\n    tag_122:\n      pop\n      0x20\n      dup3\n      add\n      mload\n      dup2\n      0x01\n      add\n      exp(0x0100, 0x00)\n      dup2\n      sload\n      dup2\n      0xff\n      mul\n      not\n      and\n      swap1\n      dup4\n      iszero\n      iszero\n      mul\n      or\n      swap1\n      sstore\n      pop\n      pop\n      pop\n        /* \"ToDoList.sol\":1065:1227  function addTask(string memory text) public { // функция для добавления новой задачи... */\n      pop\n      jump\t// out\n        /* \"ToDoList.sol\":371:388  bytes public data */\n    tag_60:\n      0x01\n      dup1\n      sload\n      tag_124\n      swap1\n      tag_102\n      jump\t// in\n    tag_124:\n      dup1\n      0x1f\n      add\n      0x20\n      dup1\n      swap2\n      div\n      mul\n      0x20\n      add\n      mload(0x40)\n      swap1\n      dup2\n      add\n      0x40\n      mstore\n      dup1\n      swap3\n      swap2\n      swap1\n      dup2\n      dup2\n      mstore\n      0x20\n      add\n      dup3\n      dup1\n      sload\n      tag_125\n      swap1\n      tag_102\n      jump\t// in\n    tag_125:\n      dup1\n      iszero\n      tag_126\n      jumpi\n      dup1\n      0x1f\n      lt\n      tag_127\n      jumpi\n      0x0100\n      dup1\n      dup4\n      sload\n      div\n      mul\n      dup4\n      mstore\n      swap2\n      0x20\n      add\n      swap2\n      jump(tag_126)\n    tag_127:\n      dup3\n      add\n      swap2\n      swap1\n      0x00\n      mstore\n      keccak256(0x00, 0x20)\n      swap1\n    tag_128:\n      dup2\n      sload\n      dup2\n      mstore\n      swap1\n      0x01\n      add\n      swap1\n      0x20\n      add\n      dup1\n      dup4\n      gt\n      tag_128\n      jumpi\n      dup3\n      swap1\n      sub\n      0x1f\n      and\n      dup3\n      add\n      swap2\n    tag_126:\n      pop\n      pop\n      pop\n      pop\n      pop\n      dup2\n      jump\t// out\n        /* \"ToDoList.sol\":475:494  Task[] public tasks */\n    tag_66:\n      0x04\n      dup2\n      dup2\n      sload\n      dup2\n      lt\n      tag_129\n      jumpi\n      0x00\n      dup1\n      revert\n    tag_129:\n      swap1\n      0x00\n      mstore\n      keccak256(0x00, 0x20)\n      swap1\n      0x02\n      mul\n      add\n      0x00\n      swap2\n      pop\n      swap1\n      pop\n      dup1\n      0x00\n      add\n      dup1\n      sload\n      tag_131\n      swap1\n      tag_102\n      jump\t// in\n    tag_131:\n      dup1\n      0x1f\n      add\n      0x20\n      dup1\n      swap2\n      div\n      mul\n      0x20\n      add\n      mload(0x40)\n      swap1\n      dup2\n      add\n      0x40\n      mstore\n      dup1\n      swap3\n      swap2\n      swap1\n      dup2\n      dup2\n      mstore\n      0x20\n      add\n      dup3\n      dup1\n      sload\n      tag_132\n      swap1\n      tag_102\n      jump\t// in\n    tag_132:\n      dup1\n      iszero\n      tag_133\n      jumpi\n      dup1\n      0x1f\n      lt\n      tag_134\n      jumpi\n      0x0100\n      dup1\n      dup4\n      sload\n      div\n      mul\n      dup4\n      mstore\n      swap2\n      0x20\n      add\n      swap2\n      jump(tag_133)\n    tag_134:\n      dup3\n      add\n      swap2\n      swap1\n      0x00\n      mstore\n      keccak256(0x00, 0x20)\n      swap1\n    tag_135:\n      dup2\n      sload\n      dup2\n      mstore\n      swap1\n      0x01\n      add\n      swap1\n      0x20\n      add\n      dup1\n      dup4\n      gt\n      tag_135\n      jumpi\n      dup3\n      swap1\n      sub\n      0x1f\n      and\n      dup3\n      add\n      swap2\n    tag_133:\n      pop\n      pop\n      pop\n      pop\n      pop\n      swap1\n      dup1\n      0x01\n      add\n      0x00\n      swap1\n      sload\n      swap1\n      0x0100\n      exp\n      swap1\n      div\n      0xff\n      and\n      swap1\n      pop\n      dup3\n      jump\t// out\n        /* \"ToDoList.sol\":530:706  function setData(bytes memory _data) public { // функция для хранения байтовых данных в переменной data... */\n    tag_72:\n        /* \"ToDoList.sol\":693:698  _data */\n      dup1\n        /* \"ToDoList.sol\":686:690  data */\n      0x01\n        /* \"ToDoList.sol\":686:698  data = _data */\n      swap1\n      dup2\n      tag_137\n      swap2\n      swap1\n      tag_138\n      jump\t// in\n    tag_137:\n      pop\n        /* \"ToDoList.sol\":530:706  function setData(bytes memory _data) public { // функция для хранения байтовых данных в переменной data... */\n      pop\n      jump\t// out\n        /* \"ToDoList.sol\":397:417  int[] public numbers */\n    tag_76:\n      0x02\n      dup2\n      dup2\n      sload\n      dup2\n      lt\n      tag_139\n      jumpi\n      0x00\n      dup1\n      revert\n    tag_139:\n      swap1\n      0x00\n      mstore\n      keccak256(0x00, 0x20)\n      add\n      0x00\n      swap2\n      pop\n      swap1\n      pop\n      sload\n      dup2\n      jump\t// out\n        /* \"ToDoList.sol\":279:306  Status public currentStatus */\n    tag_81:\n      0x00\n      0x00\n      swap1\n      sload\n      swap1\n      0x0100\n      exp\n      swap1\n      div\n      0xff\n      and\n      dup2\n      jump\t// out\n        /* \"ToDoList.sol\":2239:2464  function getBalance(address targetAddress) public view returns(uint) { // функция для просмотра баланса любого контракта по адресу... */\n    tag_88:\n        /* \"ToDoList.sol\":2302:2306  uint */\n      0x00\n        /* \"ToDoList.sol\":2435:2448  targetAddress */\n      dup2\n        /* \"ToDoList.sol\":2435:2456  targetAddress.balance */\n      0xffffffffffffffffffffffffffffffffffffffff\n      and\n      balance\n        /* \"ToDoList.sol\":2428:2456  return targetAddress.balance */\n      swap1\n      pop\n        /* \"ToDoList.sol\":2239:2464  function getBalance(address targetAddress) public view returns(uint) { // функция для просмотра баланса любого контракта по адресу... */\n      swap2\n      swap1\n      pop\n      jump\t// out\n        /* \"ToDoList.sol\":872:1057  function getNumber(uint index) public view returns(int) { // функция для вывода чисел из массива по индексу... */\n    tag_93:\n        /* \"ToDoList.sol\":923:926  int */\n      0x00\n        /* \"ToDoList.sol\":1035:1042  numbers */\n      0x02\n        /* \"ToDoList.sol\":1043:1048  index */\n      dup3\n        /* \"ToDoList.sol\":1035:1049  numbers[index] */\n      dup2\n      sload\n      dup2\n      lt\n      tag_143\n      jumpi\n      tag_144\n      tag_99\n      jump\t// in\n    tag_144:\n    tag_143:\n      swap1\n      0x00\n      mstore\n      keccak256(0x00, 0x20)\n      add\n      sload\n        /* \"ToDoList.sol\":1028:1049  return numbers[index] */\n      swap1\n      pop\n        /* \"ToDoList.sol\":872:1057  function getNumber(uint index) public view returns(int) { // функция для вывода чисел из массива по индексу... */\n      swap2\n      swap1\n      pop\n      jump\t// out\n        /* \"#utility.yul\":7:82   */\n    tag_146:\n        /* \"#utility.yul\":40:46   */\n      0x00\n        /* \"#utility.yul\":73:75   */\n      0x40\n        /* \"#utility.yul\":67:76   */\n      mload\n        /* \"#utility.yul\":57:76   */\n      swap1\n      pop\n        /* \"#utility.yul\":7:82   */\n      swap1\n      jump\t// out\n        /* \"#utility.yul\":88:205   */\n    tag_147:\n        /* \"#utility.yul\":197:198   */\n      0x00\n        /* \"#utility.yul\":194:195   */\n      0x00\n        /* \"#utility.yul\":187:199   */\n      revert\n        /* \"#utility.yul\":211:328   */\n    tag_148:\n        /* \"#utility.yul\":320:321   */\n      0x00\n        /* \"#utility.yul\":317:318   */\n      0x00\n        /* \"#utility.yul\":310:322   */\n      revert\n        /* \"#utility.yul\":334:411   */\n    tag_149:\n        /* \"#utility.yul\":371:378   */\n      0x00\n        /* \"#utility.yul\":400:405   */\n      dup2\n        /* \"#utility.yul\":389:405   */\n      swap1\n      pop\n        /* \"#utility.yul\":334:411   */\n      swap2\n      swap1\n      pop\n      jump\t// out\n        /* \"#utility.yul\":417:539   */\n    tag_150:\n        /* \"#utility.yul\":490:514   */\n      tag_213\n        /* \"#utility.yul\":508:513   */\n      dup2\n        /* \"#utility.yul\":490:514   */\n      tag_149\n      jump\t// in\n    tag_213:\n        /* \"#utility.yul\":483:488   */\n      dup2\n        /* \"#utility.yul\":480:515   */\n      eq\n        /* \"#utility.yul\":470:533   */\n      tag_214\n      jumpi\n        /* \"#utility.yul\":529:530   */\n      0x00\n        /* \"#utility.yul\":526:527   */\n      0x00\n        /* \"#utility.yul\":519:531   */\n      revert\n        /* \"#utility.yul\":470:533   */\n    tag_214:\n        /* \"#utility.yul\":417:539   */\n      pop\n      jump\t// out\n        /* \"#utility.yul\":545:684   */\n    tag_151:\n        /* \"#utility.yul\":591:596   */\n      0x00\n        /* \"#utility.yul\":629:635   */\n      dup2\n        /* \"#utility.yul\":616:636   */\n      calldataload\n        /* \"#utility.yul\":607:636   */\n      swap1\n      pop\n        /* \"#utility.yul\":645:678   */\n      tag_216\n        /* \"#utility.yul\":672:677   */\n      dup2\n        /* \"#utility.yul\":645:678   */\n      tag_150\n      jump\t// in\n    tag_216:\n        /* \"#utility.yul\":545:684   */\n      swap3\n      swap2\n      pop\n      pop\n      jump\t// out\n        /* \"#utility.yul\":690:1019   */\n    tag_25:\n        /* \"#utility.yul\":749:755   */\n      0x00\n        /* \"#utility.yul\":798:800   */\n      0x20\n        /* \"#utility.yul\":786:795   */\n      dup3\n        /* \"#utility.yul\":777:784   */\n      dup5\n        /* \"#utility.yul\":773:796   */\n      sub\n        /* \"#utility.yul\":769:801   */\n      slt\n        /* \"#utility.yul\":766:885   */\n      iszero\n      tag_218\n      jumpi\n        /* \"#utility.yul\":804:883   */\n      tag_219\n      tag_147\n      jump\t// in\n    tag_219:\n        /* \"#utility.yul\":766:885   */\n    tag_218:\n        /* \"#utility.yul\":924:925   */\n      0x00\n        /* \"#utility.yul\":949:1002   */\n      tag_220\n        /* \"#utility.yul\":994:1001   */\n      dup5\n        /* \"#utility.yul\":985:991   */\n      dup3\n        /* \"#utility.yul\":974:983   */\n      dup6\n        /* \"#utility.yul\":970:992   */\n      add\n        /* \"#utility.yul\":949:1002   */\n      tag_151\n      jump\t// in\n    tag_220:\n        /* \"#utility.yul\":939:1002   */\n      swap2\n      pop\n        /* \"#utility.yul\":895:1012   */\n      pop\n        /* \"#utility.yul\":690:1019   */\n      swap3\n      swap2\n      pop\n      pop\n      jump\t// out\n        /* \"#utility.yul\":1025:1124   */\n    tag_152:\n        /* \"#utility.yul\":1077:1083   */\n      0x00\n        /* \"#utility.yul\":1111:1116   */\n      dup2\n        /* \"#utility.yul\":1105:1117   */\n      mload\n        /* \"#utility.yul\":1095:1117   */\n      swap1\n      pop\n        /* \"#utility.yul\":1025:1124   */\n      swap2\n      swap1\n      pop\n      jump\t// out\n        /* \"#utility.yul\":1130:1299   */\n    tag_153:\n        /* \"#utility.yul\":1214:1225   */\n      0x00\n        /* \"#utility.yul\":1248:1254   */\n      dup3\n        /* \"#utility.yul\":1243:1246   */\n      dup3\n        /* \"#utility.yul\":1236:1255   */\n      mstore\n        /* \"#utility.yul\":1288:1292   */\n      0x20\n        /* \"#utility.yul\":1283:1286   */\n      dup3\n        /* \"#utility.yul\":1279:1293   */\n      add\n        /* \"#utility.yul\":1264:1293   */\n      swap1\n      pop\n        /* \"#utility.yul\":1130:1299   */\n      swap3\n      swap2\n      pop\n      pop\n      jump\t// out\n        /* \"#utility.yul\":1305:1444   */\n    tag_154:\n        /* \"#utility.yul\":1394:1400   */\n      dup3\n        /* \"#utility.yul\":1389:1392   */\n      dup2\n        /* \"#utility.yul\":1384:1387   */\n      dup4\n        /* \"#utility.yul\":1378:1401   */\n      mcopy\n        /* \"#utility.yul\":1435:1436   */\n      0x00\n        /* \"#utility.yul\":1426:1432   */\n      dup4\n        /* \"#utility.yul\":1421:1424   */\n      dup4\n        /* \"#utility.yul\":1417:1433   */\n      add\n        /* \"#utility.yul\":1410:1437   */\n      mstore\n        /* \"#utility.yul\":1305:1444   */\n      pop\n      pop\n      pop\n      jump\t// out\n        /* \"#utility.yul\":1450:1552   */\n    tag_155:\n        /* \"#utility.yul\":1491:1497   */\n      0x00\n        /* \"#utility.yul\":1542:1544   */\n      0x1f\n        /* \"#utility.yul\":1538:1545   */\n      not\n        /* \"#utility.yul\":1533:1535   */\n      0x1f\n        /* \"#utility.yul\":1526:1531   */\n      dup4\n        /* \"#utility.yul\":1522:1536   */\n      add\n        /* \"#utility.yul\":1518:1546   */\n      and\n        /* \"#utility.yul\":1508:1546   */\n      swap1\n      pop\n        /* \"#utility.yul\":1450:1552   */\n      swap2\n      swap1\n      pop\n      jump\t// out\n        /* \"#utility.yul\":1558:1935   */\n    tag_156:\n        /* \"#utility.yul\":1646:1649   */\n      0x00\n        /* \"#utility.yul\":1674:1713   */\n      tag_226\n        /* \"#utility.yul\":1707:1712   */\n      dup3\n        /* \"#utility.yul\":1674:1713   */\n      tag_152\n      jump\t// in\n    tag_226:\n        /* \"#utility.yul\":1729:1800   */\n      tag_227\n        /* \"#utility.yul\":1793:1799   */\n      dup2\n        /* \"#utility.yul\":1788:1791   */\n      dup6\n        /* \"#utility.yul\":1729:1800   */\n      tag_153\n      jump\t// in\n    tag_227:\n        /* \"#utility.yul\":1722:1800   */\n      swap4\n      pop\n        /* \"#utility.yul\":1809:1874   */\n      tag_228\n        /* \"#utility.yul\":1867:1873   */\n      dup2\n        /* \"#utility.yul\":1862:1865   */\n      dup6\n        /* \"#utility.yul\":1855:1859   */\n      0x20\n        /* \"#utility.yul\":1848:1853   */\n      dup7\n        /* \"#utility.yul\":1844:1860   */\n      add\n        /* \"#utility.yul\":1809:1874   */\n      tag_154\n      jump\t// in\n    tag_228:\n        /* \"#utility.yul\":1899:1928   */\n      tag_229\n        /* \"#utility.yul\":1921:1927   */\n      dup2\n        /* \"#utility.yul\":1899:1928   */\n      tag_155\n      jump\t// in\n    tag_229:\n        /* \"#utility.yul\":1894:1897   */\n      dup5\n        /* \"#utility.yul\":1890:1929   */\n      add\n        /* \"#utility.yul\":1883:1929   */\n      swap2\n      pop\n        /* \"#utility.yul\":1650:1935   */\n      pop\n        /* \"#utility.yul\":1558:1935   */\n      swap3\n      swap2\n      pop\n      pop\n      jump\t// out\n        /* \"#utility.yul\":1941:2031   */\n    tag_157:\n        /* \"#utility.yul\":1975:1982   */\n      0x00\n        /* \"#utility.yul\":2018:2023   */\n      dup2\n        /* \"#utility.yul\":2011:2024   */\n      iszero\n        /* \"#utility.yul\":2004:2025   */\n      iszero\n        /* \"#utility.yul\":1993:2025   */\n      swap1\n      pop\n        /* \"#utility.yul\":1941:2031   */\n      swap2\n      swap1\n      pop\n      jump\t// out\n        /* \"#utility.yul\":2037:2146   */\n    tag_158:\n        /* \"#utility.yul\":2118:2139   */\n      tag_232\n        /* \"#utility.yul\":2133:2138   */\n      dup2\n        /* \"#utility.yul\":2118:2139   */\n      tag_157\n      jump\t// in\n    tag_232:\n        /* \"#utility.yul\":2113:2116   */\n      dup3\n        /* \"#utility.yul\":2106:2140   */\n      mstore\n        /* \"#utility.yul\":2037:2146   */\n      pop\n      pop\n      jump\t// out\n        /* \"#utility.yul\":2152:2563   */\n    tag_28:\n        /* \"#utility.yul\":2287:2291   */\n      0x00\n        /* \"#utility.yul\":2325:2327   */\n      0x40\n        /* \"#utility.yul\":2314:2323   */\n      dup3\n        /* \"#utility.yul\":2310:2328   */\n      add\n        /* \"#utility.yul\":2302:2328   */\n      swap1\n      pop\n        /* \"#utility.yul\":2374:2383   */\n      dup2\n        /* \"#utility.yul\":2368:2372   */\n      dup2\n        /* \"#utility.yul\":2364:2384   */\n      sub\n        /* \"#utility.yul\":2360:2361   */\n      0x00\n        /* \"#utility.yul\":2349:2358   */\n      dup4\n        /* \"#utility.yul\":2345:2362   */\n      add\n        /* \"#utility.yul\":2338:2385   */\n      mstore\n        /* \"#utility.yul\":2402:2480   */\n      tag_234\n        /* \"#utility.yul\":2475:2479   */\n      dup2\n        /* \"#utility.yul\":2466:2472   */\n      dup6\n        /* \"#utility.yul\":2402:2480   */\n      tag_156\n      jump\t// in\n    tag_234:\n        /* \"#utility.yul\":2394:2480   */\n      swap1\n      pop\n        /* \"#utility.yul\":2490:2556   */\n      tag_235\n        /* \"#utility.yul\":2552:2554   */\n      0x20\n        /* \"#utility.yul\":2541:2550   */\n      dup4\n        /* \"#utility.yul\":2537:2555   */\n      add\n        /* \"#utility.yul\":2528:2534   */\n      dup5\n        /* \"#utility.yul\":2490:2556   */\n      tag_158\n      jump\t// in\n    tag_235:\n        /* \"#utility.yul\":2152:2563   */\n      swap4\n      swap3\n      pop\n      pop\n      pop\n      jump\t// out\n        /* \"#utility.yul\":2569:2695   */\n    tag_159:\n        /* \"#utility.yul\":2606:2613   */\n      0x00\n        /* \"#utility.yul\":2646:2688   */\n      0xffffffffffffffffffffffffffffffffffffffff\n        /* \"#utility.yul\":2639:2644   */\n      dup3\n        /* \"#utility.yul\":2635:2689   */\n      and\n        /* \"#utility.yul\":2624:2689   */\n      swap1\n      pop\n        /* \"#utility.yul\":2569:2695   */\n      swap2\n      swap1\n      pop\n      jump\t// out\n        /* \"#utility.yul\":2701:2797   */\n    tag_160:\n        /* \"#utility.yul\":2738:2745   */\n      0x00\n        /* \"#utility.yul\":2767:2791   */\n      tag_238\n        /* \"#utility.yul\":2785:2790   */\n      dup3\n        /* \"#utility.yul\":2767:2791   */\n      tag_159\n      jump\t// in\n    tag_238:\n        /* \"#utility.yul\":2756:2791   */\n      swap1\n      pop\n        /* \"#utility.yul\":2701:2797   */\n      swap2\n      swap1\n      pop\n      jump\t// out\n        /* \"#utility.yul\":2803:2925   */\n    tag_161:\n        /* \"#utility.yul\":2876:2900   */\n      tag_240\n        /* \"#utility.yul\":2894:2899   */\n      dup2\n        /* \"#utility.yul\":2876:2900   */\n      tag_160\n      jump\t// in\n    tag_240:\n        /* \"#utility.yul\":2869:2874   */\n      dup2\n        /* \"#utility.yul\":2866:2901   */\n      eq\n        /* \"#utility.yul\":2856:2919   */\n      tag_241\n      jumpi\n        /* \"#utility.yul\":2915:2916   */\n      0x00\n        /* \"#utility.yul\":2912:2913   */\n      0x00\n        /* \"#utility.yul\":2905:2917   */\n      revert\n        /* \"#utility.yul\":2856:2919   */\n    tag_241:\n        /* \"#utility.yul\":2803:2925   */\n      pop\n      jump\t// out\n        /* \"#utility.yul\":2931:3070   */\n    tag_162:\n        /* \"#utility.yul\":2977:2982   */\n      0x00\n        /* \"#utility.yul\":3015:3021   */\n      dup2\n        /* \"#utility.yul\":3002:3022   */\n      calldataload\n        /* \"#utility.yul\":2993:3022   */\n      swap1\n      pop\n        /* \"#utility.yul\":3031:3064   */\n      tag_243\n        /* \"#utility.yul\":3058:3063   */\n      dup2\n        /* \"#utility.yul\":3031:3064   */\n      tag_161\n      jump\t// in\n    tag_243:\n        /* \"#utility.yul\":2931:3070   */\n      swap3\n      swap2\n      pop\n      pop\n      jump\t// out\n        /* \"#utility.yul\":3076:3550   */\n    tag_32:\n        /* \"#utility.yul\":3144:3150   */\n      0x00\n        /* \"#utility.yul\":3152:3158   */\n      0x00\n        /* \"#utility.yul\":3201:3203   */\n      0x40\n        /* \"#utility.yul\":3189:3198   */\n      dup4\n        /* \"#utility.yul\":3180:3187   */\n      dup6\n        /* \"#utility.yul\":3176:3199   */\n      sub\n        /* \"#utility.yul\":3172:3204   */\n      slt\n        /* \"#utility.yul\":3169:3288   */\n      iszero\n      tag_245\n      jumpi\n        /* \"#utility.yul\":3207:3286   */\n      tag_246\n      tag_147\n      jump\t// in\n    tag_246:\n        /* \"#utility.yul\":3169:3288   */\n    tag_245:\n        /* \"#utility.yul\":3327:3328   */\n      0x00\n        /* \"#utility.yul\":3352:3405   */\n      tag_247\n        /* \"#utility.yul\":3397:3404   */\n      dup6\n        /* \"#utility.yul\":3388:3394   */\n      dup3\n        /* \"#utility.yul\":3377:3386   */\n      dup7\n        /* \"#utility.yul\":3373:3395   */\n      add\n        /* \"#utility.yul\":3352:3405   */\n      tag_162\n      jump\t// in\n    tag_247:\n        /* \"#utility.yul\":3342:3405   */\n      swap3\n      pop\n        /* \"#utility.yul\":3298:3415   */\n      pop\n        /* \"#utility.yul\":3454:3456   */\n      0x20\n        /* \"#utility.yul\":3480:3533   */\n      tag_248\n        /* \"#utility.yul\":3525:3532   */\n      dup6\n        /* \"#utility.yul\":3516:3522   */\n      dup3\n        /* \"#utility.yul\":3505:3514   */\n      dup7\n        /* \"#utility.yul\":3501:3523   */\n      add\n        /* \"#utility.yul\":3480:3533   */\n      tag_151\n      jump\t// in\n    tag_248:\n        /* \"#utility.yul\":3470:3533   */\n      swap2\n      pop\n        /* \"#utility.yul\":3425:3543   */\n      pop\n        /* \"#utility.yul\":3076:3550   */\n      swap3\n      pop\n      swap3\n      swap1\n      pop\n      jump\t// out\n        /* \"#utility.yul\":3556:3664   */\n    tag_163:\n        /* \"#utility.yul\":3638:3639   */\n      0x03\n        /* \"#utility.yul\":3631:3636   */\n      dup2\n        /* \"#utility.yul\":3628:3640   */\n      lt\n        /* \"#utility.yul\":3618:3658   */\n      tag_250\n      jumpi\n        /* \"#utility.yul\":3654:3655   */\n      0x00\n        /* \"#utility.yul\":3651:3652   */\n      0x00\n        /* \"#utility.yul\":3644:3656   */\n      revert\n        /* \"#utility.yul\":3618:3658   */\n    tag_250:\n        /* \"#utility.yul\":3556:3664   */\n      pop\n      jump\t// out\n        /* \"#utility.yul\":3670:3827   */\n    tag_164:\n        /* \"#utility.yul\":3725:3730   */\n      0x00\n        /* \"#utility.yul\":3763:3769   */\n      dup2\n        /* \"#utility.yul\":3750:3770   */\n      calldataload\n        /* \"#utility.yul\":3741:3770   */\n      swap1\n      pop\n        /* \"#utility.yul\":3779:3821   */\n      tag_252\n        /* \"#utility.yul\":3815:3820   */\n      dup2\n        /* \"#utility.yul\":3779:3821   */\n      tag_163\n      jump\t// in\n    tag_252:\n        /* \"#utility.yul\":3670:3827   */\n      swap3\n      swap2\n      pop\n      pop\n      jump\t// out\n        /* \"#utility.yul\":3833:4180   */\n    tag_37:\n        /* \"#utility.yul\":3901:3907   */\n      0x00\n        /* \"#utility.yul\":3950:3952   */\n      0x20\n        /* \"#utility.yul\":3938:3947   */\n      dup3\n        /* \"#utility.yul\":3929:3936   */\n      dup5\n        /* \"#utility.yul\":3925:3948   */\n      sub\n        /* \"#utility.yul\":3921:3953   */\n      slt\n        /* \"#utility.yul\":3918:4037   */\n      iszero\n      tag_254\n      jumpi\n        /* \"#utility.yul\":3956:4035   */\n      tag_255\n      tag_147\n      jump\t// in\n    tag_255:\n        /* \"#utility.yul\":3918:4037   */\n    tag_254:\n        /* \"#utility.yul\":4076:4077   */\n      0x00\n        /* \"#utility.yul\":4101:4163   */\n      tag_256\n        /* \"#utility.yul\":4155:4162   */\n      dup5\n        /* \"#utility.yul\":4146:4152   */\n      dup3\n        /* \"#utility.yul\":4135:4144   */\n      dup6\n        /* \"#utility.yul\":4131:4153   */\n      add\n        /* \"#utility.yul\":4101:4163   */\n      tag_164\n      jump\t// in\n    tag_256:\n        /* \"#utility.yul\":4091:4163   */\n      swap2\n      pop\n        /* \"#utility.yul\":4047:4173   */\n      pop\n        /* \"#utility.yul\":3833:4180   */\n      swap3\n      swap2\n      pop\n      pop\n      jump\t// out\n        /* \"#utility.yul\":4186:4304   */\n    tag_165:\n        /* \"#utility.yul\":4273:4297   */\n      tag_258\n        /* \"#utility.yul\":4291:4296   */\n      dup2\n        /* \"#utility.yul\":4273:4297   */\n      tag_149\n      jump\t// in\n    tag_258:\n        /* \"#utility.yul\":4268:4271   */\n      dup3\n        /* \"#utility.yul\":4261:4298   */\n      mstore\n        /* \"#utility.yul\":4186:4304   */\n      pop\n      pop\n      jump\t// out\n        /* \"#utility.yul\":4310:4532   */\n    tag_47:\n        /* \"#utility.yul\":4403:4407   */\n      0x00\n        /* \"#utility.yul\":4441:4443   */\n      0x20\n        /* \"#utility.yul\":4430:4439   */\n      dup3\n        /* \"#utility.yul\":4426:4444   */\n      add\n        /* \"#utility.yul\":4418:4444   */\n      swap1\n      pop\n        /* \"#utility.yul\":4454:4525   */\n      tag_260\n        /* \"#utility.yul\":4522:4523   */\n      0x00\n        /* \"#utility.yul\":4511:4520   */\n      dup4\n        /* \"#utility.yul\":4507:4524   */\n      add\n        /* \"#utility.yul\":4498:4504   */\n      dup5\n        /* \"#utility.yul\":4454:4525   */\n      tag_165\n      jump\t// in\n    tag_260:\n        /* \"#utility.yul\":4310:4532   */\n      swap3\n      swap2\n      pop\n      pop\n      jump\t// out\n        /* \"#utility.yul\":4538:4614   */\n    tag_166:\n        /* \"#utility.yul\":4574:4581   */\n      0x00\n        /* \"#utility.yul\":4603:4608   */\n      dup2\n        /* \"#utility.yul\":4592:4608   */\n      swap1\n      pop\n        /* \"#utility.yul\":4538:4614   */\n      swap2\n      swap1\n      pop\n      jump\t// out\n        /* \"#utility.yul\":4620:4740   */\n    tag_167:\n        /* \"#utility.yul\":4692:4715   */\n      tag_263\n        /* \"#utility.yul\":4709:4714   */\n      dup2\n        /* \"#utility.yul\":4692:4715   */\n      tag_166\n      jump\t// in\n    tag_263:\n        /* \"#utility.yul\":4685:4690   */\n      dup2\n        /* \"#utility.yul\":4682:4716   */\n      eq\n        /* \"#utility.yul\":4672:4734   */\n      tag_264\n      jumpi\n        /* \"#utility.yul\":4730:4731   */\n      0x00\n        /* \"#utility.yul\":4727:4728   */\n      0x00\n        /* \"#utility.yul\":4720:4732   */\n      revert\n        /* \"#utility.yul\":4672:4734   */\n    tag_264:\n        /* \"#utility.yul\":4620:4740   */\n      pop\n      jump\t// out\n        /* \"#utility.yul\":4746:4883   */\n    tag_168:\n        /* \"#utility.yul\":4791:4796   */\n      0x00\n        /* \"#utility.yul\":4829:4835   */\n      dup2\n        /* \"#utility.yul\":4816:4836   */\n      calldataload\n        /* \"#utility.yul\":4807:4836   */\n      swap1\n      pop\n        /* \"#utility.yul\":4845:4877   */\n      tag_266\n        /* \"#utility.yul\":4871:4876   */\n      dup2\n        /* \"#utility.yul\":4845:4877   */\n      tag_167\n      jump\t// in\n    tag_266:\n        /* \"#utility.yul\":4746:4883   */\n      swap3\n      swap2\n      pop\n      pop\n      jump\t// out\n        /* \"#utility.yul\":4889:5216   */\n    tag_51:\n        /* \"#utility.yul\":4947:4953   */\n      0x00\n        /* \"#utility.yul\":4996:4998   */\n      0x20\n        /* \"#utility.yul\":4984:4993   */\n      dup3\n        /* \"#utility.yul\":4975:4982   */\n      dup5\n        /* \"#utility.yul\":4971:4994   */\n      sub\n        /* \"#utility.yul\":4967:4999   */\n      slt\n        /* \"#utility.yul\":4964:5083   */\n      iszero\n      tag_268\n      jumpi\n        /* \"#utility.yul\":5002:5081   */\n      tag_269\n      tag_147\n      jump\t// in\n    tag_269:\n        /* \"#utility.yul\":4964:5083   */\n    tag_268:\n        /* \"#utility.yul\":5122:5123   */\n      0x00\n        /* \"#utility.yul\":5147:5199   */\n      tag_270\n        /* \"#utility.yul\":5191:5198   */\n      dup5\n        /* \"#utility.yul\":5182:5188   */\n      dup3\n        /* \"#utility.yul\":5171:5180   */\n      dup6\n        /* \"#utility.yul\":5167:5189   */\n      add\n        /* \"#utility.yul\":5147:5199   */\n      tag_168\n      jump\t// in\n    tag_270:\n        /* \"#utility.yul\":5137:5199   */\n      swap2\n      pop\n        /* \"#utility.yul\":5093:5209   */\n      pop\n        /* \"#utility.yul\":4889:5216   */\n      swap3\n      swap2\n      pop\n      pop\n      jump\t// out\n        /* \"#utility.yul\":5222:5339   */\n    tag_169:\n        /* \"#utility.yul\":5331:5332   */\n      0x00\n        /* \"#utility.yul\":5328:5329   */\n      0x00\n        /* \"#utility.yul\":5321:5333   */\n      revert\n        /* \"#utility.yul\":5345:5462   */\n    tag_170:\n        /* \"#utility.yul\":5454:5455   */\n      0x00\n        /* \"#utility.yul\":5451:5452   */\n      0x00\n        /* \"#utility.yul\":5444:5456   */\n      revert\n        /* \"#utility.yul\":5468:5648   */\n    tag_171:\n        /* \"#utility.yul\":5516:5593   */\n      0x4e487b7100000000000000000000000000000000000000000000000000000000\n        /* \"#utility.yul\":5513:5514   */\n      0x00\n        /* \"#utility.yul\":5506:5594   */\n      mstore\n        /* \"#utility.yul\":5613:5617   */\n      0x41\n        /* \"#utility.yul\":5610:5611   */\n      0x04\n        /* \"#utility.yul\":5603:5618   */\n      mstore\n        /* \"#utility.yul\":5637:5641   */\n      0x24\n        /* \"#utility.yul\":5634:5635   */\n      0x00\n        /* \"#utility.yul\":5627:5642   */\n      revert\n        /* \"#utility.yul\":5654:5935   */\n    tag_172:\n        /* \"#utility.yul\":5737:5764   */\n      tag_275\n        /* \"#utility.yul\":5759:5763   */\n      dup3\n        /* \"#utility.yul\":5737:5764   */\n      tag_155\n      jump\t// in\n    tag_275:\n        /* \"#utility.yul\":5729:5735   */\n      dup2\n        /* \"#utility.yul\":5725:5765   */\n      add\n        /* \"#utility.yul\":5867:5873   */\n      dup2\n        /* \"#utility.yul\":5855:5865   */\n      dup2\n        /* \"#utility.yul\":5852:5874   */\n      lt\n        /* \"#utility.yul\":5831:5849   */\n      0xffffffffffffffff\n        /* \"#utility.yul\":5819:5829   */\n      dup3\n        /* \"#utility.yul\":5816:5850   */\n      gt\n        /* \"#utility.yul\":5813:5875   */\n      or\n        /* \"#utility.yul\":5810:5898   */\n      iszero\n      tag_276\n      jumpi\n        /* \"#utility.yul\":5878:5896   */\n      tag_277\n      tag_171\n      jump\t// in\n    tag_277:\n        /* \"#utility.yul\":5810:5898   */\n    tag_276:\n        /* \"#utility.yul\":5918:5928   */\n      dup1\n        /* \"#utility.yul\":5914:5916   */\n      0x40\n        /* \"#utility.yul\":5907:5929   */\n      mstore\n        /* \"#utility.yul\":5697:5935   */\n      pop\n        /* \"#utility.yul\":5654:5935   */\n      pop\n      pop\n      jump\t// out\n        /* \"#utility.yul\":5941:6070   */\n    tag_173:\n        /* \"#utility.yul\":5975:5981   */\n      0x00\n        /* \"#utility.yul\":6002:6022   */\n      tag_279\n      tag_146\n      jump\t// in\n    tag_279:\n        /* \"#utility.yul\":5992:6022   */\n      swap1\n      pop\n        /* \"#utility.yul\":6031:6064   */\n      tag_280\n        /* \"#utility.yul\":6059:6063   */\n      dup3\n        /* \"#utility.yul\":6051:6057   */\n      dup3\n        /* \"#utility.yul\":6031:6064   */\n      tag_172\n      jump\t// in\n    tag_280:\n        /* \"#utility.yul\":5941:6070   */\n      swap2\n      swap1\n      pop\n      jump\t// out\n        /* \"#utility.yul\":6076:6384   */\n    tag_174:\n        /* \"#utility.yul\":6138:6142   */\n      0x00\n        /* \"#utility.yul\":6228:6246   */\n      0xffffffffffffffff\n        /* \"#utility.yul\":6220:6226   */\n      dup3\n        /* \"#utility.yul\":6217:6247   */\n      gt\n        /* \"#utility.yul\":6214:6270   */\n      iszero\n      tag_282\n      jumpi\n        /* \"#utility.yul\":6250:6268   */\n      tag_283\n      tag_171\n      jump\t// in\n    tag_283:\n        /* \"#utility.yul\":6214:6270   */\n    tag_282:\n        /* \"#utility.yul\":6288:6317   */\n      tag_284\n        /* \"#utility.yul\":6310:6316   */\n      dup3\n        /* \"#utility.yul\":6288:6317   */\n      tag_155\n      jump\t// in\n    tag_284:\n        /* \"#utility.yul\":6280:6317   */\n      swap1\n      pop\n        /* \"#utility.yul\":6372:6376   */\n      0x20\n        /* \"#utility.yul\":6366:6370   */\n      dup2\n        /* \"#utility.yul\":6362:6377   */\n      add\n        /* \"#utility.yul\":6354:6377   */\n      swap1\n      pop\n        /* \"#utility.yul\":6076:6384   */\n      swap2\n      swap1\n      pop\n      jump\t// out\n        /* \"#utility.yul\":6390:6538   */\n    tag_175:\n        /* \"#utility.yul\":6488:6494   */\n      dup3\n        /* \"#utility.yul\":6483:6486   */\n      dup2\n        /* \"#utility.yul\":6478:6481   */\n      dup4\n        /* \"#utility.yul\":6465:6495   */\n      calldatacopy\n        /* \"#utility.yul\":6529:6530   */\n      0x00\n        /* \"#utility.yul\":6520:6526   */\n      dup4\n        /* \"#utility.yul\":6515:6518   */\n      dup4\n        /* \"#utility.yul\":6511:6527   */\n      add\n        /* \"#utility.yul\":6504:6531   */\n      mstore\n        /* \"#utility.yul\":6390:6538   */\n      pop\n      pop\n      pop\n      jump\t// out\n        /* \"#utility.yul\":6544:6969   */\n    tag_176:\n        /* \"#utility.yul\":6622:6627   */\n      0x00\n        /* \"#utility.yul\":6647:6713   */\n      tag_287\n        /* \"#utility.yul\":6663:6712   */\n      tag_288\n        /* \"#utility.yul\":6705:6711   */\n      dup5\n        /* \"#utility.yul\":6663:6712   */\n      tag_174\n      jump\t// in\n    tag_288:\n        /* \"#utility.yul\":6647:6713   */\n      tag_173\n      jump\t// in\n    tag_287:\n        /* \"#utility.yul\":6638:6713   */\n      swap1\n      pop\n        /* \"#utility.yul\":6736:6742   */\n      dup3\n        /* \"#utility.yul\":6729:6734   */\n      dup2\n        /* \"#utility.yul\":6722:6743   */\n      mstore\n        /* \"#utility.yul\":6774:6778   */\n      0x20\n        /* \"#utility.yul\":6767:6772   */\n      dup2\n        /* \"#utility.yul\":6763:6779   */\n      add\n        /* \"#utility.yul\":6812:6815   */\n      dup5\n        /* \"#utility.yul\":6803:6809   */\n      dup5\n        /* \"#utility.yul\":6798:6801   */\n      dup5\n        /* \"#utility.yul\":6794:6810   */\n      add\n        /* \"#utility.yul\":6791:6816   */\n      gt\n        /* \"#utility.yul\":6788:6900   */\n      iszero\n      tag_289\n      jumpi\n        /* \"#utility.yul\":6819:6898   */\n      tag_290\n      tag_170\n      jump\t// in\n    tag_290:\n        /* \"#utility.yul\":6788:6900   */\n    tag_289:\n        /* \"#utility.yul\":6909:6963   */\n      tag_291\n        /* \"#utility.yul\":6956:6962   */\n      dup5\n        /* \"#utility.yul\":6951:6954   */\n      dup3\n        /* \"#utility.yul\":6946:6949   */\n      dup6\n        /* \"#utility.yul\":6909:6963   */\n      tag_175\n      jump\t// in\n    tag_291:\n        /* \"#utility.yul\":6628:6969   */\n      pop\n        /* \"#utility.yul\":6544:6969   */\n      swap4\n      swap3\n      pop\n      pop\n      pop\n      jump\t// out\n        /* \"#utility.yul\":6989:7329   */\n    tag_177:\n        /* \"#utility.yul\":7045:7050   */\n      0x00\n        /* \"#utility.yul\":7094:7097   */\n      dup3\n        /* \"#utility.yul\":7087:7091   */\n      0x1f\n        /* \"#utility.yul\":7079:7085   */\n      dup4\n        /* \"#utility.yul\":7075:7092   */\n      add\n        /* \"#utility.yul\":7071:7098   */\n      slt\n        /* \"#utility.yul\":7061:7183   */\n      tag_293\n      jumpi\n        /* \"#utility.yul\":7102:7181   */\n      tag_294\n      tag_169\n      jump\t// in\n    tag_294:\n        /* \"#utility.yul\":7061:7183   */\n    tag_293:\n        /* \"#utility.yul\":7219:7225   */\n      dup2\n        /* \"#utility.yul\":7206:7226   */\n      calldataload\n        /* \"#utility.yul\":7244:7323   */\n      tag_295\n        /* \"#utility.yul\":7319:7322   */\n      dup5\n        /* \"#utility.yul\":7311:7317   */\n      dup3\n        /* \"#utility.yul\":7304:7308   */\n      0x20\n        /* \"#utility.yul\":7296:7302   */\n      dup7\n        /* \"#utility.yul\":7292:7309   */\n      add\n        /* \"#utility.yul\":7244:7323   */\n      tag_176\n      jump\t// in\n    tag_295:\n        /* \"#utility.yul\":7235:7323   */\n      swap2\n      pop\n        /* \"#utility.yul\":7051:7329   */\n      pop\n        /* \"#utility.yul\":6989:7329   */\n      swap3\n      swap2\n      pop\n      pop\n      jump\t// out\n        /* \"#utility.yul\":7335:7844   */\n    tag_56:\n        /* \"#utility.yul\":7404:7410   */\n      0x00\n        /* \"#utility.yul\":7453:7455   */\n      0x20\n        /* \"#utility.yul\":7441:7450   */\n      dup3\n        /* \"#utility.yul\":7432:7439   */\n      dup5\n        /* \"#utility.yul\":7428:7451   */\n      sub\n        /* \"#utility.yul\":7424:7456   */\n      slt\n        /* \"#utility.yul\":7421:7540   */\n      iszero\n      tag_297\n      jumpi\n        /* \"#utility.yul\":7459:7538   */\n      tag_298\n      tag_147\n      jump\t// in\n    tag_298:\n        /* \"#utility.yul\":7421:7540   */\n    tag_297:\n        /* \"#utility.yul\":7607:7608   */\n      0x00\n        /* \"#utility.yul\":7596:7605   */\n      dup3\n        /* \"#utility.yul\":7592:7609   */\n      add\n        /* \"#utility.yul\":7579:7610   */\n      calldataload\n        /* \"#utility.yul\":7637:7655   */\n      0xffffffffffffffff\n        /* \"#utility.yul\":7629:7635   */\n      dup2\n        /* \"#utility.yul\":7626:7656   */\n      gt\n        /* \"#utility.yul\":7623:7740   */\n      iszero\n      tag_299\n      jumpi\n        /* \"#utility.yul\":7659:7738   */\n      tag_300\n      tag_148\n      jump\t// in\n    tag_300:\n        /* \"#utility.yul\":7623:7740   */\n    tag_299:\n        /* \"#utility.yul\":7764:7827   */\n      tag_301\n        /* \"#utility.yul\":7819:7826   */\n      dup5\n        /* \"#utility.yul\":7810:7816   */\n      dup3\n        /* \"#utility.yul\":7799:7808   */\n      dup6\n        /* \"#utility.yul\":7795:7817   */\n      add\n        /* \"#utility.yul\":7764:7827   */\n      tag_177\n      jump\t// in\n    tag_301:\n        /* \"#utility.yul\":7754:7827   */\n      swap2\n      pop\n        /* \"#utility.yul\":7550:7837   */\n      pop\n        /* \"#utility.yul\":7335:7844   */\n      swap3\n      swap2\n      pop\n      pop\n      jump\t// out\n        /* \"#utility.yul\":7850:7948   */\n    tag_178:\n        /* \"#utility.yul\":7901:7907   */\n      0x00\n        /* \"#utility.yul\":7935:7940   */\n      dup2\n        /* \"#utility.yul\":7929:7941   */\n      mload\n        /* \"#utility.yul\":7919:7941   */\n      swap1\n      pop\n        /* \"#utility.yul\":7850:7948   */\n      swap2\n      swap1\n      pop\n      jump\t// out\n        /* \"#utility.yul\":7954:8122   */\n    tag_179:\n        /* \"#utility.yul\":8037:8048   */\n      0x00\n        /* \"#utility.yul\":8071:8077   */\n      dup3\n        /* \"#utility.yul\":8066:8069   */\n      dup3\n        /* \"#utility.yul\":8059:8078   */\n      mstore\n        /* \"#utility.yul\":8111:8115   */\n      0x20\n        /* \"#utility.yul\":8106:8109   */\n      dup3\n        /* \"#utility.yul\":8102:8116   */\n      add\n        /* \"#utility.yul\":8087:8116   */\n      swap1\n      pop\n        /* \"#utility.yul\":7954:8122   */\n      swap3\n      swap2\n      pop\n      pop\n      jump\t// out\n        /* \"#utility.yul\":8128:8501   */\n    tag_180:\n        /* \"#utility.yul\":8214:8217   */\n      0x00\n        /* \"#utility.yul\":8242:8280   */\n      tag_305\n        /* \"#utility.yul\":8274:8279   */\n      dup3\n        /* \"#utility.yul\":8242:8280   */\n      tag_178\n      jump\t// in\n    tag_305:\n        /* \"#utility.yul\":8296:8366   */\n      tag_306\n        /* \"#utility.yul\":8359:8365   */\n      dup2\n        /* \"#utility.yul\":8354:8357   */\n      dup6\n        /* \"#utility.yul\":8296:8366   */\n      tag_179\n      jump\t// in\n    tag_306:\n        /* \"#utility.yul\":8289:8366   */\n      swap4\n      pop\n        /* \"#utility.yul\":8375:8440   */\n      tag_307\n        /* \"#utility.yul\":8433:8439   */\n      dup2\n        /* \"#utility.yul\":8428:8431   */\n      dup6\n        /* \"#utility.yul\":8421:8425   */\n      0x20\n        /* \"#utility.yul\":8414:8419   */\n      dup7\n        /* \"#utility.yul\":8410:8426   */\n      add\n        /* \"#utility.yul\":8375:8440   */\n      tag_154\n      jump\t// in\n    tag_307:\n        /* \"#utility.yul\":8465:8494   */\n      tag_308\n        /* \"#utility.yul\":8487:8493   */\n      dup2\n        /* \"#utility.yul\":8465:8494   */\n      tag_155\n      jump\t// in\n    tag_308:\n        /* \"#utility.yul\":8460:8463   */\n      dup5\n        /* \"#utility.yul\":8456:8495   */\n      add\n        /* \"#utility.yul\":8449:8495   */\n      swap2\n      pop\n        /* \"#utility.yul\":8218:8501   */\n      pop\n        /* \"#utility.yul\":8128:8501   */\n      swap3\n      swap2\n      pop\n      pop\n      jump\t// out\n        /* \"#utility.yul\":8507:8816   */\n    tag_62:\n        /* \"#utility.yul\":8618:8622   */\n      0x00\n        /* \"#utility.yul\":8656:8658   */\n      0x20\n        /* \"#utility.yul\":8645:8654   */\n      dup3\n        /* \"#utility.yul\":8641:8659   */\n      add\n        /* \"#utility.yul\":8633:8659   */\n      swap1\n      pop\n        /* \"#utility.yul\":8705:8714   */\n      dup2\n        /* \"#utility.yul\":8699:8703   */\n      dup2\n        /* \"#utility.yul\":8695:8715   */\n      sub\n        /* \"#utility.yul\":8691:8692   */\n      0x00\n        /* \"#utility.yul\":8680:8689   */\n      dup4\n        /* \"#utility.yul\":8676:8693   */\n      add\n        /* \"#utility.yul\":8669:8716   */\n      mstore\n        /* \"#utility.yul\":8733:8809   */\n      tag_310\n        /* \"#utility.yul\":8804:8808   */\n      dup2\n        /* \"#utility.yul\":8795:8801   */\n      dup5\n        /* \"#utility.yul\":8733:8809   */\n      tag_180\n      jump\t// in\n    tag_310:\n        /* \"#utility.yul\":8725:8809   */\n      swap1\n      pop\n        /* \"#utility.yul\":8507:8816   */\n      swap3\n      swap2\n      pop\n      pop\n      jump\t// out\n        /* \"#utility.yul\":8822:9129   */\n    tag_181:\n        /* \"#utility.yul\":8883:8887   */\n      0x00\n        /* \"#utility.yul\":8973:8991   */\n      0xffffffffffffffff\n        /* \"#utility.yul\":8965:8971   */\n      dup3\n        /* \"#utility.yul\":8962:8992   */\n      gt\n        /* \"#utility.yul\":8959:9015   */\n      iszero\n      tag_312\n      jumpi\n        /* \"#utility.yul\":8995:9013   */\n      tag_313\n      tag_171\n      jump\t// in\n    tag_313:\n        /* \"#utility.yul\":8959:9015   */\n    tag_312:\n        /* \"#utility.yul\":9033:9062   */\n      tag_314\n        /* \"#utility.yul\":9055:9061   */\n      dup3\n        /* \"#utility.yul\":9033:9062   */\n      tag_155\n      jump\t// in\n    tag_314:\n        /* \"#utility.yul\":9025:9062   */\n      swap1\n      pop\n        /* \"#utility.yul\":9117:9121   */\n      0x20\n        /* \"#utility.yul\":9111:9115   */\n      dup2\n        /* \"#utility.yul\":9107:9122   */\n      add\n        /* \"#utility.yul\":9099:9122   */\n      swap1\n      pop\n        /* \"#utility.yul\":8822:9129   */\n      swap2\n      swap1\n      pop\n      jump\t// out\n        /* \"#utility.yul\":9135:9558   */\n    tag_182:\n        /* \"#utility.yul\":9212:9217   */\n      0x00\n        /* \"#utility.yul\":9237:9302   */\n      tag_316\n        /* \"#utility.yul\":9253:9301   */\n      tag_317\n        /* \"#utility.yul\":9294:9300   */\n      dup5\n        /* \"#utility.yul\":9253:9301   */\n      tag_181\n      jump\t// in\n    tag_317:\n        /* \"#utility.yul\":9237:9302   */\n      tag_173\n      jump\t// in\n    tag_316:\n        /* \"#utility.yul\":9228:9302   */\n      swap1\n      pop\n        /* \"#utility.yul\":9325:9331   */\n      dup3\n        /* \"#utility.yul\":9318:9323   */\n      dup2\n        /* \"#utility.yul\":9311:9332   */\n      mstore\n        /* \"#utility.yul\":9363:9367   */\n      0x20\n        /* \"#utility.yul\":9356:9361   */\n      dup2\n        /* \"#utility.yul\":9352:9368   */\n      add\n        /* \"#utility.yul\":9401:9404   */\n      dup5\n        /* \"#utility.yul\":9392:9398   */\n      dup5\n        /* \"#utility.yul\":9387:9390   */\n      dup5\n        /* \"#utility.yul\":9383:9399   */\n      add\n        /* \"#utility.yul\":9380:9405   */\n      gt\n        /* \"#utility.yul\":9377:9489   */\n      iszero\n      tag_318\n      jumpi\n        /* \"#utility.yul\":9408:9487   */\n      tag_319\n      tag_170\n      jump\t// in\n    tag_319:\n        /* \"#utility.yul\":9377:9489   */\n    tag_318:\n        /* \"#utility.yul\":9498:9552   */\n      tag_320\n        /* \"#utility.yul\":9545:9551   */\n      dup5\n        /* \"#utility.yul\":9540:9543   */\n      dup3\n        /* \"#utility.yul\":9535:9538   */\n      dup6\n        /* \"#utility.yul\":9498:9552   */\n      tag_175\n      jump\t// in\n    tag_320:\n        /* \"#utility.yul\":9218:9558   */\n      pop\n        /* \"#utility.yul\":9135:9558   */\n      swap4\n      swap3\n      pop\n      pop\n      pop\n      jump\t// out\n        /* \"#utility.yul\":9577:9915   */\n    tag_183:\n        /* \"#utility.yul\":9632:9637   */\n      0x00\n        /* \"#utility.yul\":9681:9684   */\n      dup3\n        /* \"#utility.yul\":9674:9678   */\n      0x1f\n        /* \"#utility.yul\":9666:9672   */\n      dup4\n        /* \"#utility.yul\":9662:9679   */\n      add\n        /* \"#utility.yul\":9658:9685   */\n      slt\n        /* \"#utility.yul\":9648:9770   */\n      tag_322\n      jumpi\n        /* \"#utility.yul\":9689:9768   */\n      tag_323\n      tag_169\n      jump\t// in\n    tag_323:\n        /* \"#utility.yul\":9648:9770   */\n    tag_322:\n        /* \"#utility.yul\":9806:9812   */\n      dup2\n        /* \"#utility.yul\":9793:9813   */\n      calldataload\n        /* \"#utility.yul\":9831:9909   */\n      tag_324\n        /* \"#utility.yul\":9905:9908   */\n      dup5\n        /* \"#utility.yul\":9897:9903   */\n      dup3\n        /* \"#utility.yul\":9890:9894   */\n      0x20\n        /* \"#utility.yul\":9882:9888   */\n      dup7\n        /* \"#utility.yul\":9878:9895   */\n      add\n        /* \"#utility.yul\":9831:9909   */\n      tag_182\n      jump\t// in\n    tag_324:\n        /* \"#utility.yul\":9822:9909   */\n      swap2\n      pop\n        /* \"#utility.yul\":9638:9915   */\n      pop\n        /* \"#utility.yul\":9577:9915   */\n      swap3\n      swap2\n      pop\n      pop\n      jump\t// out\n        /* \"#utility.yul\":9921:10428   */\n    tag_71:\n        /* \"#utility.yul\":9989:9995   */\n      0x00\n        /* \"#utility.yul\":10038:10040   */\n      0x20\n        /* \"#utility.yul\":10026:10035   */\n      dup3\n        /* \"#utility.yul\":10017:10024   */\n      dup5\n        /* \"#utility.yul\":10013:10036   */\n      sub\n        /* \"#utility.yul\":10009:10041   */\n      slt\n        /* \"#utility.yul\":10006:10125   */\n      iszero\n      tag_326\n      jumpi\n        /* \"#utility.yul\":10044:10123   */\n      tag_327\n      tag_147\n      jump\t// in\n    tag_327:\n        /* \"#utility.yul\":10006:10125   */\n    tag_326:\n        /* \"#utility.yul\":10192:10193   */\n      0x00\n        /* \"#utility.yul\":10181:10190   */\n      dup3\n        /* \"#utility.yul\":10177:10194   */\n      add\n        /* \"#utility.yul\":10164:10195   */\n      calldataload\n        /* \"#utility.yul\":10222:10240   */\n      0xffffffffffffffff\n        /* \"#utility.yul\":10214:10220   */\n      dup2\n        /* \"#utility.yul\":10211:10241   */\n      gt\n        /* \"#utility.yul\":10208:10325   */\n      iszero\n      tag_328\n      jumpi\n        /* \"#utility.yul\":10244:10323   */\n      tag_329\n      tag_148\n      jump\t// in\n    tag_329:\n        /* \"#utility.yul\":10208:10325   */\n    tag_328:\n        /* \"#utility.yul\":10349:10411   */\n      tag_330\n        /* \"#utility.yul\":10403:10410   */\n      dup5\n        /* \"#utility.yul\":10394:10400   */\n      dup3\n        /* \"#utility.yul\":10383:10392   */\n      dup6\n        /* \"#utility.yul\":10379:10401   */\n      add\n        /* \"#utility.yul\":10349:10411   */\n      tag_183\n      jump\t// in\n    tag_330:\n        /* \"#utility.yul\":10339:10411   */\n      swap2\n      pop\n        /* \"#utility.yul\":10135:10421   */\n      pop\n        /* \"#utility.yul\":9921:10428   */\n      swap3\n      swap2\n      pop\n      pop\n      jump\t// out\n        /* \"#utility.yul\":10434:10549   */\n    tag_184:\n        /* \"#utility.yul\":10519:10542   */\n      tag_332\n        /* \"#utility.yul\":10536:10541   */\n      dup2\n        /* \"#utility.yul\":10519:10542   */\n      tag_166\n      jump\t// in\n    tag_332:\n        /* \"#utility.yul\":10514:10517   */\n      dup3\n        /* \"#utility.yul\":10507:10543   */\n      mstore\n        /* \"#utility.yul\":10434:10549   */\n      pop\n      pop\n      jump\t// out\n        /* \"#utility.yul\":10555:10773   */\n    tag_78:\n        /* \"#utility.yul\":10646:10650   */\n      0x00\n        /* \"#utility.yul\":10684:10686   */\n      0x20\n        /* \"#utility.yul\":10673:10682   */\n      dup3\n        /* \"#utility.yul\":10669:10687   */\n      add\n        /* \"#utility.yul\":10661:10687   */\n      swap1\n      pop\n        /* \"#utility.yul\":10697:10766   */\n      tag_334\n        /* \"#utility.yul\":10763:10764   */\n      0x00\n        /* \"#utility.yul\":10752:10761   */\n      dup4\n        /* \"#utility.yul\":10748:10765   */\n      add\n        /* \"#utility.yul\":10739:10745   */\n      dup5\n        /* \"#utility.yul\":10697:10766   */\n      tag_184\n      jump\t// in\n    tag_334:\n        /* \"#utility.yul\":10555:10773   */\n      swap3\n      swap2\n      pop\n      pop\n      jump\t// out\n        /* \"#utility.yul\":10779:10959   */\n    tag_113:\n        /* \"#utility.yul\":10827:10904   */\n      0x4e487b7100000000000000000000000000000000000000000000000000000000\n        /* \"#utility.yul\":10824:10825   */\n      0x00\n        /* \"#utility.yul\":10817:10905   */\n      mstore\n        /* \"#utility.yul\":10924:10928   */\n      0x21\n        /* \"#utility.yul\":10921:10922   */\n      0x04\n        /* \"#utility.yul\":10914:10929   */\n      mstore\n        /* \"#utility.yul\":10948:10952   */\n      0x24\n        /* \"#utility.yul\":10945:10946   */\n      0x00\n        /* \"#utility.yul\":10938:10953   */\n      revert\n        /* \"#utility.yul\":10965:11079   */\n    tag_185:\n        /* \"#utility.yul\":11047:11048   */\n      0x03\n        /* \"#utility.yul\":11040:11045   */\n      dup2\n        /* \"#utility.yul\":11037:11049   */\n      lt\n        /* \"#utility.yul\":11027:11073   */\n      tag_337\n      jumpi\n        /* \"#utility.yul\":11053:11071   */\n      tag_338\n      tag_113\n      jump\t// in\n    tag_338:\n        /* \"#utility.yul\":11027:11073   */\n    tag_337:\n        /* \"#utility.yul\":10965:11079   */\n      pop\n      jump\t// out\n        /* \"#utility.yul\":11085:11214   */\n    tag_186:\n        /* \"#utility.yul\":11131:11138   */\n      0x00\n        /* \"#utility.yul\":11160:11165   */\n      dup2\n        /* \"#utility.yul\":11149:11165   */\n      swap1\n      pop\n        /* \"#utility.yul\":11166:11208   */\n      tag_340\n        /* \"#utility.yul\":11202:11207   */\n      dup3\n        /* \"#utility.yul\":11166:11208   */\n      tag_185\n      jump\t// in\n    tag_340:\n        /* \"#utility.yul\":11085:11214   */\n      swap2\n      swap1\n      pop\n      jump\t// out\n        /* \"#utility.yul\":11220:11349   */\n    tag_187:\n        /* \"#utility.yul\":11277:11286   */\n      0x00\n        /* \"#utility.yul\":11310:11343   */\n      tag_342\n        /* \"#utility.yul\":11337:11342   */\n      dup3\n        /* \"#utility.yul\":11310:11343   */\n      tag_186\n      jump\t// in\n    tag_342:\n        /* \"#utility.yul\":11297:11343   */\n      swap1\n      pop\n        /* \"#utility.yul\":11220:11349   */\n      swap2\n      swap1\n      pop\n      jump\t// out\n        /* \"#utility.yul\":11355:11500   */\n    tag_188:\n        /* \"#utility.yul\":11449:11493   */\n      tag_344\n        /* \"#utility.yul\":11487:11492   */\n      dup2\n        /* \"#utility.yul\":11449:11493   */\n      tag_187\n      jump\t// in\n    tag_344:\n        /* \"#utility.yul\":11444:11447   */\n      dup3\n        /* \"#utility.yul\":11437:11494   */\n      mstore\n        /* \"#utility.yul\":11355:11500   */\n      pop\n      pop\n      jump\t// out\n        /* \"#utility.yul\":11506:11742   */\n    tag_83:\n        /* \"#utility.yul\":11606:11610   */\n      0x00\n        /* \"#utility.yul\":11644:11646   */\n      0x20\n        /* \"#utility.yul\":11633:11642   */\n      dup3\n        /* \"#utility.yul\":11629:11647   */\n      add\n        /* \"#utility.yul\":11621:11647   */\n      swap1\n      pop\n        /* \"#utility.yul\":11657:11735   */\n      tag_346\n        /* \"#utility.yul\":11732:11733   */\n      0x00\n        /* \"#utility.yul\":11721:11730   */\n      dup4\n        /* \"#utility.yul\":11717:11734   */\n      add\n        /* \"#utility.yul\":11708:11714   */\n      dup5\n        /* \"#utility.yul\":11657:11735   */\n      tag_188\n      jump\t// in\n    tag_346:\n        /* \"#utility.yul\":11506:11742   */\n      swap3\n      swap2\n      pop\n      pop\n      jump\t// out\n        /* \"#utility.yul\":11748:12077   */\n    tag_87:\n        /* \"#utility.yul\":11807:11813   */\n      0x00\n        /* \"#utility.yul\":11856:11858   */\n      0x20\n        /* \"#utility.yul\":11844:11853   */\n      dup3\n        /* \"#utility.yul\":11835:11842   */\n      dup5\n        /* \"#utility.yul\":11831:11854   */\n      sub\n        /* \"#utility.yul\":11827:11859   */\n      slt\n        /* \"#utility.yul\":11824:11943   */\n      iszero\n      tag_348\n      jumpi\n        /* \"#utility.yul\":11862:11941   */\n      tag_349\n      tag_147\n      jump\t// in\n    tag_349:\n        /* \"#utility.yul\":11824:11943   */\n    tag_348:\n        /* \"#utility.yul\":11982:11983   */\n      0x00\n        /* \"#utility.yul\":12007:12060   */\n      tag_350\n        /* \"#utility.yul\":12052:12059   */\n      dup5\n        /* \"#utility.yul\":12043:12049   */\n      dup3\n        /* \"#utility.yul\":12032:12041   */\n      dup6\n        /* \"#utility.yul\":12028:12050   */\n      add\n        /* \"#utility.yul\":12007:12060   */\n      tag_162\n      jump\t// in\n    tag_350:\n        /* \"#utility.yul\":11997:12060   */\n      swap2\n      pop\n        /* \"#utility.yul\":11953:12070   */\n      pop\n        /* \"#utility.yul\":11748:12077   */\n      swap3\n      swap2\n      pop\n      pop\n      jump\t// out\n        /* \"#utility.yul\":12083:12263   */\n    tag_99:\n        /* \"#utility.yul\":12131:12208   */\n      0x4e487b7100000000000000000000000000000000000000000000000000000000\n        /* \"#utility.yul\":12128:12129   */\n      0x00\n        /* \"#utility.yul\":12121:12209   */\n      mstore\n        /* \"#utility.yul\":12228:12232   */\n      0x32\n        /* \"#utility.yul\":12225:12226   */\n      0x04\n        /* \"#utility.yul\":12218:12233   */\n      mstore\n        /* \"#utility.yul\":12252:12256   */\n      0x24\n        /* \"#utility.yul\":12249:12250   */\n      0x00\n        /* \"#utility.yul\":12242:12257   */\n      revert\n        /* \"#utility.yul\":12269:12449   */\n    tag_189:\n        /* \"#utility.yul\":12317:12394   */\n      0x4e487b7100000000000000000000000000000000000000000000000000000000\n        /* \"#utility.yul\":12314:12315   */\n      0x00\n        /* \"#utility.yul\":12307:12395   */\n      mstore\n        /* \"#utility.yul\":12414:12418   */\n      0x22\n        /* \"#utility.yul\":12411:12412   */\n      0x04\n        /* \"#utility.yul\":12404:12419   */\n      mstore\n        /* \"#utility.yul\":12438:12442   */\n      0x24\n        /* \"#utility.yul\":12435:12436   */\n      0x00\n        /* \"#utility.yul\":12428:12443   */\n      revert\n        /* \"#utility.yul\":12455:12775   */\n    tag_102:\n        /* \"#utility.yul\":12499:12505   */\n      0x00\n        /* \"#utility.yul\":12536:12537   */\n      0x02\n        /* \"#utility.yul\":12530:12534   */\n      dup3\n        /* \"#utility.yul\":12526:12538   */\n      div\n        /* \"#utility.yul\":12516:12538   */\n      swap1\n      pop\n        /* \"#utility.yul\":12583:12584   */\n      0x01\n        /* \"#utility.yul\":12577:12581   */\n      dup3\n        /* \"#utility.yul\":12573:12585   */\n      and\n        /* \"#utility.yul\":12604:12622   */\n      dup1\n        /* \"#utility.yul\":12594:12675   */\n      tag_354\n      jumpi\n        /* \"#utility.yul\":12660:12664   */\n      0x7f\n        /* \"#utility.yul\":12652:12658   */\n      dup3\n        /* \"#utility.yul\":12648:12665   */\n      and\n        /* \"#utility.yul\":12638:12665   */\n      swap2\n      pop\n        /* \"#utility.yul\":12594:12675   */\n    tag_354:\n        /* \"#utility.yul\":12722:12724   */\n      0x20\n        /* \"#utility.yul\":12714:12720   */\n      dup3\n        /* \"#utility.yul\":12711:12725   */\n      lt\n        /* \"#utility.yul\":12691:12709   */\n      dup2\n        /* \"#utility.yul\":12688:12726   */\n      sub\n        /* \"#utility.yul\":12685:12769   */\n      tag_355\n      jumpi\n        /* \"#utility.yul\":12741:12759   */\n      tag_356\n      tag_189\n      jump\t// in\n    tag_356:\n        /* \"#utility.yul\":12685:12769   */\n    tag_355:\n        /* \"#utility.yul\":12506:12775   */\n      pop\n        /* \"#utility.yul\":12455:12775   */\n      swap2\n      swap1\n      pop\n      jump\t// out\n        /* \"#utility.yul\":12781:12922   */\n    tag_190:\n        /* \"#utility.yul\":12830:12834   */\n      0x00\n        /* \"#utility.yul\":12853:12856   */\n      dup2\n        /* \"#utility.yul\":12845:12856   */\n      swap1\n      pop\n        /* \"#utility.yul\":12876:12879   */\n      dup2\n        /* \"#utility.yul\":12873:12874   */\n      0x00\n        /* \"#utility.yul\":12866:12880   */\n      mstore\n        /* \"#utility.yul\":12910:12914   */\n      0x20\n        /* \"#utility.yul\":12907:12908   */\n      0x00\n        /* \"#utility.yul\":12897:12915   */\n      keccak256\n        /* \"#utility.yul\":12889:12915   */\n      swap1\n      pop\n        /* \"#utility.yul\":12781:12922   */\n      swap2\n      swap1\n      pop\n      jump\t// out\n        /* \"#utility.yul\":12928:13021   */\n    tag_191:\n        /* \"#utility.yul\":12965:12971   */\n      0x00\n        /* \"#utility.yul\":13012:13014   */\n      0x20\n        /* \"#utility.yul\":13007:13009   */\n      0x1f\n        /* \"#utility.yul\":13000:13005   */\n      dup4\n        /* \"#utility.yul\":12996:13010   */\n      add\n        /* \"#utility.yul\":12992:13015   */\n      div\n        /* \"#utility.yul\":12982:13015   */\n      swap1\n      pop\n        /* \"#utility.yul\":12928:13021   */\n      swap2\n      swap1\n      pop\n      jump\t// out\n        /* \"#utility.yul\":13027:13134   */\n    tag_192:\n        /* \"#utility.yul\":13071:13079   */\n      0x00\n        /* \"#utility.yul\":13121:13126   */\n      dup3\n        /* \"#utility.yul\":13115:13119   */\n      dup3\n        /* \"#utility.yul\":13111:13127   */\n      shl\n        /* \"#utility.yul\":13090:13127   */\n      swap1\n      pop\n        /* \"#utility.yul\":13027:13134   */\n      swap3\n      swap2\n      pop\n      pop\n      jump\t// out\n        /* \"#utility.yul\":13140:13533   */\n    tag_193:\n        /* \"#utility.yul\":13209:13215   */\n      0x00\n        /* \"#utility.yul\":13259:13260   */\n      0x08\n        /* \"#utility.yul\":13247:13257   */\n      dup4\n        /* \"#utility.yul\":13243:13261   */\n      mul\n        /* \"#utility.yul\":13282:13379   */\n      tag_361\n        /* \"#utility.yul\":13312:13378   */\n      0xffffffffffffffffffffffffffffffffffffffffffffffffffffffffffffffff\n        /* \"#utility.yul\":13301:13310   */\n      dup3\n        /* \"#utility.yul\":13282:13379   */\n      tag_192\n      jump\t// in\n    tag_361:\n        /* \"#utility.yul\":13400:13439   */\n      tag_362\n        /* \"#utility.yul\":13430:13438   */\n      dup7\n        /* \"#utility.yul\":13419:13428   */\n      dup4\n        /* \"#utility.yul\":13400:13439   */\n      tag_192\n      jump\t// in\n    tag_362:\n        /* \"#utility.yul\":13388:13439   */\n      swap6\n      pop\n        /* \"#utility.yul\":13472:13476   */\n      dup1\n        /* \"#utility.yul\":13468:13477   */\n      not\n        /* \"#utility.yul\":13461:13466   */\n      dup5\n        /* \"#utility.yul\":13457:13478   */\n      and\n        /* \"#utility.yul\":13448:13478   */\n      swap4\n      pop\n        /* \"#utility.yul\":13521:13525   */\n      dup1\n        /* \"#utility.yul\":13511:13519   */\n      dup7\n        /* \"#utility.yul\":13507:13526   */\n      and\n        /* \"#utility.yul\":13500:13505   */\n      dup5\n        /* \"#utility.yul\":13497:13527   */\n      or\n        /* \"#utility.yul\":13487:13527   */\n      swap3\n      pop\n        /* \"#utility.yul\":13216:13533   */\n      pop\n      pop\n        /* \"#utility.yul\":13140:13533   */\n      swap4\n      swap3\n      pop\n      pop\n      pop\n      jump\t// out\n        /* \"#utility.yul\":13539:13599   */\n    tag_194:\n        /* \"#utility.yul\":13567:13570   */\n      0x00\n        /* \"#utility.yul\":13588:13593   */\n      dup2\n        /* \"#utility.yul\":13581:13593   */\n      swap1\n      pop\n        /* \"#utility.yul\":13539:13599   */\n      swap2\n      swap1\n      pop\n      jump\t// out\n        /* \"#utility.yul\":13605:13747   */\n    tag_195:\n        /* \"#utility.yul\":13655:13664   */\n      0x00\n        /* \"#utility.yul\":13688:13741   */\n      tag_365\n        /* \"#utility.yul\":13706:13740   */\n      tag_366\n        /* \"#utility.yul\":13715:13739   */\n      tag_367\n        /* \"#utility.yul\":13733:13738   */\n      dup5\n        /* \"#utility.yul\":13715:13739   */\n      tag_149\n      jump\t// in\n    tag_367:\n        /* \"#utility.yul\":13706:13740   */\n      tag_194\n      jump\t// in\n    tag_366:\n        /* \"#utility.yul\":13688:13741   */\n      tag_149\n      jump\t// in\n    tag_365:\n        /* \"#utility.yul\":13675:13741   */\n      swap1\n      pop\n        /* \"#utility.yul\":13605:13747   */\n      swap2\n      swap1\n      pop\n      jump\t// out\n        /* \"#utility.yul\":13753:13828   */\n    tag_196:\n        /* \"#utility.yul\":13796:13799   */\n      0x00\n        /* \"#utility.yul\":13817:13822   */\n      dup2\n        /* \"#utility.yul\":13810:13822   */\n      swap1\n      pop\n        /* \"#utility.yul\":13753:13828   */\n      swap2\n      swap1\n      pop\n      jump\t// out\n        /* \"#utility.yul\":13834:14103   */\n    tag_197:\n        /* \"#utility.yul\":13944:13983   */\n      tag_370\n        /* \"#utility.yul\":13975:13982   */\n      dup4\n        /* \"#utility.yul\":13944:13983   */\n      tag_195\n      jump\t// in\n    tag_370:\n        /* \"#utility.yul\":14005:14096   */\n      tag_371\n        /* \"#utility.yul\":14054:14095   */\n      tag_372\n        /* \"#utility.yul\":14078:14094   */\n      dup3\n        /* \"#utility.yul\":14054:14095   */\n      tag_196\n      jump\t// in\n    tag_372:\n        /* \"#utility.yul\":14046:14052   */\n      dup5\n        /* \"#utility.yul\":14039:14043   */\n      dup5\n        /* \"#utility.yul\":14033:14044   */\n      sload\n        /* \"#utility.yul\":14005:14096   */\n      tag_193\n      jump\t// in\n    tag_371:\n        /* \"#utility.yul\":13999:14003   */\n      dup3\n        /* \"#utility.yul\":13992:14097   */\n      sstore\n        /* \"#utility.yul\":13910:14103   */\n      pop\n        /* \"#utility.yul\":13834:14103   */\n      pop\n      pop\n      pop\n      jump\t// out\n        /* \"#utility.yul\":14109:14182   */\n    tag_198:\n        /* \"#utility.yul\":14154:14157   */\n      0x00\n        /* \"#utility.yul\":14175:14176   */\n      0x00\n        /* \"#utility.yul\":14168:14176   */\n      swap1\n      pop\n        /* \"#utility.yul\":14109:14182   */\n      swap1\n      jump\t// out\n        /* \"#utility.yul\":14188:14377   */\n    tag_199:\n        /* \"#utility.yul\":14265:14297   */\n      tag_375\n      tag_198\n      jump\t// in\n    tag_375:\n        /* \"#utility.yul\":14306:14371   */\n      tag_376\n        /* \"#utility.yul\":14364:14370   */\n      dup2\n        /* \"#utility.yul\":14356:14362   */\n      dup5\n        /* \"#utility.yul\":14350:14354   */\n      dup5\n        /* \"#utility.yul\":14306:14371   */\n      tag_197\n      jump\t// in\n    tag_376:\n        /* \"#utility.yul\":14241:14377   */\n      pop\n        /* \"#utility.yul\":14188:14377   */\n      pop\n      pop\n      jump\t// out\n        /* \"#utility.yul\":14383:14569   */\n    tag_200:\n        /* \"#utility.yul\":14443:14563   */\n    tag_378:\n        /* \"#utility.yul\":14460:14463   */\n      dup2\n        /* \"#utility.yul\":14453:14458   */\n      dup2\n        /* \"#utility.yul\":14450:14464   */\n      lt\n        /* \"#utility.yul\":14443:14563   */\n      iszero\n      tag_380\n      jumpi\n        /* \"#utility.yul\":14514:14553   */\n      tag_381\n        /* \"#utility.yul\":14551:14552   */\n      0x00\n        /* \"#utility.yul\":14544:14549   */\n      dup3\n        /* \"#utility.yul\":14514:14553   */\n      tag_199\n      jump\t// in\n    tag_381:\n        /* \"#utility.yul\":14487:14488   */\n      0x01\n        /* \"#utility.yul\":14480:14485   */\n      dup2\n        /* \"#utility.yul\":14476:14489   */\n      add\n        /* \"#utility.yul\":14467:14489   */\n      swap1\n      pop\n        /* \"#utility.yul\":14443:14563   */\n      jump(tag_378)\n    tag_380:\n        /* \"#utility.yul\":14383:14569   */\n      pop\n      pop\n      jump\t// out\n        /* \"#utility.yul\":14575:15118   */\n    tag_201:\n        /* \"#utility.yul\":14676:14678   */\n      0x1f\n        /* \"#utility.yul\":14671:14674   */\n      dup3\n        /* \"#utility.yul\":14668:14679   */\n      gt\n        /* \"#utility.yul\":14665:15111   */\n      iszero\n      tag_383\n      jumpi\n        /* \"#utility.yul\":14710:14748   */\n      tag_384\n        /* \"#utility.yul\":14742:14747   */\n      dup2\n        /* \"#utility.yul\":14710:14748   */\n      tag_190\n      jump\t// in\n    tag_384:\n        /* \"#utility.yul\":14794:14823   */\n      tag_385\n        /* \"#utility.yul\":14812:14822   */\n      dup5\n        /* \"#utility.yul\":14794:14823   */\n      tag_191\n      jump\t// in\n    tag_385:\n        /* \"#utility.yul\":14784:14792   */\n      dup2\n        /* \"#utility.yul\":14780:14824   */\n      add\n        /* \"#utility.yul\":14977:14979   */\n      0x20\n        /* \"#utility.yul\":14965:14975   */\n      dup6\n        /* \"#utility.yul\":14962:14980   */\n      lt\n        /* \"#utility.yul\":14959:15008   */\n      iszero\n      tag_386\n      jumpi\n        /* \"#utility.yul\":14998:15006   */\n      dup2\n        /* \"#utility.yul\":14983:15006   */\n      swap1\n      pop\n        /* \"#utility.yul\":14959:15008   */\n    tag_386:\n        /* \"#utility.yul\":15021:15101   */\n      tag_387\n        /* \"#utility.yul\":15077:15099   */\n      tag_388\n        /* \"#utility.yul\":15095:15098   */\n      dup6\n        /* \"#utility.yul\":15077:15099   */\n      tag_191\n      jump\t// in\n    tag_388:\n        /* \"#utility.yul\":15067:15075   */\n      dup4\n        /* \"#utility.yul\":15063:15100   */\n      add\n        /* \"#utility.yul\":15050:15061   */\n      dup3\n        /* \"#utility.yul\":15021:15101   */\n      tag_200\n      jump\t// in\n    tag_387:\n        /* \"#utility.yul\":14680:15111   */\n      pop\n      pop\n        /* \"#utility.yul\":14665:15111   */\n    tag_383:\n        /* \"#utility.yul\":14575:15118   */\n      pop\n      pop\n      pop\n      jump\t// out\n        /* \"#utility.yul\":15124:15241   */\n    tag_202:\n        /* \"#utility.yul\":15178:15186   */\n      0x00\n        /* \"#utility.yul\":15228:15233   */\n      dup3\n        /* \"#utility.yul\":15222:15226   */\n      dup3\n        /* \"#utility.yul\":15218:15234   */\n      shr\n        /* \"#utility.yul\":15197:15234   */\n      swap1\n      pop\n        /* \"#utility.yul\":15124:15241   */\n      swap3\n      swap2\n      pop\n      pop\n      jump\t// out\n        /* \"#utility.yul\":15247:15416   */\n    tag_203:\n        /* \"#utility.yul\":15291:15297   */\n      0x00\n        /* \"#utility.yul\":15324:15375   */\n      tag_391\n        /* \"#utility.yul\":15372:15373   */\n      0x00\n        /* \"#utility.yul\":15368:15374   */\n      not\n        /* \"#utility.yul\":15360:15365   */\n      dup5\n        /* \"#utility.yul\":15357:15358   */\n      0x08\n        /* \"#utility.yul\":15353:15366   */\n      mul\n        /* \"#utility.yul\":15324:15375   */\n      tag_202\n      jump\t// in\n    tag_391:\n        /* \"#utility.yul\":15320:15376   */\n      not\n        /* \"#utility.yul\":15405:15409   */\n      dup1\n        /* \"#utility.yul\":15399:15403   */\n      dup4\n        /* \"#utility.yul\":15395:15410   */\n      and\n        /* \"#utility.yul\":15385:15410   */\n      swap2\n      pop\n        /* \"#utility.yul\":15298:15416   */\n      pop\n        /* \"#utility.yul\":15247:15416   */\n      swap3\n      swap2\n      pop\n      pop\n      jump\t// out\n        /* \"#utility.yul\":15421:15716   */\n    tag_204:\n        /* \"#utility.yul\":15497:15501   */\n      0x00\n        /* \"#utility.yul\":15643:15672   */\n      tag_393\n        /* \"#utility.yul\":15668:15671   */\n      dup4\n        /* \"#utility.yul\":15662:15666   */\n      dup4\n        /* \"#utility.yul\":15643:15672   */\n      tag_203\n      jump\t// in\n    tag_393:\n        /* \"#utility.yul\":15635:15672   */\n      swap2\n      pop\n        /* \"#utility.yul\":15705:15708   */\n      dup3\n        /* \"#utility.yul\":15702:15703   */\n      0x02\n        /* \"#utility.yul\":15698:15709   */\n      mul\n        /* \"#utility.yul\":15692:15696   */\n      dup3\n        /* \"#utility.yul\":15689:15710   */\n      or\n        /* \"#utility.yul\":15681:15710   */\n      swap1\n      pop\n        /* \"#utility.yul\":15421:15716   */\n      swap3\n      swap2\n      pop\n      pop\n      jump\t// out\n        /* \"#utility.yul\":15721:17116   */\n    tag_123:\n        /* \"#utility.yul\":15838:15875   */\n      tag_395\n        /* \"#utility.yul\":15871:15874   */\n      dup3\n        /* \"#utility.yul\":15838:15875   */\n      tag_152\n      jump\t// in\n    tag_395:\n        /* \"#utility.yul\":15940:15958   */\n      0xffffffffffffffff\n        /* \"#utility.yul\":15932:15938   */\n      dup2\n        /* \"#utility.yul\":15929:15959   */\n      gt\n        /* \"#utility.yul\":15926:15982   */\n      iszero\n      tag_396\n      jumpi\n        /* \"#utility.yul\":15962:15980   */\n      tag_397\n      tag_171\n      jump\t// in\n    tag_397:\n        /* \"#utility.yul\":15926:15982   */\n    tag_396:\n        /* \"#utility.yul\":16006:16044   */\n      tag_398\n        /* \"#utility.yul\":16038:16042   */\n      dup3\n        /* \"#utility.yul\":16032:16043   */\n      sload\n        /* \"#utility.yul\":16006:16044   */\n      tag_102\n      jump\t// in\n    tag_398:\n        /* \"#utility.yul\":16091:16158   */\n      tag_399\n        /* \"#utility.yul\":16151:16157   */\n      dup3\n        /* \"#utility.yul\":16143:16149   */\n      dup3\n        /* \"#utility.yul\":16137:16141   */\n      dup6\n        /* \"#utility.yul\":16091:16158   */\n      tag_201\n      jump\t// in\n    tag_399:\n        /* \"#utility.yul\":16185:16186   */\n      0x00\n        /* \"#utility.yul\":16209:16213   */\n      0x20\n        /* \"#utility.yul\":16196:16213   */\n      swap1\n      pop\n        /* \"#utility.yul\":16241:16243   */\n      0x1f\n        /* \"#utility.yul\":16233:16239   */\n      dup4\n        /* \"#utility.yul\":16230:16244   */\n      gt\n        /* \"#utility.yul\":16258:16259   */\n      0x01\n        /* \"#utility.yul\":16253:16871   */\n      dup2\n      eq\n      tag_401\n      jumpi\n        /* \"#utility.yul\":16915:16916   */\n      0x00\n        /* \"#utility.yul\":16932:16938   */\n      dup5\n        /* \"#utility.yul\":16929:17006   */\n      iszero\n      tag_402\n      jumpi\n        /* \"#utility.yul\":16981:16990   */\n      dup3\n        /* \"#utility.yul\":16976:16979   */\n      dup8\n        /* \"#utility.yul\":16972:16991   */\n      add\n        /* \"#utility.yul\":16966:16992   */\n      mload\n        /* \"#utility.yul\":16957:16992   */\n      swap1\n      pop\n        /* \"#utility.yul\":16929:17006   */\n    tag_402:\n        /* \"#utility.yul\":17032:17099   */\n      tag_403\n        /* \"#utility.yul\":17092:17098   */\n      dup6\n        /* \"#utility.yul\":17085:17090   */\n      dup3\n        /* \"#utility.yul\":17032:17099   */\n      tag_204\n      jump\t// in\n    tag_403:\n        /* \"#utility.yul\":17026:17030   */\n      dup7\n        /* \"#utility.yul\":17019:17100   */\n      sstore\n        /* \"#utility.yul\":16888:17110   */\n      pop\n        /* \"#utility.yul\":16223:17110   */\n      jump(tag_400)\n        /* \"#utility.yul\":16253:16871   */\n    tag_401:\n        /* \"#utility.yul\":16305:16309   */\n      0x1f\n        /* \"#utility.yul\":16301:16310   */\n      not\n        /* \"#utility.yul\":16293:16299   */\n      dup5\n        /* \"#utility.yul\":16289:16311   */\n      and\n        /* \"#utility.yul\":16339:16376   */\n      tag_404\n        /* \"#utility.yul\":16371:16375   */\n      dup7\n        /* \"#utility.yul\":16339:16376   */\n      tag_190\n      jump\t// in\n    tag_404:\n        /* \"#utility.yul\":16398:16399   */\n      0x00\n        /* \"#utility.yul\":16412:16620   */\n    tag_405:\n        /* \"#utility.yul\":16426:16433   */\n      dup3\n        /* \"#utility.yul\":16423:16424   */\n      dup2\n        /* \"#utility.yul\":16420:16434   */\n      lt\n        /* \"#utility.yul\":16412:16620   */\n      iszero\n      tag_407\n      jumpi\n        /* \"#utility.yul\":16505:16514   */\n      dup5\n        /* \"#utility.yul\":16500:16503   */\n      dup10\n        /* \"#utility.yul\":16496:16515   */\n      add\n        /* \"#utility.yul\":16490:16516   */\n      mload\n        /* \"#utility.yul\":16482:16488   */\n      dup3\n        /* \"#utility.yul\":16475:16517   */\n      sstore\n        /* \"#utility.yul\":16556:16557   */\n      0x01\n        /* \"#utility.yul\":16548:16554   */\n      dup3\n        /* \"#utility.yul\":16544:16558   */\n      add\n        /* \"#utility.yul\":16534:16558   */\n      swap2\n      pop\n        /* \"#utility.yul\":16603:16605   */\n      0x20\n        /* \"#utility.yul\":16592:16601   */\n      dup6\n        /* \"#utility.yul\":16588:16606   */\n      add\n        /* \"#utility.yul\":16575:16606   */\n      swap5\n      pop\n        /* \"#utility.yul\":16449:16453   */\n      0x20\n        /* \"#utility.yul\":16446:16447   */\n      dup2\n        /* \"#utility.yul\":16442:16454   */\n      add\n        /* \"#utility.yul\":16437:16454   */\n      swap1\n      pop\n        /* \"#utility.yul\":16412:16620   */\n      jump(tag_405)\n    tag_407:\n        /* \"#utility.yul\":16648:16654   */\n      dup7\n        /* \"#utility.yul\":16639:16646   */\n      dup4\n        /* \"#utility.yul\":16636:16655   */\n      lt\n        /* \"#utility.yul\":16633:16812   */\n      iszero\n      tag_408\n      jumpi\n        /* \"#utility.yul\":16706:16715   */\n      dup5\n        /* \"#utility.yul\":16701:16704   */\n      dup10\n        /* \"#utility.yul\":16697:16716   */\n      add\n        /* \"#utility.yul\":16691:16717   */\n      mload\n        /* \"#utility.yul\":16749:16797   */\n      tag_409\n        /* \"#utility.yul\":16791:16795   */\n      0x1f\n        /* \"#utility.yul\":16783:16789   */\n      dup10\n        /* \"#utility.yul\":16779:16796   */\n      and\n        /* \"#utility.yul\":16768:16777   */\n      dup3\n        /* \"#utility.yul\":16749:16797   */\n      tag_203\n      jump\t// in\n    tag_409:\n        /* \"#utility.yul\":16741:16747   */\n      dup4\n        /* \"#utility.yul\":16734:16798   */\n      sstore\n        /* \"#utility.yul\":16656:16812   */\n      pop\n        /* \"#utility.yul\":16633:16812   */\n    tag_408:\n        /* \"#utility.yul\":16858:16859   */\n      0x01\n        /* \"#utility.yul\":16854:16855   */\n      0x02\n        /* \"#utility.yul\":16846:16852   */\n      dup9\n        /* \"#utility.yul\":16842:16856   */\n      mul\n        /* \"#utility.yul\":16838:16860   */\n      add\n        /* \"#utility.yul\":16832:16836   */\n      dup9\n        /* \"#utility.yul\":16825:16861   */\n      sstore\n        /* \"#utility.yul\":16260:16871   */\n      pop\n      pop\n      pop\n        /* \"#utility.yul\":16223:17110   */\n    tag_400:\n      pop\n        /* \"#utility.yul\":15813:17116   */\n      pop\n      pop\n      pop\n        /* \"#utility.yul\":15721:17116   */\n      pop\n      pop\n      jump\t// out\n        /* \"#utility.yul\":17122:17262   */\n    tag_205:\n        /* \"#utility.yul\":17170:17174   */\n      0x00\n        /* \"#utility.yul\":17193:17196   */\n      dup2\n        /* \"#utility.yul\":17185:17196   */\n      swap1\n      pop\n        /* \"#utility.yul\":17216:17219   */\n      dup2\n        /* \"#utility.yul\":17213:17214   */\n      0x00\n        /* \"#utility.yul\":17206:17220   */\n      mstore\n        /* \"#utility.yul\":17250:17254   */\n      0x20\n        /* \"#utility.yul\":17247:17248   */\n      0x00\n        /* \"#utility.yul\":17237:17255   */\n      keccak256\n        /* \"#utility.yul\":17229:17255   */\n      swap1\n      pop\n        /* \"#utility.yul\":17122:17262   */\n      swap2\n      swap1\n      pop\n      jump\t// out\n        /* \"#utility.yul\":17268:17809   */\n    tag_206:\n        /* \"#utility.yul\":17368:17370   */\n      0x1f\n        /* \"#utility.yul\":17363:17366   */\n      dup3\n        /* \"#utility.yul\":17360:17371   */\n      gt\n        /* \"#utility.yul\":17357:17802   */\n      iszero\n      tag_412\n      jumpi\n        /* \"#utility.yul\":17402:17439   */\n      tag_413\n        /* \"#utility.yul\":17433:17438   */\n      dup2\n        /* \"#utility.yul\":17402:17439   */\n      tag_205\n      jump\t// in\n    tag_413:\n        /* \"#utility.yul\":17485:17514   */\n      tag_414\n        /* \"#utility.yul\":17503:17513   */\n      dup5\n        /* \"#utility.yul\":17485:17514   */\n      tag_191\n      jump\t// in\n    tag_414:\n        /* \"#utility.yul\":17475:17483   */\n      dup2\n        /* \"#utility.yul\":17471:17515   */\n      add\n        /* \"#utility.yul\":17668:17670   */\n      0x20\n        /* \"#utility.yul\":17656:17666   */\n      dup6\n        /* \"#utility.yul\":17653:17671   */\n      lt\n        /* \"#utility.yul\":17650:17699   */\n      iszero\n      tag_415\n      jumpi\n        /* \"#utility.yul\":17689:17697   */\n      dup2\n        /* \"#utility.yul\":17674:17697   */\n      swap1\n      pop\n        /* \"#utility.yul\":17650:17699   */\n    tag_415:\n        /* \"#utility.yul\":17712:17792   */\n      tag_416\n        /* \"#utility.yul\":17768:17790   */\n      tag_417\n        /* \"#utility.yul\":17786:17789   */\n      dup6\n        /* \"#utility.yul\":17768:17790   */\n      tag_191\n      jump\t// in\n    tag_417:\n        /* \"#utility.yul\":17758:17766   */\n      dup4\n        /* \"#utility.yul\":17754:17791   */\n      add\n        /* \"#utility.yul\":17741:17752   */\n      dup3\n        /* \"#utility.yul\":17712:17792   */\n      tag_200\n      jump\t// in\n    tag_416:\n        /* \"#utility.yul\":17372:17802   */\n      pop\n      pop\n        /* \"#utility.yul\":17357:17802   */\n    tag_412:\n        /* \"#utility.yul\":17268:17809   */\n      pop\n      pop\n      pop\n      jump\t// out\n        /* \"#utility.yul\":17815:19205   */\n    tag_138:\n        /* \"#utility.yul\":17930:17966   */\n      tag_419\n        /* \"#utility.yul\":17962:17965   */\n      dup3\n        /* \"#utility.yul\":17930:17966   */\n      tag_178\n      jump\t// in\n    tag_419:\n        /* \"#utility.yul\":18031:18049   */\n      0xffffffffffffffff\n        /* \"#utility.yul\":18023:18029   */\n      dup2\n        /* \"#utility.yul\":18020:18050   */\n      gt\n        /* \"#utility.yul\":18017:18073   */\n      iszero\n      tag_420\n      jumpi\n        /* \"#utility.yul\":18053:18071   */\n      tag_421\n      tag_171\n      jump\t// in\n    tag_421:\n        /* \"#utility.yul\":18017:18073   */\n    tag_420:\n        /* \"#utility.yul\":18097:18135   */\n      tag_422\n        /* \"#utility.yul\":18129:18133   */\n      dup3\n        /* \"#utility.yul\":18123:18134   */\n      sload\n        /* \"#utility.yul\":18097:18135   */\n      tag_102\n      jump\t// in\n    tag_422:\n        /* \"#utility.yul\":18182:18248   */\n      tag_423\n        /* \"#utility.yul\":18241:18247   */\n      dup3\n        /* \"#utility.yul\":18233:18239   */\n      dup3\n        /* \"#utility.yul\":18227:18231   */\n      dup6\n        /* \"#utility.yul\":18182:18248   */\n      tag_206\n      jump\t// in\n    tag_423:\n        /* \"#utility.yul\":18275:18276   */\n      0x00\n        /* \"#utility.yul\":18299:18303   */\n      0x20\n        /* \"#utility.yul\":18286:18303   */\n      swap1\n      pop\n        /* \"#utility.yul\":18331:18333   */\n      0x1f\n        /* \"#utility.yul\":18323:18329   */\n      dup4\n        /* \"#utility.yul\":18320:18334   */\n      gt\n        /* \"#utility.yul\":18348:18349   */\n      0x01\n        /* \"#utility.yul\":18343:18960   */\n      dup2\n      eq\n      tag_425\n      jumpi\n        /* \"#utility.yul\":19004:19005   */\n      0x00\n        /* \"#utility.yul\":19021:19027   */\n      dup5\n        /* \"#utility.yul\":19018:19095   */\n      iszero\n      tag_426\n      jumpi\n        /* \"#utility.yul\":19070:19079   */\n      dup3\n        /* \"#utility.yul\":19065:19068   */\n      dup8\n        /* \"#utility.yul\":19061:19080   */\n      add\n        /* \"#utility.yul\":19055:19081   */\n      mload\n        /* \"#utility.yul\":19046:19081   */\n      swap1\n      pop\n        /* \"#utility.yul\":19018:19095   */\n    tag_426:\n        /* \"#utility.yul\":19121:19188   */\n      tag_427\n        /* \"#utility.yul\":19181:19187   */\n      dup6\n        /* \"#utility.yul\":19174:19179   */\n      dup3\n        /* \"#utility.yul\":19121:19188   */\n      tag_204\n      jump\t// in\n    tag_427:\n        /* \"#utility.yul\":19115:19119   */\n      dup7\n        /* \"#utility.yul\":19108:19189   */\n      sstore\n        /* \"#utility.yul\":18977:19199   */\n      pop\n        /* \"#utility.yul\":18313:19199   */\n      jump(tag_424)\n        /* \"#utility.yul\":18343:18960   */\n    tag_425:\n        /* \"#utility.yul\":18395:18399   */\n      0x1f\n        /* \"#utility.yul\":18391:18400   */\n      not\n        /* \"#utility.yul\":18383:18389   */\n      dup5\n        /* \"#utility.yul\":18379:18401   */\n      and\n        /* \"#utility.yul\":18429:18465   */\n      tag_428\n        /* \"#utility.yul\":18460:18464   */\n      dup7\n        /* \"#utility.yul\":18429:18465   */\n      tag_205\n      jump\t// in\n    tag_428:\n        /* \"#utility.yul\":18487:18488   */\n      0x00\n        /* \"#utility.yul\":18501:18709   */\n    tag_429:\n        /* \"#utility.yul\":18515:18522   */\n      dup3\n        /* \"#utility.yul\":18512:18513   */\n      dup2\n        /* \"#utility.yul\":18509:18523   */\n      lt\n        /* \"#utility.yul\":18501:18709   */\n      iszero\n      tag_431\n      jumpi\n        /* \"#utility.yul\":18594:18603   */\n      dup5\n        /* \"#utility.yul\":18589:18592   */\n      dup10\n        /* \"#utility.yul\":18585:18604   */\n      add\n        /* \"#utility.yul\":18579:18605   */\n      mload\n        /* \"#utility.yul\":18571:18577   */\n      dup3\n        /* \"#utility.yul\":18564:18606   */\n      sstore\n        /* \"#utility.yul\":18645:18646   */\n      0x01\n        /* \"#utility.yul\":18637:18643   */\n      dup3\n        /* \"#utility.yul\":18633:18647   */\n      add\n        /* \"#utility.yul\":18623:18647   */\n      swap2\n      pop\n        /* \"#utility.yul\":18692:18694   */\n      0x20\n        /* \"#utility.yul\":18681:18690   */\n      dup6\n        /* \"#utility.yul\":18677:18695   */\n      add\n        /* \"#utility.yul\":18664:18695   */\n      swap5\n      pop\n        /* \"#utility.yul\":18538:18542   */\n      0x20\n        /* \"#utility.yul\":18535:18536   */\n      dup2\n        /* \"#utility.yul\":18531:18543   */\n      add\n        /* \"#utility.yul\":18526:18543   */\n      swap1\n      pop\n        /* \"#utility.yul\":18501:18709   */\n      jump(tag_429)\n    tag_431:\n        /* \"#utility.yul\":18737:18743   */\n      dup7\n        /* \"#utility.yul\":18728:18735   */\n      dup4\n        /* \"#utility.yul\":18725:18744   */\n      lt\n        /* \"#utility.yul\":18722:18901   */\n      iszero\n      tag_432\n      jumpi\n        /* \"#utility.yul\":18795:18804   */\n      dup5\n        /* \"#utility.yul\":18790:18793   */\n      dup10\n        /* \"#utility.yul\":18786:18805   */\n      add\n        /* \"#utility.yul\":18780:18806   */\n      mload\n        /* \"#utility.yul\":18838:18886   */\n      tag_433\n        /* \"#utility.yul\":18880:18884   */\n      0x1f\n        /* \"#utility.yul\":18872:18878   */\n      dup10\n        /* \"#utility.yul\":18868:18885   */\n      and\n        /* \"#utility.yul\":18857:18866   */\n      dup3\n        /* \"#utility.yul\":18838:18886   */\n      tag_203\n      jump\t// in\n    tag_433:\n        /* \"#utility.yul\":18830:18836   */\n      dup4\n        /* \"#utility.yul\":18823:18887   */\n      sstore\n        /* \"#utility.yul\":18745:18901   */\n      pop\n        /* \"#utility.yul\":18722:18901   */\n    tag_432:\n        /* \"#utility.yul\":18947:18948   */\n      0x01\n        /* \"#utility.yul\":18943:18944   */\n      0x02\n        /* \"#utility.yul\":18935:18941   */\n      dup9\n        /* \"#utility.yul\":18931:18945   */\n      mul\n        /* \"#utility.yul\":18927:18949   */\n      add\n        /* \"#utility.yul\":18921:18925   */\n      dup9\n        /* \"#utility.yul\":18914:18950   */\n      sstore\n        /* \"#utility.yul\":18350:18960   */\n      pop\n      pop\n      pop\n        /* \"#utility.yul\":18313:19199   */\n    tag_424:\n      pop\n        /* \"#utility.yul\":17905:19205   */\n      pop\n      pop\n      pop\n        /* \"#utility.yul\":17815:19205   */\n      pop\n      pop\n      jump\t// out\n\n    auxdata: 0xa2646970667358221220f4d0c50299b4bc8edac74db519a455681e5e97304cc77aa79734dc19a5e48f1964736f6c634300081e0033\n}\n",
				"bytecode": {
					"linkReferences": {},
					"object": "6080604052348015600e575f5ffd5b506112438061001c5f395ff3fe6080604052600436106100e6575f3560e01c80636723856211610089578063d39fa23311610058578063d39fa233146102b2578063ef8a9235146102ee578063f8b2cb4f14610318578063fc56365814610354576100e6565b806367238562146101fb57806373d4a13a146102235780638d9776721461024d578063ab62f0e11461028a576100e6565b80632e49d78b116100c55780632e49d78b146101595780634ad0e5901461018157806356d88e27146101a957806363893d17146101d3576100e6565b80625c33e1146100ea5780631d65e77e146100f45780632ccb1b3014610131575b5f5ffd5b6100f2610390565b005b3480156100ff575f5ffd5b5061011a600480360381019061011591906107f5565b610392565b6040516101289291906108aa565b60405180910390f35b34801561013c575f5ffd5b5061015760048036038101906101529190610932565b61047f565b005b348015610164575f5ffd5b5061017f600480360381019061017a9190610993565b6104cc565b005b34801561018c575f5ffd5b506101a760048036038101906101a291906107f5565b6104f7565b005b3480156101b4575f5ffd5b506101bd610535565b6040516101ca91906109cd565b60405180910390f35b3480156101de575f5ffd5b506101f960048036038101906101f49190610a19565b61053b565b005b348015610206575f5ffd5b50610221600480360381019061021c9190610b70565b610564565b005b34801561022e575f5ffd5b506102376105db565b6040516102449190610c09565b60405180910390f35b348015610258575f5ffd5b50610273600480360381019061026e91906107f5565b610667565b6040516102819291906108aa565b60405180910390f35b348015610295575f5ffd5b506102b060048036038101906102ab9190610cc7565b610728565b005b3480156102bd575f5ffd5b506102d860048036038101906102d391906107f5565b61073b565b6040516102e59190610d1d565b60405180910390f35b3480156102f9575f5ffd5b5061030261075b565b60405161030f9190610da9565b60405180910390f35b348015610323575f5ffd5b5061033e60048036038101906103399190610dc2565b61076c565b60405161034b91906109cd565b60405180910390f35b34801561035f575f5ffd5b5061037a600480360381019061037591906107f5565b61078c565b6040516103879190610d1d565b60405180910390f35b565b60605f5f600484815481106103aa576103a9610ded565b5b905f5260205f2090600202016040518060400160405290815f820180546103d090610e47565b80601f01602080910402602001604051908101604052809291908181526020018280546103fc90610e47565b80156104475780601f1061041e57610100808354040283529160200191610447565b820191905f5260205f20905b81548152906001019060200180831161042a57829003601f168201915b50505050508152602001600182015f9054906101000a900460ff1615151515815250509050805f015181602001519250925050915091565b5f8290508073ffffffffffffffffffffffffffffffffffffffff166108fc8390811502906040515f60405180830381858888f193505050501580156104c6573d5f5f3e3d5ffd5b50505050565b805f5f6101000a81548160ff021916908360028111156104ef576104ee610d36565b5b021790555050565b60016004828154811061050d5761050c610ded565b5b905f5260205f2090600202016001015f6101000a81548160ff02191690831515021790555050565b60035481565b600281908060018154018082558091505060019003905f5260205f20015f909190919091505550565b600460405180604001604052808381526020015f1515815250908060018154018082558091505060019003905f5260205f2090600202015f909190919091505f820151815f0190816105b69190611017565b506020820151816001015f6101000a81548160ff021916908315150217905550505050565b600180546105e890610e47565b80601f016020809104026020016040519081016040528092919081815260200182805461061490610e47565b801561065f5780601f106106365761010080835404028352916020019161065f565b820191905f5260205f20905b81548152906001019060200180831161064257829003601f168201915b505050505081565b60048181548110610676575f80fd5b905f5260205f2090600202015f91509050805f01805461069590610e47565b80601f01602080910402602001604051908101604052809291908181526020018280546106c190610e47565b801561070c5780601f106106e35761010080835404028352916020019161070c565b820191905f5260205f20905b8154815290600101906020018083116106ef57829003601f168201915b505050505090806001015f9054906101000a900460ff16905082565b8060019081610737919061113e565b5050565b6002818154811061074a575f80fd5b905f5260205f20015f915090505481565b5f5f9054906101000a900460ff1681565b5f8173ffffffffffffffffffffffffffffffffffffffff16319050919050565b5f600282815481106107a1576107a0610ded565b5b905f5260205f2001549050919050565b5f604051905090565b5f5ffd5b5f5ffd5b5f819050919050565b6107d4816107c2565b81146107de575f5ffd5b50565b5f813590506107ef816107cb565b92915050565b5f6020828403121561080a576108096107ba565b5b5f610817848285016107e1565b91505092915050565b5f81519050919050565b5f82825260208201905092915050565b8281835e5f83830152505050565b5f601f19601f8301169050919050565b5f61086282610820565b61086c818561082a565b935061087c81856020860161083a565b61088581610848565b840191505092915050565b5f8115159050919050565b6108a481610890565b82525050565b5f6040820190508181035f8301526108c28185610858565b90506108d1602083018461089b565b9392505050565b5f73ffffffffffffffffffffffffffffffffffffffff82169050919050565b5f610901826108d8565b9050919050565b610911816108f7565b811461091b575f5ffd5b50565b5f8135905061092c81610908565b92915050565b5f5f60408385031215610948576109476107ba565b5b5f6109558582860161091e565b9250506020610966858286016107e1565b9150509250929050565b6003811061097c575f5ffd5b50565b5f8135905061098d81610970565b92915050565b5f602082840312156109a8576109a76107ba565b5b5f6109b58482850161097f565b91505092915050565b6109c7816107c2565b82525050565b5f6020820190506109e05f8301846109be565b92915050565b5f819050919050565b6109f8816109e6565b8114610a02575f5ffd5b50565b5f81359050610a13816109ef565b92915050565b5f60208284031215610a2e57610a2d6107ba565b5b5f610a3b84828501610a05565b91505092915050565b5f5ffd5b5f5ffd5b7f4e487b71000000000000000000000000000000000000000000000000000000005f52604160045260245ffd5b610a8282610848565b810181811067ffffffffffffffff82111715610aa157610aa0610a4c565b5b80604052505050565b5f610ab36107b1565b9050610abf8282610a79565b919050565b5f67ffffffffffffffff821115610ade57610add610a4c565b5b610ae782610848565b9050602081019050919050565b828183375f83830152505050565b5f610b14610b0f84610ac4565b610aaa565b905082815260208101848484011115610b3057610b2f610a48565b5b610b3b848285610af4565b509392505050565b5f82601f830112610b5757610b56610a44565b5b8135610b67848260208601610b02565b91505092915050565b5f60208284031215610b8557610b846107ba565b5b5f82013567ffffffffffffffff811115610ba257610ba16107be565b5b610bae84828501610b43565b91505092915050565b5f81519050919050565b5f82825260208201905092915050565b5f610bdb82610bb7565b610be58185610bc1565b9350610bf581856020860161083a565b610bfe81610848565b840191505092915050565b5f6020820190508181035f830152610c218184610bd1565b905092915050565b5f67ffffffffffffffff821115610c4357610c42610a4c565b5b610c4c82610848565b9050602081019050919050565b5f610c6b610c6684610c29565b610aaa565b905082815260208101848484011115610c8757610c86610a48565b5b610c92848285610af4565b509392505050565b5f82601f830112610cae57610cad610a44565b5b8135610cbe848260208601610c59565b91505092915050565b5f60208284031215610cdc57610cdb6107ba565b5b5f82013567ffffffffffffffff811115610cf957610cf86107be565b5b610d0584828501610c9a565b91505092915050565b610d17816109e6565b82525050565b5f602082019050610d305f830184610d0e565b92915050565b7f4e487b71000000000000000000000000000000000000000000000000000000005f52602160045260245ffd5b60038110610d7457610d73610d36565b5b50565b5f819050610d8482610d63565b919050565b5f610d9382610d77565b9050919050565b610da381610d89565b82525050565b5f602082019050610dbc5f830184610d9a565b92915050565b5f60208284031215610dd757610dd66107ba565b5b5f610de48482850161091e565b91505092915050565b7f4e487b71000000000000000000000000000000000000000000000000000000005f52603260045260245ffd5b7f4e487b71000000000000000000000000000000000000000000000000000000005f52602260045260245ffd5b5f6002820490506001821680610e5e57607f821691505b602082108103610e7157610e70610e1a565b5b50919050565b5f819050815f5260205f209050919050565b5f6020601f8301049050919050565b5f82821b905092915050565b5f60088302610ed37fffffffffffffffffffffffffffffffffffffffffffffffffffffffffffffffff82610e98565b610edd8683610e98565b95508019841693508086168417925050509392505050565b5f819050919050565b5f610f18610f13610f0e846107c2565b610ef5565b6107c2565b9050919050565b5f819050919050565b610f3183610efe565b610f45610f3d82610f1f565b848454610ea4565b825550505050565b5f5f905090565b610f5c610f4d565b610f67818484610f28565b505050565b5b81811015610f8a57610f7f5f82610f54565b600181019050610f6d565b5050565b601f821115610fcf57610fa081610e77565b610fa984610e89565b81016020851015610fb8578190505b610fcc610fc485610e89565b830182610f6c565b50505b505050565b5f82821c905092915050565b5f610fef5f1984600802610fd4565b1980831691505092915050565b5f6110078383610fe0565b9150826002028217905092915050565b61102082610820565b67ffffffffffffffff81111561103957611038610a4c565b5b6110438254610e47565b61104e828285610f8e565b5f60209050601f83116001811461107f575f841561106d578287015190505b6110778582610ffc565b8655506110de565b601f19841661108d86610e77565b5f5b828110156110b45784890151825560018201915060208501945060208101905061108f565b868310156110d157848901516110cd601f891682610fe0565b8355505b6001600288020188555050505b505050505050565b5f819050815f5260205f209050919050565b601f8211156111395761110a816110e6565b61111384610e89565b81016020851015611122578190505b61113661112e85610e89565b830182610f6c565b50505b505050565b61114782610bb7565b67ffffffffffffffff8111156111605761115f610a4c565b5b61116a8254610e47565b6111758282856110f8565b5f60209050601f8311600181146111a6575f8415611194578287015190505b61119e8582610ffc565b865550611205565b601f1984166111b4866110e6565b5f5b828110156111db578489015182556001820191506020850194506020810190506111b6565b868310156111f857848901516111f4601f891682610fe0565b8355505b6001600288020188555050505b50505050505056fea2646970667358221220f4d0c50299b4bc8edac74db519a455681e5e97304cc77aa79734dc19a5e48f1964736f6c634300081e0033",
					"opcodes": "PUSH1 0x80 PUSH1 0x40 MSTORE CALLVALUE DUP1 ISZERO PUSH1 0xE JUMPI PUSH0 PUSH0 REVERT JUMPDEST POP PUSH2 0x1243 DUP1 PUSH2 0x1C PUSH0 CODECOPY PUSH0 RETURN INVALID PUSH1 0x80 PUSH1 0x40 MSTORE PUSH1 0x4 CALLDATASIZE LT PUSH2 0xE6 JUMPI PUSH0 CALLDATALOAD PUSH1 0xE0 SHR DUP1 PUSH4 0x67238562 GT PUSH2 0x89 JUMPI DUP1 PUSH4 0xD39FA233 GT PUSH2 0x58 JUMPI DUP1 PUSH4 0xD39FA233 EQ PUSH2 0x2B2 JUMPI DUP1 PUSH4 0xEF8A9235 EQ PUSH2 0x2EE JUMPI DUP1 PUSH4 0xF8B2CB4F EQ PUSH2 0x318 JUMPI DUP1 PUSH4 0xFC563658 EQ PUSH2 0x354 JUMPI PUSH2 0xE6 JUMP JUMPDEST DUP1 PUSH4 0x67238562 EQ PUSH2 0x1FB JUMPI DUP1 PUSH4 0x73D4A13A EQ PUSH2 0x223 JUMPI DUP1 PUSH4 0x8D977672 EQ PUSH2 0x24D JUMPI DUP1 PUSH4 0xAB62F0E1 EQ PUSH2 0x28A JUMPI PUSH2 0xE6 JUMP JUMPDEST DUP1 PUSH4 0x2E49D78B GT PUSH2 0xC5 JUMPI DUP1 PUSH4 0x2E49D78B EQ PUSH2 0x159 JUMPI DUP1 PUSH4 0x4AD0E590 EQ PUSH2 0x181 JUMPI DUP1 PUSH4 0x56D88E27 EQ PUSH2 0x1A9 JUMPI DUP1 PUSH4 0x63893D17 EQ PUSH2 0x1D3 JUMPI PUSH2 0xE6 JUMP JUMPDEST DUP1 PUSH3 0x5C33E1 EQ PUSH2 0xEA JUMPI DUP1 PUSH4 0x1D65E77E EQ PUSH2 0xF4 JUMPI DUP1 PUSH4 0x2CCB1B30 EQ PUSH2 0x131 JUMPI JUMPDEST PUSH0 PUSH0 REVERT JUMPDEST PUSH2 0xF2 PUSH2 0x390 JUMP JUMPDEST STOP JUMPDEST CALLVALUE DUP1 ISZERO PUSH2 0xFF JUMPI PUSH0 PUSH0 REVERT JUMPDEST POP PUSH2 0x11A PUSH1 0x4 DUP1 CALLDATASIZE SUB DUP2 ADD SWAP1 PUSH2 0x115 SWAP2 SWAP1 PUSH2 0x7F5 JUMP JUMPDEST PUSH2 0x392 JUMP JUMPDEST PUSH1 0x40 MLOAD PUSH2 0x128 SWAP3 SWAP2 SWAP1 PUSH2 0x8AA JUMP JUMPDEST PUSH1 0x40 MLOAD DUP1 SWAP2 SUB SWAP1 RETURN JUMPDEST CALLVALUE DUP1 ISZERO PUSH2 0x13C JUMPI PUSH0 PUSH0 REVERT JUMPDEST POP PUSH2 0x157 PUSH1 0x4 DUP1 CALLDATASIZE SUB DUP2 ADD SWAP1 PUSH2 0x152 SWAP2 SWAP1 PUSH2 0x932 JUMP JUMPDEST PUSH2 0x47F JUMP JUMPDEST STOP JUMPDEST CALLVALUE DUP1 ISZERO PUSH2 0x164 JUMPI PUSH0 PUSH0 REVERT JUMPDEST POP PUSH2 0x17F PUSH1 0x4 DUP1 CALLDATASIZE SUB DUP2 ADD SWAP1 PUSH2 0x17A SWAP2 SWAP1 PUSH2 0x993 JUMP JUMPDEST PUSH2 0x4CC JUMP JUMPDEST STOP JUMPDEST CALLVALUE DUP1 ISZERO PUSH2 0x18C JUMPI PUSH0 PUSH0 REVERT JUMPDEST POP PUSH2 0x1A7 PUSH1 0x4 DUP1 CALLDATASIZE SUB DUP2 ADD SWAP1 PUSH2 0x1A2 SWAP2 SWAP1 PUSH2 0x7F5 JUMP JUMPDEST PUSH2 0x4F7 JUMP JUMPDEST STOP JUMPDEST CALLVALUE DUP1 ISZERO PUSH2 0x1B4 JUMPI PUSH0 PUSH0 REVERT JUMPDEST POP PUSH2 0x1BD PUSH2 0x535 JUMP JUMPDEST PUSH1 0x40 MLOAD PUSH2 0x1CA SWAP2 SWAP1 PUSH2 0x9CD JUMP JUMPDEST PUSH1 0x40 MLOAD DUP1 SWAP2 SUB SWAP1 RETURN JUMPDEST CALLVALUE DUP1 ISZERO PUSH2 0x1DE JUMPI PUSH0 PUSH0 REVERT JUMPDEST POP PUSH2 0x1F9 PUSH1 0x4 DUP1 CALLDATASIZE SUB DUP2 ADD SWAP1 PUSH2 0x1F4 SWAP2 SWAP1 PUSH2 0xA19 JUMP JUMPDEST PUSH2 0x53B JUMP JUMPDEST STOP JUMPDEST CALLVALUE DUP1 ISZERO PUSH2 0x206 JUMPI PUSH0 PUSH0 REVERT JUMPDEST POP PUSH2 0x221 PUSH1 0x4 DUP1 CALLDATASIZE SUB DUP2 ADD SWAP1 PUSH2 0x21C SWAP2 SWAP1 PUSH2 0xB70 JUMP JUMPDEST PUSH2 0x564 JUMP JUMPDEST STOP JUMPDEST CALLVALUE DUP1 ISZERO PUSH2 0x22E JUMPI PUSH0 PUSH0 REVERT JUMPDEST POP PUSH2 0x237 PUSH2 0x5DB JUMP JUMPDEST PUSH1 0x40 MLOAD PUSH2 0x244 SWAP2 SWAP1 PUSH2 0xC09 JUMP JUMPDEST PUSH1 0x40 MLOAD DUP1 SWAP2 SUB SWAP1 RETURN JUMPDEST CALLVALUE DUP1 ISZERO PUSH2 0x258 JUMPI PUSH0 PUSH0 REVERT JUMPDEST POP PUSH2 0x273 PUSH1 0x4 DUP1 CALLDATASIZE SUB DUP2 ADD SWAP1 PUSH2 0x26E SWAP2 SWAP1 PUSH2 0x7F5 JUMP JUMPDEST PUSH2 0x667 JUMP JUMPDEST PUSH1 0x40 MLOAD PUSH2 0x281 SWAP3 SWAP2 SWAP1 PUSH2 0x8AA JUMP JUMPDEST PUSH1 0x40 MLOAD DUP1 SWAP2 SUB SWAP1 RETURN JUMPDEST CALLVALUE DUP1 ISZERO PUSH2 0x295 JUMPI PUSH0 PUSH0 REVERT JUMPDEST POP PUSH2 0x2B0 PUSH1 0x4 DUP1 CALLDATASIZE SUB DUP2 ADD SWAP1 PUSH2 0x2AB SWAP2 SWAP1 PUSH2 0xCC7 JUMP JUMPDEST PUSH2 0x728 JUMP JUMPDEST STOP JUMPDEST CALLVALUE DUP1 ISZERO PUSH2 0x2BD JUMPI PUSH0 PUSH0 REVERT JUMPDEST POP PUSH2 0x2D8 PUSH1 0x4 DUP1 CALLDATASIZE SUB DUP2 ADD SWAP1 PUSH2 0x2D3 SWAP2 SWAP1 PUSH2 0x7F5 JUMP JUMPDEST PUSH2 0x73B JUMP JUMPDEST PUSH1 0x40 MLOAD PUSH2 0x2E5 SWAP2 SWAP1 PUSH2 0xD1D JUMP JUMPDEST PUSH1 0x40 MLOAD DUP1 SWAP2 SUB SWAP1 RETURN JUMPDEST CALLVALUE DUP1 ISZERO PUSH2 0x2F9 JUMPI PUSH0 PUSH0 REVERT JUMPDEST POP PUSH2 0x302 PUSH2 0x75B JUMP JUMPDEST PUSH1 0x40 MLOAD PUSH2 0x30F SWAP2 SWAP1 PUSH2 0xDA9 JUMP JUMPDEST PUSH1 0x40 MLOAD DUP1 SWAP2 SUB SWAP1 RETURN JUMPDEST CALLVALUE DUP1 ISZERO PUSH2 0x323 JUMPI PUSH0 PUSH0 REVERT JUMPDEST POP PUSH2 0x33E PUSH1 0x4 DUP1 CALLDATASIZE SUB DUP2 ADD SWAP1 PUSH2 0x339 SWAP2 SWAP1 PUSH2 0xDC2 JUMP JUMPDEST PUSH2 0x76C JUMP JUMPDEST PUSH1 0x40 MLOAD PUSH2 0x34B SWAP2 SWAP1 PUSH2 0x9CD JUMP JUMPDEST PUSH1 0x40 MLOAD DUP1 SWAP2 SUB SWAP1 RETURN JUMPDEST CALLVALUE DUP1 ISZERO PUSH2 0x35F JUMPI PUSH0 PUSH0 REVERT JUMPDEST POP PUSH2 0x37A PUSH1 0x4 DUP1 CALLDATASIZE SUB DUP2 ADD SWAP1 PUSH2 0x375 SWAP2 SWAP1 PUSH2 0x7F5 JUMP JUMPDEST PUSH2 0x78C JUMP JUMPDEST PUSH1 0x40 MLOAD PUSH2 0x387 SWAP2 SWAP1 PUSH2 0xD1D JUMP JUMPDEST PUSH1 0x40 MLOAD DUP1 SWAP2 SUB SWAP1 RETURN JUMPDEST JUMP JUMPDEST PUSH1 0x60 PUSH0 PUSH0 PUSH1 0x4 DUP5 DUP2 SLOAD DUP2 LT PUSH2 0x3AA JUMPI PUSH2 0x3A9 PUSH2 0xDED JUMP JUMPDEST JUMPDEST SWAP1 PUSH0 MSTORE PUSH1 0x20 PUSH0 KECCAK256 SWAP1 PUSH1 0x2 MUL ADD PUSH1 0x40 MLOAD DUP1 PUSH1 0x40 ADD PUSH1 0x40 MSTORE SWAP1 DUP2 PUSH0 DUP3 ADD DUP1 SLOAD PUSH2 0x3D0 SWAP1 PUSH2 0xE47 JUMP JUMPDEST DUP1 PUSH1 0x1F ADD PUSH1 0x20 DUP1 SWAP2 DIV MUL PUSH1 0x20 ADD PUSH1 0x40 MLOAD SWAP1 DUP2 ADD PUSH1 0x40 MSTORE DUP1 SWAP3 SWAP2 SWAP1 DUP2 DUP2 MSTORE PUSH1 0x20 ADD DUP3 DUP1 SLOAD PUSH2 0x3FC SWAP1 PUSH2 0xE47 JUMP JUMPDEST DUP1 ISZERO PUSH2 0x447 JUMPI DUP1 PUSH1 0x1F LT PUSH2 0x41E JUMPI PUSH2 0x100 DUP1 DUP4 SLOAD DIV MUL DUP4 MSTORE SWAP2 PUSH1 0x20 ADD SWAP2 PUSH2 0x447 JUMP JUMPDEST DUP3 ADD SWAP2 SWAP1 PUSH0 MSTORE PUSH1 0x20 PUSH0 KECCAK256 SWAP1 JUMPDEST DUP2 SLOAD DUP2 MSTORE SWAP1 PUSH1 0x1 ADD SWAP1 PUSH1 0x20 ADD DUP1 DUP4 GT PUSH2 0x42A JUMPI DUP3 SWAP1 SUB PUSH1 0x1F AND DUP3 ADD SWAP2 JUMPDEST POP POP POP POP POP DUP2 MSTORE PUSH1 0x20 ADD PUSH1 0x1 DUP3 ADD PUSH0 SWAP1 SLOAD SWAP1 PUSH2 0x100 EXP SWAP1 DIV PUSH1 0xFF AND ISZERO ISZERO ISZERO ISZERO DUP2 MSTORE POP POP SWAP1 POP DUP1 PUSH0 ADD MLOAD DUP2 PUSH1 0x20 ADD MLOAD SWAP3 POP SWAP3 POP POP SWAP2 POP SWAP2 JUMP JUMPDEST PUSH0 DUP3 SWAP1 POP DUP1 PUSH20 0xFFFFFFFFFFFFFFFFFFFFFFFFFFFFFFFFFFFFFFFF AND PUSH2 0x8FC DUP4 SWAP1 DUP2 ISZERO MUL SWAP1 PUSH1 0x40 MLOAD PUSH0 PUSH1 0x40 MLOAD DUP1 DUP4 SUB DUP2 DUP6 DUP9 DUP9 CALL SWAP4 POP POP POP POP ISZERO DUP1 ISZERO PUSH2 0x4C6 JUMPI RETURNDATASIZE PUSH0 PUSH0 RETURNDATACOPY RETURNDATASIZE PUSH0 REVERT JUMPDEST POP POP POP POP JUMP JUMPDEST DUP1 PUSH0 PUSH0 PUSH2 0x100 EXP DUP2 SLOAD DUP2 PUSH1 0xFF MUL NOT AND SWAP1 DUP4 PUSH1 0x2 DUP2 GT ISZERO PUSH2 0x4EF JUMPI PUSH2 0x4EE PUSH2 0xD36 JUMP JUMPDEST JUMPDEST MUL OR SWAP1 SSTORE POP POP JUMP JUMPDEST PUSH1 0x1 PUSH1 0x4 DUP3 DUP2 SLOAD DUP2 LT PUSH2 0x50D JUMPI PUSH2 0x50C PUSH2 0xDED JUMP JUMPDEST JUMPDEST SWAP1 PUSH0 MSTORE PUSH1 0x20 PUSH0 KECCAK256 SWAP1 PUSH1 0x2 MUL ADD PUSH1 0x1 ADD PUSH0 PUSH2 0x100 EXP DUP2 SLOAD DUP2 PUSH1 0xFF MUL NOT AND SWAP1 DUP4 ISZERO ISZERO MUL OR SWAP1 SSTORE POP POP JUMP JUMPDEST PUSH1 0x3 SLOAD DUP2 JUMP JUMPDEST PUSH1 0x2 DUP2 SWAP1 DUP1 PUSH1 0x1 DUP2 SLOAD ADD DUP1 DUP3 SSTORE DUP1 SWAP2 POP POP PUSH1 0x1 SWAP1 SUB SWAP1 PUSH0 MSTORE PUSH1 0x20 PUSH0 KECCAK256 ADD PUSH0 SWAP1 SWAP2 SWAP1 SWAP2 SWAP1 SWAP2 POP SSTORE POP JUMP JUMPDEST PUSH1 0x4 PUSH1 0x40 MLOAD DUP1 PUSH1 0x40 ADD PUSH1 0x40 MSTORE DUP1 DUP4 DUP2 MSTORE PUSH1 0x20 ADD PUSH0 ISZERO ISZERO DUP2 MSTORE POP SWAP1 DUP1 PUSH1 0x1 DUP2 SLOAD ADD DUP1 DUP3 SSTORE DUP1 SWAP2 POP POP PUSH1 0x1 SWAP1 SUB SWAP1 PUSH0 MSTORE PUSH1 0x20 PUSH0 KECCAK256 SWAP1 PUSH1 0x2 MUL ADD PUSH0 SWAP1 SWAP2 SWAP1 SWAP2 SWAP1 SWAP2 POP PUSH0 DUP3 ADD MLOAD DUP2 PUSH0 ADD SWAP1 DUP2 PUSH2 0x5B6 SWAP2 SWAP1 PUSH2 0x1017 JUMP JUMPDEST POP PUSH1 0x20 DUP3 ADD MLOAD DUP2 PUSH1 0x1 ADD PUSH0 PUSH2 0x100 EXP DUP2 SLOAD DUP2 PUSH1 0xFF MUL NOT AND SWAP1 DUP4 ISZERO ISZERO MUL OR SWAP1 SSTORE POP POP POP POP JUMP JUMPDEST PUSH1 0x1 DUP1 SLOAD PUSH2 0x5E8 SWAP1 PUSH2 0xE47 JUMP JUMPDEST DUP1 PUSH1 0x1F ADD PUSH1 0x20 DUP1 SWAP2 DIV MUL PUSH1 0x20 ADD PUSH1 0x40 MLOAD SWAP1 DUP2 ADD PUSH1 0x40 MSTORE DUP1 SWAP3 SWAP2 SWAP1 DUP2 DUP2 MSTORE PUSH1 0x20 ADD DUP3 DUP1 SLOAD PUSH2 0x614 SWAP1 PUSH2 0xE47 JUMP JUMPDEST DUP1 ISZERO PUSH2 0x65F JUMPI DUP1 PUSH1 0x1F LT PUSH2 0x636 JUMPI PUSH2 0x100 DUP1 DUP4 SLOAD DIV MUL DUP4 MSTORE SWAP2 PUSH1 0x20 ADD SWAP2 PUSH2 0x65F JUMP JUMPDEST DUP3 ADD SWAP2 SWAP1 PUSH0 MSTORE PUSH1 0x20 PUSH0 KECCAK256 SWAP1 JUMPDEST DUP2 SLOAD DUP2 MSTORE SWAP1 PUSH1 0x1 ADD SWAP1 PUSH1 0x20 ADD DUP1 DUP4 GT PUSH2 0x642 JUMPI DUP3 SWAP1 SUB PUSH1 0x1F AND DUP3 ADD SWAP2 JUMPDEST POP POP POP POP POP DUP2 JUMP JUMPDEST PUSH1 0x4 DUP2 DUP2 SLOAD DUP2 LT PUSH2 0x676 JUMPI PUSH0 DUP1 REVERT JUMPDEST SWAP1 PUSH0 MSTORE PUSH1 0x20 PUSH0 KECCAK256 SWAP1 PUSH1 0x2 MUL ADD PUSH0 SWAP2 POP SWAP1 POP DUP1 PUSH0 ADD DUP1 SLOAD PUSH2 0x695 SWAP1 PUSH2 0xE47 JUMP JUMPDEST DUP1 PUSH1 0x1F ADD PUSH1 0x20 DUP1 SWAP2 DIV MUL PUSH1 0x20 ADD PUSH1 0x40 MLOAD SWAP1 DUP2 ADD PUSH1 0x40 MSTORE DUP1 SWAP3 SWAP2 SWAP1 DUP2 DUP2 MSTORE PUSH1 0x20 ADD DUP3 DUP1 SLOAD PUSH2 0x6C1 SWAP1 PUSH2 0xE47 JUMP JUMPDEST DUP1 ISZERO PUSH2 0x70C JUMPI DUP1 PUSH1 0x1F LT PUSH2 0x6E3 JUMPI PUSH2 0x100 DUP1 DUP4 SLOAD DIV MUL DUP4 MSTORE SWAP2 PUSH1 0x20 ADD SWAP2 PUSH2 0x70C JUMP JUMPDEST DUP3 ADD SWAP2 SWAP1 PUSH0 MSTORE PUSH1 0x20 PUSH0 KECCAK256 SWAP1 JUMPDEST DUP2 SLOAD DUP2 MSTORE SWAP1 PUSH1 0x1 ADD SWAP1 PUSH1 0x20 ADD DUP1 DUP4 GT PUSH2 0x6EF JUMPI DUP3 SWAP1 SUB PUSH1 0x1F AND DUP3 ADD SWAP2 JUMPDEST POP POP POP POP POP SWAP1 DUP1 PUSH1 0x1 ADD PUSH0 SWAP1 SLOAD SWAP1 PUSH2 0x100 EXP SWAP1 DIV PUSH1 0xFF AND SWAP1 POP DUP3 JUMP JUMPDEST DUP1 PUSH1 0x1 SWAP1 DUP2 PUSH2 0x737 SWAP2 SWAP1 PUSH2 0x113E JUMP JUMPDEST POP POP JUMP JUMPDEST PUSH1 0x2 DUP2 DUP2 SLOAD DUP2 LT PUSH2 0x74A JUMPI PUSH0 DUP1 REVERT JUMPDEST SWAP1 PUSH0 MSTORE PUSH1 0x20 PUSH0 KECCAK256 ADD PUSH0 SWAP2 POP SWAP1 POP SLOAD DUP2 JUMP JUMPDEST PUSH0 PUSH0 SWAP1 SLOAD SWAP1 PUSH2 0x100 EXP SWAP1 DIV PUSH1 0xFF AND DUP2 JUMP JUMPDEST PUSH0 DUP2 PUSH20 0xFFFFFFFFFFFFFFFFFFFFFFFFFFFFFFFFFFFFFFFF AND BALANCE SWAP1 POP SWAP2 SWAP1 POP JUMP JUMPDEST PUSH0 PUSH1 0x2 DUP3 DUP2 SLOAD DUP2 LT PUSH2 0x7A1 JUMPI PUSH2 0x7A0 PUSH2 0xDED JUMP JUMPDEST JUMPDEST SWAP1 PUSH0 MSTORE PUSH1 0x20 PUSH0 KECCAK256 ADD SLOAD SWAP1 POP SWAP2 SWAP1 POP JUMP JUMPDEST PUSH0 PUSH1 0x40 MLOAD SWAP1 POP SWAP1 JUMP JUMPDEST PUSH0 PUSH0 REVERT JUMPDEST PUSH0 PUSH0 REVERT JUMPDEST PUSH0 DUP2 SWAP1 POP SWAP2 SWAP1 POP JUMP JUMPDEST PUSH2 0x7D4 DUP2 PUSH2 0x7C2 JUMP JUMPDEST DUP2 EQ PUSH2 0x7DE JUMPI PUSH0 PUSH0 REVERT JUMPDEST POP JUMP JUMPDEST PUSH0 DUP2 CALLDATALOAD SWAP1 POP PUSH2 0x7EF DUP2 PUSH2 0x7CB JUMP JUMPDEST SWAP3 SWAP2 POP POP JUMP JUMPDEST PUSH0 PUSH1 0x20 DUP3 DUP5 SUB SLT ISZERO PUSH2 0x80A JUMPI PUSH2 0x809 PUSH2 0x7BA JUMP JUMPDEST JUMPDEST PUSH0 PUSH2 0x817 DUP5 DUP3 DUP6 ADD PUSH2 0x7E1 JUMP JUMPDEST SWAP2 POP POP SWAP3 SWAP2 POP POP JUMP JUMPDEST PUSH0 DUP2 MLOAD SWAP1 POP SWAP2 SWAP1 POP JUMP JUMPDEST PUSH0 DUP3 DUP3 MSTORE PUSH1 0x20 DUP3 ADD SWAP1 POP SWAP3 SWAP2 POP POP JUMP JUMPDEST DUP3 DUP2 DUP4 MCOPY PUSH0 DUP4 DUP4 ADD MSTORE POP POP POP JUMP JUMPDEST PUSH0 PUSH1 0x1F NOT PUSH1 0x1F DUP4 ADD AND SWAP1 POP SWAP2 SWAP1 POP JUMP JUMPDEST PUSH0 PUSH2 0x862 DUP3 PUSH2 0x820 JUMP JUMPDEST PUSH2 0x86C DUP2 DUP6 PUSH2 0x82A JUMP JUMPDEST SWAP4 POP PUSH2 0x87C DUP2 DUP6 PUSH1 0x20 DUP7 ADD PUSH2 0x83A JUMP JUMPDEST PUSH2 0x885 DUP2 PUSH2 0x848 JUMP JUMPDEST DUP5 ADD SWAP2 POP POP SWAP3 SWAP2 POP POP JUMP JUMPDEST PUSH0 DUP2 ISZERO ISZERO SWAP1 POP SWAP2 SWAP1 POP JUMP JUMPDEST PUSH2 0x8A4 DUP2 PUSH2 0x890 JUMP JUMPDEST DUP3 MSTORE POP POP JUMP JUMPDEST PUSH0 PUSH1 0x40 DUP3 ADD SWAP1 POP DUP2 DUP2 SUB PUSH0 DUP4 ADD MSTORE PUSH2 0x8C2 DUP2 DUP6 PUSH2 0x858 JUMP JUMPDEST SWAP1 POP PUSH2 0x8D1 PUSH1 0x20 DUP4 ADD DUP5 PUSH2 0x89B JUMP JUMPDEST SWAP4 SWAP3 POP POP POP JUMP JUMPDEST PUSH0 PUSH20 0xFFFFFFFFFFFFFFFFFFFFFFFFFFFFFFFFFFFFFFFF DUP3 AND SWAP1 POP SWAP2 SWAP1 POP JUMP JUMPDEST PUSH0 PUSH2 0x901 DUP3 PUSH2 0x8D8 JUMP JUMPDEST SWAP1 POP SWAP2 SWAP1 POP JUMP JUMPDEST PUSH2 0x911 DUP2 PUSH2 0x8F7 JUMP JUMPDEST DUP2 EQ PUSH2 0x91B JUMPI PUSH0 PUSH0 REVERT JUMPDEST POP JUMP JUMPDEST PUSH0 DUP2 CALLDATALOAD SWAP1 POP PUSH2 0x92C DUP2 PUSH2 0x908 JUMP JUMPDEST SWAP3 SWAP2 POP POP JUMP JUMPDEST PUSH0 PUSH0 PUSH1 0x40 DUP4 DUP6 SUB SLT ISZERO PUSH2 0x948 JUMPI PUSH2 0x947 PUSH2 0x7BA JUMP JUMPDEST JUMPDEST PUSH0 PUSH2 0x955 DUP6 DUP3 DUP7 ADD PUSH2 0x91E JUMP JUMPDEST SWAP3 POP POP PUSH1 0x20 PUSH2 0x966 DUP6 DUP3 DUP7 ADD PUSH2 0x7E1 JUMP JUMPDEST SWAP2 POP POP SWAP3 POP SWAP3 SWAP1 POP JUMP JUMPDEST PUSH1 0x3 DUP2 LT PUSH2 0x97C JUMPI PUSH0 PUSH0 REVERT JUMPDEST POP JUMP JUMPDEST PUSH0 DUP2 CALLDATALOAD SWAP1 POP PUSH2 0x98D DUP2 PUSH2 0x970 JUMP JUMPDEST SWAP3 SWAP2 POP POP JUMP JUMPDEST PUSH0 PUSH1 0x20 DUP3 DUP5 SUB SLT ISZERO PUSH2 0x9A8 JUMPI PUSH2 0x9A7 PUSH2 0x7BA JUMP JUMPDEST JUMPDEST PUSH0 PUSH2 0x9B5 DUP5 DUP3 DUP6 ADD PUSH2 0x97F JUMP JUMPDEST SWAP2 POP POP SWAP3 SWAP2 POP POP JUMP JUMPDEST PUSH2 0x9C7 DUP2 PUSH2 0x7C2 JUMP JUMPDEST DUP3 MSTORE POP POP JUMP JUMPDEST PUSH0 PUSH1 0x20 DUP3 ADD SWAP1 POP PUSH2 0x9E0 PUSH0 DUP4 ADD DUP5 PUSH2 0x9BE JUMP JUMPDEST SWAP3 SWAP2 POP POP JUMP JUMPDEST PUSH0 DUP2 SWAP1 POP SWAP2 SWAP1 POP JUMP JUMPDEST PUSH2 0x9F8 DUP2 PUSH2 0x9E6 JUMP JUMPDEST DUP2 EQ PUSH2 0xA02 JUMPI PUSH0 PUSH0 REVERT JUMPDEST POP JUMP JUMPDEST PUSH0 DUP2 CALLDATALOAD SWAP1 POP PUSH2 0xA13 DUP2 PUSH2 0x9EF JUMP JUMPDEST SWAP3 SWAP2 POP POP JUMP JUMPDEST PUSH0 PUSH1 0x20 DUP3 DUP5 SUB SLT ISZERO PUSH2 0xA2E JUMPI PUSH2 0xA2D PUSH2 0x7BA JUMP JUMPDEST JUMPDEST PUSH0 PUSH2 0xA3B DUP5 DUP3 DUP6 ADD PUSH2 0xA05 JUMP JUMPDEST SWAP2 POP POP SWAP3 SWAP2 POP POP JUMP JUMPDEST PUSH0 PUSH0 REVERT JUMPDEST PUSH0 PUSH0 REVERT JUMPDEST PUSH32 0x4E487B7100000000000000000000000000000000000000000000000000000000 PUSH0 MSTORE PUSH1 0x41 PUSH1 0x4 MSTORE PUSH1 0x24 PUSH0 REVERT JUMPDEST PUSH2 0xA82 DUP3 PUSH2 0x848 JUMP JUMPDEST DUP2 ADD DUP2 DUP2 LT PUSH8 0xFFFFFFFFFFFFFFFF DUP3 GT OR ISZERO PUSH2 0xAA1 JUMPI PUSH2 0xAA0 PUSH2 0xA4C JUMP JUMPDEST JUMPDEST DUP1 PUSH1 0x40 MSTORE POP POP POP JUMP JUMPDEST PUSH0 PUSH2 0xAB3 PUSH2 0x7B1 JUMP JUMPDEST SWAP1 POP PUSH2 0xABF DUP3 DUP3 PUSH2 0xA79 JUMP JUMPDEST SWAP2 SWAP1 POP JUMP JUMPDEST PUSH0 PUSH8 0xFFFFFFFFFFFFFFFF DUP3 GT ISZERO PUSH2 0xADE JUMPI PUSH2 0xADD PUSH2 0xA4C JUMP JUMPDEST JUMPDEST PUSH2 0xAE7 DUP3 PUSH2 0x848 JUMP JUMPDEST SWAP1 POP PUSH1 0x20 DUP2 ADD SWAP1 POP SWAP2 SWAP1 POP JUMP JUMPDEST DUP3 DUP2 DUP4 CALLDATACOPY PUSH0 DUP4 DUP4 ADD MSTORE POP POP POP JUMP JUMPDEST PUSH0 PUSH2 0xB14 PUSH2 0xB0F DUP5 PUSH2 0xAC4 JUMP JUMPDEST PUSH2 0xAAA JUMP JUMPDEST SWAP1 POP DUP3 DUP2 MSTORE PUSH1 0x20 DUP2 ADD DUP5 DUP5 DUP5 ADD GT ISZERO PUSH2 0xB30 JUMPI PUSH2 0xB2F PUSH2 0xA48 JUMP JUMPDEST JUMPDEST PUSH2 0xB3B DUP5 DUP3 DUP6 PUSH2 0xAF4 JUMP JUMPDEST POP SWAP4 SWAP3 POP POP POP JUMP JUMPDEST PUSH0 DUP3 PUSH1 0x1F DUP4 ADD SLT PUSH2 0xB57 JUMPI PUSH2 0xB56 PUSH2 0xA44 JUMP JUMPDEST JUMPDEST DUP2 CALLDATALOAD PUSH2 0xB67 DUP5 DUP3 PUSH1 0x20 DUP7 ADD PUSH2 0xB02 JUMP JUMPDEST SWAP2 POP POP SWAP3 SWAP2 POP POP JUMP JUMPDEST PUSH0 PUSH1 0x20 DUP3 DUP5 SUB SLT ISZERO PUSH2 0xB85 JUMPI PUSH2 0xB84 PUSH2 0x7BA JUMP JUMPDEST JUMPDEST PUSH0 DUP3 ADD CALLDATALOAD PUSH8 0xFFFFFFFFFFFFFFFF DUP2 GT ISZERO PUSH2 0xBA2 JUMPI PUSH2 0xBA1 PUSH2 0x7BE JUMP JUMPDEST JUMPDEST PUSH2 0xBAE DUP5 DUP3 DUP6 ADD PUSH2 0xB43 JUMP JUMPDEST SWAP2 POP POP SWAP3 SWAP2 POP POP JUMP JUMPDEST PUSH0 DUP2 MLOAD SWAP1 POP SWAP2 SWAP1 POP JUMP JUMPDEST PUSH0 DUP3 DUP3 MSTORE PUSH1 0x20 DUP3 ADD SWAP1 POP SWAP3 SWAP2 POP POP JUMP JUMPDEST PUSH0 PUSH2 0xBDB DUP3 PUSH2 0xBB7 JUMP JUMPDEST PUSH2 0xBE5 DUP2 DUP6 PUSH2 0xBC1 JUMP JUMPDEST SWAP4 POP PUSH2 0xBF5 DUP2 DUP6 PUSH1 0x20 DUP7 ADD PUSH2 0x83A JUMP JUMPDEST PUSH2 0xBFE DUP2 PUSH2 0x848 JUMP JUMPDEST DUP5 ADD SWAP2 POP POP SWAP3 SWAP2 POP POP JUMP JUMPDEST PUSH0 PUSH1 0x20 DUP3 ADD SWAP1 POP DUP2 DUP2 SUB PUSH0 DUP4 ADD MSTORE PUSH2 0xC21 DUP2 DUP5 PUSH2 0xBD1 JUMP JUMPDEST SWAP1 POP SWAP3 SWAP2 POP POP JUMP JUMPDEST PUSH0 PUSH8 0xFFFFFFFFFFFFFFFF DUP3 GT ISZERO PUSH2 0xC43 JUMPI PUSH2 0xC42 PUSH2 0xA4C JUMP JUMPDEST JUMPDEST PUSH2 0xC4C DUP3 PUSH2 0x848 JUMP JUMPDEST SWAP1 POP PUSH1 0x20 DUP2 ADD SWAP1 POP SWAP2 SWAP1 POP JUMP JUMPDEST PUSH0 PUSH2 0xC6B PUSH2 0xC66 DUP5 PUSH2 0xC29 JUMP JUMPDEST PUSH2 0xAAA JUMP JUMPDEST SWAP1 POP DUP3 DUP2 MSTORE PUSH1 0x20 DUP2 ADD DUP5 DUP5 DUP5 ADD GT ISZERO PUSH2 0xC87 JUMPI PUSH2 0xC86 PUSH2 0xA48 JUMP JUMPDEST JUMPDEST PUSH2 0xC92 DUP5 DUP3 DUP6 PUSH2 0xAF4 JUMP JUMPDEST POP SWAP4 SWAP3 POP POP POP JUMP JUMPDEST PUSH0 DUP3 PUSH1 0x1F DUP4 ADD SLT PUSH2 0xCAE JUMPI PUSH2 0xCAD PUSH2 0xA44 JUMP JUMPDEST JUMPDEST DUP2 CALLDATALOAD PUSH2 0xCBE DUP5 DUP3 PUSH1 0x20 DUP7 ADD PUSH2 0xC59 JUMP JUMPDEST SWAP2 POP POP SWAP3 SWAP2 POP POP JUMP JUMPDEST PUSH0 PUSH1 0x20 DUP3 DUP5 SUB SLT ISZERO PUSH2 0xCDC JUMPI PUSH2 0xCDB PUSH2 0x7BA JUMP JUMPDEST JUMPDEST PUSH0 DUP3 ADD CALLDATALOAD PUSH8 0xFFFFFFFFFFFFFFFF DUP2 GT ISZERO PUSH2 0xCF9 JUMPI PUSH2 0xCF8 PUSH2 0x7BE JUMP JUMPDEST JUMPDEST PUSH2 0xD05 DUP5 DUP3 DUP6 ADD PUSH2 0xC9A JUMP JUMPDEST SWAP2 POP POP SWAP3 SWAP2 POP POP JUMP JUMPDEST PUSH2 0xD17 DUP2 PUSH2 0x9E6 JUMP JUMPDEST DUP3 MSTORE POP POP JUMP JUMPDEST PUSH0 PUSH1 0x20 DUP3 ADD SWAP1 POP PUSH2 0xD30 PUSH0 DUP4 ADD DUP5 PUSH2 0xD0E JUMP JUMPDEST SWAP3 SWAP2 POP POP JUMP JUMPDEST PUSH32 0x4E487B7100000000000000000000000000000000000000000000000000000000 PUSH0 MSTORE PUSH1 0x21 PUSH1 0x4 MSTORE PUSH1 0x24 PUSH0 REVERT JUMPDEST PUSH1 0x3 DUP2 LT PUSH2 0xD74 JUMPI PUSH2 0xD73 PUSH2 0xD36 JUMP JUMPDEST JUMPDEST POP JUMP JUMPDEST PUSH0 DUP2 SWAP1 POP PUSH2 0xD84 DUP3 PUSH2 0xD63 JUMP JUMPDEST SWAP2 SWAP1 POP JUMP JUMPDEST PUSH0 PUSH2 0xD93 DUP3 PUSH2 0xD77 JUMP JUMPDEST SWAP1 POP SWAP2 SWAP1 POP JUMP JUMPDEST PUSH2 0xDA3 DUP2 PUSH2 0xD89 JUMP JUMPDEST DUP3 MSTORE POP POP JUMP JUMPDEST PUSH0 PUSH1 0x20 DUP3 ADD SWAP1 POP PUSH2 0xDBC PUSH0 DUP4 ADD DUP5 PUSH2 0xD9A JUMP JUMPDEST SWAP3 SWAP2 POP POP JUMP JUMPDEST PUSH0 PUSH1 0x20 DUP3 DUP5 SUB SLT ISZERO PUSH2 0xDD7 JUMPI PUSH2 0xDD6 PUSH2 0x7BA JUMP JUMPDEST JUMPDEST PUSH0 PUSH2 0xDE4 DUP5 DUP3 DUP6 ADD PUSH2 0x91E JUMP JUMPDEST SWAP2 POP POP SWAP3 SWAP2 POP POP JUMP JUMPDEST PUSH32 0x4E487B7100000000000000000000000000000000000000000000000000000000 PUSH0 MSTORE PUSH1 0x32 PUSH1 0x4 MSTORE PUSH1 0x24 PUSH0 REVERT JUMPDEST PUSH32 0x4E487B7100000000000000000000000000000000000000000000000000000000 PUSH0 MSTORE PUSH1 0x22 PUSH1 0x4 MSTORE PUSH1 0x24 PUSH0 REVERT JUMPDEST PUSH0 PUSH1 0x2 DUP3 DIV SWAP1 POP PUSH1 0x1 DUP3 AND DUP1 PUSH2 0xE5E JUMPI PUSH1 0x7F DUP3 AND SWAP2 POP JUMPDEST PUSH1 0x20 DUP3 LT DUP2 SUB PUSH2 0xE71 JUMPI PUSH2 0xE70 PUSH2 0xE1A JUMP JUMPDEST JUMPDEST POP SWAP2 SWAP1 POP JUMP JUMPDEST PUSH0 DUP2 SWAP1 POP DUP2 PUSH0 MSTORE PUSH1 0x20 PUSH0 KECCAK256 SWAP1 POP SWAP2 SWAP1 POP JUMP JUMPDEST PUSH0 PUSH1 0x20 PUSH1 0x1F DUP4 ADD DIV SWAP1 POP SWAP2 SWAP1 POP JUMP JUMPDEST PUSH0 DUP3 DUP3 SHL SWAP1 POP SWAP3 SWAP2 POP POP JUMP JUMPDEST PUSH0 PUSH1 0x8 DUP4 MUL PUSH2 0xED3 PUSH32 0xFFFFFFFFFFFFFFFFFFFFFFFFFFFFFFFFFFFFFFFFFFFFFFFFFFFFFFFFFFFFFFFF DUP3 PUSH2 0xE98 JUMP JUMPDEST PUSH2 0xEDD DUP7 DUP4 PUSH2 0xE98 JUMP JUMPDEST SWAP6 POP DUP1 NOT DUP5 AND SWAP4 POP DUP1 DUP7 AND DUP5 OR SWAP3 POP POP POP SWAP4 SWAP3 POP POP POP JUMP JUMPDEST PUSH0 DUP2 SWAP1 POP SWAP2 SWAP1 POP JUMP JUMPDEST PUSH0 PUSH2 0xF18 PUSH2 0xF13 PUSH2 0xF0E DUP5 PUSH2 0x7C2 JUMP JUMPDEST PUSH2 0xEF5 JUMP JUMPDEST PUSH2 0x7C2 JUMP JUMPDEST SWAP1 POP SWAP2 SWAP1 POP JUMP JUMPDEST PUSH0 DUP2 SWAP1 POP SWAP2 SWAP1 POP JUMP JUMPDEST PUSH2 0xF31 DUP4 PUSH2 0xEFE JUMP JUMPDEST PUSH2 0xF45 PUSH2 0xF3D DUP3 PUSH2 0xF1F JUMP JUMPDEST DUP5 DUP5 SLOAD PUSH2 0xEA4 JUMP JUMPDEST DUP3 SSTORE POP POP POP POP JUMP JUMPDEST PUSH0 PUSH0 SWAP1 POP SWAP1 JUMP JUMPDEST PUSH2 0xF5C PUSH2 0xF4D JUMP JUMPDEST PUSH2 0xF67 DUP2 DUP5 DUP5 PUSH2 0xF28 JUMP JUMPDEST POP POP POP JUMP JUMPDEST JUMPDEST DUP2 DUP2 LT ISZERO PUSH2 0xF8A JUMPI PUSH2 0xF7F PUSH0 DUP3 PUSH2 0xF54 JUMP JUMPDEST PUSH1 0x1 DUP2 ADD SWAP1 POP PUSH2 0xF6D JUMP JUMPDEST POP POP JUMP JUMPDEST PUSH1 0x1F DUP3 GT ISZERO PUSH2 0xFCF JUMPI PUSH2 0xFA0 DUP2 PUSH2 0xE77 JUMP JUMPDEST PUSH2 0xFA9 DUP5 PUSH2 0xE89 JUMP JUMPDEST DUP2 ADD PUSH1 0x20 DUP6 LT ISZERO PUSH2 0xFB8 JUMPI DUP2 SWAP1 POP JUMPDEST PUSH2 0xFCC PUSH2 0xFC4 DUP6 PUSH2 0xE89 JUMP JUMPDEST DUP4 ADD DUP3 PUSH2 0xF6C JUMP JUMPDEST POP POP JUMPDEST POP POP POP JUMP JUMPDEST PUSH0 DUP3 DUP3 SHR SWAP1 POP SWAP3 SWAP2 POP POP JUMP JUMPDEST PUSH0 PUSH2 0xFEF PUSH0 NOT DUP5 PUSH1 0x8 MUL PUSH2 0xFD4 JUMP JUMPDEST NOT DUP1 DUP4 AND SWAP2 POP POP SWAP3 SWAP2 POP POP JUMP JUMPDEST PUSH0 PUSH2 0x1007 DUP4 DUP4 PUSH2 0xFE0 JUMP JUMPDEST SWAP2 POP DUP3 PUSH1 0x2 MUL DUP3 OR SWAP1 POP SWAP3 SWAP2 POP POP JUMP JUMPDEST PUSH2 0x1020 DUP3 PUSH2 0x820 JUMP JUMPDEST PUSH8 0xFFFFFFFFFFFFFFFF DUP2 GT ISZERO PUSH2 0x1039 JUMPI PUSH2 0x1038 PUSH2 0xA4C JUMP JUMPDEST JUMPDEST PUSH2 0x1043 DUP3 SLOAD PUSH2 0xE47 JUMP JUMPDEST PUSH2 0x104E DUP3 DUP3 DUP6 PUSH2 0xF8E JUMP JUMPDEST PUSH0 PUSH1 0x20 SWAP1 POP PUSH1 0x1F DUP4 GT PUSH1 0x1 DUP2 EQ PUSH2 0x107F JUMPI PUSH0 DUP5 ISZERO PUSH2 0x106D JUMPI DUP3 DUP8 ADD MLOAD SWAP1 POP JUMPDEST PUSH2 0x1077 DUP6 DUP3 PUSH2 0xFFC JUMP JUMPDEST DUP7 SSTORE POP PUSH2 0x10DE JUMP JUMPDEST PUSH1 0x1F NOT DUP5 AND PUSH2 0x108D DUP7 PUSH2 0xE77 JUMP JUMPDEST PUSH0 JUMPDEST DUP3 DUP2 LT ISZERO PUSH2 0x10B4 JUMPI DUP5 DUP10 ADD MLOAD DUP3 SSTORE PUSH1 0x1 DUP3 ADD SWAP2 POP PUSH1 0x20 DUP6 ADD SWAP5 POP PUSH1 0x20 DUP2 ADD SWAP1 POP PUSH2 0x108F JUMP JUMPDEST DUP7 DUP4 LT ISZERO PUSH2 0x10D1 JUMPI DUP5 DUP10 ADD MLOAD PUSH2 0x10CD PUSH1 0x1F DUP10 AND DUP3 PUSH2 0xFE0 JUMP JUMPDEST DUP4 SSTORE POP JUMPDEST PUSH1 0x1 PUSH1 0x2 DUP9 MUL ADD DUP9 SSTORE POP POP POP JUMPDEST POP POP POP POP POP POP JUMP JUMPDEST PUSH0 DUP2 SWAP1 POP DUP2 PUSH0 MSTORE PUSH1 0x20 PUSH0 KECCAK256 SWAP1 POP SWAP2 SWAP1 POP JUMP JUMPDEST PUSH1 0x1F DUP3 GT ISZERO PUSH2 0x1139 JUMPI PUSH2 0x110A DUP2 PUSH2 0x10E6 JUMP JUMPDEST PUSH2 0x1113 DUP5 PUSH2 0xE89 JUMP JUMPDEST DUP2 ADD PUSH1 0x20 DUP6 LT ISZERO PUSH2 0x1122 JUMPI DUP2 SWAP1 POP JUMPDEST PUSH2 0x1136 PUSH2 0x112E DUP6 PUSH2 0xE89 JUMP JUMPDEST DUP4 ADD DUP3 PUSH2 0xF6C JUMP JUMPDEST POP POP JUMPDEST POP POP POP JUMP JUMPDEST PUSH2 0x1147 DUP3 PUSH2 0xBB7 JUMP JUMPDEST PUSH8 0xFFFFFFFFFFFFFFFF DUP2 GT ISZERO PUSH2 0x1160 JUMPI PUSH2 0x115F PUSH2 0xA4C JUMP JUMPDEST JUMPDEST PUSH2 0x116A DUP3 SLOAD PUSH2 0xE47 JUMP JUMPDEST PUSH2 0x1175 DUP3 DUP3 DUP6 PUSH2 0x10F8 JUMP JUMPDEST PUSH0 PUSH1 0x20 SWAP1 POP PUSH1 0x1F DUP4 GT PUSH1 0x1 DUP2 EQ PUSH2 0x11A6 JUMPI PUSH0 DUP5 ISZERO PUSH2 0x1194 JUMPI DUP3 DUP8 ADD MLOAD SWAP1 POP JUMPDEST PUSH2 0x119E DUP6 DUP3 PUSH2 0xFFC JUMP JUMPDEST DUP7 SSTORE POP PUSH2 0x1205 JUMP JUMPDEST PUSH1 0x1F NOT DUP5 AND PUSH2 0x11B4 DUP7 PUSH2 0x10E6 JUMP JUMPDEST PUSH0 JUMPDEST DUP3 DUP2 LT ISZERO PUSH2 0x11DB JUMPI DUP5 DUP10 ADD MLOAD DUP3 SSTORE PUSH1 0x1 DUP3 ADD SWAP2 POP PUSH1 0x20 DUP6 ADD SWAP5 POP PUSH1 0x20 DUP2 ADD SWAP1 POP PUSH2 0x11B6 JUMP JUMPDEST DUP7 DUP4 LT ISZERO PUSH2 0x11F8 JUMPI DUP5 DUP10 ADD MLOAD PUSH2 0x11F4 PUSH1 0x1F DUP10 AND DUP3 PUSH2 0xFE0 JUMP JUMPDEST DUP4 SSTORE POP JUMPDEST PUSH1 0x1 PUSH1 0x2 DUP9 MUL ADD DUP9 SSTORE POP POP POP JUMPDEST POP POP POP POP POP POP JUMP INVALID LOG2 PUSH5 0x6970667358 0x22 SLT KECCAK256 DELEGATECALL 0xD0 0xC5 MUL SWAP10 0xB4 0xBC DUP15 0xDA 0xC7 0x4D 0xB5 NOT LOG4 SSTORE PUSH9 0x1E5E97304CC77AA797 CALLVALUE 0xDC NOT 0xA5 RETF DUP16 NOT PUSH5 0x736F6C6343 STOP ADDMOD 0x1E STOP CALLER "
				},
				"gasEstimates": {
					"creation": {
						"codeDepositCost": "935000",
						"executionCost": "973",
						"totalCost": "935973"
					},
					"external": {
						"addNumber(int256)": "46910",
						"addTask(string)": "infinite",
						"currentStatus()": "2597",
						"data()": "infinite",
						"getBalance(address)": "3313",
						"getNumber(uint256)": "4959",
						"getTask(uint256)": "infinite",
						"len()": "2492",
						"markDone(uint256)": "26907",
						"numbers(uint256)": "4893",
						"receiveFunds()": "143",
						"setData(bytes)": "infinite",
						"setStatus(uint8)": "24667",
						"tasks(uint256)": "infinite",
						"transferTo(address,uint256)": "infinite"
					}
				},
				"methodIdentifiers": {
					"addNumber(int256)": "63893d17",
					"addTask(string)": "67238562",
					"currentStatus()": "ef8a9235",
					"data()": "73d4a13a",
					"getBalance(address)": "f8b2cb4f",
					"getNumber(uint256)": "fc563658",
					"getTask(uint256)": "1d65e77e",
					"len()": "56d88e27",
					"markDone(uint256)": "4ad0e590",
					"numbers(uint256)": "d39fa233",
					"receiveFunds()": "005c33e1",
					"setData(bytes)": "ab62f0e1",
					"setStatus(uint8)": "2e49d78b",
					"tasks(uint256)": "8d977672",
					"transferTo(address,uint256)": "2ccb1b30"
				}
			},
			"storageLayout": {
				"storage": [
					{
						"astId": 13,
						"contract": "ToDoList.sol:ToDoList",
						"label": "currentStatus",
						"offset": 0,
						"slot": "0",
						"type": "t_enum(Status)10"
					},
					{
						"astId": 15,
						"contract": "ToDoList.sol:ToDoList",
						"label": "data",
						"offset": 0,
						"slot": "1",
						"type": "t_bytes_storage"
					},
					{
						"astId": 18,
						"contract": "ToDoList.sol:ToDoList",
						"label": "numbers",
						"offset": 0,
						"slot": "2",
						"type": "t_array(t_int256)dyn_storage"
					},
					{
						"astId": 20,
						"contract": "ToDoList.sol:ToDoList",
						"label": "len",
						"offset": 0,
						"slot": "3",
						"type": "t_uint256"
					},
					{
						"astId": 24,
						"contract": "ToDoList.sol:ToDoList",
						"label": "tasks",
						"offset": 0,
						"slot": "4",
						"type": "t_array(t_struct(Task)6_storage)dyn_storage"
					}
				],
				"types": {
					"t_array(t_int256)dyn_storage": {
						"base": "t_int256",
						"encoding": "dynamic_array",
						"label": "int256[]",
						"numberOfBytes": "32"
					},
					"t_array(t_struct(Task)6_storage)dyn_storage": {
						"base": "t_struct(Task)6_storage",
						"encoding": "dynamic_array",
						"label": "struct ToDoList.Task[]",
						"numberOfBytes": "32"
					},
					"t_bool": {
						"encoding": "inplace",
						"label": "bool",
						"numberOfBytes": "1"
					},
					"t_bytes_storage": {
						"encoding": "bytes",
						"label": "bytes",
						"numberOfBytes": "32"
					},
					"t_enum(Status)10": {
						"encoding": "inplace",
						"label": "enum ToDoList.Status",
						"numberOfBytes": "1"
					},
					"t_int256": {
						"encoding": "inplace",
						"label": "int256",
						"numberOfBytes": "32"
					},
					"t_string_storage": {
						"encoding": "bytes",
						"label": "string",
						"numberOfBytes": "32"
					},
					"t_struct(Task)6_storage": {
						"encoding": "inplace",
						"label": "struct ToDoList.Task",
						"members": [
							{
								"astId": 3,
								"contract": "ToDoList.sol:ToDoList",
								"label": "textTask",
								"offset": 0,
								"slot": "0",
								"type": "t_string_storage"
							},
							{
								"astId": 5,
								"contract": "ToDoList.sol:ToDoList",
								"label": "completeTask",
								"offset": 0,
								"slot": "1",
								"type": "t_bool"
							}
						],
						"numberOfBytes": "64"
					},
					"t_uint256": {
						"encoding": "inplace",
						"label": "uint256",
						"numberOfBytes": "32"
					}
				}
			},
			"userdoc": {
				"kind": "user",
				"methods": {},
				"version": 1
			}
		}
	}
}